{"abi":[{"type":"function","name":"testMakeCommitmentSignature","inputs":[{"name":"registrar","type":"address","internalType":"contract IMockETHRegistrar"}],"outputs":[],"stateMutability":"pure"},{"type":"function","name":"testRegisterSignature","inputs":[{"name":"registrar","type":"address","internalType":"contract IMockETHRegistrar"}],"outputs":[],"stateMutability":"nonpayable"}],"bytecode":{"object":"0x6080604052348015600e575f5ffd5b506105598061001c5f395ff3fe608060405234801561000f575f5ffd5b5060043610610034575f3560e01c80634f12550914610038578063a6d25adc14610054575b5f5ffd5b610052600480360381019061004d91906101f2565b610070565b005b61006e600480360381019061006991906101f2565b6100fb565b005b8073ffffffffffffffffffffffffffffffffffffffff1663422d37945f5f5f5f1b5f5f5f5f6040518863ffffffff1660e01b81526004016100b69695949392919061038c565b60206040518083038185885af11580156100d2573d5f5f3e3d5ffd5b50505050506040513d601f19601f820116820180604052508101906100f79190610431565b5050565b8073ffffffffffffffffffffffffffffffffffffffff1663f3b74c8d5f5f5f1b5f5f5f5f6040518763ffffffff1660e01b81526004016101409695949392919061045c565b602060405180830381865afa15801561015b573d5f5f3e3d5ffd5b505050506040513d601f19601f8201168201806040525081019061017f91906104f8565b5050565b5f5ffd5b5f73ffffffffffffffffffffffffffffffffffffffff82169050919050565b5f6101b082610187565b9050919050565b5f6101c1826101a6565b9050919050565b6101d1816101b7565b81146101db575f5ffd5b50565b5f813590506101ec816101c8565b92915050565b5f6020828403121561020757610206610183565b5b5f610214848285016101de565b91505092915050565b5f82825260208201905092915050565b7f74657374000000000000000000000000000000000000000000000000000000005f82015250565b5f61026160048361021d565b915061026c8261022d565b602082019050919050565b610280816101a6565b82525050565b5f819050919050565b61029881610286565b82525050565b5f819050919050565b5f6102c16102bc6102b784610187565b61029e565b610187565b9050919050565b5f6102d2826102a7565b9050919050565b5f6102e3826102c8565b9050919050565b6102f3816102d9565b82525050565b5f819050919050565b5f6bffffffffffffffffffffffff82169050919050565b5f61033361032e610329846102f9565b61029e565b610302565b9050919050565b61034381610319565b82525050565b5f67ffffffffffffffff82169050919050565b5f61037661037161036c846102f9565b61029e565b610349565b9050919050565b6103868161035c565b82525050565b5f60e0820190508181035f8301526103a381610255565b90506103b26020830189610277565b6103bf604083018861028f565b6103cc60608301876102ea565b6103d96080830186610277565b6103e660a083018561033a565b6103f360c083018461037d565b979650505050505050565b5f819050919050565b610410816103fe565b811461041a575f5ffd5b50565b5f8151905061042b81610407565b92915050565b5f6020828403121561044657610445610183565b5b5f6104538482850161041d565b91505092915050565b5f60e0820190508181035f83015261047381610255565b90506104826020830189610277565b61048f604083018861028f565b61049c6060830187610277565b6104a96080830186610277565b6104b660a083018561033a565b6104c360c083018461037d565b979650505050505050565b6104d781610286565b81146104e1575f5ffd5b50565b5f815190506104f2816104ce565b92915050565b5f6020828403121561050d5761050c610183565b5b5f61051a848285016104e4565b9150509291505056fea26469706673582212204a1f6348bf1c505e694f8135367e8ee3036d7c49d05735cb6ba6ec1e3f2b84d264736f6c634300081b0033","linkReferences":{}},"methodIdentifiers":{"testMakeCommitmentSignature(address)":"a6d25adc","testRegisterSignature(address)":"4f125509"},"id":0}