{
  "address": "0xdc64a140aa3e981100a9beca4e685f962f0cf6c9",
  "abi": [
    {
      "inputs": [
        {
          "internalType": "address",
          "name": "owner",
          "type": "address"
        },
        {
          "internalType": "string[]",
          "name": "urls",
          "type": "string[]"
        }
      ],
      "stateMutability": "nonpayable",
      "type": "constructor"
    },
    {
      "inputs": [
        {
          "internalType": "address",
          "name": "owner",
          "type": "address"
        }
      ],
      "name": "OwnableInvalidOwner",
      "type": "error"
    },
    {
      "inputs": [
        {
          "internalType": "address",
          "name": "account",
          "type": "address"
        }
      ],
      "name": "OwnableUnauthorizedAccount",
      "type": "error"
    },
    {
      "anonymous": false,
      "inputs": [
        {
          "indexed": true,
          "internalType": "address",
          "name": "previousOwner",
          "type": "address"
        },
        {
          "indexed": true,
          "internalType": "address",
          "name": "newOwner",
          "type": "address"
        }
      ],
      "name": "OwnershipTransferred",
      "type": "event"
    },
    {
      "inputs": [],
      "name": "gateways",
      "outputs": [
        {
          "internalType": "string[]",
          "name": "",
          "type": "string[]"
        }
      ],
      "stateMutability": "view",
      "type": "function"
    },
    {
      "inputs": [],
      "name": "owner",
      "outputs": [
        {
          "internalType": "address",
          "name": "",
          "type": "address"
        }
      ],
      "stateMutability": "view",
      "type": "function"
    },
    {
      "inputs": [],
      "name": "renounceOwnership",
      "outputs": [],
      "stateMutability": "nonpayable",
      "type": "function"
    },
    {
      "inputs": [
        {
          "internalType": "string[]",
          "name": "urls",
          "type": "string[]"
        }
      ],
      "name": "setGateways",
      "outputs": [],
      "stateMutability": "nonpayable",
      "type": "function"
    },
    {
      "inputs": [
        {
          "internalType": "address",
          "name": "newOwner",
          "type": "address"
        }
      ],
      "name": "transferOwnership",
      "outputs": [],
      "stateMutability": "nonpayable",
      "type": "function"
    }
  ],
  "contractName": "GatewayProvider",
  "sourceName": "lib/ens-contracts/contracts/ccipRead/GatewayProvider.sol",
  "bytecode": "0x608060405234801561000f575f80fd5b50604051610b54380380610b5483398101604081905261002e916101d2565b816001600160a01b03811661005c57604051631e4fbdf760e01b81525f600482015260240160405180910390fd5b61006581610081565b5080516100799060019060208401906100d0565b505050610443565b5f80546001600160a01b038381166001600160a01b0319831681178455604051919092169283917f8be0079c531659141344cd1fd0a4f28419497f9722a3daafe3b4186f6b6457e09190a35050565b828054828255905f5260205f20908101928215610114579160200282015b8281111561011457825182906101049082610384565b50916020019190600101906100ee565b50610120929150610124565b5090565b80821115610120575f6101378282610140565b50600101610124565b50805461014c90610300565b5f825580601f1061015b575050565b601f0160209004905f5260205f2090810190610177919061017a565b50565b5b80821115610120575f815560010161017b565b634e487b7160e01b5f52604160045260245ffd5b604051601f8201601f191681016001600160401b03811182821017156101ca576101ca61018e565b604052919050565b5f8060408084860312156101e4575f80fd5b83516001600160a01b03811681146101fa575f80fd5b602085810151919450906001600160401b0380821115610218575f80fd5b8187019150601f88601f84011261022d575f80fd5b82518281111561023f5761023f61018e565b8060051b61024e8682016101a2565b918252848101860191868101908c841115610267575f80fd5b87870192505b838310156102ed57825186811115610283575f80fd5b8701603f81018e13610293575f80fd5b88810151878111156102a7576102a761018e565b6102b8818801601f19168b016101a2565b8181528f8c8385010111156102cb575f80fd5b818c84018c83015e5f9181018b0191909152835250918701919087019061026d565b8099505050505050505050509250929050565b600181811c9082168061031457607f821691505b60208210810361033257634e487b7160e01b5f52602260045260245ffd5b50919050565b601f82111561037f57805f5260205f20601f840160051c8101602085101561035d5750805b601f840160051c820191505b8181101561037c575f8155600101610369565b50505b505050565b81516001600160401b0381111561039d5761039d61018e565b6103b1816103ab8454610300565b84610338565b602080601f8311600181146103e4575f84156103cd5750858301515b5f19600386901b1c1916600185901b17855561043b565b5f85815260208120601f198616915b82811015610412578886015182559484019460019091019084016103f3565b508582101561042f57878501515f19600388901b60f8161c191681555b505060018460011b0185555b505050505050565b610704806104505f395ff3fe608060405234801561000f575f80fd5b5060043610610064575f3560e01c8063715018a61161004d578063715018a61461009b5780638da5cb5b146100a3578063f2fde38b146100bd575f80fd5b8063093a86d3146100685780632792207414610086575b5f80fd5b6100706100d0565b60405161007d9190610393565b60405180910390f35b61009961009436600461044f565b6101a4565b005b6100996101c3565b5f546040516001600160a01b03909116815260200161007d565b6100996100cb36600461055d565b6101d6565b60606001805480602002602001604051908101604052809291908181526020015f905b8282101561019b578382905f5260205f200180546101109061058a565b80601f016020809104026020016040519081016040528092919081815260200182805461013c9061058a565b80156101875780601f1061015e57610100808354040283529160200191610187565b820191905f5260205f20905b81548152906001019060200180831161016a57829003601f168201915b5050505050815260200190600101906100f3565b50505050905090565b6101ac610231565b80516101bf9060019060208401906102dd565b5050565b6101cb610231565b6101d45f610276565b565b6101de610231565b6001600160a01b038116610225576040517f1e4fbdf70000000000000000000000000000000000000000000000000000000081525f60048201526024015b60405180910390fd5b61022e81610276565b50565b5f546001600160a01b031633146101d4576040517f118cdaa700000000000000000000000000000000000000000000000000000000815233600482015260240161021c565b5f80546001600160a01b038381167fffffffffffffffffffffffff0000000000000000000000000000000000000000831681178455604051919092169283917f8be0079c531659141344cd1fd0a4f28419497f9722a3daafe3b4186f6b6457e09190a35050565b828054828255905f5260205f20908101928215610321579160200282015b828111156103215782518290610311908261060e565b50916020019190600101906102fb565b5061032d929150610331565b5090565b8082111561032d575f610344828261034d565b50600101610331565b5080546103599061058a565b5f825580601f10610368575050565b601f0160209004905f5260205f209081019061022e91905b8082111561032d575f8155600101610380565b5f602080830181845280855180835260408601915060408160051b87010192508387015f5b828110156103fd57878503603f1901845281518051808752808883018989015e5f878201890152601f01601f19169095018601945092850192908501906001016103b8565b5092979650505050505050565b634e487b7160e01b5f52604160045260245ffd5b604051601f8201601f1916810167ffffffffffffffff811182821017156104475761044761040a565b604052919050565b5f6020808385031215610460575f80fd5b823567ffffffffffffffff80821115610477575f80fd5b8185019150601f86601f84011261048c575f80fd5b82358281111561049e5761049e61040a565b8060051b6104ad86820161041e565b918252848101860191868101908a8411156104c6575f80fd5b87870192505b8383101561054f578235868111156104e2575f80fd5b8701603f81018c136104f2575f80fd5b888101356040888211156105085761050861040a565b610519828901601f19168c0161041e565b8281528e8284860101111561052c575f80fd5b828285018d8301375f9281018c01929092525083525091870191908701906104cc565b9a9950505050505050505050565b5f6020828403121561056d575f80fd5b81356001600160a01b0381168114610583575f80fd5b9392505050565b600181811c9082168061059e57607f821691505b6020821081036105bc57634e487b7160e01b5f52602260045260245ffd5b50919050565b601f82111561060957805f5260205f20601f840160051c810160208510156105e75750805b601f840160051c820191505b81811015610606575f81556001016105f3565b50505b505050565b815167ffffffffffffffff8111156106285761062861040a565b61063c81610636845461058a565b846105c2565b602080601f83116001811461066f575f84156106585750858301515b5f19600386901b1c1916600185901b1785556106c6565b5f85815260208120601f198616915b8281101561069d5788860151825594840194600190910190840161067e565b50858210156106ba57878501515f19600388901b60f8161c191681555b505060018460011b0185555b50505050505056fea2646970667358221220a4011f757827ccf8c44b733a27a89ac06e429be5abef408b7b3636a3cee5b34464736f6c63430008190033",
  "linkReferences": {},
  "deployedLinkReferences": {},
  "immutableReferences": {},
  "inputSourceName": "project/lib/ens-contracts/contracts/ccipRead/GatewayProvider.sol",
  "devdoc": {
    "errors": {
      "OwnableInvalidOwner(address)": [
        {
          "details": "The owner is not a valid owner account. (eg. `address(0)`)"
        }
      ],
      "OwnableUnauthorizedAccount(address)": [
        {
          "details": "The caller account is not authorized to perform an operation."
        }
      ]
    },
    "kind": "dev",
    "methods": {
      "gateways()": {
        "returns": {
          "_0": "The gateway URLs."
        }
      },
      "owner()": {
        "details": "Returns the address of the current owner."
      },
      "renounceOwnership()": {
        "details": "Leaves the contract without owner. It will not be possible to call `onlyOwner` functions. Can only be called by the current owner. NOTE: Renouncing ownership will leave the contract without an owner, thereby disabling any functionality that is only available to the owner."
      },
      "setGateways(string[])": {
        "params": {
          "urls": "The gateway URLs."
        }
      },
      "transferOwnership(address)": {
        "details": "Transfers ownership of the contract to a new account (`newOwner`). Can only be called by the current owner."
      }
    },
    "version": 1
  },
  "evm": {
    "gasEstimates": {
      "creation": {
        "codeDepositCost": "359200",
        "executionCost": "infinite",
        "totalCost": "infinite"
      },
      "external": {
        "gateways()": "infinite",
        "owner()": "2321",
        "renounceOwnership()": "infinite",
        "setGateways(string[])": "infinite",
        "transferOwnership(address)": "28323"
      }
    }
  },
  "storageLayout": {
    "storage": [
      {
        "astId": 45980,
        "contract": "project/lib/ens-contracts/contracts/ccipRead/GatewayProvider.sol:GatewayProvider",
        "label": "_owner",
        "offset": 0,
        "slot": "0",
        "type": "t_address"
      },
      {
        "astId": 1444,
        "contract": "project/lib/ens-contracts/contracts/ccipRead/GatewayProvider.sol:GatewayProvider",
        "label": "_urls",
        "offset": 0,
        "slot": "1",
        "type": "t_array(t_string_storage)dyn_storage"
      }
    ],
    "types": {
      "t_address": {
        "encoding": "inplace",
        "label": "address",
        "numberOfBytes": "20"
      },
      "t_array(t_string_storage)dyn_storage": {
        "base": "t_string_storage",
        "encoding": "dynamic_array",
        "label": "string[]",
        "numberOfBytes": "32"
      },
      "t_string_storage": {
        "encoding": "bytes",
        "label": "string",
        "numberOfBytes": "32"
      }
    }
  },
  "userdoc": {
    "kind": "user",
    "methods": {
      "gateways()": {
        "notice": "Get the gateways."
      },
      "setGateways(string[])": {
        "notice": "Set the gateways."
      }
    },
    "version": 1
  },
  "argsData": "0x00000000000000000000000070997970c51812dc3a010c7d01b50e0d17dc79c80000000000000000000000000000000000000000000000000000000000000040000000000000000000000000000000000000000000000000000000000000000100000000000000000000000000000000000000000000000000000000000000200000000000000000000000000000000000000000000000000000000000000014782d62617463682d676174657761793a74727565000000000000000000000000",
  "transaction": {
    "hash": "0x6f56cdaffffcf3c03d7b87fc95036f86fff419c76dcc1a7d8a1c9c1c2125d160",
    "nonce": "0x4",
    "origin": "0xf39fd6e51aad88f6f4ce6ab8827279cfffb92266"
  }
}