{
  "address": "0x7969c5ed335650692bc04293b07f5bf2e7a673c0",
  "abi": [
    {
      "inputs": [
        {
          "internalType": "contract IPermissionedRegistry",
          "name": "ethRegistry_",
          "type": "address"
        }
      ],
      "stateMutability": "nonpayable",
      "type": "constructor"
    },
    {
      "inputs": [],
      "name": "ETH_REGISTRY",
      "outputs": [
        {
          "internalType": "contract IPermissionedRegistry",
          "name": "",
          "type": "address"
        }
      ],
      "stateMutability": "view",
      "type": "function"
    },
    {
      "inputs": [
        {
          "components": [
            {
              "internalType": "string",
              "name": "label",
              "type": "string"
            },
            {
              "internalType": "address",
              "name": "owner",
              "type": "address"
            },
            {
              "internalType": "contract IRegistry",
              "name": "registry",
              "type": "address"
            },
            {
              "internalType": "address",
              "name": "resolver",
              "type": "address"
            },
            {
              "internalType": "uint256",
              "name": "roleBitmap",
              "type": "uint256"
            },
            {
              "internalType": "uint64",
              "name": "expires",
              "type": "uint64"
            }
          ],
          "internalType": "struct BatchRegistrarName[]",
          "name": "names",
          "type": "tuple[]"
        }
      ],
      "name": "batchRegister",
      "outputs": [],
      "stateMutability": "nonpayable",
      "type": "function"
    }
  ],
  "contractName": "BatchRegistrar",
  "sourceName": "src/registrar/BatchRegistrar.sol",
  "bytecode": "0x60a0604052348015600e575f80fd5b506040516107ab3803806107ab833981016040819052602b91603b565b6001600160a01b03166080526066565b5f60208284031215604a575f80fd5b81516001600160a01b0381168114605f575f80fd5b9392505050565b6080516107136100985f395f8181603d0152818160cc01528181610190015281816102a3015261033b01526107135ff3fe608060405234801561000f575f80fd5b5060043610610034575f3560e01c806347500708146100385780639e64ec7d1461007b575b5f80fd5b61005f7f000000000000000000000000000000000000000000000000000000000000000081565b6040516001600160a01b03909116815260200160405180910390f35b61008e6100893660046103f5565b610090565b005b5f5b818110156103f057368383838181106100ad576100ad610464565b90506020028101906100bf9190610478565b90505f6001600160a01b037f000000000000000000000000000000000000000000000000000000000000000016630a7963746100fb8480610496565b6040518363ffffffff1660e01b8152600401610118929190610508565b60c060405180830381865afa158015610133573d5f803e3d5ffd5b505050506040513d601f19601f82011682018060405250810190610157919061057d565b805190925067ffffffffffffffff1615905080610181575042815f015167ffffffffffffffff1611155b1561026c576001600160a01b037f0000000000000000000000000000000000000000000000000000000000000000166385f3e6436101bf8480610496565b6101cf6040870160208801610634565b6101df6060880160408901610634565b6101ef6080890160608a01610634565b608089013561020460c08b0160a08c01610656565b6040518863ffffffff1660e01b81526004016102269796959493929190610671565b6020604051808303815f875af1158015610242573d5f803e3d5ffd5b505050506040513d601f19601f8201168201806040525081019061026691906106c6565b506103e6565b805167ffffffffffffffff1661028860c0840160a08501610656565b67ffffffffffffffff1611156103e6575f6001600160a01b037f000000000000000000000000000000000000000000000000000000000000000016630a7963746102d28580610496565b6040518363ffffffff1660e01b81526004016102ef929190610508565b60c060405180830381865afa15801561030a573d5f803e3d5ffd5b505050506040513d601f19601f8201168201806040525081019061032e919061057d565b5090506001600160a01b037f000000000000000000000000000000000000000000000000000000000000000016635569f33d8261037160c0870160a08801610656565b6040517fffffffff0000000000000000000000000000000000000000000000000000000060e085901b168152600481019290925267ffffffffffffffff1660248201526044015f604051808303815f87803b1580156103ce575f80fd5b505af11580156103e0573d5f803e3d5ffd5b50505050505b5050600101610092565b505050565b5f8060208385031215610406575f80fd5b823567ffffffffffffffff8082111561041d575f80fd5b818501915085601f830112610430575f80fd5b81358181111561043e575f80fd5b8660208260051b8501011115610452575f80fd5b60209290920196919550909350505050565b634e487b7160e01b5f52603260045260245ffd5b5f823560be1983360301811261048c575f80fd5b9190910192915050565b5f808335601e198436030181126104ab575f80fd5b83018035915067ffffffffffffffff8211156104c5575f80fd5b6020019150368190038213156104d9575f80fd5b9250929050565b81835281816020850137505f828201602090810191909152601f909101601f19169091010190565b602081525f61051b6020830184866104e0565b949350505050565b67ffffffffffffffff81168114610538575f80fd5b50565b805161054681610523565b919050565b805163ffffffff81168114610546575f80fd5b6001600160a01b0381168114610538575f80fd5b80516105468161055e565b5f8082840360c081121561058f575f80fd5b8351925060a0601f19820112156105a4575f80fd5b5060405160a0810181811067ffffffffffffffff821117156105d457634e487b7160e01b5f52604160045260245ffd5b6040526105e36020850161053b565b81526105f16040850161054b565b602082015261060260608501610572565b60408201526106136080850161054b565b606082015261062460a08501610572565b6080820152809150509250929050565b5f60208284031215610644575f80fd5b813561064f8161055e565b9392505050565b5f60208284031215610666575f80fd5b813561064f81610523565b60c081525f61068460c08301898b6104e0565b6001600160a01b039788166020840152958716604083015250929094166060830152608082015267ffffffffffffffff90921660a09092019190915292915050565b5f602082840312156106d6575f80fd5b505191905056fea264697066735822122088cfb61f8fc216f768eab952d97a71e98f045e83ced93e582ddc8e414cb7883e64736f6c63430008190033",
  "linkReferences": {},
  "deployedLinkReferences": {},
  "immutableReferences": {
    "19368": [
      {
        "length": 32,
        "start": 61
      },
      {
        "length": 32,
        "start": 204
      },
      {
        "length": 32,
        "start": 400
      },
      {
        "length": 32,
        "start": 675
      },
      {
        "length": 32,
        "start": 827
      }
    ]
  },
  "inputSourceName": "project/src/registrar/BatchRegistrar.sol",
  "devdoc": {
    "kind": "dev",
    "methods": {
      "batchRegister((string,address,address,address,uint256,uint64)[])": {
        "details": "For each name:      - If not registered or expired: register it      - If registered with different expiry: renew to sync expiry with v1      - If registered with same expiry: skip (no-op)",
        "params": {
          "names": "Array of names to register or renew"
        }
      }
    },
    "title": "BatchRegistrar",
    "version": 1
  },
  "evm": {
    "gasEstimates": {
      "creation": {
        "codeDepositCost": "362200",
        "executionCost": "infinite",
        "totalCost": "infinite"
      },
      "external": {
        "ETH_REGISTRY()": "infinite",
        "batchRegister((string,address,address,address,uint256,uint64)[])": "infinite"
      }
    }
  },
  "storageLayout": {
    "storage": [],
    "types": null
  },
  "userdoc": {
    "kind": "user",
    "methods": {
      "batchRegister((string,address,address,address,uint256,uint64)[])": {
        "notice": "Batch register or renew names"
      }
    },
    "notice": "Simple batch registration contract for pre-migration of ENS names",
    "version": 1
  },
  "argsData": "0x00000000000000000000000084ea74d481ee0a5332c457a4d796187f6ba67feb",
  "transaction": {
    "hash": "0x4e7c538d7d445e2a44bff0b20eb2a46d5664f5d4d2125ab5c4a948e2b34a78d3",
    "nonce": "0x38",
    "origin": "0xf39fd6e51aad88f6f4ce6ab8827279cfffb92266"
  }
}