{
  "address": "0xcbeaf3bde82155f56486fb5a1072cb8baaf547cc",
  "abi": [
    {
      "inputs": [
        {
          "internalType": "contract IHCAFactoryBasic",
          "name": "hcaFactory",
          "type": "address"
        }
      ],
      "stateMutability": "nonpayable",
      "type": "constructor"
    },
    {
      "inputs": [
        {
          "internalType": "address",
          "name": "target",
          "type": "address"
        }
      ],
      "name": "AddressEmptyCode",
      "type": "error"
    },
    {
      "inputs": [
        {
          "internalType": "uint256",
          "name": "resource",
          "type": "uint256"
        },
        {
          "internalType": "uint256",
          "name": "roleBitmap",
          "type": "uint256"
        },
        {
          "internalType": "address",
          "name": "account",
          "type": "address"
        }
      ],
      "name": "EACCannotGrantRoles",
      "type": "error"
    },
    {
      "inputs": [
        {
          "internalType": "uint256",
          "name": "resource",
          "type": "uint256"
        },
        {
          "internalType": "uint256",
          "name": "roleBitmap",
          "type": "uint256"
        },
        {
          "internalType": "address",
          "name": "account",
          "type": "address"
        }
      ],
      "name": "EACCannotRevokeRoles",
      "type": "error"
    },
    {
      "inputs": [],
      "name": "EACInvalidAccount",
      "type": "error"
    },
    {
      "inputs": [
        {
          "internalType": "uint256",
          "name": "roleBitmap",
          "type": "uint256"
        }
      ],
      "name": "EACInvalidRoleBitmap",
      "type": "error"
    },
    {
      "inputs": [
        {
          "internalType": "uint256",
          "name": "resource",
          "type": "uint256"
        },
        {
          "internalType": "uint256",
          "name": "role",
          "type": "uint256"
        }
      ],
      "name": "EACMaxAssignees",
      "type": "error"
    },
    {
      "inputs": [
        {
          "internalType": "uint256",
          "name": "resource",
          "type": "uint256"
        },
        {
          "internalType": "uint256",
          "name": "role",
          "type": "uint256"
        }
      ],
      "name": "EACMinAssignees",
      "type": "error"
    },
    {
      "inputs": [],
      "name": "EACRootResourceNotAllowed",
      "type": "error"
    },
    {
      "inputs": [
        {
          "internalType": "uint256",
          "name": "resource",
          "type": "uint256"
        },
        {
          "internalType": "uint256",
          "name": "roleBitmap",
          "type": "uint256"
        },
        {
          "internalType": "address",
          "name": "account",
          "type": "address"
        }
      ],
      "name": "EACUnauthorizedAccountRoles",
      "type": "error"
    },
    {
      "inputs": [
        {
          "internalType": "address",
          "name": "implementation",
          "type": "address"
        }
      ],
      "name": "ERC1967InvalidImplementation",
      "type": "error"
    },
    {
      "inputs": [],
      "name": "ERC1967NonPayable",
      "type": "error"
    },
    {
      "inputs": [],
      "name": "FailedCall",
      "type": "error"
    },
    {
      "inputs": [
        {
          "internalType": "uint256",
          "name": "contentType",
          "type": "uint256"
        }
      ],
      "name": "InvalidContentType",
      "type": "error"
    },
    {
      "inputs": [
        {
          "internalType": "bytes",
          "name": "addressBytes",
          "type": "bytes"
        }
      ],
      "name": "InvalidEVMAddress",
      "type": "error"
    },
    {
      "inputs": [],
      "name": "InvalidInitialization",
      "type": "error"
    },
    {
      "inputs": [],
      "name": "InvalidOwner",
      "type": "error"
    },
    {
      "inputs": [],
      "name": "NotInitializing",
      "type": "error"
    },
    {
      "inputs": [],
      "name": "UUPSUnauthorizedCallContext",
      "type": "error"
    },
    {
      "inputs": [
        {
          "internalType": "bytes32",
          "name": "slot",
          "type": "bytes32"
        }
      ],
      "name": "UUPSUnsupportedProxiableUUID",
      "type": "error"
    },
    {
      "inputs": [
        {
          "internalType": "bytes4",
          "name": "selector",
          "type": "bytes4"
        }
      ],
      "name": "UnsupportedResolverProfile",
      "type": "error"
    },
    {
      "anonymous": false,
      "inputs": [
        {
          "indexed": true,
          "internalType": "bytes32",
          "name": "node",
          "type": "bytes32"
        },
        {
          "indexed": true,
          "internalType": "uint256",
          "name": "contentType",
          "type": "uint256"
        }
      ],
      "name": "ABIChanged",
      "type": "event"
    },
    {
      "anonymous": false,
      "inputs": [
        {
          "indexed": true,
          "internalType": "bytes32",
          "name": "node",
          "type": "bytes32"
        },
        {
          "indexed": false,
          "internalType": "address",
          "name": "a",
          "type": "address"
        }
      ],
      "name": "AddrChanged",
      "type": "event"
    },
    {
      "anonymous": false,
      "inputs": [
        {
          "indexed": true,
          "internalType": "bytes32",
          "name": "node",
          "type": "bytes32"
        },
        {
          "indexed": false,
          "internalType": "uint256",
          "name": "coinType",
          "type": "uint256"
        },
        {
          "indexed": false,
          "internalType": "bytes",
          "name": "newAddress",
          "type": "bytes"
        }
      ],
      "name": "AddressChanged",
      "type": "event"
    },
    {
      "anonymous": false,
      "inputs": [
        {
          "indexed": true,
          "internalType": "bytes32",
          "name": "node",
          "type": "bytes32"
        },
        {
          "indexed": false,
          "internalType": "bytes",
          "name": "hash",
          "type": "bytes"
        }
      ],
      "name": "ContenthashChanged",
      "type": "event"
    },
    {
      "anonymous": false,
      "inputs": [
        {
          "indexed": true,
          "internalType": "uint256",
          "name": "resource",
          "type": "uint256"
        },
        {
          "indexed": true,
          "internalType": "address",
          "name": "account",
          "type": "address"
        },
        {
          "indexed": false,
          "internalType": "uint256",
          "name": "oldRoleBitmap",
          "type": "uint256"
        },
        {
          "indexed": false,
          "internalType": "uint256",
          "name": "newRoleBitmap",
          "type": "uint256"
        }
      ],
      "name": "EACRolesChanged",
      "type": "event"
    },
    {
      "anonymous": false,
      "inputs": [
        {
          "indexed": false,
          "internalType": "uint64",
          "name": "version",
          "type": "uint64"
        }
      ],
      "name": "Initialized",
      "type": "event"
    },
    {
      "anonymous": false,
      "inputs": [
        {
          "indexed": true,
          "internalType": "bytes32",
          "name": "node",
          "type": "bytes32"
        },
        {
          "indexed": true,
          "internalType": "bytes4",
          "name": "interfaceID",
          "type": "bytes4"
        },
        {
          "indexed": false,
          "internalType": "address",
          "name": "implementer",
          "type": "address"
        }
      ],
      "name": "InterfaceChanged",
      "type": "event"
    },
    {
      "anonymous": false,
      "inputs": [
        {
          "indexed": true,
          "internalType": "bytes32",
          "name": "node",
          "type": "bytes32"
        },
        {
          "indexed": false,
          "internalType": "string",
          "name": "name",
          "type": "string"
        }
      ],
      "name": "NameChanged",
      "type": "event"
    },
    {
      "anonymous": false,
      "inputs": [
        {
          "indexed": true,
          "internalType": "bytes32",
          "name": "node",
          "type": "bytes32"
        },
        {
          "indexed": false,
          "internalType": "bytes32",
          "name": "x",
          "type": "bytes32"
        },
        {
          "indexed": false,
          "internalType": "bytes32",
          "name": "y",
          "type": "bytes32"
        }
      ],
      "name": "PubkeyChanged",
      "type": "event"
    },
    {
      "anonymous": false,
      "inputs": [
        {
          "indexed": true,
          "internalType": "bytes32",
          "name": "node",
          "type": "bytes32"
        },
        {
          "indexed": true,
          "internalType": "string",
          "name": "indexedKey",
          "type": "string"
        },
        {
          "indexed": false,
          "internalType": "string",
          "name": "key",
          "type": "string"
        },
        {
          "indexed": false,
          "internalType": "string",
          "name": "value",
          "type": "string"
        }
      ],
      "name": "TextChanged",
      "type": "event"
    },
    {
      "anonymous": false,
      "inputs": [
        {
          "indexed": true,
          "internalType": "address",
          "name": "implementation",
          "type": "address"
        }
      ],
      "name": "Upgraded",
      "type": "event"
    },
    {
      "inputs": [
        {
          "internalType": "bytes32",
          "name": "",
          "type": "bytes32"
        },
        {
          "internalType": "uint256",
          "name": "contentTypes",
          "type": "uint256"
        }
      ],
      "name": "ABI",
      "outputs": [
        {
          "internalType": "uint256",
          "name": "contentType",
          "type": "uint256"
        },
        {
          "internalType": "bytes",
          "name": "data",
          "type": "bytes"
        }
      ],
      "stateMutability": "view",
      "type": "function"
    },
    {
      "inputs": [],
      "name": "HCA_FACTORY",
      "outputs": [
        {
          "internalType": "contract IHCAFactoryBasic",
          "name": "",
          "type": "address"
        }
      ],
      "stateMutability": "view",
      "type": "function"
    },
    {
      "inputs": [],
      "name": "ROOT_RESOURCE",
      "outputs": [
        {
          "internalType": "uint256",
          "name": "",
          "type": "uint256"
        }
      ],
      "stateMutability": "view",
      "type": "function"
    },
    {
      "inputs": [],
      "name": "UPGRADE_INTERFACE_VERSION",
      "outputs": [
        {
          "internalType": "string",
          "name": "",
          "type": "string"
        }
      ],
      "stateMutability": "view",
      "type": "function"
    },
    {
      "inputs": [
        {
          "internalType": "bytes32",
          "name": "",
          "type": "bytes32"
        }
      ],
      "name": "addr",
      "outputs": [
        {
          "internalType": "address payable",
          "name": "",
          "type": "address"
        }
      ],
      "stateMutability": "view",
      "type": "function"
    },
    {
      "inputs": [
        {
          "internalType": "bytes32",
          "name": "",
          "type": "bytes32"
        },
        {
          "internalType": "uint256",
          "name": "coinType",
          "type": "uint256"
        }
      ],
      "name": "addr",
      "outputs": [
        {
          "internalType": "bytes",
          "name": "addressBytes",
          "type": "bytes"
        }
      ],
      "stateMutability": "view",
      "type": "function"
    },
    {
      "inputs": [
        {
          "internalType": "bytes32",
          "name": "",
          "type": "bytes32"
        }
      ],
      "name": "contenthash",
      "outputs": [
        {
          "internalType": "bytes",
          "name": "",
          "type": "bytes"
        }
      ],
      "stateMutability": "view",
      "type": "function"
    },
    {
      "inputs": [
        {
          "internalType": "uint256",
          "name": "resource",
          "type": "uint256"
        },
        {
          "internalType": "uint256",
          "name": "roleBitmap",
          "type": "uint256"
        }
      ],
      "name": "getAssigneeCount",
      "outputs": [
        {
          "internalType": "uint256",
          "name": "counts",
          "type": "uint256"
        },
        {
          "internalType": "uint256",
          "name": "mask",
          "type": "uint256"
        }
      ],
      "stateMutability": "view",
      "type": "function"
    },
    {
      "inputs": [
        {
          "internalType": "uint256",
          "name": "resource",
          "type": "uint256"
        },
        {
          "internalType": "uint256",
          "name": "roleBitmap",
          "type": "uint256"
        },
        {
          "internalType": "address",
          "name": "account",
          "type": "address"
        }
      ],
      "name": "grantRoles",
      "outputs": [
        {
          "internalType": "bool",
          "name": "",
          "type": "bool"
        }
      ],
      "stateMutability": "nonpayable",
      "type": "function"
    },
    {
      "inputs": [
        {
          "internalType": "uint256",
          "name": "roleBitmap",
          "type": "uint256"
        },
        {
          "internalType": "address",
          "name": "account",
          "type": "address"
        }
      ],
      "name": "grantRootRoles",
      "outputs": [
        {
          "internalType": "bool",
          "name": "",
          "type": "bool"
        }
      ],
      "stateMutability": "nonpayable",
      "type": "function"
    },
    {
      "inputs": [
        {
          "internalType": "bytes32",
          "name": "",
          "type": "bytes32"
        },
        {
          "internalType": "uint256",
          "name": "coinType",
          "type": "uint256"
        }
      ],
      "name": "hasAddr",
      "outputs": [
        {
          "internalType": "bool",
          "name": "",
          "type": "bool"
        }
      ],
      "stateMutability": "view",
      "type": "function"
    },
    {
      "inputs": [
        {
          "internalType": "uint256",
          "name": "resource",
          "type": "uint256"
        },
        {
          "internalType": "uint256",
          "name": "roleBitmap",
          "type": "uint256"
        }
      ],
      "name": "hasAssignees",
      "outputs": [
        {
          "internalType": "bool",
          "name": "",
          "type": "bool"
        }
      ],
      "stateMutability": "view",
      "type": "function"
    },
    {
      "inputs": [
        {
          "internalType": "uint256",
          "name": "resource",
          "type": "uint256"
        },
        {
          "internalType": "uint256",
          "name": "rolesBitmap",
          "type": "uint256"
        },
        {
          "internalType": "address",
          "name": "account",
          "type": "address"
        }
      ],
      "name": "hasRoles",
      "outputs": [
        {
          "internalType": "bool",
          "name": "",
          "type": "bool"
        }
      ],
      "stateMutability": "view",
      "type": "function"
    },
    {
      "inputs": [
        {
          "internalType": "uint256",
          "name": "rolesBitmap",
          "type": "uint256"
        },
        {
          "internalType": "address",
          "name": "account",
          "type": "address"
        }
      ],
      "name": "hasRootRoles",
      "outputs": [
        {
          "internalType": "bool",
          "name": "",
          "type": "bool"
        }
      ],
      "stateMutability": "view",
      "type": "function"
    },
    {
      "inputs": [
        {
          "internalType": "address",
          "name": "admin",
          "type": "address"
        },
        {
          "internalType": "uint256",
          "name": "roleBitmap",
          "type": "uint256"
        }
      ],
      "name": "initialize",
      "outputs": [],
      "stateMutability": "nonpayable",
      "type": "function"
    },
    {
      "inputs": [
        {
          "internalType": "bytes32",
          "name": "",
          "type": "bytes32"
        },
        {
          "internalType": "bytes4",
          "name": "interfaceId",
          "type": "bytes4"
        }
      ],
      "name": "interfaceImplementer",
      "outputs": [
        {
          "internalType": "address",
          "name": "implementer",
          "type": "address"
        }
      ],
      "stateMutability": "view",
      "type": "function"
    },
    {
      "inputs": [
        {
          "internalType": "bytes[]",
          "name": "calls",
          "type": "bytes[]"
        }
      ],
      "name": "multicall",
      "outputs": [
        {
          "internalType": "bytes[]",
          "name": "results",
          "type": "bytes[]"
        }
      ],
      "stateMutability": "nonpayable",
      "type": "function"
    },
    {
      "inputs": [
        {
          "internalType": "bytes32",
          "name": "",
          "type": "bytes32"
        },
        {
          "internalType": "bytes[]",
          "name": "calls",
          "type": "bytes[]"
        }
      ],
      "name": "multicallWithNodeCheck",
      "outputs": [
        {
          "internalType": "bytes[]",
          "name": "",
          "type": "bytes[]"
        }
      ],
      "stateMutability": "nonpayable",
      "type": "function"
    },
    {
      "inputs": [
        {
          "internalType": "bytes32",
          "name": "",
          "type": "bytes32"
        }
      ],
      "name": "name",
      "outputs": [
        {
          "internalType": "string",
          "name": "",
          "type": "string"
        }
      ],
      "stateMutability": "view",
      "type": "function"
    },
    {
      "inputs": [],
      "name": "proxiableUUID",
      "outputs": [
        {
          "internalType": "bytes32",
          "name": "",
          "type": "bytes32"
        }
      ],
      "stateMutability": "view",
      "type": "function"
    },
    {
      "inputs": [
        {
          "internalType": "bytes32",
          "name": "",
          "type": "bytes32"
        }
      ],
      "name": "pubkey",
      "outputs": [
        {
          "internalType": "bytes32",
          "name": "x",
          "type": "bytes32"
        },
        {
          "internalType": "bytes32",
          "name": "y",
          "type": "bytes32"
        }
      ],
      "stateMutability": "view",
      "type": "function"
    },
    {
      "inputs": [
        {
          "internalType": "bytes",
          "name": "",
          "type": "bytes"
        },
        {
          "internalType": "bytes",
          "name": "data",
          "type": "bytes"
        }
      ],
      "name": "resolve",
      "outputs": [
        {
          "internalType": "bytes",
          "name": "",
          "type": "bytes"
        }
      ],
      "stateMutability": "view",
      "type": "function"
    },
    {
      "inputs": [
        {
          "internalType": "uint256",
          "name": "resource",
          "type": "uint256"
        },
        {
          "internalType": "uint256",
          "name": "roleBitmap",
          "type": "uint256"
        },
        {
          "internalType": "address",
          "name": "account",
          "type": "address"
        }
      ],
      "name": "revokeRoles",
      "outputs": [
        {
          "internalType": "bool",
          "name": "",
          "type": "bool"
        }
      ],
      "stateMutability": "nonpayable",
      "type": "function"
    },
    {
      "inputs": [
        {
          "internalType": "uint256",
          "name": "roleBitmap",
          "type": "uint256"
        },
        {
          "internalType": "address",
          "name": "account",
          "type": "address"
        }
      ],
      "name": "revokeRootRoles",
      "outputs": [
        {
          "internalType": "bool",
          "name": "",
          "type": "bool"
        }
      ],
      "stateMutability": "nonpayable",
      "type": "function"
    },
    {
      "inputs": [
        {
          "internalType": "uint256",
          "name": "resource",
          "type": "uint256"
        }
      ],
      "name": "roleCount",
      "outputs": [
        {
          "internalType": "uint256",
          "name": "",
          "type": "uint256"
        }
      ],
      "stateMutability": "view",
      "type": "function"
    },
    {
      "inputs": [
        {
          "internalType": "uint256",
          "name": "resource",
          "type": "uint256"
        },
        {
          "internalType": "address",
          "name": "account",
          "type": "address"
        }
      ],
      "name": "roles",
      "outputs": [
        {
          "internalType": "uint256",
          "name": "",
          "type": "uint256"
        }
      ],
      "stateMutability": "view",
      "type": "function"
    },
    {
      "inputs": [
        {
          "internalType": "uint256",
          "name": "contentType",
          "type": "uint256"
        },
        {
          "internalType": "bytes",
          "name": "data",
          "type": "bytes"
        }
      ],
      "name": "setABI",
      "outputs": [],
      "stateMutability": "nonpayable",
      "type": "function"
    },
    {
      "inputs": [
        {
          "internalType": "uint256",
          "name": "coinType",
          "type": "uint256"
        },
        {
          "internalType": "bytes",
          "name": "addressBytes",
          "type": "bytes"
        }
      ],
      "name": "setAddr",
      "outputs": [],
      "stateMutability": "nonpayable",
      "type": "function"
    },
    {
      "inputs": [
        {
          "internalType": "bytes",
          "name": "hash",
          "type": "bytes"
        }
      ],
      "name": "setContenthash",
      "outputs": [],
      "stateMutability": "nonpayable",
      "type": "function"
    },
    {
      "inputs": [
        {
          "internalType": "bytes4",
          "name": "interfaceId",
          "type": "bytes4"
        },
        {
          "internalType": "address",
          "name": "implementer",
          "type": "address"
        }
      ],
      "name": "setInterface",
      "outputs": [],
      "stateMutability": "nonpayable",
      "type": "function"
    },
    {
      "inputs": [
        {
          "internalType": "string",
          "name": "name_",
          "type": "string"
        }
      ],
      "name": "setName",
      "outputs": [],
      "stateMutability": "nonpayable",
      "type": "function"
    },
    {
      "inputs": [
        {
          "internalType": "bytes32",
          "name": "x",
          "type": "bytes32"
        },
        {
          "internalType": "bytes32",
          "name": "y",
          "type": "bytes32"
        }
      ],
      "name": "setPubkey",
      "outputs": [],
      "stateMutability": "nonpayable",
      "type": "function"
    },
    {
      "inputs": [
        {
          "internalType": "string",
          "name": "key",
          "type": "string"
        },
        {
          "internalType": "string",
          "name": "value",
          "type": "string"
        }
      ],
      "name": "setText",
      "outputs": [],
      "stateMutability": "nonpayable",
      "type": "function"
    },
    {
      "inputs": [
        {
          "internalType": "bytes4",
          "name": "feature",
          "type": "bytes4"
        }
      ],
      "name": "supportsFeature",
      "outputs": [
        {
          "internalType": "bool",
          "name": "",
          "type": "bool"
        }
      ],
      "stateMutability": "pure",
      "type": "function"
    },
    {
      "inputs": [
        {
          "internalType": "bytes4",
          "name": "interfaceId",
          "type": "bytes4"
        }
      ],
      "name": "supportsInterface",
      "outputs": [
        {
          "internalType": "bool",
          "name": "",
          "type": "bool"
        }
      ],
      "stateMutability": "view",
      "type": "function"
    },
    {
      "inputs": [
        {
          "internalType": "bytes32",
          "name": "",
          "type": "bytes32"
        },
        {
          "internalType": "string",
          "name": "key",
          "type": "string"
        }
      ],
      "name": "text",
      "outputs": [
        {
          "internalType": "string",
          "name": "",
          "type": "string"
        }
      ],
      "stateMutability": "view",
      "type": "function"
    },
    {
      "inputs": [
        {
          "internalType": "address",
          "name": "newImplementation",
          "type": "address"
        },
        {
          "internalType": "bytes",
          "name": "data",
          "type": "bytes"
        }
      ],
      "name": "upgradeToAndCall",
      "outputs": [],
      "stateMutability": "payable",
      "type": "function"
    }
  ],
  "contractName": "DedicatedResolver",
  "sourceName": "src/resolver/DedicatedResolver.sol",
  "bytecode": "0x60c06040523060a052348015610013575f80fd5b5060405161317d38038061317d833981016040819052610032916100ff565b6001600160a01b03811660805261004761004d565b5061012c565b7ff0c57e16840df040f15088dc2f81fe391c3923bec73e23a9662efc9c229c6a00805468010000000000000000900460ff161561009d5760405163f92ee8a960e01b815260040160405180910390fd5b80546001600160401b03908116146100fc5780546001600160401b0319166001600160401b0390811782556040519081527fc7f505b2f371ae2175ee4913f4499e1f2633a7b5936321eed1cdaeb6115181d29060200160405180910390a15b50565b5f6020828403121561010f575f80fd5b81516001600160a01b0381168114610125575f80fd5b9392505050565b60805160a0516130146101695f395f8181611dc501528181611dee0152611f7801525f81816103f3015281816124ca015261252b01526130145ff3fe60806040526004361061025d575f3560e01c80635adf47241161014b578063ad3cb1cc116100c6578063ce156e821161007c578063dfa70d8b11610062578063dfa70d8b14610808578063e32954eb14610827578063f1cb7e0614610846575f80fd5b8063ce156e821461077c578063d3bf89b11461079b575f80fd5b8063c47f0027116100ac578063c47f0027146106db578063c8690233146106fa578063cd6dc6871461075d575f80fd5b8063ad3cb1cc14610674578063bc1c58d1146106bc575f80fd5b80637c3005861161011b5780639061b923116101015780639061b9231461060a578063a9c73e8014610629578063ac9650d814610648575f80fd5b80637c300586146105cc5780638dfcb5cf146105eb575f80fd5b80635adf4724146104f9578063691f343114610538578063781ef8db1461055757806378a68880146105ad575f80fd5b80632f27fa24116101db5780633b3b57de116101ab57806352d1902d1161019157806352d1902d1461049a578063582de3e7146104ae57806359d1d43c146104cd575f80fd5b80633b3b57de146104685780634f1ef28614610487575f80fd5b80632f27fa24146103b7578063319c22bb146103e257806332f111d7146104155780633634f91114610434575f80fd5b8063124a319c116102305780632203ab56116102165780632203ab561461034c578063281d07b0146103795780632c740f5014610398575f80fd5b8063124a319c146102f45780631c3fc3eb1461032b575f80fd5b806301ffc9a714610261578063072d5d77146102955780630ebf90a2146102b457806311b8e00a146102d5575b5f80fd5b34801561026c575f80fd5b5061028061027b3660046127f3565b610865565b60405190151581526020015b60405180910390f35b3480156102a0575f80fd5b506102806102af366004612820565b610b4c565b3480156102bf575f80fd5b506102d36102ce36600461284e565b610b79565b005b3480156102e0575f80fd5b506102806102ef36600461284e565b610c1d565b3480156102ff575f80fd5b5061031361030e36600461286e565b610c34565b6040516001600160a01b03909116815260200161028c565b348015610336575f80fd5b5061033e5f81565b60405190815260200161028c565b348015610357575f80fd5b5061036b61036636600461284e565b610c9d565b60405161028c9291906128c6565b348015610384575f80fd5b506102d361039336600461291c565b610dad565b3480156103a3575f80fd5b506102d36103b236600461295b565b610e1e565b3480156103c2575f80fd5b5061033e6103d1366004612985565b5f9081526001602052604090205490565b3480156103ed575f80fd5b506103137f000000000000000000000000000000000000000000000000000000000000000081565b348015610420575f80fd5b5061028061042f36600461284e565b610ec9565b34801561043f575f80fd5b5061045361044e36600461284e565b610f0e565b6040805192835260208301919091520161028c565b348015610473575f80fd5b50610313610482366004612985565b610f31565b6102d36104953660046129b0565b610f4f565b3480156104a5575f80fd5b5061033e610f6e565b3480156104b9575f80fd5b506102806104c83660046127f3565b610f9c565b3480156104d8575f80fd5b506104ec6104e7366004612a6e565b611000565b60405161028c9190612ab6565b348015610504575f80fd5b5061033e610513366004612820565b5f918252602082815260408084206001600160a01b0393909316845291905290205490565b348015610543575f80fd5b506104ec610552366004612985565b6110d5565b348015610562575f80fd5b50610280610571366004612820565b6001600160a01b03165f9081527fad3228b676f7d3cd4284a5443f17f1962b36e491b30a40b2405849e597ba5fb5602052604090205481161490565b3480156105b8575f80fd5b506102d36105c7366004612a6e565b611189565b3480156105d7575f80fd5b506102806105e6366004612ac8565b61124b565b3480156105f6575f80fd5b506102d3610605366004612a6e565b611290565b348015610615575f80fd5b506104ec610624366004612afe565b6113ca565b348015610634575f80fd5b506102d3610643366004612afe565b611494565b348015610653575f80fd5b50610667610662366004612ba6565b611593565b60405161028c9190612bd9565b34801561067f575f80fd5b506104ec6040518060400160405280600581526020017f352e302e3000000000000000000000000000000000000000000000000000000081525081565b3480156106c7575f80fd5b506104ec6106d6366004612985565b6116a0565b3480156106e6575f80fd5b506102d36106f536600461291c565b6116d1565b348015610705575f80fd5b50610453610714366004612985565b507fb7e59e34575e5b1e143ba80b809788592a3338482d8aa651d400127a42c9ff3e547fb7e59e34575e5b1e143ba80b809788592a3338482d8aa651d400127a42c9ff3f549091565b348015610768575f80fd5b506102d3610777366004612c3b565b611744565b348015610787575f80fd5b50610280610796366004612820565b6118af565b3480156107a6575f80fd5b506102806107b5366004612ac8565b5f928352602083815260408085206001600160a01b03939093168552918152818420547fad3228b676f7d3cd4284a5443f17f1962b36e491b30a40b2405849e597ba5fb590915292205490911781161490565b348015610813575f80fd5b50610280610822366004612ac8565b6118d1565b348015610832575f80fd5b50610667610841366004612c65565b61190c565b348015610851575f80fd5b506104ec61086036600461284e565b611918565b5f7f9061b923000000000000000000000000000000000000000000000000000000006001600160e01b0319831614806108c757507f92349baa000000000000000000000000000000000000000000000000000000006001600160e01b03198316145b806108fb57507f4fbf0433000000000000000000000000000000000000000000000000000000006001600160e01b03198316145b8061092f57507f3b3b57de000000000000000000000000000000000000000000000000000000006001600160e01b03198316145b8061096357507ff1cb7e06000000000000000000000000000000000000000000000000000000006001600160e01b03198316145b8061099757507f32f111d7000000000000000000000000000000000000000000000000000000006001600160e01b03198316145b806109cb57507f59d1d43c000000000000000000000000000000000000000000000000000000006001600160e01b03198316145b806109ff57507fbc1c58d1000000000000000000000000000000000000000000000000000000006001600160e01b03198316145b80610a3357507fc8690233000000000000000000000000000000000000000000000000000000006001600160e01b03198316145b80610a6757507f691f3431000000000000000000000000000000000000000000000000000000006001600160e01b03198316145b80610a9b57507f2203ab56000000000000000000000000000000000000000000000000000000006001600160e01b03198316145b80610acf57507f124a319c000000000000000000000000000000000000000000000000000000006001600160e01b03198316145b80610b0357507f582de3e7000000000000000000000000000000000000000000000000000000006001600160e01b03198316145b80610b3757507fb0f3d367000000000000000000000000000000000000000000000000000000006001600160e01b03198316145b80610b465750610b4682611a99565b92915050565b5f8083610b618282610b5c611ae6565b611af4565b610b6e5f86866001611be2565b92505b505092915050565b611000610b8e5f82610b89611ae6565b611ce4565b604051806040016040528084815260200183815250610bca7fb7e59e34575e5b1e143ba80b809788592a3338482d8aa651d400127a42c9ff3b90565b600301906002610bdb929190612793565b5060408051848152602081018490525f917f1d6f5e03d3f63eb58751986629a5439baee5079ff04f345becb66e23eb154e4691015b60405180910390a2505050565b5f80610c298484610f0e565b501515949350505050565b6001600160e01b031981165f9081527fb7e59e34575e5b1e143ba80b809788592a3338482d8aa651d400127a42c9ff4160205260409020546001600160a01b031680158015610c905750610c90610c8a5f610f31565b83611d85565b15610b4657503092915050565b600160607fb7e59e34575e5b1e143ba80b809788592a3338482d8aa651d400127a42c9ff3b5b5f83118015610cd25750838311155b15610d925782841615610d86575f83815260058201602052604090208054610cf990612ca0565b80601f0160208091040260200160405190810160405280929190818152602001828054610d2590612ca0565b8015610d705780601f10610d4757610100808354040283529160200191610d70565b820191905f5260205f20905b815481529060010190602001808311610d5357829003601f168201915b505050505091505f82511115610d865750610da6565b600183901b9250610cc3565b505060408051602081019091525f80825291505b9250929050565b610100610dbd5f82610b89611ae6565b7fb7e59e34575e5b1e143ba80b809788592a3338482d8aa651d400127a42c9ff3d610de9838583612d1c565b505f801b7fe379c1624ed7e714cc0937528a32359d69d5281337765313dba4e081b72d75788484604051610c10929190612dfe565b62100000610e2f5f82610b89611ae6565b6001600160e01b031983165f8181527fb7e59e34575e5b1e143ba80b809788592a3338482d8aa651d400127a42c9ff4160209081526040808320805473ffffffffffffffffffffffffffffffffffffffff19166001600160a01b038816908117909155815190815290517f7c69f06bea0bdef565b709e93a147836b0063ba2dd89f02d0b7e8d931e6a6daa929181900390910190a3505050565b5f8181527fb7e59e34575e5b1e143ba80b809788592a3338482d8aa651d400127a42c9ff3b602052604081208054829190610f0390612ca0565b905011905092915050565b5f80610f1983611da0565b5f948552600160205260409094205484169492505050565b5f610f3d81603c611918565b610f4690612e11565b60601c92915050565b610f57611dba565b610f6082611e73565b610f6a8282611e85565b5050565b5f610f77611f6d565b507f360894a13ba1a3210667c828492db98dca3e2076cc3735a920a3ca505d382bbc90565b5f7f96b62db8000000000000000000000000000000000000000000000000000000006001600160e01b031983161480610b465750506001600160e01b0319167f86fb8da8000000000000000000000000000000000000000000000000000000001490565b60607fb7e59e34575e5b1e143ba80b809788592a3338482d8aa651d400127a42c9ff3b6001018383604051611036929190612e4d565b9081526020016040518091039020805461104f90612ca0565b80601f016020809104026020016040519081016040528092919081815260200182805461107b90612ca0565b80156110c65780601f1061109d576101008083540402835291602001916110c6565b820191905f5260205f20905b8154815290600101906020018083116110a957829003601f168201915b505050505090505b9392505050565b60607fb7e59e34575e5b1e143ba80b809788592a3338482d8aa651d400127a42c9ff3b600701805461110690612ca0565b80601f016020809104026020016040519081016040528092919081815260200182805461113290612ca0565b801561117d5780601f106111545761010080835404028352916020019161117d565b820191905f5260205f20905b81548152906001019060200180831161116057829003601f168201915b50505050509050919050565b6201000061119a5f82610b89611ae6565b6111a384611fb6565b6111e1576040517f5742bb26000000000000000000000000000000000000000000000000000000008152600481018590526024015b60405180910390fd5b5f8481527fb7e59e34575e5b1e143ba80b809788592a3338482d8aa651d400127a42c9ff4060205260409020611218838583612d1c565b5060405184905f907faa121bbeef5f32f5961a2a28966e769023910fc9479059ee3495d4c1a696efe3908290a350505050565b5f838361125b8282610b5c611ae6565b8561127957604051631850848b60e31b815260040160405180910390fd5b6112868686866001611be2565b9695505050505050565b5f8381526020902060016112a78282610b89611ae6565b82158015906112b7575060148314155b80156112c757506112c785611fd5565b156113025783836040517f8d666f600000000000000000000000000000000000000000000000000000000081526004016111d8929190612dfe565b5f8581527fb7e59e34575e5b1e143ba80b809788592a3338482d8aa651d400127a42c9ff3b60205260409020611339848683612d1c565b505f801b7f65412581168e88a1e60c6459d7f44ae83ad0832e670826c05a4e2476b57af75286868660405161137093929190612e5c565b60405180910390a2603c85036113c3575f7f52d7d861f09ab3d26239d492e8968629f95e9e318cf0b73bfddc441522a15fd26113ac8587612e7e565b60405160609190911c815260200160405180910390a25b5050505050565b60605f80306001600160a01b031685856040516113e8929190612e4d565b5f60405180830381855afa9150503d805f8114611420576040519150601f19603f3d011682016040523d82523d5f602084013e611425565b606091505b50915091508161143757805160208201fd5b80515f03611488576114498486612eb1565b6040517f7b1c461b0000000000000000000000000000000000000000000000000000000081526001600160e01b031990911660048201526024016111d8565b9150505b949350505050565b6114d284848080601f0160208091040260200160405190810160405280939291908181526020018383808284375f92019190915250611ffa92505050565b60106114e18282610b89611ae6565b83837fb7e59e34575e5b1e143ba80b809788592a3338482d8aa651d400127a42c9ff3b6001018888604051611517929190612e4d565b90815260200160405180910390209182611532929190612d1c565b508585604051611543929190612e4d565b60405180910390205f801b7f448bc014f1536726cf8d54ff3d6481ed3cbc683c2591ca204274009afa09b1a1888888886040516115839493929190612edf565b60405180910390a3505050505050565b60608167ffffffffffffffff8111156115ae576115ae61299c565b6040519080825280602002602001820160405280156115e157816020015b60608152602001906001900390816115cc5790505b5090505f5b82811015611699575f803086868581811061160357611603612f05565b90506020028101906116159190612f19565b604051611623929190612e4d565b5f60405180830381855af49150503d805f811461165b576040519150601f19603f3d011682016040523d82523d5f602084013e611660565b606091505b509150915081611671578060208201fd5b8084848151811061168457611684612f05565b602090810291909101015250506001016115e6565b5092915050565b60607fb7e59e34575e5b1e143ba80b809788592a3338482d8aa651d400127a42c9ff3b600201805461110690612ca0565b63010000006116e35f82610b89611ae6565b7fb7e59e34575e5b1e143ba80b809788592a3338482d8aa651d400127a42c9ff4261170f838583612d1c565b505f801b7fb7d29e911041e8d9b843369e890bcb72c9388692ba48b65ac54e7214c4c348f78484604051610c10929190612dfe565b5f61174d612005565b805490915060ff68010000000000000000820416159067ffffffffffffffff165f811580156117795750825b90505f8267ffffffffffffffff1660011480156117955750303b155b9050811580156117a3575080155b156117da576040517ff92ee8a900000000000000000000000000000000000000000000000000000000815260040160405180910390fd5b845467ffffffffffffffff19166001178555831561180e57845468ff00000000000000001916680100000000000000001785555b6001600160a01b03871661184e576040517f49e27cff00000000000000000000000000000000000000000000000000000000815260040160405180910390fd5b61185a5f87895f611be2565b5083156118a657845468ff000000000000000019168555604051600181527fc7f505b2f371ae2175ee4913f4499e1f2633a7b5936321eed1cdaeb6115181d29060200160405180910390a15b50505050505050565b5f80836118c482826118bf611ae6565b61202d565b610b6e5f86866001612115565b5f83836118e182826118bf611ae6565b856118ff57604051631850848b60e31b815260040160405180910390fd5b6112868686866001612115565b606061148c8383611593565b5f8181527fb7e59e34575e5b1e143ba80b809788592a3338482d8aa651d400127a42c9ff3b602081905260409091208054606092919061195790612ca0565b80601f016020809104026020016040519081016040528092919081815260200182805461198390612ca0565b80156119ce5780601f106119a5576101008083540402835291602001916119ce565b820191905f5260205f20905b8154815290600101906020018083116119b157829003601f168201915b5050505050915081515f1480156119f257505f6119ea8461217d565b63ffffffff16115b156116995763800000005f9081526020829052604090208054611a1490612ca0565b80601f0160208091040260200160405190810160405280929190818152602001828054611a4090612ca0565b8015611a8b5780601f10611a6257610100808354040283529160200191611a8b565b820191905f5260205f20905b815481529060010190602001808311611a6e57829003601f168201915b505050505091505092915050565b5f6001600160e01b031982167f8f452d62000000000000000000000000000000000000000000000000000000001480610b4657506301ffc9a760e01b6001600160e01b0319831614610b46565b5f611aef6121a7565b905090565b5f611b8684836001600160a01b03165f8181527fad3228b676f7d3cd4284a5443f17f1962b36e491b30a40b2405849e597ba5fb5602090815260408083205494835282825280832093835292905220547f1111111111111111111111111111111100000000000000000000000000000000911790811660809190911c6f11111111111111111111111111111111161790565b90508019831615611bdc576040517fd1a3b35500000000000000000000000000000000000000000000000000000000815260048101859052602481018490526001600160a01b03831660448201526064016111d8565b50505050565b5f611bec846121b0565b6001600160a01b038316611c2c576040517fec3fc59200000000000000000000000000000000000000000000000000000000815260040160405180910390fd5b5f858152602081815260408083206001600160a01b0387168452909152902054848117808214611cda575f878152602081815260408083206001600160a01b0389168452909152902081905581198616611c8888826001612210565b60408051848152602081018490526001600160a01b038816918a917f0d35bf721a39b614de00ca5038e1deb0cb0c69a278645e83405a7226cf80ba3c910160405180910390a36001935050505061148c565b5f9250505061148c565b5f838152602081815260408083206001600160a01b03851684528252808320547fad3228b676f7d3cd4284a5443f17f1962b36e491b30a40b2405849e597ba5fb5909252909120541782168214611d80576040517f4b27a13300000000000000000000000000000000000000000000000000000000815260048101849052602481018390526001600160a01b03821660448201526064016111d8565b505050565b5f611d8f836123a5565b80156110ce57506110ce83836123d7565b5f611daa826121b0565b50600181901b17600281901b1790565b306001600160a01b037f0000000000000000000000000000000000000000000000000000000000000000161480611e5357507f00000000000000000000000000000000000000000000000000000000000000006001600160a01b0316611e477f360894a13ba1a3210667c828492db98dca3e2076cc3735a920a3ca505d382bbc546001600160a01b031690565b6001600160a01b031614155b15611e715760405163703e46dd60e11b815260040160405180910390fd5b565b6310000000610f6a5f82610b89611ae6565b816001600160a01b03166352d1902d6040518163ffffffff1660e01b8152600401602060405180830381865afa925050508015611edf575060408051601f3d908101601f19168201909252611edc91810190612f5c565b60015b611f0757604051634c9c8ce360e01b81526001600160a01b03831660048201526024016111d8565b7f360894a13ba1a3210667c828492db98dca3e2076cc3735a920a3ca505d382bbc8114611f63576040517faa1d49a4000000000000000000000000000000000000000000000000000000008152600481018290526024016111d8565b611d808383612472565b306001600160a01b037f00000000000000000000000000000000000000000000000000000000000000001614611e715760405163703e46dd60e11b815260040160405180910390fd5b5f8082118015610b46575081611fcd600182612f87565b161592915050565b5f6380000000821480610b4657505f611fed8361217d565b63ffffffff161192915050565b805160209091012090565b5f807ff0c57e16840df040f15088dc2f81fe391c3923bec73e23a9662efc9c229c6a00610b46565b5f6120bf84836001600160a01b03165f8181527fad3228b676f7d3cd4284a5443f17f1962b36e491b30a40b2405849e597ba5fb5602090815260408083205494835282825280832093835292905220547f1111111111111111111111111111111100000000000000000000000000000000911790811660809190911c6f11111111111111111111111111111111161790565b90508019831615611bdc576040517fa604e31800000000000000000000000000000000000000000000000000000000815260048101859052602481018490526001600160a01b03831660448201526064016111d8565b5f61211f846121b0565b5f858152602081815260408083206001600160a01b038716845290915290205484198116808214611cda575f878152602081815260408083206001600160a01b0389168452909152812082905586831690611c889089908390612210565b5f603c820361218e57506001919050565b63800000009182189182106121a3575f610b46565b5090565b5f611aef6124c7565b7feeeeeeeeeeeeeeeeeeeeeeeeeeeeeeeeeeeeeeeeeeeeeeeeeeeeeeeeeeeeeeee81161561220d576040517f2a7b2d20000000000000000000000000000000000000000000000000000000008152600481018290526024016111d8565b50565b5f61221a83611da0565b905081156122e3575f848152600160205260409020547f888888888888888888888888888888888888888888888888888888888888888890821680197feeeeeeeeeeeeeeeeeeeeeeeeeeeeeeeeeeeeeeeeeeeeeeeeeeeeeeeeeeeeeeef011616156122bb576040517ff916534800000000000000000000000000000000000000000000000000000000815260048101859052602481018490526044016111d8565b5f84815260016020526040812080548592906122d8908490612f9a565b90915550611bdc9050565b5f848152600160205260409020547f88888888888888888888888888888888888888888888888888888888888888889019821680197feeeeeeeeeeeeeeeeeeeeeeeeeeeeeeeeeeeeeeeeeeeeeeeeeeeeeeeeeeeeeeef0116161561237d576040517f1f80c19b00000000000000000000000000000000000000000000000000000000815260048101859052602481018490526044016111d8565b5f848152600160205260408120805485929061239a908490612f87565b909155505050505050565b5f6123b7826301ffc9a760e01b6123d7565b8015610b4657506123d0826001600160e01b03196123d7565b1592915050565b6040516001600160e01b0319821660248201525f90819060440160408051601f19818403018152919052602080820180517bffffffffffffffffffffffffffffffffffffffffffffffffffffffff166301ffc9a760e01b17815282519293505f9283928392909183918a617530fa92503d91505f51905082801561245c575060208210155b801561246757505f81115b979650505050505050565b61247b826125b8565b6040516001600160a01b038316907fbc7cd75a20ee27fd9adebab32041f755214dbc6bffa90cc0225b39da2e5c2d3b905f90a28051156124bf57611d80828261263b565b610f6a6126a4565b5f7f00000000000000000000000000000000000000000000000000000000000000006001600160a01b03166124fb57503390565b6040517f442b172c0000000000000000000000000000000000000000000000000000000081523360048201525f907f00000000000000000000000000000000000000000000000000000000000000006001600160a01b03169063442b172c90602401602060405180830381865afa158015612578573d5f803e3d5ffd5b505050506040513d601f19601f8201168201806040525081019061259c9190612fad565b90506001600160a01b0381166125b3573391505090565b919050565b806001600160a01b03163b5f036125ed57604051634c9c8ce360e01b81526001600160a01b03821660048201526024016111d8565b7f360894a13ba1a3210667c828492db98dca3e2076cc3735a920a3ca505d382bbc805473ffffffffffffffffffffffffffffffffffffffff19166001600160a01b0392909216919091179055565b60605f80846001600160a01b0316846040516126579190612fc8565b5f60405180830381855af49150503d805f811461268f576040519150601f19603f3d011682016040523d82523d5f602084013e612694565b606091505b5091509150610b6e8583836126dc565b3415611e71576040517fb398979f00000000000000000000000000000000000000000000000000000000815260040160405180910390fd5b6060826126f1576126ec82612751565b6110ce565b815115801561270857506001600160a01b0384163b155b1561274a576040517f9996b3150000000000000000000000000000000000000000000000000000000081526001600160a01b03851660048201526024016111d8565b50806110ce565b8051156127615780518082602001fd5b6040517fd6bda27500000000000000000000000000000000000000000000000000000000815260040160405180910390fd5b82600281019282156127c1579160200282015b828111156127c15782518255916020019190600101906127a6565b506121a39291505b808211156121a3575f81556001016127c9565b80356001600160e01b0319811681146125b3575f80fd5b5f60208284031215612803575f80fd5b6110ce826127dc565b6001600160a01b038116811461220d575f80fd5b5f8060408385031215612831575f80fd5b8235915060208301356128438161280c565b809150509250929050565b5f806040838503121561285f575f80fd5b50508035926020909101359150565b5f806040838503121561287f575f80fd5b8235915061288f602084016127dc565b90509250929050565b5f81518084528060208401602086015e5f602082860101526020601f19601f83011685010191505092915050565b828152604060208201525f61148c6040830184612898565b5f8083601f8401126128ee575f80fd5b50813567ffffffffffffffff811115612905575f80fd5b602083019150836020828501011115610da6575f80fd5b5f806020838503121561292d575f80fd5b823567ffffffffffffffff811115612943575f80fd5b61294f858286016128de565b90969095509350505050565b5f806040838503121561296c575f80fd5b612975836127dc565b915060208301356128438161280c565b5f60208284031215612995575f80fd5b5035919050565b634e487b7160e01b5f52604160045260245ffd5b5f80604083850312156129c1575f80fd5b82356129cc8161280c565b9150602083013567ffffffffffffffff808211156129e8575f80fd5b818501915085601f8301126129fb575f80fd5b813581811115612a0d57612a0d61299c565b604051601f8201601f19908116603f01168101908382118183101715612a3557612a3561299c565b81604052828152886020848701011115612a4d575f80fd5b826020860160208301375f6020848301015280955050505050509250929050565b5f805f60408486031215612a80575f80fd5b83359250602084013567ffffffffffffffff811115612a9d575f80fd5b612aa9868287016128de565b9497909650939450505050565b602081525f6110ce6020830184612898565b5f805f60608486031215612ada575f80fd5b83359250602084013591506040840135612af38161280c565b809150509250925092565b5f805f8060408587031215612b11575f80fd5b843567ffffffffffffffff80821115612b28575f80fd5b612b34888389016128de565b90965094506020870135915080821115612b4c575f80fd5b50612b59878288016128de565b95989497509550505050565b5f8083601f840112612b75575f80fd5b50813567ffffffffffffffff811115612b8c575f80fd5b6020830191508360208260051b8501011115610da6575f80fd5b5f8060208385031215612bb7575f80fd5b823567ffffffffffffffff811115612bcd575f80fd5b61294f85828601612b65565b5f60208083016020845280855180835260408601915060408160051b8701019250602087015f5b82811015612c2e57603f19888603018452612c1c858351612898565b94509285019290850190600101612c00565b5092979650505050505050565b5f8060408385031215612c4c575f80fd5b8235612c578161280c565b946020939093013593505050565b5f805f60408486031215612c77575f80fd5b83359250602084013567ffffffffffffffff811115612c94575f80fd5b612aa986828701612b65565b600181811c90821680612cb457607f821691505b602082108103612cd257634e487b7160e01b5f52602260045260245ffd5b50919050565b601f821115611d8057805f5260205f20601f840160051c81016020851015612cfd5750805b601f840160051c820191505b818110156113c3575f8155600101612d09565b67ffffffffffffffff831115612d3457612d3461299c565b612d4883612d428354612ca0565b83612cd8565b5f601f841160018114612d79575f8515612d625750838201355b5f19600387901b1c1916600186901b1783556113c3565b5f83815260208120601f198716915b82811015612da85786850135825560209485019460019092019101612d88565b5086821015612dc4575f1960f88860031b161c19848701351681555b505060018560011b0183555050505050565b81835281816020850137505f828201602090810191909152601f909101601f19169091010190565b602081525f61148c602083018486612dd6565b805160208201516bffffffffffffffffffffffff198082169291906014831015612e455780818460140360031b1b83161693505b505050919050565b818382375f9101908152919050565b838152604060208201525f612e75604083018486612dd6565b95945050505050565b6bffffffffffffffffffffffff198135818116916014851015610b715760149490940360031b84901b1690921692915050565b6001600160e01b03198135818116916004851015610b715760049490940360031b84901b1690921692915050565b604081525f612ef2604083018688612dd6565b8281036020840152612467818587612dd6565b634e487b7160e01b5f52603260045260245ffd5b5f808335601e19843603018112612f2e575f80fd5b83018035915067ffffffffffffffff821115612f48575f80fd5b602001915036819003821315610da6575f80fd5b5f60208284031215612f6c575f80fd5b5051919050565b634e487b7160e01b5f52601160045260245ffd5b81810381811115610b4657610b46612f73565b80820180821115610b4657610b46612f73565b5f60208284031215612fbd575f80fd5b81516110ce8161280c565b5f82518060208501845e5f92019182525091905056fea2646970667358221220ec75860e8d7d00cd0af3e0a3d132f38ffd5ccfd50c4f4f079777b76d8fc19a5164736f6c63430008190033",
  "linkReferences": {},
  "deployedLinkReferences": {},
  "immutableReferences": {
    "15994": [
      {
        "length": 32,
        "start": 7621
      },
      {
        "length": 32,
        "start": 7662
      },
      {
        "length": 32,
        "start": 8056
      }
    ],
    "33443": [
      {
        "length": 32,
        "start": 1011
      },
      {
        "length": 32,
        "start": 9418
      },
      {
        "length": 32,
        "start": 9515
      }
    ]
  },
  "inputSourceName": "project/src/resolver/DedicatedResolver.sol",
  "devdoc": {
    "errors": {
      "AddressEmptyCode(address)": [
        {
          "details": "There's no code at `target` (it is not a contract)."
        }
      ],
      "ERC1967InvalidImplementation(address)": [
        {
          "details": "The `implementation` of the proxy is invalid."
        }
      ],
      "ERC1967NonPayable()": [
        {
          "details": "An upgrade function sees `msg.value > 0` that may be lost."
        }
      ],
      "FailedCall()": [
        {
          "details": "A call to an address target failed. The target may have reverted."
        }
      ],
      "InvalidContentType(uint256)": [
        {
          "details": "Error selector: `0xe7cf0ac4`"
        }
      ],
      "InvalidEVMAddress(bytes)": [
        {
          "details": "Error selector: `0x8d666f60`"
        }
      ],
      "InvalidInitialization()": [
        {
          "details": "The contract is already initialized."
        }
      ],
      "InvalidOwner()": [
        {
          "details": "Thrown when an operation requires a valid owner but receives the zero address"
        }
      ],
      "NotInitializing()": [
        {
          "details": "The contract is not initializing."
        }
      ],
      "UUPSUnauthorizedCallContext()": [
        {
          "details": "The call is from an unauthorized context."
        }
      ],
      "UUPSUnsupportedProxiableUUID(bytes32)": [
        {
          "details": "The storage `slot` is unsupported as a UUID."
        }
      ],
      "UnsupportedResolverProfile(bytes4)": [
        {
          "details": "Error selector: `0x7b1c461b`"
        }
      ]
    },
    "events": {
      "Initialized(uint64)": {
        "details": "Triggered when the contract has been initialized or reinitialized."
      },
      "Upgraded(address)": {
        "details": "Emitted when the implementation is upgraded."
      }
    },
    "kind": "dev",
    "methods": {
      "ABI(bytes32,uint256)": {
        "details": "Get the first ABI for the specified content types.",
        "params": {
          "contentTypes": "Union of desired contents types."
        },
        "returns": {
          "contentType": "The first matching content type (or 0 if no match).",
          "data": "The ABI data."
        }
      },
      "addr(bytes32)": {
        "returns": {
          "_0": "The address for coin type 60."
        }
      },
      "addr(bytes32,uint256)": {
        "params": {
          "coinType": "The coin type."
        },
        "returns": {
          "addressBytes": "The address for the coin type."
        }
      },
      "contenthash(bytes32)": {
        "returns": {
          "_0": "The contenthash."
        }
      },
      "getAssigneeCount(uint256,uint256)": {
        "details": "Get the no. of assignees for the roles in the given role bitmap.",
        "params": {
          "resource": "The resource to check.",
          "roleBitmap": "The roles bitmap to check."
        },
        "returns": {
          "counts": "The no. of assignees for each of the roles in the given role bitmap, expressed as a packed array of 4-bit ints.",
          "mask": "The mask for the given role bitmap."
        }
      },
      "grantRoles(uint256,uint256,address)": {
        "details": "Grants all roles in the given role bitmap to `account`. The caller must have all the necessary admin roles for the roles being granted. Cannot be used with ROOT_RESOURCE directly, use grantRootRoles instead.",
        "params": {
          "account": "The account to grant roles to.",
          "resource": "The resource to grant roles within.",
          "roleBitmap": "The roles bitmap to grant."
        },
        "returns": {
          "_0": "`true` if the roles were granted, `false` otherwise."
        }
      },
      "grantRootRoles(uint256,address)": {
        "details": "Grants all roles in the given role bitmap to `account` in the ROOT_RESOURCE. The caller must have all the necessary admin roles for the roles being granted.",
        "params": {
          "account": "The account to grant roles to.",
          "roleBitmap": "The roles bitmap to grant."
        },
        "returns": {
          "_0": "`true` if the roles were granted, `false` otherwise."
        }
      },
      "hasAddr(bytes32,uint256)": {
        "params": {
          "coinType": "The coin type.",
          "node": "The node to query."
        },
        "returns": {
          "_0": "True if the associated address is not empty."
        }
      },
      "hasAssignees(uint256,uint256)": {
        "details": "Get if any of the roles in the given role bitmap has assignees.",
        "params": {
          "resource": "The resource to check.",
          "roleBitmap": "The roles bitmap to check."
        },
        "returns": {
          "_0": "`true` if any of the roles in the given role bitmap has assignees, `false` otherwise."
        }
      },
      "hasRoles(uint256,uint256,address)": {
        "details": "Returns `true` if `account` has been granted all the given roles in `resource`.",
        "params": {
          "account": "The account to check.",
          "resource": "The resource to check.",
          "rolesBitmap": "The roles bitmap to check."
        },
        "returns": {
          "_0": "`true` if `account` has been granted all the given roles in either `resource` or the `ROOT_RESOURCE`, `false` otherwise."
        }
      },
      "hasRootRoles(uint256,address)": {
        "details": "Returns `true` if `account` has been granted all the given roles in the `ROOT_RESOURCE`.",
        "params": {
          "account": "The account to check.",
          "rolesBitmap": "The roles bitmap to check."
        },
        "returns": {
          "_0": "`true` if `account` has been granted all the given roles in the `ROOT_RESOURCE`, `false` otherwise."
        }
      },
      "initialize(address,uint256)": {
        "params": {
          "admin": "The resolver owner.",
          "roleBitmap": "The roles granted to `admin`."
        }
      },
      "interfaceImplementer(bytes32,bytes4)": {
        "details": "Gets the implementer for an interface.",
        "params": {
          "interfaceId": "The interface ID."
        },
        "returns": {
          "implementer": "The implementer address."
        }
      },
      "multicall(bytes[])": {
        "details": "Reverts if any call fails."
      },
      "multicallWithNodeCheck(bytes32,bytes[])": {
        "details": "The purpose of node check is to prevent a trusted operator from modifying      multiple names.  Since the sole operator of this resolver is the owner and      it only stores records for a single name, the node check logic can be elided.      Additionally, the setters of this resolver do not have `node` as an argument."
      },
      "name(bytes32)": {
        "details": "Get the primary name.",
        "returns": {
          "_0": "The primary name."
        }
      },
      "proxiableUUID()": {
        "details": "Implementation of the ERC-1822 {proxiableUUID} function. This returns the storage slot used by the implementation. It is used to validate the implementation's compatibility when performing an upgrade. IMPORTANT: A proxy pointing at a proxiable contract should not be considered proxiable itself, because this risks bricking a proxy that upgrades to it, by delegating to itself until out of gas. Thus it is critical that this function revert if invoked through a proxy. This is guaranteed by the `notDelegated` modifier."
      },
      "pubkey(bytes32)": {
        "details": "Get the public key.",
        "returns": {
          "x": "The x coordinate of the public key.",
          "y": "The y coordinate of the public key."
        }
      },
      "resolve(bytes,bytes)": {
        "details": "Reverts `UnsupportedResolverProfile` if the record is not supported.",
        "params": {
          "data": "The resolution data, as specified in ENSIP-10.."
        },
        "returns": {
          "_0": "The result of the resolution."
        }
      },
      "revokeRoles(uint256,uint256,address)": {
        "details": "Revokes all roles in the given role bitmap from `account`. The caller must have all the necessary admin roles for the roles being revoked. Cannot be used with ROOT_RESOURCE directly, use revokeRootRoles instead.",
        "params": {
          "account": "The account to revoke roles from.",
          "resource": "The resource to revoke roles within.",
          "roleBitmap": "The roles bitmap to revoke."
        },
        "returns": {
          "_0": "`true` if the roles were revoked, `false` otherwise."
        }
      },
      "revokeRootRoles(uint256,address)": {
        "details": "Revokes all roles in the given role bitmap from `account` in the ROOT_RESOURCE. The caller must have all the necessary admin roles for the roles being revoked.",
        "params": {
          "account": "The account to revoke roles from.",
          "roleBitmap": "The roles bitmap to revoke."
        },
        "returns": {
          "_0": "`true` if the roles were revoked, `false` otherwise."
        }
      },
      "setABI(uint256,bytes)": {
        "details": "Set the ABI for the content type.",
        "params": {
          "contentType": "The content type.",
          "data": "The ABI data."
        }
      },
      "setAddr(uint256,bytes)": {
        "params": {
          "addressBytes": "The address to set.",
          "coinType": "The coin type."
        }
      },
      "setContenthash(bytes)": {
        "params": {
          "hash": "The content hash."
        }
      },
      "setInterface(bytes4,address)": {
        "details": "Sets the implementer for an interface.",
        "params": {
          "implementer": "The implementer address.",
          "interfaceId": "The interface ID."
        }
      },
      "setName(string)": {
        "details": "Set the primary name.",
        "params": {
          "name": "The primary name."
        }
      },
      "setPubkey(bytes32,bytes32)": {
        "details": "Sets the public key.",
        "params": {
          "x": "The x coordinate of the pubkey.",
          "y": "The y coordinate of the pubkey."
        }
      },
      "setText(string,string)": {
        "params": {
          "key": "The key to set.",
          "value": "The value to set."
        }
      },
      "supportsFeature(bytes4)": {
        "params": {
          "featureId": "The feature identifier."
        },
        "returns": {
          "_0": "`true` if the feature is supported by the contract."
        }
      },
      "supportsInterface(bytes4)": {
        "details": "Returns true if this contract implements the interface defined by `interfaceId`. See the corresponding https://eips.ethereum.org/EIPS/eip-165#how-interfaces-are-identified[ERC section] to learn more about how these ids are created. This function call must use less than 30 000 gas."
      },
      "text(bytes32,string)": {
        "params": {
          "key": "The key."
        },
        "returns": {
          "_0": "The text value."
        }
      },
      "upgradeToAndCall(address,bytes)": {
        "custom:oz-upgrades-unsafe-allow-reachable": "delegatecall",
        "details": "Upgrade the implementation of the proxy to `newImplementation`, and subsequently execute the function call encoded in `data`. Calls {_authorizeUpgrade}. Emits an {Upgraded} event."
      }
    },
    "version": 1
  },
  "evm": {
    "gasEstimates": {
      "creation": {
        "codeDepositCost": "2461600",
        "executionCost": "infinite",
        "totalCost": "infinite"
      },
      "external": {
        "ABI(bytes32,uint256)": "infinite",
        "HCA_FACTORY()": "infinite",
        "ROOT_RESOURCE()": "284",
        "UPGRADE_INTERFACE_VERSION()": "infinite",
        "addr(bytes32)": "infinite",
        "addr(bytes32,uint256)": "infinite",
        "contenthash(bytes32)": "infinite",
        "getAssigneeCount(uint256,uint256)": "2748",
        "grantRoles(uint256,uint256,address)": "infinite",
        "grantRootRoles(uint256,address)": "infinite",
        "hasAddr(bytes32,uint256)": "2705",
        "hasAssignees(uint256,uint256)": "2777",
        "hasRoles(uint256,uint256,address)": "4915",
        "hasRootRoles(uint256,address)": "2653",
        "initialize(address,uint256)": "infinite",
        "interfaceImplementer(bytes32,bytes4)": "infinite",
        "multicall(bytes[])": "infinite",
        "multicallWithNodeCheck(bytes32,bytes[])": "infinite",
        "name(bytes32)": "infinite",
        "proxiableUUID()": "infinite",
        "pubkey(bytes32)": "4591",
        "resolve(bytes,bytes)": "infinite",
        "revokeRoles(uint256,uint256,address)": "infinite",
        "revokeRootRoles(uint256,address)": "infinite",
        "roleCount(uint256)": "2481",
        "roles(uint256,address)": "2680",
        "setABI(uint256,bytes)": "infinite",
        "setAddr(uint256,bytes)": "infinite",
        "setContenthash(bytes)": "infinite",
        "setInterface(bytes4,address)": "infinite",
        "setName(string)": "infinite",
        "setPubkey(bytes32,bytes32)": "infinite",
        "setText(string,string)": "infinite",
        "supportsFeature(bytes4)": "526",
        "supportsInterface(bytes4)": "infinite",
        "text(bytes32,string)": "infinite",
        "upgradeToAndCall(address,bytes)": "infinite"
      },
      "internal": {
        "_authorizeUpgrade(address)": "infinite",
        "_contextSuffixLength()": "infinite",
        "_isPowerOf2(uint256)": "140",
        "_msgData()": "infinite",
        "_msgSender()": "infinite",
        "_storage()": "infinite"
      }
    }
  },
  "storageLayout": {
    "storage": [
      {
        "astId": 29122,
        "contract": "project/src/resolver/DedicatedResolver.sol:DedicatedResolver",
        "label": "_roles",
        "offset": 0,
        "slot": "0",
        "type": "t_mapping(t_uint256,t_mapping(t_address,t_uint256))"
      },
      {
        "astId": 29127,
        "contract": "project/src/resolver/DedicatedResolver.sol:DedicatedResolver",
        "label": "_roleCount",
        "offset": 0,
        "slot": "1",
        "type": "t_mapping(t_uint256,t_uint256)"
      }
    ],
    "types": {
      "t_address": {
        "encoding": "inplace",
        "label": "address",
        "numberOfBytes": "20"
      },
      "t_mapping(t_address,t_uint256)": {
        "encoding": "mapping",
        "key": "t_address",
        "label": "mapping(address => uint256)",
        "numberOfBytes": "32",
        "value": "t_uint256"
      },
      "t_mapping(t_uint256,t_mapping(t_address,t_uint256))": {
        "encoding": "mapping",
        "key": "t_uint256",
        "label": "mapping(uint256 => mapping(address => uint256))",
        "numberOfBytes": "32",
        "value": "t_mapping(t_address,t_uint256)"
      },
      "t_mapping(t_uint256,t_uint256)": {
        "encoding": "mapping",
        "key": "t_uint256",
        "label": "mapping(uint256 => uint256)",
        "numberOfBytes": "32",
        "value": "t_uint256"
      },
      "t_uint256": {
        "encoding": "inplace",
        "label": "uint256",
        "numberOfBytes": "32"
      }
    }
  },
  "userdoc": {
    "errors": {
      "InvalidContentType(uint256)": [
        {
          "notice": "The coin type is not a power of 2."
        }
      ],
      "InvalidEVMAddress(bytes)": [
        {
          "notice": "The address could not be converted to `address`."
        }
      ],
      "UnsupportedResolverProfile(bytes4)": [
        {
          "notice": "The resolver profile cannot be answered."
        }
      ]
    },
    "kind": "user",
    "methods": {
      "HCA_FACTORY()": {
        "notice": "The HCA factory contract"
      },
      "ROOT_RESOURCE()": {
        "notice": "The `ROOT_RESOURCE`."
      },
      "addr(bytes32)": {
        "notice": "Get `addr(60)` as `address`."
      },
      "addr(bytes32,uint256)": {
        "notice": "Get the address for coin type.         If coin type is EVM and empty, defaults to `addr(COIN_TYPE_DEFAULT)`."
      },
      "contenthash(bytes32)": {
        "notice": "Get the content hash."
      },
      "hasAddr(bytes32,uint256)": {
        "notice": "Determine if an addresss is stored for the coin type of the associated ENS node."
      },
      "initialize(address,uint256)": {
        "notice": "Initialize the contract."
      },
      "multicall(bytes[])": {
        "notice": "Perform multiple read or write operations."
      },
      "multicallWithNodeCheck(bytes32,bytes[])": {
        "notice": "Same as `multicall()`."
      },
      "resolve(bytes,bytes)": {
        "notice": "Resolve records independent of name."
      },
      "roleCount(uint256)": {
        "notice": "Returns the role count bitmap for a resource."
      },
      "roles(uint256,address)": {
        "notice": "Returns the roles bitmap for an account in a resource."
      },
      "setAddr(uint256,bytes)": {
        "notice": "Set address for the coin type.         Should revert `InvalidEVMAddress` if coin type is EVM and address is not 0 or 20 bytes."
      },
      "setContenthash(bytes)": {
        "notice": "Set the content hash."
      },
      "setText(string,string)": {
        "notice": "Set a text record."
      },
      "supportsFeature(bytes4)": {
        "notice": "Check if a feature is supported."
      },
      "text(bytes32,string)": {
        "notice": "Get the text value for key."
      }
    },
    "notice": "An owned resolver that provides the same results for any name.",
    "version": 1
  },
  "argsData": "0x0000000000000000000000002279b7a0a67db372996a5fab50d91eaa73d2ebe6",
  "transaction": {
    "hash": "0xb298658f3c5a4f2765cfc4b598f7b6db744304a915cacd0fccbaf9f4d0ef1d33",
    "nonce": "0x3c",
    "origin": "0xf39fd6e51aad88f6f4ce6ab8827279cfffb92266"
  }
}