{
  "address": "0x998abeb3e57409262ae5b751f60747921b33613e",
  "abi": [
    {
      "inputs": [
        {
          "internalType": "contract IStandaloneReverseRegistrar",
          "name": "defaultRegistrar",
          "type": "address"
        }
      ],
      "stateMutability": "nonpayable",
      "type": "constructor"
    },
    {
      "inputs": [
        {
          "internalType": "bytes",
          "name": "dns",
          "type": "bytes"
        }
      ],
      "name": "DNSDecodingFailed",
      "type": "error"
    },
    {
      "inputs": [
        {
          "internalType": "bytes",
          "name": "name",
          "type": "bytes"
        }
      ],
      "name": "UnreachableName",
      "type": "error"
    },
    {
      "inputs": [
        {
          "internalType": "bytes4",
          "name": "selector",
          "type": "bytes4"
        }
      ],
      "name": "UnsupportedResolverProfile",
      "type": "error"
    },
    {
      "inputs": [],
      "name": "chainId",
      "outputs": [
        {
          "internalType": "uint32",
          "name": "",
          "type": "uint32"
        }
      ],
      "stateMutability": "view",
      "type": "function"
    },
    {
      "inputs": [],
      "name": "chainRegistrar",
      "outputs": [
        {
          "internalType": "address",
          "name": "",
          "type": "address"
        }
      ],
      "stateMutability": "view",
      "type": "function"
    },
    {
      "inputs": [],
      "name": "coinType",
      "outputs": [
        {
          "internalType": "uint256",
          "name": "",
          "type": "uint256"
        }
      ],
      "stateMutability": "view",
      "type": "function"
    },
    {
      "inputs": [
        {
          "internalType": "bytes",
          "name": "name",
          "type": "bytes"
        },
        {
          "internalType": "bytes",
          "name": "data",
          "type": "bytes"
        }
      ],
      "name": "resolve",
      "outputs": [
        {
          "internalType": "bytes",
          "name": "result",
          "type": "bytes"
        }
      ],
      "stateMutability": "view",
      "type": "function"
    },
    {
      "inputs": [
        {
          "internalType": "address[]",
          "name": "addrs",
          "type": "address[]"
        }
      ],
      "name": "resolveNames",
      "outputs": [
        {
          "internalType": "string[]",
          "name": "names",
          "type": "string[]"
        }
      ],
      "stateMutability": "view",
      "type": "function"
    },
    {
      "inputs": [
        {
          "internalType": "bytes4",
          "name": "interfaceId",
          "type": "bytes4"
        }
      ],
      "name": "supportsInterface",
      "outputs": [
        {
          "internalType": "bool",
          "name": "",
          "type": "bool"
        }
      ],
      "stateMutability": "view",
      "type": "function"
    }
  ],
  "contractName": "DefaultReverseResolver",
  "sourceName": "lib/ens-contracts/contracts/reverseResolver/DefaultReverseResolver.sol",
  "bytecode": "0x60c0604052348015600e575f80fd5b5060405161124a38038061124a833981016040819052602b916043565b63800000006080526001600160a01b031660a052606e565b5f602082840312156052575f80fd5b81516001600160a01b03811681146067575f80fd5b9392505050565b60805160a0516111856100c55f395f818160a0015281816104350152818161058f015261080501525f818160ec015281816102ac015281816102d20152818161040901528181610545015261063f01526111855ff3fe608060405234801561000f575f80fd5b506004361061006f575f3560e01c80639061b9231161004d5780639061b9231461011c5780639a8a05921461013c578063e38f713814610159575f80fd5b806301ffc9a7146100735780630d02e00f1461009b5780631fe93ea8146100e7575b5f80fd5b610086610081366004610d12565b610179565b60405190151581526020015b60405180910390f35b6100c27f000000000000000000000000000000000000000000000000000000000000000081565b60405173ffffffffffffffffffffffffffffffffffffffff9091168152602001610092565b61010e7f000000000000000000000000000000000000000000000000000000000000000081565b604051908152602001610092565b61012f61012a366004610d7e565b610215565b6040516100929190610e13565b610144610639565b60405163ffffffff9091168152602001610092565b61016c610167366004610e6a565b610668565b6040516100929190610f2f565b5f6001600160e01b031982167f9061b9230000000000000000000000000000000000000000000000000000000014806101db57506001600160e01b031982167f6beeaa0d00000000000000000000000000000000000000000000000000000000145b8061020f57507f01ffc9a7000000000000000000000000000000000000000000000000000000006001600160e01b03198316145b92915050565b60605f6102228385610f91565b90507f96e0cbcf000000000000000000000000000000000000000000000000000000006001600160e01b0319821601610370575f8061029588888080601f0160208091040260200160405190810160405280939291908181526020018383808284375f9201919091525061071292505050565b9150915081516014141580610303575063800000007f0000000000000000000000000000000000000000000000000000000000000000146102f8577f00000000000000000000000000000000000000000000000000000000000000008114610301565b61030181610798565b155b1561032e578787604051635fe9a5df60e01b8152600401610325929190610fc1565b60405180910390fd5b5f61033883610fef565b60601c9050610346816107bd565b6040516020016103569190610e13565b604051602081830303815290604052945050505050610631565b7fc4c4a822000000000000000000000000000000000000000000000000000000006001600160e01b031982160161048f575f6103e087878080601f0160208091040260200160405190810160405280939291908181526020018383808284375f9201829052509250610872915050565b50905080610405578686604051635fe9a5df60e01b8152600401610325929190610fc1565b603c7f000000000000000000000000000000000000000000000000000000000000000014610433575f610455565b7f00000000000000000000000000000000000000000000000000000000000000005b6040805173ffffffffffffffffffffffffffffffffffffffff90921660208301520160405160208183030381529060405292505050610631565b7f0e3481fa000000000000000000000000000000000000000000000000000000006001600160e01b03198216016105f3575f6104ff87878080601f0160208091040260200160405190810160405280939291908181526020018383808284375f9201829052509250610872915050565b50905080610524578686604051635fe9a5df60e01b8152600401610325929190610fc1565b5f610532856004818961102b565b81019061053f9190611052565b915050807f00000000000000000000000000000000000000000000000000000000000000001461057c57604080515f8152602081019091526105ca565b6040516bffffffffffffffffffffffff197f000000000000000000000000000000000000000000000000000000000000000060601b1660208201526034016040516020818303038152906040525b6040516020016105da9190610e13565b6040516020818303038152906040529350505050610631565b6040517f7b1c461b0000000000000000000000000000000000000000000000000000000081526001600160e01b031982166004820152602401610325565b949350505050565b5f6106637f0000000000000000000000000000000000000000000000000000000000000000610a3c565b905090565b6060815167ffffffffffffffff81111561068457610684610e25565b6040519080825280602002602001820160405280156106b757816020015b60608152602001906001900390816106a25790505b5090505f5b825181101561070c576106e78382815181106106da576106da611072565b60200260200101516107bd565b8282815181106106f9576106f9611072565b60209081029190910101526001016106bc565b50919050565b60605f80610720845f610a66565b9150505f61073085600184610a93565b909450905080158061074157508351155b15610762575f60405180602001604052805f81525090935093505050915091565b61076c8583610872565b9350905080610791575f60405180602001604052805f81525090935093505050915091565b5050915091565b5f638000000082148061020f57505f6107b083610a3c565b63ffffffff161192915050565b6040517f4ec3bd2300000000000000000000000000000000000000000000000000000000815273ffffffffffffffffffffffffffffffffffffffff82811660048301526060917f000000000000000000000000000000000000000000000000000000000000000090911690634ec3bd23906024015f60405180830381865afa15801561084b573d5f803e3d5ffd5b505050506040513d5f823e601f3d908101601f1916820160405261020f9190810190611086565b5f805f806108808686610a66565b60408051808201909152600481527f616464720000000000000000000000000000000000000000000000000000000060209091015290925090507f1a1ebb7848707a05591e7f7176db930a822cb7ceab700d19f68c7f26724dafb682016108ea57603c9250610997565b60408051808201909152600781527f64656661756c74000000000000000000000000000000000000000000000000006020909101527f301183f75670b4a9a2edb381b1d7533ad1e4387f1c77824f5fd582d2a43998d882016109525763800000009250610997565b81610964575f80935093505050610a35565b5f8061097b88610975896001611129565b85610b37565b9150915080610993575f809550955050505050610a35565b5092505b6109a18682610a66565b60408051808201909152600781527f7265766572736500000000000000000000000000000000000000000000000000602090910152955091507fdec08c9dbbdd0890e300eb5062089b2d4b1c40e3673bbccb5423f7b37dcf9a9c8214610a0e575f80935093505050610a35565b610a188686610a66565b5091508115610a2e575f80935093505050610a35565b6001935050505b9250929050565b5f603c8203610a4d57506001919050565b6380000000918218918210610a62575f61020f565b5090565b5f805f610a738585610ba9565b9250905060ff811615610a8b57806021858701012092505b509250929050565b60605f83831015610ab457505060408051602081019091525f808252610b2f565b5f610abf858561113c565b90506001610acd8282611129565b901c67ffffffffffffffff811115610ae757610ae7610e25565b6040519080825280601f01601f191660200182016040528015610b11576020820181803683370190505b50925060208587018101908401610b29828285610c26565b93505050505b935093915050565b5f8083831015610b4b57505f905080610b2f565b5f610b56858561113c565b90506040811180610b675750855184115b15610b7857505f9150819050610b2f565b858501602001610b89815f84610c26565b92506001820160011c6020035f518160031b1c9450505050935093915050565b5f8083518310610bce578360405163ba4adc2360e01b81526004016103259190610e13565b838381518110610be057610be0611072565b016020015160f81c91505081810160010181610c00578351811415610c06565b83518110155b15610a35578360405163ba4adc2360e01b81526004016103259190610e13565b5f610c84565b811a5f602f8211603a83101615610c485750602f19810161020f565b60478210604083111615610c615750603619810161020f565b60678210606083111615610c7a5750605619810161020f565b5061010092915050565b50600183820182821615610cbe57610c9d5f8651610c2c565b80855360018601955060018501945060ff811115610cbc575f92508195505b505b80851015610d0a578451610cd3600182610c2c565b610cdd5f83610c2c565b60041b17905060ff811115610cf5575f925050610d0a565b80855350600285019450600184019350610cbe565b509392505050565b5f60208284031215610d22575f80fd5b81356001600160e01b031981168114610d39575f80fd5b9392505050565b5f8083601f840112610d50575f80fd5b50813567ffffffffffffffff811115610d67575f80fd5b602083019150836020828501011115610a35575f80fd5b5f805f8060408587031215610d91575f80fd5b843567ffffffffffffffff80821115610da8575f80fd5b610db488838901610d40565b90965094506020870135915080821115610dcc575f80fd5b50610dd987828801610d40565b95989497509550505050565b5f81518084528060208401602086015e5f602082860101526020601f19601f83011685010191505092915050565b602081525f610d396020830184610de5565b634e487b7160e01b5f52604160045260245ffd5b604051601f8201601f1916810167ffffffffffffffff81118282101715610e6257610e62610e25565b604052919050565b5f6020808385031215610e7b575f80fd5b823567ffffffffffffffff80821115610e92575f80fd5b818501915085601f830112610ea5575f80fd5b813581811115610eb757610eb7610e25565b8060051b9150610ec8848301610e39565b8181529183018401918481019088841115610ee1575f80fd5b938501935b83851015610f23578435925073ffffffffffffffffffffffffffffffffffffffff83168314610f13575f80fd5b8282529385019390850190610ee6565b98975050505050505050565b5f60208083016020845280855180835260408601915060408160051b8701019250602087015f5b82811015610f8457603f19888603018452610f72858351610de5565b94509285019290850190600101610f56565b5092979650505050505050565b6001600160e01b03198135818116916004851015610fb95780818660040360031b1b83161692505b505092915050565b60208152816020820152818360408301375f818301604090810191909152601f909201601f19160101919050565b805160208201516bffffffffffffffffffffffff1980821692919060148310156110235780818460140360031b1b83161693505b505050919050565b5f8085851115611039575f80fd5b83861115611045575f80fd5b5050820193919092039150565b5f8060408385031215611063575f80fd5b50508035926020909101359150565b634e487b7160e01b5f52603260045260245ffd5b5f6020808385031215611097575f80fd5b825167ffffffffffffffff808211156110ae575f80fd5b818501915085601f8301126110c1575f80fd5b8151818111156110d3576110d3610e25565b6110e5601f8201601f19168501610e39565b915080825286848285010111156110fa575f80fd5b808484018584015e5f90820190930192909252509392505050565b634e487b7160e01b5f52601160045260245ffd5b8082018082111561020f5761020f611115565b8181038181111561020f5761020f61111556fea26469706673582212201e8a9cdd8be1704c8b5ef9e6d8ed90d778f947b9d52c2615f69da45e9bd4edf464736f6c63430008190033",
  "linkReferences": {},
  "deployedLinkReferences": {},
  "immutableReferences": {
    "16592": [
      {
        "length": 32,
        "start": 236
      },
      {
        "length": 32,
        "start": 684
      },
      {
        "length": 32,
        "start": 722
      },
      {
        "length": 32,
        "start": 1033
      },
      {
        "length": 32,
        "start": 1349
      },
      {
        "length": 32,
        "start": 1599
      }
    ],
    "16595": [
      {
        "length": 32,
        "start": 160
      },
      {
        "length": 32,
        "start": 1077
      },
      {
        "length": 32,
        "start": 1423
      },
      {
        "length": 32,
        "start": 2053
      }
    ]
  },
  "inputSourceName": "project/lib/ens-contracts/contracts/reverseResolver/DefaultReverseResolver.sol",
  "devdoc": {
    "errors": {
      "DNSDecodingFailed(bytes)": [
        {
          "details": "The DNS-encoded name is malformed.      Error selector: `0xba4adc23`"
        }
      ],
      "UnreachableName(bytes)": [
        {
          "details": "Error selector: `0x5fe9a5df`"
        }
      ],
      "UnsupportedResolverProfile(bytes4)": [
        {
          "details": "Error selector: `0x7b1c461b`"
        }
      ]
    },
    "kind": "dev",
    "methods": {
      "resolve(bytes,bytes)": {
        "details": "This function may execute over multiple steps.",
        "params": {
          "data": "The resolution data, as specified in ENSIP-10.",
          "name": "The reverse name to resolve, in normalised and DNS-encoded form."
        },
        "returns": {
          "result": "The encoded response for the requested profile."
        }
      },
      "resolveNames(address[])": {
        "details": "This function may execute over multiple steps.",
        "params": {
          "addrs": "The addresses to resolve."
        },
        "returns": {
          "names": "The resolved names."
        }
      },
      "supportsInterface(bytes4)": {
        "details": "See {IERC165-supportsInterface}."
      }
    },
    "title": "Default Reverse Resolver",
    "version": 1
  },
  "evm": {
    "gasEstimates": {
      "creation": {
        "codeDepositCost": "897000",
        "executionCost": "infinite",
        "totalCost": "infinite"
      },
      "external": {
        "chainId()": "infinite",
        "chainRegistrar()": "infinite",
        "coinType()": "infinite",
        "resolve(bytes,bytes)": "infinite",
        "resolveNames(address[])": "infinite",
        "supportsInterface(bytes4)": "461"
      },
      "internal": {
        "_resolveName(address)": "infinite"
      }
    }
  },
  "storageLayout": {
    "storage": [],
    "types": null
  },
  "userdoc": {
    "errors": {
      "UnreachableName(bytes)": [
        {
          "notice": "`name` is not a valid DNS-encoded ENSIP-19 reverse name or namespace."
        }
      ],
      "UnsupportedResolverProfile(bytes4)": [
        {
          "notice": "`resolve()` was called with a profile other than `name()` or `addr(*)`."
        }
      ]
    },
    "kind": "user",
    "methods": {
      "chainId()": {
        "notice": "The EVM Chain ID derived from `coinType()`."
      },
      "chainRegistrar()": {
        "notice": "The reverse registrar address on the corresponding chain.         The address returned by `addr(coinType)` for the resolver."
      },
      "coinType()": {
        "notice": "The coin type for the resolver."
      },
      "resolve(bytes,bytes)": {
        "notice": "Resolves the following profiles according to ENSIP-10:         - `name()` if `name` is an ENSIP-19 reverse name of an EVM address for `coinType`.         - `addr(*) = registrar` if `name` is an ENSIP-19 reverse namespace for `coinType`.         Caller should enable EIP-3668."
      },
      "resolveNames(address[])": {
        "notice": "Resolve multiple EVM addresses to names.         Caller should enable EIP-3668."
      }
    },
    "notice": "Reverses an EVM address using the `IStandaloneReverseRegistrar` for \"default.reverse\".",
    "version": 1
  },
  "argsData": "0x000000000000000000000000f5059a5d33d5853360d16c683c16e67980206f36",
  "transaction": {
    "hash": "0xeda33f09bebf7511b46026b743d0678c5af09109621a4eeec1dd0fb44fb081d8",
    "nonce": "0x27",
    "origin": "0xf39fd6e51aad88f6f4ce6ab8827279cfffb92266"
  }
}