{
  "address": "0xb7f8bc63bbcad18155201308c8f3540b07f84f5e",
  "abi": [
    {
      "inputs": [
        {
          "internalType": "contract IRegistry",
          "name": "rootRegistry",
          "type": "address"
        },
        {
          "internalType": "contract IGatewayProvider",
          "name": "batchGatewayProvider",
          "type": "address"
        }
      ],
      "stateMutability": "nonpayable",
      "type": "constructor"
    },
    {
      "inputs": [
        {
          "internalType": "bytes",
          "name": "dns",
          "type": "bytes"
        }
      ],
      "name": "DNSDecodingFailed",
      "type": "error"
    },
    {
      "inputs": [
        {
          "internalType": "string",
          "name": "ens",
          "type": "string"
        }
      ],
      "name": "DNSEncodingFailed",
      "type": "error"
    },
    {
      "inputs": [],
      "name": "InvalidBatchGatewayResponse",
      "type": "error"
    },
    {
      "inputs": [
        {
          "internalType": "bytes",
          "name": "name",
          "type": "bytes"
        },
        {
          "internalType": "bytes",
          "name": "suffix",
          "type": "bytes"
        }
      ],
      "name": "NoSuffixMatch",
      "type": "error"
    },
    {
      "inputs": [
        {
          "internalType": "address",
          "name": "sender",
          "type": "address"
        },
        {
          "internalType": "string[]",
          "name": "urls",
          "type": "string[]"
        },
        {
          "internalType": "bytes",
          "name": "callData",
          "type": "bytes"
        },
        {
          "internalType": "bytes4",
          "name": "callbackFunction",
          "type": "bytes4"
        },
        {
          "internalType": "bytes",
          "name": "extraData",
          "type": "bytes"
        }
      ],
      "name": "OffchainLookup",
      "type": "error"
    },
    {
      "inputs": [
        {
          "internalType": "uint256",
          "name": "offset",
          "type": "uint256"
        },
        {
          "internalType": "uint256",
          "name": "length",
          "type": "uint256"
        }
      ],
      "name": "OffsetOutOfBoundsError",
      "type": "error"
    },
    {
      "inputs": [
        {
          "internalType": "bytes",
          "name": "name",
          "type": "bytes"
        }
      ],
      "name": "UnreachableName",
      "type": "error"
    },
    {
      "inputs": [],
      "name": "BATCH_GATEWAY_PROVIDER",
      "outputs": [
        {
          "internalType": "contract IGatewayProvider",
          "name": "",
          "type": "address"
        }
      ],
      "stateMutability": "view",
      "type": "function"
    },
    {
      "inputs": [],
      "name": "ROOT_REGISTRY",
      "outputs": [
        {
          "internalType": "contract IRegistry",
          "name": "",
          "type": "address"
        }
      ],
      "stateMutability": "view",
      "type": "function"
    },
    {
      "inputs": [
        {
          "internalType": "address",
          "name": "resolver",
          "type": "address"
        },
        {
          "internalType": "bytes",
          "name": "name",
          "type": "bytes"
        },
        {
          "internalType": "bytes",
          "name": "data",
          "type": "bytes"
        },
        {
          "internalType": "bool",
          "name": "hasContext",
          "type": "bool"
        },
        {
          "internalType": "bytes",
          "name": "context",
          "type": "bytes"
        },
        {
          "internalType": "string[]",
          "name": "batchGateways",
          "type": "string[]"
        }
      ],
      "name": "callResolver",
      "outputs": [
        {
          "internalType": "bytes",
          "name": "",
          "type": "bytes"
        }
      ],
      "stateMutability": "view",
      "type": "function"
    },
    {
      "inputs": [
        {
          "components": [
            {
              "components": [
                {
                  "internalType": "address",
                  "name": "target",
                  "type": "address"
                },
                {
                  "internalType": "bytes",
                  "name": "call",
                  "type": "bytes"
                },
                {
                  "internalType": "bytes",
                  "name": "data",
                  "type": "bytes"
                },
                {
                  "internalType": "uint256",
                  "name": "flags",
                  "type": "uint256"
                }
              ],
              "internalType": "struct CCIPBatcher.Lookup[]",
              "name": "lookups",
              "type": "tuple[]"
            },
            {
              "internalType": "string[]",
              "name": "gateways",
              "type": "string[]"
            }
          ],
          "internalType": "struct CCIPBatcher.Batch",
          "name": "batch",
          "type": "tuple"
        }
      ],
      "name": "ccipBatch",
      "outputs": [
        {
          "components": [
            {
              "components": [
                {
                  "internalType": "address",
                  "name": "target",
                  "type": "address"
                },
                {
                  "internalType": "bytes",
                  "name": "call",
                  "type": "bytes"
                },
                {
                  "internalType": "bytes",
                  "name": "data",
                  "type": "bytes"
                },
                {
                  "internalType": "uint256",
                  "name": "flags",
                  "type": "uint256"
                }
              ],
              "internalType": "struct CCIPBatcher.Lookup[]",
              "name": "lookups",
              "type": "tuple[]"
            },
            {
              "internalType": "string[]",
              "name": "gateways",
              "type": "string[]"
            }
          ],
          "internalType": "struct CCIPBatcher.Batch",
          "name": "",
          "type": "tuple"
        }
      ],
      "stateMutability": "view",
      "type": "function"
    },
    {
      "inputs": [
        {
          "internalType": "bytes",
          "name": "response",
          "type": "bytes"
        },
        {
          "internalType": "bytes",
          "name": "extraData",
          "type": "bytes"
        }
      ],
      "name": "ccipBatchCallback",
      "outputs": [
        {
          "components": [
            {
              "components": [
                {
                  "internalType": "address",
                  "name": "target",
                  "type": "address"
                },
                {
                  "internalType": "bytes",
                  "name": "call",
                  "type": "bytes"
                },
                {
                  "internalType": "bytes",
                  "name": "data",
                  "type": "bytes"
                },
                {
                  "internalType": "uint256",
                  "name": "flags",
                  "type": "uint256"
                }
              ],
              "internalType": "struct CCIPBatcher.Lookup[]",
              "name": "lookups",
              "type": "tuple[]"
            },
            {
              "internalType": "string[]",
              "name": "gateways",
              "type": "string[]"
            }
          ],
          "internalType": "struct CCIPBatcher.Batch",
          "name": "batch",
          "type": "tuple"
        }
      ],
      "stateMutability": "view",
      "type": "function"
    },
    {
      "inputs": [
        {
          "internalType": "bytes",
          "name": "response",
          "type": "bytes"
        },
        {
          "internalType": "bytes",
          "name": "extraData",
          "type": "bytes"
        }
      ],
      "name": "ccipReadCallback",
      "outputs": [],
      "stateMutability": "view",
      "type": "function"
    },
    {
      "inputs": [
        {
          "internalType": "bytes",
          "name": "name",
          "type": "bytes"
        },
        {
          "internalType": "bytes",
          "name": "data",
          "type": "bytes"
        },
        {
          "internalType": "bytes",
          "name": "context",
          "type": "bytes"
        }
      ],
      "name": "resolve",
      "outputs": [
        {
          "internalType": "bytes",
          "name": "",
          "type": "bytes"
        }
      ],
      "stateMutability": "view",
      "type": "function"
    },
    {
      "inputs": [
        {
          "internalType": "bytes",
          "name": "response",
          "type": "bytes"
        },
        {
          "internalType": "bytes",
          "name": "extraData",
          "type": "bytes"
        }
      ],
      "name": "resolveBatchCallback",
      "outputs": [
        {
          "internalType": "bytes",
          "name": "",
          "type": "bytes"
        }
      ],
      "stateMutability": "pure",
      "type": "function"
    },
    {
      "inputs": [
        {
          "internalType": "bytes",
          "name": "response",
          "type": "bytes"
        },
        {
          "internalType": "bytes",
          "name": "",
          "type": "bytes"
        }
      ],
      "name": "resolveDirectImmediateCallback",
      "outputs": [
        {
          "internalType": "bytes",
          "name": "",
          "type": "bytes"
        }
      ],
      "stateMutability": "pure",
      "type": "function"
    },
    {
      "inputs": [
        {
          "internalType": "bytes",
          "name": "name",
          "type": "bytes"
        },
        {
          "internalType": "bytes",
          "name": "context",
          "type": "bytes"
        }
      ],
      "name": "rewriteNameWithContext",
      "outputs": [
        {
          "internalType": "bytes",
          "name": "",
          "type": "bytes"
        }
      ],
      "stateMutability": "pure",
      "type": "function"
    },
    {
      "inputs": [
        {
          "internalType": "bytes4",
          "name": "feature",
          "type": "bytes4"
        }
      ],
      "name": "supportsFeature",
      "outputs": [
        {
          "internalType": "bool",
          "name": "",
          "type": "bool"
        }
      ],
      "stateMutability": "pure",
      "type": "function"
    },
    {
      "inputs": [
        {
          "internalType": "bytes4",
          "name": "interfaceId",
          "type": "bytes4"
        }
      ],
      "name": "supportsInterface",
      "outputs": [
        {
          "internalType": "bool",
          "name": "",
          "type": "bool"
        }
      ],
      "stateMutability": "view",
      "type": "function"
    }
  ],
  "contractName": "DNSAliasResolver",
  "sourceName": "src/dns/DNSAliasResolver.sol",
  "bytecode": "0x60e060405234801561000f575f80fd5b50604051612ed8380380612ed883398101604081905261002e91610062565b61c3506080526001600160a01b0391821660a0521660c05261009a565b6001600160a01b038116811461005f575f80fd5b50565b5f8060408385031215610073575f80fd5b825161007e8161004b565b602084015190925061008f8161004b565b809150509250929050565b60805160a05160c051612e066100d25f395f8181610157015261068d01525f8181610200015261063f01525f61141f0152612e065ff3fe608060405234801561000f575f80fd5b50600436106100cf575f3560e01c80638ef98a7e1161007d578063c92cc49a11610058578063c92cc49a146101fb578063ef46c0b814610222578063f394443a14610237575f80fd5b80638ef98a7e146101b55780639f28e99d146101c8578063b536af76146101e8575f80fd5b806361c23266116100ad57806361c232661461013f5780636ccb8660146101525780636d6dd54014610191575f80fd5b806301ffc9a7146100d3578063491fc4f9146100fb578063582de3e71461011b575b5f80fd5b6100e66100e1366004611daf565b61024a565b60405190151581526020015b60405180910390f35b61010e610109366004611e08565b61029b565b6040516100f29190611e9d565b6100e6610129366004611daf565b6001600160e01b0319166312d6c5b760e31b1490565b61010e61014d366004611e08565b610439565b6101797f000000000000000000000000000000000000000000000000000000000000000081565b6040516001600160a01b0390911681526020016100f2565b6101a761019f366004611e08565b509192909150565b6040516100f2929190611ed7565b61010e6101c3366004611eea565b610627565b6101db6101d6366004612191565b61071b565b6040516100f29190612351565b6101db6101f6366004611e08565b6108dc565b6101797f000000000000000000000000000000000000000000000000000000000000000081565b61023561023036600461241a565b610b2b565b005b61010e610245366004612492565b610bb0565b5f63477cc53f60e11b6001600160e01b03198316148061027a575063582de3e760e01b6001600160e01b03198316145b8061029557506301ffc9a760e01b6001600160e01b03198316145b92915050565b60605f6102aa85870187612191565b5190505f806102bb85870187612557565b9150915081156103c8575f835167ffffffffffffffff8111156102e0576102e0611f7d565b60405190808252806020026020018201604052801561031357816020015b60608152602001906001900390816102fe5790505b5090505f5b845181101561039c575f8582815181106103345761033461258e565b602002602001015190505f8160400151905084801561035857506060820151600e16155b15610374578080602001905181019061037191906125f6565b90505b808484815181106103875761038761258e565b60209081029190910101525050600101610318565b50806040516020016103ae9190612628565b604051602081830303815290604052945050505050610431565b5f835f815181106103db576103db61258e565b60209081029190910101516040810151606082015191925090600e161561040457805160208201fd5b8215610421578080602001905181019061041e91906125f6565b90505b94506104319350505050565b5050505b949350505050565b60605f61049d84848080601f0160208091040260200160405190810160405280939291908181526020018383808284375f92018290525092508791507f20000000000000000000000000000000000000000000000000000000000000009050610ed0565b9050828110156105e1575f6104f06104b78383878961268a565b8080601f0160208091040260200160405190810160405280939291908181526020018383808284375f92019190915250610f5092505050565b90505f8061053d89898080601f0160208091040260200160405190810160405280939291908181526020018383808284375f9201829052509250610538915087905082611112565b61114a565b93505050915081610589578888846040517f017817ea000000000000000000000000000000000000000000000000000000008152600401610580939291906126b1565b60405180910390fd5b5f6105a5888861059a8860016126f4565b6104b792829061268a565b90506105b3825f8b8d61268a565b826040516020016105c69392919061271e565b60405160208183030381529060405295505050505050610431565b61061f84848080601f0160208091040260200160405190810160405280939291908181526020018383808284375f92019190915250610f5092505050565b915050610431565b60605f61063688888686610439565b90505f806106657f0000000000000000000000000000000000000000000000000000000000000000845f6111b9565b50925092505061070d828461067b8b8b8661133e565b5f60405180602001604052805f8152507f00000000000000000000000000000000000000000000000000000000000000006001600160a01b031663093a86d36040518163ffffffff1660e01b81526004015f60405180830381865afa1580156106e6573d5f803e3d5ffd5b505050506040513d5f823e601f3d908101601f1916820160405261024591908101906127c1565b505050509695505050505050565b60408051808201909152606080825260208201525f5b8251518110156108ce575f835f015182815181106107515761075161258e565b6020026020010151905060408160600151165f1461076f57506108c6565b60608101516030165f03610819575f61078a825f01516113d9565b610795576010610798565b60205b9050825b85515181101561081657825f01516001600160a01b0316865f015182815181106107c8576107c861258e565b60200260200101515f01516001600160a01b03160361080e5781865f015182815181106107f7576107f761258e565b602002602001015160600181815117915081815250505b60010161079c565b50505b5f60208260600151165f1490505f8061083b8315855f0151866020015161140b565b91509150811580156108655750630556f18360e41b610859826127f3565b6001600160e01b031916145b1561087a5760608401805160011790526108ba565b606084018051604017905282801561089157508051155b6108a657816108a65760608401805160021790525b80515f036108ba5760608401805160081790525b60409093019290925250505b600101610731565b506108d88261149e565b5090565b60408051808201909152606080825260208201525f806108fe868801886128a5565b9150915080518251146109245760405163252e18f560e11b815260040160405180910390fd5b61093084860186612191565b92505f805b845151811015610b00575f855f015182815181106109555761095561258e565b6020026020010151905060408160600151165f03610af7578351831015610aeb575f8484815181106109895761098961258e565b602002602001015190508584815181106109a5576109a561258e565b6020026020010151156109c2576060820180516044179052610ae5565b5f6109d08360400151611689565b90505f815f01516001600160a01b031682606001518484608001516040516024016109fc929190612957565b60408051601f198184030181529181526020820180516001600160e01b03166001600160e01b0319909416939093179092529051610a3a919061297b565b5f60405180830381855afa9150503d805f8114610a72576040519150601f19603f3d011682016040523d82523d5f602084013e610a77565b606091505b50935090508080610aa15750630556f18360e41b610a94846127f3565b6001600160e01b03191614155b15610ae2576060840180516040179052801580610abd57508251155b15610ace5760608401805160021790525b82515f03610ae25760608401805160081790525b50505b60408201525b610af483612986565b92505b50600101610935565b5081518114610b225760405163252e18f560e11b815260040160405180910390fd5b61042d8461149e565b5f81806020019051810190610b4091906129b4565b9050610bab815f01518260200151858460400151604051602401610b65929190612957565b60408051601f198184030181529190526020810180516001600160e01b03166001600160e01b0319909316929092179091526060840151608085015160a08601516116cd565b505050565b6060866001600160a01b03163b5f03610bf757856040517f5fe9a5df0000000000000000000000000000000000000000000000000000000081526004016105809190611e9d565b5f7fac9650d800000000000000000000000000000000000000000000000000000000610c22876127f3565b6001600160e01b0319161490505f858015610c495750610c498963477cc53f60e11b611890565b90505f8180610c645750610c648a639061b92360e01b611890565b9050610c778a63582de3e760e01b611890565b8015610cfb5750821580610cfb5750808015610cfb575060405163582de3e760e01b81526312d6c5b760e31b60048201526001600160a01b038b169063582de3e790602401602060405180830381865afa158015610cd7573d5f803e3d5ffd5b505050506040513d601f19601f82011682018060405250810190610cfb9190612a83565b15610d45578015610d2057610d1b8a610d16848c8c8b611916565b6119a8565b610d45565b610d458a89636d6dd54060e01b5f60e01b60405180602001604052805f8152506116cd565b60608315610d7f57610d65896004808c51610d609190612a9e565b6119cd565b806020019051810190610d789190612ab1565b9050610dca565b60408051600180825281830190925290816020015b6060815260200190600190039081610d9457905050905088815f81518110610dbe57610dbe61258e565b60200260200101819052505b8115610e27575f5b8151811015610e2557610e00848c848481518110610df257610df261258e565b60200260200101518b611916565b828281518110610e1257610e1261258e565b6020908102919091010152600101610dd2565b505b61070d3080639f28e99d610e3c8f868c611a22565b604051602401610e4c9190612351565b60408051601f19818403018152918152602080830180516001600160e01b031660e09590951b94909417909352519092507f491fc4f900000000000000000000000000000000000000000000000000000000915f91610ebc918b918a910191151582521515602082015260400190565b6040516020818303038152906040526116cd565b5f80610edc84866126f4565b90505b80851015610f4457826001600160f81b031916868681518110610f0457610f0461258e565b01602001517fff000000000000000000000000000000000000000000000000000000000000001603610f395784915050610431565b600190940193610edf565b505f1995945050505050565b80516060905f819003610f7857505060408051808201909152600181525f6020820152919050565b8060020167ffffffffffffffff811115610f9457610f94611f7d565b6040519080825280601f01601f191660200182016040528015610fbe576020820181803683370190505b509150610fd2602183016020850183611b37565b5f805f5b838110156110ab57858181518110610ff057610ff061258e565b01602001517fff00000000000000000000000000000000000000000000000000000000000000167f2e00000000000000000000000000000000000000000000000000000000000000036110a3578281039150815f1480611050575060ff82115b156110705785604051639a4c3e3b60e01b81526004016105809190611e9d565b8160f81b8584815181106110865761108661258e565b60200101906001600160f81b03191690815f1a9053508060010192505b600101610fd6565b5050808203828214806110be575060ff81115b156110de5784604051639a4c3e3b60e01b81526004016105809190611e9d565b8060f81b8483815181106110f4576110f461258e565b60200101906001600160f81b03191690815f1a905350505050919050565b5f61111d8383611b80565b925090508015610295576111436111348484611112565b825f9182526020526040902090565b9392505050565b5f805f805f8061115a8989611b80565b9092509050811561119c5761117089828961114a565b9298509096509450925086850361118c57600195508793508092505b5f85815260208390526040902094505b8685036111ae57600195508792508293505b505093509350935093565b5f805f805f806111c98888611b80565b9092509050816111e757508794505f93508392508591506113359050565b6111f28989836111b9565b929850909650945092506001600160a01b03861615611326575f6112168989611bad565b5090505f876001600160a01b031663e4ae7d77836040518263ffffffff1660e01b81526004016112469190611e9d565b602060405180830381865afa158015611261573d5f803e3d5ffd5b505050506040513d601f19601f820116820180604052508101906112859190612b5b565b90506001600160a01b0381161561129d578096508894505b6040517f35af62160000000000000000000000000000000000000000000000000000000081526001600160a01b038916906335af6216906112e2908590600401611e9d565b602060405180830381865afa1580156112fd573d5f803e3d5ffd5b505050506040513d601f19601f820116820180604052508101906113219190612b5b565b975050505b505f9283526020526040909120905b93509350935093565b606083838080601f0160208091040260200160405190810160405280939291908181526020018383808284375f920191909152509293506113cf92505050565b602081015160e01c63ac9650d88114611398575060240152565b602482810151830101805160051b5b80156113c8576113bf8582840151602085010161137e565b601f19016113a7565b5050505050565b611143828261137e565b5f306001600160a01b038316036113f257506001919050565b6113885a5f805f808786fa50815a909103109392505050565b5f6060836001600160a01b031685611443577f0000000000000000000000000000000000000000000000000000000000000000611445565b5a5b84604051611453919061297b565b5f604051808303818686fa925050503d805f811461148c576040519150601f19603f3d011682016040523d82523d5f602084013e611491565b606091505b5090969095509350505050565b8051515f9067ffffffffffffffff8111156114bb576114bb611f7d565b60405190808252806020026020018201604052801561151857816020015b61150560405180606001604052805f6001600160a01b0316815260200160608152602001606081525090565b8152602001906001900390816114d95790505b5090505f805b8351518110156115c9575f845f0151828151811061153e5761153e61258e565b6020026020010151905060408160600151165f036115c0575f6115648260400151611689565b90506040518060600160405280825f01516001600160a01b031681526020018260200151815260200182604001518152508585806115a190612986565b9650815181106115b3576115b361258e565b6020026020010181905250505b5060010161151e565b508015610bab57808252308360200151836040516024016115ea9190612b76565b60408051601f19818403018152918152602080830180516001600160e01b03167fa780bab60000000000000000000000000000000000000000000000000000000017905290517fb536af76000000000000000000000000000000000000000000000000000000009161165e91899101612351565b60408051601f1981840301815290829052630556f18360e41b82526105809594939291600401612c10565b6040805160a0810182525f8082526060602083018190529282018390528282015260808101919091526102956116c8836004808651610d609190612a9e565b611c2a565b5f806116e26116db886113d9565b888861140b565b915091508115801561170c5750630556f18360e41b611700826127f3565b6001600160e01b031916145b156117ba575f61171b82611689565b9050876001600160a01b0316815f01516001600160a01b0316036117b857308160200151826040015163ef46c0b860e01b6040518060c001604052808d6001600160a01b0316815260200186606001516001600160e01b0319168152602001866080015181526020018b6001600160e01b03191681526020018a6001600160e01b03191681526020018981525060405160200161165e9190612c73565b505b5f826117c657846117c8565b855b90506001600160e01b031981161561187a57306001600160a01b03168183866040516024016117f8929190612957565b60408051601f198184030181529181526020820180516001600160e01b03166001600160e01b0319909416939093179092529051611836919061297b565b5f60405180830381855afa9150503d805f811461186e576040519150601f19603f3d011682016040523d82523d5f602084013e611873565b606091505b5090935091505b821561188857815160208301f35b815160208301fd5b604080516001600160e01b03198316602480830191909152825180830390910181526044909101909152602080820180516001600160e01b03166301ffc9a760e01b17815282515f9392849283928392918391908a617530fa92503d91505f519050828015611900575060208210155b801561190b57505f81115b979650505050505050565b60608461195f578383604051602401611930929190612957565b60408051601f198184030181529190526020810180516001600160e01b0316639061b92360e01b17905261199f565b83838360405160240161197493929190612cef565b60408051601f198184030181529190526020810180516001600160e01b031663477cc53f60e11b1790525b95945050505050565b6119c982825f60e01b5f60e01b60405180602001604052805f8152506116cd565b5050565b60608167ffffffffffffffff8111156119e8576119e8611f7d565b6040519080825280601f01601f191660200182016040528015611a12576020820181803683370190505b5090506111438484835f86611c95565b60408051808201909152606080825260208201525f835167ffffffffffffffff811115611a5157611a51611f7d565b604051908082528060200260200182016040528015611ab457816020015b611aa160405180608001604052805f6001600160a01b0316815260200160608152602001606081526020015f81525090565b815260200190600190039081611a6f5790505b5090505f5b8451811015611b1a575f828281518110611ad557611ad561258e565b60209081029190910101516001600160a01b03881681528651909150869083908110611b0357611b0361258e565b602090810291909101810151910152600101611ab9565b506040805180820190915290815260208101929092525092915050565b5b601f811115611b58578151835260209283019290910190601f1901611b38565b8015610bab5790518251600160209390930360031b9290921b5f190180199091169116179052565b5f805f611b8d8585611ccb565b9250905060ff811615611ba557806021858701012092505b509250929050565b60605f80611bbb8585611ccb565b925090505f60ff821667ffffffffffffffff811115611bdc57611bdc611f7d565b6040519080825280601f01601f191660200182016040528015611c06576020820181803683370190505b509050611c1f6020820160218888010160ff8516611b37565b959194509092505050565b6040805160a0810182525f80825260606020830181905292820183905282820152608081019190915281806020019051810190611c679190612d27565b60808601526001600160e01b0319166060850152604084015260208301526001600160a01b03168152919050565b611ca885611ca383876126f4565b611d4f565b611cb683611ca383856126f4565b6113c882602085010185602088010183611b37565b5f8083518310611cf0578360405163ba4adc2360e01b81526004016105809190611e9d565b838381518110611d0257611d0261258e565b016020015160f81c91505081810160010181611d22578351811415611d28565b83518110155b15611d48578360405163ba4adc2360e01b81526004016105809190611e9d565b9250929050565b81518111156119c95781516040517f8a3c1cfb000000000000000000000000000000000000000000000000000000008152610580918391600401918252602082015260400190565b6001600160e01b031981168114611dac575f80fd5b50565b5f60208284031215611dbf575f80fd5b813561114381611d97565b5f8083601f840112611dda575f80fd5b50813567ffffffffffffffff811115611df1575f80fd5b602083019150836020828501011115611d48575f80fd5b5f805f8060408587031215611e1b575f80fd5b843567ffffffffffffffff80821115611e32575f80fd5b611e3e88838901611dca565b90965094506020870135915080821115611e56575f80fd5b50611e6387828801611dca565b95989497509550505050565b5f81518084528060208401602086015e5f602082860101526020601f19601f83011685010191505092915050565b602081525f6111436020830184611e6f565b81835281816020850137505f828201602090810191909152601f909101601f19169091010190565b602081525f610431602083018486611eaf565b5f805f805f8060608789031215611eff575f80fd5b863567ffffffffffffffff80821115611f16575f80fd5b611f228a838b01611dca565b90985096506020890135915080821115611f3a575f80fd5b611f468a838b01611dca565b90965094506040890135915080821115611f5e575f80fd5b50611f6b89828a01611dca565b979a9699509497509295939492505050565b634e487b7160e01b5f52604160045260245ffd5b6040805190810167ffffffffffffffff81118282101715611fb457611fb4611f7d565b60405290565b6040516080810167ffffffffffffffff81118282101715611fb457611fb4611f7d565b60405160c0810167ffffffffffffffff81118282101715611fb457611fb4611f7d565b604051601f8201601f1916810167ffffffffffffffff8111828210171561202957612029611f7d565b604052919050565b5f67ffffffffffffffff82111561204a5761204a611f7d565b5060051b60200190565b6001600160a01b0381168114611dac575f80fd5b803561207381612054565b919050565b5f67ffffffffffffffff82111561209157612091611f7d565b50601f01601f191660200190565b5f6120b16120ac84612078565b612000565b90508281528383830111156120c4575f80fd5b828260208301375f602084830101529392505050565b5f82601f8301126120e9575f80fd5b6111438383356020850161209f565b5f82601f830112612107575f80fd5b813560206121176120ac83612031565b82815260059290921b84018101918181019086841115612135575f80fd5b8286015b8481101561218657803567ffffffffffffffff811115612157575f80fd5b8701603f81018913612167575f80fd5b61217889868301356040840161209f565b845250918301918301612139565b509695505050505050565b5f60208083850312156121a2575f80fd5b823567ffffffffffffffff808211156121b9575f80fd5b90840190604082870312156121cc575f80fd5b6121d4611f91565b8235828111156121e2575f80fd5b8301601f810188136121f2575f80fd5b80356122006120ac82612031565b81815260059190911b8201860190868101908a83111561221e575f80fd5b8784015b838110156122c657803587811115612238575f80fd5b85016080818e03601f1901121561224d575f80fd5b612255611fba565b8a82013561226281612054565b8152604082013589811115612275575f80fd5b6122838f8d838601016120da565b8c83015250606082013589811115612299575f80fd5b6122a78f8d838601016120da565b6040830152506080919091013560608201528352918801918801612222565b50845250505082840135828111156122dc575f80fd5b6122e8888286016120f8565b948201949094529695505050505050565b5f8282518085526020808601955060208260051b840101602086015f5b8481101561234457601f19868403018952612332838351611e6f565b98840198925090830190600101612316565b5090979650505050505050565b5f602080835260608084018551604080858801528282518085526080945060808901915060808160051b8a010187850194505f5b828110156123ef57607f198b830301845285516001600160a01b03815116835289810151888b8501526123ba89850182611e6f565b905086820151848203888601526123d18282611e6f565b928b0151948b01949094525095890195938901939150600101612385565b50968a0151898803601f190160408b01529661240b81896122f9565b9b9a5050505050505050505050565b5f806040838503121561242b575f80fd5b823567ffffffffffffffff80821115612442575f80fd5b61244e868387016120da565b93506020850135915080821115612463575f80fd5b50612470858286016120da565b9150509250929050565b8015158114611dac575f80fd5b80356120738161247a565b5f805f805f8060c087890312156124a7575f80fd5b6124b087612068565b9550602087013567ffffffffffffffff808211156124cc575f80fd5b6124d88a838b016120da565b965060408901359150808211156124ed575f80fd5b6124f98a838b016120da565b955061250760608a01612487565b9450608089013591508082111561251c575f80fd5b6125288a838b016120da565b935060a089013591508082111561253d575f80fd5b5061254a89828a016120f8565b9150509295509295509295565b5f8060408385031215612568575f80fd5b82356125738161247a565b915060208301356125838161247a565b809150509250929050565b634e487b7160e01b5f52603260045260245ffd5b5f6125af6120ac84612078565b90508281528383830111156125c2575f80fd5b8282602083015e5f602084830101529392505050565b5f82601f8301126125e7575f80fd5b611143838351602085016125a2565b5f60208284031215612606575f80fd5b815167ffffffffffffffff81111561261c575f80fd5b610431848285016125d8565b5f60208083016020845280855180835260408601915060408160051b8701019250602087015f5b8281101561267d57603f1988860301845261266b858351611e6f565b9450928501929085019060010161264f565b5092979650505050505050565b5f8085851115612698575f80fd5b838611156126a4575f80fd5b5050820193919092039150565b604081525f6126c4604083018587611eaf565b82810360208401526126d68185611e6f565b9695505050505050565b634e487b7160e01b5f52601160045260245ffd5b80820180821115610295576102956126e0565b5f81518060208401855e5f93019283525090919050565b828482375f8382015f81526126d68185612707565b5f82601f830112612742575f80fd5b815160206127526120ac83612031565b82815260059290921b84018101918181019086841115612770575f80fd5b8286015b8481101561218657805167ffffffffffffffff811115612792575f80fd5b8701603f810189136127a2575f80fd5b6127b38986830151604084016125a2565b845250918301918301612774565b5f602082840312156127d1575f80fd5b815167ffffffffffffffff8111156127e7575f80fd5b61043184828501612733565b5f815160208301516001600160e01b0319808216935060048310156128225780818460040360031b1b83161693505b505050919050565b5f82601f830112612839575f80fd5b813560206128496120ac83612031565b82815260059290921b84018101918181019086841115612867575f80fd5b8286015b8481101561218657803567ffffffffffffffff811115612889575f80fd5b6128978986838b01016120da565b84525091830191830161286b565b5f80604083850312156128b6575f80fd5b823567ffffffffffffffff808211156128cd575f80fd5b818501915085601f8301126128e0575f80fd5b813560206128f06120ac83612031565b82815260059290921b8401810191818101908984111561290e575f80fd5b948201945b838610156129355785356129268161247a565b82529482019490820190612913565b9650508601359250508082111561294a575f80fd5b506124708582860161282a565b604081525f6129696040830185611e6f565b828103602084015261199f8185611e6f565b5f6111438284612707565b5f60018201612997576129976126e0565b5060010190565b805161207381612054565b805161207381611d97565b5f602082840312156129c4575f80fd5b815167ffffffffffffffff808211156129db575f80fd5b9083019060c082860312156129ee575f80fd5b6129f6611fdd565b6129ff8361299e565b8152612a0d602084016129a9565b6020820152604083015182811115612a23575f80fd5b612a2f878286016125d8565b604083015250612a41606084016129a9565b6060820152612a52608084016129a9565b608082015260a083015182811115612a68575f80fd5b612a74878286016125d8565b60a08301525095945050505050565b5f60208284031215612a93575f80fd5b81516111438161247a565b81810381811115610295576102956126e0565b5f6020808385031215612ac2575f80fd5b825167ffffffffffffffff80821115612ad9575f80fd5b818501915085601f830112612aec575f80fd5b8151612afa6120ac82612031565b81815260059190911b83018401908481019088831115612b18575f80fd5b8585015b83811015612b4e57805185811115612b32575f80fd5b612b408b89838a01016125d8565b845250918601918601612b1c565b5098975050505050505050565b5f60208284031215612b6b575f80fd5b815161114381612054565b5f60208083018184528085518083526040925060408601915060408160051b8701018488015f5b83811015612c0257603f19898403018552815160606001600160a01b03825116855288820151818a870152612bd4828701826122f9565b91505087820151915084810388860152612bee8183611e6f565b968901969450505090860190600101612b9d565b509098975050505050505050565b6001600160a01b038616815260a060208201525f612c3160a08301876122f9565b8281036040840152612c438187611e6f565b90506001600160e01b0319851660608401528281036080840152612c678185611e6f565b98975050505050505050565b602081526001600160a01b0382511660208201525f60208301516001600160e01b031980821660408501526040850151915060c06060850152612cb960e0850183611e6f565b91508060608601511660808501528060808601511660a08501525060a0840151601f198483030160c085015261199f8282611e6f565b606081525f612d016060830186611e6f565b8281036020840152612d138186611e6f565b905082810360408401526126d68185611e6f565b5f805f805f60a08688031215612d3b575f80fd5b8551612d4681612054565b602087015190955067ffffffffffffffff80821115612d63575f80fd5b612d6f89838a01612733565b95506040880151915080821115612d84575f80fd5b612d9089838a016125d8565b945060608801519150612da282611d97565b608088015191935080821115612db6575f80fd5b50612dc3888289016125d8565b915050929550929590935056fea26469706673582212201aac98bc4a75beb832065fea83727dc5f1bb2e8ccad0c02cee5e3c642e5ee10164736f6c63430008190033",
  "linkReferences": {},
  "deployedLinkReferences": {},
  "immutableReferences": {
    "667": [
      {
        "length": 32,
        "start": 5151
      }
    ],
    "24998": [
      {
        "length": 32,
        "start": 512
      },
      {
        "length": 32,
        "start": 1599
      }
    ],
    "25001": [
      {
        "length": 32,
        "start": 343
      },
      {
        "length": 32,
        "start": 1677
      }
    ]
  },
  "inputSourceName": "project/src/dns/DNSAliasResolver.sol",
  "devdoc": {
    "errors": {
      "DNSDecodingFailed(bytes)": [
        {
          "details": "The DNS-encoded name is malformed.      Error selector: `0xba4adc23`"
        }
      ],
      "DNSEncodingFailed(string)": [
        {
          "details": "A label of the ENS name has an invalid size.      Error selector: `0x9a4c3e3b`"
        }
      ],
      "InvalidBatchGatewayResponse()": [
        {
          "details": "Error selector: `0x4a5c31ea`"
        }
      ],
      "NoSuffixMatch(bytes,bytes)": [
        {
          "params": {
            "name": "The DNS-encoded name.",
            "suffix": "THe DNS-encoded suffix."
          }
        }
      ],
      "OffchainLookup(address,string[],bytes,bytes4,bytes)": [
        {
          "details": "https://eips.ethereum.org/EIPS/eip-3668 Error selector: `0x556f1830`"
        }
      ],
      "OffsetOutOfBoundsError(uint256,uint256)": [
        {
          "details": "`offset` was beyond `length`.       Error selector: `0x8a3c1cfb`"
        }
      ],
      "UnreachableName(bytes)": [
        {
          "details": "`name` cannot be resolved.      Error selector: `0x5fe9a5df`",
          "params": {
            "name": "The DNS-encoded ENS name."
          }
        }
      ]
    },
    "kind": "dev",
    "methods": {
      "callResolver(address,bytes,bytes,bool,bytes,string[])": {
        "details": "Reverts `UnreachableName` if resolver is not a contract.      This function never returns normally.      The return type is necessary to define the result of the callback.      Call this function externally or with `ccipRead()` to intercept the response.",
        "params": {
          "batchGateways": "The batch gateway URLs.",
          "context": "The context for `IExtendedDNSResolver`.",
          "data": "The calldata for the resolution.",
          "hasContext": "True if `IExtendedDNSResolver` should be considered.",
          "name": "The DNS-encoded ENS name.",
          "resolver": "The resolver to call."
        }
      },
      "ccipBatch(((address,bytes,bytes,uint256)[],string[]))": {
        "details": "Use `ccipRead()` to call this function with a batch.      The callback response will be `abi.encode(batch)`."
      },
      "ccipBatchCallback(bytes,bytes)": {
        "details": "CCIP-Read callback for `ccipBatch()`.      Updates `batch` using the batch gateway response. Reverts again if not \"done\".",
        "params": {
          "extraData": "The contextual data passed from `ccipBatch()`.",
          "response": "The response from the batch gateway."
        },
        "returns": {
          "batch": "The batch where every lookup is \"done\"."
        }
      },
      "ccipReadCallback(bytes,bytes)": {
        "details": "CCIP-Read callback for `ccipRead()`.The return type of this function is polymorphic depending on the caller.",
        "params": {
          "extraData": "The contextual data passed from `ccipRead()`.",
          "response": "The response from offchain."
        }
      },
      "resolve(bytes,bytes,bytes)": {
        "details": "Apply rewrite rule to name and resolve it instead. The operating assumption is that this contract is never called directly, and instead only invoked by DNSTLDResolver in response to an TXT record."
      },
      "resolveBatchCallback(bytes,bytes)": {
        "details": "CCIP-Read callback for `callResolver()` from batch calling a resolver.",
        "params": {
          "extraData": "The abi-encoded properties of the call.",
          "response": "The response data from the batch gateway."
        },
        "returns": {
          "_0": "result The response from the resolver."
        }
      },
      "resolveDirectImmediateCallback(bytes,bytes)": {
        "details": "CCIP-Read callback for `callResolver()` from direct calling an immediate resolver."
      },
      "rewriteNameWithContext(bytes,bytes)": {
        "details": "Modify `name` using rewrite rule in `context`.",
        "params": {
          "context": "The rewrite rule.",
          "name": "The DNS-encoded name."
        },
        "returns": {
          "_0": "The modified DNS-encoded name."
        }
      },
      "supportsFeature(bytes4)": {
        "params": {
          "featureId": "The feature identifier."
        },
        "returns": {
          "_0": "`true` if the feature is supported by the contract."
        }
      },
      "supportsInterface(bytes4)": {
        "details": "See {IERC165-supportsInterface}."
      }
    },
    "version": 1
  },
  "evm": {
    "gasEstimates": {
      "creation": {
        "codeDepositCost": "2356400",
        "executionCost": "infinite",
        "totalCost": "infinite"
      },
      "external": {
        "BATCH_GATEWAY_PROVIDER()": "infinite",
        "ROOT_REGISTRY()": "infinite",
        "callResolver(address,bytes,bytes,bool,bytes,string[])": "infinite",
        "ccipBatch(((address,bytes,bytes,uint256)[],string[]))": "infinite",
        "ccipBatchCallback(bytes,bytes)": "infinite",
        "ccipReadCallback(bytes,bytes)": "infinite",
        "resolve(bytes,bytes,bytes)": "infinite",
        "resolveBatchCallback(bytes,bytes)": "infinite",
        "resolveDirectImmediateCallback(bytes,bytes)": "infinite",
        "rewriteNameWithContext(bytes,bytes)": "infinite",
        "supportsFeature(bytes4)": "441",
        "supportsInterface(bytes4)": "531"
      }
    }
  },
  "storageLayout": {
    "storage": [],
    "types": null
  },
  "userdoc": {
    "errors": {
      "InvalidBatchGatewayResponse()": [
        {
          "notice": "The batch gateway supplied an incorrect number of responses."
        }
      ],
      "NoSuffixMatch(bytes,bytes)": [
        {
          "notice": "The `name` did not end with `suffix`."
        }
      ]
    },
    "kind": "user",
    "methods": {
      "callResolver(address,bytes,bytes,bool,bytes,string[])": {
        "notice": "Perform forward resolution. Call this function with `ccipRead()` to intercept the response. Supports extended (`IExtendedDNSResolver` and `IExtendedResolver`) and immediate resolvers. - If extended, the calldata is not `multicall()`, and the resolver supports ENSIP-22 features,   the call is performed directly without the batch gateway. - If extended, the calldata is `multicall()`, and the resolver supports `eth.ens.resolver.extended.multicall` feature,   the call is performed directly without the batch gateway. - Otherwise, the call is performed with the batch gateway.   The batch gateway is only invoked if any call reverts `OffchainLookup`.   If the calldata is `multicall()` it is disassembled, called separately, and reassembled."
      },
      "supportsFeature(bytes4)": {
        "notice": "Check if a feature is supported."
      }
    },
    "notice": "Gasless DNSSEC resolver that forwards to another name. Format: `ENS1 <this> <context>` 1. Rewrite: `context = <oldSuffix> <newSuffix>`    eg. `*.nick.com` + `ENS1 <this> com base.eth` &rarr; `*.nick.base.eth` 2. Replace: `context = <newName>`    eg. `notdot.net` + `ENS1 <this> nick.eth` &rarr; `nick.eth`",
    "version": 1
  },
  "argsData": "0x000000000000000000000000610178da211fef7d417bc0e6fed39f05609ad788000000000000000000000000dc64a140aa3e981100a9beca4e685f962f0cf6c9",
  "transaction": {
    "hash": "0xff9a4aaa3beefd0c613942cae954a4fe3828ee5e03449d587d9cf90ded1990af",
    "nonce": "0xb",
    "origin": "0xf39fd6e51aad88f6f4ce6ab8827279cfffb92266"
  }
}