{
  "address": "0x922d6956c99e12dfeb3224dea977d0939758a1fe",
  "abi": [
    {
      "inputs": [
        {
          "internalType": "address",
          "name": "_previousRegistrar",
          "type": "address"
        },
        {
          "internalType": "address",
          "name": "_resolver",
          "type": "address"
        },
        {
          "internalType": "contract DNSSEC",
          "name": "_dnssec",
          "type": "address"
        },
        {
          "internalType": "contract PublicSuffixList",
          "name": "_suffixes",
          "type": "address"
        },
        {
          "internalType": "contract ENS",
          "name": "_ens",
          "type": "address"
        }
      ],
      "stateMutability": "nonpayable",
      "type": "constructor"
    },
    {
      "inputs": [
        {
          "internalType": "bytes",
          "name": "name",
          "type": "bytes"
        }
      ],
      "name": "InvalidPublicSuffix",
      "type": "error"
    },
    {
      "inputs": [],
      "name": "NoOwnerRecordFound",
      "type": "error"
    },
    {
      "inputs": [
        {
          "internalType": "uint256",
          "name": "offset",
          "type": "uint256"
        },
        {
          "internalType": "uint256",
          "name": "length",
          "type": "uint256"
        }
      ],
      "name": "OffsetOutOfBoundsError",
      "type": "error"
    },
    {
      "inputs": [
        {
          "internalType": "address",
          "name": "caller",
          "type": "address"
        },
        {
          "internalType": "address",
          "name": "owner",
          "type": "address"
        }
      ],
      "name": "PermissionDenied",
      "type": "error"
    },
    {
      "inputs": [],
      "name": "PreconditionNotMet",
      "type": "error"
    },
    {
      "inputs": [],
      "name": "StaleProof",
      "type": "error"
    },
    {
      "anonymous": false,
      "inputs": [
        {
          "indexed": true,
          "internalType": "bytes32",
          "name": "node",
          "type": "bytes32"
        },
        {
          "indexed": true,
          "internalType": "address",
          "name": "owner",
          "type": "address"
        },
        {
          "indexed": false,
          "internalType": "bytes",
          "name": "dnsname",
          "type": "bytes"
        },
        {
          "indexed": false,
          "internalType": "uint32",
          "name": "inception",
          "type": "uint32"
        }
      ],
      "name": "Claim",
      "type": "event"
    },
    {
      "anonymous": false,
      "inputs": [
        {
          "indexed": false,
          "internalType": "address",
          "name": "suffixes",
          "type": "address"
        }
      ],
      "name": "NewPublicSuffixList",
      "type": "event"
    },
    {
      "inputs": [
        {
          "internalType": "bytes",
          "name": "domain",
          "type": "bytes"
        }
      ],
      "name": "enableNode",
      "outputs": [
        {
          "internalType": "bytes32",
          "name": "node",
          "type": "bytes32"
        }
      ],
      "stateMutability": "nonpayable",
      "type": "function"
    },
    {
      "inputs": [],
      "name": "ens",
      "outputs": [
        {
          "internalType": "contract ENS",
          "name": "",
          "type": "address"
        }
      ],
      "stateMutability": "view",
      "type": "function"
    },
    {
      "inputs": [
        {
          "internalType": "bytes32",
          "name": "",
          "type": "bytes32"
        }
      ],
      "name": "inceptions",
      "outputs": [
        {
          "internalType": "uint32",
          "name": "",
          "type": "uint32"
        }
      ],
      "stateMutability": "view",
      "type": "function"
    },
    {
      "inputs": [],
      "name": "oracle",
      "outputs": [
        {
          "internalType": "contract DNSSEC",
          "name": "",
          "type": "address"
        }
      ],
      "stateMutability": "view",
      "type": "function"
    },
    {
      "inputs": [],
      "name": "previousRegistrar",
      "outputs": [
        {
          "internalType": "address",
          "name": "",
          "type": "address"
        }
      ],
      "stateMutability": "view",
      "type": "function"
    },
    {
      "inputs": [
        {
          "internalType": "bytes",
          "name": "name",
          "type": "bytes"
        },
        {
          "components": [
            {
              "internalType": "bytes",
              "name": "rrset",
              "type": "bytes"
            },
            {
              "internalType": "bytes",
              "name": "sig",
              "type": "bytes"
            }
          ],
          "internalType": "struct DNSSEC.RRSetWithSignature[]",
          "name": "input",
          "type": "tuple[]"
        }
      ],
      "name": "proveAndClaim",
      "outputs": [],
      "stateMutability": "nonpayable",
      "type": "function"
    },
    {
      "inputs": [
        {
          "internalType": "bytes",
          "name": "name",
          "type": "bytes"
        },
        {
          "components": [
            {
              "internalType": "bytes",
              "name": "rrset",
              "type": "bytes"
            },
            {
              "internalType": "bytes",
              "name": "sig",
              "type": "bytes"
            }
          ],
          "internalType": "struct DNSSEC.RRSetWithSignature[]",
          "name": "input",
          "type": "tuple[]"
        },
        {
          "internalType": "address",
          "name": "resolver",
          "type": "address"
        },
        {
          "internalType": "address",
          "name": "addr",
          "type": "address"
        }
      ],
      "name": "proveAndClaimWithResolver",
      "outputs": [],
      "stateMutability": "nonpayable",
      "type": "function"
    },
    {
      "inputs": [],
      "name": "resolver",
      "outputs": [
        {
          "internalType": "address",
          "name": "",
          "type": "address"
        }
      ],
      "stateMutability": "view",
      "type": "function"
    },
    {
      "inputs": [
        {
          "internalType": "contract PublicSuffixList",
          "name": "_suffixes",
          "type": "address"
        }
      ],
      "name": "setPublicSuffixList",
      "outputs": [],
      "stateMutability": "nonpayable",
      "type": "function"
    },
    {
      "inputs": [],
      "name": "suffixes",
      "outputs": [
        {
          "internalType": "contract PublicSuffixList",
          "name": "",
          "type": "address"
        }
      ],
      "stateMutability": "view",
      "type": "function"
    },
    {
      "inputs": [
        {
          "internalType": "bytes4",
          "name": "interfaceID",
          "type": "bytes4"
        }
      ],
      "name": "supportsInterface",
      "outputs": [
        {
          "internalType": "bool",
          "name": "",
          "type": "bool"
        }
      ],
      "stateMutability": "pure",
      "type": "function"
    }
  ],
  "contractName": "DNSRegistrar",
  "sourceName": "lib/ens-contracts/contracts/dnsregistrar/DNSRegistrar.sol",
  "bytecode": "0x610100604052348015610010575f80fd5b5060405161215638038061215683398101604081905261002f916100be565b6001600160a01b0385811660c05284811660e05283811660a0525f80546001600160a01b03191691841691821790556040519081527f9176b7f47e4504df5e5516c99d90d82ac7cbd49cc77e7f22ba2ac2f2e3a3eba89060200160405180910390a16001600160a01b03166080525061012f92505050565b6001600160a01b03811681146100bb575f80fd5b50565b5f805f805f60a086880312156100d2575f80fd5b85516100dd816100a7565b60208701519095506100ee816100a7565b60408701519094506100ff816100a7565b6060870151909350610110816100a7565b6080870151909250610121816100a7565b809150509295509295909350565b60805160a05160c05160e051611fa86101ae5f395f818160f501528181610c9a0152610d4c01525f818161022a0152610b2701525f818161020301526107d701525f81816101bb0152818161038b015281816104e00152818161069201528181610aa901528181610b7d01528181610cc20152610d7a0152611fa85ff3fe608060405234801561000f575f80fd5b50600436106100c4575f3560e01c806329d566301161007d5780636f951221116100585780636f951221146101dd5780637dc0d1d0146101fe578063ab14ec5914610225575f80fd5b806329d566301461019157806330349ebe146101a45780633f15457f146101b6575f80fd5b806306963218116100ad578063069632181461012f5780631ecfc4111461014457806325916d4114610157575f80fd5b806301ffc9a7146100c857806304f3bcec146100f0575b5f80fd5b6100db6100d636600461195c565b61024c565b60405190151581526020015b60405180910390f35b6101177f000000000000000000000000000000000000000000000000000000000000000081565b6040516001600160a01b0390911681526020016100e7565b61014261013d366004611b88565b6102e4565b005b610142610152366004611c0c565b6104c8565b61017c610165366004611c27565b60016020525f908152604090205463ffffffff1681565b60405163ffffffff90911681526020016100e7565b61014261019f366004611c3e565b610637565b5f54610117906001600160a01b031681565b6101177f000000000000000000000000000000000000000000000000000000000000000081565b6101f06101eb366004611c9e565b610706565b6040519081526020016100e7565b6101177f000000000000000000000000000000000000000000000000000000000000000081565b6101177f000000000000000000000000000000000000000000000000000000000000000081565b5f7fffffffff0000000000000000000000000000000000000000000000000000000082167f01ffc9a70000000000000000000000000000000000000000000000000000000014806102de57507fffffffff0000000000000000000000000000000000000000000000000000000082167f2f43542800000000000000000000000000000000000000000000000000000000145b92915050565b5f805f6102f187876107d0565b91945092509050336001600160a01b03821614610350576040517fe03f60240000000000000000000000000000000000000000000000000000000081523360048201526001600160a01b03821660248201526044015b60405180910390fd5b6040516305ef2c7f60e41b815260048101849052602481018390526001600160a01b03828116604483015286811660648301525f60848301527f00000000000000000000000000000000000000000000000000000000000000001690635ef2c7f09060a4015f604051808303815f87803b1580156103cc575f80fd5b505af11580156103de573d5f803e3d5ffd5b505050506001600160a01b038416156104bf576001600160a01b03851661041857604051633c584f1360e21b815260040160405180910390fd5b60408051602081018590529081018390525f9060600160408051808303601f190181529082905280516020909101207fd5fa2b00000000000000000000000000000000000000000000000000000000008252600482018190526001600160a01b03878116602484015290925087169063d5fa2b00906044015f604051808303815f87803b1580156104a7575f80fd5b505af11580156104b9573d5f803e3d5ffd5b50505050505b50505050505050565b6040516302571be360e01b81525f60048201819052907f00000000000000000000000000000000000000000000000000000000000000006001600160a01b0316906302571be390602401602060405180830381865afa15801561052d573d5f803e3d5ffd5b505050506040513d601f19601f820116820180604052508101906105519190611cd0565b90505f816001600160a01b0316638da5cb5b6040518163ffffffff1660e01b8152600401602060405180830381865afa158015610590573d5f803e3d5ffd5b505050506040513d601f19601f820116820180604052508101906105b49190611cd0565b9050336001600160a01b038216146105ca575f80fd5b5f80547fffffffffffffffffffffffff0000000000000000000000000000000000000000166001600160a01b0385169081179091556040519081527f9176b7f47e4504df5e5516c99d90d82ac7cbd49cc77e7f22ba2ac2f2e3a3eba89060200160405180910390a1505050565b5f805f61064485856107d0565b6040517f06ab592300000000000000000000000000000000000000000000000000000000815260048101849052602481018390526001600160a01b03828116604483015293965091945092507f0000000000000000000000000000000000000000000000000000000000000000909116906306ab5923906064016020604051808303815f875af11580156106da573d5f803e3d5ffd5b505050506040513d601f19601f820116820180604052508101906106fe9190611ceb565b505050505050565b5f80546040517f4f89059e0000000000000000000000000000000000000000000000000000000081526001600160a01b0390911690634f89059e9061074f908590600401611d30565b602060405180830381865afa15801561076a573d5f803e3d5ffd5b505050506040513d601f19601f8201168201806040525081019061078e9190611d42565b6107c657816040517f396e24b80000000000000000000000000000000000000000000000000000000081526004016103479190611d30565b6102de825f610a01565b5f805f805f7f00000000000000000000000000000000000000000000000000000000000000006001600160a01b031663bdf95fef876040518263ffffffff1660e01b81526004016108219190611d61565b5f60405180830381865afa15801561083b573d5f803e3d5ffd5b505050506040513d5f823e601f3d908101601f191682016040526108629190810190611de6565b90925090505f6108728882610e09565b60ff16905061088388600183610e40565b94505f6108b5610894836001611e8c565b6001848c516108a39190611e9f565b6108ad9190611e9f565b8b9190610e59565b90506108c081610706565b96505f87876040516020016108df929190918252602082015260400190565b60408051808303601f1901815291815281516020928301205f81815260019093529082205490925063ffffffff16850360030b121561094a576040517f2dd6a7af00000000000000000000000000000000000000000000000000000000815260040160405180910390fd5b5f818152600160205260408120805463ffffffff191663ffffffff87161790556109748b87610eb5565b9097509050806109b0576040517f6260f6f800000000000000000000000000000000000000000000000000000000815260040160405180910390fd5b866001600160a01b0316827f87db02a0e483e2818060eddcbb3488ce44e35aff49a70d92c2aa6c8046cf01e28d886040516109ec929190611eb2565b60405180910390a35050505050509250925092565b5f80610a0d8484610e09565b60ff169050805f03610a2257505f90506102de565b5f610a4185610a318487611e8c565b610a3c906001611e8c565b610a01565b90505f610a5a610a52866001611e8c565b879085610e40565b604080516020810185905290810182905290915060600160408051601f198184030181529082905280516020909101206302571be360e01b82526004820181905294505f906001600160a01b037f000000000000000000000000000000000000000000000000000000000000000016906302571be390602401602060405180830381865afa158015610aee573d5f803e3d5ffd5b505050506040513d601f19601f82011682018060405250810190610b129190611cd0565b90506001600160a01b0381161580610b5b57507f00000000000000000000000000000000000000000000000000000000000000006001600160a01b0316816001600160a01b0316145b15610dd65782610d21576040516302571be360e01b81525f60048201819052907f00000000000000000000000000000000000000000000000000000000000000006001600160a01b0316906302571be390602401602060405180830381865afa158015610bca573d5f803e3d5ffd5b505050506040513d601f19601f82011682018060405250810190610bee9190611cd0565b6040517f8cb8ecec000000000000000000000000000000000000000000000000000000008152600481018590523060248201529091506001600160a01b03821690638cb8ecec906044015f604051808303815f87803b158015610c4f575f80fd5b505af1158015610c61573d5f803e3d5ffd5b50506040517f1896f70a000000000000000000000000000000000000000000000000000000008152600481018990526001600160a01b037f0000000000000000000000000000000000000000000000000000000000000000811660248301527f0000000000000000000000000000000000000000000000000000000000000000169250631896f70a91506044015f604051808303815f87803b158015610d05575f80fd5b505af1158015610d17573d5f803e3d5ffd5b5050505050610dff565b6040516305ef2c7f60e41b815260048101849052602481018390523060448201526001600160a01b037f0000000000000000000000000000000000000000000000000000000000000000811660648301525f60848301527f00000000000000000000000000000000000000000000000000000000000000001690635ef2c7f09060a4015f604051808303815f87803b158015610dbb575f80fd5b505af1158015610dcd573d5f803e3d5ffd5b50505050610dff565b6001600160a01b0381163014610dff57604051633c584f1360e21b815260040160405180910390fd5b5050505092915050565b5f610e1e83610e19846001611e8c565b610fbd565b828281518110610e3057610e30611ed9565b016020015160f81c905092915050565b5f610e4f84610e198486611e8c565b5091016020012090565b60608167ffffffffffffffff811115610e7457610e7461199b565b6040519080825280601f01601f191660200182016040528015610e9e576020820181803683370190505b509050610eae8484835f86611009565b9392505050565b5f80610ed36040518060400160405280606081526020015f81525090565b610eeb85516005610ee49190611e8c565b8290611041565b5060408051808201909152600581527f045f656e730000000000000000000000000000000000000000000000000000006020820152610f2b9082906110b5565b50610f3681866110b5565b505f610f4285826110d5565b90505b80515160208201511015610fad578151610f6890610f6283611130565b90611151565b5f03610f9f575f80610f83878460a001518560c0015161129e565b925090508115610f9c57945060019350610fb692505050565b50505b610fa88161130d565b610f45565b505f8092509250505b9250929050565b81518111156110055781516040517f8a3c1cfb000000000000000000000000000000000000000000000000000000008152610347918391600401918252602082015260400190565b5050565b61101785610e198387611e8c565b61102583610e198385611e8c565b61103a826020850101856020880101836113f2565b5050505050565b60408051808201909152606081525f6020820152611060602083611eed565b1561108857611070602083611eed565b61107b906020611e9f565b6110859083611e8c565b91505b60208084018390526040518085525f81529081840101818110156110aa575f80fd5b604052509192915050565b60408051808201909152606081525f6020820152610eae8383845161143b565b61111d6040518060e00160405280606081526020015f81526020015f61ffff1681526020015f61ffff1681526020015f63ffffffff1681526020015f81526020015f81525090565b82815260c081018290526102de8161130d565b602081015181516060916102de91611148908261150c565b84519190610e59565b5f61115c838361156b565b1561116857505f6102de565b5f805f805f611177885f61158f565b90505f611184885f61158f565b90505b808211156111b05785935061119c89876115e9565b9550816111a881611f0c565b925050611187565b818111156111d9578492506111c588866115e9565b9450806111d181611f0c565b9150506111b0565b5f821180156111f157506111ef89878a8861160c565b155b156112265785935061120389876115e9565b955084925061121288866115e9565b945061121f600183611e9f565b91506111d9565b855f0361123c575f1996505050505050506102de565b845f0361125257600196505050505050506102de565b611291611260856001611e8c565b61126a8b87610e09565b60ff168a611279876001611e8c565b6112838d89610e09565b8e949392919060ff16611647565b9998505050505050505050565b5f805b828410156112ff575f6112b48686610e09565b60ff1690506112c4600186611e8c565b94505f806112d3888885611721565b9250905081156112eb57935060019250611305915050565b6112f58388611e8c565b96505050506112a1565b505f9050805b935093915050565b60c081015160208201819052815151116113245750565b5f611336825f0151836020015161150c565b82602001516113459190611e8c565b82519091506113549082611773565b61ffff166040830152611368600282611e8c565b82519091506113779082611773565b61ffff16606083015261138b600282611e8c565b825190915061139a908261178f565b63ffffffff1660808301526113b0600482611e8c565b82519091505f906113c19083611773565b61ffff1690506113d2600283611e8c565b60a0840181905291506113e58183611e8c565b60c0909301929092525050565b5b601f811115611413578151835260209283019290910190601f19016113f3565b801561143657815183516001602084900360031b1b5f1901801990921691161783525b505050565b60408051808201909152606081525f6020820152825182111561145c575f80fd5b8351515f61146a8483611e8c565b9050856020015181111561148c5761148c86611487836002611f21565b6117ab565b85518051838201602001915f91808511156114a5578482525b505050602086015b602086106114e557805182526114c4602083611e8c565b91506114d1602082611e8c565b90506114de602087611e9f565b95506114ad565b5181515f1960208890036101000a0190811690199190911617905250849150509392505050565b5f815b8351811061151f5761151f611f38565b5f61152a8583610e09565b60ff16905061153a816001611e8c565b6115449083611e8c565b9150805f036115535750611559565b5061150f565b6115638382611e9f565b949350505050565b5f81518351148015610eae5750508051602091820120825192909101919091201490565b5f805b835183106115a2576115a2611f38565b5f6115ad8585610e09565b60ff1690506115bd816001611e8c565b6115c79085611e8c565b9350805f036115d65750610eae565b6115e1600183611e8c565b915050611592565b5f6115f48383610e09565b60ff16611602836001611e8c565b610eae9190611e8c565b5f6116178585610fbd565b6116218383610fbd565b61162f838384865103610e40565b61163d868687895103610e40565b1495945050505050565b5f61165687610e198789611e8c565b61166484610e198486611e8c565b6020868801810190848601015f84881061167e5784611680565b875b90505f5b81811015611704575f6116978286015190565b90505f6116a48386015190565b90508082146116fa5782840360208110156116c85760200360031b91821c9190811c905b818310156116e0575f19975050505050505050611717565b818311156116f8576001975050505050505050611717565b505b5050602001611684565b5050505081856117149190611f4c565b90505b9695505050505050565b5f8061172d858561178f565b63ffffffff1663613d30781461174757505f905080611305565b611767611755856004611e8c565b61175f8587611e8c565b8791906117c8565b91509150935093915050565b5f61178383610e19846002611e8c565b50016020015160f01c90565b5f61179f83610e19846004611e8c565b50016020015160e01c90565b81516117b78383611041565b506117c283826110b5565b50505050565b5f80826117d6856028611e8c565b146117e557505f905080611305565b5f6117f18686866117fe565b9097909650945050505050565b5f808383101561181257505f905080611305565b5f61181d8585611e9f565b9050604081118061182e5750855184115b1561183f57505f9150819050611305565b858501602001611850815f84611870565b92506001820160011c6020035f518160031b1c9450505050935093915050565b5f6118ce565b811a5f602f8211603a831016156118925750602f1981016102de565b604782106040831116156118ab575060361981016102de565b606782106060831116156118c4575060561981016102de565b5061010092915050565b50600183820182821615611908576118e75f8651611876565b80855360018601955060018501945060ff811115611906575f92508195505b505b8085101561195457845161191d600182611876565b6119275f83611876565b60041b17905060ff81111561193f575f925050611954565b80855350600285019450600184019350611908565b509392505050565b5f6020828403121561196c575f80fd5b81357fffffffff0000000000000000000000000000000000000000000000000000000081168114610eae575f80fd5b634e487b7160e01b5f52604160045260245ffd5b6040805190810167ffffffffffffffff811182821017156119d2576119d261199b565b60405290565b604051601f8201601f1916810167ffffffffffffffff81118282101715611a0157611a0161199b565b604052919050565b5f67ffffffffffffffff821115611a2257611a2261199b565b50601f01601f191660200190565b5f82601f830112611a3f575f80fd5b8135611a52611a4d82611a09565b6119d8565b818152846020838601011115611a66575f80fd5b816020850160208301375f918101602001919091529392505050565b5f82601f830112611a91575f80fd5b8135602067ffffffffffffffff80831115611aae57611aae61199b565b8260051b611abd8382016119d8565b9384528581018301938381019088861115611ad6575f80fd5b84880192505b85831015611b6557823584811115611af2575f80fd5b88016040818b03601f1901811315611b08575f80fd5b611b106119af565b8783013587811115611b20575f80fd5b611b2e8d8a83870101611a30565b825250908201359086821115611b42575f80fd5b611b508c8984860101611a30565b81890152845250509184019190840190611adc565b98975050505050505050565b6001600160a01b0381168114611b85575f80fd5b50565b5f805f8060808587031215611b9b575f80fd5b843567ffffffffffffffff80821115611bb2575f80fd5b611bbe88838901611a30565b95506020870135915080821115611bd3575f80fd5b50611be087828801611a82565b9350506040850135611bf181611b71565b91506060850135611c0181611b71565b939692955090935050565b5f60208284031215611c1c575f80fd5b8135610eae81611b71565b5f60208284031215611c37575f80fd5b5035919050565b5f8060408385031215611c4f575f80fd5b823567ffffffffffffffff80821115611c66575f80fd5b611c7286838701611a30565b93506020850135915080821115611c87575f80fd5b50611c9485828601611a82565b9150509250929050565b5f60208284031215611cae575f80fd5b813567ffffffffffffffff811115611cc4575f80fd5b61156384828501611a30565b5f60208284031215611ce0575f80fd5b8151610eae81611b71565b5f60208284031215611cfb575f80fd5b5051919050565b5f81518084528060208401602086015e5f602082860101526020601f19601f83011685010191505092915050565b602081525f610eae6020830184611d02565b5f60208284031215611d52575f80fd5b81518015158114610eae575f80fd5b5f60208083018184528085518083526040925060408601915060408160051b8701018488015f5b83811015611dd857888303603f1901855281518051878552611dac88860182611d02565b91890151858303868b0152919050611dc48183611d02565b968901969450505090860190600101611d88565b509098975050505050505050565b5f8060408385031215611df7575f80fd5b825167ffffffffffffffff811115611e0d575f80fd5b8301601f81018513611e1d575f80fd5b8051611e2b611a4d82611a09565b818152866020838501011115611e3f575f80fd5b8160208401602083015e5f60208383010152809450505050602083015163ffffffff81168114611e6d575f80fd5b809150509250929050565b634e487b7160e01b5f52601160045260245ffd5b808201808211156102de576102de611e78565b818103818111156102de576102de611e78565b604081525f611ec46040830185611d02565b905063ffffffff831660208301529392505050565b634e487b7160e01b5f52603260045260245ffd5b5f82611f0757634e487b7160e01b5f52601260045260245ffd5b500690565b5f81611f1a57611f1a611e78565b505f190190565b80820281158282048414176102de576102de611e78565b634e487b7160e01b5f52600160045260245ffd5b8181035f831280158383131683831282161715611f6b57611f6b611e78565b509291505056fea2646970667358221220d1bb167004eae895651b8b0524f66ac0c2fc5f3749b6dc087baf017c84d7233d64736f6c63430008190033",
  "linkReferences": {},
  "deployedLinkReferences": {},
  "immutableReferences": {
    "1899": [
      {
        "length": 32,
        "start": 443
      },
      {
        "length": 32,
        "start": 907
      },
      {
        "length": 32,
        "start": 1248
      },
      {
        "length": 32,
        "start": 1682
      },
      {
        "length": 32,
        "start": 2729
      },
      {
        "length": 32,
        "start": 2941
      },
      {
        "length": 32,
        "start": 3266
      },
      {
        "length": 32,
        "start": 3450
      }
    ],
    "1902": [
      {
        "length": 32,
        "start": 515
      },
      {
        "length": 32,
        "start": 2007
      }
    ],
    "1907": [
      {
        "length": 32,
        "start": 554
      },
      {
        "length": 32,
        "start": 2855
      }
    ],
    "1909": [
      {
        "length": 32,
        "start": 245
      },
      {
        "length": 32,
        "start": 3226
      },
      {
        "length": 32,
        "start": 3404
      }
    ]
  },
  "inputSourceName": "project/lib/ens-contracts/contracts/dnsregistrar/DNSRegistrar.sol",
  "devdoc": {
    "details": "An ENS registrar that allows the owner of a DNS name to claim the      corresponding name in ENS.",
    "errors": {
      "OffsetOutOfBoundsError(uint256,uint256)": [
        {
          "details": "`offset` was beyond `length`.       Error selector: `0x8a3c1cfb`"
        }
      ]
    },
    "kind": "dev",
    "methods": {
      "proveAndClaim(bytes,(bytes,bytes)[])": {
        "details": "Submits proofs to the DNSSEC oracle, then claims a name using those proofs.",
        "params": {
          "input": "A chain of signed DNS RRSETs ending with a text record.",
          "name": "The name to claim, in DNS wire format."
        }
      }
    },
    "version": 1
  },
  "evm": {
    "gasEstimates": {
      "creation": {
        "codeDepositCost": "1620800",
        "executionCost": "infinite",
        "totalCost": "infinite"
      },
      "external": {
        "enableNode(bytes)": "infinite",
        "ens()": "infinite",
        "inceptions(bytes32)": "2517",
        "oracle()": "infinite",
        "previousRegistrar()": "infinite",
        "proveAndClaim(bytes,(bytes,bytes)[])": "infinite",
        "proveAndClaimWithResolver(bytes,(bytes,bytes)[],address,address)": "infinite",
        "resolver()": "infinite",
        "setPublicSuffixList(address)": "infinite",
        "suffixes()": "2380",
        "supportsInterface(bytes4)": "390"
      },
      "internal": {
        "_claim(bytes memory,struct DNSSEC.RRSetWithSignature memory[] memory)": "infinite",
        "_enableNode(bytes memory,uint256)": "infinite"
      }
    }
  },
  "storageLayout": {
    "storage": [
      {
        "astId": 1905,
        "contract": "project/lib/ens-contracts/contracts/dnsregistrar/DNSRegistrar.sol:DNSRegistrar",
        "label": "suffixes",
        "offset": 0,
        "slot": "0",
        "type": "t_contract(PublicSuffixList)3375"
      },
      {
        "astId": 1913,
        "contract": "project/lib/ens-contracts/contracts/dnsregistrar/DNSRegistrar.sol:DNSRegistrar",
        "label": "inceptions",
        "offset": 0,
        "slot": "1",
        "type": "t_mapping(t_bytes32,t_uint32)"
      }
    ],
    "types": {
      "t_bytes32": {
        "encoding": "inplace",
        "label": "bytes32",
        "numberOfBytes": "32"
      },
      "t_contract(PublicSuffixList)3375": {
        "encoding": "inplace",
        "label": "contract PublicSuffixList",
        "numberOfBytes": "20"
      },
      "t_mapping(t_bytes32,t_uint32)": {
        "encoding": "mapping",
        "key": "t_bytes32",
        "label": "mapping(bytes32 => uint32)",
        "numberOfBytes": "32",
        "value": "t_uint32"
      },
      "t_uint32": {
        "encoding": "inplace",
        "label": "uint32",
        "numberOfBytes": "4"
      }
    }
  },
  "userdoc": {
    "kind": "user",
    "methods": {},
    "version": 1
  },
  "argsData": "0x0000000000000000000000000000000000000000000000000000000000000000000000000000000000000000a85233c63b9ee964add6f2cffe00fd84eb32338f0000000000000000000000009a9f2ccfde556a7e9ff0848998aa4a0cfd8863ae0000000000000000000000004a679253410272dd5232b3ff7cf5dbb88f295319000000000000000000000000cf7ed3acca5a467e9e704c703e8d87f634fb0fc9",
  "transaction": {
    "hash": "0xb16aa7ba1915b5c65d9d60f877300e0674d3016305328c7d1563102554e4abb2",
    "nonce": "0x40",
    "origin": "0xf39fd6e51aad88f6f4ce6ab8827279cfffb92266"
  }
}