{
  "address": "0x9a9f2ccfde556a7e9ff0848998aa4a0cfd8863ae",
  "abi": [
    {
      "inputs": [
        {
          "internalType": "bytes",
          "name": "_anchors",
          "type": "bytes"
        }
      ],
      "stateMutability": "nonpayable",
      "type": "constructor"
    },
    {
      "inputs": [
        {
          "internalType": "uint16",
          "name": "class",
          "type": "uint16"
        }
      ],
      "name": "InvalidClass",
      "type": "error"
    },
    {
      "inputs": [
        {
          "internalType": "bytes",
          "name": "name",
          "type": "bytes"
        },
        {
          "internalType": "uint256",
          "name": "labelsExpected",
          "type": "uint256"
        }
      ],
      "name": "InvalidLabelCount",
      "type": "error"
    },
    {
      "inputs": [
        {
          "internalType": "uint16",
          "name": "proofType",
          "type": "uint16"
        }
      ],
      "name": "InvalidProofType",
      "type": "error"
    },
    {
      "inputs": [],
      "name": "InvalidRRSet",
      "type": "error"
    },
    {
      "inputs": [
        {
          "internalType": "bytes",
          "name": "rrsetName",
          "type": "bytes"
        },
        {
          "internalType": "bytes",
          "name": "signerName",
          "type": "bytes"
        }
      ],
      "name": "InvalidSignerName",
      "type": "error"
    },
    {
      "inputs": [
        {
          "internalType": "bytes",
          "name": "signerName",
          "type": "bytes"
        }
      ],
      "name": "NoMatchingProof",
      "type": "error"
    },
    {
      "inputs": [
        {
          "internalType": "uint256",
          "name": "offset",
          "type": "uint256"
        },
        {
          "internalType": "uint256",
          "name": "length",
          "type": "uint256"
        }
      ],
      "name": "OffsetOutOfBoundsError",
      "type": "error"
    },
    {
      "inputs": [
        {
          "internalType": "bytes",
          "name": "signerName",
          "type": "bytes"
        },
        {
          "internalType": "bytes",
          "name": "proofName",
          "type": "bytes"
        }
      ],
      "name": "ProofNameMismatch",
      "type": "error"
    },
    {
      "inputs": [
        {
          "internalType": "uint32",
          "name": "expiration",
          "type": "uint32"
        },
        {
          "internalType": "uint32",
          "name": "now",
          "type": "uint32"
        }
      ],
      "name": "SignatureExpired",
      "type": "error"
    },
    {
      "inputs": [
        {
          "internalType": "uint32",
          "name": "inception",
          "type": "uint32"
        },
        {
          "internalType": "uint32",
          "name": "now",
          "type": "uint32"
        }
      ],
      "name": "SignatureNotValidYet",
      "type": "error"
    },
    {
      "inputs": [
        {
          "internalType": "uint16",
          "name": "rrsetType",
          "type": "uint16"
        },
        {
          "internalType": "uint16",
          "name": "sigType",
          "type": "uint16"
        }
      ],
      "name": "SignatureTypeMismatch",
      "type": "error"
    },
    {
      "anonymous": false,
      "inputs": [
        {
          "indexed": false,
          "internalType": "uint8",
          "name": "id",
          "type": "uint8"
        },
        {
          "indexed": false,
          "internalType": "address",
          "name": "addr",
          "type": "address"
        }
      ],
      "name": "AlgorithmUpdated",
      "type": "event"
    },
    {
      "anonymous": false,
      "inputs": [
        {
          "indexed": false,
          "internalType": "uint8",
          "name": "id",
          "type": "uint8"
        },
        {
          "indexed": false,
          "internalType": "address",
          "name": "addr",
          "type": "address"
        }
      ],
      "name": "DigestUpdated",
      "type": "event"
    },
    {
      "inputs": [
        {
          "internalType": "uint8",
          "name": "",
          "type": "uint8"
        }
      ],
      "name": "algorithms",
      "outputs": [
        {
          "internalType": "contract Algorithm",
          "name": "",
          "type": "address"
        }
      ],
      "stateMutability": "view",
      "type": "function"
    },
    {
      "inputs": [],
      "name": "anchors",
      "outputs": [
        {
          "internalType": "bytes",
          "name": "",
          "type": "bytes"
        }
      ],
      "stateMutability": "view",
      "type": "function"
    },
    {
      "inputs": [
        {
          "internalType": "uint8",
          "name": "",
          "type": "uint8"
        }
      ],
      "name": "digests",
      "outputs": [
        {
          "internalType": "contract Digest",
          "name": "",
          "type": "address"
        }
      ],
      "stateMutability": "view",
      "type": "function"
    },
    {
      "inputs": [],
      "name": "owner",
      "outputs": [
        {
          "internalType": "address",
          "name": "",
          "type": "address"
        }
      ],
      "stateMutability": "view",
      "type": "function"
    },
    {
      "inputs": [
        {
          "internalType": "uint8",
          "name": "id",
          "type": "uint8"
        },
        {
          "internalType": "contract Algorithm",
          "name": "algo",
          "type": "address"
        }
      ],
      "name": "setAlgorithm",
      "outputs": [],
      "stateMutability": "nonpayable",
      "type": "function"
    },
    {
      "inputs": [
        {
          "internalType": "uint8",
          "name": "id",
          "type": "uint8"
        },
        {
          "internalType": "contract Digest",
          "name": "digest",
          "type": "address"
        }
      ],
      "name": "setDigest",
      "outputs": [],
      "stateMutability": "nonpayable",
      "type": "function"
    },
    {
      "inputs": [
        {
          "internalType": "address",
          "name": "newOwner",
          "type": "address"
        }
      ],
      "name": "setOwner",
      "outputs": [],
      "stateMutability": "nonpayable",
      "type": "function"
    },
    {
      "inputs": [
        {
          "components": [
            {
              "internalType": "bytes",
              "name": "rrset",
              "type": "bytes"
            },
            {
              "internalType": "bytes",
              "name": "sig",
              "type": "bytes"
            }
          ],
          "internalType": "struct DNSSEC.RRSetWithSignature[]",
          "name": "input",
          "type": "tuple[]"
        },
        {
          "internalType": "uint256",
          "name": "now",
          "type": "uint256"
        }
      ],
      "name": "verifyRRSet",
      "outputs": [
        {
          "internalType": "bytes",
          "name": "rrs",
          "type": "bytes"
        },
        {
          "internalType": "uint32",
          "name": "inception",
          "type": "uint32"
        }
      ],
      "stateMutability": "view",
      "type": "function"
    },
    {
      "inputs": [
        {
          "components": [
            {
              "internalType": "bytes",
              "name": "rrset",
              "type": "bytes"
            },
            {
              "internalType": "bytes",
              "name": "sig",
              "type": "bytes"
            }
          ],
          "internalType": "struct DNSSEC.RRSetWithSignature[]",
          "name": "input",
          "type": "tuple[]"
        }
      ],
      "name": "verifyRRSet",
      "outputs": [
        {
          "internalType": "bytes",
          "name": "rrs",
          "type": "bytes"
        },
        {
          "internalType": "uint32",
          "name": "inception",
          "type": "uint32"
        }
      ],
      "stateMutability": "view",
      "type": "function"
    }
  ],
  "contractName": "DNSSECImpl",
  "sourceName": "lib/ens-contracts/contracts/dnssec-oracle/DNSSECImpl.sol",
  "bytecode": "0x608060405234801561000f575f80fd5b50604051611f65380380611f6583398101604081905261002e91610066565b600180546001600160a01b031916331790555f61004b8282610194565b5050610253565b634e487b7160e01b5f52604160045260245ffd5b5f60208284031215610076575f80fd5b81516001600160401b038082111561008c575f80fd5b818401915084601f83011261009f575f80fd5b8151818111156100b1576100b1610052565b604051601f8201601f19908116603f011681019083821181831017156100d9576100d9610052565b816040528281528760208487010111156100f1575f80fd5b8260208601602083015e5f928101602001929092525095945050505050565b600181811c9082168061012457607f821691505b60208210810361014257634e487b7160e01b5f52602260045260245ffd5b50919050565b601f82111561018f57805f5260205f20601f840160051c8101602085101561016d5750805b601f840160051c820191505b8181101561018c575f8155600101610179565b50505b505050565b81516001600160401b038111156101ad576101ad610052565b6101c1816101bb8454610110565b84610148565b602080601f8311600181146101f4575f84156101dd5750858301515b5f19600386901b1c1916600185901b17855561024b565b5f85815260208120601f198616915b8281101561022257888601518255948401946001909101908401610203565b508582101561023f57878501515f19600388901b60f8161c191681555b505060018460011b0185555b505050505050565b611d05806102605f395ff3fe608060405234801561000f575f80fd5b506004361061009f575f3560e01c806373cc48a61161007257806398d35f201161005857806398d35f201461015b578063bdf95fef14610170578063c327deef14610183575f80fd5b806373cc48a6146101085780638da5cb5b14610148575f80fd5b8063020ed8d3146100a357806313af4035146100b857806328e7677d146100cb578063440f3d42146100de575b5f80fd5b6100b66100b1366004611835565b6101ab565b005b6100b66100c636600461186a565b610238565b6100b66100d9366004611835565b61027d565b6100f16100ec366004611a4e565b610302565b6040516100ff929190611abe565b60405180910390f35b610130610116366004611ae5565b60036020525f90815260409020546001600160a01b031681565b6040516001600160a01b0390911681526020016100ff565b600154610130906001600160a01b031681565b6101636103e3565b6040516100ff9190611afe565b6100f161017e366004611b10565b61046e565b610130610191366004611ae5565b60026020525f90815260409020546001600160a01b031681565b6001546001600160a01b031633146101c1575f80fd5b60ff82165f81815260026020908152604091829020805473ffffffffffffffffffffffffffffffffffffffff19166001600160a01b0386169081179091558251938452908301527ff73c3c226af96b7f1ba666a21b3ceaf2be3ee6a365e3178fd9cd1eaae0075aa891015b60405180910390a15050565b6001546001600160a01b0316331461024e575f80fd5b6001805473ffffffffffffffffffffffffffffffffffffffff19166001600160a01b0392909216919091179055565b6001546001600160a01b03163314610293575f80fd5b60ff82165f81815260036020908152604091829020805473ffffffffffffffffffffffffffffffffffffffff19166001600160a01b0386169081179091558251938452908301527f2fcc274c3b72dd483ab201bfa87295e3817e8b9b10693219873b722ca1af00c7910161022c565b60605f805f805461031290611b42565b80601f016020809104026020016040519081016040528092919081815260200182805461033e90611b42565b80156103895780601f1061036057610100808354040283529160200191610389565b820191905f5260205f20905b81548152906001019060200180831161036c57829003601f168201915b505050505090505f5b85518110156103d9575f6103c08783815181106103b1576103b1611b7a565b60200260200101518488610484565b61010081015160a0909101519450925050600101610392565b5091509250929050565b5f80546103ef90611b42565b80601f016020809104026020016040519081016040528092919081815260200182805461041b90611b42565b80156104665780601f1061043d57610100808354040283529160200191610466565b820191905f5260205f20905b81548152906001019060200180831161044957829003601f168201915b505050505081565b60605f61047b8342610302565b91509150915091565b60408051610140810182525f8082526020820181905291810182905260608082018390526080820183905260a0820183905260c082019290925260e08101829052610100810182905261012081019190915283516104e190610620565b90505f6104f182835f0151610761565b604083015190915060ff16610506825f6108bb565b1461054e578082604001516040517fe861b2bd000000000000000000000000000000000000000000000000000000008152600401610545929190611b8e565b60405180910390fd5b610120820181905260808201515f9084900360030b12156105b15760808201516040517fa784f87e00000000000000000000000000000000000000000000000000000000815263ffffffff91821660048201529084166024820152604401610545565b60a08201515f90840360030b121561060b5760a08201516040517fbd41036a00000000000000000000000000000000000000000000000000000000815263ffffffff91821660048201529084166024820152604401610545565b6106178183878761091e565b505b9392505050565b60408051610140810182525f8082526020820181905291810182905260608082018390526080820183905260a0820183905260c0820183905260e0820181905261010082018190526101208201529061067a9083906109e7565b61ffff16815261068b826002610a08565b60ff16602082015261069e826003610a08565b60ff1660408201526106b1826004610a3a565b63ffffffff90811660608301526106cd908390600890610a3a16565b63ffffffff90811660808301526106e9908390600c90610a3a16565b63ffffffff90811660a08301526107059083906010906109e716565b61ffff1660c0820152610719826012610a56565b60e082018190525161075690610730906012611bc6565b8260e0015151601285516107449190611bd9565b61074e9190611bd9565b849190610a78565b610100820152919050565b60605f61076d84610acd565b90505b805151602082015110156108b457606081015161ffff166001146107cc5760608101516040517f98a5f31a00000000000000000000000000000000000000000000000000000000815261ffff9091166004820152602401610545565b81515f036107e4576107dd81610b24565b915061084d565b602081015181516107f491610b45565b825114158061081657508051602082015183516108149285925f92610b9c565b155b1561084d576040517fcbceee6f00000000000000000000000000000000000000000000000000000000815260040160405180910390fd5b8261ffff16816040015161ffff16146108a65760408082015190517fa6ff8a8a00000000000000000000000000000000000000000000000000000000815261ffff91821660048201529084166024820152604401610545565b6108af81610bbe565b610770565b5092915050565b5f805b835183106108ce576108ce611bec565b5f6108d98585610a08565b60ff1690506108e9816001611bc6565b6108f39085611bc6565b9350805f036109025750610915565b61090d600183611bc6565b9150506108be565b90505b92915050565b60e083015161092e908590610ca3565b61096b5760e08301516040517feaafc59b000000000000000000000000000000000000000000000000000000008152610545918691600401611c00565b5f6109768282610cfc565b9050602b61ffff16816040015161ffff160361099c57610997848483610d57565b6109e0565b603061ffff16816040015161ffff16036109bb57610997848483610e40565b60408082015190516361529e8760e01b815261ffff9091166004820152602401610545565b5050505050565b5f6109fc836109f7846002611bc6565b610f04565b50016020015160f01c90565b5f610a18836109f7846001611bc6565b828281518110610a2a57610a2a611b7a565b016020015160f81c905092915050565b5f610a4a836109f7846004611bc6565b50016020015160e01c90565b60605f610a638484610b45565b9050610a70848483610a78565b949350505050565b60608167ffffffffffffffff811115610a9357610a93611885565b6040519080825280601f01601f191660200182016040528015610abd576020820181803683370190505b5090506106198484835f86610f50565b610b156040518060e00160405280606081526020015f81526020015f61ffff1681526020015f61ffff1681526020015f63ffffffff1681526020015f81526020015f81525090565b6109188261010001515f610cfc565b6020810151815160609161091891610b3c9082610b45565b84519190610a78565b5f815b83518110610b5857610b58611bec565b5f610b638583610a08565b60ff169050610b73816001611bc6565b610b7d9083611bc6565b9150805f03610b8c5750610b92565b50610b48565b610a708382611bd9565b5f610ba8848484610f81565b610bb3878785610f81565b149695505050505050565b60c08101516020820181905281515111610bd55750565b5f610be7825f01518360200151610b45565b8260200151610bf69190611bc6565b8251909150610c0590826109e7565b61ffff166040830152610c19600282611bc6565b8251909150610c2890826109e7565b61ffff166060830152610c3c600282611bc6565b8251909150610c4b9082610a3a565b63ffffffff166080830152610c61600482611bc6565b82519091505f90610c7290836109e7565b61ffff169050610c83600283611bc6565b60a084018190529150610c968183611bc6565b60c0909301929092525050565b5f8080610cb085826108bb565b90505f610cbd855f6108bb565b90505b80821115610ce657610cd28684610f9a565b925081610cde81611c2d565b925050610cc0565b610cf28684875f610fbd565b9695505050505050565b610d446040518060e00160405280606081526020015f81526020015f61ffff1681526020015f61ffff1681526020015f63ffffffff1681526020015f81526020015f81525090565b82815260c0810182905261091881610bbe565b60208101515f610d6685610acd565b90505b80515160208201511015610e2057604081015161ffff16603014610dac5760408082015190516361529e8760e01b815261ffff9091166004820152602401610545565b5f610db682610ff8565b90505f610dcf5f8351846110149092919063ffffffff16565b9050610ddd818389896110b0565b15610e1057610df28760e001518683856111e4565b15610e005750505050505050565b60c08501849052610e1085610bbe565b5050610e1b81610bbe565b610d69565b508360e001516040516306cde0f360e01b81526004016105459190611afe565b80515160208201511015610ee5575f610e5882610b24565b9050610e718460e001518261131a90919063ffffffff16565b610e96578360e0015181604051636b80573f60e11b8152600401610545929190611c00565b5f610ea083610ff8565b90505f610eb95f8351846110149092919063ffffffff16565b9050610ec7818388886110b0565b15610ed457505050505050565b505050610ee081610bbe565b610e40565b8260e001516040516306cde0f360e01b81526004016105459190611afe565b8151811115610f4c5781516040517f8a3c1cfb000000000000000000000000000000000000000000000000000000008152610545918391600401918252602082015260400190565b5050565b610f5e856109f78387611bc6565b610f6c836109f78385611bc6565b6109e08260208501018560208801018361133e565b5f610f90846109f78486611bc6565b5091016020012090565b5f610fa58383610a08565b60ff16610fb3836001611bc6565b6109159190611bc6565b5f610fc88585610f04565b610fd28383610f04565b610fe0838384865103610f81565b610fee868687895103610f81565b1495945050505050565b60a081015160c082015160609161091891610b3c908290611bd9565b604080516080810182525f808252602082018190529181019190915260608082015261104a6110435f85611bc6565b85906109e7565b61ffff16815261106561105e600285611bc6565b8590610a08565b60ff16602082015261107b61105e600385611bc6565b60ff1660408201526110a4611091600485611bc6565b61109c600485611bd9565b869190610a78565b60608201529392505050565b5f846020015160ff166003146110c757505f610a70565b826020015160ff16856040015160ff16146110e357505f610a70565b5f6110ed85611387565b90508360c0015161ffff168161ffff161461110b575f915050610a70565b8551610100165f03611120575f915050610a70565b60408087015160ff165f908152600260205220546001600160a01b03168061114c575f92505050610a70565b835160208501516040517fde8f50a10000000000000000000000000000000000000000000000000000000081526001600160a01b0384169263de8f50a19261119a928b929190600401611c42565b602060405180830381865afa1580156111b5573d5f803e3d5ffd5b505050506040513d601f19601f820116820180604052508101906111d99190611c7a565b979650505050505050565b5f806111ef83611387565b90505b8451516020860151101561130f575f61120a86610b24565b9050611216818861131a565b611237578681604051636b80573f60e11b8152600401610545929190611c00565b60a086015160c08701515f9161125b91611252908290611bd9565b89519190611014565b90508261ffff16815f015161ffff1614611276575050611301565b856040015160ff16816020015160ff1614611292575050611301565b60408051808201909152606081525f60208201526112be86518a516112b79190611bc6565b82906115c7565b506112c9818a61163b565b506112d4818761163b565b506112eb8260400151825f0151846060015161165b565b156112fd576001945050505050610a70565b5050505b61130a85610bbe565b6111f2565b505f95945050505050565b5f815183511480156109155750508051602091820120825192909101919091201490565b5b601f81111561135f578151835260209283019290910190601f190161133f565b801561138257815183516001602084900360031b1b5f1901801990921691161783525b505050565b5f612000825111156113f5576040517f08c379a000000000000000000000000000000000000000000000000000000000815260206004820152601760248201527f4c6f6e67206b657973206e6f74207065726d69747465640000000000000000006044820152606401610545565b5f805f5b8451601f01811015611467575f816020870101519050855182602001111561142d5785518290036008026101000390811c901b5b7eff00ff00ff00ff00ff00ff00ff00ff00ff00ff00ff00ff00ff00ff00ff00ff600882901c811694909401931691909101906020016113f9565b506010827fffff0000ffff0000ffff0000ffff0000ffff0000ffff0000ffff0000ffff000016901c827dffff0000ffff0000ffff0000ffff0000ffff0000ffff0000ffff0000ffff160191506010817fffff0000ffff0000ffff0000ffff0000ffff0000ffff0000ffff0000ffff000016901c817dffff0000ffff0000ffff0000ffff0000ffff0000ffff0000ffff0000ffff1601905080600883901b0191506020827fffffffff00000000ffffffff00000000ffffffff00000000ffffffff0000000016901c827bffffffff00000000ffffffff00000000ffffffff00000000ffffffff160191506040827fffffffffffffffff0000000000000000ffffffffffffffff000000000000000016901c8277ffffffffffffffff0000000000000000ffffffffffffffff16019150608082901c826fffffffffffffffffffffffffffffffff16019150601082901c61ffff16820191508192505050919050565b60408051808201909152606081525f60208201526115e6602083611c99565b1561160e576115f6602083611c99565b611601906020611bd9565b61160b9083611bc6565b91505b60208084018390526040518085525f8152908184010181811015611630575f80fd5b604052509192915050565b60408051808201909152606081525f60208201526109158383845161171b565b60ff83165f908152600360205260408120546001600160a01b031661168157505f610619565b60ff84165f90815260036020526040908190205490517ff7e83aee0000000000000000000000000000000000000000000000000000000081526001600160a01b039091169063f7e83aee906116dc9086908690600401611c00565b602060405180830381865afa1580156116f7573d5f803e3d5ffd5b505050506040513d601f19601f82011682018060405250810190610a709190611c7a565b60408051808201909152606081525f6020820152825182111561173c575f80fd5b8351515f61174a8483611bc6565b9050856020015181111561176c5761176c86611767836002611cb8565b6117ec565b85518051838201602001915f9180851115611785578482525b505050602086015b602086106117c557805182526117a4602083611bc6565b91506117b1602082611bc6565b90506117be602087611bd9565b955061178d565b5181515f1960208890036101000a0190811690199190911617905250849150509392505050565b81516117f883836115c7565b50611803838261163b565b50505050565b803560ff81168114611819575f80fd5b919050565b6001600160a01b0381168114611832575f80fd5b50565b5f8060408385031215611846575f80fd5b61184f83611809565b9150602083013561185f8161181e565b809150509250929050565b5f6020828403121561187a575f80fd5b81356109158161181e565b634e487b7160e01b5f52604160045260245ffd5b6040805190810167ffffffffffffffff811182821017156118bc576118bc611885565b60405290565b604051601f8201601f1916810167ffffffffffffffff811182821017156118eb576118eb611885565b604052919050565b5f82601f830112611902575f80fd5b813567ffffffffffffffff81111561191c5761191c611885565b61192f601f8201601f19166020016118c2565b818152846020838601011115611943575f80fd5b816020850160208301375f918101602001919091529392505050565b5f82601f83011261196e575f80fd5b8135602067ffffffffffffffff8083111561198b5761198b611885565b8260051b61199a8382016118c2565b93845285810183019383810190888611156119b3575f80fd5b84880192505b85831015611a42578235848111156119cf575f80fd5b88016040818b03601f19018113156119e5575f80fd5b6119ed611899565b87830135878111156119fd575f80fd5b611a0b8d8a838701016118f3565b825250908201359086821115611a1f575f80fd5b611a2d8c89848601016118f3565b818901528452505091840191908401906119b9565b98975050505050505050565b5f8060408385031215611a5f575f80fd5b823567ffffffffffffffff811115611a75575f80fd5b611a818582860161195f565b95602094909401359450505050565b5f81518084528060208401602086015e5f602082860101526020601f19601f83011685010191505092915050565b604081525f611ad06040830185611a90565b905063ffffffff831660208301529392505050565b5f60208284031215611af5575f80fd5b61091582611809565b602081525f6109156020830184611a90565b5f60208284031215611b20575f80fd5b813567ffffffffffffffff811115611b36575f80fd5b610a708482850161195f565b600181811c90821680611b5657607f821691505b602082108103611b7457634e487b7160e01b5f52602260045260245ffd5b50919050565b634e487b7160e01b5f52603260045260245ffd5b604081525f611ba06040830185611a90565b905060ff831660208301529392505050565b634e487b7160e01b5f52601160045260245ffd5b8082018082111561091857610918611bb2565b8181038181111561091857610918611bb2565b634e487b7160e01b5f52600160045260245ffd5b604081525f611c126040830185611a90565b8281036020840152611c248185611a90565b95945050505050565b5f81611c3b57611c3b611bb2565b505f190190565b606081525f611c546060830186611a90565b8281036020840152611c668186611a90565b90508281036040840152610cf28185611a90565b5f60208284031215611c8a575f80fd5b81518015158114610915575f80fd5b5f82611cb357634e487b7160e01b5f52601260045260245ffd5b500690565b808202811582820484141761091857610918611bb256fea26469706673582212206ef89097f91c6916c60c9b09c43895478c9ae6b7f68d347b9d49feb35a2fb75664736f6c63430008190033",
  "linkReferences": {},
  "deployedLinkReferences": {},
  "immutableReferences": {},
  "inputSourceName": "project/lib/ens-contracts/contracts/dnssec-oracle/DNSSECImpl.sol",
  "devdoc": {
    "errors": {
      "OffsetOutOfBoundsError(uint256,uint256)": [
        {
          "details": "`offset` was beyond `length`.       Error selector: `0x8a3c1cfb`"
        }
      ]
    },
    "kind": "dev",
    "methods": {
      "constructor": {
        "details": "Constructor.",
        "params": {
          "_anchors": "The binary format RR entries for the root DS records."
        }
      },
      "setAlgorithm(uint8,address)": {
        "details": "Sets the contract address for a signature verification algorithm.      Callable only by the owner.",
        "params": {
          "algo": "The address of the algorithm contract.",
          "id": "The algorithm ID"
        }
      },
      "setDigest(uint8,address)": {
        "details": "Sets the contract address for a digest verification algorithm.      Callable only by the owner.",
        "params": {
          "digest": "The address of the digest contract.",
          "id": "The digest ID"
        }
      },
      "verifyRRSet((bytes,bytes)[])": {
        "details": "Takes a chain of signed DNS records, verifies them, and returns the data from the last record set in the chain.      Reverts if the records do not form an unbroken chain of trust to the DNSSEC anchor records.",
        "params": {
          "input": "A list of signed RRSets."
        },
        "returns": {
          "inception": "The inception time of the signed record set.",
          "rrs": "The RRData from the last RRSet in the chain."
        }
      },
      "verifyRRSet((bytes,bytes)[],uint256)": {
        "details": "Takes a chain of signed DNS records, verifies them, and returns the data from the last record set in the chain.      Reverts if the records do not form an unbroken chain of trust to the DNSSEC anchor records.",
        "params": {
          "input": "A list of signed RRSets.",
          "now": "The Unix timestamp to validate the records at."
        },
        "returns": {
          "inception": "The inception time of the signed record set.",
          "rrs": "The RRData from the last RRSet in the chain."
        }
      }
    },
    "version": 1
  },
  "evm": {
    "gasEstimates": {
      "creation": {
        "codeDepositCost": "1485800",
        "executionCost": "infinite",
        "totalCost": "infinite"
      },
      "external": {
        "algorithms(uint8)": "2613",
        "anchors()": "infinite",
        "digests(uint8)": "2570",
        "owner()": "2381",
        "setAlgorithm(uint8,address)": "28197",
        "setDigest(uint8,address)": "28252",
        "setOwner(address)": "26718",
        "verifyRRSet((bytes,bytes)[])": "infinite",
        "verifyRRSet((bytes,bytes)[],uint256)": "infinite"
      },
      "internal": {
        "validateRRs(struct RRUtils.SignedSet memory,uint16)": "infinite",
        "validateSignedSet(struct DNSSEC.RRSetWithSignature memory,bytes memory,uint256)": "infinite",
        "verifyDSHash(uint8,bytes memory,bytes memory)": "infinite",
        "verifyKeyWithDS(bytes memory,struct RRUtils.RRIterator memory,struct RRUtils.DNSKEY memory,bytes memory)": "infinite",
        "verifySignature(bytes memory,struct RRUtils.SignedSet memory,struct DNSSEC.RRSetWithSignature memory,bytes memory)": "infinite",
        "verifySignatureWithKey(struct RRUtils.DNSKEY memory,bytes memory,struct RRUtils.SignedSet memory,struct DNSSEC.RRSetWithSignature memory)": "infinite",
        "verifyWithDS(struct RRUtils.SignedSet memory,struct DNSSEC.RRSetWithSignature memory,struct RRUtils.RRIterator memory)": "infinite",
        "verifyWithKnownKey(struct RRUtils.SignedSet memory,struct DNSSEC.RRSetWithSignature memory,struct RRUtils.RRIterator memory)": "infinite"
      }
    }
  },
  "storageLayout": {
    "storage": [
      {
        "astId": 3746,
        "contract": "project/lib/ens-contracts/contracts/dnssec-oracle/DNSSECImpl.sol:DNSSECImpl",
        "label": "anchors",
        "offset": 0,
        "slot": "0",
        "type": "t_bytes_storage"
      },
      {
        "astId": 4741,
        "contract": "project/lib/ens-contracts/contracts/dnssec-oracle/DNSSECImpl.sol:DNSSECImpl",
        "label": "owner",
        "offset": 0,
        "slot": "1",
        "type": "t_address"
      },
      {
        "astId": 3878,
        "contract": "project/lib/ens-contracts/contracts/dnssec-oracle/DNSSECImpl.sol:DNSSECImpl",
        "label": "algorithms",
        "offset": 0,
        "slot": "2",
        "type": "t_mapping(t_uint8,t_contract(Algorithm)5905)"
      },
      {
        "astId": 3883,
        "contract": "project/lib/ens-contracts/contracts/dnssec-oracle/DNSSECImpl.sol:DNSSECImpl",
        "label": "digests",
        "offset": 0,
        "slot": "3",
        "type": "t_mapping(t_uint8,t_contract(Digest)7746)"
      }
    ],
    "types": {
      "t_address": {
        "encoding": "inplace",
        "label": "address",
        "numberOfBytes": "20"
      },
      "t_bytes_storage": {
        "encoding": "bytes",
        "label": "bytes",
        "numberOfBytes": "32"
      },
      "t_contract(Algorithm)5905": {
        "encoding": "inplace",
        "label": "contract Algorithm",
        "numberOfBytes": "20"
      },
      "t_contract(Digest)7746": {
        "encoding": "inplace",
        "label": "contract Digest",
        "numberOfBytes": "20"
      },
      "t_mapping(t_uint8,t_contract(Algorithm)5905)": {
        "encoding": "mapping",
        "key": "t_uint8",
        "label": "mapping(uint8 => contract Algorithm)",
        "numberOfBytes": "32",
        "value": "t_contract(Algorithm)5905"
      },
      "t_mapping(t_uint8,t_contract(Digest)7746)": {
        "encoding": "mapping",
        "key": "t_uint8",
        "label": "mapping(uint8 => contract Digest)",
        "numberOfBytes": "32",
        "value": "t_contract(Digest)7746"
      },
      "t_uint8": {
        "encoding": "inplace",
        "label": "uint8",
        "numberOfBytes": "1"
      }
    }
  },
  "userdoc": {
    "kind": "user",
    "methods": {},
    "version": 1
  },
  "argsData": "0x0000000000000000000000000000000000000000000000000000000000000020000000000000000000000000000000000000000000000000000000000000005e00002b000100000e1000244a5c080249aac11d7b6f6446702e54a1607371607a1a41855200fd2ce1cdde32f24e8fb500002b000100000e1000244f660802e06d44b80b8f1d39a95c0b0d7c65d08458e880409bbc683457104237c7f8ec8d0000",
  "transaction": {
    "hash": "0xa4b7980d939e8f14da9a48fc782febed4c3144955cf512034a7c10c3be2ad2a1",
    "nonce": "0x11",
    "origin": "0xf39fd6e51aad88f6f4ce6ab8827279cfffb92266"
  }
}