{
  "address": "0xe7f1725e7734ce288f8367e1bb143e90bb3f0512",
  "abi": [
    {
      "inputs": [
        {
          "internalType": "bytes",
          "name": "data",
          "type": "bytes"
        },
        {
          "internalType": "uint256",
          "name": "expected",
          "type": "uint256"
        }
      ],
      "name": "InvalidDataLength",
      "type": "error"
    },
    {
      "inputs": [
        {
          "internalType": "bytes",
          "name": "data",
          "type": "bytes"
        }
      ],
      "name": "InvalidHexData",
      "type": "error"
    },
    {
      "inputs": [
        {
          "internalType": "uint256",
          "name": "offset",
          "type": "uint256"
        },
        {
          "internalType": "uint256",
          "name": "length",
          "type": "uint256"
        }
      ],
      "name": "OffsetOutOfBoundsError",
      "type": "error"
    },
    {
      "inputs": [
        {
          "internalType": "bytes4",
          "name": "selector",
          "type": "bytes4"
        }
      ],
      "name": "UnsupportedResolverProfile",
      "type": "error"
    },
    {
      "inputs": [
        {
          "internalType": "bytes",
          "name": "",
          "type": "bytes"
        },
        {
          "internalType": "bytes",
          "name": "data",
          "type": "bytes"
        },
        {
          "internalType": "bytes",
          "name": "context",
          "type": "bytes"
        }
      ],
      "name": "resolve",
      "outputs": [
        {
          "internalType": "bytes",
          "name": "result",
          "type": "bytes"
        }
      ],
      "stateMutability": "view",
      "type": "function"
    },
    {
      "inputs": [
        {
          "internalType": "bytes4",
          "name": "feature",
          "type": "bytes4"
        }
      ],
      "name": "supportsFeature",
      "outputs": [
        {
          "internalType": "bool",
          "name": "",
          "type": "bool"
        }
      ],
      "stateMutability": "pure",
      "type": "function"
    },
    {
      "inputs": [
        {
          "internalType": "bytes4",
          "name": "interfaceId",
          "type": "bytes4"
        }
      ],
      "name": "supportsInterface",
      "outputs": [
        {
          "internalType": "bool",
          "name": "",
          "type": "bool"
        }
      ],
      "stateMutability": "view",
      "type": "function"
    }
  ],
  "contractName": "DNSTXTResolver",
  "sourceName": "src/dns/DNSTXTResolver.sol",
  "bytecode": "0x6080604052348015600e575f80fd5b50611c158061001c5f395ff3fe608060405234801561000f575f80fd5b506004361061003f575f3560e01c806301ffc9a714610043578063582de3e71461006b5780638ef98a7e146100a8575b5f80fd5b61005661005136600461157b565b6100c8565b60405190151581526020015b60405180910390f35b61005661007936600461157b565b6001600160e01b0319167f96b62db8000000000000000000000000000000000000000000000000000000001490565b6100bb6100b63660046115e7565b610164565b60405161006291906116a8565b5f7f8ef98a7e000000000000000000000000000000000000000000000000000000006001600160e01b03198316148061012a57507f582de3e7000000000000000000000000000000000000000000000000000000006001600160e01b03198316145b8061015e57507f01ffc9a7000000000000000000000000000000000000000000000000000000006001600160e01b03198316145b92915050565b60605f61017185876116ba565b90507f5369af28000000000000000000000000000000000000000000000000000000006001600160e01b031982160161032d575f6101b2866004818a6116ea565b8101906101bf91906117b8565b90505f5b8151811015610303575f803073ffffffffffffffffffffffffffffffffffffffff163073ffffffffffffffffffffffffffffffffffffffff16638ef98a7e86868151811061021357610213611887565b60200260200101518b8b60405160240161022f9392919061189b565b60408051601f198184030181529181526020820180517bffffffffffffffffffffffffffffffffffffffffffffffffffffffff1660e09490941b93909317909252905161027c9250611903565b5f60405180830381855afa9150503d805f81146102b4576040519150601f19603f3d011682016040523d82523d5f602084013e6102b9565b606091505b509150915081156102db57808060200190518101906102d8919061190e565b90505b808484815181106102ee576102ee611887565b602090810291909101015250506001016101c3565b50806040516020016103159190611983565b604051602081830303815290604052925050506107ff565b7fc4c4a822000000000000000000000000000000000000000000000000000000006001600160e01b03198216016103c3575f6103a385858080601f0160208091040260200160405190810160405280939291908181526020018383808284375f92019190915250603c9250600191506108099050565b90506103ae816119e5565b6040805160609290921c602083015201610315565b7f0e3481fa000000000000000000000000000000000000000000000000000000006001600160e01b0319821601610465575f610402866004818a6116ea565b81019061040f9190611a21565b91505061045585858080601f0160208091040260200160405190810160405280939291908181526020018383808284375f92019190915250859250600191506108099050565b60405160200161031591906116a8565b7fcd0eee29000000000000000000000000000000000000000000000000000000006001600160e01b0319821601610521575f6104a4866004818a6116ea565b8101906104b19190611a21565b9150505f6104f586868080601f0160208091040260200160405190810160405280939291908181526020018383808284375f92018290525087935091506108099050565b8051604080519115156020830152919250015b60405160208183030381529060405293505050506107ff565b7fa62e2bc4000000000000000000000000000000000000000000000000000000006001600160e01b03198216016105e1575f610560866004818a6116ea565b81019061056d9190611a41565b9150505f6105ce86868080601f0160208091040260200160405190810160405280939291908181526020018383808284375f92019190915250506040516105ba9250869150602001611a98565b60405160208183030381529060405261094c565b90508060405160200161050891906116a8565b7f43e3a72f000000000000000000000000000000000000000000000000000000006001600160e01b03198216016106b45761068d61068885858080601f0160208091040260200160405190810160405280939291908181526020018383808284375f920191909152505060408051808201909152600281527f633d0000000000000000000000000000000000000000000000000000000000006020820152915061094c9050565b610fc1565b60405160200161069d91906116a8565b6040516020818303038152906040529150506107ff565b7f3796fdcd000000000000000000000000000000000000000000000000000000006001600160e01b03198216016107c1575f61075c61068886868080601f0160208091040260200160405190810160405280939291908181526020018383808284375f920191909152505060408051808201909152600381527f78793d00000000000000000000000000000000000000000000000000000000006020820152915061094c9050565b905080515f0361078a57604080518181526060810182529060208201818036833701905050925050506107ff565b805160400361079c5791506107ff9050565b6040805163ee0c8b9960e01b81526107b8918391600401611af6565b60405180910390fd5b6040517f7b1c461b0000000000000000000000000000000000000000000000000000000081526001600160e01b0319821660048201526024016107b8565b9695505050505050565b6060610814836110c3565b156109225761088784603c851461084c5761083c610831866110e8565b63ffffffff16611112565b6040516020016105ba9190611b17565b6040518060400160405280600681526020017f615b36305d3d000000000000000000000000000000000000000000000000000081525061094c565b905081801561089557508051155b156108dc576108d9846040518060400160405280600681526020017f615b65305d3d000000000000000000000000000000000000000000000000000081525061094c565b90505b6108e581610fc1565b905080515f141580156108fa57508051601414155b1561091d5780601460405163ee0c8b9960e01b81526004016107b8929190611af6565b610945565b6109426106888561093286611112565b6040516020016105ba9190611b48565b90505b9392505050565b81516060905f90815b81811015610fb8575f83600881111561097057610970611b79565b03610a0e575b81811080156109b25750600160fd1b6001600160f81b0319168682815181106109a1576109a1611887565b01602001516001600160f81b031916145b156109c7576109c081611ba1565b9050610976565b818551826109d59190611bb9565b11610fb8576109e88682875f89516111b0565b15610a045784516109f99082611bb9565b905060039250610955565b600192505b610955565b6001836008811115610a2257610a22611b79565b03610b0b575b81811015610a09575f8682610a3c81611ba1565b935081518110610a4e57610a4e611887565b01602001516001600160f81b03191690507fc3000000000000000000000000000000000000000000000000000000000000008101610a90576006935050610955565b7fa5000000000000000000000000000000000000000000000000000000000000006001600160f81b0319821601610acb576002935050610955565b7fe0000000000000000000000000000000000000000000000000000000000000006001600160f81b0319821601610b05575f935050610955565b50610a28565b6002836008811115610b1f57610b1f611b79565b03610c13575b81811015610a09577f5d000000000000000000000000000000000000000000000000000000000000006001600160f81b031916868281518110610b6a57610b6a611887565b01602001516001600160f81b03191603610c0357610b8781611ba1565b90508181108015610be157507f3d000000000000000000000000000000000000000000000000000000000000006001600160f81b031916868281518110610bd057610bd0611887565b01602001516001600160f81b031916145b15610bfa5760069250610bf381611ba1565b9050610955565b60089250610955565b610c0c81611ba1565b9050610b25565b6003836008811115610c2757610c27611b79565b03610c7757602760f81b6001600160f81b031916868281518110610c4d57610c4d611887565b01602001516001600160f81b03191603610c6e5760049250610bf381611ba1565b60059250610955565b6004836008811115610c8b57610c8b611b79565b03610e07575f815b83831015610e00575f8884610ca781611ba1565b955081518110610cb957610cb9611887565b01602001516001600160f81b031916905060d960f81b8101610dce578267ffffffffffffffff811115610cee57610cee611711565b6040519080825280601f01601f191660200182016040528015610d18576020820181803683370190505b5096505f93505b82841015610dc3578882610d3281611ba1565b935081518110610d4457610d44611887565b01602001516001600160f81b0319169050602960fa1b8101610d8f578882610d6b81611ba1565b935081518110610d7d57610d7d611887565b01602001516001600160f81b03191690505b80878581518110610da257610da2611887565b60200101906001600160f81b03191690815f1a905350836001019350610d1f565b50505050505061015e565b602960fa1b6001600160f81b0319821601610def57610dec84611ba1565b93505b50610df982611ba1565b9150610c93565b5050610955565b6005836008811115610e1b57610e1b611b79565b03610e8a57805b82811015610e6b57600160fd1b6001600160f81b031916878281518110610e4b57610e4b611887565b01602001516001600160f81b03191603610e63578092505b600101610e22565b50610e808682610e7b8186611bcc565b6111d2565b935050505061015e565b6006836008811115610e9e57610e9e611b79565b03610ee557602760f81b6001600160f81b031916868281518110610ec457610ec4611887565b01602001516001600160f81b03191603610bfa5760079250610bf381611ba1565b6007836008811115610ef957610ef9611b79565b03610f76575b81811015610f6e575f8682610f1381611ba1565b935081518110610f2557610f25611887565b01602001516001600160f81b031916905060d960f81b8101610f475750610f6e565b602960fa1b6001600160f81b0319821601610f6857610f6582611ba1565b91505b50610eff565b5f9250610955565b600160fd1b6001600160f81b031916868281518110610f9757610f97611887565b01602001516001600160f81b03191603610faf575f92505b610bf381611ba1565b50505092915050565b8051606090156110be575f600283511015801561101e5750825f81518110610feb57610feb611887565b6020910101516001600160f81b0319167f3000000000000000000000000000000000000000000000000000000000000000145b801561106b57508260018151811061103857611038611887565b6020910101516001600160f81b0319167f7800000000000000000000000000000000000000000000000000000000000000145b156110835761107d8360028551611227565b90925090505b806110bc57826040517f626777b10000000000000000000000000000000000000000000000000000000081526004016107b891906116a8565b505b919050565b5f638000000082148061015e57505f6110db836110e8565b63ffffffff161192915050565b5f603c82036110f957506001919050565b638000000091821891821061110e575f61015e565b5090565b60605f61111e836112cb565b60010190505f8167ffffffffffffffff81111561113d5761113d611711565b6040519080825280601f01601f191660200182016040528015611167576020820181803683370190505b5090508181016020015b5f19017f3031323334353637383961626364656600000000000000000000000000000000600a86061a8153600a8504945084611171575b509392505050565b5f6111bc8484846113ac565b6111c78787856113ac565b149695505050505050565b60608167ffffffffffffffff8111156111ed576111ed611711565b6040519080825280601f01601f191660200182016040528015611217576020820181803683370190505b5090506109458484835f866113ca565b60605f8383101561124857505060408051602081019091525f8082526112c3565b5f6112538585611bcc565b905060016112618282611bb9565b901c67ffffffffffffffff81111561127b5761127b611711565b6040519080825280601f01601f1916602001820160405280156112a5576020820181803683370190505b509250602085870181019084016112bd828285611402565b93505050505b935093915050565b5f807a184f03e93ff9f4daa797ed6e38ed64bf6a1f0100000000000000008310611313577a184f03e93ff9f4daa797ed6e38ed64bf6a1f010000000000000000830492506040015b6d04ee2d6d415b85acef8100000000831061133f576d04ee2d6d415b85acef8100000000830492506020015b662386f26fc10000831061135d57662386f26fc10000830492506010015b6305f5e1008310611375576305f5e100830492506008015b612710831061138957612710830492506004015b6064831061139b576064830492506002015b600a831061015e5760010192915050565b5f6113c0846113bb8486611bb9565b6114e6565b5091016020012090565b6113d8856113bb8387611bb9565b6113e6836113bb8385611bb9565b6113fb82602085010185602088010183611532565b5050505050565b5f611460565b811a5f602f8211603a831016156114245750602f19810161015e565b6047821060408311161561143d5750603619810161015e565b606782106060831116156114565750605619810161015e565b5061010092915050565b5060018382018282161561149a576114795f8651611408565b80855360018601955060018501945060ff811115611498575f92508195505b505b808510156111a85784516114af600182611408565b6114b95f83611408565b60041b17905060ff8111156114d1575f9250506111a8565b8085535060028501945060018401935061149a565b815181111561152e5781516040517f8a3c1cfb0000000000000000000000000000000000000000000000000000000081526107b8918391600401918252602082015260400190565b5050565b5b601f811115611553578151835260209283019290910190601f1901611533565b801561157657815183516001602084900360031b1b5f1901801990921691161783525b505050565b5f6020828403121561158b575f80fd5b81356001600160e01b031981168114610945575f80fd5b5f8083601f8401126115b2575f80fd5b50813567ffffffffffffffff8111156115c9575f80fd5b6020830191508360208285010111156115e0575f80fd5b9250929050565b5f805f805f80606087890312156115fc575f80fd5b863567ffffffffffffffff80821115611613575f80fd5b61161f8a838b016115a2565b90985096506020890135915080821115611637575f80fd5b6116438a838b016115a2565b9096509450604089013591508082111561165b575f80fd5b5061166889828a016115a2565b979a9699509497509295939492505050565b5f81518084528060208401602086015e5f602082860101526020601f19601f83011685010191505092915050565b602081525f610945602083018461167a565b6001600160e01b031981358181169160048510156116e25780818660040360031b1b83161692505b505092915050565b5f80858511156116f8575f80fd5b83861115611704575f80fd5b5050820193919092039150565b634e487b7160e01b5f52604160045260245ffd5b604051601f8201601f1916810167ffffffffffffffff8111828210171561174e5761174e611711565b604052919050565b5f67ffffffffffffffff82111561176f5761176f611711565b50601f01601f191660200190565b5f61178f61178a84611756565b611725565b90508281528383830111156117a2575f80fd5b828260208301375f602084830101529392505050565b5f60208083850312156117c9575f80fd5b823567ffffffffffffffff808211156117e0575f80fd5b818501915085601f8301126117f3575f80fd5b81358181111561180557611805611711565b8060051b611814858201611725565b918252838101850191858101908984111561182d575f80fd5b86860192505b8383101561187a57823585811115611849575f80fd5b8601603f81018b13611859575f80fd5b61186a8b898301356040840161177d565b8352509186019190860190611833565b9998505050505050505050565b634e487b7160e01b5f52603260045260245ffd5b606081525f6060820152608060208201525f6118ba608083018661167a565b8281036040840152838152838560208301375f602085830101526020601f19601f860116820101915050949350505050565b5f81518060208401855e5f93019283525090919050565b5f61094582846118ec565b5f6020828403121561191e575f80fd5b815167ffffffffffffffff811115611934575f80fd5b8201601f81018413611944575f80fd5b805161195261178a82611756565b818152856020838501011115611966575f80fd5b8160208401602083015e5f91810160200191909152949350505050565b5f60208083016020845280855180835260408601915060408160051b8701019250602087015f5b828110156119d857603f198886030184526119c685835161167a565b945092850192908501906001016119aa565b5092979650505050505050565b805160208201516bffffffffffffffffffffffff198082169291906014831015611a195780818460140360031b1b83161693505b505050919050565b5f8060408385031215611a32575f80fd5b50508035926020909101359150565b5f8060408385031215611a52575f80fd5b82359150602083013567ffffffffffffffff811115611a6f575f80fd5b8301601f81018513611a7f575f80fd5b611a8e8582356020840161177d565b9150509250929050565b7f745b00000000000000000000000000000000000000000000000000000000000081525f611ac960028301846118ec565b7f5d3d00000000000000000000000000000000000000000000000000000000000081526002019392505050565b604081525f611b08604083018561167a565b90508260208301529392505050565b7f615b65000000000000000000000000000000000000000000000000000000000081525f611ac960038301846118ec565b7f615b00000000000000000000000000000000000000000000000000000000000081525f611ac960028301846118ec565b634e487b7160e01b5f52602160045260245ffd5b634e487b7160e01b5f52601160045260245ffd5b5f60018201611bb257611bb2611b8d565b5060010190565b8082018082111561015e5761015e611b8d565b8181038181111561015e5761015e611b8d56fea2646970667358221220ed7861f63844e66342f81e4de031ab23ad25ce44cd85f894ce9a6e80d7743e1b64736f6c63430008190033",
  "linkReferences": {},
  "deployedLinkReferences": {},
  "immutableReferences": {},
  "inputSourceName": "project/src/dns/DNSTXTResolver.sol",
  "devdoc": {
    "errors": {
      "InvalidDataLength(bytes,uint256)": [
        {
          "details": "Error selector: `0xee0c8b99`"
        }
      ],
      "InvalidHexData(bytes)": [
        {
          "details": "Matches: `/^0x[0-9a-fA-F]*$/`.      Error selector: `0x626777b1`"
        }
      ],
      "OffsetOutOfBoundsError(uint256,uint256)": [
        {
          "details": "`offset` was beyond `length`.       Error selector: `0x8a3c1cfb`"
        }
      ],
      "UnsupportedResolverProfile(bytes4)": [
        {
          "details": "Error selector: `0x7b1c461b`"
        }
      ]
    },
    "kind": "dev",
    "methods": {
      "supportsFeature(bytes4)": {
        "params": {
          "featureId": "The feature identifier."
        },
        "returns": {
          "_0": "`true` if the feature is supported by the contract."
        }
      },
      "supportsInterface(bytes4)": {
        "details": "See {IERC165-supportsInterface}."
      }
    },
    "version": 1
  },
  "evm": {
    "gasEstimates": {
      "creation": {
        "codeDepositCost": "1437800",
        "executionCost": "1497",
        "totalCost": "1439297"
      },
      "external": {
        "resolve(bytes,bytes,bytes)": "infinite",
        "supportsFeature(bytes4)": "338",
        "supportsInterface(bytes4)": "438"
      },
      "internal": {
        "_extractAddress(bytes memory,uint256,bool)": "infinite",
        "_parse0xString(bytes memory)": "infinite"
      }
    }
  },
  "storageLayout": {
    "storage": [],
    "types": null
  },
  "userdoc": {
    "errors": {
      "InvalidDataLength(bytes,uint256)": [
        {
          "notice": "The data was an unexpected length."
        }
      ],
      "InvalidHexData(bytes)": [
        {
          "notice": "The data was not a hex string."
        }
      ],
      "UnsupportedResolverProfile(bytes4)": [
        {
          "notice": "The resolver profile cannot be answered."
        }
      ]
    },
    "kind": "user",
    "methods": {
      "resolve(bytes,bytes,bytes)": {
        "notice": "Resolve using values parsed from `context`. The operating assumption is that this contract is never called directly, and instead only invoked by DNSTLDResolver in response to an TXT record. The DNSTLDResolver includes `TEXT_KEY_DNSSEC_CONTEXT`. Multicalling this contract directly will not include these values."
      },
      "supportsFeature(bytes4)": {
        "notice": "Check if a feature is supported."
      }
    },
    "notice": "Resolver that answers requests with the data encoded into the context of a DNSSEC \"ENS1\" TXT record. DNS TXT record format: `ENS1 dnstxt.ens.eth <context>`. (where \"dnstxt.ens.eth\" resolves to this contract.) The <context> is a human-readable string that is parsable by `DNSTXTParserLib`. Context format: `<record1> <record2> ...`. Support record formats: * `text(key)`     - Unquoted: `t[age]=18`     - Quoted: `t[description]=\"Once upon a time, ...\"`     - Quoted w/escapes: `t[notice]=\"\\\"E N S!\\\"\"` * `addr(coinType)`     - Ethereum Address: `a[60]=0x8000000000000000000000000000000000000001` (see: ENSIP-1)     - Default EVM Address: `a[e0]=0x...`     - Linea Address: `a[e59144]=0x...`     - Bitcoin Address: `a[0]=0x00...` (see: ENSIP-9) * `contenthash()`: `c=0x...` (see: ENSIP-7) * `pubkey()`: `xy=0x...`",
    "version": 1
  },
  "argsData": "0x",
  "transaction": {
    "hash": "0x75900110de140b6e05740266e3c5a22b296ab7e0df3340425f42027809209384",
    "nonce": "0x1",
    "origin": "0xf39fd6e51aad88f6f4ce6ab8827279cfffb92266"
  }
}