{
  "address": "0x09635f643e140090a9a8dcd712ed6285858cebef",
  "abi": [
    {
      "inputs": [
        {
          "internalType": "contract ENS",
          "name": "ensRegistryV1",
          "type": "address"
        },
        {
          "internalType": "address",
          "name": "dnsTLDResolverV1",
          "type": "address"
        },
        {
          "internalType": "contract IRegistry",
          "name": "rootRegistry",
          "type": "address"
        },
        {
          "internalType": "contract DNSSEC",
          "name": "dnssecOracle",
          "type": "address"
        },
        {
          "internalType": "contract IGatewayProvider",
          "name": "oracleGatewayProvider",
          "type": "address"
        },
        {
          "internalType": "contract IGatewayProvider",
          "name": "batchGatewayProvider",
          "type": "address"
        }
      ],
      "stateMutability": "nonpayable",
      "type": "constructor"
    },
    {
      "inputs": [
        {
          "internalType": "bytes",
          "name": "dns",
          "type": "bytes"
        }
      ],
      "name": "DNSDecodingFailed",
      "type": "error"
    },
    {
      "inputs": [
        {
          "internalType": "string",
          "name": "ens",
          "type": "string"
        }
      ],
      "name": "DNSEncodingFailed",
      "type": "error"
    },
    {
      "inputs": [],
      "name": "InvalidBatchGatewayResponse",
      "type": "error"
    },
    {
      "inputs": [],
      "name": "InvalidTXT",
      "type": "error"
    },
    {
      "inputs": [
        {
          "internalType": "address",
          "name": "sender",
          "type": "address"
        },
        {
          "internalType": "string[]",
          "name": "urls",
          "type": "string[]"
        },
        {
          "internalType": "bytes",
          "name": "callData",
          "type": "bytes"
        },
        {
          "internalType": "bytes4",
          "name": "callbackFunction",
          "type": "bytes4"
        },
        {
          "internalType": "bytes",
          "name": "extraData",
          "type": "bytes"
        }
      ],
      "name": "OffchainLookup",
      "type": "error"
    },
    {
      "inputs": [
        {
          "internalType": "uint256",
          "name": "offset",
          "type": "uint256"
        },
        {
          "internalType": "uint256",
          "name": "length",
          "type": "uint256"
        }
      ],
      "name": "OffsetOutOfBoundsError",
      "type": "error"
    },
    {
      "inputs": [
        {
          "internalType": "bytes",
          "name": "name",
          "type": "bytes"
        }
      ],
      "name": "UnreachableName",
      "type": "error"
    },
    {
      "anonymous": false,
      "inputs": [
        {
          "indexed": false,
          "internalType": "bytes",
          "name": "name",
          "type": "bytes"
        },
        {
          "indexed": false,
          "internalType": "address",
          "name": "verifier",
          "type": "address"
        }
      ],
      "name": "VerifierChanged",
      "type": "event"
    },
    {
      "inputs": [],
      "name": "BATCH_GATEWAY_PROVIDER",
      "outputs": [
        {
          "internalType": "contract IGatewayProvider",
          "name": "",
          "type": "address"
        }
      ],
      "stateMutability": "view",
      "type": "function"
    },
    {
      "inputs": [],
      "name": "DNSSEC_ORACLE",
      "outputs": [
        {
          "internalType": "contract DNSSEC",
          "name": "",
          "type": "address"
        }
      ],
      "stateMutability": "view",
      "type": "function"
    },
    {
      "inputs": [],
      "name": "DNS_TLD_RESOLVER_V1",
      "outputs": [
        {
          "internalType": "address",
          "name": "",
          "type": "address"
        }
      ],
      "stateMutability": "view",
      "type": "function"
    },
    {
      "inputs": [],
      "name": "ENS_REGISTRY_V1",
      "outputs": [
        {
          "internalType": "contract ENS",
          "name": "",
          "type": "address"
        }
      ],
      "stateMutability": "view",
      "type": "function"
    },
    {
      "inputs": [],
      "name": "ORACLE_GATEWAY_PROVIDER",
      "outputs": [
        {
          "internalType": "contract IGatewayProvider",
          "name": "",
          "type": "address"
        }
      ],
      "stateMutability": "view",
      "type": "function"
    },
    {
      "inputs": [],
      "name": "ROOT_REGISTRY",
      "outputs": [
        {
          "internalType": "contract IRegistry",
          "name": "",
          "type": "address"
        }
      ],
      "stateMutability": "view",
      "type": "function"
    },
    {
      "inputs": [
        {
          "internalType": "address",
          "name": "resolver",
          "type": "address"
        },
        {
          "internalType": "bytes",
          "name": "name",
          "type": "bytes"
        },
        {
          "internalType": "bytes",
          "name": "data",
          "type": "bytes"
        },
        {
          "internalType": "bool",
          "name": "hasContext",
          "type": "bool"
        },
        {
          "internalType": "bytes",
          "name": "context",
          "type": "bytes"
        },
        {
          "internalType": "string[]",
          "name": "batchGateways",
          "type": "string[]"
        }
      ],
      "name": "callResolver",
      "outputs": [
        {
          "internalType": "bytes",
          "name": "",
          "type": "bytes"
        }
      ],
      "stateMutability": "view",
      "type": "function"
    },
    {
      "inputs": [
        {
          "components": [
            {
              "components": [
                {
                  "internalType": "address",
                  "name": "target",
                  "type": "address"
                },
                {
                  "internalType": "bytes",
                  "name": "call",
                  "type": "bytes"
                },
                {
                  "internalType": "bytes",
                  "name": "data",
                  "type": "bytes"
                },
                {
                  "internalType": "uint256",
                  "name": "flags",
                  "type": "uint256"
                }
              ],
              "internalType": "struct CCIPBatcher.Lookup[]",
              "name": "lookups",
              "type": "tuple[]"
            },
            {
              "internalType": "string[]",
              "name": "gateways",
              "type": "string[]"
            }
          ],
          "internalType": "struct CCIPBatcher.Batch",
          "name": "batch",
          "type": "tuple"
        }
      ],
      "name": "ccipBatch",
      "outputs": [
        {
          "components": [
            {
              "components": [
                {
                  "internalType": "address",
                  "name": "target",
                  "type": "address"
                },
                {
                  "internalType": "bytes",
                  "name": "call",
                  "type": "bytes"
                },
                {
                  "internalType": "bytes",
                  "name": "data",
                  "type": "bytes"
                },
                {
                  "internalType": "uint256",
                  "name": "flags",
                  "type": "uint256"
                }
              ],
              "internalType": "struct CCIPBatcher.Lookup[]",
              "name": "lookups",
              "type": "tuple[]"
            },
            {
              "internalType": "string[]",
              "name": "gateways",
              "type": "string[]"
            }
          ],
          "internalType": "struct CCIPBatcher.Batch",
          "name": "",
          "type": "tuple"
        }
      ],
      "stateMutability": "view",
      "type": "function"
    },
    {
      "inputs": [
        {
          "internalType": "bytes",
          "name": "response",
          "type": "bytes"
        },
        {
          "internalType": "bytes",
          "name": "extraData",
          "type": "bytes"
        }
      ],
      "name": "ccipBatchCallback",
      "outputs": [
        {
          "components": [
            {
              "components": [
                {
                  "internalType": "address",
                  "name": "target",
                  "type": "address"
                },
                {
                  "internalType": "bytes",
                  "name": "call",
                  "type": "bytes"
                },
                {
                  "internalType": "bytes",
                  "name": "data",
                  "type": "bytes"
                },
                {
                  "internalType": "uint256",
                  "name": "flags",
                  "type": "uint256"
                }
              ],
              "internalType": "struct CCIPBatcher.Lookup[]",
              "name": "lookups",
              "type": "tuple[]"
            },
            {
              "internalType": "string[]",
              "name": "gateways",
              "type": "string[]"
            }
          ],
          "internalType": "struct CCIPBatcher.Batch",
          "name": "batch",
          "type": "tuple"
        }
      ],
      "stateMutability": "view",
      "type": "function"
    },
    {
      "inputs": [
        {
          "internalType": "bytes",
          "name": "response",
          "type": "bytes"
        },
        {
          "internalType": "bytes",
          "name": "extraData",
          "type": "bytes"
        }
      ],
      "name": "ccipReadCallback",
      "outputs": [],
      "stateMutability": "view",
      "type": "function"
    },
    {
      "inputs": [
        {
          "internalType": "bytes",
          "name": "name",
          "type": "bytes"
        }
      ],
      "name": "getDNSSECRecords",
      "outputs": [
        {
          "internalType": "bytes[]",
          "name": "",
          "type": "bytes[]"
        }
      ],
      "stateMutability": "view",
      "type": "function"
    },
    {
      "inputs": [
        {
          "internalType": "bytes",
          "name": "response",
          "type": "bytes"
        },
        {
          "internalType": "bytes",
          "name": "name",
          "type": "bytes"
        }
      ],
      "name": "getDNSSECRecordsCallback",
      "outputs": [
        {
          "internalType": "bytes[]",
          "name": "txts",
          "type": "bytes[]"
        }
      ],
      "stateMutability": "view",
      "type": "function"
    },
    {
      "inputs": [
        {
          "internalType": "bytes",
          "name": "name",
          "type": "bytes"
        }
      ],
      "name": "getResolver",
      "outputs": [
        {
          "internalType": "address",
          "name": "",
          "type": "address"
        },
        {
          "internalType": "bool",
          "name": "",
          "type": "bool"
        }
      ],
      "stateMutability": "view",
      "type": "function"
    },
    {
      "inputs": [
        {
          "internalType": "bytes",
          "name": "response",
          "type": "bytes"
        },
        {
          "internalType": "bytes",
          "name": "name",
          "type": "bytes"
        }
      ],
      "name": "getResolverCallback",
      "outputs": [
        {
          "internalType": "address",
          "name": "",
          "type": "address"
        },
        {
          "internalType": "bool",
          "name": "",
          "type": "bool"
        }
      ],
      "stateMutability": "view",
      "type": "function"
    },
    {
      "inputs": [
        {
          "internalType": "bytes",
          "name": "txt",
          "type": "bytes"
        }
      ],
      "name": "parseDNSSECRecord",
      "outputs": [
        {
          "internalType": "address",
          "name": "resolver",
          "type": "address"
        },
        {
          "internalType": "bytes",
          "name": "context",
          "type": "bytes"
        }
      ],
      "stateMutability": "view",
      "type": "function"
    },
    {
      "inputs": [
        {
          "internalType": "bytes",
          "name": "name",
          "type": "bytes"
        }
      ],
      "name": "requiresOffchain",
      "outputs": [
        {
          "internalType": "bool",
          "name": "offchain",
          "type": "bool"
        }
      ],
      "stateMutability": "view",
      "type": "function"
    },
    {
      "inputs": [
        {
          "internalType": "bytes",
          "name": "name",
          "type": "bytes"
        },
        {
          "internalType": "bytes",
          "name": "data",
          "type": "bytes"
        }
      ],
      "name": "resolve",
      "outputs": [
        {
          "internalType": "bytes",
          "name": "",
          "type": "bytes"
        }
      ],
      "stateMutability": "view",
      "type": "function"
    },
    {
      "inputs": [
        {
          "internalType": "bytes",
          "name": "response",
          "type": "bytes"
        },
        {
          "internalType": "bytes",
          "name": "extraData",
          "type": "bytes"
        }
      ],
      "name": "resolveBatchCallback",
      "outputs": [
        {
          "internalType": "bytes",
          "name": "",
          "type": "bytes"
        }
      ],
      "stateMutability": "pure",
      "type": "function"
    },
    {
      "inputs": [
        {
          "internalType": "bytes",
          "name": "response",
          "type": "bytes"
        },
        {
          "internalType": "bytes",
          "name": "",
          "type": "bytes"
        }
      ],
      "name": "resolveDirectImmediateCallback",
      "outputs": [
        {
          "internalType": "bytes",
          "name": "",
          "type": "bytes"
        }
      ],
      "stateMutability": "pure",
      "type": "function"
    },
    {
      "inputs": [
        {
          "internalType": "bytes",
          "name": "response",
          "type": "bytes"
        },
        {
          "internalType": "bytes",
          "name": "extraData",
          "type": "bytes"
        }
      ],
      "name": "resolveOracleCallback",
      "outputs": [
        {
          "internalType": "bytes",
          "name": "",
          "type": "bytes"
        }
      ],
      "stateMutability": "view",
      "type": "function"
    },
    {
      "inputs": [
        {
          "internalType": "bytes4",
          "name": "feature",
          "type": "bytes4"
        }
      ],
      "name": "supportsFeature",
      "outputs": [
        {
          "internalType": "bool",
          "name": "",
          "type": "bool"
        }
      ],
      "stateMutability": "pure",
      "type": "function"
    },
    {
      "inputs": [
        {
          "internalType": "bytes4",
          "name": "interfaceId",
          "type": "bytes4"
        }
      ],
      "name": "supportsInterface",
      "outputs": [
        {
          "internalType": "bool",
          "name": "",
          "type": "bool"
        }
      ],
      "stateMutability": "view",
      "type": "function"
    },
    {
      "inputs": [
        {
          "internalType": "bytes",
          "name": "name",
          "type": "bytes"
        }
      ],
      "name": "verifierMetadata",
      "outputs": [
        {
          "internalType": "address",
          "name": "verifier",
          "type": "address"
        },
        {
          "internalType": "string[]",
          "name": "gateways",
          "type": "string[]"
        }
      ],
      "stateMutability": "view",
      "type": "function"
    }
  ],
  "contractName": "DNSTLDResolver",
  "sourceName": "src/dns/DNSTLDResolver.sol",
  "bytecode": "0x610160604052348015610010575f80fd5b5060405161447438038061447483398101604081905261002f9161007c565b61c3506080526001600160a01b0395861660a05293851660c05291841660e05283166101005282166101205216610140526100ff565b6001600160a01b0381168114610079575f80fd5b50565b5f805f805f8060c08789031215610091575f80fd5b865161009c81610065565b60208801519096506100ad81610065565b60408801519095506100be81610065565b60608801519094506100cf81610065565b60808801519093506100e081610065565b60a08801519092506100f181610065565b809150509295509295509295565b60805160a05160c05160e0516101005161012051610140516142d06101a45f395f818161022c01528181610a93015261132401525f81816103b001528181610b0e01528181610cc10152818161140801526114f101525f818161044601528181610535015281816113e50152611c9401525f818161038901526121e701525f81816102fb0152611c2c01525f818161028f0152611bfd01525f611dd901526142d05ff3fe608060405234801561000f575f80fd5b5060043610610184575f3560e01c80639cf82aa5116100dd578063e9187d0111610088578063ef46c0b811610063578063ef46c0b814610419578063f394443a1461042e578063f8c8761314610441575f80fd5b8063e9187d01146103d2578063ed57d294146103e5578063eea330f914610406575f80fd5b8063c4314175116100b8578063c431417514610363578063c92cc49a14610384578063d93fea04146103ab575f80fd5b80639cf82aa51461031d5780639f28e99d14610330578063b536af7614610350575f80fd5b80636ccb86601161013d578063833d6ba711610118578063833d6ba7146102b15780639061b923146102e35780639ad59435146102f6575f80fd5b80636ccb8660146102275780636d6dd540146102665780637f4c88f61461028a575f80fd5b806329476d8a1161016d57806329476d8a146101d0578063491fc4f9146101e3578063582de3e714610203575f80fd5b806301ffc9a71461018857806319b4949c146101b0575b5f80fd5b61019b610196366004613012565b610468565b60405190151581526020015b60405180910390f35b6101c36101be36600461306b565b610521565b6040516101a79190613100565b61019b6101de366004613162565b61074a565b6101f66101f136600461306b565b6107a4565b6040516101a791906131a1565b61019b610211366004613012565b6001600160e01b0319166312d6c5b760e31b1490565b61024e7f000000000000000000000000000000000000000000000000000000000000000081565b6040516001600160a01b0390911681526020016101a7565b61027c61027436600461306b565b509192909150565b6040516101a79291906131db565b61024e7f000000000000000000000000000000000000000000000000000000000000000081565b6102c46102bf36600461306b565b610942565b604080516001600160a01b0390931683529015156020830152016101a7565b6101f66102f136600461306b565b610996565b61024e7f000000000000000000000000000000000000000000000000000000000000000081565b6101c361032b366004613162565b610c39565b61034361033e3660046133fd565b610dc1565b6040516101a791906135bd565b61034361035e36600461306b565b610f82565b610376610371366004613686565b6111d1565b6040516101a79291906136b8565b61024e7f000000000000000000000000000000000000000000000000000000000000000081565b61024e7f000000000000000000000000000000000000000000000000000000000000000081565b6101f66103e036600461306b565b6112ca565b6103f86103f3366004613162565b61138a565b6040516101a79291906136d9565b6102c4610414366004613162565b611492565b61042c6104273660046136fa565b6115f1565b005b6101f661043c366004613772565b611676565b61024e7f000000000000000000000000000000000000000000000000000000000000000081565b5f639061b92360e01b6001600160e01b0319831614806104b157507fc7e45d73000000000000000000000000000000000000000000000000000000006001600160e01b03198316145b806104e557507fed57d294000000000000000000000000000000000000000000000000000000006001600160e01b03198316145b80610500575063582de3e760e01b6001600160e01b03198316145b8061051b57506301ffc9a760e01b6001600160e01b03198316145b92915050565b60605f61053085870187613837565b90505f7f00000000000000000000000000000000000000000000000000000000000000006001600160a01b031663bdf95fef836040518263ffffffff1660e01b815260040161057f9190613936565b5f60405180830381865afa158015610599573d5f803e3d5ffd5b505050506040513d5f823e601f3d908101601f191682016040526105c09190810190613a0f565b5090505f806105cf835f611986565b90505b8051516020820151101561063e5761061f8188888080601f0160208091040260200160405190810160405280939291908181526020018383808284375f920191909152506119e192505050565b156106305761062d82613a7a565b91505b61063981611a26565b6105d2565b508067ffffffffffffffff811115610658576106586131ee565b60405190808252806020026020018201604052801561068b57816020015b60608152602001906001900390816106765790505b5093505f90505f61069c835f611986565b90505b8051516020820151101561073e576106ec8188888080601f0160208091040260200160405190810160405280939291908181526020018383808284375f920191909152506119e192505050565b1561073057610707815f01518260a001518360c00151611b0b565b858361071281613a7a565b94508151811061072457610724613a92565b60200260200101819052505b61073981611a26565b61069f565b50505050949350505050565b5f806001600160a01b031661079384848080601f0160208091040260200160405190810160405280939291908181526020018383808284375f92019190915250611bf792505050565b6001600160a01b0316149392505050565b60605f6107b3858701876133fd565b5190505f806107c485870187613aa6565b9150915081156108d1575f835167ffffffffffffffff8111156107e9576107e96131ee565b60405190808252806020026020018201604052801561081c57816020015b60608152602001906001900390816108075790505b5090505f5b84518110156108a5575f85828151811061083d5761083d613a92565b602002602001015190505f8160400151905084801561086157506060820151600e16155b1561087d578080602001905181019061087a9190613ad2565b90505b8084848151811061089057610890613a92565b60209081029190910101525050600101610821565b50806040516020016108b79190613100565b60405160208183030381529060405294505050505061093a565b5f835f815181106108e4576108e4613a92565b60209081029190910101516040810151606082015191925090600e161561090d57805160208201fd5b821561092a57808060200190518101906109279190613ad2565b90505b945061093a9350505050565b5050505b949350505050565b5f805f61098785858080601f0160208091040260200160405190810160405280939291908181526020018383808284375f920191909152508b92508a9150611c7f9050565b50976001975095505050505050565b60605f6109d786868080601f0160208091040260200160405190810160405280939291908181526020018383808284375f92019190915250611bf792505050565b90506001600160a01b03811615610b0b57610b038187878080601f0160208091040260200160405190810160405280939291908181526020018383808284375f9201919091525050604080516020601f8b0181900481028201810190925289815292508991508890819084018382808284375f9201829052506040805160208101825282815281517f093a86d3000000000000000000000000000000000000000000000000000000008152915192955093506001600160a01b037f000000000000000000000000000000000000000000000000000000000000000016925063093a86d391600480830192879291908290030181865afa158015610adc573d5f803e3d5ffd5b505050506040513d5f823e601f3d908101601f1916820160405261043c9190810190613b92565b91505061093a565b307f00000000000000000000000000000000000000000000000000000000000000006001600160a01b031663093a86d36040518163ffffffff1660e01b81526004015f60405180830381865afa158015610b67573d5f803e3d5ffd5b505050506040513d5f823e601f3d908101601f19168201604052610b8e9190810190613b92565b87876010604051602401610ba493929190613bc4565b60408051601f19818403018152918152602080830180516001600160e01b03166331b137b960e01b17905290517fe9187d010000000000000000000000000000000000000000000000000000000091610c05918c918c918c918c9101613beb565b60408051601f1981840301815290829052630556f18360e41b8252610c309594939291600401613c11565b60405180910390fd5b60605f610c7a84848080601f0160208091040260200160405190810160405280939291908181526020018383808284375f92019190915250611bf792505050565b90506001600160a01b03811615610cbe57604080515f8082526020820190925290610cb5565b6060815260200190600190039081610ca05790505b5091505061051b565b307f00000000000000000000000000000000000000000000000000000000000000006001600160a01b031663093a86d36040518163ffffffff1660e01b81526004015f60405180830381865afa158015610d1a573d5f803e3d5ffd5b505050506040513d5f823e601f3d908101601f19168201604052610d419190810190613b92565b85856010604051602401610d5793929190613bc4565b60408051601f198184030181529181526020820180516001600160e01b03166331b137b960e01b17905251630556f18360e41b8152610c30939291907f19b4949c000000000000000000000000000000000000000000000000000000009089908990600401613c74565b60408051808201909152606080825260208201525f5b825151811015610f74575f835f01518281518110610df757610df7613a92565b6020026020010151905060408160600151165f14610e155750610f6c565b60608101516030165f03610ebf575f610e30825f0151611d93565b610e3b576010610e3e565b60205b9050825b855151811015610ebc57825f01516001600160a01b0316865f01518281518110610e6e57610e6e613a92565b60200260200101515f01516001600160a01b031603610eb45781865f01518281518110610e9d57610e9d613a92565b602002602001015160600181815117915081815250505b600101610e42565b50505b5f60208260600151165f1490505f80610ee18315855f01518660200151611dc5565b9150915081158015610f0b5750630556f18360e41b610eff82613ccc565b6001600160e01b031916145b15610f20576060840180516001179052610f60565b6060840180516040179052828015610f3757508051155b610f4c5781610f4c5760608401805160021790525b80515f03610f605760608401805160081790525b60409093019290925250505b600101610dd7565b50610f7e82611e58565b5090565b60408051808201909152606080825260208201525f80610fa486880188613d7e565b915091508051825114610fca5760405163252e18f560e11b815260040160405180910390fd5b610fd6848601866133fd565b92505f805b8451518110156111a6575f855f01518281518110610ffb57610ffb613a92565b6020026020010151905060408160600151165f0361119d578351831015611191575f84848151811061102f5761102f613a92565b6020026020010151905085848151811061104b5761104b613a92565b60200260200101511561106857606082018051604417905261118b565b5f6110768360400151612018565b90505f815f01516001600160a01b031682606001518484608001516040516024016110a2929190613e30565b60408051601f198184030181529181526020820180516001600160e01b03166001600160e01b03199094169390931790925290516110e09190613e54565b5f60405180830381855afa9150503d805f8114611118576040519150601f19603f3d011682016040523d82523d5f602084013e61111d565b606091505b509350905080806111475750630556f18360e41b61113a84613ccc565b6001600160e01b03191614155b1561118857606084018051604017905280158061116357508251155b156111745760608401805160021790525b82515f036111885760608401805160081790525b50505b60408201525b61119a83613a7a565b92505b50600101610fdb565b50815181146111c85760405163252e18f560e11b815260040160405180910390fd5b61093684611e58565b5f60605f60405180604001604052806005815260200164022a72998960dd1b8152505190505f84519050818111801561122f575061122f855f60405180604001604052806005815260200164022a72998960dd1b8152505f8661205c565b156112c3575f61126a86846112448186613e6a565b7f200000000000000000000000000000000000000000000000000000000000000061207e565b9050818110156112a55761129e86611283836001613e7d565b600161128f8587613e6a565b6112999190613e6a565b6120fe565b93506112a8565b50805b6112bf6112ba87856112998186613e6a565b612153565b9450505b5050915091565b60605f806112da848601866136fa565b915091505f806112eb848a8a611c7f565b90925090506001600160a01b0382166113195783604051635fe9a5df60e01b8152600401610c3091906131a1565b61137d8285856001857f00000000000000000000000000000000000000000000000000000000000000006001600160a01b031663093a86d36040518163ffffffff1660e01b81526004015f60405180830381865afa158015610adc573d5f803e3d5ffd5b9998505050505050505050565b5f60605f6001600160a01b03166113d585858080601f0160208091040260200160405190810160405280939291908181526020018383808284375f92019190915250611bf792505050565b6001600160a01b03160361148b577f000000000000000000000000000000000000000000000000000000000000000091507f00000000000000000000000000000000000000000000000000000000000000006001600160a01b031663093a86d36040518163ffffffff1660e01b81526004015f60405180830381865afa158015611461573d5f803e3d5ffd5b505050506040513d5f823e601f3d908101601f191682016040526114889190810190613b92565b90505b9250929050565b5f805f6114d385858080601f0160208091040260200160405190810160405280939291908181526020018383808284375f92019190915250611bf792505050565b90506001600160a01b038116156114ee5791505f905061148b565b307f00000000000000000000000000000000000000000000000000000000000000006001600160a01b031663093a86d36040518163ffffffff1660e01b81526004015f60405180830381865afa15801561154a573d5f803e3d5ffd5b505050506040513d5f823e601f3d908101601f191682016040526115719190810190613b92565b8686601060405160240161158793929190613bc4565b60408051601f198184030181529181526020820180516001600160e01b03166331b137b960e01b17905251630556f18360e41b8152610c30939291907f833d6ba700000000000000000000000000000000000000000000000000000000908a908a90600401613c74565b5f818060200190518101906116069190613ea6565b9050611671815f0151826020015185846040015160405160240161162b929190613e30565b60408051601f198184030181529190526020810180516001600160e01b03166001600160e01b0319909316929092179091526060840151608085015160a08601516122a1565b505050565b6060866001600160a01b03163b5f036116a45785604051635fe9a5df60e01b8152600401610c3091906131a1565b5f7fac9650d8000000000000000000000000000000000000000000000000000000006116cf87613ccc565b6001600160e01b0319161490505f8580156116f657506116f68963477cc53f60e11b612464565b90505f818061171157506117118a639061b92360e01b612464565b90506117248a63582de3e760e01b612464565b80156117a857508215806117a857508080156117a8575060405163582de3e760e01b81526312d6c5b760e31b60048201526001600160a01b038b169063582de3e790602401602060405180830381865afa158015611784573d5f803e3d5ffd5b505050506040513d601f19601f820116820180604052508101906117a89190613f75565b156117f25780156117cd576117c88a6117c3848c8c8b6124ea565b61257c565b6117f2565b6117f28a89636d6dd54060e01b5f60e01b60405180602001604052805f8152506122a1565b606083156118275761180d896004808c516112999190613e6a565b8060200190518101906118209190613f90565b9050611872565b60408051600180825281830190925290816020015b606081526020019060019003908161183c57905050905088815f8151811061186657611866613a92565b60200260200101819052505b81156118cf575f5b81518110156118cd576118a8848c84848151811061189a5761189a613a92565b60200260200101518b6124ea565b8282815181106118ba576118ba613a92565b602090810291909101015260010161187a565b505b6119783080639f28e99d6118e48f868c6125a1565b6040516024016118f491906135bd565b60408051601f19818403018152918152602080830180516001600160e01b031660e09590951b94909417909352519092507f491fc4f900000000000000000000000000000000000000000000000000000000915f91611964918b918a910191151582521515602082015260400190565b6040516020818303038152906040526122a1565b505050509695505050505050565b6119ce6040518060e00160405280606081526020015f81526020015f61ffff1681526020015f61ffff1681526020015f63ffffffff1681526020015f81526020015f81525090565b82815260c0810182905261051b81611a26565b60608201515f9061ffff166001148015611a035750604083015161ffff166010145b8015611a1f5750611a1f835f01518460200151845f865161205c565b9392505050565b60c08101516020820181905281515111611a3d5750565b5f611a4f825f015183602001516126b6565b8260200151611a5e9190613e7d565b8251909150611a6d908261270d565b61ffff166040830152611a81600282613e7d565b8251909150611a90908261270d565b61ffff166060830152611aa4600282613e7d565b8251909150611ab3908261272e565b63ffffffff166080830152611ac9600482613e7d565b82519091505f90611ada908361270d565b61ffff169050611aeb600283613e7d565b60a084018190529150611afe8183613e7d565b60c0909301929092525050565b60608351821115611b2f5760405163f4ba19b760e01b815260040160405180910390fd5b611b398383613e6a565b67ffffffffffffffff811115611b5157611b516131ee565b6040519080825280601f01601f191660200182016040528015611b7b576020820181803683370190505b50928401602090810193928501810192915081015b82841015611bce5783515f1a6001850194508015611bc85780850184811115611bbd575f94505050611bce565b8186845e9450908101905b50611b90565b602082018103825250818314611a1f5760405163f4ba19b760e01b815260040160405180910390fd5b5f611c237f0000000000000000000000000000000000000000000000000000000000000000835f61274a565b905050809150507f00000000000000000000000000000000000000000000000000000000000000006001600160a01b0316816001600160a01b03161480611c7257506001600160a01b03811630145b15611c7a57505f5b919050565b5f606081611c8f84860186613837565b90505f7f00000000000000000000000000000000000000000000000000000000000000006001600160a01b031663bdf95fef836040518263ffffffff1660e01b8152600401611cde9190613936565b5f60405180830381865afa158015611cf8573d5f803e3d5ffd5b505050506040513d5f823e601f3d908101601f19168201604052611d1f9190810190613a0f565b5090505f611d2d825f611986565b90505b80515160208201511015611d8857611d4881896119e1565b15611d7a57611d66610371825f01518360a001518460c00151611b0b565b90955093506001600160a01b038516611d88575b611d8381611a26565b611d30565b505050935093915050565b5f306001600160a01b03831603611dac57506001919050565b6113885a5f805f808786fa50815a909103109392505050565b5f6060836001600160a01b031685611dfd577f0000000000000000000000000000000000000000000000000000000000000000611dff565b5a5b84604051611e0d9190613e54565b5f604051808303818686fa925050503d805f8114611e46576040519150601f19603f3d011682016040523d82523d5f602084013e611e4b565b606091505b5090969095509350505050565b8051515f9067ffffffffffffffff811115611e7557611e756131ee565b604051908082528060200260200182016040528015611ed257816020015b611ebf60405180606001604052805f6001600160a01b0316815260200160608152602001606081525090565b815260200190600190039081611e935790505b5090505f805b835151811015611f83575f845f01518281518110611ef857611ef8613a92565b6020026020010151905060408160600151165f03611f7a575f611f1e8260400151612018565b90506040518060600160405280825f01516001600160a01b03168152602001826020015181526020018260400151815250858580611f5b90613a7a565b965081518110611f6d57611f6d613a92565b6020026020010181905250505b50600101611ed8565b5080156116715780825230836020015183604051602401611fa4919061402d565b60408051601f19818403018152918152602080830180516001600160e01b03167fa780bab60000000000000000000000000000000000000000000000000000000017905290517fb536af760000000000000000000000000000000000000000000000000000000091610c05918991016135bd565b6040805160a0810182525f80825260606020830181905292820183905282820152608081019190915261051b6120578360048086516112999190613e6a565b612846565b5f6120688484846128b1565b6120738787856128b1565b149695505050505050565b5f8061208a8486613e7d565b90505b808510156120f257826001600160f81b0319168686815181106120b2576120b2613a92565b01602001517fff0000000000000000000000000000000000000000000000000000000000000016036120e7578491505061093a565b60019094019361208d565b505f1995945050505050565b60608167ffffffffffffffff811115612119576121196131ee565b6040519080825280601f01601f191660200182016040528015612143576020820181803683370190505b509050611a1f8484835f866128ca565b5f8151602a1480156121ad5750612169826140b9565b7dffffffffffffffffffffffffffffffffffffffffffffffffffffffffffff19167f3078000000000000000000000000000000000000000000000000000000000000145b156121d5575f806121c1846002602a612902565b9150915080156121d2575092915050565b50505b5f6121df8361293a565b90505f61220d7f0000000000000000000000000000000000000000000000000000000000000000835f612afc565b5090925050506001600160a01b0381161561229a57806001600160a01b0316633b3b57de61223b845f612c81565b6040518263ffffffff1660e01b815260040161225991815260200190565b602060405180830381865afa925050508015612292575060408051601f3d908101601f1916820190925261228f91810190614104565b60015b1561229a5792505b5050919050565b5f806122b66122af88611d93565b8888611dc5565b91509150811580156122e05750630556f18360e41b6122d482613ccc565b6001600160e01b031916145b1561238e575f6122ef82612018565b9050876001600160a01b0316815f01516001600160a01b03160361238c57308160200151826040015163ef46c0b860e01b6040518060c001604052808d6001600160a01b0316815260200186606001516001600160e01b0319168152602001866080015181526020018b6001600160e01b03191681526020018a6001600160e01b031916815260200189815250604051602001610c05919061411f565b505b5f8261239a578461239c565b855b90506001600160e01b031981161561244e57306001600160a01b03168183866040516024016123cc929190613e30565b60408051601f198184030181529181526020820180516001600160e01b03166001600160e01b031990941693909317909252905161240a9190613e54565b5f60405180830381855afa9150503d805f8114612442576040519150601f19603f3d011682016040523d82523d5f602084013e612447565b606091505b5090935091505b821561245c57815160208301f35b815160208301fd5b604080516001600160e01b03198316602480830191909152825180830390910181526044909101909152602080820180516001600160e01b03166301ffc9a760e01b17815282515f9392849283928392918391908a617530fa92503d91505f5190508280156124d4575060208210155b80156124df57505f81115b979650505050505050565b606084612533578383604051602401612504929190613e30565b60408051601f198184030181529190526020810180516001600160e01b0316639061b92360e01b179052612573565b8383836040516024016125489392919061419b565b60408051601f198184030181529190526020810180516001600160e01b031663477cc53f60e11b1790525b95945050505050565b61259d82825f60e01b5f60e01b60405180602001604052805f8152506122a1565b5050565b60408051808201909152606080825260208201525f835167ffffffffffffffff8111156125d0576125d06131ee565b60405190808252806020026020018201604052801561263357816020015b61262060405180608001604052805f6001600160a01b0316815260200160608152602001606081526020015f81525090565b8152602001906001900390816125ee5790505b5090505f5b8451811015612699575f82828151811061265457612654613a92565b60209081029190910101516001600160a01b0388168152865190915086908390811061268257612682613a92565b602090810291909101810151910152600101612638565b506040805180820190915290815260208101929092525092915050565b5f815b835181106126c9576126c96141dd565b5f6126d48583612cb2565b60ff1690506126e4816001613e7d565b6126ee9083613e7d565b9150805f036126fd5750612703565b506126b9565b61093a8382613e6a565b5f6127228361271d846002613e7d565b612ce4565b50016020015160f01c90565b5f61273e8361271d846004613e7d565b50016020015160e01c90565b5f805f805f6127598787612d2c565b9092509050811561283a575f805f6127728b8b8661274a565b92509250925061278b82865f9182526020526040902090565b6040517f0178b8bf000000000000000000000000000000000000000000000000000000008152600481018290529097506001600160a01b038c1690630178b8bf90602401602060405180830381865afa1580156127ea573d5f803e3d5ffd5b505050506040513d601f19601f8201168201806040525081019061280e9190614104565b97506001600160a01b0388166128265782878261282a565b87878a5b975097509750505050505061283d565b50505b93509350939050565b6040805160a0810182525f8082526060602083018190529282018390528282015260808101919091528180602001905181019061288391906141f1565b60808601526001600160e01b0319166060850152604084015260208301526001600160a01b03168152919050565b5f6128c08461271d8486613e7d565b5091016020012090565b6128d88561271d8387613e7d565b6128e68361271d8385613e7d565b6128fb82602085010185602088010183612d59565b5050505050565b5f8082612910856028613e7d565b1461291f57505f905080612932565b5f61292b868686612da2565b9093509150505b935093915050565b80516060905f81900361296257505060408051808201909152600181525f6020820152919050565b8060020167ffffffffffffffff81111561297e5761297e6131ee565b6040519080825280601f01601f1916602001820160405280156129a8576020820181803683370190505b5091506129bc602183016020850183612d59565b5f805f5b83811015612a95578581815181106129da576129da613a92565b01602001517fff00000000000000000000000000000000000000000000000000000000000000167f2e0000000000000000000000000000000000000000000000000000000000000003612a8d578281039150815f1480612a3a575060ff82115b15612a5a5785604051639a4c3e3b60e01b8152600401610c3091906131a1565b8160f81b858481518110612a7057612a70613a92565b60200101906001600160f81b03191690815f1a9053508060010192505b6001016129c0565b505080820382821480612aa8575060ff81115b15612ac85784604051639a4c3e3b60e01b8152600401610c3091906131a1565b8060f81b848381518110612ade57612ade613a92565b60200101906001600160f81b03191690815f1a905350505050919050565b5f805f805f80612b0c8888612d2c565b909250905081612b2a57508794505f9350839250859150612c789050565b612b35898983612afc565b929850909650945092506001600160a01b03861615612c69575f612b598989612e14565b5090505f876001600160a01b031663e4ae7d77836040518263ffffffff1660e01b8152600401612b8991906131a1565b602060405180830381865afa158015612ba4573d5f803e3d5ffd5b505050506040513d601f19601f82011682018060405250810190612bc89190614104565b90506001600160a01b03811615612be0578096508894505b6040517f35af62160000000000000000000000000000000000000000000000000000000081526001600160a01b038916906335af621690612c259085906004016131a1565b602060405180830381865afa158015612c40573d5f803e3d5ffd5b505050506040513d601f19601f82011682018060405250810190612c649190614104565b975050505b505f9283526020526040909120905b93509350935093565b5f612c8c8383612d2c565b92509050801561051b57611a1f612ca38484612c81565b825f9182526020526040902090565b5f612cc28361271d846001613e7d565b828281518110612cd457612cd4613a92565b016020015160f81c905092915050565b815181111561259d5781516040517f8a3c1cfb000000000000000000000000000000000000000000000000000000008152610c30918391600401918252602082015260400190565b5f805f612d398585612e91565b9250905060ff811615612d5157806021858701012092505b509250929050565b5b601f811115612d7a578151835260209283019290910190601f1901612d5a565b80156116715790518251600160209390930360031b9290921b5f190180199091169116179052565b5f8083831015612db657505f905080612932565b5f612dc18585613e6a565b90506040811180612dd25750855184115b15612de357505f9150819050612932565b858501602001612df4815f84612f0e565b92506001820160011c6020035f518160031b1c9450505050935093915050565b60605f80612e228585612e91565b925090505f60ff821667ffffffffffffffff811115612e4357612e436131ee565b6040519080825280601f01601f191660200182016040528015612e6d576020820181803683370190505b509050612e866020820160218888010160ff8516612d59565b959194509092505050565b5f8083518310612eb6578360405163ba4adc2360e01b8152600401610c3091906131a1565b838381518110612ec857612ec8613a92565b016020015160f81c91505081810160010181612ee8578351811415612eee565b83518110155b1561148b578360405163ba4adc2360e01b8152600401610c3091906131a1565b5f612f6c565b811a5f602f8211603a83101615612f305750602f19810161051b565b60478210604083111615612f495750603619810161051b565b60678210606083111615612f625750605619810161051b565b5061010092915050565b50600183820182821615612fa657612f855f8651612f14565b80855360018601955060018501945060ff811115612fa4575f92508195505b505b80851015612ff2578451612fbb600182612f14565b612fc55f83612f14565b60041b17905060ff811115612fdd575f925050612ff2565b80855350600285019450600184019350612fa6565b509392505050565b6001600160e01b03198116811461300f575f80fd5b50565b5f60208284031215613022575f80fd5b8135611a1f81612ffa565b5f8083601f84011261303d575f80fd5b50813567ffffffffffffffff811115613054575f80fd5b60208301915083602082850101111561148b575f80fd5b5f805f806040858703121561307e575f80fd5b843567ffffffffffffffff80821115613095575f80fd5b6130a18883890161302d565b909650945060208701359150808211156130b9575f80fd5b506130c68782880161302d565b95989497509550505050565b5f81518084528060208401602086015e5f602082860101526020601f19601f83011685010191505092915050565b5f60208083016020845280855180835260408601915060408160051b8701019250602087015f5b8281101561315557603f198886030184526131438583516130d2565b94509285019290850190600101613127565b5092979650505050505050565b5f8060208385031215613173575f80fd5b823567ffffffffffffffff811115613189575f80fd5b6131958582860161302d565b90969095509350505050565b602081525f611a1f60208301846130d2565b81835281816020850137505f828201602090810191909152601f909101601f19169091010190565b602081525f61093a6020830184866131b3565b634e487b7160e01b5f52604160045260245ffd5b6040805190810167ffffffffffffffff81118282101715613225576132256131ee565b60405290565b6040516080810167ffffffffffffffff81118282101715613225576132256131ee565b60405160c0810167ffffffffffffffff81118282101715613225576132256131ee565b604051601f8201601f1916810167ffffffffffffffff8111828210171561329a5761329a6131ee565b604052919050565b5f67ffffffffffffffff8211156132bb576132bb6131ee565b5060051b60200190565b6001600160a01b038116811461300f575f80fd5b8035611c7a816132c5565b5f67ffffffffffffffff8211156132fd576132fd6131ee565b50601f01601f191660200190565b5f61331d613318846132e4565b613271565b9050828152838383011115613330575f80fd5b828260208301375f602084830101529392505050565b5f82601f830112613355575f80fd5b611a1f8383356020850161330b565b5f82601f830112613373575f80fd5b81356020613383613318836132a2565b82815260059290921b840181019181810190868411156133a1575f80fd5b8286015b848110156133f257803567ffffffffffffffff8111156133c3575f80fd5b8701603f810189136133d3575f80fd5b6133e489868301356040840161330b565b8452509183019183016133a5565b509695505050505050565b5f602080838503121561340e575f80fd5b823567ffffffffffffffff80821115613425575f80fd5b9084019060408287031215613438575f80fd5b613440613202565b82358281111561344e575f80fd5b8301601f8101881361345e575f80fd5b803561346c613318826132a2565b81815260059190911b8201860190868101908a83111561348a575f80fd5b8784015b83811015613532578035878111156134a4575f80fd5b85016080818e03601f190112156134b9575f80fd5b6134c161322b565b8a8201356134ce816132c5565b81526040820135898111156134e1575f80fd5b6134ef8f8d83860101613346565b8c83015250606082013589811115613505575f80fd5b6135138f8d83860101613346565b604083015250608091909101356060820152835291880191880161348e565b5084525050508284013582811115613548575f80fd5b61355488828601613364565b948201949094529695505050505050565b5f8282518085526020808601955060208260051b840101602086015f5b848110156135b057601f1986840301895261359e8383516130d2565b98840198925090830190600101613582565b5090979650505050505050565b5f602080835260608084018551604080858801528282518085526080945060808901915060808160051b8a010187850194505f5b8281101561365b57607f198b830301845285516001600160a01b03815116835289810151888b850152613626898501826130d2565b9050868201518482038886015261363d82826130d2565b928b0151948b019490945250958901959389019391506001016135f1565b50968a0151898803601f190160408b0152966136778189613565565b9b9a5050505050505050505050565b5f60208284031215613696575f80fd5b813567ffffffffffffffff8111156136ac575f80fd5b61093a84828501613346565b6001600160a01b0383168152604060208201525f61093a60408301846130d2565b6001600160a01b0383168152604060208201525f61093a6040830184613565565b5f806040838503121561370b575f80fd5b823567ffffffffffffffff80821115613722575f80fd5b61372e86838701613346565b93506020850135915080821115613743575f80fd5b5061375085828601613346565b9150509250929050565b801515811461300f575f80fd5b8035611c7a8161375a565b5f805f805f8060c08789031215613787575f80fd5b613790876132d9565b9550602087013567ffffffffffffffff808211156137ac575f80fd5b6137b88a838b01613346565b965060408901359150808211156137cd575f80fd5b6137d98a838b01613346565b95506137e760608a01613767565b945060808901359150808211156137fc575f80fd5b6138088a838b01613346565b935060a089013591508082111561381d575f80fd5b5061382a89828a01613364565b9150509295509295509295565b5f6020808385031215613848575f80fd5b823567ffffffffffffffff8082111561385f575f80fd5b818501915085601f830112613872575f80fd5b8135613880613318826132a2565b81815260059190911b8301840190848101908883111561389e575f80fd5b8585015b83811015613929578035858111156138b8575f80fd5b86016040818c03601f19018113156138ce575f80fd5b6138d6613202565b89830135888111156138e6575f80fd5b6138f48e8c83870101613346565b825250908201359087821115613908575f80fd5b6139168d8b84860101613346565b818b0152855250509186019186016138a2565b5098975050505050505050565b5f60208083018184528085518083526040925060408601915060408160051b8701018488015f5b838110156139ad57888303603f1901855281518051878552613981888601826130d2565b91890151858303868b015291905061399981836130d2565b96890196945050509086019060010161395d565b509098975050505050505050565b5f6139c8613318846132e4565b90508281528383830111156139db575f80fd5b8282602083015e5f602084830101529392505050565b5f82601f830112613a00575f80fd5b611a1f838351602085016139bb565b5f8060408385031215613a20575f80fd5b825167ffffffffffffffff811115613a36575f80fd5b613a42858286016139f1565b925050602083015163ffffffff81168114613a5b575f80fd5b809150509250929050565b634e487b7160e01b5f52601160045260245ffd5b5f60018201613a8b57613a8b613a66565b5060010190565b634e487b7160e01b5f52603260045260245ffd5b5f8060408385031215613ab7575f80fd5b8235613ac28161375a565b91506020830135613a5b8161375a565b5f60208284031215613ae2575f80fd5b815167ffffffffffffffff811115613af8575f80fd5b61093a848285016139f1565b5f82601f830112613b13575f80fd5b81516020613b23613318836132a2565b82815260059290921b84018101918181019086841115613b41575f80fd5b8286015b848110156133f257805167ffffffffffffffff811115613b63575f80fd5b8701603f81018913613b73575f80fd5b613b848986830151604084016139bb565b845250918301918301613b45565b5f60208284031215613ba2575f80fd5b815167ffffffffffffffff811115613bb8575f80fd5b61093a84828501613b04565b604081525f613bd76040830185876131b3565b905061ffff83166020830152949350505050565b604081525f613bfe6040830186886131b3565b82810360208401526124df8185876131b3565b6001600160a01b038616815260a060208201525f613c3260a0830187613565565b8281036040840152613c4481876130d2565b90506001600160e01b0319851660608401528281036080840152613c6881856130d2565b98975050505050505050565b6001600160a01b038716815260a060208201525f613c9560a0830188613565565b8281036040840152613ca781886130d2565b90506001600160e01b031986166060840152828103608084015261137d8185876131b3565b5f815160208301516001600160e01b031980821693506004831015613cfb5780818460040360031b1b83161693505b505050919050565b5f82601f830112613d12575f80fd5b81356020613d22613318836132a2565b82815260059290921b84018101918181019086841115613d40575f80fd5b8286015b848110156133f257803567ffffffffffffffff811115613d62575f80fd5b613d708986838b0101613346565b845250918301918301613d44565b5f8060408385031215613d8f575f80fd5b823567ffffffffffffffff80821115613da6575f80fd5b818501915085601f830112613db9575f80fd5b81356020613dc9613318836132a2565b82815260059290921b84018101918181019089841115613de7575f80fd5b948201945b83861015613e0e578535613dff8161375a565b82529482019490820190613dec565b96505086013592505080821115613e23575f80fd5b5061375085828601613d03565b604081525f613e4260408301856130d2565b828103602084015261257381856130d2565b5f82518060208501845e5f920191825250919050565b8181038181111561051b5761051b613a66565b8082018082111561051b5761051b613a66565b8051611c7a816132c5565b8051611c7a81612ffa565b5f60208284031215613eb6575f80fd5b815167ffffffffffffffff80821115613ecd575f80fd5b9083019060c08286031215613ee0575f80fd5b613ee861324e565b613ef183613e90565b8152613eff60208401613e9b565b6020820152604083015182811115613f15575f80fd5b613f21878286016139f1565b604083015250613f3360608401613e9b565b6060820152613f4460808401613e9b565b608082015260a083015182811115613f5a575f80fd5b613f66878286016139f1565b60a08301525095945050505050565b5f60208284031215613f85575f80fd5b8151611a1f8161375a565b5f6020808385031215613fa1575f80fd5b825167ffffffffffffffff80821115613fb8575f80fd5b818501915085601f830112613fcb575f80fd5b8151613fd9613318826132a2565b81815260059190911b83018401908481019088831115613ff7575f80fd5b8585015b8381101561392957805185811115614011575f80fd5b61401f8b89838a01016139f1565b845250918601918601613ffb565b5f60208083018184528085518083526040925060408601915060408160051b8701018488015f5b838110156139ad57603f19898403018552815160606001600160a01b03825116855288820151818a87015261408b82870182613565565b915050878201519150848103888601526140a581836130d2565b968901969450505090860190600101614054565b5f815160208301517fffff00000000000000000000000000000000000000000000000000000000000080821693506002831015613cfb5760029290920360031b82901b161692915050565b5f60208284031215614114575f80fd5b8151611a1f816132c5565b602081526001600160a01b0382511660208201525f60208301516001600160e01b031980821660408501526040850151915060c0606085015261416560e08501836130d2565b91508060608601511660808501528060808601511660a08501525060a0840151601f198483030160c085015261257382826130d2565b606081525f6141ad60608301866130d2565b82810360208401526141bf81866130d2565b905082810360408401526141d381856130d2565b9695505050505050565b634e487b7160e01b5f52600160045260245ffd5b5f805f805f60a08688031215614205575f80fd5b8551614210816132c5565b602087015190955067ffffffffffffffff8082111561422d575f80fd5b61423989838a01613b04565b9550604088015191508082111561424e575f80fd5b61425a89838a016139f1565b94506060880151915061426c82612ffa565b608088015191935080821115614280575f80fd5b5061428d888289016139f1565b915050929550929590935056fea2646970667358221220bc259f69cdf0833870993e13cadfdc6ccebbf788e63fbc0bfcc978527f109bd164736f6c63430008190033",
  "linkReferences": {},
  "deployedLinkReferences": {},
  "immutableReferences": {
    "1090": [
      {
        "length": 32,
        "start": 7641
      }
    ],
    "14406": [
      {
        "length": 32,
        "start": 655
      },
      {
        "length": 32,
        "start": 7165
      }
    ],
    "14408": [
      {
        "length": 32,
        "start": 763
      },
      {
        "length": 32,
        "start": 7212
      }
    ],
    "14411": [
      {
        "length": 32,
        "start": 905
      },
      {
        "length": 32,
        "start": 8679
      }
    ],
    "14414": [
      {
        "length": 32,
        "start": 1094
      },
      {
        "length": 32,
        "start": 1333
      },
      {
        "length": 32,
        "start": 5093
      },
      {
        "length": 32,
        "start": 7316
      }
    ],
    "14418": [
      {
        "length": 32,
        "start": 944
      },
      {
        "length": 32,
        "start": 2830
      },
      {
        "length": 32,
        "start": 3265
      },
      {
        "length": 32,
        "start": 5128
      },
      {
        "length": 32,
        "start": 5361
      }
    ],
    "14422": [
      {
        "length": 32,
        "start": 556
      },
      {
        "length": 32,
        "start": 2707
      },
      {
        "length": 32,
        "start": 4900
      }
    ]
  },
  "inputSourceName": "project/src/dns/DNSTLDResolver.sol",
  "devdoc": {
    "errors": {
      "DNSDecodingFailed(bytes)": [
        {
          "details": "The DNS-encoded name is malformed.      Error selector: `0xba4adc23`"
        }
      ],
      "DNSEncodingFailed(string)": [
        {
          "details": "A label of the ENS name has an invalid size.      Error selector: `0x9a4c3e3b`"
        }
      ],
      "InvalidBatchGatewayResponse()": [
        {
          "details": "Error selector: `0x4a5c31ea`"
        }
      ],
      "InvalidTXT()": [
        {
          "details": "Error selector: `0xf4ba19b7`"
        }
      ],
      "OffchainLookup(address,string[],bytes,bytes4,bytes)": [
        {
          "details": "https://eips.ethereum.org/EIPS/eip-3668 Error selector: `0x556f1830`"
        }
      ],
      "OffsetOutOfBoundsError(uint256,uint256)": [
        {
          "details": "`offset` was beyond `length`.       Error selector: `0x8a3c1cfb`"
        }
      ],
      "UnreachableName(bytes)": [
        {
          "details": "`name` cannot be resolved.      Error selector: `0x5fe9a5df`",
          "params": {
            "name": "The DNS-encoded ENS name."
          }
        }
      ]
    },
    "events": {
      "VerifierChanged(bytes,address)": {
        "params": {
          "name": "The DNS-encoded name.",
          "verifier": "The new verifier contract."
        }
      }
    },
    "kind": "dev",
    "methods": {
      "callResolver(address,bytes,bytes,bool,bytes,string[])": {
        "details": "Reverts `UnreachableName` if resolver is not a contract.      This function never returns normally.      The return type is necessary to define the result of the callback.      Call this function externally or with `ccipRead()` to intercept the response.",
        "params": {
          "batchGateways": "The batch gateway URLs.",
          "context": "The context for `IExtendedDNSResolver`.",
          "data": "The calldata for the resolution.",
          "hasContext": "True if `IExtendedDNSResolver` should be considered.",
          "name": "The DNS-encoded ENS name.",
          "resolver": "The resolver to call."
        }
      },
      "ccipBatch(((address,bytes,bytes,uint256)[],string[]))": {
        "details": "Use `ccipRead()` to call this function with a batch.      The callback response will be `abi.encode(batch)`."
      },
      "ccipBatchCallback(bytes,bytes)": {
        "details": "CCIP-Read callback for `ccipBatch()`.      Updates `batch` using the batch gateway response. Reverts again if not \"done\".",
        "params": {
          "extraData": "The contextual data passed from `ccipBatch()`.",
          "response": "The response from the batch gateway."
        },
        "returns": {
          "batch": "The batch where every lookup is \"done\"."
        }
      },
      "ccipReadCallback(bytes,bytes)": {
        "details": "CCIP-Read callback for `ccipRead()`.The return type of this function is polymorphic depending on the caller.",
        "params": {
          "extraData": "The contextual data passed from `ccipRead()`.",
          "response": "The response from offchain."
        }
      },
      "getDNSSECRecords(bytes)": {
        "details": "This function executes over multiple steps.",
        "params": {
          "name": "The DNS-encoded name."
        },
        "returns": {
          "_0": "The verified DNSSEC TXT records."
        }
      },
      "getResolver(bytes)": {
        "details": "This function executes over multiple steps.",
        "params": {
          "name": "The DNS-encoded name."
        },
        "returns": {
          "_0": "The underlying resolver address.",
          "_1": "`true` if `resolver` is offchain."
        }
      },
      "parseDNSSECRecord(bytes)": {
        "params": {
          "txt": "The DNSSEC TXT record."
        },
        "returns": {
          "context": "The context data.",
          "resolver": "The resolver address or null if wrong format or name didn't resolve."
        }
      },
      "requiresOffchain(bytes)": {
        "params": {
          "name": "The DNS-encoded name."
        },
        "returns": {
          "offchain": "`true` if requires offchain data."
        }
      },
      "resolve(bytes,bytes)": {
        "details": "This function executes over multiple steps."
      },
      "resolveBatchCallback(bytes,bytes)": {
        "details": "CCIP-Read callback for `callResolver()` from batch calling a resolver.",
        "params": {
          "extraData": "The abi-encoded properties of the call.",
          "response": "The response data from the batch gateway."
        },
        "returns": {
          "_0": "result The response from the resolver."
        }
      },
      "resolveDirectImmediateCallback(bytes,bytes)": {
        "details": "CCIP-Read callback for `callResolver()` from direct calling an immediate resolver."
      },
      "resolveOracleCallback(bytes,bytes)": {
        "params": {
          "extraData": "The contextual data passed from `resolve()`.",
          "response": "The response data."
        },
        "returns": {
          "_0": "The abi-encoded result from the resolver."
        }
      },
      "supportsFeature(bytes4)": {
        "params": {
          "featureId": "The feature identifier."
        },
        "returns": {
          "_0": "`true` if the feature is supported by the contract."
        }
      },
      "supportsInterface(bytes4)": {
        "details": "See {IERC165-supportsInterface}."
      },
      "verifierMetadata(bytes)": {
        "params": {
          "name": "The DNS-encoded name."
        },
        "returns": {
          "gateways": "The gateways used by the verifier.",
          "verifier": "The verifier contract."
        }
      }
    },
    "stateVariables": {
      "BATCH_GATEWAY_PROVIDER": {
        "details": "Shared batch gateway provider."
      },
      "ORACLE_GATEWAY_PROVIDER": {
        "details": "Shared DNSSEC oracle gateway provider."
      }
    },
    "version": 1
  },
  "evm": {
    "gasEstimates": {
      "creation": {
        "codeDepositCost": "3420800",
        "executionCost": "infinite",
        "totalCost": "infinite"
      },
      "external": {
        "BATCH_GATEWAY_PROVIDER()": "infinite",
        "DNSSEC_ORACLE()": "infinite",
        "DNS_TLD_RESOLVER_V1()": "infinite",
        "ENS_REGISTRY_V1()": "infinite",
        "ORACLE_GATEWAY_PROVIDER()": "infinite",
        "ROOT_REGISTRY()": "infinite",
        "callResolver(address,bytes,bytes,bool,bytes,string[])": "infinite",
        "ccipBatch(((address,bytes,bytes,uint256)[],string[]))": "infinite",
        "ccipBatchCallback(bytes,bytes)": "infinite",
        "ccipReadCallback(bytes,bytes)": "infinite",
        "getDNSSECRecords(bytes)": "infinite",
        "getDNSSECRecordsCallback(bytes,bytes)": "infinite",
        "getResolver(bytes)": "infinite",
        "getResolverCallback(bytes,bytes)": "infinite",
        "parseDNSSECRecord(bytes)": "infinite",
        "requiresOffchain(bytes)": "infinite",
        "resolve(bytes,bytes)": "infinite",
        "resolveBatchCallback(bytes,bytes)": "infinite",
        "resolveDirectImmediateCallback(bytes,bytes)": "infinite",
        "resolveOracleCallback(bytes,bytes)": "infinite",
        "supportsFeature(bytes4)": "463",
        "supportsInterface(bytes4)": "652",
        "verifierMetadata(bytes)": "infinite"
      },
      "internal": {
        "_determineMainnetResolver(bytes memory)": "infinite",
        "_isTXTForName(struct RRUtils.RRIterator memory,bytes memory)": "infinite",
        "_parseResolver(bytes memory)": "infinite",
        "_readTXT(bytes memory,uint256,uint256)": "infinite",
        "_verifyDNSSEC(bytes memory,bytes calldata)": "infinite"
      }
    }
  },
  "storageLayout": {
    "storage": [],
    "types": null
  },
  "userdoc": {
    "errors": {
      "InvalidBatchGatewayResponse()": [
        {
          "notice": "The batch gateway supplied an incorrect number of responses."
        }
      ],
      "InvalidTXT()": [
        {
          "notice": "Some raw TXT data was incorrectly encoded."
        }
      ]
    },
    "events": {
      "VerifierChanged(bytes,address)": {
        "notice": "The verifier contract has changed.         Use `0x00` for any name."
      }
    },
    "kind": "user",
    "methods": {
      "callResolver(address,bytes,bytes,bool,bytes,string[])": {
        "notice": "Perform forward resolution. Call this function with `ccipRead()` to intercept the response. Supports extended (`IExtendedDNSResolver` and `IExtendedResolver`) and immediate resolvers. - If extended, the calldata is not `multicall()`, and the resolver supports ENSIP-22 features,   the call is performed directly without the batch gateway. - If extended, the calldata is `multicall()`, and the resolver supports `eth.ens.resolver.extended.multicall` feature,   the call is performed directly without the batch gateway. - Otherwise, the call is performed with the batch gateway.   The batch gateway is only invoked if any call reverts `OffchainLookup`.   If the calldata is `multicall()` it is disassembled, called separately, and reassembled."
      },
      "getDNSSECRecords(bytes)": {
        "notice": "Fetch the DNSSEC TXT record.         Callers should enable EIP-3668."
      },
      "getDNSSECRecordsCallback(bytes,bytes)": {
        "notice": "CCIP-Read callback for `getDNSSECRecords()`."
      },
      "getResolver(bytes)": {
        "notice": "Fetch the underlying resolver for `name`.         Callers should enable EIP-3668. * If `offchain`, additional information is necessary to locate `resolver`. * If `resolver` is null, `offchain` is irrelevant."
      },
      "getResolverCallback(bytes,bytes)": {
        "notice": "CCIP-Read callback for `getResolver()`."
      },
      "parseDNSSECRecord(bytes)": {
        "notice": "Parse DNSSEC TXT record into parts.         Format: \"ENS1 <name-or-address> <context>\"."
      },
      "requiresOffchain(bytes)": {
        "notice": "Determine if resolving `name` requires offchain data."
      },
      "resolve(bytes,bytes)": {
        "notice": "Resolve `name` using V1 or DNSSEC.         Caller should enable EIP-3668."
      },
      "resolveOracleCallback(bytes,bytes)": {
        "notice": "CCIP-Read callback for `resolve()` from calling the DNSSEC oracle.         Reverts `UnreachableName` if no \"ENS1\" TXT record is found."
      },
      "supportsFeature(bytes4)": {
        "notice": "Check if a feature is supported."
      },
      "verifierMetadata(bytes)": {
        "notice": "Get information about the verification process.         Use ERC-165 to determine the verifier type."
      }
    },
    "notice": "Resolver that performs imported DNS fallback to V1 and gasless DNS resolution. 0. Note: an imported DNS name will not reach this resolver unless set specifically. 1. If there exists a resolver in V1, go to 4. 2. Query the DNSSEC oracle for TXT records. 3. Verify TXT records, find ENS1 record, parse resolver and context. 4. Call the resolver and return the requested records.",
    "version": 1
  },
  "argsData": "0x000000000000000000000000cf7ed3acca5a467e9e704c703e8d87f634fb0fc9000000000000000000000000a85233c63b9ee964add6f2cffe00fd84eb32338f000000000000000000000000610178da211fef7d417bc0e6fed39f05609ad7880000000000000000000000009a9f2ccfde556a7e9ff0848998aa4a0cfd8863ae0000000000000000000000005fbdb2315678afecb367f032d93f642f64180aa3000000000000000000000000dc64a140aa3e981100a9beca4e685f962f0cf6c9",
  "transaction": {
    "hash": "0x004f933b4477a6ef3ee6835ec5022be868b6062067f2ef585f029bec32f61945",
    "nonce": "0x1b",
    "origin": "0xf39fd6e51aad88f6f4ce6ab8827279cfffb92266"
  }
}