{
  "address": "0x4c4a2f8c81640e47606d3fd77b353e87ba015584",
  "abi": [
    {
      "inputs": [
        {
          "internalType": "int256",
          "name": "_value",
          "type": "int256"
        }
      ],
      "stateMutability": "nonpayable",
      "type": "constructor"
    },
    {
      "inputs": [],
      "name": "latestAnswer",
      "outputs": [
        {
          "internalType": "int256",
          "name": "",
          "type": "int256"
        }
      ],
      "stateMutability": "view",
      "type": "function"
    },
    {
      "inputs": [
        {
          "internalType": "int256",
          "name": "_value",
          "type": "int256"
        }
      ],
      "name": "set",
      "outputs": [],
      "stateMutability": "nonpayable",
      "type": "function"
    }
  ],
  "contractName": "DummyOracle",
  "sourceName": "lib/ens-contracts/contracts/ethregistrar/DummyOracle.sol",
  "bytecode": "0x6080604052348015600e575f80fd5b506040516100fe3803806100fe833981016040819052602b916037565b6032815f55565b50604d565b5f602082840312156046575f80fd5b5051919050565b60a5806100595f395ff3fe6080604052348015600e575f80fd5b50600436106030575f3560e01c806350d25bcd146034578063e5c19b2d146048575b5f80fd5b5f5460405190815260200160405180910390f35b605760533660046059565b5f55565b005b5f602082840312156068575f80fd5b503591905056fea26469706673582212209c0c699ddb3528b20e29620ad614b022eb71edbe06414422f9f7c6f79679426a64736f6c63430008190033",
  "linkReferences": {},
  "deployedLinkReferences": {},
  "immutableReferences": {},
  "inputSourceName": "project/lib/ens-contracts/contracts/ethregistrar/DummyOracle.sol",
  "devdoc": {
    "kind": "dev",
    "methods": {},
    "version": 1
  },
  "evm": {
    "gasEstimates": {
      "creation": {
        "codeDepositCost": "33000",
        "executionCost": "infinite",
        "totalCost": "infinite"
      },
      "external": {
        "latestAnswer()": "2244",
        "set(int256)": "22309"
      }
    }
  },
  "storageLayout": {
    "storage": [
      {
        "astId": 8601,
        "contract": "project/lib/ens-contracts/contracts/ethregistrar/DummyOracle.sol:DummyOracle",
        "label": "value",
        "offset": 0,
        "slot": "0",
        "type": "t_int256"
      }
    ],
    "types": {
      "t_int256": {
        "encoding": "inplace",
        "label": "int256",
        "numberOfBytes": "32"
      }
    }
  },
  "userdoc": {
    "kind": "user",
    "methods": {},
    "version": 1
  },
  "argsData": "0x0000000000000000000000000000000000000000000000000000002540be4000",
  "transaction": {
    "hash": "0x7bffa65881cfc5dcb8d6c154590dd5f06d860fc6f89b73d7d9d67102ccd0d1a2",
    "nonce": "0x45",
    "origin": "0xf39fd6e51aad88f6f4ce6ab8827279cfffb92266"
  }
}