{
  "address": "0x5fc8d32690cc91d4c39d9d3abcbd16989f875707",
  "abi": [
    {
      "inputs": [
        {
          "internalType": "contract ENS",
          "name": "registryV1",
          "type": "address"
        },
        {
          "internalType": "contract IGatewayProvider",
          "name": "batchGatewayProvider",
          "type": "address"
        }
      ],
      "stateMutability": "nonpayable",
      "type": "constructor"
    },
    {
      "inputs": [
        {
          "internalType": "bytes",
          "name": "dns",
          "type": "bytes"
        }
      ],
      "name": "DNSDecodingFailed",
      "type": "error"
    },
    {
      "inputs": [],
      "name": "InvalidBatchGatewayResponse",
      "type": "error"
    },
    {
      "inputs": [
        {
          "internalType": "address",
          "name": "sender",
          "type": "address"
        },
        {
          "internalType": "string[]",
          "name": "urls",
          "type": "string[]"
        },
        {
          "internalType": "bytes",
          "name": "callData",
          "type": "bytes"
        },
        {
          "internalType": "bytes4",
          "name": "callbackFunction",
          "type": "bytes4"
        },
        {
          "internalType": "bytes",
          "name": "extraData",
          "type": "bytes"
        }
      ],
      "name": "OffchainLookup",
      "type": "error"
    },
    {
      "inputs": [
        {
          "internalType": "uint256",
          "name": "offset",
          "type": "uint256"
        },
        {
          "internalType": "uint256",
          "name": "length",
          "type": "uint256"
        }
      ],
      "name": "OffsetOutOfBoundsError",
      "type": "error"
    },
    {
      "inputs": [
        {
          "internalType": "bytes",
          "name": "name",
          "type": "bytes"
        }
      ],
      "name": "UnreachableName",
      "type": "error"
    },
    {
      "inputs": [],
      "name": "BATCH_GATEWAY_PROVIDER",
      "outputs": [
        {
          "internalType": "contract IGatewayProvider",
          "name": "",
          "type": "address"
        }
      ],
      "stateMutability": "view",
      "type": "function"
    },
    {
      "inputs": [],
      "name": "REGISTRY_V1",
      "outputs": [
        {
          "internalType": "contract ENS",
          "name": "",
          "type": "address"
        }
      ],
      "stateMutability": "view",
      "type": "function"
    },
    {
      "inputs": [
        {
          "internalType": "address",
          "name": "resolver",
          "type": "address"
        },
        {
          "internalType": "bytes",
          "name": "name",
          "type": "bytes"
        },
        {
          "internalType": "bytes",
          "name": "data",
          "type": "bytes"
        },
        {
          "internalType": "bool",
          "name": "hasContext",
          "type": "bool"
        },
        {
          "internalType": "bytes",
          "name": "context",
          "type": "bytes"
        },
        {
          "internalType": "string[]",
          "name": "batchGateways",
          "type": "string[]"
        }
      ],
      "name": "callResolver",
      "outputs": [
        {
          "internalType": "bytes",
          "name": "",
          "type": "bytes"
        }
      ],
      "stateMutability": "view",
      "type": "function"
    },
    {
      "inputs": [
        {
          "components": [
            {
              "components": [
                {
                  "internalType": "address",
                  "name": "target",
                  "type": "address"
                },
                {
                  "internalType": "bytes",
                  "name": "call",
                  "type": "bytes"
                },
                {
                  "internalType": "bytes",
                  "name": "data",
                  "type": "bytes"
                },
                {
                  "internalType": "uint256",
                  "name": "flags",
                  "type": "uint256"
                }
              ],
              "internalType": "struct CCIPBatcher.Lookup[]",
              "name": "lookups",
              "type": "tuple[]"
            },
            {
              "internalType": "string[]",
              "name": "gateways",
              "type": "string[]"
            }
          ],
          "internalType": "struct CCIPBatcher.Batch",
          "name": "batch",
          "type": "tuple"
        }
      ],
      "name": "ccipBatch",
      "outputs": [
        {
          "components": [
            {
              "components": [
                {
                  "internalType": "address",
                  "name": "target",
                  "type": "address"
                },
                {
                  "internalType": "bytes",
                  "name": "call",
                  "type": "bytes"
                },
                {
                  "internalType": "bytes",
                  "name": "data",
                  "type": "bytes"
                },
                {
                  "internalType": "uint256",
                  "name": "flags",
                  "type": "uint256"
                }
              ],
              "internalType": "struct CCIPBatcher.Lookup[]",
              "name": "lookups",
              "type": "tuple[]"
            },
            {
              "internalType": "string[]",
              "name": "gateways",
              "type": "string[]"
            }
          ],
          "internalType": "struct CCIPBatcher.Batch",
          "name": "",
          "type": "tuple"
        }
      ],
      "stateMutability": "view",
      "type": "function"
    },
    {
      "inputs": [
        {
          "internalType": "bytes",
          "name": "response",
          "type": "bytes"
        },
        {
          "internalType": "bytes",
          "name": "extraData",
          "type": "bytes"
        }
      ],
      "name": "ccipBatchCallback",
      "outputs": [
        {
          "components": [
            {
              "components": [
                {
                  "internalType": "address",
                  "name": "target",
                  "type": "address"
                },
                {
                  "internalType": "bytes",
                  "name": "call",
                  "type": "bytes"
                },
                {
                  "internalType": "bytes",
                  "name": "data",
                  "type": "bytes"
                },
                {
                  "internalType": "uint256",
                  "name": "flags",
                  "type": "uint256"
                }
              ],
              "internalType": "struct CCIPBatcher.Lookup[]",
              "name": "lookups",
              "type": "tuple[]"
            },
            {
              "internalType": "string[]",
              "name": "gateways",
              "type": "string[]"
            }
          ],
          "internalType": "struct CCIPBatcher.Batch",
          "name": "batch",
          "type": "tuple"
        }
      ],
      "stateMutability": "view",
      "type": "function"
    },
    {
      "inputs": [
        {
          "internalType": "bytes",
          "name": "response",
          "type": "bytes"
        },
        {
          "internalType": "bytes",
          "name": "extraData",
          "type": "bytes"
        }
      ],
      "name": "ccipReadCallback",
      "outputs": [],
      "stateMutability": "view",
      "type": "function"
    },
    {
      "inputs": [
        {
          "internalType": "bytes",
          "name": "name",
          "type": "bytes"
        },
        {
          "internalType": "bytes",
          "name": "data",
          "type": "bytes"
        }
      ],
      "name": "resolve",
      "outputs": [
        {
          "internalType": "bytes",
          "name": "",
          "type": "bytes"
        }
      ],
      "stateMutability": "view",
      "type": "function"
    },
    {
      "inputs": [
        {
          "internalType": "bytes",
          "name": "response",
          "type": "bytes"
        },
        {
          "internalType": "bytes",
          "name": "extraData",
          "type": "bytes"
        }
      ],
      "name": "resolveBatchCallback",
      "outputs": [
        {
          "internalType": "bytes",
          "name": "",
          "type": "bytes"
        }
      ],
      "stateMutability": "pure",
      "type": "function"
    },
    {
      "inputs": [
        {
          "internalType": "bytes",
          "name": "response",
          "type": "bytes"
        },
        {
          "internalType": "bytes",
          "name": "",
          "type": "bytes"
        }
      ],
      "name": "resolveDirectImmediateCallback",
      "outputs": [
        {
          "internalType": "bytes",
          "name": "",
          "type": "bytes"
        }
      ],
      "stateMutability": "pure",
      "type": "function"
    },
    {
      "inputs": [
        {
          "internalType": "bytes4",
          "name": "feature",
          "type": "bytes4"
        }
      ],
      "name": "supportsFeature",
      "outputs": [
        {
          "internalType": "bool",
          "name": "",
          "type": "bool"
        }
      ],
      "stateMutability": "pure",
      "type": "function"
    },
    {
      "inputs": [
        {
          "internalType": "bytes4",
          "name": "interfaceId",
          "type": "bytes4"
        }
      ],
      "name": "supportsInterface",
      "outputs": [
        {
          "internalType": "bool",
          "name": "",
          "type": "bool"
        }
      ],
      "stateMutability": "view",
      "type": "function"
    }
  ],
  "contractName": "ENSV1Resolver",
  "sourceName": "src/resolver/ENSV1Resolver.sol",
  "bytecode": "0x60e060405234801561000f575f80fd5b506040516127f13803806127f183398101604081905261002e91610062565b61c3506080526001600160a01b0391821660a0521660c05261009a565b6001600160a01b038116811461005f575f80fd5b50565b5f8060408385031215610073575f80fd5b825161007e8161004b565b602084015190925061008f8161004b565b809150509250929050565b60805160a05160c05161271f6100d25f395f8181610139015261052c01525f81816101e2015261042301525f610eb4015261271f5ff3fe608060405234801561000f575f80fd5b50600436106100c4575f3560e01c80639061b9231161007d578063e370ecbe11610058578063e370ecbe146101dd578063ef46c0b814610204578063f394443a14610219575f80fd5b80639061b923146101975780639f28e99d146101aa578063b536af76146101ca575f80fd5b8063582de3e7116100ad578063582de3e7146101105780636ccb8660146101345780636d6dd54014610173575f80fd5b806301ffc9a7146100c8578063491fc4f9146100f0575b5f80fd5b6100db6100d63660046117d5565b61022c565b60405190151581526020015b60405180910390f35b6101036100fe36600461182e565b61027d565b6040516100e791906118c3565b6100db61011e3660046117d5565b6001600160e01b0319166312d6c5b760e31b1490565b61015b7f000000000000000000000000000000000000000000000000000000000000000081565b6040516001600160a01b0390911681526020016100e7565b61018961018136600461182e565b509192909150565b6040516100e79291906118d5565b6101036101a536600461182e565b61041b565b6101bd6101b8366004611b17565b6105a6565b6040516100e79190611cd7565b6101bd6101d836600461182e565b610767565b61015b7f000000000000000000000000000000000000000000000000000000000000000081565b610217610212366004611da0565b6109b6565b005b610103610227366004611e18565b610a3b565b5f639061b92360e01b6001600160e01b03198316148061025c575063582de3e760e01b6001600160e01b03198316145b8061027757506301ffc9a760e01b6001600160e01b03198316145b92915050565b60605f61028c85870187611b17565b5190505f8061029d85870187611edd565b9150915081156103aa575f835167ffffffffffffffff8111156102c2576102c2611903565b6040519080825280602002602001820160405280156102f557816020015b60608152602001906001900390816102e05790505b5090505f5b845181101561037e575f85828151811061031657610316611f14565b602002602001015190505f8160400151905084801561033a57506060820151600e16155b1561035657808060200190518101906103539190611f7c565b90505b8084848151811061036957610369611f14565b602090810291909101015250506001016102fa565b50806040516020016103909190611fae565b604051602081830303815290604052945050505050610413565b5f835f815181106103bd576103bd611f14565b60209081029190910101516040810151606082015191925090600e16156103e657805160208201fd5b821561040357808060200190518101906104009190611f7c565b90505b94506104139350505050565b5050505b949350505050565b60605f61047d7f000000000000000000000000000000000000000000000000000000000000000087878080601f0160208091040260200160405190810160405280939291908181526020018383808284375f9201829052509250610d72915050565b5050905061059c8187878080601f0160208091040260200160405190810160405280939291908181526020018383808284375f9201919091525050604080516020601f8b0181900481028201810190925289815292508991508890819084018382808284375f9201829052506040805160208101825282815281517f093a86d3000000000000000000000000000000000000000000000000000000008152915192955093506001600160a01b037f000000000000000000000000000000000000000000000000000000000000000016925063093a86d391600480830192879291908290030181865afa158015610575573d5f803e3d5ffd5b505050506040513d5f823e601f3d908101601f19168201604052610227919081019061209e565b5050949350505050565b60408051808201909152606080825260208201525f5b825151811015610759575f835f015182815181106105dc576105dc611f14565b6020026020010151905060408160600151165f146105fa5750610751565b60608101516030165f036106a4575f610615825f0151610e6e565b610620576010610623565b60205b9050825b8551518110156106a157825f01516001600160a01b0316865f0151828151811061065357610653611f14565b60200260200101515f01516001600160a01b0316036106995781865f0151828151811061068257610682611f14565b602002602001015160600181815117915081815250505b600101610627565b50505b5f60208260600151165f1490505f806106c68315855f01518660200151610ea0565b91509150811580156106f05750630556f18360e41b6106e4826120d0565b6001600160e01b031916145b15610705576060840180516001179052610745565b606084018051604017905282801561071c57508051155b61073157816107315760608401805160021790525b80515f036107455760608401805160081790525b60409093019290925250505b6001016105bc565b5061076382610f33565b5090565b60408051808201909152606080825260208201525f8061078986880188612182565b9150915080518251146107af5760405163252e18f560e11b815260040160405180910390fd5b6107bb84860186611b17565b92505f805b84515181101561098b575f855f015182815181106107e0576107e0611f14565b6020026020010151905060408160600151165f03610982578351831015610976575f84848151811061081457610814611f14565b6020026020010151905085848151811061083057610830611f14565b60200260200101511561084d576060820180516044179052610970565b5f61085b836040015161111e565b90505f815f01516001600160a01b03168260600151848460800151604051602401610887929190612234565b60408051601f198184030181529181526020820180516001600160e01b03166001600160e01b03199094169390931790925290516108c59190612258565b5f60405180830381855afa9150503d805f81146108fd576040519150601f19603f3d011682016040523d82523d5f602084013e610902565b606091505b5093509050808061092c5750630556f18360e41b61091f846120d0565b6001600160e01b03191614155b1561096d57606084018051604017905280158061094857508251155b156109595760608401805160021790525b82515f0361096d5760608401805160081790525b50505b60408201525b61097f83612282565b92505b506001016107c0565b50815181146109ad5760405163252e18f560e11b815260040160405180910390fd5b61040f84610f33565b5f818060200190518101906109cb91906122b0565b9050610a36815f015182602001518584604001516040516024016109f0929190612234565b60408051601f198184030181529190526020810180516001600160e01b03166001600160e01b0319909316929092179091526060840151608085015160a0860151611162565b505050565b6060866001600160a01b03163b5f03610a8b57856040517f5fe9a5df000000000000000000000000000000000000000000000000000000008152600401610a8291906118c3565b60405180910390fd5b5f7fac9650d800000000000000000000000000000000000000000000000000000000610ab6876120d0565b6001600160e01b0319161490505f858015610add5750610add8963477cc53f60e11b611325565b90505f8180610af85750610af88a639061b92360e01b611325565b9050610b0b8a63582de3e760e01b611325565b8015610b8f5750821580610b8f5750808015610b8f575060405163582de3e760e01b81526312d6c5b760e31b60048201526001600160a01b038b169063582de3e790602401602060405180830381865afa158015610b6b573d5f803e3d5ffd5b505050506040513d601f19601f82011682018060405250810190610b8f919061237f565b15610bd9578015610bb457610baf8a610baa848c8c8b6113ab565b61143d565b610bd9565b610bd98a89636d6dd54060e01b5f60e01b60405180602001604052805f815250611162565b60608315610c1357610bf9896004808c51610bf4919061239a565b611462565b806020019051810190610c0c91906123ad565b9050610c5e565b60408051600180825281830190925290816020015b6060815260200190600190039081610c2857905050905088815f81518110610c5257610c52611f14565b60200260200101819052505b8115610cbb575f5b8151811015610cb957610c94848c848481518110610c8657610c86611f14565b60200260200101518b6113ab565b828281518110610ca657610ca6611f14565b6020908102919091010152600101610c66565b505b610d643080639f28e99d610cd08f868c6114be565b604051602401610ce09190611cd7565b60408051601f19818403018152918152602080830180516001600160e01b031660e09590951b94909417909352519092507f491fc4f900000000000000000000000000000000000000000000000000000000915f91610d50918b918a910191151582521515602082015260400190565b604051602081830303815290604052611162565b505050509695505050505050565b5f805f805f610d8187876115d3565b90925090508115610e62575f805f610d9a8b8b86610d72565b925092509250610db382865f9182526020526040902090565b6040517f0178b8bf000000000000000000000000000000000000000000000000000000008152600481018290529097506001600160a01b038c1690630178b8bf90602401602060405180830381865afa158015610e12573d5f803e3d5ffd5b505050506040513d601f19601f82011682018060405250810190610e369190612457565b97506001600160a01b038816610e4e57828782610e52565b87878a5b9750975097505050505050610e65565b50505b93509350939050565b5f306001600160a01b03831603610e8757506001919050565b6113885a5f805f808786fa50815a909103109392505050565b5f6060836001600160a01b031685610ed8577f0000000000000000000000000000000000000000000000000000000000000000610eda565b5a5b84604051610ee89190612258565b5f604051808303818686fa925050503d805f8114610f21576040519150601f19603f3d011682016040523d82523d5f602084013e610f26565b606091505b5090969095509350505050565b8051515f9067ffffffffffffffff811115610f5057610f50611903565b604051908082528060200260200182016040528015610fad57816020015b610f9a60405180606001604052805f6001600160a01b0316815260200160608152602001606081525090565b815260200190600190039081610f6e5790505b5090505f805b83515181101561105e575f845f01518281518110610fd357610fd3611f14565b6020026020010151905060408160600151165f03611055575f610ff9826040015161111e565b90506040518060600160405280825f01516001600160a01b0316815260200182602001518152602001826040015181525085858061103690612282565b96508151811061104857611048611f14565b6020026020010181905250505b50600101610fb3565b508015610a36578082523083602001518360405160240161107f9190612472565b60408051601f19818403018152918152602080830180516001600160e01b03167fa780bab60000000000000000000000000000000000000000000000000000000017905290517fb536af7600000000000000000000000000000000000000000000000000000000916110f391899101611cd7565b60408051601f1981840301815290829052630556f18360e41b8252610a82959493929160040161250c565b6040805160a0810182525f80825260606020830181905292820183905282820152608081019190915261027761115d836004808651610bf4919061239a565b611600565b5f8061117761117088610e6e565b8888610ea0565b91509150811580156111a15750630556f18360e41b611195826120d0565b6001600160e01b031916145b1561124f575f6111b08261111e565b9050876001600160a01b0316815f01516001600160a01b03160361124d57308160200151826040015163ef46c0b860e01b6040518060c001604052808d6001600160a01b0316815260200186606001516001600160e01b0319168152602001866080015181526020018b6001600160e01b03191681526020018a6001600160e01b0319168152602001898152506040516020016110f3919061256f565b505b5f8261125b578461125d565b855b90506001600160e01b031981161561130f57306001600160a01b031681838660405160240161128d929190612234565b60408051601f198184030181529181526020820180516001600160e01b03166001600160e01b03199094169390931790925290516112cb9190612258565b5f60405180830381855afa9150503d805f8114611303576040519150601f19603f3d011682016040523d82523d5f602084013e611308565b606091505b5090935091505b821561131d57815160208301f35b815160208301fd5b604080516001600160e01b03198316602480830191909152825180830390910181526044909101909152602080820180516001600160e01b03166301ffc9a760e01b17815282515f9392849283928392918391908a617530fa92503d91505f519050828015611395575060208210155b80156113a057505f81115b979650505050505050565b6060846113f45783836040516024016113c5929190612234565b60408051601f198184030181529190526020810180516001600160e01b0316639061b92360e01b179052611434565b838383604051602401611409939291906125eb565b60408051601f198184030181529190526020810180516001600160e01b031663477cc53f60e11b1790525b95945050505050565b61145e82825f60e01b5f60e01b60405180602001604052805f815250611162565b5050565b60608167ffffffffffffffff81111561147d5761147d611903565b6040519080825280601f01601f1916602001820160405280156114a7576020820181803683370190505b5090506114b78484835f8661166b565b9392505050565b60408051808201909152606080825260208201525f835167ffffffffffffffff8111156114ed576114ed611903565b60405190808252806020026020018201604052801561155057816020015b61153d60405180608001604052805f6001600160a01b0316815260200160608152602001606081526020015f81525090565b81526020019060019003908161150b5790505b5090505f5b84518110156115b6575f82828151811061157157611571611f14565b60209081029190910101516001600160a01b0388168152865190915086908390811061159f5761159f611f14565b602090810291909101810151910152600101611555565b506040805180820190915290815260208101929092525092915050565b5f805f6115e085856116a8565b9250905060ff8116156115f857806021858701012092505b509250929050565b6040805160a0810182525f8082526060602083018190529282018390528282015260808101919091528180602001905181019061163d919061262d565b60808601526001600160e01b0319166060850152604084015260208301526001600160a01b03168152919050565b61167e8561167983876126d6565b61172c565b61168c8361167983856126d6565b6116a182602085010185602088010183611774565b5050505050565b5f80835183106116cd578360405163ba4adc2360e01b8152600401610a8291906118c3565b8383815181106116df576116df611f14565b016020015160f81c915050818101600101816116ff578351811415611705565b83518110155b15611725578360405163ba4adc2360e01b8152600401610a8291906118c3565b9250929050565b815181111561145e5781516040517f8a3c1cfb000000000000000000000000000000000000000000000000000000008152610a82918391600401918252602082015260400190565b5b601f811115611795578151835260209283019290910190601f1901611775565b8015610a365790518251600160209390930360031b9290921b5f190180199091169116179052565b6001600160e01b0319811681146117d2575f80fd5b50565b5f602082840312156117e5575f80fd5b81356114b7816117bd565b5f8083601f840112611800575f80fd5b50813567ffffffffffffffff811115611817575f80fd5b602083019150836020828501011115611725575f80fd5b5f805f8060408587031215611841575f80fd5b843567ffffffffffffffff80821115611858575f80fd5b611864888389016117f0565b9096509450602087013591508082111561187c575f80fd5b50611889878288016117f0565b95989497509550505050565b5f81518084528060208401602086015e5f602082860101526020601f19601f83011685010191505092915050565b602081525f6114b76020830184611895565b60208152816020820152818360408301375f818301604090810191909152601f909201601f19160101919050565b634e487b7160e01b5f52604160045260245ffd5b6040805190810167ffffffffffffffff8111828210171561193a5761193a611903565b60405290565b6040516080810167ffffffffffffffff8111828210171561193a5761193a611903565b60405160c0810167ffffffffffffffff8111828210171561193a5761193a611903565b604051601f8201601f1916810167ffffffffffffffff811182821017156119af576119af611903565b604052919050565b5f67ffffffffffffffff8211156119d0576119d0611903565b5060051b60200190565b6001600160a01b03811681146117d2575f80fd5b80356119f9816119da565b919050565b5f67ffffffffffffffff821115611a1757611a17611903565b50601f01601f191660200190565b5f611a37611a32846119fe565b611986565b9050828152838383011115611a4a575f80fd5b828260208301375f602084830101529392505050565b5f82601f830112611a6f575f80fd5b6114b783833560208501611a25565b5f82601f830112611a8d575f80fd5b81356020611a9d611a32836119b7565b82815260059290921b84018101918181019086841115611abb575f80fd5b8286015b84811015611b0c57803567ffffffffffffffff811115611add575f80fd5b8701603f81018913611aed575f80fd5b611afe898683013560408401611a25565b845250918301918301611abf565b509695505050505050565b5f6020808385031215611b28575f80fd5b823567ffffffffffffffff80821115611b3f575f80fd5b9084019060408287031215611b52575f80fd5b611b5a611917565b823582811115611b68575f80fd5b8301601f81018813611b78575f80fd5b8035611b86611a32826119b7565b81815260059190911b8201860190868101908a831115611ba4575f80fd5b8784015b83811015611c4c57803587811115611bbe575f80fd5b85016080818e03601f19011215611bd3575f80fd5b611bdb611940565b8a820135611be8816119da565b8152604082013589811115611bfb575f80fd5b611c098f8d83860101611a60565b8c83015250606082013589811115611c1f575f80fd5b611c2d8f8d83860101611a60565b6040830152506080919091013560608201528352918801918801611ba8565b5084525050508284013582811115611c62575f80fd5b611c6e88828601611a7e565b948201949094529695505050505050565b5f8282518085526020808601955060208260051b840101602086015f5b84811015611cca57601f19868403018952611cb8838351611895565b98840198925090830190600101611c9c565b5090979650505050505050565b5f602080835260608084018551604080858801528282518085526080945060808901915060808160051b8a010187850194505f5b82811015611d7557607f198b830301845285516001600160a01b03815116835289810151888b850152611d4089850182611895565b90508682015184820388860152611d578282611895565b928b0151948b01949094525095890195938901939150600101611d0b565b50968a0151898803601f190160408b015296611d918189611c7f565b9b9a5050505050505050505050565b5f8060408385031215611db1575f80fd5b823567ffffffffffffffff80821115611dc8575f80fd5b611dd486838701611a60565b93506020850135915080821115611de9575f80fd5b50611df685828601611a60565b9150509250929050565b80151581146117d2575f80fd5b80356119f981611e00565b5f805f805f8060c08789031215611e2d575f80fd5b611e36876119ee565b9550602087013567ffffffffffffffff80821115611e52575f80fd5b611e5e8a838b01611a60565b96506040890135915080821115611e73575f80fd5b611e7f8a838b01611a60565b9550611e8d60608a01611e0d565b94506080890135915080821115611ea2575f80fd5b611eae8a838b01611a60565b935060a0890135915080821115611ec3575f80fd5b50611ed089828a01611a7e565b9150509295509295509295565b5f8060408385031215611eee575f80fd5b8235611ef981611e00565b91506020830135611f0981611e00565b809150509250929050565b634e487b7160e01b5f52603260045260245ffd5b5f611f35611a32846119fe565b9050828152838383011115611f48575f80fd5b8282602083015e5f602084830101529392505050565b5f82601f830112611f6d575f80fd5b6114b783835160208501611f28565b5f60208284031215611f8c575f80fd5b815167ffffffffffffffff811115611fa2575f80fd5b61041384828501611f5e565b5f60208083016020845280855180835260408601915060408160051b8701019250602087015f5b8281101561200357603f19888603018452611ff1858351611895565b94509285019290850190600101611fd5565b5092979650505050505050565b5f82601f83011261201f575f80fd5b8151602061202f611a32836119b7565b82815260059290921b8401810191818101908684111561204d575f80fd5b8286015b84811015611b0c57805167ffffffffffffffff81111561206f575f80fd5b8701603f8101891361207f575f80fd5b612090898683015160408401611f28565b845250918301918301612051565b5f602082840312156120ae575f80fd5b815167ffffffffffffffff8111156120c4575f80fd5b61041384828501612010565b5f815160208301516001600160e01b0319808216935060048310156120ff5780818460040360031b1b83161693505b505050919050565b5f82601f830112612116575f80fd5b81356020612126611a32836119b7565b82815260059290921b84018101918181019086841115612144575f80fd5b8286015b84811015611b0c57803567ffffffffffffffff811115612166575f80fd5b6121748986838b0101611a60565b845250918301918301612148565b5f8060408385031215612193575f80fd5b823567ffffffffffffffff808211156121aa575f80fd5b818501915085601f8301126121bd575f80fd5b813560206121cd611a32836119b7565b82815260059290921b840181019181810190898411156121eb575f80fd5b948201945b8386101561221257853561220381611e00565b825294820194908201906121f0565b96505086013592505080821115612227575f80fd5b50611df685828601612107565b604081525f6122466040830185611895565b82810360208401526114348185611895565b5f82518060208501845e5f920191825250919050565b634e487b7160e01b5f52601160045260245ffd5b5f600182016122935761229361226e565b5060010190565b80516119f9816119da565b80516119f9816117bd565b5f602082840312156122c0575f80fd5b815167ffffffffffffffff808211156122d7575f80fd5b9083019060c082860312156122ea575f80fd5b6122f2611963565b6122fb8361229a565b8152612309602084016122a5565b602082015260408301518281111561231f575f80fd5b61232b87828601611f5e565b60408301525061233d606084016122a5565b606082015261234e608084016122a5565b608082015260a083015182811115612364575f80fd5b61237087828601611f5e565b60a08301525095945050505050565b5f6020828403121561238f575f80fd5b81516114b781611e00565b818103818111156102775761027761226e565b5f60208083850312156123be575f80fd5b825167ffffffffffffffff808211156123d5575f80fd5b818501915085601f8301126123e8575f80fd5b81516123f6611a32826119b7565b81815260059190911b83018401908481019088831115612414575f80fd5b8585015b8381101561244a5780518581111561242e575f80fd5b61243c8b89838a0101611f5e565b845250918601918601612418565b5098975050505050505050565b5f60208284031215612467575f80fd5b81516114b7816119da565b5f60208083018184528085518083526040925060408601915060408160051b8701018488015f5b838110156124fe57603f19898403018552815160606001600160a01b03825116855288820151818a8701526124d082870182611c7f565b915050878201519150848103888601526124ea8183611895565b968901969450505090860190600101612499565b509098975050505050505050565b6001600160a01b038616815260a060208201525f61252d60a0830187611c7f565b828103604084015261253f8187611895565b90506001600160e01b03198516606084015282810360808401526125638185611895565b98975050505050505050565b602081526001600160a01b0382511660208201525f60208301516001600160e01b031980821660408501526040850151915060c060608501526125b560e0850183611895565b91508060608601511660808501528060808601511660a08501525060a0840151601f198483030160c08501526114348282611895565b606081525f6125fd6060830186611895565b828103602084015261260f8186611895565b905082810360408401526126238185611895565b9695505050505050565b5f805f805f60a08688031215612641575f80fd5b855161264c816119da565b602087015190955067ffffffffffffffff80821115612669575f80fd5b61267589838a01612010565b9550604088015191508082111561268a575f80fd5b61269689838a01611f5e565b9450606088015191506126a8826117bd565b6080880151919350808211156126bc575f80fd5b506126c988828901611f5e565b9150509295509295909350565b808201808211156102775761027761226e56fea2646970667358221220ec3f062e1bc91465118a78e0bb24e79b41f62c12e0cb9be937f97691eb5eec9f64736f6c63430008190033",
  "linkReferences": {},
  "deployedLinkReferences": {},
  "immutableReferences": {
    "1090": [
      {
        "length": 32,
        "start": 3764
      }
    ],
    "38645": [
      {
        "length": 32,
        "start": 482
      },
      {
        "length": 32,
        "start": 1059
      }
    ],
    "38649": [
      {
        "length": 32,
        "start": 313
      },
      {
        "length": 32,
        "start": 1324
      }
    ]
  },
  "inputSourceName": "project/src/resolver/ENSV1Resolver.sol",
  "devdoc": {
    "errors": {
      "DNSDecodingFailed(bytes)": [
        {
          "details": "The DNS-encoded name is malformed.      Error selector: `0xba4adc23`"
        }
      ],
      "InvalidBatchGatewayResponse()": [
        {
          "details": "Error selector: `0x4a5c31ea`"
        }
      ],
      "OffchainLookup(address,string[],bytes,bytes4,bytes)": [
        {
          "details": "https://eips.ethereum.org/EIPS/eip-3668 Error selector: `0x556f1830`"
        }
      ],
      "OffsetOutOfBoundsError(uint256,uint256)": [
        {
          "details": "`offset` was beyond `length`.       Error selector: `0x8a3c1cfb`"
        }
      ],
      "UnreachableName(bytes)": [
        {
          "details": "`name` cannot be resolved.      Error selector: `0x5fe9a5df`",
          "params": {
            "name": "The DNS-encoded ENS name."
          }
        }
      ]
    },
    "kind": "dev",
    "methods": {
      "callResolver(address,bytes,bytes,bool,bytes,string[])": {
        "details": "Reverts `UnreachableName` if resolver is not a contract.      This function never returns normally.      The return type is necessary to define the result of the callback.      Call this function externally or with `ccipRead()` to intercept the response.",
        "params": {
          "batchGateways": "The batch gateway URLs.",
          "context": "The context for `IExtendedDNSResolver`.",
          "data": "The calldata for the resolution.",
          "hasContext": "True if `IExtendedDNSResolver` should be considered.",
          "name": "The DNS-encoded ENS name.",
          "resolver": "The resolver to call."
        }
      },
      "ccipBatch(((address,bytes,bytes,uint256)[],string[]))": {
        "details": "Use `ccipRead()` to call this function with a batch.      The callback response will be `abi.encode(batch)`."
      },
      "ccipBatchCallback(bytes,bytes)": {
        "details": "CCIP-Read callback for `ccipBatch()`.      Updates `batch` using the batch gateway response. Reverts again if not \"done\".",
        "params": {
          "extraData": "The contextual data passed from `ccipBatch()`.",
          "response": "The response from the batch gateway."
        },
        "returns": {
          "batch": "The batch where every lookup is \"done\"."
        }
      },
      "ccipReadCallback(bytes,bytes)": {
        "details": "CCIP-Read callback for `ccipRead()`.The return type of this function is polymorphic depending on the caller.",
        "params": {
          "extraData": "The contextual data passed from `ccipRead()`.",
          "response": "The response from offchain."
        }
      },
      "resolveBatchCallback(bytes,bytes)": {
        "details": "CCIP-Read callback for `callResolver()` from batch calling a resolver.",
        "params": {
          "extraData": "The abi-encoded properties of the call.",
          "response": "The response data from the batch gateway."
        },
        "returns": {
          "_0": "result The response from the resolver."
        }
      },
      "resolveDirectImmediateCallback(bytes,bytes)": {
        "details": "CCIP-Read callback for `callResolver()` from direct calling an immediate resolver."
      },
      "supportsFeature(bytes4)": {
        "params": {
          "featureId": "The feature identifier."
        },
        "returns": {
          "_0": "`true` if the feature is supported by the contract."
        }
      },
      "supportsInterface(bytes4)": {
        "details": "See {IERC165-supportsInterface}."
      }
    },
    "stateVariables": {
      "BATCH_GATEWAY_PROVIDER": {
        "details": "Shared batch gateway provider."
      }
    },
    "version": 1
  },
  "evm": {
    "gasEstimates": {
      "creation": {
        "codeDepositCost": "2003000",
        "executionCost": "infinite",
        "totalCost": "infinite"
      },
      "external": {
        "BATCH_GATEWAY_PROVIDER()": "infinite",
        "REGISTRY_V1()": "infinite",
        "callResolver(address,bytes,bytes,bool,bytes,string[])": "infinite",
        "ccipBatch(((address,bytes,bytes,uint256)[],string[]))": "infinite",
        "ccipBatchCallback(bytes,bytes)": "infinite",
        "ccipReadCallback(bytes,bytes)": "infinite",
        "resolve(bytes,bytes)": "infinite",
        "resolveBatchCallback(bytes,bytes)": "infinite",
        "resolveDirectImmediateCallback(bytes,bytes)": "infinite",
        "supportsFeature(bytes4)": "396",
        "supportsInterface(bytes4)": "531"
      }
    }
  },
  "storageLayout": {
    "storage": [],
    "types": null
  },
  "userdoc": {
    "errors": {
      "InvalidBatchGatewayResponse()": [
        {
          "notice": "The batch gateway supplied an incorrect number of responses."
        }
      ]
    },
    "kind": "user",
    "methods": {
      "callResolver(address,bytes,bytes,bool,bytes,string[])": {
        "notice": "Perform forward resolution. Call this function with `ccipRead()` to intercept the response. Supports extended (`IExtendedDNSResolver` and `IExtendedResolver`) and immediate resolvers. - If extended, the calldata is not `multicall()`, and the resolver supports ENSIP-22 features,   the call is performed directly without the batch gateway. - If extended, the calldata is `multicall()`, and the resolver supports `eth.ens.resolver.extended.multicall` feature,   the call is performed directly without the batch gateway. - Otherwise, the call is performed with the batch gateway.   The batch gateway is only invoked if any call reverts `OffchainLookup`.   If the calldata is `multicall()` it is disassembled, called separately, and reassembled."
      },
      "supportsFeature(bytes4)": {
        "notice": "Check if a feature is supported."
      }
    },
    "notice": "Resolver that performs resolutions using ENSv1. Basically an UniversalResolverV1 (ResolverCaller + RegistryUtils) that implements IExtendedResolver.",
    "version": 1
  },
  "argsData": "0x000000000000000000000000cf7ed3acca5a467e9e704c703e8d87f634fb0fc9000000000000000000000000dc64a140aa3e981100a9beca4e685f962f0cf6c9",
  "transaction": {
    "hash": "0xf379704c8218e7949188c183948958730a39c134a458ddb138bb7499090c7220",
    "nonce": "0x5",
    "origin": "0xf39fd6e51aad88f6f4ce6ab8827279cfffb92266"
  }
}