{
  "address": "0x0e801d84fa97b50751dbf25036d067dcf18858bf",
  "abi": [
    {
      "inputs": [
        {
          "internalType": "contract ENS",
          "name": "_ens",
          "type": "address"
        },
        {
          "internalType": "contract IStandaloneReverseRegistrar",
          "name": "addrRegistrar",
          "type": "address"
        },
        {
          "internalType": "contract IStandaloneReverseRegistrar",
          "name": "_defaultRegistrar",
          "type": "address"
        }
      ],
      "stateMutability": "nonpayable",
      "type": "constructor"
    },
    {
      "inputs": [
        {
          "internalType": "bytes",
          "name": "dns",
          "type": "bytes"
        }
      ],
      "name": "DNSDecodingFailed",
      "type": "error"
    },
    {
      "inputs": [
        {
          "internalType": "uint256",
          "name": "offset",
          "type": "uint256"
        },
        {
          "internalType": "uint256",
          "name": "length",
          "type": "uint256"
        }
      ],
      "name": "OffsetOutOfBoundsError",
      "type": "error"
    },
    {
      "inputs": [
        {
          "internalType": "bytes",
          "name": "name",
          "type": "bytes"
        }
      ],
      "name": "UnreachableName",
      "type": "error"
    },
    {
      "inputs": [
        {
          "internalType": "bytes4",
          "name": "selector",
          "type": "bytes4"
        }
      ],
      "name": "UnsupportedResolverProfile",
      "type": "error"
    },
    {
      "inputs": [],
      "name": "chainId",
      "outputs": [
        {
          "internalType": "uint32",
          "name": "",
          "type": "uint32"
        }
      ],
      "stateMutability": "view",
      "type": "function"
    },
    {
      "inputs": [],
      "name": "chainRegistrar",
      "outputs": [
        {
          "internalType": "address",
          "name": "",
          "type": "address"
        }
      ],
      "stateMutability": "view",
      "type": "function"
    },
    {
      "inputs": [],
      "name": "coinType",
      "outputs": [
        {
          "internalType": "uint256",
          "name": "",
          "type": "uint256"
        }
      ],
      "stateMutability": "view",
      "type": "function"
    },
    {
      "inputs": [],
      "name": "defaultRegistrar",
      "outputs": [
        {
          "internalType": "contract IStandaloneReverseRegistrar",
          "name": "",
          "type": "address"
        }
      ],
      "stateMutability": "view",
      "type": "function"
    },
    {
      "inputs": [
        {
          "internalType": "bytes",
          "name": "name",
          "type": "bytes"
        },
        {
          "internalType": "bytes",
          "name": "data",
          "type": "bytes"
        }
      ],
      "name": "resolve",
      "outputs": [
        {
          "internalType": "bytes",
          "name": "result",
          "type": "bytes"
        }
      ],
      "stateMutability": "view",
      "type": "function"
    },
    {
      "inputs": [
        {
          "internalType": "address[]",
          "name": "addrs",
          "type": "address[]"
        }
      ],
      "name": "resolveNames",
      "outputs": [
        {
          "internalType": "string[]",
          "name": "names",
          "type": "string[]"
        }
      ],
      "stateMutability": "view",
      "type": "function"
    },
    {
      "inputs": [
        {
          "internalType": "bytes4",
          "name": "interfaceId",
          "type": "bytes4"
        }
      ],
      "name": "supportsInterface",
      "outputs": [
        {
          "internalType": "bool",
          "name": "",
          "type": "bool"
        }
      ],
      "stateMutability": "view",
      "type": "function"
    }
  ],
  "contractName": "ETHReverseResolver",
  "sourceName": "lib/ens-contracts/contracts/reverseResolver/ETHReverseResolver.sol",
  "bytecode": "0x610100604052348015610010575f80fd5b506040516117d03803806117d083398101604081905261002f91610068565b603c6080526001600160a01b0391821660a05291811660c0521660e0526100b2565b6001600160a01b0381168114610065575f80fd5b50565b5f805f6060848603121561007a575f80fd5b835161008581610051565b602085015190935061009681610051565b60408501519092506100a781610051565b809150509250925092565b60805160a05160c05160e0516116ae6101225f395f818161015c0152610a9901525f6108f201525f818160ab0152818161045a015281816105a701526107f701525f818160ea015281816102d1015281816102f70152818161042e0152818161055d015261065701526116ae5ff3fe608060405234801561000f575f80fd5b506004361061007a575f3560e01c80639061b923116100585780639061b9231461011a5780639a8a05921461013a578063b16eab6514610157578063e38f71381461017e575f80fd5b806301ffc9a71461007e5780630d02e00f146100a65780631fe93ea8146100e5575b5f80fd5b61009161008c3660046111ef565b61019e565b60405190151581526020015b60405180910390f35b6100cd7f000000000000000000000000000000000000000000000000000000000000000081565b6040516001600160a01b03909116815260200161009d565b61010c7f000000000000000000000000000000000000000000000000000000000000000081565b60405190815260200161009d565b61012d610128366004611254565b61023a565b60405161009d91906112e9565b610142610651565b60405163ffffffff909116815260200161009d565b6100cd7f000000000000000000000000000000000000000000000000000000000000000081565b61019161018c366004611357565b610680565b60405161009d9190611404565b5f6001600160e01b031982167f9061b92300000000000000000000000000000000000000000000000000000000148061020057506001600160e01b031982167f6beeaa0d00000000000000000000000000000000000000000000000000000000145b8061023457507f01ffc9a7000000000000000000000000000000000000000000000000000000006001600160e01b03198316145b92915050565b60605f6102478385611466565b90507f96e0cbcf000000000000000000000000000000000000000000000000000000006001600160e01b0319821601610395575f806102ba88888080601f0160208091040260200160405190810160405280939291908181526020018383808284375f9201919091525061072a92505050565b9150915081516014141580610328575063800000007f00000000000000000000000000000000000000000000000000000000000000001461031d577f00000000000000000000000000000000000000000000000000000000000000008114610326565b610326816107b0565b155b15610353578787604051635fe9a5df60e01b815260040161034a929190611496565b60405180910390fd5b5f61035d836114c4565b60601c905061036b816107d5565b60405160200161037b91906112e9565b604051602081830303815290604052945050505050610649565b7fc4c4a822000000000000000000000000000000000000000000000000000000006001600160e01b03198216016104a7575f61040587878080601f0160208091040260200160405190810160405280939291908181526020018383808284375f9201829052509250610b04915050565b5090508061042a578686604051635fe9a5df60e01b815260040161034a929190611496565b603c7f000000000000000000000000000000000000000000000000000000000000000014610458575f61047a565b7f00000000000000000000000000000000000000000000000000000000000000005b604080516001600160a01b0390921660208301520160405160208183030381529060405292505050610649565b7f0e3481fa000000000000000000000000000000000000000000000000000000006001600160e01b031982160161060b575f61051787878080601f0160208091040260200160405190810160405280939291908181526020018383808284375f9201829052509250610b04915050565b5090508061053c578686604051635fe9a5df60e01b815260040161034a929190611496565b5f61054a8560048189611500565b8101906105579190611527565b915050807f00000000000000000000000000000000000000000000000000000000000000001461059457604080515f8152602081019091526105e2565b6040516bffffffffffffffffffffffff197f000000000000000000000000000000000000000000000000000000000000000060601b1660208201526034016040516020818303038152906040525b6040516020016105f291906112e9565b6040516020818303038152906040529350505050610649565b6040517f7b1c461b0000000000000000000000000000000000000000000000000000000081526001600160e01b03198216600482015260240161034a565b949350505050565b5f61067b7f0000000000000000000000000000000000000000000000000000000000000000610cce565b905090565b6060815167ffffffffffffffff81111561069c5761069c6112fb565b6040519080825280602002602001820160405280156106cf57816020015b60608152602001906001900390816106ba5790505b5090505f5b8251811015610724576106ff8382815181106106f2576106f2611547565b60200260200101516107d5565b82828151811061071157610711611547565b60209081029190910101526001016106d4565b50919050565b60605f80610738845f610cf8565b9150505f61074885600184610d25565b909450905080158061075957508351155b1561077a575f60405180602001604052805f81525090935093505050915091565b6107848583610b04565b93509050806107a9575f60405180602001604052805f81525090935093505050915091565b5050915091565b5f638000000082148061023457505f6107c883610cce565b63ffffffff161192915050565b604051634ec3bd2360e01b81526001600160a01b0382811660048301526060917f000000000000000000000000000000000000000000000000000000000000000090911690634ec3bd23906024015f60405180830381865afa15801561083d573d5f803e3d5ffd5b505050506040513d5f823e601f3d908101601f19168201604052610864919081019061155b565b80519091501561087357919050565b5f6108b67f91d1777781884d03a6757a803996e38de2a42967fb37eeaca72729271025a9e26108a185610dc9565b805190602001205f9182526020526040902090565b6040517f0178b8bf000000000000000000000000000000000000000000000000000000008152600481018290529091505f906001600160a01b037f00000000000000000000000000000000000000000000000000000000000000001690630178b8bf90602401602060405180830381865afa158015610937573d5f803e3d5ffd5b505050506040513d601f19601f8201168201806040525081019061095b91906115ea565b90506001600160a01b03811615610a7a575f80826001600160a01b0316620186a08560405160240161098f91815260200190565b60408051601f198184030181529181526020820180517bffffffffffffffffffffffffffffffffffffffffffffffffffffffff167f691f343100000000000000000000000000000000000000000000000000000000179052516109f29190611605565b5f604051808303818686fa925050503d805f8114610a2b576040519150601f19603f3d011682016040523d82523d5f602084013e610a30565b606091505b50915091508115610a4a57610a4481610dfd565b90925090505b81610a6757505060408051602081019091525f8152949350505050565b805115610a775795945050505050565b50505b604051634ec3bd2360e01b81526001600160a01b0385811660048301527f00000000000000000000000000000000000000000000000000000000000000001690634ec3bd23906024015f60405180830381865afa158015610add573d5f803e3d5ffd5b505050506040513d5f823e601f3d908101601f19168201604052610649919081019061155b565b5f805f80610b128686610cf8565b60408051808201909152600481527f616464720000000000000000000000000000000000000000000000000000000060209091015290925090507f1a1ebb7848707a05591e7f7176db930a822cb7ceab700d19f68c7f26724dafb68201610b7c57603c9250610c29565b60408051808201909152600781527f64656661756c74000000000000000000000000000000000000000000000000006020909101527f301183f75670b4a9a2edb381b1d7533ad1e4387f1c77824f5fd582d2a43998d88201610be45763800000009250610c29565b81610bf6575f80935093505050610cc7565b5f80610c0d88610c0789600161162f565b85610e64565b9150915080610c25575f809550955050505050610cc7565b5092505b610c338682610cf8565b60408051808201909152600781527f7265766572736500000000000000000000000000000000000000000000000000602090910152955091507fdec08c9dbbdd0890e300eb5062089b2d4b1c40e3673bbccb5423f7b37dcf9a9c8214610ca0575f80935093505050610cc7565b610caa8686610cf8565b5091508115610cc0575f80935093505050610cc7565b6001935050505b9250929050565b5f603c8203610cdf57506001919050565b6380000000918218918210610cf4575f610234565b5090565b5f805f610d058585610ed6565b9250905060ff811615610d1d57806021858701012092505b509250929050565b60605f83831015610d4657505060408051602081019091525f808252610dc1565b5f610d518585611642565b90506001610d5f828261162f565b901c67ffffffffffffffff811115610d7957610d796112fb565b6040519080825280601f01601f191660200182016040528015610da3576020820181803683370190505b50925060208587018101908401610dbb828285610f53565b93505050505b935093915050565b60408051602880825260608281019093526020820181803683375050505f839052905060208101610724600c82602861103f565b5f60605f6020905080845110610e5e575f610e1785611655565b85519281019290915082116107a9575f610e3186836110a8565b5f1c9050808301865110610e5b576001610e4f8784602001846110c6565b94509450505050915091565b50505b50915091565b5f8083831015610e7857505f905080610dc1565b5f610e838585611642565b90506040811180610e945750855184115b15610ea557505f9150819050610dc1565b858501602001610eb6815f84610f53565b92506001820160011c6020035f518160031b1c9450505050935093915050565b5f8083518310610efb578360405163ba4adc2360e01b815260040161034a91906112e9565b838381518110610f0d57610f0d611547565b016020015160f81c91505081810160010181610f2d578351811415610f33565b83518110155b15610cc7578360405163ba4adc2360e01b815260040161034a91906112e9565b5f610fb1565b811a5f602f8211603a83101615610f755750602f198101610234565b60478210604083111615610f8e57506036198101610234565b60678210606083111615610fa757506056198101610234565b5061010092915050565b50600183820182821615610feb57610fca5f8651610f59565b80855360018601955060018501945060ff811115610fe9575f92508195505b505b80851015611037578451611000600182610f59565b61100a5f83610f59565b60041b17905060ff811115611022575f925050611037565b80855350600285019450600184019350610feb565b509392505050565b8181015b808310156110a25783516101005b828510801561105f57505f81115b156110955760031901600f82821c16600a811061107f5780605701611084565b806030015b905080865350600190940193611051565b5050602084019350611043565b50505050565b5f6110bd836110b884602061162f565b611122565b50016020015190565b60608167ffffffffffffffff8111156110e1576110e16112fb565b6040519080825280601f01601f19166020018201604052801561110b576020820181803683370190505b50905061111b8484835f8661116e565b9392505050565b815181111561116a5781516040517f8a3c1cfb00000000000000000000000000000000000000000000000000000000815261034a918391600401918252602082015260400190565b5050565b61117c856110b8838761162f565b61118a836110b8838561162f565b61119f826020850101856020880101836111a6565b5050505050565b5b601f8111156111c7578151835260209283019290910190601f19016111a7565b80156111ea57815183516001602084900360031b1b5f1901801990921691161783525b505050565b5f602082840312156111ff575f80fd5b81356001600160e01b03198116811461111b575f80fd5b5f8083601f840112611226575f80fd5b50813567ffffffffffffffff81111561123d575f80fd5b602083019150836020828501011115610cc7575f80fd5b5f805f8060408587031215611267575f80fd5b843567ffffffffffffffff8082111561127e575f80fd5b61128a88838901611216565b909650945060208701359150808211156112a2575f80fd5b506112af87828801611216565b95989497509550505050565b5f81518084528060208401602086015e5f602082860101526020601f19601f83011685010191505092915050565b602081525f61111b60208301846112bb565b634e487b7160e01b5f52604160045260245ffd5b604051601f8201601f1916810167ffffffffffffffff81118282101715611338576113386112fb565b604052919050565b6001600160a01b0381168114611354575f80fd5b50565b5f6020808385031215611368575f80fd5b823567ffffffffffffffff8082111561137f575f80fd5b818501915085601f830112611392575f80fd5b8135818111156113a4576113a46112fb565b8060051b91506113b584830161130f565b81815291830184019184810190888411156113ce575f80fd5b938501935b838510156113f857843592506113e883611340565b82825293850193908501906113d3565b98975050505050505050565b5f60208083016020845280855180835260408601915060408160051b8701019250602087015f5b8281101561145957603f198886030184526114478583516112bb565b9450928501929085019060010161142b565b5092979650505050505050565b6001600160e01b0319813581811691600485101561148e5780818660040360031b1b83161692505b505092915050565b60208152816020820152818360408301375f818301604090810191909152601f909201601f19160101919050565b805160208201516bffffffffffffffffffffffff1980821692919060148310156114f85780818460140360031b1b83161693505b505050919050565b5f808585111561150e575f80fd5b8386111561151a575f80fd5b5050820193919092039150565b5f8060408385031215611538575f80fd5b50508035926020909101359150565b634e487b7160e01b5f52603260045260245ffd5b5f602080838503121561156c575f80fd5b825167ffffffffffffffff80821115611583575f80fd5b818501915085601f830112611596575f80fd5b8151818111156115a8576115a86112fb565b6115ba601f8201601f1916850161130f565b915080825286848285010111156115cf575f80fd5b808484018584015e5f90820190930192909252509392505050565b5f602082840312156115fa575f80fd5b815161111b81611340565b5f82518060208501845e5f920191825250919050565b634e487b7160e01b5f52601160045260245ffd5b808201808211156102345761023461161b565b818103818111156102345761023461161b565b80516020808301519190811015610724575f1960209190910360031b1b1691905056fea2646970667358221220aa2c89436cb8a3f91a3f17144f1aea4cb0011c3cdd091492260b1f9a0801ce9364736f6c63430008190033",
  "linkReferences": {},
  "deployedLinkReferences": {},
  "immutableReferences": {
    "16592": [
      {
        "length": 32,
        "start": 234
      },
      {
        "length": 32,
        "start": 721
      },
      {
        "length": 32,
        "start": 759
      },
      {
        "length": 32,
        "start": 1070
      },
      {
        "length": 32,
        "start": 1373
      },
      {
        "length": 32,
        "start": 1623
      }
    ],
    "16595": [
      {
        "length": 32,
        "start": 171
      },
      {
        "length": 32,
        "start": 1114
      },
      {
        "length": 32,
        "start": 1447
      },
      {
        "length": 32,
        "start": 2039
      }
    ],
    "17439": [
      {
        "length": 32,
        "start": 2290
      }
    ],
    "17443": [
      {
        "length": 32,
        "start": 348
      },
      {
        "length": 32,
        "start": 2713
      }
    ]
  },
  "inputSourceName": "project/lib/ens-contracts/contracts/reverseResolver/ETHReverseResolver.sol",
  "devdoc": {
    "errors": {
      "DNSDecodingFailed(bytes)": [
        {
          "details": "The DNS-encoded name is malformed.      Error selector: `0xba4adc23`"
        }
      ],
      "OffsetOutOfBoundsError(uint256,uint256)": [
        {
          "details": "`offset` was beyond `length`.       Error selector: `0x8a3c1cfb`"
        }
      ],
      "UnreachableName(bytes)": [
        {
          "details": "Error selector: `0x5fe9a5df`"
        }
      ],
      "UnsupportedResolverProfile(bytes4)": [
        {
          "details": "Error selector: `0x7b1c461b`"
        }
      ]
    },
    "kind": "dev",
    "methods": {
      "resolve(bytes,bytes)": {
        "details": "This function may execute over multiple steps.",
        "params": {
          "data": "The resolution data, as specified in ENSIP-10.",
          "name": "The reverse name to resolve, in normalised and DNS-encoded form."
        },
        "returns": {
          "result": "The encoded response for the requested profile."
        }
      },
      "resolveNames(address[])": {
        "details": "This function may execute over multiple steps.",
        "params": {
          "addrs": "The addresses to resolve."
        },
        "returns": {
          "names": "The resolved names."
        }
      },
      "supportsInterface(bytes4)": {
        "details": "See {IERC165-supportsInterface}."
      }
    },
    "stateVariables": {
      "ADDR_REVERSE_NODE": {
        "details": "Namehash of \"addr.reverse\""
      }
    },
    "title": "Ethereum Reverse Resolver",
    "version": 1
  },
  "evm": {
    "gasEstimates": {
      "creation": {
        "codeDepositCost": "1161200",
        "executionCost": "infinite",
        "totalCost": "infinite"
      },
      "external": {
        "chainId()": "infinite",
        "chainRegistrar()": "infinite",
        "coinType()": "infinite",
        "defaultRegistrar()": "infinite",
        "resolve(bytes,bytes)": "infinite",
        "resolveNames(address[])": "infinite",
        "supportsInterface(bytes4)": "461"
      },
      "internal": {
        "_resolveName(address)": "infinite"
      }
    }
  },
  "storageLayout": {
    "storage": [],
    "types": null
  },
  "userdoc": {
    "errors": {
      "UnreachableName(bytes)": [
        {
          "notice": "`name` is not a valid DNS-encoded ENSIP-19 reverse name or namespace."
        }
      ],
      "UnsupportedResolverProfile(bytes4)": [
        {
          "notice": "`resolve()` was called with a profile other than `name()` or `addr(*)`."
        }
      ]
    },
    "kind": "user",
    "methods": {
      "chainId()": {
        "notice": "The EVM Chain ID derived from `coinType()`."
      },
      "chainRegistrar()": {
        "notice": "The reverse registrar address on the corresponding chain.         The address returned by `addr(coinType)` for the resolver."
      },
      "coinType()": {
        "notice": "The coin type for the resolver."
      },
      "defaultRegistrar()": {
        "notice": "The reverse registrar contract for \"default.reverse\"."
      },
      "resolve(bytes,bytes)": {
        "notice": "Resolves the following profiles according to ENSIP-10:         - `name()` if `name` is an ENSIP-19 reverse name of an EVM address for `coinType`.         - `addr(*) = registrar` if `name` is an ENSIP-19 reverse namespace for `coinType`.         Caller should enable EIP-3668."
      },
      "resolveNames(address[])": {
        "notice": "Resolve multiple EVM addresses to names.         Caller should enable EIP-3668."
      }
    },
    "notice": "Reverses an EVM address using the first non-null response from the following sources: 1. `IStandaloneReverseRegistrar` for \"addr.reverse\" 2. `name()` from \"{addr}.addr.reverse\" in V1 Registry 3. `IStandaloneReverseRegistrar` for \"default.reverse\"",
    "version": 1
  },
  "argsData": "0x000000000000000000000000cf7ed3acca5a467e9e704c703e8d87f634fb0fc90000000000000000000000000165878a594ca255338adfa4d48449f69242eb8f000000000000000000000000f5059a5d33d5853360d16c683c16e67980206f36",
  "transaction": {
    "hash": "0x59a3e50c5e04a918e9d413f93fecbfd187de4351edd4db6082f3c632eac4ca99",
    "nonce": "0x2b",
    "origin": "0xf39fd6e51aad88f6f4ce6ab8827279cfffb92266"
  }
}