{
  "address": "0x51a1ceb83b83f1985a81c295d1ff28afef186e02",
  "abi": [
    {
      "inputs": [
        {
          "internalType": "contract BaseRegistrarImplementation",
          "name": "_base",
          "type": "address"
        },
        {
          "internalType": "contract IPriceOracle",
          "name": "_prices",
          "type": "address"
        },
        {
          "internalType": "uint256",
          "name": "_minCommitmentAge",
          "type": "uint256"
        },
        {
          "internalType": "uint256",
          "name": "_maxCommitmentAge",
          "type": "uint256"
        },
        {
          "internalType": "contract IReverseRegistrar",
          "name": "_reverseRegistrar",
          "type": "address"
        },
        {
          "internalType": "contract IDefaultReverseRegistrar",
          "name": "_defaultReverseRegistrar",
          "type": "address"
        },
        {
          "internalType": "contract ENS",
          "name": "_ens",
          "type": "address"
        }
      ],
      "stateMutability": "nonpayable",
      "type": "constructor"
    },
    {
      "inputs": [
        {
          "internalType": "bytes32",
          "name": "commitment",
          "type": "bytes32"
        }
      ],
      "name": "CommitmentNotFound",
      "type": "error"
    },
    {
      "inputs": [
        {
          "internalType": "bytes32",
          "name": "commitment",
          "type": "bytes32"
        },
        {
          "internalType": "uint256",
          "name": "minimumCommitmentTimestamp",
          "type": "uint256"
        },
        {
          "internalType": "uint256",
          "name": "currentTimestamp",
          "type": "uint256"
        }
      ],
      "name": "CommitmentTooNew",
      "type": "error"
    },
    {
      "inputs": [
        {
          "internalType": "bytes32",
          "name": "commitment",
          "type": "bytes32"
        },
        {
          "internalType": "uint256",
          "name": "maximumCommitmentTimestamp",
          "type": "uint256"
        },
        {
          "internalType": "uint256",
          "name": "currentTimestamp",
          "type": "uint256"
        }
      ],
      "name": "CommitmentTooOld",
      "type": "error"
    },
    {
      "inputs": [
        {
          "internalType": "uint256",
          "name": "duration",
          "type": "uint256"
        }
      ],
      "name": "DurationTooShort",
      "type": "error"
    },
    {
      "inputs": [],
      "name": "InsufficientValue",
      "type": "error"
    },
    {
      "inputs": [],
      "name": "MaxCommitmentAgeTooHigh",
      "type": "error"
    },
    {
      "inputs": [],
      "name": "MaxCommitmentAgeTooLow",
      "type": "error"
    },
    {
      "inputs": [
        {
          "internalType": "string",
          "name": "name",
          "type": "string"
        }
      ],
      "name": "NameNotAvailable",
      "type": "error"
    },
    {
      "inputs": [],
      "name": "ResolverRequiredForReverseRecord",
      "type": "error"
    },
    {
      "inputs": [],
      "name": "ResolverRequiredWhenDataSupplied",
      "type": "error"
    },
    {
      "inputs": [
        {
          "internalType": "bytes32",
          "name": "commitment",
          "type": "bytes32"
        }
      ],
      "name": "UnexpiredCommitmentExists",
      "type": "error"
    },
    {
      "anonymous": false,
      "inputs": [
        {
          "indexed": false,
          "internalType": "string",
          "name": "label",
          "type": "string"
        },
        {
          "indexed": true,
          "internalType": "bytes32",
          "name": "labelhash",
          "type": "bytes32"
        },
        {
          "indexed": true,
          "internalType": "address",
          "name": "owner",
          "type": "address"
        },
        {
          "indexed": false,
          "internalType": "uint256",
          "name": "baseCost",
          "type": "uint256"
        },
        {
          "indexed": false,
          "internalType": "uint256",
          "name": "premium",
          "type": "uint256"
        },
        {
          "indexed": false,
          "internalType": "uint256",
          "name": "expires",
          "type": "uint256"
        },
        {
          "indexed": false,
          "internalType": "bytes32",
          "name": "referrer",
          "type": "bytes32"
        }
      ],
      "name": "NameRegistered",
      "type": "event"
    },
    {
      "anonymous": false,
      "inputs": [
        {
          "indexed": false,
          "internalType": "string",
          "name": "label",
          "type": "string"
        },
        {
          "indexed": true,
          "internalType": "bytes32",
          "name": "labelhash",
          "type": "bytes32"
        },
        {
          "indexed": false,
          "internalType": "uint256",
          "name": "cost",
          "type": "uint256"
        },
        {
          "indexed": false,
          "internalType": "uint256",
          "name": "expires",
          "type": "uint256"
        },
        {
          "indexed": false,
          "internalType": "bytes32",
          "name": "referrer",
          "type": "bytes32"
        }
      ],
      "name": "NameRenewed",
      "type": "event"
    },
    {
      "anonymous": false,
      "inputs": [
        {
          "indexed": true,
          "internalType": "address",
          "name": "previousOwner",
          "type": "address"
        },
        {
          "indexed": true,
          "internalType": "address",
          "name": "newOwner",
          "type": "address"
        }
      ],
      "name": "OwnershipTransferred",
      "type": "event"
    },
    {
      "inputs": [],
      "name": "MIN_REGISTRATION_DURATION",
      "outputs": [
        {
          "internalType": "uint256",
          "name": "",
          "type": "uint256"
        }
      ],
      "stateMutability": "view",
      "type": "function"
    },
    {
      "inputs": [
        {
          "internalType": "string",
          "name": "label",
          "type": "string"
        }
      ],
      "name": "available",
      "outputs": [
        {
          "internalType": "bool",
          "name": "",
          "type": "bool"
        }
      ],
      "stateMutability": "view",
      "type": "function"
    },
    {
      "inputs": [
        {
          "internalType": "bytes32",
          "name": "commitment",
          "type": "bytes32"
        }
      ],
      "name": "commit",
      "outputs": [],
      "stateMutability": "nonpayable",
      "type": "function"
    },
    {
      "inputs": [
        {
          "internalType": "bytes32",
          "name": "",
          "type": "bytes32"
        }
      ],
      "name": "commitments",
      "outputs": [
        {
          "internalType": "uint256",
          "name": "",
          "type": "uint256"
        }
      ],
      "stateMutability": "view",
      "type": "function"
    },
    {
      "inputs": [],
      "name": "defaultReverseRegistrar",
      "outputs": [
        {
          "internalType": "contract IDefaultReverseRegistrar",
          "name": "",
          "type": "address"
        }
      ],
      "stateMutability": "view",
      "type": "function"
    },
    {
      "inputs": [],
      "name": "ens",
      "outputs": [
        {
          "internalType": "contract ENS",
          "name": "",
          "type": "address"
        }
      ],
      "stateMutability": "view",
      "type": "function"
    },
    {
      "inputs": [
        {
          "components": [
            {
              "internalType": "string",
              "name": "label",
              "type": "string"
            },
            {
              "internalType": "address",
              "name": "owner",
              "type": "address"
            },
            {
              "internalType": "uint256",
              "name": "duration",
              "type": "uint256"
            },
            {
              "internalType": "bytes32",
              "name": "secret",
              "type": "bytes32"
            },
            {
              "internalType": "address",
              "name": "resolver",
              "type": "address"
            },
            {
              "internalType": "bytes[]",
              "name": "data",
              "type": "bytes[]"
            },
            {
              "internalType": "uint8",
              "name": "reverseRecord",
              "type": "uint8"
            },
            {
              "internalType": "bytes32",
              "name": "referrer",
              "type": "bytes32"
            }
          ],
          "internalType": "struct IETHRegistrarController.Registration",
          "name": "registration",
          "type": "tuple"
        }
      ],
      "name": "makeCommitment",
      "outputs": [
        {
          "internalType": "bytes32",
          "name": "commitment",
          "type": "bytes32"
        }
      ],
      "stateMutability": "pure",
      "type": "function"
    },
    {
      "inputs": [],
      "name": "maxCommitmentAge",
      "outputs": [
        {
          "internalType": "uint256",
          "name": "",
          "type": "uint256"
        }
      ],
      "stateMutability": "view",
      "type": "function"
    },
    {
      "inputs": [],
      "name": "minCommitmentAge",
      "outputs": [
        {
          "internalType": "uint256",
          "name": "",
          "type": "uint256"
        }
      ],
      "stateMutability": "view",
      "type": "function"
    },
    {
      "inputs": [],
      "name": "owner",
      "outputs": [
        {
          "internalType": "address",
          "name": "",
          "type": "address"
        }
      ],
      "stateMutability": "view",
      "type": "function"
    },
    {
      "inputs": [],
      "name": "prices",
      "outputs": [
        {
          "internalType": "contract IPriceOracle",
          "name": "",
          "type": "address"
        }
      ],
      "stateMutability": "view",
      "type": "function"
    },
    {
      "inputs": [
        {
          "internalType": "address",
          "name": "_token",
          "type": "address"
        },
        {
          "internalType": "address",
          "name": "_to",
          "type": "address"
        },
        {
          "internalType": "uint256",
          "name": "_amount",
          "type": "uint256"
        }
      ],
      "name": "recoverFunds",
      "outputs": [],
      "stateMutability": "nonpayable",
      "type": "function"
    },
    {
      "inputs": [
        {
          "components": [
            {
              "internalType": "string",
              "name": "label",
              "type": "string"
            },
            {
              "internalType": "address",
              "name": "owner",
              "type": "address"
            },
            {
              "internalType": "uint256",
              "name": "duration",
              "type": "uint256"
            },
            {
              "internalType": "bytes32",
              "name": "secret",
              "type": "bytes32"
            },
            {
              "internalType": "address",
              "name": "resolver",
              "type": "address"
            },
            {
              "internalType": "bytes[]",
              "name": "data",
              "type": "bytes[]"
            },
            {
              "internalType": "uint8",
              "name": "reverseRecord",
              "type": "uint8"
            },
            {
              "internalType": "bytes32",
              "name": "referrer",
              "type": "bytes32"
            }
          ],
          "internalType": "struct IETHRegistrarController.Registration",
          "name": "registration",
          "type": "tuple"
        }
      ],
      "name": "register",
      "outputs": [],
      "stateMutability": "payable",
      "type": "function"
    },
    {
      "inputs": [
        {
          "internalType": "string",
          "name": "label",
          "type": "string"
        },
        {
          "internalType": "uint256",
          "name": "duration",
          "type": "uint256"
        },
        {
          "internalType": "bytes32",
          "name": "referrer",
          "type": "bytes32"
        }
      ],
      "name": "renew",
      "outputs": [],
      "stateMutability": "payable",
      "type": "function"
    },
    {
      "inputs": [],
      "name": "renounceOwnership",
      "outputs": [],
      "stateMutability": "nonpayable",
      "type": "function"
    },
    {
      "inputs": [
        {
          "internalType": "string",
          "name": "label",
          "type": "string"
        },
        {
          "internalType": "uint256",
          "name": "duration",
          "type": "uint256"
        }
      ],
      "name": "rentPrice",
      "outputs": [
        {
          "components": [
            {
              "internalType": "uint256",
              "name": "base",
              "type": "uint256"
            },
            {
              "internalType": "uint256",
              "name": "premium",
              "type": "uint256"
            }
          ],
          "internalType": "struct IPriceOracle.Price",
          "name": "price",
          "type": "tuple"
        }
      ],
      "stateMutability": "view",
      "type": "function"
    },
    {
      "inputs": [],
      "name": "reverseRegistrar",
      "outputs": [
        {
          "internalType": "contract IReverseRegistrar",
          "name": "",
          "type": "address"
        }
      ],
      "stateMutability": "view",
      "type": "function"
    },
    {
      "inputs": [
        {
          "internalType": "bytes4",
          "name": "interfaceID",
          "type": "bytes4"
        }
      ],
      "name": "supportsInterface",
      "outputs": [
        {
          "internalType": "bool",
          "name": "",
          "type": "bool"
        }
      ],
      "stateMutability": "view",
      "type": "function"
    },
    {
      "inputs": [
        {
          "internalType": "address",
          "name": "newOwner",
          "type": "address"
        }
      ],
      "name": "transferOwnership",
      "outputs": [],
      "stateMutability": "nonpayable",
      "type": "function"
    },
    {
      "inputs": [
        {
          "internalType": "string",
          "name": "label",
          "type": "string"
        }
      ],
      "name": "valid",
      "outputs": [
        {
          "internalType": "bool",
          "name": "",
          "type": "bool"
        }
      ],
      "stateMutability": "pure",
      "type": "function"
    },
    {
      "inputs": [],
      "name": "withdraw",
      "outputs": [],
      "stateMutability": "nonpayable",
      "type": "function"
    }
  ],
  "contractName": "ETHRegistrarController",
  "sourceName": "lib/ens-contracts/contracts/ethregistrar/ETHRegistrarController.sol",
  "bytecode": "0x610160604052348015610010575f80fd5b5060405161226e38038061226e83398101604081905261002f91610113565b610038336100ad565b848411610058576040516307cb550760e31b815260040160405180910390fd5b4284111561007957604051630b4319e560e21b815260040160405180910390fd5b6001600160a01b0390811660805295861660a0529385166101405260c09290925260e0528216610100521661012052610197565b5f80546001600160a01b038381166001600160a01b0319831681178455604051919092169283917f8be0079c531659141344cd1fd0a4f28419497f9722a3daafe3b4186f6b6457e09190a35050565b6001600160a01b0381168114610110575f80fd5b50565b5f805f805f805f60e0888a031215610129575f80fd5b8751610134816100fc565b6020890151909750610145816100fc565b8096505060408801519450606088015193506080880151610165816100fc565b60a0890151909350610176816100fc565b60c0890151909250610187816100fc565b8091505092959891949750929550565b60805160a05160c05160e05161010051610120516101405161202461024a5f395f8181610420015261135301525f818161021f01526110d401525f81816102850152610fec01525f81816103ce01528181610b0001528181610b6c015261120b01525f818161034101528181610a630152610a9401525f818161058001528181610c0b01528181610cff01528181610f2c0152818161138101526116d601525f81816101d40152610dc301526120245ff3fe608060405260043610610162575f3560e01c80638a95b09f116100c6578063ce1e09c01161007c578063ef9c880511610057578063ef9c880514610442578063f14fcbc814610455578063f2fde38b14610474575f80fd5b8063ce1e09c0146103bd578063cf7d6e01146103f0578063d3419bf31461040f575f80fd5b80638da5cb5b116100ac5780638da5cb5b146103635780639791c0971461037f578063aeb8ce9b1461039e575f80fd5b80638a95b09f1461031a5780638d839ffe14610330575f80fd5b80635d3590d51161011b57806380869853116101015780638086985314610274578063839df945146102a757806383e7f6ff146102e0575f80fd5b80635d3590d514610241578063715018a614610260575f80fd5b80633ccfd60b1161014b5780633ccfd60b146101af5780633f15457f146101c3578063469bf4411461020e575f80fd5b806301ffc9a71461016657806318026ad11461019a575b5f80fd5b348015610171575f80fd5b50610185610180366004611747565b610493565b60405190151581526020015b60405180910390f35b6101ad6101a83660046117ba565b6104fb565b005b3480156101ba575f80fd5b506101ad610682565b3480156101ce575f80fd5b506101f67f000000000000000000000000000000000000000000000000000000000000000081565b6040516001600160a01b039091168152602001610191565b348015610219575f80fd5b506101f67f000000000000000000000000000000000000000000000000000000000000000081565b34801561024c575f80fd5b506101ad61025b366004611822565b6106bc565b34801561026b575f80fd5b506101ad610753565b34801561027f575f80fd5b506101f67f000000000000000000000000000000000000000000000000000000000000000081565b3480156102b2575f80fd5b506102d26102c136600461185b565b60016020525f908152604090205481565b604051908152602001610191565b3480156102eb575f80fd5b506102ff6102fa366004611872565b610766565b60408051825181526020928301519281019290925201610191565b348015610325575f80fd5b506102d26224ea0081565b34801561033b575f80fd5b506102d27f000000000000000000000000000000000000000000000000000000000000000081565b34801561036e575f80fd5b505f546001600160a01b03166101f6565b34801561038a575f80fd5b506101856103993660046118ba565b6107a9565b3480156103a9575f80fd5b506101856103b83660046118ba565b6107f3565b3480156103c8575f80fd5b506102d27f000000000000000000000000000000000000000000000000000000000000000081565b3480156103fb575f80fd5b506102d261040a3660046118f9565b610822565b34801561041a575f80fd5b506101f67f000000000000000000000000000000000000000000000000000000000000000081565b6101ad6104503660046118f9565b610977565b348015610460575f80fd5b506101ad61046f36600461185b565b6111f5565b34801561047f575f80fd5b506101ad61048e366004611931565b61127c565b5f6001600160e01b031982167fe4f37f790000000000000000000000000000000000000000000000000000000014806104f557507f01ffc9a7000000000000000000000000000000000000000000000000000000006001600160e01b03198316145b92915050565b5f848460405161050c92919061194a565b604051809103902090505f61052386868487611309565b80519091503410156105485760405163044044a560e21b815260040160405180910390fd5b6040517fc475abff00000000000000000000000000000000000000000000000000000000815260048101839052602481018590525f907f00000000000000000000000000000000000000000000000000000000000000006001600160a01b03169063c475abff906044016020604051808303815f875af11580156105ce573d5f803e3d5ffd5b505050506040513d601f19601f820116820180604052508101906105f29190611959565b9050827ffa956c3bce4cb4b01166868ecaf0620566bc7e33fc70b0b9c6aef61e37e50b948888855f0151858960405161062f959493929190611998565b60405180910390a2815134111561067957815133906108fc9061065290346119dc565b6040518115909202915f818181858888f19350505050158015610677573d5f803e3d5ffd5b505b50505050505050565b5f80546040516001600160a01b03909116914780156108fc02929091818181858888f193505050501580156106b9573d5f803e3d5ffd5b50565b6106c4611448565b6040517fa9059cbb0000000000000000000000000000000000000000000000000000000081526001600160a01b0383811660048301526024820183905284169063a9059cbb906044016020604051808303815f875af1158015610729573d5f803e3d5ffd5b505050506040513d601f19601f8201168201806040525081019061074d91906119ef565b50505050565b61075b611448565b6107645f6114a1565b565b604080518082019091525f80825260208201525f848460405161078a92919061194a565b604051809103902090506107a085858386611309565b95945050505050565b5f60036107ea84848080601f0160208091040260200160405190810160405280939291908181526020018383808284375f9201919091525061150892505050565b10159392505050565b5f80838360405161080592919061194a565b6040518091039020905061081a848483611695565b949350505050565b5f8061083160a0840184611a0e565b905011801561085757505f61084c60a0840160808501611931565b6001600160a01b0316145b1561088e576040517fd3f605c400000000000000000000000000000000000000000000000000000000815260040160405180910390fd5b61089e60e0830160c08401611a64565b60ff16158015906108c657505f6108bb60a0840160808501611931565b6001600160a01b0316145b156108fd576040517f7d4a034a00000000000000000000000000000000000000000000000000000000815260040160405180910390fd5b6224ea008260400135101561094957604080517f9a71997b0000000000000000000000000000000000000000000000000000000081529083013560048201526024015b60405180910390fd5b8160405160200161095a9190611b63565b604051602081830303815290604052805190602001209050919050565b5f6109828280611c2c565b60405161099092919061194a565b60405190819003902090505f6109b46109a98480611c2c565b848660400135611309565b90505f8160200151825f01516109ca9190611c6f565b9050803410156109ed5760405163044044a560e21b815260040160405180910390fd5b610a006109fa8580611c2c565b85611695565b610a4257610a0e8480611c2c565b6040517f477707e8000000000000000000000000000000000000000000000000000000008152600401610940929190611c82565b5f610a4c85610822565b5f8181526001602052604090205490915042610a887f000000000000000000000000000000000000000000000000000000000000000083611c6f565b1115610afa5781610ab97f000000000000000000000000000000000000000000000000000000000000000083611c6f565b6040517f74480cc900000000000000000000000000000000000000000000000000000000815260048101929092526024820152426044820152606401610940565b42610b257f000000000000000000000000000000000000000000000000000000000000000083611c6f565b11610bd257805f03610b66576040517f836588c900000000000000000000000000000000000000000000000000000000815260048101839052602401610940565b81610b917f000000000000000000000000000000000000000000000000000000000000000083611c6f565b6040517f256e221600000000000000000000000000000000000000000000000000000000815260048101929092526024820152426044820152606401610940565b5f82815260016020526040812081905580610bf360a0890160808a01611931565b6001600160a01b031603610cc0576001600160a01b037f00000000000000000000000000000000000000000000000000000000000000001663fca247ac87610c4160408b0160208c01611931565b604080516001600160e01b031960e086901b16815260048101939093526001600160a01b0390911660248301528a013560448201526064016020604051808303815f875af1158015610c95573d5f803e3d5ffd5b505050506040513d601f19601f82011682018060405250810190610cb99190611959565b9050611171565b604080517ffca247ac000000000000000000000000000000000000000000000000000000008152600481018890523060248201529088013560448201527f00000000000000000000000000000000000000000000000000000000000000006001600160a01b03169063fca247ac906064016020604051808303815f875af1158015610d4d573d5f803e3d5ffd5b505050506040513d601f19601f82011682018060405250810190610d719190611959565b604080517f93cdeb708b7545dc668eb9280176169d1c33cfd8ed6f04690a0bcc88a93fc4ae60208201529081018890529091505f906060016040516020818303038152906040528051906020012090507f00000000000000000000000000000000000000000000000000000000000000006001600160a01b031663cf408823828a6020016020810190610e049190611931565b610e1460a08d0160808e01611931565b6040516001600160e01b031960e086901b16815260048101939093526001600160a01b0391821660248401521660448201525f60648201526084015f604051808303815f87803b158015610e66575f80fd5b505af1158015610e78573d5f803e3d5ffd5b505f9250610e8c91505060a08a018a611a0e565b90501115610f2257610ea460a0890160808a01611931565b6001600160a01b031663e32954eb82610ec060a08c018c611a0e565b6040518463ffffffff1660e01b8152600401610ede93929190611c95565b5f604051808303815f875af1158015610ef9573d5f803e3d5ffd5b505050506040513d5f823e601f3d908101601f19168201604052610f209190810190611d4b565b505b6001600160a01b037f0000000000000000000000000000000000000000000000000000000000000000166323b872dd30610f6260408c0160208d01611931565b60405160e084901b6001600160e01b03191681526001600160a01b03928316600482015291166024820152604481018a90526064015f604051808303815f87803b158015610fae575f80fd5b505af1158015610fc0573d5f803e3d5ffd5b5060019250610fd891505060e08a0160c08b01611a64565b1660ff165f146110ae576001600160a01b037f000000000000000000000000000000000000000000000000000000000000000016637a806d6b338061102360a08d0160808e01611931565b61102d8d80611c2c565b60405160200161103e929190611e59565b6040516020818303038152906040526040518563ffffffff1660e01b815260040161106c9493929190611eb9565b6020604051808303815f875af1158015611088573d5f803e3d5ffd5b505050506040513d601f19601f820116820180604052508101906110ac9190611959565b505b60026110c060e08a0160c08b01611a64565b1660ff165f1461116f576001600160a01b037f00000000000000000000000000000000000000000000000000000000000000001663c9119941336111048b80611c2c565b604051602001611115929190611e59565b6040516020818303038152906040526040518363ffffffff1660e01b8152600401611141929190611ef6565b5f604051808303815f87803b158015611158575f80fd5b505af115801561116a573d5f803e3d5ffd5b505050505b505b6111816040880160208901611931565b6001600160a01b0316867fc2240194853531f1ae318dcef227de79c6ad0fd9d1b0e4fe08568415be2e08a56111b68a80611c2c565b895f01518a60200151878e60e001356040516111d796959493929190611f17565b60405180910390a38334111561067957336108fc61065286346119dc565b5f818152600160205260409020544290611230907f000000000000000000000000000000000000000000000000000000000000000090611c6f565b1061126a576040517f0a059d7100000000000000000000000000000000000000000000000000000000815260048101829052602401610940565b5f908152600160205260409020429055565b611284611448565b6001600160a01b0381166113005760405162461bcd60e51b815260206004820152602660248201527f4f776e61626c653a206e6577206f776e657220697320746865207a65726f206160448201527f64647265737300000000000000000000000000000000000000000000000000006064820152608401610940565b6106b9816114a1565b604080518082019091525f80825260208201526040517fd6e4fa86000000000000000000000000000000000000000000000000000000008152600481018490526001600160a01b037f00000000000000000000000000000000000000000000000000000000000000008116916350e9a71591889188917f0000000000000000000000000000000000000000000000000000000000000000169063d6e4fa8690602401602060405180830381865afa1580156113c6573d5f803e3d5ffd5b505050506040513d601f19601f820116820180604052508101906113ea9190611959565b866040518563ffffffff1660e01b815260040161140a9493929190611f4f565b6040805180830381865afa158015611424573d5f803e3d5ffd5b505050506040513d601f19601f820116820180604052508101906107a09190611f75565b5f546001600160a01b031633146107645760405162461bcd60e51b815260206004820181905260248201527f4f776e61626c653a2063616c6c6572206973206e6f7420746865206f776e65726044820152606401610940565b5f80546001600160a01b038381167fffffffffffffffffffffffff0000000000000000000000000000000000000000831681178455604051919092169283917f8be0079c531659141344cd1fd0a4f28419497f9722a3daafe3b4186f6b6457e09190a35050565b80515f90819081905b8082101561168c575f85838151811061152c5761152c611fc2565b01602001516001600160f81b03191690507f800000000000000000000000000000000000000000000000000000000000000081101561157757611570600184611c6f565b9250611679565b7fe0000000000000000000000000000000000000000000000000000000000000006001600160f81b0319821610156115b457611570600284611c6f565b7ff0000000000000000000000000000000000000000000000000000000000000006001600160f81b0319821610156115f157611570600384611c6f565b7ff8000000000000000000000000000000000000000000000000000000000000006001600160f81b03198216101561162e57611570600484611c6f565b7ffc000000000000000000000000000000000000000000000000000000000000006001600160f81b03198216101561166b57611570600584611c6f565b611676600684611c6f565b92505b508261168481611fd6565b935050611511565b50909392505050565b5f6116a084846107a9565b801561081a57506040517f96e494e8000000000000000000000000000000000000000000000000000000008152600481018390527f00000000000000000000000000000000000000000000000000000000000000006001600160a01b0316906396e494e890602401602060405180830381865afa158015611723573d5f803e3d5ffd5b505050506040513d601f19601f8201168201806040525081019061081a91906119ef565b5f60208284031215611757575f80fd5b81356001600160e01b03198116811461176e575f80fd5b9392505050565b5f8083601f840112611785575f80fd5b50813567ffffffffffffffff81111561179c575f80fd5b6020830191508360208285010111156117b3575f80fd5b9250929050565b5f805f80606085870312156117cd575f80fd5b843567ffffffffffffffff8111156117e3575f80fd5b6117ef87828801611775565b90989097506020870135966040013595509350505050565b80356001600160a01b038116811461181d575f80fd5b919050565b5f805f60608486031215611834575f80fd5b61183d84611807565b925061184b60208501611807565b9150604084013590509250925092565b5f6020828403121561186b575f80fd5b5035919050565b5f805f60408486031215611884575f80fd5b833567ffffffffffffffff81111561189a575f80fd5b6118a686828701611775565b909790965060209590950135949350505050565b5f80602083850312156118cb575f80fd5b823567ffffffffffffffff8111156118e1575f80fd5b6118ed85828601611775565b90969095509350505050565b5f60208284031215611909575f80fd5b813567ffffffffffffffff81111561191f575f80fd5b8201610100818503121561176e575f80fd5b5f60208284031215611941575f80fd5b61176e82611807565b818382375f9101908152919050565b5f60208284031215611969575f80fd5b5051919050565b81835281816020850137505f828201602090810191909152601f909101601f19169091010190565b608081525f6119ab608083018789611970565b602083019590955250604081019290925260609091015292915050565b634e487b7160e01b5f52601160045260245ffd5b818103818111156104f5576104f56119c8565b5f602082840312156119ff575f80fd5b8151801515811461176e575f80fd5b5f808335601e19843603018112611a23575f80fd5b83018035915067ffffffffffffffff821115611a3d575f80fd5b6020019150600581901b36038213156117b3575f80fd5b803560ff8116811461181d575f80fd5b5f60208284031215611a74575f80fd5b61176e82611a54565b5f808335601e19843603018112611a92575f80fd5b830160208101925035905067ffffffffffffffff811115611ab1575f80fd5b8036038213156117b3575f80fd5b5f808335601e19843603018112611ad4575f80fd5b830160208101925035905067ffffffffffffffff811115611af3575f80fd5b8060051b36038213156117b3575f80fd5b5f838385526020808601955060208560051b830101845f5b87811015611b5657848303601f19018952611b378288611a7d565b611b42858284611970565b9a86019a9450505090830190600101611b1c565b5090979650505050505050565b602081525f611b728384611a7d565b610100806020860152611b8a61012086018385611970565b92506001600160a01b03611ba060208801611807565b1660408601526040860135606086015260608601356080860152611bc660808701611807565b6001600160a01b03811660a08701529150611be460a0870187611abf565b868503601f190160c08801529250611bfd848483611b04565b935050611c0c60c08701611a54565b60ff811660e0870152915060e08601358186015250508091505092915050565b5f808335601e19843603018112611c41575f80fd5b83018035915067ffffffffffffffff821115611c5b575f80fd5b6020019150368190038213156117b3575f80fd5b808201808211156104f5576104f56119c8565b602081525f61081a602083018486611970565b5f604082018583526020604060208501528185835260608501905060608660051b8601019250865f5b87811015611cf857868503605f19018352611cd9828a611a7d565b611ce4878284611970565b965050509183019190830190600101611cbe565b509298975050505050505050565b634e487b7160e01b5f52604160045260245ffd5b604051601f8201601f1916810167ffffffffffffffff81118282101715611d4357611d43611d06565b604052919050565b5f6020808385031215611d5c575f80fd5b825167ffffffffffffffff80821115611d73575f80fd5b8185019150601f86601f840112611d88575f80fd5b825182811115611d9a57611d9a611d06565b8060051b611da9868201611d1a565b918252848101860191868101908a841115611dc2575f80fd5b87870192505b83831015611e4b57825186811115611dde575f80fd5b8701603f81018c13611dee575f80fd5b88810151604088821115611e0457611e04611d06565b611e15828901601f19168c01611d1a565b8281528e82848601011115611e28575f80fd5b828285018d83015e5f9281018c0192909252508352509187019190870190611dc8565b9a9950505050505050505050565b818382377f2e657468000000000000000000000000000000000000000000000000000000009101908152600401919050565b5f81518084528060208401602086015e5f602082860101526020601f19601f83011685010191505092915050565b5f6001600160a01b038087168352808616602084015280851660408401525060806060830152611eec6080830184611e8b565b9695505050505050565b6001600160a01b0383168152604060208201525f61081a6040830184611e8b565b60a081525f611f2a60a08301888a611970565b9050856020830152846040830152836060830152826080830152979650505050505050565b606081525f611f62606083018688611970565b6020830194909452506040015292915050565b5f60408284031215611f85575f80fd5b6040516040810181811067ffffffffffffffff82111715611fa857611fa8611d06565b604052825181526020928301519281019290925250919050565b634e487b7160e01b5f52603260045260245ffd5b5f60018201611fe757611fe76119c8565b506001019056fea2646970667358221220a70ba68c2d5f829dc801636d1b86b7161a63b674efb7c0be2dd1abcf523fefdd64736f6c63430008190033",
  "linkReferences": {},
  "deployedLinkReferences": {},
  "immutableReferences": {
    "8693": [
      {
        "length": 32,
        "start": 468
      },
      {
        "length": 32,
        "start": 3523
      }
    ],
    "8696": [
      {
        "length": 32,
        "start": 1408
      },
      {
        "length": 32,
        "start": 3083
      },
      {
        "length": 32,
        "start": 3327
      },
      {
        "length": 32,
        "start": 3884
      },
      {
        "length": 32,
        "start": 4993
      },
      {
        "length": 32,
        "start": 5846
      }
    ],
    "8699": [
      {
        "length": 32,
        "start": 833
      },
      {
        "length": 32,
        "start": 2659
      },
      {
        "length": 32,
        "start": 2708
      }
    ],
    "8702": [
      {
        "length": 32,
        "start": 974
      },
      {
        "length": 32,
        "start": 2816
      },
      {
        "length": 32,
        "start": 2924
      },
      {
        "length": 32,
        "start": 4619
      }
    ],
    "8706": [
      {
        "length": 32,
        "start": 645
      },
      {
        "length": 32,
        "start": 4076
      }
    ],
    "8710": [
      {
        "length": 32,
        "start": 543
      },
      {
        "length": 32,
        "start": 4308
      }
    ],
    "8714": [
      {
        "length": 32,
        "start": 1056
      },
      {
        "length": 32,
        "start": 4947
      }
    ]
  },
  "inputSourceName": "project/lib/ens-contracts/contracts/ethregistrar/ETHRegistrarController.sol",
  "devdoc": {
    "details": "A registrar controller for registering and renewing names at fixed cost.",
    "events": {
      "NameRegistered(string,bytes32,address,uint256,uint256,uint256,bytes32)": {
        "params": {
          "baseCost": "The base cost of the name.",
          "expires": "The expiry time of the name.",
          "label": "The label of the name.",
          "labelhash": "The keccak256 hash of the label.",
          "owner": "The owner of the name.",
          "premium": "The premium cost of the name.",
          "referrer": "The referrer of the registration."
        }
      },
      "NameRenewed(string,bytes32,uint256,uint256,bytes32)": {
        "params": {
          "cost": "The cost of the name.",
          "expires": "The expiry time of the name.",
          "label": "The label of the name.",
          "labelhash": "The keccak256 hash of the label.",
          "referrer": "The referrer of the registration."
        }
      }
    },
    "kind": "dev",
    "methods": {
      "available(string)": {
        "params": {
          "label": "The label to check."
        },
        "returns": {
          "_0": "True if the label is valid and available, false otherwise."
        }
      },
      "commit(bytes32)": {
        "params": {
          "commitment": "The commitment to commit."
        }
      },
      "constructor": {
        "params": {
          "_base": "The base registrar implementation for the eth TLD.",
          "_defaultReverseRegistrar": "The registrar for default.reverse.",
          "_ens": "The ENS registry.",
          "_maxCommitmentAge": "The maximum time a commitment can exist to be valid.",
          "_minCommitmentAge": "The minimum time a commitment must exist to be valid.",
          "_prices": "The price oracle for the eth TLD.",
          "_reverseRegistrar": "The registrar for addr.reverse."
        }
      },
      "makeCommitment((string,address,uint256,bytes32,address,bytes[],uint8,bytes32))": {
        "params": {
          "registration": "The registration to make a commitment for."
        },
        "returns": {
          "commitment": "The commitment for the registration."
        }
      },
      "owner()": {
        "details": "Returns the address of the current owner."
      },
      "recoverFunds(address,address,uint256)": {
        "details": "The contract is Ownable and only the owner can call the recover function.",
        "params": {
          "_amount": "The amount of tokens to recover.",
          "_to": "The address to send the tokens to.",
          "_token": "The address of the ERC20 token to recover"
        }
      },
      "register((string,address,uint256,bytes32,address,bytes[],uint8,bytes32))": {
        "params": {
          "registration": ".referrer The referrer of the registration."
        }
      },
      "renew(string,uint256,bytes32)": {
        "params": {
          "duration": "The duration of the registration.",
          "label": "The label of the name.",
          "referrer": "The referrer of the registration."
        }
      },
      "renounceOwnership()": {
        "details": "Leaves the contract without owner. It will not be possible to call `onlyOwner` functions. Can only be called by the current owner. NOTE: Renouncing ownership will leave the contract without an owner, thereby disabling any functionality that is only available to the owner."
      },
      "rentPrice(string,uint256)": {
        "params": {
          "duration": "The duration of the registration.",
          "label": "The label of the name."
        },
        "returns": {
          "price": "The price of the registration."
        }
      },
      "supportsInterface(bytes4)": {
        "details": "Returns true if this contract implements the interface defined by `interfaceId`. See the corresponding https://eips.ethereum.org/EIPS/eip-165#how-interfaces-are-identified[EIP section] to learn more about how these ids are created. This function call must use less than 30 000 gas."
      },
      "transferOwnership(address)": {
        "details": "Transfers ownership of the contract to a new account (`newOwner`). Can only be called by the current owner."
      },
      "valid(string)": {
        "params": {
          "label": "The label to check."
        },
        "returns": {
          "_0": "True if the label is valid, false otherwise."
        }
      }
    },
    "version": 1
  },
  "evm": {
    "gasEstimates": {
      "creation": {
        "codeDepositCost": "1645600",
        "executionCost": "infinite",
        "totalCost": "infinite"
      },
      "external": {
        "MIN_REGISTRATION_DURATION()": "240",
        "available(string)": "infinite",
        "commit(bytes32)": "infinite",
        "commitments(bytes32)": "2502",
        "defaultReverseRegistrar()": "infinite",
        "ens()": "infinite",
        "makeCommitment((string,address,uint256,bytes32,address,bytes[],uint8,bytes32))": "infinite",
        "maxCommitmentAge()": "infinite",
        "minCommitmentAge()": "infinite",
        "owner()": "2374",
        "prices()": "infinite",
        "recoverFunds(address,address,uint256)": "infinite",
        "register((string,address,uint256,bytes32,address,bytes[],uint8,bytes32))": "infinite",
        "renew(string,uint256,bytes32)": "infinite",
        "renounceOwnership()": "infinite",
        "rentPrice(string,uint256)": "infinite",
        "reverseRegistrar()": "infinite",
        "supportsInterface(bytes4)": "458",
        "transferOwnership(address)": "28402",
        "valid(string)": "infinite",
        "withdraw()": "infinite"
      },
      "internal": {
        "_available(string calldata,bytes32)": "infinite",
        "_rentPrice(string calldata,bytes32,uint256)": "infinite"
      }
    }
  },
  "storageLayout": {
    "storage": [
      {
        "astId": 41649,
        "contract": "project/lib/ens-contracts/contracts/ethregistrar/ETHRegistrarController.sol:ETHRegistrarController",
        "label": "_owner",
        "offset": 0,
        "slot": "0",
        "type": "t_address"
      },
      {
        "astId": 8719,
        "contract": "project/lib/ens-contracts/contracts/ethregistrar/ETHRegistrarController.sol:ETHRegistrarController",
        "label": "commitments",
        "offset": 0,
        "slot": "1",
        "type": "t_mapping(t_bytes32,t_uint256)"
      }
    ],
    "types": {
      "t_address": {
        "encoding": "inplace",
        "label": "address",
        "numberOfBytes": "20"
      },
      "t_bytes32": {
        "encoding": "inplace",
        "label": "bytes32",
        "numberOfBytes": "32"
      },
      "t_mapping(t_bytes32,t_uint256)": {
        "encoding": "mapping",
        "key": "t_bytes32",
        "label": "mapping(bytes32 => uint256)",
        "numberOfBytes": "32",
        "value": "t_uint256"
      },
      "t_uint256": {
        "encoding": "inplace",
        "label": "uint256",
        "numberOfBytes": "32"
      }
    }
  },
  "userdoc": {
    "errors": {
      "CommitmentNotFound(bytes32)": [
        {
          "notice": "Thrown when a commitment is not found."
        }
      ],
      "CommitmentTooNew(bytes32,uint256,uint256)": [
        {
          "notice": "Thrown when a commitment is too new."
        }
      ],
      "CommitmentTooOld(bytes32,uint256,uint256)": [
        {
          "notice": "Thrown when a commitment is too old."
        }
      ],
      "DurationTooShort(uint256)": [
        {
          "notice": "Thrown when the duration supplied for a registration is too short."
        }
      ],
      "InsufficientValue()": [
        {
          "notice": "Thrown when the value sent for a registration is insufficient."
        }
      ],
      "MaxCommitmentAgeTooHigh()": [
        {
          "notice": "Thrown when the maximum commitment age is too high."
        }
      ],
      "MaxCommitmentAgeTooLow()": [
        {
          "notice": "Thrown when the maximum commitment age is too low."
        }
      ],
      "NameNotAvailable(string)": [
        {
          "notice": "Thrown when a name is not available to register."
        }
      ],
      "ResolverRequiredForReverseRecord()": [
        {
          "notice": "Thrown when a reverse record is requested without a resolver."
        }
      ],
      "ResolverRequiredWhenDataSupplied()": [
        {
          "notice": "Thrown when data is supplied for a registration without a resolver."
        }
      ],
      "UnexpiredCommitmentExists(bytes32)": [
        {
          "notice": "Thrown when a matching unexpired commitment exists."
        }
      ]
    },
    "events": {
      "NameRegistered(string,bytes32,address,uint256,uint256,uint256,bytes32)": {
        "notice": "Emitted when a name is registered."
      },
      "NameRenewed(string,bytes32,uint256,uint256,bytes32)": {
        "notice": "Emitted when a name is renewed."
      }
    },
    "kind": "user",
    "methods": {
      "MIN_REGISTRATION_DURATION()": {
        "notice": "The minimum duration for a registration."
      },
      "available(string)": {
        "notice": "Returns true if the label is valid and available for registration."
      },
      "commit(bytes32)": {
        "notice": "Commits a registration."
      },
      "commitments(bytes32)": {
        "notice": "A mapping of commitments to their timestamp."
      },
      "constructor": {
        "notice": "Constructor for the ETHRegistrarController."
      },
      "defaultReverseRegistrar()": {
        "notice": "The registrar for default.reverse. (i.e. fallback reverse for all EVM chains)"
      },
      "ens()": {
        "notice": "The ENS registry."
      },
      "makeCommitment((string,address,uint256,bytes32,address,bytes[],uint8,bytes32))": {
        "notice": "Returns the commitment for a registration."
      },
      "maxCommitmentAge()": {
        "notice": "The maximum time a commitment can exist to be valid."
      },
      "minCommitmentAge()": {
        "notice": "The minimum time a commitment must exist to be valid."
      },
      "prices()": {
        "notice": "The price oracle for the eth TLD."
      },
      "recoverFunds(address,address,uint256)": {
        "notice": "Recover ERC20 tokens sent to the contract by mistake."
      },
      "register((string,address,uint256,bytes32,address,bytes[],uint8,bytes32))": {
        "notice": "Registers a name."
      },
      "renew(string,uint256,bytes32)": {
        "notice": "Renews a name."
      },
      "rentPrice(string,uint256)": {
        "notice": "Returns the price of a registration for the given label and duration."
      },
      "reverseRegistrar()": {
        "notice": "The registrar for addr.reverse. (i.e. reverse for coinType 60)"
      },
      "valid(string)": {
        "notice": "Returns true if the label is valid for registration."
      },
      "withdraw()": {
        "notice": "Withdraws the balance of the contract to the owner."
      }
    },
    "version": 1
  },
  "argsData": "0x0000000000000000000000009d4454b023096f34b160d6b654540c56a1f8168800000000000000000000000021df544947ba3e8b3c32561399e88b52dc8b2823000000000000000000000000000000000000000000000000000000000000003c0000000000000000000000000000000000000000000000000000000000015180000000000000000000000000809d550fca64d94bd9f66e60752a544199cfac3d000000000000000000000000f5059a5d33d5853360d16c683c16e67980206f36000000000000000000000000cf7ed3acca5a467e9e704c703e8d87f634fb0fc9",
  "transaction": {
    "hash": "0x64602436eabd45ca7d4c2482c67f4f97c2ec5630b43d4c869aead87d5c5eb428",
    "nonce": "0x4a",
    "origin": "0xf39fd6e51aad88f6f4ce6ab8827279cfffb92266"
  }
}