{
  "address": "0x21df544947ba3e8b3c32561399e88b52dc8b2823",
  "abi": [
    {
      "inputs": [
        {
          "internalType": "contract AggregatorInterface",
          "name": "_usdOracle",
          "type": "address"
        },
        {
          "internalType": "uint256[]",
          "name": "_rentPrices",
          "type": "uint256[]"
        },
        {
          "internalType": "uint256",
          "name": "_startPremium",
          "type": "uint256"
        },
        {
          "internalType": "uint256",
          "name": "totalDays",
          "type": "uint256"
        }
      ],
      "stateMutability": "nonpayable",
      "type": "constructor"
    },
    {
      "anonymous": false,
      "inputs": [
        {
          "indexed": false,
          "internalType": "uint256[]",
          "name": "prices",
          "type": "uint256[]"
        }
      ],
      "name": "RentPriceChanged",
      "type": "event"
    },
    {
      "inputs": [
        {
          "internalType": "uint256",
          "name": "startPremium",
          "type": "uint256"
        },
        {
          "internalType": "uint256",
          "name": "elapsed",
          "type": "uint256"
        }
      ],
      "name": "decayedPremium",
      "outputs": [
        {
          "internalType": "uint256",
          "name": "",
          "type": "uint256"
        }
      ],
      "stateMutability": "pure",
      "type": "function"
    },
    {
      "inputs": [
        {
          "internalType": "string",
          "name": "name",
          "type": "string"
        },
        {
          "internalType": "uint256",
          "name": "expires",
          "type": "uint256"
        },
        {
          "internalType": "uint256",
          "name": "duration",
          "type": "uint256"
        }
      ],
      "name": "premium",
      "outputs": [
        {
          "internalType": "uint256",
          "name": "",
          "type": "uint256"
        }
      ],
      "stateMutability": "view",
      "type": "function"
    },
    {
      "inputs": [
        {
          "internalType": "string",
          "name": "name",
          "type": "string"
        },
        {
          "internalType": "uint256",
          "name": "expires",
          "type": "uint256"
        },
        {
          "internalType": "uint256",
          "name": "duration",
          "type": "uint256"
        }
      ],
      "name": "price",
      "outputs": [
        {
          "components": [
            {
              "internalType": "uint256",
              "name": "base",
              "type": "uint256"
            },
            {
              "internalType": "uint256",
              "name": "premium",
              "type": "uint256"
            }
          ],
          "internalType": "struct IPriceOracle.Price",
          "name": "",
          "type": "tuple"
        }
      ],
      "stateMutability": "view",
      "type": "function"
    },
    {
      "inputs": [],
      "name": "price1Letter",
      "outputs": [
        {
          "internalType": "uint256",
          "name": "",
          "type": "uint256"
        }
      ],
      "stateMutability": "view",
      "type": "function"
    },
    {
      "inputs": [],
      "name": "price2Letter",
      "outputs": [
        {
          "internalType": "uint256",
          "name": "",
          "type": "uint256"
        }
      ],
      "stateMutability": "view",
      "type": "function"
    },
    {
      "inputs": [],
      "name": "price3Letter",
      "outputs": [
        {
          "internalType": "uint256",
          "name": "",
          "type": "uint256"
        }
      ],
      "stateMutability": "view",
      "type": "function"
    },
    {
      "inputs": [],
      "name": "price4Letter",
      "outputs": [
        {
          "internalType": "uint256",
          "name": "",
          "type": "uint256"
        }
      ],
      "stateMutability": "view",
      "type": "function"
    },
    {
      "inputs": [],
      "name": "price5Letter",
      "outputs": [
        {
          "internalType": "uint256",
          "name": "",
          "type": "uint256"
        }
      ],
      "stateMutability": "view",
      "type": "function"
    },
    {
      "inputs": [
        {
          "internalType": "bytes4",
          "name": "interfaceID",
          "type": "bytes4"
        }
      ],
      "name": "supportsInterface",
      "outputs": [
        {
          "internalType": "bool",
          "name": "",
          "type": "bool"
        }
      ],
      "stateMutability": "view",
      "type": "function"
    },
    {
      "inputs": [],
      "name": "usdOracle",
      "outputs": [
        {
          "internalType": "contract AggregatorInterface",
          "name": "",
          "type": "address"
        }
      ],
      "stateMutability": "view",
      "type": "function"
    }
  ],
  "contractName": "ExponentialPremiumPriceOracle",
  "sourceName": "lib/ens-contracts/contracts/ethregistrar/ExponentialPremiumPriceOracle.sol",
  "bytecode": "0x610180604052348015610010575f80fd5b5060405161101738038061101783398101604081905261002f91610113565b6001600160a01b0384166101205282518490849081905f90610053576100536101fa565b60200260200101516080818152505080600181518110610075576100756101fa565b602002602001015160a0818152505080600281518110610097576100976101fa565b602002602001015160c08181525050806003815181106100b9576100b96101fa565b602002602001015160e08181525050806004815181106100db576100db6101fa565b60209081029190910101516101005250506101408290521c610160525061020e9050565b634e487b7160e01b5f52604160045260245ffd5b5f805f8060808587031215610126575f80fd5b84516001600160a01b038116811461013c575f80fd5b602086810151919550906001600160401b038082111561015a575f80fd5b818801915088601f83011261016d575f80fd5b81518181111561017f5761017f6100ff565b8060051b604051601f19603f830116810181811085821117156101a4576101a46100ff565b60405291825284820192508381018501918b8311156101c1575f80fd5b938501935b828510156101df578451845293850193928501926101c6565b60408b01516060909b0151999c909b50975050505050505050565b634e487b7160e01b5f52603260045260245ffd5b60805160a05160c05160e05161010051610120516101405161016051610d7e6102995f395f818161083c015261086601525f61081301525f81816101c1015261073401525f818161014d01526102c901525f8181610234015261030201525f8181610187015261033401525f818161020d015261036601525f818160ea01526103900152610d7e5ff3fe608060405234801561000f575f80fd5b50600436106100b9575f3560e01c8063a200e15311610072578063c8a4271f11610058578063c8a4271f146101bc578063cd5d2c7414610208578063d820ed421461022f575f80fd5b8063a200e15314610182578063a34e3596146101a9575f80fd5b806350e9a715116100a257806350e9a7151461011a57806359b6b86c1461014857806359e1777c1461016f575f80fd5b806301ffc9a7146100bd5780632c0fd74c146100e5575b5f80fd5b6100d06100cb366004610bbe565b610256565b60405190151581526020015b60405180910390f35b61010c7f000000000000000000000000000000000000000000000000000000000000000081565b6040519081526020016100dc565b61012d610128366004610bfd565b610266565b604080518251815260209283015192810192909252016100dc565b61010c7f000000000000000000000000000000000000000000000000000000000000000081565b61010c61017d366004610c75565b610427565b61010c7f000000000000000000000000000000000000000000000000000000000000000081565b61010c6101b7366004610bfd565b6104bd565b6101e37f000000000000000000000000000000000000000000000000000000000000000081565b60405173ffffffffffffffffffffffffffffffffffffffff90911681526020016100dc565b61010c7f000000000000000000000000000000000000000000000000000000000000000081565b61010c7f000000000000000000000000000000000000000000000000000000000000000081565b5f6102608261050c565b92915050565b604080518082019091525f80825260208201525f6102b886868080601f0160208091040260200160405190810160405280939291908181526020018383808284375f920191909152506105a392505050565b90505f600582106102f4576102ed847f0000000000000000000000000000000000000000000000000000000000000000610ca9565b90506103b7565b81600403610326576102ed847f0000000000000000000000000000000000000000000000000000000000000000610ca9565b81600303610358576102ed847f0000000000000000000000000000000000000000000000000000000000000000610ca9565b8160020361038a576102ed847f0000000000000000000000000000000000000000000000000000000000000000610ca9565b6103b4847f0000000000000000000000000000000000000000000000000000000000000000610ca9565b90505b60405180604001604052806103cb83610730565b815260200161041a6104158a8a8080601f0160208091040260200160405190810160405280939291908181526020018383808284375f920191909152508c92508b91506107e19050565b610730565b9052979650505050505050565b5f806201518061043f670de0b6b3a764000085610ca9565b6104499190610cc0565b90505f61045e670de0b6b3a764000083610cc0565b905084811c5f610476670de0b6b3a764000084610ca9565b6104809085610cdf565b90505f670de0b6b3a76400006104998362010000610ca9565b6104a39190610cc0565b90505f6104b0828561089f565b9998505050505050505050565b5f61050361041586868080601f0160208091040260200160405190810160405280939291908181526020018383808284375f920191909152508892508791506107e19050565b95945050505050565b5f7fffffffff0000000000000000000000000000000000000000000000000000000082167f01ffc9a700000000000000000000000000000000000000000000000000000000148061026057507fffffffff0000000000000000000000000000000000000000000000000000000082167f50e9a715000000000000000000000000000000000000000000000000000000001492915050565b80515f90819081905b80821015610727575f8583815181106105c7576105c7610cf2565b01602001516001600160f81b03191690507f80000000000000000000000000000000000000000000000000000000000000008110156106125761060b600184610d06565b9250610714565b7fe0000000000000000000000000000000000000000000000000000000000000006001600160f81b03198216101561064f5761060b600284610d06565b7ff0000000000000000000000000000000000000000000000000000000000000006001600160f81b03198216101561068c5761060b600384610d06565b7ff8000000000000000000000000000000000000000000000000000000000000006001600160f81b0319821610156106c95761060b600484610d06565b7ffc000000000000000000000000000000000000000000000000000000000000006001600160f81b0319821610156107065761060b600584610d06565b610711600684610d06565b92505b508261071f81610d19565b9350506105ac565b50909392505050565b5f807f000000000000000000000000000000000000000000000000000000000000000073ffffffffffffffffffffffffffffffffffffffff166350d25bcd6040518163ffffffff1660e01b8152600401602060405180830381865afa15801561079b573d5f803e3d5ffd5b505050506040513d601f19601f820116820180604052508101906107bf9190610d31565b9050806107d0846305f5e100610ca9565b6107da9190610cc0565b9392505050565b5f6107ef6276a70084610d06565b92504283111561080057505f6107da565b5f61080b8442610cdf565b90505f6108387f000000000000000000000000000000000000000000000000000000000000000083610427565b90507f000000000000000000000000000000000000000000000000000000000000000081106108945761088b7f000000000000000000000000000000000000000000000000000000000000000082610cdf565b925050506107da565b505f95945050505050565b5f60018316156108d157670de0b6b3a76400006108c4670de0ad151d09418084610ca9565b6108ce9190610cc0565b91505b600283161561090257670de0b6b3a76400006108f5670de0a3769959680084610ca9565b6108ff9190610cc0565b91505b600483161561093357670de0b6b3a7640000610926670de09039a5fa510084610ca9565b6109309190610cc0565b91505b600883161561096457670de0b6b3a7640000610957670de069c00f3e120084610ca9565b6109619190610cc0565b91505b601083161561099557670de0b6b3a7640000610988670de01cce21c9440084610ca9565b6109929190610cc0565b91505b60208316156109c657670de0b6b3a76400006109b9670ddf82ef46ce100084610ca9565b6109c39190610cc0565b91505b60408316156109f757670de0b6b3a76400006109ea670dde4f458f8e8d8084610ca9565b6109f49190610cc0565b91505b6080831615610a2857670de0b6b3a7640000610a1b670ddbe84213d5f08084610ca9565b610a259190610cc0565b91505b610100831615610a5a57670de0b6b3a7640000610a4d670dd71b7aa6df5b8084610ca9565b610a579190610cc0565b91505b610200831615610a8c57670de0b6b3a7640000610a7f670dcd86e7f28cde0084610ca9565b610a899190610cc0565b91505b610400831615610abe57670de0b6b3a7640000610ab1670dba71a3084ad68084610ca9565b610abb9190610cc0565b91505b610800831615610af057670de0b6b3a7640000610ae3670d94961b13dbde8084610ca9565b610aed9190610cc0565b91505b611000831615610b2257670de0b6b3a7640000610b15670d4a171c35c9838084610ca9565b610b1f9190610cc0565b91505b612000831615610b5457670de0b6b3a7640000610b47670cb9da519ccfb70084610ca9565b610b519190610cc0565b91505b614000831615610b8657670de0b6b3a7640000610b79670bab76d59c18d68084610ca9565b610b839190610cc0565b91505b618000831615610bb857670de0b6b3a7640000610bab6709d025defee4df8084610ca9565b610bb59190610cc0565b91505b50919050565b5f60208284031215610bce575f80fd5b81357fffffffff00000000000000000000000000000000000000000000000000000000811681146107da575f80fd5b5f805f8060608587031215610c10575f80fd5b843567ffffffffffffffff80821115610c27575f80fd5b818701915087601f830112610c3a575f80fd5b813581811115610c48575f80fd5b886020828501011115610c59575f80fd5b6020928301999098509187013596604001359550909350505050565b5f8060408385031215610c86575f80fd5b50508035926020909101359150565b634e487b7160e01b5f52601160045260245ffd5b808202811582820484141761026057610260610c95565b5f82610cda57634e487b7160e01b5f52601260045260245ffd5b500490565b8181038181111561026057610260610c95565b634e487b7160e01b5f52603260045260245ffd5b8082018082111561026057610260610c95565b5f60018201610d2a57610d2a610c95565b5060010190565b5f60208284031215610d41575f80fd5b505191905056fea2646970667358221220e479139b8331204f28dba0325e1d375833228fa99696ad9f3e67ac1ffe079d7164736f6c63430008190033",
  "linkReferences": {},
  "deployedLinkReferences": {},
  "immutableReferences": {
    "9501": [
      {
        "length": 32,
        "start": 2067
      }
    ],
    "9503": [
      {
        "length": 32,
        "start": 2108
      },
      {
        "length": 32,
        "start": 2150
      }
    ],
    "10566": [
      {
        "length": 32,
        "start": 234
      },
      {
        "length": 32,
        "start": 912
      }
    ],
    "10568": [
      {
        "length": 32,
        "start": 525
      },
      {
        "length": 32,
        "start": 870
      }
    ],
    "10570": [
      {
        "length": 32,
        "start": 391
      },
      {
        "length": 32,
        "start": 820
      }
    ],
    "10572": [
      {
        "length": 32,
        "start": 564
      },
      {
        "length": 32,
        "start": 770
      }
    ],
    "10574": [
      {
        "length": 32,
        "start": 333
      },
      {
        "length": 32,
        "start": 713
      }
    ],
    "10577": [
      {
        "length": 32,
        "start": 449
      },
      {
        "length": 32,
        "start": 1844
      }
    ]
  },
  "inputSourceName": "project/lib/ens-contracts/contracts/ethregistrar/ExponentialPremiumPriceOracle.sol",
  "devdoc": {
    "kind": "dev",
    "methods": {
      "decayedPremium(uint256,uint256)": {
        "details": "Returns the premium price at current time elapsed",
        "params": {
          "elapsed": "time past since expiry",
          "startPremium": "starting price"
        }
      },
      "premium(string,uint256,uint256)": {
        "details": "Returns the pricing premium in wei."
      },
      "price(string,uint256,uint256)": {
        "details": "Returns the price to register or renew a name.",
        "params": {
          "duration": "How long the name is being registered or extended for, in seconds.",
          "expires": "When the name presently expires (0 if this is a new registration).",
          "name": "The name being registered or renewed."
        },
        "returns": {
          "_0": "base premium tuple of base price + premium price"
        }
      }
    },
    "version": 1
  },
  "evm": {
    "gasEstimates": {
      "creation": {
        "codeDepositCost": "690800",
        "executionCost": "infinite",
        "totalCost": "infinite"
      },
      "external": {
        "decayedPremium(uint256,uint256)": "infinite",
        "premium(string,uint256,uint256)": "infinite",
        "price(string,uint256,uint256)": "infinite",
        "price1Letter()": "infinite",
        "price2Letter()": "infinite",
        "price3Letter()": "infinite",
        "price4Letter()": "infinite",
        "price5Letter()": "infinite",
        "supportsInterface(bytes4)": "428",
        "usdOracle()": "infinite"
      },
      "internal": {
        "_premium(string memory,uint256,uint256)": "infinite",
        "addFractionalPremium(uint256,uint256)": "595"
      }
    }
  },
  "storageLayout": {
    "storage": [],
    "types": null
  },
  "userdoc": {
    "kind": "user",
    "methods": {},
    "version": 1
  },
  "argsData": "0x0000000000000000000000004c4a2f8c81640e47606d3fd77b353e87ba015584000000000000000000000000000000000000000000000000000000000000008000000000000000000000000000000000000000000052b7d2dcc80cd2e4000000000000000000000000000000000000000000000000000000000000000000001500000000000000000000000000000000000000000000000000000000000000050000000000000000000000000000000000000000000000000000000000000000000000000000000000000000000000000000000000000000000000000000000000000000000000000000000000000000000000000000000000001275209157690000000000000000000000000000000000000000000000000000049d482455da00000000000000000000000000000000000000000000000000000024ea4122af",
  "transaction": {
    "hash": "0xf096f8f36bb310f8cb8ab509b080b28da3cc6fe023cdd89867cee3750546c391",
    "nonce": "0x46",
    "origin": "0xf39fd6e51aad88f6f4ce6ab8827279cfffb92266"
  }
}