{
  "address": "0xf4b146fba71f41e0592668ffbf264f1d186b2ca8",
  "abi": [
    {
      "inputs": [
        {
          "internalType": "bytes",
          "name": "addr",
          "type": "bytes"
        }
      ],
      "name": "InvalidAddressFormat",
      "type": "error"
    },
    {
      "inputs": [],
      "name": "NotImplemented",
      "type": "error"
    },
    {
      "inputs": [
        {
          "internalType": "uint256",
          "name": "offset",
          "type": "uint256"
        },
        {
          "internalType": "uint256",
          "name": "length",
          "type": "uint256"
        }
      ],
      "name": "OffsetOutOfBoundsError",
      "type": "error"
    },
    {
      "inputs": [
        {
          "internalType": "bytes",
          "name": "",
          "type": "bytes"
        },
        {
          "internalType": "bytes",
          "name": "data",
          "type": "bytes"
        },
        {
          "internalType": "bytes",
          "name": "context",
          "type": "bytes"
        }
      ],
      "name": "resolve",
      "outputs": [
        {
          "internalType": "bytes",
          "name": "",
          "type": "bytes"
        }
      ],
      "stateMutability": "pure",
      "type": "function"
    },
    {
      "inputs": [
        {
          "internalType": "bytes4",
          "name": "interfaceId",
          "type": "bytes4"
        }
      ],
      "name": "supportsInterface",
      "outputs": [
        {
          "internalType": "bool",
          "name": "",
          "type": "bool"
        }
      ],
      "stateMutability": "view",
      "type": "function"
    }
  ],
  "contractName": "ExtendedDNSResolver",
  "sourceName": "lib/ens-contracts/contracts/resolvers/profiles/ExtendedDNSResolver.sol",
  "bytecode": "0x6080604052348015600e575f80fd5b5061134a8061001c5f395ff3fe608060405234801561000f575f80fd5b5060043610610034575f3560e01c806301ffc9a7146100385780638ef98a7e1461008a575b5f80fd5b610075610046366004610f4f565b6001600160e01b0319167f8ef98a7e000000000000000000000000000000000000000000000000000000001490565b60405190151581526020015b60405180910390f35b61009d610098366004610fbb565b6100aa565b604051610081919061104e565b60605f6100b78587611083565b90507fc4c4a822000000000000000000000000000000000000000000000000000000006001600160e01b03198216016100fc576100f484846101b2565b9150506101a8565b7f0e3481fa000000000000000000000000000000000000000000000000000000006001600160e01b0319821601610139576100f4868686866102bb565b7fa62e2bc4000000000000000000000000000000000000000000000000000000006001600160e01b0319821601610176576100f486868686610441565b6040517fd623472500000000000000000000000000000000000000000000000000000000815260040160405180910390fd5b9695505050505050565b60605f61022884848080601f0160208091040260200160405190810160405280939291908181526020018383808284375f920191909152505060408051808201909152600681527f615b36305d3d0000000000000000000000000000000000000000000000000000602082015291506104d99050565b905080515f036102395790506102b5565b5f806102526002845185610ad99092919063ffffffff16565b915091508061027f5782604051630f79e00960e21b8152600401610276919061104e565b60405180910390fd5b6040805173ffffffffffffffffffffffffffffffffffffffff841660208201520160405160208183030381529060405293505050505b92915050565b60605f6102cb85600481896110b3565b8101906102d891906110da565b9150506060816380000000165f1461035d5761035685858080601f0160208091040260200160405190810160405280939291908181526020018383808284375f9201919091525061033292505050637fffffff8516610b11565b6040516020016103429190611111565b6040516020818303038152906040526104d9565b90506103b4565b6103b185858080601f0160208091040260200160405190810160405280939291908181526020018383808284375f920191909152506103a19250869150610b119050565b604051602001610342919061116f565b90505b80515f036103c55791506104399050565b5f806103de6002845185610ad99092919063ffffffff16565b91509150806104025782604051630f79e00960e21b8152600401610276919061104e565b6040805173ffffffffffffffffffffffffffffffffffffffff84166020820152016040516020818303038152906040529450505050505b949350505050565b60605f61045185600481896110b3565b81019061045e91906111b4565b9150505f6104ab85858080601f0160208091040260200160405190810160405280939291908181526020018383808284375f92019190915250506040516103429250869150602001611269565b9050806040516020016104be919061104e565b60405160208183030381529060405292505050949350505050565b81516060905f90815b81811015610ac15782610527578451610502908790839088905f90610baf565b1561051e57845161051390826112ae565b9050600392506104e2565b600192506104e2565b600183036105e6575b818110156105e15785818151811061054a5761054a6112c1565b01602001516001600160f81b031916603d60f81b0361057957600692506105726001826112ae565b90506104e2565b85818151811061058b5761058b6112c1565b01602001516001600160f81b0319167f5b00000000000000000000000000000000000000000000000000000000000000036105cf57600292506105726001826112ae565b806105d9816112d5565b915050610530565b6104e2565b60028303610697575b818110156105e157858181518110610609576106096112c1565b01602001516001600160f81b0319167f5d0000000000000000000000000000000000000000000000000000000000000003610685576006925061064d6001826112ae565b9050858181518110610661576106616112c1565b01602001516001600160f81b031916603d60f81b036105e1576105726001826112ae565b8061068f816112d5565b9150506105ef565b600383036106e2578581815181106106b1576106b16112c1565b01602001516001600160f81b031916602760f81b036106d957600492506105726001826112ae565b600592506104e2565b6004830361087c57805f805b8484101561087457801561077b5788848151811061070e5761070e6112c1565b01602001516001600160f81b0319168961072884866112ae565b81518110610738576107386112c1565b60200101907effffffffffffffffffffffffffffffffffffffffffffffffffffffffffffff191690815f1a9053506107716001836112ae565b91505f9050610869565b88848151811061078d5761078d6112c1565b01602001516001600160f81b031916601760fa1b036107ae57506001610869565b8884815181106107c0576107c06112c1565b01602001516001600160f81b031916602760f81b036107f1576107e4898484610bd1565b96505050505050506102b5565b888481518110610803576108036112c1565b01602001516001600160f81b0319168961081d84866112ae565b8151811061082d5761082d6112c1565b60200101907effffffffffffffffffffffffffffffffffffffffffffffffffffffffffffff191690815f1a9053506108666001836112ae565b91505b6001909301926106ee565b5050506104e2565b600583036108f357805b828210156108e5578682815181106108a0576108a06112c1565b01602001516001600160f81b031916600160fd1b036108da576108cf816108c781856112ed565b899190610bd1565b9450505050506102b5565b600190910190610886565b6108cf816108c781866112ed565b6006830361093e5785818151811061090d5761090d6112c1565b01602001516001600160f81b031916602760f81b0361093557600792506105726001826112ae565b600892506104e2565b60078303610a26575f5b82821015610a2057801561095d57505f610a0e565b86828151811061096f5761096f6112c1565b01602001516001600160f81b031916601760fa1b0361099057506001610a0e565b8682815181106109a2576109a26112c1565b01602001516001600160f81b031916602760f81b03610a0e576109c66001836112ae565b91505b8682815181106109db576109db6112c1565b01602001516001600160f81b031916600160fd1b03610a06576109ff6001836112ae565b91506109c9565b5f9350610a20565b81610a18816112d5565b925050610948565b506104e2565b60088314610a3657610a36611300565b818110156105e157858181518110610a5057610a506112c1565b01602001516001600160f81b031916600160fd1b03610aaf575b858181518110610a7c57610a7c6112c1565b01602001516001600160f81b031916600160fd1b03610aa757610aa06001826112ae565b9050610a6a565b5f92506104e2565b80610ab9816112d5565b915050610a36565b505060408051602081019091525f8152949350505050565b5f8082610ae78560286112ae565b14610af657505f905080610b09565b5f610b02868686610c2d565b9093509150505b935093915050565b60605f610b1d83610c9f565b60010190505f8167ffffffffffffffff811115610b3c57610b3c6111a0565b6040519080825280601f01601f191660200182016040528015610b66576020820181803683370190505b5090508181016020015b5f19017f3031323334353637383961626364656600000000000000000000000000000000600a86061a8153600a8504945084610b70575b509392505050565b5f610bbb848484610d80565b610bc6878785610d80565b149695505050505050565b60608167ffffffffffffffff811115610bec57610bec6111a0565b6040519080825280601f01601f191660200182016040528015610c16576020820181803683370190505b509050610c268484835f86610d9e565b9392505050565b5f8083831015610c4157505f905080610b09565b5f610c4c85856112ed565b90506040811180610c5d5750855184115b15610c6e57505f9150819050610b09565b858501602001610c7f815f84610dd6565b92506001820160011c6020035f518160031b1c9450505050935093915050565b5f807a184f03e93ff9f4daa797ed6e38ed64bf6a1f0100000000000000008310610ce7577a184f03e93ff9f4daa797ed6e38ed64bf6a1f010000000000000000830492506040015b6d04ee2d6d415b85acef81000000008310610d13576d04ee2d6d415b85acef8100000000830492506020015b662386f26fc100008310610d3157662386f26fc10000830492506010015b6305f5e1008310610d49576305f5e100830492506008015b6127108310610d5d57612710830492506004015b60648310610d6f576064830492506002015b600a83106102b55760010192915050565b5f610d9484610d8f84866112ae565b610eba565b5091016020012090565b610dac85610d8f83876112ae565b610dba83610d8f83856112ae565b610dcf82602085010185602088010183610f06565b5050505050565b5f610e34565b811a5f602f8211603a83101615610df85750602f1981016102b5565b60478210604083111615610e11575060361981016102b5565b60678210606083111615610e2a575060561981016102b5565b5061010092915050565b50600183820182821615610e6e57610e4d5f8651610ddc565b80855360018601955060018501945060ff811115610e6c575f92508195505b505b80851015610ba7578451610e83600182610ddc565b610e8d5f83610ddc565b60041b17905060ff811115610ea5575f925050610ba7565b80855350600285019450600184019350610e6e565b8151811115610f025781516040517f8a3c1cfb000000000000000000000000000000000000000000000000000000008152610276918391600401918252602082015260400190565b5050565b5b601f811115610f27578151835260209283019290910190601f1901610f07565b8015610f4a57815183516001602084900360031b1b5f1901801990921691161783525b505050565b5f60208284031215610f5f575f80fd5b81356001600160e01b031981168114610c26575f80fd5b5f8083601f840112610f86575f80fd5b50813567ffffffffffffffff811115610f9d575f80fd5b602083019150836020828501011115610fb4575f80fd5b9250929050565b5f805f805f8060608789031215610fd0575f80fd5b863567ffffffffffffffff80821115610fe7575f80fd5b610ff38a838b01610f76565b9098509650602089013591508082111561100b575f80fd5b6110178a838b01610f76565b9096509450604089013591508082111561102f575f80fd5b5061103c89828a01610f76565b979a9699509497509295939492505050565b602081525f82518060208401528060208501604085015e5f604082850101526040601f19601f83011684010191505092915050565b6001600160e01b031981358181169160048510156110ab5780818660040360031b1b83161692505b505092915050565b5f80858511156110c1575f80fd5b838611156110cd575f80fd5b5050820193919092039150565b5f80604083850312156110eb575f80fd5b50508035926020909101359150565b5f81518060208401855e5f93019283525090919050565b7f615b65000000000000000000000000000000000000000000000000000000000081525f61114260038301846110fa565b7f5d3d00000000000000000000000000000000000000000000000000000000000081526002019392505050565b7f615b00000000000000000000000000000000000000000000000000000000000081525f61114260028301846110fa565b634e487b7160e01b5f52604160045260245ffd5b5f80604083850312156111c5575f80fd5b82359150602083013567ffffffffffffffff808211156111e3575f80fd5b818501915085601f8301126111f6575f80fd5b813581811115611208576112086111a0565b604051601f8201601f19908116603f01168101908382118183101715611230576112306111a0565b81604052828152886020848701011115611248575f80fd5b826020860160208301375f6020848301015280955050505050509250929050565b7f745b00000000000000000000000000000000000000000000000000000000000081525f61114260028301846110fa565b634e487b7160e01b5f52601160045260245ffd5b808201808211156102b5576102b561129a565b634e487b7160e01b5f52603260045260245ffd5b5f600182016112e6576112e661129a565b5060010190565b818103818111156102b5576102b561129a565b634e487b7160e01b5f52600160045260245ffdfea2646970667358221220ec81caa547cc1678c2f79e06521a8089d161d66e2b56d161332c64657625290664736f6c63430008190033",
  "linkReferences": {},
  "deployedLinkReferences": {},
  "immutableReferences": {},
  "inputSourceName": "project/lib/ens-contracts/contracts/resolvers/profiles/ExtendedDNSResolver.sol",
  "devdoc": {
    "details": "Resolves names on ENS by interpreting record data stored in a DNS TXT record.      This resolver implements the IExtendedDNSResolver interface, meaning that when      a DNS name specifies it as the resolver via a TXT record, this resolver's      resolve() method is invoked, and is passed any additional information from that      text record. This resolver implements a simple text parser allowing a variety      of records to be specified in text, which will then be used to resolve the name      in ENS.      To use this, set a TXT record on your DNS name in the following format:          ENS1 <address or name of ExtendedDNSResolver> <record data>      For example:          ENS1 2.dnsname.ens.eth a[60]=0x1234...      The record data consists of a series of key=value pairs, separated by spaces. Keys      may have an optional argument in square brackets, and values may be either unquoted       - in which case they may not contain spaces - or single-quoted. Single quotes in      a quoted value may be backslash-escaped.                                       ┌────────┐                                       │ ┌───┐  │        ┌──────────────────────────────┴─┤\" \"│◄─┴────────────────────────────────────────┐        │                                └───┘                                           │        │  ┌───┐    ┌───┐    ┌───┐    ┌───┐    ┌───┐    ┌───┐    ┌────────────┐    ┌───┐ │      ^─┴─►│key├─┬─►│\"[\"├───►│arg├───►│\"]\"├─┬─►│\"=\"├─┬─►│\"'\"├───►│quoted_value├───►│\"'\"├─┼─$           └───┘ │  └───┘    └───┘    └───┘ │  └───┘ │  └───┘    └────────────┘    └───┘ │                 └──────────────────────────┘        │          ┌──────────────┐         │                                                     └─────────►│unquoted_value├─────────┘                                                                └──────────────┘      Record types:       - a[<coinType>] - Specifies how an `addr()` request should be resolved for the specified         `coinType`. Ethereum has `coinType` 60. The value must be 0x-prefixed hexadecimal, and will         be returned unmodified; this means that non-EVM addresses will need to be translated         into binary format and then encoded in hex.         Examples:          - a[60]=0xFe89cc7aBB2C4183683ab71653C4cdc9B02D44b7          - a[0]=0x00149010587f8364b964fcaa70687216b53bd2cbd798       - a[e<chainId>] - Specifies how an `addr()` request should be resolved for the specified         `chainId`. The value must be 0x-prefixed hexadecimal. When encoding an address for an         EVM-based cryptocurrency that uses a chainId instead of a coinType, this syntax *must*         be used in place of the coin type - eg, Optimism is `a[e10]`, not `a[2147483658]`.         A list of supported cryptocurrencies for both syntaxes can be found here:           https://github.com/ensdomains/address-encoder/blob/master/docs/supported-cryptocurrencies.md         Example:          - a[e10]=0xFe89cc7aBB2C4183683ab71653C4cdc9B02D44b7       - t[<key>] - Specifies how a `text()` request should be resolved for the specified `key`.         Examples:          - t[com.twitter]=nicksdjohnson          - t[url]='https://ens.domains/'          - t[note]='I\\'m great'",
    "errors": {
      "OffsetOutOfBoundsError(uint256,uint256)": [
        {
          "details": "`offset` was beyond `length`.       Error selector: `0x8a3c1cfb`"
        }
      ]
    },
    "kind": "dev",
    "methods": {
      "supportsInterface(bytes4)": {
        "details": "Returns true if this contract implements the interface defined by `interfaceId`. See the corresponding https://eips.ethereum.org/EIPS/eip-165#how-interfaces-are-identified[EIP section] to learn more about how these ids are created. This function call must use less than 30 000 gas."
      }
    },
    "version": 1
  },
  "evm": {
    "gasEstimates": {
      "creation": {
        "codeDepositCost": "987600",
        "executionCost": "1025",
        "totalCost": "988625"
      },
      "external": {
        "resolve(bytes,bytes,bytes)": "infinite",
        "supportsInterface(bytes4)": "316"
      },
      "internal": {
        "_findValue(bytes memory,bytes memory)": "infinite",
        "_resolveAddr(bytes calldata)": "infinite",
        "_resolveAddress(bytes calldata,bytes calldata)": "infinite",
        "_resolveText(bytes calldata,bytes calldata)": "infinite"
      }
    }
  },
  "storageLayout": {
    "storage": [],
    "types": null
  },
  "userdoc": {
    "kind": "user",
    "methods": {},
    "version": 1
  },
  "argsData": "0x",
  "transaction": {
    "hash": "0xbcef2bec338591af1966c60f275fe7dc03e203abda6015b2e3bfa36d935f5a07",
    "nonce": "0x4f",
    "origin": "0xf39fd6e51aad88f6f4ce6ab8827279cfffb92266"
  }
}