{
  "address": "0x2bdcc0de6be1f7d2ee689a0342d76f52e8efaba3",
  "abi": [
    {
      "inputs": [
        {
          "internalType": "contract INameWrapper",
          "name": "nameWrapper",
          "type": "address"
        },
        {
          "internalType": "contract IPermissionedRegistry",
          "name": "ethRegistry",
          "type": "address"
        },
        {
          "internalType": "contract VerifiableFactory",
          "name": "factory",
          "type": "address"
        },
        {
          "internalType": "contract IRegistryDatastore",
          "name": "datastore",
          "type": "address"
        },
        {
          "internalType": "contract IHCAFactoryBasic",
          "name": "hcaFactory",
          "type": "address"
        },
        {
          "internalType": "contract IRegistryMetadata",
          "name": "metadataProvider",
          "type": "address"
        },
        {
          "internalType": "address",
          "name": "fallbackResolver",
          "type": "address"
        }
      ],
      "stateMutability": "nonpayable",
      "type": "constructor"
    },
    {
      "inputs": [
        {
          "internalType": "uint256",
          "name": "tokenId",
          "type": "uint256"
        },
        {
          "internalType": "address",
          "name": "owner",
          "type": "address"
        },
        {
          "internalType": "address",
          "name": "caller",
          "type": "address"
        }
      ],
      "name": "AccessDenied",
      "type": "error"
    },
    {
      "inputs": [
        {
          "internalType": "address",
          "name": "target",
          "type": "address"
        }
      ],
      "name": "AddressEmptyCode",
      "type": "error"
    },
    {
      "inputs": [
        {
          "internalType": "uint64",
          "name": "oldExpiration",
          "type": "uint64"
        },
        {
          "internalType": "uint64",
          "name": "newExpiration",
          "type": "uint64"
        }
      ],
      "name": "CannotReduceExpiration",
      "type": "error"
    },
    {
      "inputs": [
        {
          "internalType": "uint64",
          "name": "expiry",
          "type": "uint64"
        }
      ],
      "name": "CannotSetPastExpiration",
      "type": "error"
    },
    {
      "inputs": [
        {
          "internalType": "bytes",
          "name": "dns",
          "type": "bytes"
        }
      ],
      "name": "DNSDecodingFailed",
      "type": "error"
    },
    {
      "inputs": [
        {
          "internalType": "uint256",
          "name": "resource",
          "type": "uint256"
        },
        {
          "internalType": "uint256",
          "name": "roleBitmap",
          "type": "uint256"
        },
        {
          "internalType": "address",
          "name": "account",
          "type": "address"
        }
      ],
      "name": "EACCannotGrantRoles",
      "type": "error"
    },
    {
      "inputs": [
        {
          "internalType": "uint256",
          "name": "resource",
          "type": "uint256"
        },
        {
          "internalType": "uint256",
          "name": "roleBitmap",
          "type": "uint256"
        },
        {
          "internalType": "address",
          "name": "account",
          "type": "address"
        }
      ],
      "name": "EACCannotRevokeRoles",
      "type": "error"
    },
    {
      "inputs": [],
      "name": "EACInvalidAccount",
      "type": "error"
    },
    {
      "inputs": [
        {
          "internalType": "uint256",
          "name": "roleBitmap",
          "type": "uint256"
        }
      ],
      "name": "EACInvalidRoleBitmap",
      "type": "error"
    },
    {
      "inputs": [
        {
          "internalType": "uint256",
          "name": "resource",
          "type": "uint256"
        },
        {
          "internalType": "uint256",
          "name": "role",
          "type": "uint256"
        }
      ],
      "name": "EACMaxAssignees",
      "type": "error"
    },
    {
      "inputs": [
        {
          "internalType": "uint256",
          "name": "resource",
          "type": "uint256"
        },
        {
          "internalType": "uint256",
          "name": "role",
          "type": "uint256"
        }
      ],
      "name": "EACMinAssignees",
      "type": "error"
    },
    {
      "inputs": [],
      "name": "EACRootResourceNotAllowed",
      "type": "error"
    },
    {
      "inputs": [
        {
          "internalType": "uint256",
          "name": "resource",
          "type": "uint256"
        },
        {
          "internalType": "uint256",
          "name": "roleBitmap",
          "type": "uint256"
        },
        {
          "internalType": "address",
          "name": "account",
          "type": "address"
        }
      ],
      "name": "EACUnauthorizedAccountRoles",
      "type": "error"
    },
    {
      "inputs": [
        {
          "internalType": "address",
          "name": "sender",
          "type": "address"
        },
        {
          "internalType": "uint256",
          "name": "balance",
          "type": "uint256"
        },
        {
          "internalType": "uint256",
          "name": "needed",
          "type": "uint256"
        },
        {
          "internalType": "uint256",
          "name": "tokenId",
          "type": "uint256"
        }
      ],
      "name": "ERC1155InsufficientBalance",
      "type": "error"
    },
    {
      "inputs": [
        {
          "internalType": "address",
          "name": "approver",
          "type": "address"
        }
      ],
      "name": "ERC1155InvalidApprover",
      "type": "error"
    },
    {
      "inputs": [
        {
          "internalType": "uint256",
          "name": "idsLength",
          "type": "uint256"
        },
        {
          "internalType": "uint256",
          "name": "valuesLength",
          "type": "uint256"
        }
      ],
      "name": "ERC1155InvalidArrayLength",
      "type": "error"
    },
    {
      "inputs": [
        {
          "internalType": "address",
          "name": "operator",
          "type": "address"
        }
      ],
      "name": "ERC1155InvalidOperator",
      "type": "error"
    },
    {
      "inputs": [
        {
          "internalType": "address",
          "name": "receiver",
          "type": "address"
        }
      ],
      "name": "ERC1155InvalidReceiver",
      "type": "error"
    },
    {
      "inputs": [
        {
          "internalType": "address",
          "name": "sender",
          "type": "address"
        }
      ],
      "name": "ERC1155InvalidSender",
      "type": "error"
    },
    {
      "inputs": [
        {
          "internalType": "address",
          "name": "operator",
          "type": "address"
        },
        {
          "internalType": "address",
          "name": "owner",
          "type": "address"
        }
      ],
      "name": "ERC1155MissingApprovalForAll",
      "type": "error"
    },
    {
      "inputs": [
        {
          "internalType": "address",
          "name": "implementation",
          "type": "address"
        }
      ],
      "name": "ERC1967InvalidImplementation",
      "type": "error"
    },
    {
      "inputs": [],
      "name": "ERC1967NonPayable",
      "type": "error"
    },
    {
      "inputs": [],
      "name": "FailedCall",
      "type": "error"
    },
    {
      "inputs": [],
      "name": "InvalidInitialization",
      "type": "error"
    },
    {
      "inputs": [
        {
          "internalType": "string",
          "name": "label",
          "type": "string"
        }
      ],
      "name": "LabelNotMigrated",
      "type": "error"
    },
    {
      "inputs": [
        {
          "internalType": "string",
          "name": "label",
          "type": "string"
        }
      ],
      "name": "NameAlreadyRegistered",
      "type": "error"
    },
    {
      "inputs": [
        {
          "internalType": "uint256",
          "name": "tokenId",
          "type": "uint256"
        }
      ],
      "name": "NameExpired",
      "type": "error"
    },
    {
      "inputs": [
        {
          "internalType": "uint256",
          "name": "tokenId",
          "type": "uint256"
        }
      ],
      "name": "NameNotEmancipated",
      "type": "error"
    },
    {
      "inputs": [],
      "name": "NoParentDomain",
      "type": "error"
    },
    {
      "inputs": [],
      "name": "NotInitializing",
      "type": "error"
    },
    {
      "inputs": [
        {
          "internalType": "bytes",
          "name": "name",
          "type": "bytes"
        },
        {
          "internalType": "uint256",
          "name": "offset",
          "type": "uint256"
        }
      ],
      "name": "ParentNotMigrated",
      "type": "error"
    },
    {
      "inputs": [
        {
          "internalType": "uint256",
          "name": "tokenId",
          "type": "uint256"
        },
        {
          "internalType": "address",
          "name": "from",
          "type": "address"
        }
      ],
      "name": "TransferDisallowed",
      "type": "error"
    },
    {
      "inputs": [],
      "name": "UUPSUnauthorizedCallContext",
      "type": "error"
    },
    {
      "inputs": [
        {
          "internalType": "bytes32",
          "name": "slot",
          "type": "bytes32"
        }
      ],
      "name": "UUPSUnsupportedProxiableUUID",
      "type": "error"
    },
    {
      "inputs": [
        {
          "internalType": "address",
          "name": "caller",
          "type": "address"
        }
      ],
      "name": "UnauthorizedCaller",
      "type": "error"
    },
    {
      "anonymous": false,
      "inputs": [
        {
          "indexed": true,
          "internalType": "address",
          "name": "owner",
          "type": "address"
        },
        {
          "indexed": true,
          "internalType": "address",
          "name": "approved",
          "type": "address"
        },
        {
          "indexed": true,
          "internalType": "uint256",
          "name": "tokenId",
          "type": "uint256"
        }
      ],
      "name": "Approval",
      "type": "event"
    },
    {
      "anonymous": false,
      "inputs": [
        {
          "indexed": true,
          "internalType": "address",
          "name": "account",
          "type": "address"
        },
        {
          "indexed": true,
          "internalType": "address",
          "name": "operator",
          "type": "address"
        },
        {
          "indexed": false,
          "internalType": "bool",
          "name": "approved",
          "type": "bool"
        }
      ],
      "name": "ApprovalForAll",
      "type": "event"
    },
    {
      "anonymous": false,
      "inputs": [
        {
          "indexed": true,
          "internalType": "uint256",
          "name": "resource",
          "type": "uint256"
        },
        {
          "indexed": true,
          "internalType": "address",
          "name": "account",
          "type": "address"
        },
        {
          "indexed": false,
          "internalType": "uint256",
          "name": "oldRoleBitmap",
          "type": "uint256"
        },
        {
          "indexed": false,
          "internalType": "uint256",
          "name": "newRoleBitmap",
          "type": "uint256"
        }
      ],
      "name": "EACRolesChanged",
      "type": "event"
    },
    {
      "anonymous": false,
      "inputs": [
        {
          "indexed": true,
          "internalType": "uint256",
          "name": "tokenId",
          "type": "uint256"
        },
        {
          "indexed": false,
          "internalType": "uint64",
          "name": "newExpiry",
          "type": "uint64"
        },
        {
          "indexed": false,
          "internalType": "address",
          "name": "changedBy",
          "type": "address"
        }
      ],
      "name": "ExpiryUpdated",
      "type": "event"
    },
    {
      "anonymous": false,
      "inputs": [
        {
          "indexed": false,
          "internalType": "uint64",
          "name": "version",
          "type": "uint64"
        }
      ],
      "name": "Initialized",
      "type": "event"
    },
    {
      "anonymous": false,
      "inputs": [
        {
          "indexed": true,
          "internalType": "uint256",
          "name": "tokenId",
          "type": "uint256"
        },
        {
          "indexed": false,
          "internalType": "string",
          "name": "label",
          "type": "string"
        },
        {
          "indexed": false,
          "internalType": "uint64",
          "name": "expiry",
          "type": "uint64"
        },
        {
          "indexed": false,
          "internalType": "address",
          "name": "registeredBy",
          "type": "address"
        }
      ],
      "name": "NameRegistered",
      "type": "event"
    },
    {
      "anonymous": false,
      "inputs": [
        {
          "indexed": true,
          "internalType": "uint256",
          "name": "tokenId",
          "type": "uint256"
        },
        {
          "indexed": false,
          "internalType": "address",
          "name": "resolver",
          "type": "address"
        }
      ],
      "name": "ResolverUpdated",
      "type": "event"
    },
    {
      "anonymous": false,
      "inputs": [
        {
          "indexed": true,
          "internalType": "uint256",
          "name": "tokenId",
          "type": "uint256"
        },
        {
          "indexed": false,
          "internalType": "contract IRegistry",
          "name": "subregistry",
          "type": "address"
        }
      ],
      "name": "SubregistryUpdated",
      "type": "event"
    },
    {
      "anonymous": false,
      "inputs": [
        {
          "indexed": true,
          "internalType": "uint256",
          "name": "oldTokenId",
          "type": "uint256"
        },
        {
          "indexed": true,
          "internalType": "uint256",
          "name": "newTokenId",
          "type": "uint256"
        },
        {
          "indexed": false,
          "internalType": "uint256",
          "name": "resource",
          "type": "uint256"
        }
      ],
      "name": "TokenRegenerated",
      "type": "event"
    },
    {
      "anonymous": false,
      "inputs": [
        {
          "indexed": true,
          "internalType": "address",
          "name": "operator",
          "type": "address"
        },
        {
          "indexed": true,
          "internalType": "address",
          "name": "from",
          "type": "address"
        },
        {
          "indexed": true,
          "internalType": "address",
          "name": "to",
          "type": "address"
        },
        {
          "indexed": false,
          "internalType": "uint256[]",
          "name": "ids",
          "type": "uint256[]"
        },
        {
          "indexed": false,
          "internalType": "uint256[]",
          "name": "values",
          "type": "uint256[]"
        }
      ],
      "name": "TransferBatch",
      "type": "event"
    },
    {
      "anonymous": false,
      "inputs": [
        {
          "indexed": true,
          "internalType": "address",
          "name": "operator",
          "type": "address"
        },
        {
          "indexed": true,
          "internalType": "address",
          "name": "from",
          "type": "address"
        },
        {
          "indexed": true,
          "internalType": "address",
          "name": "to",
          "type": "address"
        },
        {
          "indexed": false,
          "internalType": "uint256",
          "name": "id",
          "type": "uint256"
        },
        {
          "indexed": false,
          "internalType": "uint256",
          "name": "value",
          "type": "uint256"
        }
      ],
      "name": "TransferSingle",
      "type": "event"
    },
    {
      "anonymous": false,
      "inputs": [
        {
          "indexed": false,
          "internalType": "string",
          "name": "value",
          "type": "string"
        },
        {
          "indexed": true,
          "internalType": "uint256",
          "name": "id",
          "type": "uint256"
        }
      ],
      "name": "URI",
      "type": "event"
    },
    {
      "anonymous": false,
      "inputs": [
        {
          "indexed": true,
          "internalType": "address",
          "name": "implementation",
          "type": "address"
        }
      ],
      "name": "Upgraded",
      "type": "event"
    },
    {
      "inputs": [],
      "name": "DATASTORE",
      "outputs": [
        {
          "internalType": "contract IRegistryDatastore",
          "name": "",
          "type": "address"
        }
      ],
      "stateMutability": "view",
      "type": "function"
    },
    {
      "inputs": [],
      "name": "ETH_REGISTRY",
      "outputs": [
        {
          "internalType": "contract IPermissionedRegistry",
          "name": "",
          "type": "address"
        }
      ],
      "stateMutability": "view",
      "type": "function"
    },
    {
      "inputs": [],
      "name": "FACTORY",
      "outputs": [
        {
          "internalType": "contract VerifiableFactory",
          "name": "",
          "type": "address"
        }
      ],
      "stateMutability": "view",
      "type": "function"
    },
    {
      "inputs": [],
      "name": "FALLBACK_RESOLVER",
      "outputs": [
        {
          "internalType": "address",
          "name": "",
          "type": "address"
        }
      ],
      "stateMutability": "view",
      "type": "function"
    },
    {
      "inputs": [],
      "name": "HCA_FACTORY",
      "outputs": [
        {
          "internalType": "contract IHCAFactoryBasic",
          "name": "",
          "type": "address"
        }
      ],
      "stateMutability": "view",
      "type": "function"
    },
    {
      "inputs": [],
      "name": "METADATA_PROVIDER",
      "outputs": [
        {
          "internalType": "contract IRegistryMetadata",
          "name": "",
          "type": "address"
        }
      ],
      "stateMutability": "view",
      "type": "function"
    },
    {
      "inputs": [],
      "name": "NAME_WRAPPER",
      "outputs": [
        {
          "internalType": "contract INameWrapper",
          "name": "",
          "type": "address"
        }
      ],
      "stateMutability": "view",
      "type": "function"
    },
    {
      "inputs": [],
      "name": "ROOT_RESOURCE",
      "outputs": [
        {
          "internalType": "uint256",
          "name": "",
          "type": "uint256"
        }
      ],
      "stateMutability": "view",
      "type": "function"
    },
    {
      "inputs": [],
      "name": "UPGRADE_INTERFACE_VERSION",
      "outputs": [
        {
          "internalType": "string",
          "name": "",
          "type": "string"
        }
      ],
      "stateMutability": "view",
      "type": "function"
    },
    {
      "inputs": [
        {
          "internalType": "address",
          "name": "account",
          "type": "address"
        },
        {
          "internalType": "uint256",
          "name": "id",
          "type": "uint256"
        }
      ],
      "name": "balanceOf",
      "outputs": [
        {
          "internalType": "uint256",
          "name": "",
          "type": "uint256"
        }
      ],
      "stateMutability": "view",
      "type": "function"
    },
    {
      "inputs": [
        {
          "internalType": "address[]",
          "name": "accounts",
          "type": "address[]"
        },
        {
          "internalType": "uint256[]",
          "name": "ids",
          "type": "uint256[]"
        }
      ],
      "name": "balanceOfBatch",
      "outputs": [
        {
          "internalType": "uint256[]",
          "name": "",
          "type": "uint256[]"
        }
      ],
      "stateMutability": "view",
      "type": "function"
    },
    {
      "inputs": [
        {
          "internalType": "uint256",
          "name": "anyId",
          "type": "uint256"
        },
        {
          "internalType": "uint256",
          "name": "roleBitmap",
          "type": "uint256"
        }
      ],
      "name": "getAssigneeCount",
      "outputs": [
        {
          "internalType": "uint256",
          "name": "counts",
          "type": "uint256"
        },
        {
          "internalType": "uint256",
          "name": "mask",
          "type": "uint256"
        }
      ],
      "stateMutability": "view",
      "type": "function"
    },
    {
      "inputs": [
        {
          "internalType": "uint256",
          "name": "anyId",
          "type": "uint256"
        }
      ],
      "name": "getEntry",
      "outputs": [
        {
          "components": [
            {
              "internalType": "uint64",
              "name": "expiry",
              "type": "uint64"
            },
            {
              "internalType": "uint32",
              "name": "tokenVersionId",
              "type": "uint32"
            },
            {
              "internalType": "contract IRegistry",
              "name": "subregistry",
              "type": "address"
            },
            {
              "internalType": "uint32",
              "name": "eacVersionId",
              "type": "uint32"
            },
            {
              "internalType": "address",
              "name": "resolver",
              "type": "address"
            }
          ],
          "internalType": "struct IRegistryDatastore.Entry",
          "name": "",
          "type": "tuple"
        }
      ],
      "stateMutability": "view",
      "type": "function"
    },
    {
      "inputs": [
        {
          "internalType": "uint256",
          "name": "anyId",
          "type": "uint256"
        }
      ],
      "name": "getExpiry",
      "outputs": [
        {
          "internalType": "uint64",
          "name": "",
          "type": "uint64"
        }
      ],
      "stateMutability": "view",
      "type": "function"
    },
    {
      "inputs": [
        {
          "internalType": "string",
          "name": "label",
          "type": "string"
        }
      ],
      "name": "getNameData",
      "outputs": [
        {
          "internalType": "uint256",
          "name": "tokenId",
          "type": "uint256"
        },
        {
          "components": [
            {
              "internalType": "uint64",
              "name": "expiry",
              "type": "uint64"
            },
            {
              "internalType": "uint32",
              "name": "tokenVersionId",
              "type": "uint32"
            },
            {
              "internalType": "contract IRegistry",
              "name": "subregistry",
              "type": "address"
            },
            {
              "internalType": "uint32",
              "name": "eacVersionId",
              "type": "uint32"
            },
            {
              "internalType": "address",
              "name": "resolver",
              "type": "address"
            }
          ],
          "internalType": "struct IRegistryDatastore.Entry",
          "name": "entry",
          "type": "tuple"
        }
      ],
      "stateMutability": "view",
      "type": "function"
    },
    {
      "inputs": [
        {
          "internalType": "string",
          "name": "label",
          "type": "string"
        }
      ],
      "name": "getResolver",
      "outputs": [
        {
          "internalType": "address",
          "name": "",
          "type": "address"
        }
      ],
      "stateMutability": "view",
      "type": "function"
    },
    {
      "inputs": [
        {
          "internalType": "uint256",
          "name": "anyId",
          "type": "uint256"
        }
      ],
      "name": "getResource",
      "outputs": [
        {
          "internalType": "uint256",
          "name": "",
          "type": "uint256"
        }
      ],
      "stateMutability": "view",
      "type": "function"
    },
    {
      "inputs": [
        {
          "internalType": "string",
          "name": "label",
          "type": "string"
        }
      ],
      "name": "getSubregistry",
      "outputs": [
        {
          "internalType": "contract IRegistry",
          "name": "",
          "type": "address"
        }
      ],
      "stateMutability": "view",
      "type": "function"
    },
    {
      "inputs": [
        {
          "internalType": "uint256",
          "name": "anyId",
          "type": "uint256"
        }
      ],
      "name": "getTokenId",
      "outputs": [
        {
          "internalType": "uint256",
          "name": "",
          "type": "uint256"
        }
      ],
      "stateMutability": "view",
      "type": "function"
    },
    {
      "inputs": [
        {
          "internalType": "uint256",
          "name": "anyId",
          "type": "uint256"
        },
        {
          "internalType": "uint256",
          "name": "roleBitmap",
          "type": "uint256"
        },
        {
          "internalType": "address",
          "name": "account",
          "type": "address"
        }
      ],
      "name": "grantRoles",
      "outputs": [
        {
          "internalType": "bool",
          "name": "",
          "type": "bool"
        }
      ],
      "stateMutability": "nonpayable",
      "type": "function"
    },
    {
      "inputs": [
        {
          "internalType": "uint256",
          "name": "roleBitmap",
          "type": "uint256"
        },
        {
          "internalType": "address",
          "name": "account",
          "type": "address"
        }
      ],
      "name": "grantRootRoles",
      "outputs": [
        {
          "internalType": "bool",
          "name": "",
          "type": "bool"
        }
      ],
      "stateMutability": "nonpayable",
      "type": "function"
    },
    {
      "inputs": [
        {
          "internalType": "uint256",
          "name": "anyId",
          "type": "uint256"
        },
        {
          "internalType": "uint256",
          "name": "roleBitmap",
          "type": "uint256"
        }
      ],
      "name": "hasAssignees",
      "outputs": [
        {
          "internalType": "bool",
          "name": "",
          "type": "bool"
        }
      ],
      "stateMutability": "view",
      "type": "function"
    },
    {
      "inputs": [
        {
          "internalType": "uint256",
          "name": "anyId",
          "type": "uint256"
        },
        {
          "internalType": "uint256",
          "name": "rolesBitmap",
          "type": "uint256"
        },
        {
          "internalType": "address",
          "name": "account",
          "type": "address"
        }
      ],
      "name": "hasRoles",
      "outputs": [
        {
          "internalType": "bool",
          "name": "",
          "type": "bool"
        }
      ],
      "stateMutability": "view",
      "type": "function"
    },
    {
      "inputs": [
        {
          "internalType": "uint256",
          "name": "rolesBitmap",
          "type": "uint256"
        },
        {
          "internalType": "address",
          "name": "account",
          "type": "address"
        }
      ],
      "name": "hasRootRoles",
      "outputs": [
        {
          "internalType": "bool",
          "name": "",
          "type": "bool"
        }
      ],
      "stateMutability": "view",
      "type": "function"
    },
    {
      "inputs": [
        {
          "internalType": "bytes",
          "name": "parentDnsEncodedName_",
          "type": "bytes"
        },
        {
          "internalType": "address",
          "name": "ownerAddress_",
          "type": "address"
        },
        {
          "internalType": "uint256",
          "name": "ownerRoles_",
          "type": "uint256"
        },
        {
          "internalType": "address",
          "name": "registrarAddress_",
          "type": "address"
        }
      ],
      "name": "initialize",
      "outputs": [],
      "stateMutability": "nonpayable",
      "type": "function"
    },
    {
      "inputs": [
        {
          "internalType": "address",
          "name": "account",
          "type": "address"
        },
        {
          "internalType": "address",
          "name": "operator",
          "type": "address"
        }
      ],
      "name": "isApprovedForAll",
      "outputs": [
        {
          "internalType": "bool",
          "name": "",
          "type": "bool"
        }
      ],
      "stateMutability": "view",
      "type": "function"
    },
    {
      "inputs": [
        {
          "internalType": "uint256",
          "name": "tokenId",
          "type": "uint256"
        }
      ],
      "name": "latestOwnerOf",
      "outputs": [
        {
          "internalType": "address",
          "name": "",
          "type": "address"
        }
      ],
      "stateMutability": "view",
      "type": "function"
    },
    {
      "inputs": [
        {
          "internalType": "address",
          "name": "",
          "type": "address"
        },
        {
          "internalType": "address",
          "name": "",
          "type": "address"
        },
        {
          "internalType": "uint256[]",
          "name": "tokenIds",
          "type": "uint256[]"
        },
        {
          "internalType": "uint256[]",
          "name": "",
          "type": "uint256[]"
        },
        {
          "internalType": "bytes",
          "name": "data",
          "type": "bytes"
        }
      ],
      "name": "onERC1155BatchReceived",
      "outputs": [
        {
          "internalType": "bytes4",
          "name": "",
          "type": "bytes4"
        }
      ],
      "stateMutability": "nonpayable",
      "type": "function"
    },
    {
      "inputs": [
        {
          "internalType": "address",
          "name": "",
          "type": "address"
        },
        {
          "internalType": "address",
          "name": "",
          "type": "address"
        },
        {
          "internalType": "uint256",
          "name": "tokenId",
          "type": "uint256"
        },
        {
          "internalType": "uint256",
          "name": "",
          "type": "uint256"
        },
        {
          "internalType": "bytes",
          "name": "data",
          "type": "bytes"
        }
      ],
      "name": "onERC1155Received",
      "outputs": [
        {
          "internalType": "bytes4",
          "name": "",
          "type": "bytes4"
        }
      ],
      "stateMutability": "nonpayable",
      "type": "function"
    },
    {
      "inputs": [
        {
          "internalType": "uint256",
          "name": "tokenId",
          "type": "uint256"
        }
      ],
      "name": "ownerOf",
      "outputs": [
        {
          "internalType": "address",
          "name": "",
          "type": "address"
        }
      ],
      "stateMutability": "view",
      "type": "function"
    },
    {
      "inputs": [],
      "name": "parentDnsEncodedName",
      "outputs": [
        {
          "internalType": "bytes",
          "name": "",
          "type": "bytes"
        }
      ],
      "stateMutability": "view",
      "type": "function"
    },
    {
      "inputs": [],
      "name": "proxiableUUID",
      "outputs": [
        {
          "internalType": "bytes32",
          "name": "",
          "type": "bytes32"
        }
      ],
      "stateMutability": "view",
      "type": "function"
    },
    {
      "inputs": [
        {
          "internalType": "string",
          "name": "label",
          "type": "string"
        },
        {
          "internalType": "address",
          "name": "owner",
          "type": "address"
        },
        {
          "internalType": "contract IRegistry",
          "name": "registry",
          "type": "address"
        },
        {
          "internalType": "address",
          "name": "resolver",
          "type": "address"
        },
        {
          "internalType": "uint256",
          "name": "roleBitmap",
          "type": "uint256"
        },
        {
          "internalType": "uint64",
          "name": "expires",
          "type": "uint64"
        }
      ],
      "name": "register",
      "outputs": [
        {
          "internalType": "uint256",
          "name": "tokenId",
          "type": "uint256"
        }
      ],
      "stateMutability": "nonpayable",
      "type": "function"
    },
    {
      "inputs": [
        {
          "internalType": "uint256",
          "name": "anyId",
          "type": "uint256"
        },
        {
          "internalType": "uint64",
          "name": "newExpiry",
          "type": "uint64"
        }
      ],
      "name": "renew",
      "outputs": [],
      "stateMutability": "nonpayable",
      "type": "function"
    },
    {
      "inputs": [
        {
          "internalType": "uint256",
          "name": "anyId",
          "type": "uint256"
        },
        {
          "internalType": "uint256",
          "name": "roleBitmap",
          "type": "uint256"
        },
        {
          "internalType": "address",
          "name": "account",
          "type": "address"
        }
      ],
      "name": "revokeRoles",
      "outputs": [
        {
          "internalType": "bool",
          "name": "",
          "type": "bool"
        }
      ],
      "stateMutability": "nonpayable",
      "type": "function"
    },
    {
      "inputs": [
        {
          "internalType": "uint256",
          "name": "roleBitmap",
          "type": "uint256"
        },
        {
          "internalType": "address",
          "name": "account",
          "type": "address"
        }
      ],
      "name": "revokeRootRoles",
      "outputs": [
        {
          "internalType": "bool",
          "name": "",
          "type": "bool"
        }
      ],
      "stateMutability": "nonpayable",
      "type": "function"
    },
    {
      "inputs": [
        {
          "internalType": "uint256",
          "name": "anyId",
          "type": "uint256"
        }
      ],
      "name": "roleCount",
      "outputs": [
        {
          "internalType": "uint256",
          "name": "",
          "type": "uint256"
        }
      ],
      "stateMutability": "view",
      "type": "function"
    },
    {
      "inputs": [
        {
          "internalType": "uint256",
          "name": "anyId",
          "type": "uint256"
        },
        {
          "internalType": "address",
          "name": "account",
          "type": "address"
        }
      ],
      "name": "roles",
      "outputs": [
        {
          "internalType": "uint256",
          "name": "",
          "type": "uint256"
        }
      ],
      "stateMutability": "view",
      "type": "function"
    },
    {
      "inputs": [
        {
          "internalType": "address",
          "name": "from",
          "type": "address"
        },
        {
          "internalType": "address",
          "name": "to",
          "type": "address"
        },
        {
          "internalType": "uint256[]",
          "name": "ids",
          "type": "uint256[]"
        },
        {
          "internalType": "uint256[]",
          "name": "values",
          "type": "uint256[]"
        },
        {
          "internalType": "bytes",
          "name": "data",
          "type": "bytes"
        }
      ],
      "name": "safeBatchTransferFrom",
      "outputs": [],
      "stateMutability": "nonpayable",
      "type": "function"
    },
    {
      "inputs": [
        {
          "internalType": "address",
          "name": "from",
          "type": "address"
        },
        {
          "internalType": "address",
          "name": "to",
          "type": "address"
        },
        {
          "internalType": "uint256",
          "name": "id",
          "type": "uint256"
        },
        {
          "internalType": "uint256",
          "name": "value",
          "type": "uint256"
        },
        {
          "internalType": "bytes",
          "name": "data",
          "type": "bytes"
        }
      ],
      "name": "safeTransferFrom",
      "outputs": [],
      "stateMutability": "nonpayable",
      "type": "function"
    },
    {
      "inputs": [
        {
          "internalType": "address",
          "name": "operator",
          "type": "address"
        },
        {
          "internalType": "bool",
          "name": "approved",
          "type": "bool"
        }
      ],
      "name": "setApprovalForAll",
      "outputs": [],
      "stateMutability": "nonpayable",
      "type": "function"
    },
    {
      "inputs": [
        {
          "internalType": "uint256",
          "name": "anyId",
          "type": "uint256"
        },
        {
          "internalType": "address",
          "name": "resolver",
          "type": "address"
        }
      ],
      "name": "setResolver",
      "outputs": [],
      "stateMutability": "nonpayable",
      "type": "function"
    },
    {
      "inputs": [
        {
          "internalType": "uint256",
          "name": "anyId",
          "type": "uint256"
        },
        {
          "internalType": "contract IRegistry",
          "name": "registry",
          "type": "address"
        }
      ],
      "name": "setSubregistry",
      "outputs": [],
      "stateMutability": "nonpayable",
      "type": "function"
    },
    {
      "inputs": [
        {
          "internalType": "bytes4",
          "name": "interfaceId",
          "type": "bytes4"
        }
      ],
      "name": "supportsInterface",
      "outputs": [
        {
          "internalType": "bool",
          "name": "",
          "type": "bool"
        }
      ],
      "stateMutability": "view",
      "type": "function"
    },
    {
      "inputs": [
        {
          "internalType": "address",
          "name": "newImplementation",
          "type": "address"
        },
        {
          "internalType": "bytes",
          "name": "data",
          "type": "bytes"
        }
      ],
      "name": "upgradeToAndCall",
      "outputs": [],
      "stateMutability": "payable",
      "type": "function"
    },
    {
      "inputs": [
        {
          "internalType": "uint256",
          "name": "tokenId",
          "type": "uint256"
        }
      ],
      "name": "uri",
      "outputs": [
        {
          "internalType": "string",
          "name": "",
          "type": "string"
        }
      ],
      "stateMutability": "view",
      "type": "function"
    }
  ],
  "contractName": "MigratedWrappedNameRegistry",
  "sourceName": "src/registry/MigratedWrappedNameRegistry.sol",
  "bytecode": "0x6101806040523060e052348015610014575f80fd5b5060405161671f38038061671f83398101604081905261003391610ec9565b83838361003e6100a2565b6001600160a01b0380841660805280851660a052821660c0525f610064818084816100b0565b5050506001600160a01b03808b16610100528981166101405288811661012052841661016052506100969150506101b4565b50505050505050611228565b5f6100ab610251565b905090565b5f6100ba846102ee565b6001600160a01b0383166100e15760405163761fe2c960e11b815260040160405180910390fd5b5f8581526002602090815260408083206001600160a01b03871684529091529020548481178082146101a6575f8781526002602090815260408083206001600160a01b038916845290915290208190558119861661014188826001610337565b841561015457610154888785858b610467565b60408051848152602081018490526001600160a01b038816918a917f0d35bf721a39b614de00ca5038e1deb0cb0c69a278645e83405a7226cf80ba3c910160405180910390a3600193505050506101ac565b5f925050505b949350505050565b5f6101bd610477565b805490915068010000000000000000900460ff16156101ef5760405163f92ee8a960e01b815260040160405180910390fd5b80546001600160401b039081161461024e5780546001600160401b0319166001600160401b0390811782556040519081527fc7f505b2f371ae2175ee4913f4499e1f2633a7b5936321eed1cdaeb6115181d29060200160405180910390a15b50565b6080515f906001600160a01b031661026857503390565b60805160405163110ac5cb60e21b81523360048201525f916001600160a01b03169063442b172c90602401602060405180830381865afa1580156102ae573d5f803e3d5ffd5b505050506040513d601f19601f820116820180604052508101906102d29190610f60565b90506001600160a01b0381166102e9573391505090565b919050565b7feeeeeeeeeeeeeeeeeeeeeeeeeeeeeeeeeeeeeeeeeeeeeeeeeeeeeeeeeeeeeeee81161561024e57604051630153d96960e51b8152600481018290526024015b60405180910390fd5b5f610341836104a1565b905081156103d7575f848152600360205260409020546103879082161980195f805160206166ff83398151915291909101165f805160206166df83398151915216151590565b156103af57604051631f22ca6960e31b8152600481018590526024810184905260440161032e565b5f84815260036020526040812080548592906103cc908490610f96565b909155506104619050565b5f84815260036020526040902054610416901982161980195f805160206166ff83398151915291909101165f805160206166df83398151915216151590565b1561043e57604051631f80c19b60e01b8152600481018590526024810184905260440161032e565b5f848152600360205260408120805485929061045b908490610fa9565b90915550505b50505050565b610470856104bb565b5050505050565b5f807ff0c57e16840df040f15088dc2f81fe391c3923bec73e23a9662efc9c229c6a005b92915050565b5f6104ab826102ee565b50600181901b17600281901b1790565b5f6104c58261063f565b80519091506001600160401b031642101561063b575f6104e583836106d5565b5f818152602081905260409020549091506001600160a01b0316801561046157610511818360016106f9565b82602001805161052090610fbc565b63ffffffff90811690915260a0516040805163c0f8a73160e01b81526004810186905286516001600160401b03166024820152602087015184166044820152908601516001600160a01b039081166064830152606087015190931660848201526080860151831660a482015291169063c0f8a7319060c4015f604051808303815f87803b1580156105af575f80fd5b505af11580156105c1573d5f803e3d5ffd5b505050505f6105d683856106d560201b60201c565b90506105f98282600160405180602001604052805f81525061075f60201b60201c565b80837f88d074c8fc078bb1c0b9cfa9e3ca1f65a96141df8b0da854fe3083df813cbcca61062682886107c2565b60405190815260200160405180910390a35050505b5050565b6040805160a080820183525f808352602083018190528284018190526060830181905260808301525191516305c53a0760e51b81523060048201526024810184905290916001600160a01b03169063b8a740e09060440160a060405180830381865afa1580156106b1573d5f803e3d5ffd5b505050506040513d601f19601f8201168201806040525081019061049b9190610ff1565b60208101515f9063ffffffff166106f18463ffffffff81161890565b179392505050565b6001600160a01b03831661072157604051626a0d4560e21b81525f600482015260240161032e565b604080516001808252602082018590528183019081526060820184905260a082019092525f6080820181815291929161047091879185908590610805565b6001600160a01b03841661078857604051632bfa23e760e11b81525f600482015260240161032e565b604080516001808252602082018690528183019081526060820185905260808201909252906107ba5f87848487610805565b505050505050565b80515f906001600160401b03164210156107e05781606001516107f0565b60608201516107f0906001611093565b63ffffffff166106f18463ffffffff81161890565b61081185858585610861565b6001600160a01b03841615610470575f6108296100a2565b90508351600103610853576020848101519084015161084c838989858589610971565b50506107ba565b6107ba818787878787610a9b565b5f6001600160a01b0384161580159061088257506001600160a01b03851615155b90508015610919575f5b8351811015610917576108c38482815181106108aa576108aa6110b7565b6020026020010151600160901b88610b8260201b60201c565b61090f578381815181106108d9576108d96110b7565b6020026020010151866040516372c7b6ad60e11b815260040161032e9291909182526001600160a01b0316602082015260400190565b60010161088c565b505b61092585858585610be1565b8015610470575f5b83518110156107ba5761096961096185838151811061094e5761094e6110b7565b6020026020010151610dea60201b60201c565b87875f610dfd565b60010161092d565b6001600160a01b0384163b156107ba5760405163f23a6e6160e01b81526001600160a01b0385169063f23a6e61906109b590899089908890889088906004016110f9565b6020604051808303815f875af19250505080156109ef575060408051601f3d908101601f191682019092526109ec9181019061113d565b60015b610a56573d808015610a1c576040519150601f19603f3d011682016040523d82523d5f602084013e610a21565b606091505b5080515f03610a4e57604051632bfa23e760e11b81526001600160a01b038616600482015260240161032e565b805181602001fd5b6001600160e01b0319811663f23a6e6160e01b14610a9257604051632bfa23e760e11b81526001600160a01b038616600482015260240161032e565b50505050505050565b6001600160a01b0384163b156107ba5760405163bc197c8160e01b81526001600160a01b0385169063bc197c8190610adf908990899088908890889060040161119e565b6020604051808303815f875af1925050508015610b19575060408051601f3d908101601f19168201909252610b169181019061113d565b60015b610b46573d808015610a1c576040519150601f19603f3d011682016040523d82523d5f602084013e610a21565b6001600160e01b0319811663bc197c8160e01b14610a9257604051632bfa23e760e11b81526001600160a01b038616600482015260240161032e565b5f6101ac610b8f85610dea565b5f9081526002602090815260408083206001600160a01b03871684528252808320547fac33ff75c19e70fe83507db0d683fd3465c996598dc972688b7ace676c89077b90925290912054178416841490565b8051825114610c105781518151604051635b05999160e01b81526004810192909252602482015260440161032e565b5f610c196100a2565b90505f5b8351811015610d0c576020818102858101820151908501909101518015610d02575f828152602081905260409020546001600160a01b039081169089168114610c98576040516303dee4c560e01b81526001600160a01b038a1660048201525f6024820152604481018390526064810184905260840161032e565b6001821115610cda576040516303dee4c560e01b81526001600160a01b038a16600482015260016024820152604481018390526064810184905260840161032e565b505f82815260208190526040902080546001600160a01b0319166001600160a01b0389161790555b5050600101610c1d565b508251600103610d8c5760208301515f906020840151909150856001600160a01b0316876001600160a01b0316846001600160a01b03167fc3d58168c5ae7397731d063d5bbf3d657854427343f4c083240f7aacaa2d0f628585604051610d7d929190918252602082015260400190565b60405180910390a45050610470565b836001600160a01b0316856001600160a01b0316826001600160a01b03167f4a39dc06d4c0dbc64b70af90fd698a233a518aa5d07e595d983b8c0526c8f7fb8686604051610ddb9291906111fb565b60405180910390a45050505050565b5f61049b82610df88161063f565b6107c2565b5f8481526002602090815260408083206001600160a01b0387168452909152902054801561047057610e3185828685610e3e565b506107ba858285856100b0565b5f610e48846102ee565b5f8581526002602090815260408083206001600160a01b0387168452909152902054841981168082146101a6575f8781526002602090815260408083206001600160a01b03891684529091528120829055868316906101419089908390610337565b6001600160a01b038116811461024e575f80fd5b80516102e981610eaa565b5f805f805f805f60e0888a031215610edf575f80fd5b8751610eea81610eaa565b6020890151909750610efb81610eaa565b6040890151909650610f0c81610eaa565b6060890151909550610f1d81610eaa565b6080890151909450610f2e81610eaa565b60a0890151909350610f3f81610eaa565b60c0890151909250610f5081610eaa565b8091505092959891949750929550565b5f60208284031215610f70575f80fd5b8151610f7b81610eaa565b9392505050565b634e487b7160e01b5f52601160045260245ffd5b8082018082111561049b5761049b610f82565b8181038181111561049b5761049b610f82565b5f63ffffffff808316818103610fd457610fd4610f82565b6001019392505050565b805163ffffffff811681146102e9575f80fd5b5f60a08284031215611001575f80fd5b60405160a081016001600160401b03808211838310171561103057634e487b7160e01b5f52604160045260245ffd5b81604052845191508082168214611045575f80fd5b50815261105460208401610fde565b602082015261106560408401610ebe565b604082015261107660608401610fde565b606082015261108760808401610ebe565b60808201529392505050565b63ffffffff8181168382160190808211156110b0576110b0610f82565b5092915050565b634e487b7160e01b5f52603260045260245ffd5b5f81518084528060208401602086015e5f602082860101526020601f19601f83011685010191505092915050565b6001600160a01b03868116825285166020820152604081018490526060810183905260a0608082018190525f90611132908301846110cb565b979650505050505050565b5f6020828403121561114d575f80fd5b81516001600160e01b031981168114610f7b575f80fd5b5f815180845260208085019450602084015f5b8381101561119357815187529582019590820190600101611177565b509495945050505050565b6001600160a01b0386811682528516602082015260a0604082018190525f906111c990830186611164565b82810360608401526111db8186611164565b905082810360808401526111ef81856110cb565b98975050505050505050565b604081525f61120d6040830185611164565b828103602084015261121f8185611164565b95945050505050565b60805160a05160c05160e051610100516101205161014051610160516153b461132b5f395f81816109ff01526117f901525f8181610618015261312f01525f81816104cd01526124da01525f81816104500152818161145f0152818161175e015281816118420152818161219101528181612231015281816123ce015281816126050152818161321201526132aa01525f8181611ee501528181611f0e015261209c01525f818161069e01528181611c780152611ce601525f81816105e501528181610c5e01528181610f49015281816113ea0152818161153401528181612e3901526137fa01525f81816105400152818161294501526129a601526153b45ff3fe6080604052600436106102ec575f3560e01c8063531b9d6d11610186578063bae78d7b116100dc578063dfa70d8b11610087578063f23a6e6111610062578063f23a6e61146109b0578063f242432a146109cf578063fa7e0fd3146109ee575f80fd5b8063dfa70d8b1461092b578063e4ae7d771461094a578063e985e9c514610969575f80fd5b8063bd242bcb116100b7578063bd242bcb146108ce578063ce156e82146108ed578063d3bf89b11461090c575f80fd5b8063bae78d7b1461084b578063bc197c8114610877578063bc7b6d62146108af575f80fd5b806378430b5a1161013c578063a22cb46511610117578063a22cb465146107c5578063ad3cb1cc146107e4578063b08a2c9c1461082c575f80fd5b806378430b5a146107735780637c3005861461078757806385f3e643146107a6575f80fd5b80635adf47241161016c5780635adf4724146106df5780636352211e146106fe578063781ef8db1461071d575f80fd5b8063531b9d6d1461068d5780635569f33d146106c0575f80fd5b80632dd31000116102465780633634f911116101f15780634e1273f4116101cc5780634e1273f41461063a5780634f1ef2861461066657806352d1902d14610679575f80fd5b80633634f911146105a05780633f7cefce146105d45780634750070814610607575f80fd5b8063319c22bb11610221578063319c22bb1461052f578063341ec5591461056257806335af621614610581575f80fd5b80632dd31000146104bc5780632eb2c2d6146104ef5780632f27fa2414610510575f80fd5b806311b8e00a116102a6578063192cf07d11610281578063192cf07d1461043f5780631c3fc3eb1461048a5780631e8fca2d1461049d575f80fd5b806311b8e00a146103c957806313c72608146103e857806314ff5ea314610420575f80fd5b8063072d5d77116102d6578063072d5d77146103515780630a796374146103705780630e89341c1461039d575f80fd5b8062fdd58e146102f057806301ffc9a714610322575b5f80fd5b3480156102fb575f80fd5b5061030f61030a3660046142c7565b610a21565b6040519081526020015b60405180910390f35b34801561032d575f80fd5b5061034161033c366004614306565b610a58565b6040519015158152602001610319565b34801561035c575f80fd5b5061034161036b366004614321565b610a95565b34801561037b575f80fd5b5061038f61038a366004614442565b610ac0565b604051610319929190614487565b3480156103a8575f80fd5b506103bc6103b73660046144ec565b610b12565b6040516103199190614531565b3480156103d4575f80fd5b506103416103e3366004614543565b610b1d565b3480156103f3575f80fd5b506104076104023660046144ec565b610b37565b60405167ffffffffffffffff9091168152602001610319565b34801561042b575f80fd5b5061030f61043a3660046144ec565b610b48565b34801561044a575f80fd5b506104727f000000000000000000000000000000000000000000000000000000000000000081565b6040516001600160a01b039091168152602001610319565b348015610495575f80fd5b5061030f5f81565b3480156104a8575f80fd5b5061030f6104b73660046144ec565b610b5b565b3480156104c7575f80fd5b506104727f000000000000000000000000000000000000000000000000000000000000000081565b3480156104fa575f80fd5b5061050e61050936600461460b565b610b6e565b005b34801561051b575f80fd5b5061030f61052a3660046144ec565b610c0b565b34801561053a575f80fd5b506104727f000000000000000000000000000000000000000000000000000000000000000081565b34801561056d575f80fd5b5061050e61057c366004614321565b610c29565b34801561058c575f80fd5b5061047261059b3660046146f0565b610d07565b3480156105ab575f80fd5b506105bf6105ba366004614543565b610d74565b60408051928352602083019190915201610319565b3480156105df575f80fd5b506104727f000000000000000000000000000000000000000000000000000000000000000081565b348015610612575f80fd5b506104727f000000000000000000000000000000000000000000000000000000000000000081565b348015610645575f80fd5b5061065961065436600461472f565b610d94565b6040516103199190614825565b61050e610674366004614837565b610e5f565b348015610684575f80fd5b5061030f610e7e565b348015610698575f80fd5b506104727f000000000000000000000000000000000000000000000000000000000000000081565b3480156106cb575f80fd5b5061050e6106da36600461489a565b610eac565b3480156106ea575f80fd5b5061030f6106f9366004614321565b611000565b348015610709575f80fd5b506104726107183660046144ec565b611032565b348015610728575f80fd5b50610341610737366004614321565b6001600160a01b03165f9081527fac33ff75c19e70fe83507db0d683fd3465c996598dc972688b7ace676c89077b602052604090205481161490565b34801561077e575f80fd5b506103bc61108f565b348015610792575f80fd5b506103416107a13660046148bd565b61111b565b3480156107b1575f80fd5b5061030f6107c03660046148f3565b61112f565b3480156107d0575f80fd5b5061050e6107df366004614993565b611196565b3480156107ef575f80fd5b506103bc6040518060400160405280600581526020017f352e302e3000000000000000000000000000000000000000000000000000000081525081565b348015610837575f80fd5b5061050e6108463660046149bf565b6111a8565b348015610856575f80fd5b5061086a6108653660046144ec565b611387565b6040516103199190614a2e565b348015610882575f80fd5b50610896610891366004614ace565b611453565b6040516001600160e01b03199091168152602001610319565b3480156108ba575f80fd5b5061050e6108c9366004614321565b611501565b3480156108d9575f80fd5b506104726108e83660046144ec565b6115d3565b3480156108f8575f80fd5b50610341610907366004614321565b6115ef565b348015610917575f80fd5b506103416109263660046148bd565b611611565b348015610936575f80fd5b506103416109453660046148bd565b611670565b348015610955575f80fd5b506104726109643660046146f0565b611684565b348015610974575f80fd5b50610341610983366004614b85565b6001600160a01b039182165f90815260016020908152604080832093909416825291909152205460ff1690565b3480156109bb575f80fd5b506108966109ca366004614bb1565b611836565b3480156109da575f80fd5b5061050e6109e9366004614c28565b61197e565b3480156109f9575f80fd5b506104727f000000000000000000000000000000000000000000000000000000000000000081565b5f826001600160a01b0316610a3583611032565b6001600160a01b031614610a49575f610a4c565b60015b60ff1690505b92915050565b5f6001600160e01b031982167f4e2312e0000000000000000000000000000000000000000000000000000000001480610a525750610a5282611a0e565b5f8083610aaa8282610aa5611a4b565b611a59565b610ab75f86866001611b20565b95945050505050565b6040805160a0810182525f8082526020820181905291810182905260608101829052608081018290525f610af384611c3b565b9050610afe81611387565b9150610b0a8183611c51565b925050915091565b6060610a5282611c74565b5f610b30610b2a84610b5b565b83611d59565b9392505050565b5f610b4182611387565b5192915050565b5f610a5282610b5684611387565b611c51565b5f610a5282610b6984611387565b611d70565b5f610b77611a4b565b9050806001600160a01b0316866001600160a01b031614158015610bc057506001600160a01b038087165f9081526001602090815260408083209385168352929052205460ff16155b15610bf65760405163711bec9160e11b81526001600160a01b038083166004830152871660248201526044015b60405180910390fd5b610c038686868686611db4565b505050505050565b5f610a52610c1883610b5b565b5f9081526003602052604090205490565b5f80610c3784610100611e19565b6001600160a01b038086166040808401919091525163c0f8a73160e01b81529294509092507f0000000000000000000000000000000000000000000000000000000000000000169063c0f8a73190610c959085908590600401614487565b5f604051808303815f87803b158015610cac575f80fd5b505af1158015610cbe573d5f803e3d5ffd5b50506040516001600160a01b03861681528492507fca01ade22fed8a886bda52d1fb12deaff178499347b6c13b1a892a60985a51e291506020015b60405180910390a250505050565b5f80610d4a61086585858080601f0160208091040260200160405190810160405280939291908181526020018383808284375f92019190915250611c3b92505050565b805190915067ffffffffffffffff16421015610d6a578060400151610d6c565b5f5b949350505050565b5f80610d88610d8285610b5b565b84611eb7565b915091505b9250929050565b60608151835114610dc55781518351604051635b05999160e01b815260048101929092526024820152604401610bed565b5f835167ffffffffffffffff811115610de057610de061434f565b604051908082528060200260200182016040528015610e09578160200160208202803683370190505b5090505f5b8451811015610e5757602080820286010151610e3290602080840287010151610a21565b828281518110610e4457610e44614c8c565b6020908102919091010152600101610e0e565b509392505050565b610e67611eda565b610e7082611f93565b610e7a8282611fa4565b5050565b5f610e87612091565b507f360894a13ba1a3210667c828492db98dca3e2076cc3735a920a3ca505d382bbc90565b5f80610eb9846010611e19565b91509150805f015167ffffffffffffffff168367ffffffffffffffff161015610f255780516040517f9967595a00000000000000000000000000000000000000000000000000000000815267ffffffffffffffff91821660048201529084166024820152604401610bed565b67ffffffffffffffff8316815260405163c0f8a73160e01b81526001600160a01b037f0000000000000000000000000000000000000000000000000000000000000000169063c0f8a73190610f809085908590600401614487565b5f604051808303815f87803b158015610f97575f80fd5b505af1158015610fa9573d5f803e3d5ffd5b50505050817f3260962d42d8f7ae0af25cbfdb2983c214a859cfa2ac6df8ea29b534c267d42984610fd8611a4b565b6040805167ffffffffffffffff90931683526001600160a01b03909116602083015201610cf9565b5f610b3061100d84610b5b565b5f9081526002602090815260408083206001600160a01b038716845290915290205490565b5f8061103d83611387565b90506110498382611c51565b831415806110625750805167ffffffffffffffff164210155b611087575f838152602081905260409020546001600160a01b0316610b30565b610b30565b5f9392505050565b6004805461109c90614ca0565b80601f01602080910402602001604051908101604052809291908181526020018280546110c890614ca0565b80156111135780601f106110ea57610100808354040283529160200191611113565b820191905f5260205f20905b8154815290600101906020018083116110f657829003601f168201915b505050505081565b5f610d6c61112885610b5b565b84846120da565b5f60016111445f8261113f611a4b565b612115565b61118989898080601f0160208091040260200160405190810160405280939291908181526020018383808284375f920191909152508b92508a9150899050888861216f565b9998505050505050505050565b610e7a6111a1611a4b565b83836122ea565b5f6111b1612398565b805490915060ff68010000000000000000820416159067ffffffffffffffff165f811580156111dd5750825b90505f8267ffffffffffffffff1660011480156111f95750303b155b905081158015611207575080155b1561123e576040517ff92ee8a900000000000000000000000000000000000000000000000000000000815260040160405180910390fd5b845467ffffffffffffffff19166001178555831561127257845468ff00000000000000001916680100000000000000001785555b6001600160a01b0388166112e2576040517f08c379a000000000000000000000000000000000000000000000000000000000815260206004820152601c60248201527f4f776e65722063616e6e6f74206265207a65726f2061646472657373000000006044820152606401610bed565b60046112ef8a8c83614d1c565b506113115f721000000000000000000000000000000010000089178a82611b20565b506001600160a01b038616156113305761132e5f6001885f611b20565b505b831561137b57845468ff000000000000000019168555604051600181527fc7f505b2f371ae2175ee4913f4499e1f2633a7b5936321eed1cdaeb6115181d29060200160405180910390a15b50505050505050505050565b6040805160a0810182525f8082526020820181905281830181905260608201819052608082015290517fb8a740e0000000000000000000000000000000000000000000000000000000008152306004820152602481018390526001600160a01b037f0000000000000000000000000000000000000000000000000000000000000000169063b8a740e09060440160a060405180830381865afa15801561142f573d5f803e3d5ffd5b505050506040513d601f19601f82011682018060405250810190610a529190614de9565b5f336001600160a01b037f0000000000000000000000000000000000000000000000000000000000000000161461149f5760405163d86ad9cf60e01b8152336004820152602401610bed565b5f6114ac83850185614f57565b90506114eb8888808060200260200160405190810160405280939291908181526020018383602002808284375f920191909152508592506123c0915050565b5063bc197c8160e01b9998505050505050505050565b5f8061150f84611000611e19565b6001600160a01b03808616608083015260405163c0f8a73160e01b81529294509092507f0000000000000000000000000000000000000000000000000000000000000000169063c0f8a7319061156b9085908590600401614487565b5f604051808303815f87803b158015611582575f80fd5b505af1158015611594573d5f803e3d5ffd5b50506040516001600160a01b03861681528492507f3c055b8ebff34805cc0c0216cfd96bfe2613c75002ce000f6268324952541d069150602001610cf9565b5f818152602081905260408120546001600160a01b0316610a52565b5f808361160482826115ff611a4b565b612655565b610ab75f8686600161273e565b5f610d6c61161e85610b5b565b5f9081526002602090815260408083206001600160a01b03871684528252808320547fac33ff75c19e70fe83507db0d683fd3465c996598dc972688b7ace676c89077b90925290912054178416841490565b5f610d6c61167d85610b5b565b84846127aa565b5f8061174161171b6004805461169990614ca0565b80601f01602080910402602001604051908101604052809291908181526020018280546116c590614ca0565b80156117105780601f106116e757610100808354040283529160200191611710565b820191905f5260205f20905b8154815290600101906020018083116116f357829003601f168201915b50505050505f6127e5565b858560405161172b929190615001565b60405180910390205f9182526020526040902090565b604051630178fe3f60e01b8152600481018290529091505f9081907f00000000000000000000000000000000000000000000000000000000000000006001600160a01b031690630178fe3f90602401606060405180830381865afa1580156117ab573d5f803e3d5ffd5b505050506040513d601f19601f820116820180604052508101906117cf9190615010565b5090925090506001600160a01b03821630148015906117f2575062010000811615155b15611822577f00000000000000000000000000000000000000000000000000000000000000009350505050610a52565b61182c8686612816565b9695505050505050565b5f336001600160a01b037f000000000000000000000000000000000000000000000000000000000000000016146118825760405163d86ad9cf60e01b8152336004820152602401610bed565b5f61188f8385018561504b565b6040805160018082528183019092529192505f9190816020015b604080516101008101825260609181018281525f9282018390526080820183905260a0820183905260c0820183905260e08201839052815260208101919091528152602001906001900390816118a957905050905081815f8151811061191157611911614c8c565b60209081029190910101526040805160018082528183019092525f9181602001602082028036833701905050905087815f8151811061195257611952614c8c565b60200260200101818152505061196881836123c0565b5063f23a6e6160e01b9998505050505050505050565b5f611987611a4b565b9050806001600160a01b0316866001600160a01b0316141580156119d057506001600160a01b038087165f9081526001602090815260408083209385168352929052205460ff16155b15611a015760405163711bec9160e11b81526001600160a01b03808316600483015287166024820152604401610bed565b610c038686868686612879565b5f6001600160e01b031982167f07ca514a000000000000000000000000000000000000000000000000000000001480610a525750610a5282612905565b5f611a54612942565b905090565b5f611ac484836001600160a01b03165f8181527fac33ff75c19e70fe83507db0d683fd3465c996598dc972688b7ace676c89077b60209081526040808320549483526002825280832093835292905220546f11111111111111111111111111111111911760801c1690565b90508019831615611b1a576040517fd1a3b35500000000000000000000000000000000000000000000000000000000815260048101859052602481018490526001600160a01b0383166044820152606401610bed565b50505050565b5f611b2a84612a33565b6001600160a01b038316611b6a576040517fec3fc59200000000000000000000000000000000000000000000000000000000815260040160405180910390fd5b5f8581526002602090815260408083206001600160a01b0387168452909152902054848117808214611c2f575f8781526002602090815260408083206001600160a01b0389168452909152902081905581198616611bca88826001612a93565b8415611bdd57611bdd888785858b612c28565b60408051848152602081018490526001600160a01b038816918a917f0d35bf721a39b614de00ca5038e1deb0cb0c69a278645e83405a7226cf80ba3c910160405180910390a360019350505050610d6c565b505f9695505050505050565b805160208201205f9063ffffffff811618610a52565b5f816020015163ffffffff16611c6c8463ffffffff81161890565b179392505050565b60607f00000000000000000000000000000000000000000000000000000000000000006001600160a01b0316611cb757505060408051602081019091525f815290565b6040517f1675f455000000000000000000000000000000000000000000000000000000008152600481018390527f00000000000000000000000000000000000000000000000000000000000000006001600160a01b031690631675f455906024015f60405180830381865afa158015611d32573d5f803e3d5ffd5b505050506040513d5f823e601f3d908101601f19168201604052610a52919081019061507d565b5f80611d658484610d74565b501515949350505050565b80515f9067ffffffffffffffff16421015611d8f578160600151611d9f565b6060820151611d9f906001615106565b63ffffffff16611c6c8463ffffffff81161890565b6001600160a01b038416611ddd57604051632bfa23e760e11b81525f6004820152602401610bed565b6001600160a01b038516611e0557604051626a0d4560e21b81525f6004820152602401610bed565b611e128585858585612c31565b5050505050565b6040805160a0810182525f808252602082018190529181018290526060810182905260808101829052611e4b84611387565b9050611e578482611c51565b815190925067ffffffffffffffff164210611ea1576040517f0c23d84000000000000000000000000000000000000000000000000000000000815260048101839052602401610bed565b610d8d611eae8583611d70565b8461113f611a4b565b5f80611ec283612c8d565b5f948552600360205260409094205484169492505050565b306001600160a01b037f0000000000000000000000000000000000000000000000000000000000000000161480611f7357507f00000000000000000000000000000000000000000000000000000000000000006001600160a01b0316611f677f360894a13ba1a3210667c828492db98dca3e2076cc3735a920a3ca505d382bbc546001600160a01b031690565b6001600160a01b031614155b15611f915760405163703e46dd60e11b815260040160405180910390fd5b565b62100000610e7a5f8261113f611a4b565b816001600160a01b03166352d1902d6040518163ffffffff1660e01b8152600401602060405180830381865afa925050508015611ffe575060408051601f3d908101601f19168201909252611ffb9181019061512a565b60015b61202657604051634c9c8ce360e01b81526001600160a01b0383166004820152602401610bed565b7f360894a13ba1a3210667c828492db98dca3e2076cc3735a920a3ca505d382bbc8114612082576040517faa1d49a400000000000000000000000000000000000000000000000000000000815260048101829052602401610bed565b61208c8383612ca7565b505050565b306001600160a01b037f00000000000000000000000000000000000000000000000000000000000000001614611f915760405163703e46dd60e11b815260040160405180910390fd5b5f83836120ea8282610aa5611a4b565b8561210857604051631850848b60e31b815260040160405180910390fd5b61182c8686866001611b20565b612120838383611611565b61208c576040517f4b27a13300000000000000000000000000000000000000000000000000000000815260048101849052602481018390526001600160a01b0382166044820152606401610bed565b85516020870120604051630178fe3f60e01b8152600481018290525f919082907f00000000000000000000000000000000000000000000000000000000000000006001600160a01b031690630178fe3f90602401606060405180830381865afa1580156121de573d5f803e3d5ffd5b505050506040513d601f19601f820116820180604052508101906122029190615010565b50915050620100008116156122dc576040516331a9108f60e11b81526004810183905230906001600160a01b037f00000000000000000000000000000000000000000000000000000000000000001690636352211e90602401602060405180830381865afa158015612276573d5f803e3d5ffd5b505050506040513d601f19601f8201168201806040525081019061229a9190615141565b6001600160a01b0316146122dc57886040517f3a7216b7000000000000000000000000000000000000000000000000000000008152600401610bed9190614531565b611189898989898989612cfc565b6001600160a01b03821661232c576040517fced3e1000000000000000000000000000000000000000000000000000000000081525f6004820152602401610bed565b6001600160a01b038381165f81815260016020908152604080832094871680845294825291829020805460ff191686151590811790915591519182527f17307eab39ab6107e8899845ad3d59bd9653f200f220920489ca2b5937696c31910160405180910390a3505050565b5f807ff0c57e16840df040f15088dc2f81fe391c3923bec73e23a9662efc9c229c6a00610a52565b5f5b825181101561208c575f7f00000000000000000000000000000000000000000000000000000000000000006001600160a01b0316630178fe3f85848151811061240d5761240d614c8c565b60200260200101516040518263ffffffff1660e01b815260040161243391815260200190565b606060405180830381865afa15801561244e573d5f803e3d5ffd5b505050506040513d601f19601f820116820180604052508101906124729190615010565b509150506124998185848151811061248c5761248c614c8c565b6020026020010151612f9b565b5f6124c38484815181106124af576124af614c8c565b60200260200101515f01515f01515f612fdc565b90505f806124d0846133f6565b915091505f61258f7f000000000000000000000000000000000000000000000000000000000000000061252a7f360894a13ba1a3210667c828492db98dca3e2076cc3735a920a3ca505d382bbc546001600160a01b031690565b89898151811061253c5761253c614c8c565b60200260200101515f015160200151858b8b8151811061255e5761255e614c8c565b6020026020010151602001518c8c8151811061257c5761257c614c8c565b60200260200101515f01515f01516134c7565b90506125ff848888815181106125a7576125a7614c8c565b60200260200101515f015160200151838a8a815181106125c9576125c9614c8c565b60200260200101515f015160600151878c8c815181106125eb576125eb614c8c565b60200260200101515f015160a0015161216f565b506126447f000000000000000000000000000000000000000000000000000000000000000089888151811061263657612636614c8c565b6020026020010151876135ce565b5050600190930192506123c2915050565b5f6126e884836001600160a01b03165f8181527fac33ff75c19e70fe83507db0d683fd3465c996598dc972688b7ace676c89077b60209081526040808320549483526002825280832093835292905220547f1111111111111111111111111111111100000000000000000000000000000000911790811660809190911c6f11111111111111111111111111111111161790565b90508019831615611b1a576040517fa604e31800000000000000000000000000000000000000000000000000000000815260048101859052602481018490526001600160a01b0383166044820152606401610bed565b5f61274884612a33565b5f8581526002602090815260408083206001600160a01b038716845290915290205484198116808214611c2f575f8781526002602090815260408083206001600160a01b0389168452909152812082905586831690611bca9089908390612a93565b5f83836127ba82826115ff611a4b565b856127d857604051631850848b60e31b815260040160405180910390fd5b61182c868686600161273e565b5f6127f083836136d5565b925090508015610a5257610b3061280784846127e5565b825f9182526020526040902090565b5f8061285961086585858080601f0160208091040260200160405190810160405280939291908181526020018383808284375f92019190915250611c3b92505050565b805190915067ffffffffffffffff16421015610d6a578060800151610d6c565b6001600160a01b0384166128a257604051632bfa23e760e11b81525f6004820152602401610bed565b6001600160a01b0385166128ca57604051626a0d4560e21b81525f6004820152602401610bed565b604080516001808252602082018690528183019081526060820185905260808201909252906128fc8787848487612c31565b50505050505050565b5f6001600160e01b031982167f8f452d62000000000000000000000000000000000000000000000000000000001480610a525750610a5282613702565b5f7f00000000000000000000000000000000000000000000000000000000000000006001600160a01b031661297657503390565b6040517f442b172c0000000000000000000000000000000000000000000000000000000081523360048201525f907f00000000000000000000000000000000000000000000000000000000000000006001600160a01b03169063442b172c90602401602060405180830381865afa1580156129f3573d5f803e3d5ffd5b505050506040513d601f19601f82011682018060405250810190612a179190615141565b90506001600160a01b038116612a2e573391505090565b919050565b7feeeeeeeeeeeeeeeeeeeeeeeeeeeeeeeeeeeeeeeeeeeeeeeeeeeeeeeeeeeeeeee811615612a90576040517f2a7b2d2000000000000000000000000000000000000000000000000000000000815260048101829052602401610bed565b50565b5f612a9d83612c8d565b90508115612b66575f848152600360205260409020547f888888888888888888888888888888888888888888888888888888888888888890821680197feeeeeeeeeeeeeeeeeeeeeeeeeeeeeeeeeeeeeeeeeeeeeeeeeeeeeeeeeeeeeeef01161615612b3e576040517ff91653480000000000000000000000000000000000000000000000000000000081526004810185905260248101849052604401610bed565b5f8481526003602052604081208054859290612b5b90849061515c565b90915550611b1a9050565b5f848152600360205260409020547f88888888888888888888888888888888888888888888888888888888888888889019821680197feeeeeeeeeeeeeeeeeeeeeeeeeeeeeeeeeeeeeeeeeeeeeeeeeeeeeeeeeeeeeeef01161615612c00576040517f1f80c19b0000000000000000000000000000000000000000000000000000000081526004810185905260248101849052604401610bed565b5f8481526003602052604081208054859290612c1d90849061516f565b909155505050505050565b611e1285613775565b612c3d858585856138cb565b6001600160a01b03841615611e12575f612c55611a4b565b90508351600103612c7f5760208481015190840151612c788389898585896139f7565b5050610c03565b610c03818787878787613b18565b5f612c9782612a33565b50600181901b17600281901b1790565b612cb082613bff565b6040516001600160a01b038316907fbc7cd75a20ee27fd9adebab32041f755214dbc6bffa90cc0225b39da2e5c2d3b905f90a2805115612cf45761208c8282613c82565b610e7a613ceb565b5f612d0687611c3b565b90505f612d1282611387565b805190915067ffffffffffffffff16421015612d4357876040516306dbb87d60e41b8152600401610bed9190614531565b67ffffffffffffffff83164210612d92576040517f6a0147dc00000000000000000000000000000000000000000000000000000000815267ffffffffffffffff84166004820152602401610bed565b612d9c8282611c51565b5f818152602081905260409020549092506001600160a01b03168015612e0357612dc881846001613d23565b816060018051612dd790615182565b63ffffffff169052602082018051612dee90615182565b63ffffffff169052612e008383611c51565b92505b67ffffffffffffffff841682526001600160a01b0380881660408085019190915287821660808501525163c0f8a73160e01b81527f00000000000000000000000000000000000000000000000000000000000000009091169063c0f8a73190612e729086908690600401614487565b5f604051808303815f87803b158015612e89575f80fd5b505af1158015612e9b573d5f803e3d5ffd5b50505050827fd9d0e8edd77eacdd7bd3f1d10259814b1aa244f74019f036046bbcc622fdcf598a86612ecb611a4b565b604051612eda939291906151a4565b60405180910390a2612efd8884600160405180602001604052805f815250613d89565b612f12612f0a8484611d70565b868a5f611b20565b506040516001600160a01b038816815283907fca01ade22fed8a886bda52d1fb12deaff178499347b6c13b1a892a60985a51e29060200160405180910390a26040516001600160a01b038716815283907f3c055b8ebff34805cc0c0216cfd96bfe2613c75002ce000f6268324952541d069060200160405180910390a250509695505050505050565b6201000082165f03610e7a576040517ff7d2a5a800000000000000000000000000000000000000000000000000000000815260048101829052602401610bed565b60605f612fe98484613de4565b8551919350915084908290811061300257613002614c8c565b01602001517fff00000000000000000000000000000000000000000000000000000000000000165f03613061576040517fd169740700000000000000000000000000000000000000000000000000000000815260040160405180910390fd5b5f8061306d8684613de4565b60408051808201909152600381527f657468000000000000000000000000000000000000000000000000000000000060209182015282519083012091935091507f4f5b812789fc606be1b3b16908db13fc7a9adf7ca72641f84d75b47069d3d7f014801561311157508581815181106130e8576130e8614c8c565b01602001517fff0000000000000000000000000000000000000000000000000000000000000016155b156131d557604051631ad7b10b60e11b81525f906001600160a01b037f000000000000000000000000000000000000000000000000000000000000000016906335af621690613164908890600401614531565b602060405180830381865afa15801561317f573d5f803e3d5ffd5b505050506040513d601f19601f820116820180604052508101906131a39190615141565b90506001600160a01b038116156131cf57846040516306dbb87d60e41b8152600401610bed9190614531565b506133ed565b5f6131e087856127e5565b6040517ffd0cd0d9000000000000000000000000000000000000000000000000000000008152600481018290529091507f00000000000000000000000000000000000000000000000000000000000000006001600160a01b03169063fd0cd0d990602401602060405180830381865afa15801561325f573d5f803e3d5ffd5b505050506040513d601f19601f8201168201806040525081019061328391906151df565b158061331f57506040516331a9108f60e11b81526004810182905230906001600160a01b037f00000000000000000000000000000000000000000000000000000000000000001690636352211e90602401602060405180830381865afa1580156132ef573d5f803e3d5ffd5b505050506040513d601f19601f820116820180604052508101906133139190615141565b6001600160a01b031614155b1561335a5786846040517f26d8c94f000000000000000000000000000000000000000000000000000000008152600401610bed9291906151fa565b604051631ad7b10b60e11b81525f9030906335af62169061337f908990600401614531565b602060405180830381865afa15801561339a573d5f803e3d5ffd5b505050506040513d601f19601f820116820180604052508101906133be9190615141565b90506001600160a01b038116156133ea57856040516306dbb87d60e41b8152600401610bed9190614531565b50505b50505092915050565b5f806002831615156204000084161561342c576010831792508061342c5770100000000000000000000000000000000092909217915b600884165f0361345b57611000831792508061345b577110000000000000000000000000000000000092909217915b600484165f0361347e577201000000000000000000000000000000000000831792505b602084165f036134ab57600182179150806134ab5770010000000000000000000000000000000091909117905b5090927010000000000000000000000000000000109091179150565b5f808286865f6040516024016134e0949392919061521b565b60408051601f198184030181529181526020820180517bffffffffffffffffffffffffffffffffffffffffffffffffffffffff167fb08a2c9c00000000000000000000000000000000000000000000000000000000179052517f5d84121a0000000000000000000000000000000000000000000000000000000081529091506001600160a01b03891690635d84121a90613582908a9088908690600401615256565b6020604051808303815f875af115801561359e573d5f803e3d5ffd5b505050506040513d601f19601f820116820180604052508101906135c29190615141565b98975050505050505050565b600881165f0361364d576040517f1896f70a000000000000000000000000000000000000000000000000000000008152600481018390525f60248201526001600160a01b03841690631896f70a906044015f604051808303815f87803b158015613636575f80fd5b505af1158015613648573d5f803e3d5ffd5b505050505b6040517f402906fc00000000000000000000000000000000000000000000000000000000815260048101839052603f60248201526001600160a01b0384169063402906fc906044016020604051808303815f875af11580156136b1573d5f803e3d5ffd5b505050506040513d601f19601f82011682018060405250810190611b1a919061527d565b5f805f6136e28585613e61565b9250905060ff8116156136fa57806021858701012092505b509250929050565b5f6001600160e01b03198216636cdb3d1360e11b148061373257506001600160e01b031982166303a24d0760e21b145b8061376657506001600160e01b031982167fd1011f6100000000000000000000000000000000000000000000000000000000145b80610a525750610a5282613ede565b5f61377f82611387565b805190915067ffffffffffffffff16421015610e7a575f6137a08383611c51565b5f818152602081905260409020549091506001600160a01b03168015611b1a576137cc81836001613d23565b8260200180516137db90615182565b63ffffffff16905260405163c0f8a73160e01b81526001600160a01b037f0000000000000000000000000000000000000000000000000000000000000000169063c0f8a731906138319085908790600401614487565b5f604051808303815f87803b158015613848575f80fd5b505af115801561385a573d5f803e3d5ffd5b505050505f6138698385611c51565b90506138868282600160405180602001604052805f815250613d89565b80837f88d074c8fc078bb1c0b9cfa9e3ca1f65a96141df8b0da854fe3083df813cbcca6138b38688611d70565b60405190815260200160405180910390a35050505050565b5f6001600160a01b038416158015906138ec57506001600160a01b03851615155b905080156139a5575f5b83518110156139a35761393684828151811061391457613914614c8c565b6020026020010151720100000000000000000000000000000000000088611611565b61399b5783818151811061394c5761394c614c8c565b6020026020010151866040517fe58f6d5a000000000000000000000000000000000000000000000000000000008152600401610bed9291909182526001600160a01b0316602082015260400190565b6001016138f6565b505b6139b185858585613f61565b8015611e12575f5b8351811015610c03576139ef6139e78583815181106139da576139da614c8c565b6020026020010151610b5b565b87875f614177565b6001016139b9565b6001600160a01b0384163b15610c035760405163f23a6e6160e01b81526001600160a01b0385169063f23a6e6190613a3b9089908990889088908890600401615296565b6020604051808303815f875af1925050508015613a75575060408051601f3d908101601f19168201909252613a72918101906152d8565b60015b613adc573d808015613aa2576040519150601f19603f3d011682016040523d82523d5f602084013e613aa7565b606091505b5080515f03613ad457604051632bfa23e760e11b81526001600160a01b0386166004820152602401610bed565b805181602001fd5b6001600160e01b0319811663f23a6e6160e01b146128fc57604051632bfa23e760e11b81526001600160a01b0386166004820152602401610bed565b6001600160a01b0384163b15610c035760405163bc197c8160e01b81526001600160a01b0385169063bc197c8190613b5c90899089908890889088906004016152f3565b6020604051808303815f875af1925050508015613b96575060408051601f3d908101601f19168201909252613b93918101906152d8565b60015b613bc3573d808015613aa2576040519150601f19603f3d011682016040523d82523d5f602084013e613aa7565b6001600160e01b0319811663bc197c8160e01b146128fc57604051632bfa23e760e11b81526001600160a01b0386166004820152602401610bed565b806001600160a01b03163b5f03613c3457604051634c9c8ce360e01b81526001600160a01b0382166004820152602401610bed565b7f360894a13ba1a3210667c828492db98dca3e2076cc3735a920a3ca505d382bbc805473ffffffffffffffffffffffffffffffffffffffff19166001600160a01b0392909216919091179055565b60605f80846001600160a01b031684604051613c9e9190615344565b5f60405180830381855af49150503d805f8114613cd6576040519150601f19603f3d011682016040523d82523d5f602084013e613cdb565b606091505b5091509150610ab78583836141b8565b3415611f91576040517fb398979f00000000000000000000000000000000000000000000000000000000815260040160405180910390fd5b6001600160a01b038316613d4b57604051626a0d4560e21b81525f6004820152602401610bed565b604080516001808252602082018590528183019081526060820184905260a082019092525f60808201818152919291611e1291879185908590612c31565b6001600160a01b038416613db257604051632bfa23e760e11b81525f6004820152602401610bed565b60408051600180825260208201869052818301908152606082018590526080820190925290610c035f87848487612c31565b60605f80613df28585613e61565b925090505f60ff821667ffffffffffffffff811115613e1357613e1361434f565b6040519080825280601f01601f191660200182016040528015613e3d576020820181803683370190505b509050613e566020820160218888010160ff8516614228565b959194509092505050565b5f8083518310613e86578360405163ba4adc2360e01b8152600401610bed9190614531565b838381518110613e9857613e98614c8c565b016020015160f81c91505081810160010181613eb8578351811415613ebe565b83518110155b15610d8d578360405163ba4adc2360e01b8152600401610bed9190614531565b5f6001600160e01b03198216636cdb3d1360e11b1480613f0e57506001600160e01b031982166331a9108f60e11b145b80613f2957506001600160e01b031982166303a24d0760e21b145b80610a5257507f01ffc9a7000000000000000000000000000000000000000000000000000000006001600160e01b0319831614610a52565b8051825114613f905781518151604051635b05999160e01b815260048101929092526024820152604401610bed565b5f613f99611a4b565b90505f5b835181101561409957602081810285810182015190850190910151801561408f575f828152602081905260409020546001600160a01b039081169089168114614018576040516303dee4c560e01b81526001600160a01b038a1660048201525f60248201526044810183905260648101849052608401610bed565b600182111561405a576040516303dee4c560e01b81526001600160a01b038a166004820152600160248201526044810183905260648101849052608401610bed565b505f828152602081905260409020805473ffffffffffffffffffffffffffffffffffffffff19166001600160a01b0389161790555b5050600101613f9d565b5082516001036141195760208301515f906020840151909150856001600160a01b0316876001600160a01b0316846001600160a01b03167fc3d58168c5ae7397731d063d5bbf3d657854427343f4c083240f7aacaa2d0f62858560405161410a929190918252602082015260400190565b60405180910390a45050611e12565b836001600160a01b0316856001600160a01b0316826001600160a01b03167f4a39dc06d4c0dbc64b70af90fd698a233a518aa5d07e595d983b8c0526c8f7fb868660405161416892919061535a565b60405180910390a45050505050565b5f8481526002602090815260408083206001600160a01b03871684529091529020548015611e12576141ab8582868561273e565b50610c0385828585611b20565b6060826141c85761108282614271565b81511580156141df57506001600160a01b0384163b155b15614221576040517f9996b3150000000000000000000000000000000000000000000000000000000081526001600160a01b0385166004820152602401610bed565b5080610b30565b5b601f811115614249578151835260209283019290910190601f1901614229565b801561208c5790518251600160209390930360031b9290921b5f190180199091169116179052565b8051156142815780518082602001fd5b6040517fd6bda27500000000000000000000000000000000000000000000000000000000815260040160405180910390fd5b6001600160a01b0381168114612a90575f80fd5b5f80604083850312156142d8575f80fd5b82356142e3816142b3565b946020939093013593505050565b6001600160e01b031981168114612a90575f80fd5b5f60208284031215614316575f80fd5b8135610b30816142f1565b5f8060408385031215614332575f80fd5b823591506020830135614344816142b3565b809150509250929050565b634e487b7160e01b5f52604160045260245ffd5b6040805190810167ffffffffffffffff811182821017156143865761438661434f565b60405290565b60405160c0810167ffffffffffffffff811182821017156143865761438661434f565b604051601f8201601f1916810167ffffffffffffffff811182821017156143d8576143d861434f565b604052919050565b5f67ffffffffffffffff8211156143f9576143f961434f565b50601f01601f191660200190565b5f614419614414846143e0565b6143af565b905082815283838301111561442c575f80fd5b828260208301375f602084830101529392505050565b5f60208284031215614452575f80fd5b813567ffffffffffffffff811115614468575f80fd5b8201601f81018413614478575f80fd5b610d6c84823560208401614407565b82815260c08101610b30602083018467ffffffffffffffff8151168252602081015163ffffffff8082166020850152604083015191506001600160a01b0380831660408601528160608501511660608601528060808501511660808601525050505050565b5f602082840312156144fc575f80fd5b5035919050565b5f81518084528060208401602086015e5f602082860101526020601f19601f83011685010191505092915050565b602081525f610b306020830184614503565b5f8060408385031215614554575f80fd5b50508035926020909101359150565b5f67ffffffffffffffff82111561457c5761457c61434f565b5060051b60200190565b5f82601f830112614595575f80fd5b813560206145a561441483614563565b8083825260208201915060208460051b8701019350868411156145c6575f80fd5b602086015b848110156145e257803583529183019183016145cb565b509695505050505050565b5f82601f8301126145fc575f80fd5b610b3083833560208501614407565b5f805f805f60a0868803121561461f575f80fd5b853561462a816142b3565b9450602086013561463a816142b3565b9350604086013567ffffffffffffffff80821115614656575f80fd5b61466289838a01614586565b94506060880135915080821115614677575f80fd5b61468389838a01614586565b93506080880135915080821115614698575f80fd5b506146a5888289016145ed565b9150509295509295909350565b5f8083601f8401126146c2575f80fd5b50813567ffffffffffffffff8111156146d9575f80fd5b602083019150836020828501011115610d8d575f80fd5b5f8060208385031215614701575f80fd5b823567ffffffffffffffff811115614717575f80fd5b614723858286016146b2565b90969095509350505050565b5f8060408385031215614740575f80fd5b823567ffffffffffffffff80821115614757575f80fd5b818501915085601f83011261476a575f80fd5b8135602061477a61441483614563565b82815260059290921b84018101918181019089841115614798575f80fd5b948201945b838610156147bf5785356147b0816142b3565b8252948201949082019061479d565b965050860135925050808211156147d4575f80fd5b506147e185828601614586565b9150509250929050565b5f815180845260208085019450602084015f5b8381101561481a578151875295820195908201906001016147fe565b509495945050505050565b602081525f610b3060208301846147eb565b5f8060408385031215614848575f80fd5b8235614853816142b3565b9150602083013567ffffffffffffffff81111561486e575f80fd5b6147e1858286016145ed565b67ffffffffffffffff81168114612a90575f80fd5b8035612a2e8161487a565b5f80604083850312156148ab575f80fd5b8235915060208301356143448161487a565b5f805f606084860312156148cf575f80fd5b833592506020840135915060408401356148e8816142b3565b809150509250925092565b5f805f805f805f60c0888a031215614909575f80fd5b873567ffffffffffffffff81111561491f575f80fd5b61492b8a828b016146b2565b909850965050602088013561493f816142b3565b9450604088013561494f816142b3565b9350606088013561495f816142b3565b92506080880135915060a08801356149768161487a565b8091505092959891949750929550565b8015158114612a90575f80fd5b5f80604083850312156149a4575f80fd5b82356149af816142b3565b9150602083013561434481614986565b5f805f805f608086880312156149d3575f80fd5b853567ffffffffffffffff8111156149e9575f80fd5b6149f5888289016146b2565b9096509450506020860135614a09816142b3565b9250604086013591506060860135614a20816142b3565b809150509295509295909350565b60a08101610a52828467ffffffffffffffff8151168252602081015163ffffffff8082166020850152604083015191506001600160a01b0380831660408601528160608501511660608601528060808501511660808601525050505050565b5f8083601f840112614a9d575f80fd5b50813567ffffffffffffffff811115614ab4575f80fd5b6020830191508360208260051b8501011115610d8d575f80fd5b5f805f805f805f8060a0898b031215614ae5575f80fd5b8835614af0816142b3565b97506020890135614b00816142b3565b9650604089013567ffffffffffffffff80821115614b1c575f80fd5b614b288c838d01614a8d565b909850965060608b0135915080821115614b40575f80fd5b614b4c8c838d01614a8d565b909650945060808b0135915080821115614b64575f80fd5b50614b718b828c016146b2565b999c989b5096995094979396929594505050565b5f8060408385031215614b96575f80fd5b8235614ba1816142b3565b91506020830135614344816142b3565b5f805f805f8060a08789031215614bc6575f80fd5b8635614bd1816142b3565b95506020870135614be1816142b3565b94506040870135935060608701359250608087013567ffffffffffffffff811115614c0a575f80fd5b614c1689828a016146b2565b979a9699509497509295939492505050565b5f805f805f60a08688031215614c3c575f80fd5b8535614c47816142b3565b94506020860135614c57816142b3565b93506040860135925060608601359150608086013567ffffffffffffffff811115614c80575f80fd5b6146a5888289016145ed565b634e487b7160e01b5f52603260045260245ffd5b600181811c90821680614cb457607f821691505b602082108103614cd257634e487b7160e01b5f52602260045260245ffd5b50919050565b601f82111561208c57805f5260205f20601f840160051c81016020851015614cfd5750805b601f840160051c820191505b81811015611e12575f8155600101614d09565b67ffffffffffffffff831115614d3457614d3461434f565b614d4883614d428354614ca0565b83614cd8565b5f601f841160018114614d79575f8515614d625750838201355b5f19600387901b1c1916600186901b178355611e12565b5f83815260208120601f198716915b82811015614da85786850135825560209485019460019092019101614d88565b5086821015614dc4575f1960f88860031b161c19848701351681555b505060018560011b0183555050505050565b805163ffffffff81168114612a2e575f80fd5b5f60a08284031215614df9575f80fd5b60405160a0810181811067ffffffffffffffff82111715614e1c57614e1c61434f565b6040528251614e2a8161487a565b8152614e3860208401614dd6565b60208201526040830151614e4b816142b3565b6040820152614e5c60608401614dd6565b60608201526080830151614e6f816142b3565b60808201529392505050565b5f60408284031215614e8b575f80fd5b614e93614363565b9050813567ffffffffffffffff80821115614eac575f80fd5b9083019060c08286031215614ebf575f80fd5b614ec761438c565b823582811115614ed5575f80fd5b614ee1878286016145ed565b82525060208301359150614ef4826142b3565b81602082015260408301359150614f0a826142b3565b81604082015260608301359150614f20826142b3565b81606082015260808301356080820152614f3c60a0840161488f565b60a08201528084525050506020820135602082015292915050565b5f6020808385031215614f68575f80fd5b823567ffffffffffffffff80821115614f7f575f80fd5b818501915085601f830112614f92575f80fd5b8135614fa061441482614563565b81815260059190911b83018401908481019088831115614fbe575f80fd5b8585015b83811015614ff457803585811115614fd8575f80fd5b614fe68b89838a0101614e7b565b845250918601918601614fc2565b5098975050505050505050565b818382375f9101908152919050565b5f805f60608486031215615022575f80fd5b835161502d816142b3565b925061503b60208501614dd6565b915060408401516148e88161487a565b5f6020828403121561505b575f80fd5b813567ffffffffffffffff811115615071575f80fd5b610d6c84828501614e7b565b5f6020828403121561508d575f80fd5b815167ffffffffffffffff8111156150a3575f80fd5b8201601f810184136150b3575f80fd5b80516150c1614414826143e0565b8181528560208385010111156150d5575f80fd5b8160208401602083015e5f91810160200191909152949350505050565b634e487b7160e01b5f52601160045260245ffd5b63ffffffff818116838216019080821115615123576151236150f2565b5092915050565b5f6020828403121561513a575f80fd5b5051919050565b5f60208284031215615151575f80fd5b8151610b30816142b3565b80820180821115610a5257610a526150f2565b81810381811115610a5257610a526150f2565b5f63ffffffff80831681810361519a5761519a6150f2565b6001019392505050565b606081525f6151b66060830186614503565b905067ffffffffffffffff841660208301526001600160a01b0383166040830152949350505050565b5f602082840312156151ef575f80fd5b8151610b3081614986565b604081525f61520c6040830185614503565b90508260208301529392505050565b608081525f61522d6080830187614503565b6001600160a01b0395861660208401526040830194909452509216606090920191909152919050565b6001600160a01b0384168152826020820152606060408201525f610ab76060830184614503565b5f6020828403121561528d575f80fd5b610b3082614dd6565b5f6001600160a01b03808816835280871660208401525084604083015283606083015260a060808301526152cd60a0830184614503565b979650505050505050565b5f602082840312156152e8575f80fd5b8151610b30816142f1565b5f6001600160a01b03808816835280871660208401525060a0604083015261531e60a08301866147eb565b828103606084015261533081866147eb565b905082810360808401526135c28185614503565b5f82518060208501845e5f920191825250919050565b604081525f61536c60408301856147eb565b8281036020840152610ab781856147eb56fea2646970667358221220595559c1c9c8e6125adcc17ed68b30483fe7d4961939b8e861bcb1556061787e64736f6c634300081900338888888888888888888888888888888888888888888888888888888888888888eeeeeeeeeeeeeeeeeeeeeeeeeeeeeeeeeeeeeeeeeeeeeeeeeeeeeeeeeeeeeeef",
  "linkReferences": {},
  "deployedLinkReferences": {},
  "immutableReferences": {
    "13192": [
      {
        "length": 32,
        "start": 7909
      },
      {
        "length": 32,
        "start": 7950
      },
      {
        "length": 32,
        "start": 8348
      }
    ],
    "26166": [
      {
        "length": 32,
        "start": 1344
      },
      {
        "length": 32,
        "start": 10565
      },
      {
        "length": 32,
        "start": 10662
      }
    ],
    "27031": [
      {
        "length": 32,
        "start": 1509
      },
      {
        "length": 32,
        "start": 3166
      },
      {
        "length": 32,
        "start": 3913
      },
      {
        "length": 32,
        "start": 5098
      },
      {
        "length": 32,
        "start": 5428
      },
      {
        "length": 32,
        "start": 11833
      },
      {
        "length": 32,
        "start": 14330
      }
    ],
    "27162": [
      {
        "length": 32,
        "start": 1694
      },
      {
        "length": 32,
        "start": 7288
      },
      {
        "length": 32,
        "start": 7398
      }
    ],
    "27272": [
      {
        "length": 32,
        "start": 1104
      },
      {
        "length": 32,
        "start": 5215
      },
      {
        "length": 32,
        "start": 5982
      },
      {
        "length": 32,
        "start": 6210
      },
      {
        "length": 32,
        "start": 8593
      },
      {
        "length": 32,
        "start": 8753
      },
      {
        "length": 32,
        "start": 9166
      },
      {
        "length": 32,
        "start": 9733
      },
      {
        "length": 32,
        "start": 12818
      },
      {
        "length": 32,
        "start": 12970
      }
    ],
    "27275": [
      {
        "length": 32,
        "start": 1229
      },
      {
        "length": 32,
        "start": 9434
      }
    ],
    "27278": [
      {
        "length": 32,
        "start": 1560
      },
      {
        "length": 32,
        "start": 12591
      }
    ],
    "27280": [
      {
        "length": 32,
        "start": 2559
      },
      {
        "length": 32,
        "start": 6137
      }
    ]
  },
  "inputSourceName": "project/src/registry/MigratedWrappedNameRegistry.sol",
  "devdoc": {
    "details": "A registry for migrated wrapped names that inherits from PermissionedRegistry and is upgradeable using the UUPS pattern. This contract provides resolver fallback to the universal resolver for names that haven't been migrated yet. It also handles subdomain migration by receiving NFT transfers from the NameWrapper.",
    "errors": {
      "AddressEmptyCode(address)": [
        {
          "details": "There's no code at `target` (it is not a contract)."
        }
      ],
      "CannotReduceExpiration(uint64,uint64)": [
        {
          "details": "Error emitted when a name cannot be reduced in expiration."
        }
      ],
      "CannotSetPastExpiration(uint64)": [
        {
          "details": "Error emitted when a name cannot be set to a past expiration."
        }
      ],
      "DNSDecodingFailed(bytes)": [
        {
          "details": "The DNS-encoded name is malformed.      Error selector: `0xba4adc23`"
        }
      ],
      "ERC1155InsufficientBalance(address,uint256,uint256,uint256)": [
        {
          "details": "Indicates an error related to the current `balance` of a `sender`. Used in transfers.",
          "params": {
            "balance": "Current balance for the interacting account.",
            "needed": "Minimum amount required to perform a transfer.",
            "sender": "Address whose tokens are being transferred.",
            "tokenId": "Identifier number of a token."
          }
        }
      ],
      "ERC1155InvalidApprover(address)": [
        {
          "details": "Indicates a failure with the `approver` of a token to be approved. Used in approvals.",
          "params": {
            "approver": "Address initiating an approval operation."
          }
        }
      ],
      "ERC1155InvalidArrayLength(uint256,uint256)": [
        {
          "details": "Indicates an array length mismatch between ids and values in a safeBatchTransferFrom operation. Used in batch transfers.",
          "params": {
            "idsLength": "Length of the array of token identifiers",
            "valuesLength": "Length of the array of token amounts"
          }
        }
      ],
      "ERC1155InvalidOperator(address)": [
        {
          "details": "Indicates a failure with the `operator` to be approved. Used in approvals.",
          "params": {
            "operator": "Address that may be allowed to operate on tokens without being their owner."
          }
        }
      ],
      "ERC1155InvalidReceiver(address)": [
        {
          "details": "Indicates a failure with the token `receiver`. Used in transfers.",
          "params": {
            "receiver": "Address to which tokens are being transferred."
          }
        }
      ],
      "ERC1155InvalidSender(address)": [
        {
          "details": "Indicates a failure with the token `sender`. Used in transfers.",
          "params": {
            "sender": "Address whose tokens are being transferred."
          }
        }
      ],
      "ERC1155MissingApprovalForAll(address,address)": [
        {
          "details": "Indicates a failure with the `operator`s approval. Used in transfers.",
          "params": {
            "operator": "Address that may be allowed to operate on tokens without being their owner.",
            "owner": "Address of the current owner of a token."
          }
        }
      ],
      "ERC1967InvalidImplementation(address)": [
        {
          "details": "The `implementation` of the proxy is invalid."
        }
      ],
      "ERC1967NonPayable()": [
        {
          "details": "An upgrade function sees `msg.value > 0` that may be lost."
        }
      ],
      "FailedCall()": [
        {
          "details": "A call to an address target failed. The target may have reverted."
        }
      ],
      "InvalidInitialization()": [
        {
          "details": "The contract is already initialized."
        }
      ],
      "LabelNotMigrated(string)": [
        {
          "details": "Thrown when attempting to register a label that has an emancipated NFT in the old system but hasn't been migrated",
          "params": {
            "label": "The label that needs to be migrated first"
          }
        }
      ],
      "NameAlreadyRegistered(string)": [
        {
          "details": "Error emitted when a name is already registered."
        }
      ],
      "NameExpired(uint256)": [
        {
          "details": "Error emitted when a name has expired."
        }
      ],
      "NotInitializing()": [
        {
          "details": "The contract is not initializing."
        }
      ],
      "ParentNotMigrated(bytes,uint256)": [
        {
          "details": "Thrown when attempting to migrate a subdomain whose parent has not been migrated",
          "params": {
            "name": "The DNS-encoded name being migrated",
            "offset": "The byte offset where the parent domain starts in the name"
          }
        }
      ],
      "TransferDisallowed(uint256,address)": [
        {
          "details": "Error emitted when a transfer is not allowed due to missing transfer admin role."
        }
      ],
      "UUPSUnauthorizedCallContext()": [
        {
          "details": "The call is from an unauthorized context."
        }
      ],
      "UUPSUnsupportedProxiableUUID(bytes32)": [
        {
          "details": "The storage `slot` is unsupported as a UUID."
        }
      ],
      "UnauthorizedCaller(address)": [
        {
          "details": "Thrown when a caller is not authorized to perform the requested operation",
          "params": {
            "caller": "The address that attempted the unauthorized operation"
          }
        }
      ]
    },
    "events": {
      "ApprovalForAll(address,address,bool)": {
        "details": "Emitted when `account` grants or revokes permission to `operator` to transfer their tokens, according to `approved`."
      },
      "ExpiryUpdated(uint256,uint64,address)": {
        "details": "Error selector: `0x`"
      },
      "Initialized(uint64)": {
        "details": "Triggered when the contract has been initialized or reinitialized."
      },
      "NameRegistered(uint256,string,uint64,address)": {
        "details": "SHOULD be emitted when a new label is registered"
      },
      "TransferBatch(address,address,address,uint256[],uint256[])": {
        "details": "Equivalent to multiple {TransferSingle} events, where `operator`, `from` and `to` are the same for all transfers."
      },
      "TransferSingle(address,address,address,uint256,uint256)": {
        "details": "Emitted when `value` amount of tokens of type `id` are transferred from `from` to `to` by `operator`."
      },
      "URI(string,uint256)": {
        "details": "Emitted when the URI for token type `id` changes to `value`, if it is a non-programmatic URI. If an {URI} event was emitted for `id`, the standard https://eips.ethereum.org/EIPS/eip-1155#metadata-extensions[guarantees] that `value` will equal the value returned by {IERC1155MetadataURI-uri}."
      },
      "Upgraded(address)": {
        "details": "Emitted when the implementation is upgraded."
      }
    },
    "kind": "dev",
    "methods": {
      "balanceOf(address,uint256)": {
        "details": "See {IERC1155-balanceOf}."
      },
      "balanceOfBatch(address[],uint256[])": {
        "details": "See {IERC1155-balanceOfBatch}. Requirements: - `accounts` and `ids` must have the same length."
      },
      "getEntry(uint256)": {
        "params": {
          "anyId": "The labelhash, token ID, or resource."
        },
        "returns": {
          "_0": "The datastore entry."
        }
      },
      "getExpiry(uint256)": {
        "params": {
          "anyId": "The labelhash, token ID, or resource."
        },
        "returns": {
          "_0": "The expiry for name."
        }
      },
      "getNameData(string)": {
        "details": "Fetches the name data for a label.",
        "params": {
          "label": "The label to fetch the name data for."
        },
        "returns": {
          "entry": "The entry data for the name.",
          "tokenId": "The token ID of the name."
        }
      },
      "getResolver(string)": {
        "details": "Restore the latest resolver to `FALLBACK_RESOLVER` upon visiting migratable children.",
        "params": {
          "label": "The label to fetch a resolver for."
        },
        "returns": {
          "_0": "resolver The address of a resolver responsible for this name, or `address(0)` if none exists."
        }
      },
      "getResource(uint256)": {
        "params": {
          "anyId": "The labelhash, token ID, or resource."
        },
        "returns": {
          "_0": "The resource."
        }
      },
      "getSubregistry(string)": {
        "details": "Fetches the registry for a subdomain.",
        "params": {
          "label": "The label to resolve."
        },
        "returns": {
          "_0": "The address of the registry for this subdomain, or `address(0)` if none exists."
        }
      },
      "getTokenId(uint256)": {
        "params": {
          "anyId": "The labelhash, token ID, or resource."
        },
        "returns": {
          "_0": "The token ID."
        }
      },
      "grantRoles(uint256,uint256,address)": {
        "details": "Grants all roles in the given role bitmap to `account`."
      },
      "grantRootRoles(uint256,address)": {
        "details": "Grants all roles in the given role bitmap to `account` in the ROOT_RESOURCE. The caller must have all the necessary admin roles for the roles being granted.",
        "params": {
          "account": "The account to grant roles to.",
          "roleBitmap": "The roles bitmap to grant."
        },
        "returns": {
          "_0": "`true` if the roles were granted, `false` otherwise."
        }
      },
      "hasRootRoles(uint256,address)": {
        "details": "Returns `true` if `account` has been granted all the given roles in the `ROOT_RESOURCE`.",
        "params": {
          "account": "The account to check.",
          "rolesBitmap": "The roles bitmap to check."
        },
        "returns": {
          "_0": "`true` if `account` has been granted all the given roles in the `ROOT_RESOURCE`, `false` otherwise."
        }
      },
      "initialize(bytes,address,uint256,address)": {
        "details": "Initializes the MigratedWrappedNameRegistry contract.",
        "params": {
          "ownerAddress_": "The address that will own this registry.",
          "ownerRoles_": "The roles to grant to the owner.",
          "parentDnsEncodedName_": "The DNS-encoded name of the parent domain.",
          "registrarAddress_": "Optional address to grant ROLE_REGISTRAR permissions (typically for testing)."
        }
      },
      "isApprovedForAll(address,address)": {
        "details": "See {IERC1155-isApprovedForAll}."
      },
      "latestOwnerOf(uint256)": {
        "params": {
          "tokenId": "The token ID to query."
        },
        "returns": {
          "_0": "The latest owner address."
        }
      },
      "proxiableUUID()": {
        "details": "Implementation of the ERC-1822 {proxiableUUID} function. This returns the storage slot used by the implementation. It is used to validate the implementation's compatibility when performing an upgrade. IMPORTANT: A proxy pointing at a proxiable contract should not be considered proxiable itself, because this risks bricking a proxy that upgrades to it, by delegating to itself until out of gas. Thus it is critical that this function revert if invoked through a proxy. This is guaranteed by the `notDelegated` modifier."
      },
      "register(string,address,address,address,uint256,uint64)": {
        "details": "Registers a new name.",
        "params": {
          "expires": "The expiration date of the name.",
          "label": "The label to register.",
          "owner": "The address of the owner of the name.",
          "registry": "The registry to set as the name.",
          "resolver": "The resolver to set for the name.",
          "roleBitmap": "The role bitmap to set for the name."
        }
      },
      "renew(uint256,uint64)": {
        "params": {
          "anyId": "The labelhash, token ID, or resource.",
          "newExpiry": "The new expiration."
        }
      },
      "revokeRoles(uint256,uint256,address)": {
        "details": "Revokes all roles in the given role bitmap from `account`."
      },
      "revokeRootRoles(uint256,address)": {
        "details": "Revokes all roles in the given role bitmap from `account` in the ROOT_RESOURCE. The caller must have all the necessary admin roles for the roles being revoked.",
        "params": {
          "account": "The account to revoke roles from.",
          "roleBitmap": "The roles bitmap to revoke."
        },
        "returns": {
          "_0": "`true` if the roles were revoked, `false` otherwise."
        }
      },
      "safeBatchTransferFrom(address,address,uint256[],uint256[],bytes)": {
        "details": "See {IERC1155-safeBatchTransferFrom}."
      },
      "safeTransferFrom(address,address,uint256,uint256,bytes)": {
        "details": "See {IERC1155-safeTransferFrom}."
      },
      "setApprovalForAll(address,bool)": {
        "details": "See {IERC1155-setApprovalForAll}."
      },
      "setResolver(uint256,address)": {
        "params": {
          "anyId": "The labelhash, token ID, or resource.",
          "resolver": "The new resolver."
        }
      },
      "setSubregistry(uint256,address)": {
        "params": {
          "anyId": "The labelhash, token ID, or resource.",
          "registry": "The new registry."
        }
      },
      "upgradeToAndCall(address,bytes)": {
        "custom:oz-upgrades-unsafe-allow-reachable": "delegatecall",
        "details": "Upgrade the implementation of the proxy to `newImplementation`, and subsequently execute the function call encoded in `data`. Calls {_authorizeUpgrade}. Emits an {Upgraded} event."
      }
    },
    "title": "MigratedWrappedNameRegistry",
    "version": 1
  },
  "evm": {
    "gasEstimates": {
      "creation": {
        "codeDepositCost": "4285600",
        "executionCost": "infinite",
        "totalCost": "infinite"
      },
      "external": {
        "DATASTORE()": "infinite",
        "ETH_REGISTRY()": "infinite",
        "FACTORY()": "infinite",
        "FALLBACK_RESOLVER()": "infinite",
        "HCA_FACTORY()": "infinite",
        "METADATA_PROVIDER()": "infinite",
        "NAME_WRAPPER()": "infinite",
        "ROOT_RESOURCE()": "272",
        "UPGRADE_INTERFACE_VERSION()": "infinite",
        "balanceOf(address,uint256)": "infinite",
        "balanceOfBatch(address[],uint256[])": "infinite",
        "getAssigneeCount(uint256,uint256)": "infinite",
        "getEntry(uint256)": "infinite",
        "getExpiry(uint256)": "infinite",
        "getNameData(string)": "infinite",
        "getResolver(string)": "infinite",
        "getResource(uint256)": "infinite",
        "getSubregistry(string)": "infinite",
        "getTokenId(uint256)": "infinite",
        "grantRoles(uint256,uint256,address)": "infinite",
        "grantRootRoles(uint256,address)": "infinite",
        "hasAssignees(uint256,uint256)": "infinite",
        "hasRoles(uint256,uint256,address)": "infinite",
        "hasRootRoles(uint256,address)": "2686",
        "initialize(bytes,address,uint256,address)": "infinite",
        "isApprovedForAll(address,address)": "infinite",
        "latestOwnerOf(uint256)": "2575",
        "onERC1155BatchReceived(address,address,uint256[],uint256[],bytes)": "infinite",
        "onERC1155Received(address,address,uint256,uint256,bytes)": "infinite",
        "ownerOf(uint256)": "infinite",
        "parentDnsEncodedName()": "infinite",
        "proxiableUUID()": "infinite",
        "register(string,address,address,address,uint256,uint64)": "infinite",
        "renew(uint256,uint64)": "infinite",
        "revokeRoles(uint256,uint256,address)": "infinite",
        "revokeRootRoles(uint256,address)": "infinite",
        "roleCount(uint256)": "infinite",
        "roles(uint256,address)": "infinite",
        "safeBatchTransferFrom(address,address,uint256[],uint256[],bytes)": "infinite",
        "safeTransferFrom(address,address,uint256,uint256,bytes)": "infinite",
        "setApprovalForAll(address,bool)": "infinite",
        "setResolver(uint256,address)": "infinite",
        "setSubregistry(uint256,address)": "infinite",
        "supportsInterface(bytes4)": "infinite",
        "upgradeToAndCall(address,bytes)": "infinite",
        "uri(uint256)": "infinite"
      },
      "internal": {
        "_authorizeUpgrade(address)": "infinite",
        "_migrateSubdomains(uint256[] memory,struct MigrationData memory[] memory)": "infinite",
        "_register(string memory,address,contract IRegistry,address,uint256,uint64)": "infinite",
        "_validateHierarchy(bytes memory,uint256)": "infinite"
      }
    }
  },
  "storageLayout": {
    "storage": [
      {
        "astId": 25257,
        "contract": "project/src/registry/MigratedWrappedNameRegistry.sol:MigratedWrappedNameRegistry",
        "label": "_owners",
        "offset": 0,
        "slot": "0",
        "type": "t_mapping(t_uint256,t_address)"
      },
      {
        "astId": 25263,
        "contract": "project/src/registry/MigratedWrappedNameRegistry.sol:MigratedWrappedNameRegistry",
        "label": "_operatorApprovals",
        "offset": 0,
        "slot": "1",
        "type": "t_mapping(t_address,t_mapping(t_address,t_bool))"
      },
      {
        "astId": 23872,
        "contract": "project/src/registry/MigratedWrappedNameRegistry.sol:MigratedWrappedNameRegistry",
        "label": "_roles",
        "offset": 0,
        "slot": "2",
        "type": "t_mapping(t_uint256,t_mapping(t_address,t_uint256))"
      },
      {
        "astId": 23877,
        "contract": "project/src/registry/MigratedWrappedNameRegistry.sol:MigratedWrappedNameRegistry",
        "label": "_roleCount",
        "offset": 0,
        "slot": "3",
        "type": "t_mapping(t_uint256,t_uint256)"
      },
      {
        "astId": 27282,
        "contract": "project/src/registry/MigratedWrappedNameRegistry.sol:MigratedWrappedNameRegistry",
        "label": "parentDnsEncodedName",
        "offset": 0,
        "slot": "4",
        "type": "t_bytes_storage"
      }
    ],
    "types": {
      "t_address": {
        "encoding": "inplace",
        "label": "address",
        "numberOfBytes": "20"
      },
      "t_bool": {
        "encoding": "inplace",
        "label": "bool",
        "numberOfBytes": "1"
      },
      "t_bytes_storage": {
        "encoding": "bytes",
        "label": "bytes",
        "numberOfBytes": "32"
      },
      "t_mapping(t_address,t_bool)": {
        "encoding": "mapping",
        "key": "t_address",
        "label": "mapping(address => bool)",
        "numberOfBytes": "32",
        "value": "t_bool"
      },
      "t_mapping(t_address,t_mapping(t_address,t_bool))": {
        "encoding": "mapping",
        "key": "t_address",
        "label": "mapping(address => mapping(address => bool))",
        "numberOfBytes": "32",
        "value": "t_mapping(t_address,t_bool)"
      },
      "t_mapping(t_address,t_uint256)": {
        "encoding": "mapping",
        "key": "t_address",
        "label": "mapping(address => uint256)",
        "numberOfBytes": "32",
        "value": "t_uint256"
      },
      "t_mapping(t_uint256,t_address)": {
        "encoding": "mapping",
        "key": "t_uint256",
        "label": "mapping(uint256 => address)",
        "numberOfBytes": "32",
        "value": "t_address"
      },
      "t_mapping(t_uint256,t_mapping(t_address,t_uint256))": {
        "encoding": "mapping",
        "key": "t_uint256",
        "label": "mapping(uint256 => mapping(address => uint256))",
        "numberOfBytes": "32",
        "value": "t_mapping(t_address,t_uint256)"
      },
      "t_mapping(t_uint256,t_uint256)": {
        "encoding": "mapping",
        "key": "t_uint256",
        "label": "mapping(uint256 => uint256)",
        "numberOfBytes": "32",
        "value": "t_uint256"
      },
      "t_uint256": {
        "encoding": "inplace",
        "label": "uint256",
        "numberOfBytes": "32"
      }
    }
  },
  "userdoc": {
    "events": {
      "ExpiryUpdated(uint256,uint64,address)": {
        "notice": "Expiry was changed."
      },
      "ResolverUpdated(uint256,address)": {
        "notice": "Resolver was changed."
      },
      "SubregistryUpdated(uint256,address)": {
        "notice": "Subregistry was changed."
      },
      "TokenRegenerated(uint256,uint256,uint256)": {
        "notice": "Token was regenerated with a new token ID.         This occurs when roles are granted or revoked to maintain ERC1155 compliance."
      }
    },
    "kind": "user",
    "methods": {
      "HCA_FACTORY()": {
        "notice": "The HCA factory contract"
      },
      "METADATA_PROVIDER()": {
        "notice": "The metadata provider contract"
      },
      "ROOT_RESOURCE()": {
        "notice": "The `ROOT_RESOURCE`."
      },
      "getEntry(uint256)": {
        "notice": "Get datastore `Entry` from `anyId`."
      },
      "getExpiry(uint256)": {
        "notice": "Get expiry of name."
      },
      "getResource(uint256)": {
        "notice": "Get `resource` from `anyId`."
      },
      "getTokenId(uint256)": {
        "notice": "Get `tokenId` from `anyId`."
      },
      "latestOwnerOf(uint256)": {
        "notice": "Get the latest owner of a token.         If the token was burned, returns null."
      },
      "renew(uint256,uint64)": {
        "notice": "Renew a subdomain."
      },
      "setResolver(uint256,address)": {
        "notice": "Change resolver of name."
      },
      "setSubregistry(uint256,address)": {
        "notice": "Change registry of name."
      }
    },
    "version": 1
  },
  "argsData": "0x000000000000000000000000b7278a61aa25c888815afc32ad3cc52ff24fe57500000000000000000000000084ea74d481ee0a5332c457a4d796187f6ba67feb00000000000000000000000082e01223d51eb87e16a03e24687edf0f294da6f1000000000000000000000000a513e6e4b8f2a923d98304ec87f64353c4d5c8530000000000000000000000002279b7a0a67db372996a5fab50d91eaa73d2ebe60000000000000000000000008a791620dd6260079bf849dc5567adc3f2fdc3180000000000000000000000005fc8d32690cc91d4c39d9d3abcbd16989f875707",
  "transaction": {
    "hash": "0x24b7237138e56e2a2ba8b772c3ba05fc0a679bbdd754388833c968fadedafe4e",
    "nonce": "0x37",
    "origin": "0xf39fd6e51aad88f6f4ce6ab8827279cfffb92266"
  }
}