{
  "address": "0xd84379ceae14aa33c123af12424a37803f885889",
  "abi": [
    {
      "inputs": [
        {
          "internalType": "contract IBaseRegistrar",
          "name": "_registrar",
          "type": "address"
        },
        {
          "internalType": "contract INameWrapper",
          "name": "_wrapper",
          "type": "address"
        }
      ],
      "stateMutability": "nonpayable",
      "type": "constructor"
    },
    {
      "inputs": [],
      "name": "MigrationTargetNotSet",
      "type": "error"
    },
    {
      "anonymous": false,
      "inputs": [
        {
          "indexed": true,
          "internalType": "address",
          "name": "controller",
          "type": "address"
        },
        {
          "indexed": false,
          "internalType": "bool",
          "name": "active",
          "type": "bool"
        }
      ],
      "name": "ControllerChanged",
      "type": "event"
    },
    {
      "anonymous": false,
      "inputs": [
        {
          "indexed": true,
          "internalType": "address",
          "name": "target",
          "type": "address"
        }
      ],
      "name": "MigrationTargetUpdated",
      "type": "event"
    },
    {
      "anonymous": false,
      "inputs": [
        {
          "indexed": true,
          "internalType": "address",
          "name": "previousOwner",
          "type": "address"
        },
        {
          "indexed": true,
          "internalType": "address",
          "name": "newOwner",
          "type": "address"
        }
      ],
      "name": "OwnershipTransferred",
      "type": "event"
    },
    {
      "inputs": [
        {
          "internalType": "address",
          "name": "",
          "type": "address"
        }
      ],
      "name": "controllers",
      "outputs": [
        {
          "internalType": "bool",
          "name": "",
          "type": "bool"
        }
      ],
      "stateMutability": "view",
      "type": "function"
    },
    {
      "inputs": [
        {
          "internalType": "address",
          "name": "nameOwner",
          "type": "address"
        },
        {
          "internalType": "uint256[]",
          "name": "tokenIds",
          "type": "uint256[]"
        },
        {
          "internalType": "bytes",
          "name": "data",
          "type": "bytes"
        }
      ],
      "name": "migrateNames",
      "outputs": [],
      "stateMutability": "nonpayable",
      "type": "function"
    },
    {
      "inputs": [
        {
          "internalType": "address",
          "name": "nameOwner",
          "type": "address"
        },
        {
          "internalType": "uint256[]",
          "name": "tokenIds",
          "type": "uint256[]"
        },
        {
          "internalType": "bytes",
          "name": "data",
          "type": "bytes"
        }
      ],
      "name": "migrateWrappedNames",
      "outputs": [],
      "stateMutability": "nonpayable",
      "type": "function"
    },
    {
      "inputs": [],
      "name": "migrationTarget",
      "outputs": [
        {
          "internalType": "address",
          "name": "",
          "type": "address"
        }
      ],
      "stateMutability": "view",
      "type": "function"
    },
    {
      "inputs": [],
      "name": "owner",
      "outputs": [
        {
          "internalType": "address",
          "name": "",
          "type": "address"
        }
      ],
      "stateMutability": "view",
      "type": "function"
    },
    {
      "inputs": [],
      "name": "registrar",
      "outputs": [
        {
          "internalType": "contract IBaseRegistrar",
          "name": "",
          "type": "address"
        }
      ],
      "stateMutability": "view",
      "type": "function"
    },
    {
      "inputs": [],
      "name": "renounceOwnership",
      "outputs": [],
      "stateMutability": "nonpayable",
      "type": "function"
    },
    {
      "inputs": [
        {
          "internalType": "address",
          "name": "controller",
          "type": "address"
        },
        {
          "internalType": "bool",
          "name": "active",
          "type": "bool"
        }
      ],
      "name": "setController",
      "outputs": [],
      "stateMutability": "nonpayable",
      "type": "function"
    },
    {
      "inputs": [
        {
          "internalType": "address",
          "name": "target",
          "type": "address"
        }
      ],
      "name": "setMigrationTarget",
      "outputs": [],
      "stateMutability": "nonpayable",
      "type": "function"
    },
    {
      "inputs": [
        {
          "internalType": "address",
          "name": "newOwner",
          "type": "address"
        }
      ],
      "name": "transferOwnership",
      "outputs": [],
      "stateMutability": "nonpayable",
      "type": "function"
    },
    {
      "inputs": [],
      "name": "wrapper",
      "outputs": [
        {
          "internalType": "contract INameWrapper",
          "name": "",
          "type": "address"
        }
      ],
      "stateMutability": "view",
      "type": "function"
    }
  ],
  "contractName": "MigrationHelper",
  "sourceName": "lib/ens-contracts/contracts/utils/MigrationHelper.sol",
  "bytecode": "0x60c060405234801561000f575f80fd5b50604051610b85380380610b8583398101604081905261002e916100b4565b6100373361004e565b6001600160a01b039182166080521660a0526100ec565b5f80546001600160a01b038381166001600160a01b0319831681178455604051919092169283917f8be0079c531659141344cd1fd0a4f28419497f9722a3daafe3b4186f6b6457e09190a35050565b6001600160a01b03811681146100b1575f80fd5b50565b5f80604083850312156100c5575f80fd5b82516100d08161009d565b60208401519092506100e18161009d565b809150509250929050565b60805160a051610a6b61011a5f395f8181610151015261034e01525f818160cd01526105b80152610a6b5ff3fe608060405234801561000f575f80fd5b50600436106100c4575f3560e01c8063ac210cc71161007d578063e0dba60f11610058578063e0dba60f146101b8578063f2fde38b146101cb578063fd1a0bc8146101de575f80fd5b8063ac210cc71461014c578063c231bace14610173578063da8c229e14610186575f80fd5b8063715018a6116100ad578063715018a61461011f5780637e44baf0146101295780638da5cb5b1461013c575f80fd5b80632b20e397146100c85780635b51acff1461010c575b5f80fd5b6100ef7f000000000000000000000000000000000000000000000000000000000000000081565b6040516001600160a01b0390911681526020015b60405180910390f35b6002546100ef906001600160a01b031681565b6101276101f1565b005b6101276101373660046107f5565b610204565b5f546001600160a01b03166100ef565b6100ef7f000000000000000000000000000000000000000000000000000000000000000081565b6101276101813660046108c8565b6103bf565b6101a86101943660046108c8565b60016020525f908152604090205460ff1681565b6040519015158152602001610103565b6101276101c63660046108e8565b61041d565b6101276101d93660046108c8565b610483565b6101276101ec3660046107f5565b610513565b6101f9610674565b6102025f6106cd565b565b335f9081526001602052604090205460ff166102785760405162461bcd60e51b815260206004820152602860248201527f436f6e74726f6c6c61626c653a2043616c6c6572206973206e6f74206120636f604482015267373a3937b63632b960c11b60648201526084015b60405180910390fd5b6002546001600160a01b03166102a1576040516391a8fd0d60e01b815260040160405180910390fd5b5f825167ffffffffffffffff8111156102bc576102bc610744565b6040519080825280602002602001820160405280156102e5578160200160208202803683370190505b5090505f5b815181101561031a57600182828151811061030757610307610921565b60209081029190910101526001016102ea565b506002546040517f2eb2c2d60000000000000000000000000000000000000000000000000000000081526001600160a01b037f0000000000000000000000000000000000000000000000000000000000000000811692632eb2c2d69261038c928992169088908790899060040161099d565b5f604051808303815f87803b1580156103a3575f80fd5b505af11580156103b5573d5f803e3d5ffd5b5050505050505050565b6103c7610674565b6002805473ffffffffffffffffffffffffffffffffffffffff19166001600160a01b0383169081179091556040517fa32053d7054112a46661fde717dbca218a46aa791a09a7415491932b1a010392905f90a250565b610425610674565b6001600160a01b0382165f81815260016020908152604091829020805460ff191685151590811790915591519182527f4c97694570a07277810af7e5669ffd5f6a2d6b74b6e9a274b8b870fd5114cf87910160405180910390a25050565b61048b610674565b6001600160a01b0381166105075760405162461bcd60e51b815260206004820152602660248201527f4f776e61626c653a206e6577206f776e657220697320746865207a65726f206160448201527f6464726573730000000000000000000000000000000000000000000000000000606482015260840161026f565b610510816106cd565b50565b335f9081526001602052604090205460ff166105825760405162461bcd60e51b815260206004820152602860248201527f436f6e74726f6c6c61626c653a2043616c6c6572206973206e6f74206120636f604482015267373a3937b63632b960c11b606482015260840161026f565b6002546001600160a01b03166105ab576040516391a8fd0d60e01b815260040160405180910390fd5b5f5b825181101561066e577f00000000000000000000000000000000000000000000000000000000000000006001600160a01b031663b88d4fde8560025f9054906101000a90046001600160a01b031686858151811061060d5761060d610921565b6020026020010151866040518563ffffffff1660e01b815260040161063594939291906109fa565b5f604051808303815f87803b15801561064c575f80fd5b505af115801561065e573d5f803e3d5ffd5b5050600190920191506105ad9050565b50505050565b5f546001600160a01b031633146102025760405162461bcd60e51b815260206004820181905260248201527f4f776e61626c653a2063616c6c6572206973206e6f7420746865206f776e6572604482015260640161026f565b5f80546001600160a01b0383811673ffffffffffffffffffffffffffffffffffffffff19831681178455604051919092169283917f8be0079c531659141344cd1fd0a4f28419497f9722a3daafe3b4186f6b6457e09190a35050565b80356001600160a01b038116811461073f575f80fd5b919050565b634e487b7160e01b5f52604160045260245ffd5b604051601f8201601f1916810167ffffffffffffffff8111828210171561078157610781610744565b604052919050565b5f82601f830112610798575f80fd5b813567ffffffffffffffff8111156107b2576107b2610744565b6107c5601f8201601f1916602001610758565b8181528460208386010111156107d9575f80fd5b816020850160208301375f918101602001919091529392505050565b5f805f60608486031215610807575f80fd5b61081084610729565b925060208085013567ffffffffffffffff8082111561082d575f80fd5b818701915087601f830112610840575f80fd5b81358181111561085257610852610744565b8060051b610861858201610758565b918252838101850191858101908b84111561087a575f80fd5b948601945b838610156108985785358252948601949086019061087f565b975050505060408701359250808311156108b0575f80fd5b50506108be86828701610789565b9150509250925092565b5f602082840312156108d8575f80fd5b6108e182610729565b9392505050565b5f80604083850312156108f9575f80fd5b61090283610729565b915060208301358015158114610916575f80fd5b809150509250929050565b634e487b7160e01b5f52603260045260245ffd5b5f815180845260208085019450602084015f5b8381101561096457815187529582019590820190600101610948565b509495945050505050565b5f81518084528060208401602086015e5f602082860101526020601f19601f83011685010191505092915050565b5f6001600160a01b03808816835280871660208401525060a060408301526109c860a0830186610935565b82810360608401526109da8186610935565b905082810360808401526109ee818561096f565b98975050505050505050565b5f6001600160a01b03808716835280861660208401525083604083015260806060830152610a2b608083018461096f565b969550505050505056fea264697066735822122071e65c8157c0a9472f8b7aa39640b9b13c2c53008c127d03d662f2a02f17a22664736f6c63430008190033",
  "linkReferences": {},
  "deployedLinkReferences": {},
  "immutableReferences": {
    "22528": [
      {
        "length": 32,
        "start": 205
      },
      {
        "length": 32,
        "start": 1464
      }
    ],
    "22531": [
      {
        "length": 32,
        "start": 337
      },
      {
        "length": 32,
        "start": 846
      }
    ]
  },
  "inputSourceName": "project/lib/ens-contracts/contracts/utils/MigrationHelper.sol",
  "devdoc": {
    "kind": "dev",
    "methods": {
      "owner()": {
        "details": "Returns the address of the current owner."
      },
      "renounceOwnership()": {
        "details": "Leaves the contract without owner. It will not be possible to call `onlyOwner` functions. Can only be called by the current owner. NOTE: Renouncing ownership will leave the contract without an owner, thereby disabling any functionality that is only available to the owner."
      },
      "transferOwnership(address)": {
        "details": "Transfers ownership of the contract to a new account (`newOwner`). Can only be called by the current owner."
      }
    },
    "version": 1
  },
  "evm": {
    "gasEstimates": {
      "creation": {
        "codeDepositCost": "533400",
        "executionCost": "infinite",
        "totalCost": "infinite"
      },
      "external": {
        "controllers(address)": "2595",
        "migrateNames(address,uint256[],bytes)": "infinite",
        "migrateWrappedNames(address,uint256[],bytes)": "infinite",
        "migrationTarget()": "2371",
        "owner()": "2385",
        "registrar()": "infinite",
        "renounceOwnership()": "infinite",
        "setController(address,bool)": "28315",
        "setMigrationTarget(address)": "27903",
        "transferOwnership(address)": "28361",
        "wrapper()": "infinite"
      }
    }
  },
  "storageLayout": {
    "storage": [
      {
        "astId": 41649,
        "contract": "project/lib/ens-contracts/contracts/utils/MigrationHelper.sol:MigrationHelper",
        "label": "_owner",
        "offset": 0,
        "slot": "0",
        "type": "t_address"
      },
      {
        "astId": 26731,
        "contract": "project/lib/ens-contracts/contracts/utils/MigrationHelper.sol:MigrationHelper",
        "label": "controllers",
        "offset": 0,
        "slot": "1",
        "type": "t_mapping(t_address,t_bool)"
      },
      {
        "astId": 22533,
        "contract": "project/lib/ens-contracts/contracts/utils/MigrationHelper.sol:MigrationHelper",
        "label": "migrationTarget",
        "offset": 0,
        "slot": "2",
        "type": "t_address"
      }
    ],
    "types": {
      "t_address": {
        "encoding": "inplace",
        "label": "address",
        "numberOfBytes": "20"
      },
      "t_bool": {
        "encoding": "inplace",
        "label": "bool",
        "numberOfBytes": "1"
      },
      "t_mapping(t_address,t_bool)": {
        "encoding": "mapping",
        "key": "t_address",
        "label": "mapping(address => bool)",
        "numberOfBytes": "32",
        "value": "t_bool"
      }
    }
  },
  "userdoc": {
    "kind": "user",
    "methods": {},
    "version": 1
  },
  "argsData": "0x0000000000000000000000009d4454b023096f34b160d6b654540c56a1f81688000000000000000000000000b7278a61aa25c888815afc32ad3cc52ff24fe575",
  "transaction": {
    "hash": "0xad8a41a3dc5a132117d716eff8564a957b63bc30b3b6a262671eb5b16a703f9c",
    "nonce": "0x53",
    "origin": "0xf39fd6e51aad88f6f4ce6ab8827279cfffb92266"
  }
}