{
  "address": "0xb7278a61aa25c888815afc32ad3cc52ff24fe575",
  "abi": [
    {
      "inputs": [
        {
          "internalType": "contract ENS",
          "name": "_ens",
          "type": "address"
        },
        {
          "internalType": "contract IBaseRegistrar",
          "name": "_registrar",
          "type": "address"
        },
        {
          "internalType": "contract IMetadataService",
          "name": "_metadataService",
          "type": "address"
        }
      ],
      "stateMutability": "nonpayable",
      "type": "constructor"
    },
    {
      "inputs": [],
      "name": "CannotUpgrade",
      "type": "error"
    },
    {
      "inputs": [],
      "name": "IncompatibleParent",
      "type": "error"
    },
    {
      "inputs": [
        {
          "internalType": "address",
          "name": "owner",
          "type": "address"
        }
      ],
      "name": "IncorrectTargetOwner",
      "type": "error"
    },
    {
      "inputs": [],
      "name": "IncorrectTokenType",
      "type": "error"
    },
    {
      "inputs": [
        {
          "internalType": "bytes32",
          "name": "labelHash",
          "type": "bytes32"
        },
        {
          "internalType": "bytes32",
          "name": "expectedLabelhash",
          "type": "bytes32"
        }
      ],
      "name": "LabelMismatch",
      "type": "error"
    },
    {
      "inputs": [
        {
          "internalType": "string",
          "name": "label",
          "type": "string"
        }
      ],
      "name": "LabelTooLong",
      "type": "error"
    },
    {
      "inputs": [],
      "name": "LabelTooShort",
      "type": "error"
    },
    {
      "inputs": [],
      "name": "NameIsNotWrapped",
      "type": "error"
    },
    {
      "inputs": [
        {
          "internalType": "uint256",
          "name": "offset",
          "type": "uint256"
        },
        {
          "internalType": "uint256",
          "name": "length",
          "type": "uint256"
        }
      ],
      "name": "OffsetOutOfBoundsError",
      "type": "error"
    },
    {
      "inputs": [
        {
          "internalType": "bytes32",
          "name": "node",
          "type": "bytes32"
        }
      ],
      "name": "OperationProhibited",
      "type": "error"
    },
    {
      "inputs": [
        {
          "internalType": "bytes32",
          "name": "node",
          "type": "bytes32"
        },
        {
          "internalType": "address",
          "name": "addr",
          "type": "address"
        }
      ],
      "name": "Unauthorised",
      "type": "error"
    },
    {
      "anonymous": false,
      "inputs": [
        {
          "indexed": true,
          "internalType": "address",
          "name": "owner",
          "type": "address"
        },
        {
          "indexed": true,
          "internalType": "address",
          "name": "approved",
          "type": "address"
        },
        {
          "indexed": true,
          "internalType": "uint256",
          "name": "tokenId",
          "type": "uint256"
        }
      ],
      "name": "Approval",
      "type": "event"
    },
    {
      "anonymous": false,
      "inputs": [
        {
          "indexed": true,
          "internalType": "address",
          "name": "account",
          "type": "address"
        },
        {
          "indexed": true,
          "internalType": "address",
          "name": "operator",
          "type": "address"
        },
        {
          "indexed": false,
          "internalType": "bool",
          "name": "approved",
          "type": "bool"
        }
      ],
      "name": "ApprovalForAll",
      "type": "event"
    },
    {
      "anonymous": false,
      "inputs": [
        {
          "indexed": true,
          "internalType": "address",
          "name": "controller",
          "type": "address"
        },
        {
          "indexed": false,
          "internalType": "bool",
          "name": "active",
          "type": "bool"
        }
      ],
      "name": "ControllerChanged",
      "type": "event"
    },
    {
      "anonymous": false,
      "inputs": [
        {
          "indexed": true,
          "internalType": "bytes32",
          "name": "node",
          "type": "bytes32"
        },
        {
          "indexed": false,
          "internalType": "uint64",
          "name": "expiry",
          "type": "uint64"
        }
      ],
      "name": "ExpiryExtended",
      "type": "event"
    },
    {
      "anonymous": false,
      "inputs": [
        {
          "indexed": true,
          "internalType": "bytes32",
          "name": "node",
          "type": "bytes32"
        },
        {
          "indexed": false,
          "internalType": "uint32",
          "name": "fuses",
          "type": "uint32"
        }
      ],
      "name": "FusesSet",
      "type": "event"
    },
    {
      "anonymous": false,
      "inputs": [
        {
          "indexed": true,
          "internalType": "bytes32",
          "name": "node",
          "type": "bytes32"
        },
        {
          "indexed": false,
          "internalType": "address",
          "name": "owner",
          "type": "address"
        }
      ],
      "name": "NameUnwrapped",
      "type": "event"
    },
    {
      "anonymous": false,
      "inputs": [
        {
          "indexed": true,
          "internalType": "bytes32",
          "name": "node",
          "type": "bytes32"
        },
        {
          "indexed": false,
          "internalType": "bytes",
          "name": "name",
          "type": "bytes"
        },
        {
          "indexed": false,
          "internalType": "address",
          "name": "owner",
          "type": "address"
        },
        {
          "indexed": false,
          "internalType": "uint32",
          "name": "fuses",
          "type": "uint32"
        },
        {
          "indexed": false,
          "internalType": "uint64",
          "name": "expiry",
          "type": "uint64"
        }
      ],
      "name": "NameWrapped",
      "type": "event"
    },
    {
      "anonymous": false,
      "inputs": [
        {
          "indexed": true,
          "internalType": "address",
          "name": "previousOwner",
          "type": "address"
        },
        {
          "indexed": true,
          "internalType": "address",
          "name": "newOwner",
          "type": "address"
        }
      ],
      "name": "OwnershipTransferred",
      "type": "event"
    },
    {
      "anonymous": false,
      "inputs": [
        {
          "indexed": true,
          "internalType": "address",
          "name": "operator",
          "type": "address"
        },
        {
          "indexed": true,
          "internalType": "address",
          "name": "from",
          "type": "address"
        },
        {
          "indexed": true,
          "internalType": "address",
          "name": "to",
          "type": "address"
        },
        {
          "indexed": false,
          "internalType": "uint256[]",
          "name": "ids",
          "type": "uint256[]"
        },
        {
          "indexed": false,
          "internalType": "uint256[]",
          "name": "values",
          "type": "uint256[]"
        }
      ],
      "name": "TransferBatch",
      "type": "event"
    },
    {
      "anonymous": false,
      "inputs": [
        {
          "indexed": true,
          "internalType": "address",
          "name": "operator",
          "type": "address"
        },
        {
          "indexed": true,
          "internalType": "address",
          "name": "from",
          "type": "address"
        },
        {
          "indexed": true,
          "internalType": "address",
          "name": "to",
          "type": "address"
        },
        {
          "indexed": false,
          "internalType": "uint256",
          "name": "id",
          "type": "uint256"
        },
        {
          "indexed": false,
          "internalType": "uint256",
          "name": "value",
          "type": "uint256"
        }
      ],
      "name": "TransferSingle",
      "type": "event"
    },
    {
      "anonymous": false,
      "inputs": [
        {
          "indexed": false,
          "internalType": "string",
          "name": "value",
          "type": "string"
        },
        {
          "indexed": true,
          "internalType": "uint256",
          "name": "id",
          "type": "uint256"
        }
      ],
      "name": "URI",
      "type": "event"
    },
    {
      "inputs": [
        {
          "internalType": "uint256",
          "name": "",
          "type": "uint256"
        }
      ],
      "name": "_tokens",
      "outputs": [
        {
          "internalType": "uint256",
          "name": "",
          "type": "uint256"
        }
      ],
      "stateMutability": "view",
      "type": "function"
    },
    {
      "inputs": [
        {
          "internalType": "bytes32",
          "name": "node",
          "type": "bytes32"
        },
        {
          "internalType": "uint32",
          "name": "fuseMask",
          "type": "uint32"
        }
      ],
      "name": "allFusesBurned",
      "outputs": [
        {
          "internalType": "bool",
          "name": "",
          "type": "bool"
        }
      ],
      "stateMutability": "view",
      "type": "function"
    },
    {
      "inputs": [
        {
          "internalType": "address",
          "name": "to",
          "type": "address"
        },
        {
          "internalType": "uint256",
          "name": "tokenId",
          "type": "uint256"
        }
      ],
      "name": "approve",
      "outputs": [],
      "stateMutability": "nonpayable",
      "type": "function"
    },
    {
      "inputs": [
        {
          "internalType": "address",
          "name": "account",
          "type": "address"
        },
        {
          "internalType": "uint256",
          "name": "id",
          "type": "uint256"
        }
      ],
      "name": "balanceOf",
      "outputs": [
        {
          "internalType": "uint256",
          "name": "",
          "type": "uint256"
        }
      ],
      "stateMutability": "view",
      "type": "function"
    },
    {
      "inputs": [
        {
          "internalType": "address[]",
          "name": "accounts",
          "type": "address[]"
        },
        {
          "internalType": "uint256[]",
          "name": "ids",
          "type": "uint256[]"
        }
      ],
      "name": "balanceOfBatch",
      "outputs": [
        {
          "internalType": "uint256[]",
          "name": "",
          "type": "uint256[]"
        }
      ],
      "stateMutability": "view",
      "type": "function"
    },
    {
      "inputs": [
        {
          "internalType": "bytes32",
          "name": "node",
          "type": "bytes32"
        },
        {
          "internalType": "address",
          "name": "addr",
          "type": "address"
        }
      ],
      "name": "canExtendSubnames",
      "outputs": [
        {
          "internalType": "bool",
          "name": "",
          "type": "bool"
        }
      ],
      "stateMutability": "view",
      "type": "function"
    },
    {
      "inputs": [
        {
          "internalType": "bytes32",
          "name": "node",
          "type": "bytes32"
        },
        {
          "internalType": "address",
          "name": "addr",
          "type": "address"
        }
      ],
      "name": "canModifyName",
      "outputs": [
        {
          "internalType": "bool",
          "name": "",
          "type": "bool"
        }
      ],
      "stateMutability": "view",
      "type": "function"
    },
    {
      "inputs": [
        {
          "internalType": "address",
          "name": "",
          "type": "address"
        }
      ],
      "name": "controllers",
      "outputs": [
        {
          "internalType": "bool",
          "name": "",
          "type": "bool"
        }
      ],
      "stateMutability": "view",
      "type": "function"
    },
    {
      "inputs": [],
      "name": "ens",
      "outputs": [
        {
          "internalType": "contract ENS",
          "name": "",
          "type": "address"
        }
      ],
      "stateMutability": "view",
      "type": "function"
    },
    {
      "inputs": [
        {
          "internalType": "bytes32",
          "name": "parentNode",
          "type": "bytes32"
        },
        {
          "internalType": "bytes32",
          "name": "labelhash",
          "type": "bytes32"
        },
        {
          "internalType": "uint64",
          "name": "expiry",
          "type": "uint64"
        }
      ],
      "name": "extendExpiry",
      "outputs": [
        {
          "internalType": "uint64",
          "name": "",
          "type": "uint64"
        }
      ],
      "stateMutability": "nonpayable",
      "type": "function"
    },
    {
      "inputs": [
        {
          "internalType": "uint256",
          "name": "id",
          "type": "uint256"
        }
      ],
      "name": "getApproved",
      "outputs": [
        {
          "internalType": "address",
          "name": "operator",
          "type": "address"
        }
      ],
      "stateMutability": "view",
      "type": "function"
    },
    {
      "inputs": [
        {
          "internalType": "uint256",
          "name": "id",
          "type": "uint256"
        }
      ],
      "name": "getData",
      "outputs": [
        {
          "internalType": "address",
          "name": "owner",
          "type": "address"
        },
        {
          "internalType": "uint32",
          "name": "fuses",
          "type": "uint32"
        },
        {
          "internalType": "uint64",
          "name": "expiry",
          "type": "uint64"
        }
      ],
      "stateMutability": "view",
      "type": "function"
    },
    {
      "inputs": [
        {
          "internalType": "address",
          "name": "account",
          "type": "address"
        },
        {
          "internalType": "address",
          "name": "operator",
          "type": "address"
        }
      ],
      "name": "isApprovedForAll",
      "outputs": [
        {
          "internalType": "bool",
          "name": "",
          "type": "bool"
        }
      ],
      "stateMutability": "view",
      "type": "function"
    },
    {
      "inputs": [
        {
          "internalType": "bytes32",
          "name": "parentNode",
          "type": "bytes32"
        },
        {
          "internalType": "bytes32",
          "name": "labelhash",
          "type": "bytes32"
        }
      ],
      "name": "isWrapped",
      "outputs": [
        {
          "internalType": "bool",
          "name": "",
          "type": "bool"
        }
      ],
      "stateMutability": "view",
      "type": "function"
    },
    {
      "inputs": [
        {
          "internalType": "bytes32",
          "name": "node",
          "type": "bytes32"
        }
      ],
      "name": "isWrapped",
      "outputs": [
        {
          "internalType": "bool",
          "name": "",
          "type": "bool"
        }
      ],
      "stateMutability": "view",
      "type": "function"
    },
    {
      "inputs": [],
      "name": "metadataService",
      "outputs": [
        {
          "internalType": "contract IMetadataService",
          "name": "",
          "type": "address"
        }
      ],
      "stateMutability": "view",
      "type": "function"
    },
    {
      "inputs": [],
      "name": "name",
      "outputs": [
        {
          "internalType": "string",
          "name": "",
          "type": "string"
        }
      ],
      "stateMutability": "view",
      "type": "function"
    },
    {
      "inputs": [
        {
          "internalType": "bytes32",
          "name": "",
          "type": "bytes32"
        }
      ],
      "name": "names",
      "outputs": [
        {
          "internalType": "bytes",
          "name": "",
          "type": "bytes"
        }
      ],
      "stateMutability": "view",
      "type": "function"
    },
    {
      "inputs": [
        {
          "internalType": "address",
          "name": "to",
          "type": "address"
        },
        {
          "internalType": "address",
          "name": "",
          "type": "address"
        },
        {
          "internalType": "uint256",
          "name": "tokenId",
          "type": "uint256"
        },
        {
          "internalType": "bytes",
          "name": "data",
          "type": "bytes"
        }
      ],
      "name": "onERC721Received",
      "outputs": [
        {
          "internalType": "bytes4",
          "name": "",
          "type": "bytes4"
        }
      ],
      "stateMutability": "nonpayable",
      "type": "function"
    },
    {
      "inputs": [],
      "name": "owner",
      "outputs": [
        {
          "internalType": "address",
          "name": "",
          "type": "address"
        }
      ],
      "stateMutability": "view",
      "type": "function"
    },
    {
      "inputs": [
        {
          "internalType": "uint256",
          "name": "id",
          "type": "uint256"
        }
      ],
      "name": "ownerOf",
      "outputs": [
        {
          "internalType": "address",
          "name": "owner",
          "type": "address"
        }
      ],
      "stateMutability": "view",
      "type": "function"
    },
    {
      "inputs": [
        {
          "internalType": "address",
          "name": "_token",
          "type": "address"
        },
        {
          "internalType": "address",
          "name": "_to",
          "type": "address"
        },
        {
          "internalType": "uint256",
          "name": "_amount",
          "type": "uint256"
        }
      ],
      "name": "recoverFunds",
      "outputs": [],
      "stateMutability": "nonpayable",
      "type": "function"
    },
    {
      "inputs": [
        {
          "internalType": "string",
          "name": "label",
          "type": "string"
        },
        {
          "internalType": "address",
          "name": "wrappedOwner",
          "type": "address"
        },
        {
          "internalType": "uint256",
          "name": "duration",
          "type": "uint256"
        },
        {
          "internalType": "address",
          "name": "resolver",
          "type": "address"
        },
        {
          "internalType": "uint16",
          "name": "ownerControlledFuses",
          "type": "uint16"
        }
      ],
      "name": "registerAndWrapETH2LD",
      "outputs": [
        {
          "internalType": "uint256",
          "name": "registrarExpiry",
          "type": "uint256"
        }
      ],
      "stateMutability": "nonpayable",
      "type": "function"
    },
    {
      "inputs": [],
      "name": "registrar",
      "outputs": [
        {
          "internalType": "contract IBaseRegistrar",
          "name": "",
          "type": "address"
        }
      ],
      "stateMutability": "view",
      "type": "function"
    },
    {
      "inputs": [
        {
          "internalType": "uint256",
          "name": "tokenId",
          "type": "uint256"
        },
        {
          "internalType": "uint256",
          "name": "duration",
          "type": "uint256"
        }
      ],
      "name": "renew",
      "outputs": [
        {
          "internalType": "uint256",
          "name": "expires",
          "type": "uint256"
        }
      ],
      "stateMutability": "nonpayable",
      "type": "function"
    },
    {
      "inputs": [],
      "name": "renounceOwnership",
      "outputs": [],
      "stateMutability": "nonpayable",
      "type": "function"
    },
    {
      "inputs": [
        {
          "internalType": "address",
          "name": "from",
          "type": "address"
        },
        {
          "internalType": "address",
          "name": "to",
          "type": "address"
        },
        {
          "internalType": "uint256[]",
          "name": "ids",
          "type": "uint256[]"
        },
        {
          "internalType": "uint256[]",
          "name": "amounts",
          "type": "uint256[]"
        },
        {
          "internalType": "bytes",
          "name": "data",
          "type": "bytes"
        }
      ],
      "name": "safeBatchTransferFrom",
      "outputs": [],
      "stateMutability": "nonpayable",
      "type": "function"
    },
    {
      "inputs": [
        {
          "internalType": "address",
          "name": "from",
          "type": "address"
        },
        {
          "internalType": "address",
          "name": "to",
          "type": "address"
        },
        {
          "internalType": "uint256",
          "name": "id",
          "type": "uint256"
        },
        {
          "internalType": "uint256",
          "name": "amount",
          "type": "uint256"
        },
        {
          "internalType": "bytes",
          "name": "data",
          "type": "bytes"
        }
      ],
      "name": "safeTransferFrom",
      "outputs": [],
      "stateMutability": "nonpayable",
      "type": "function"
    },
    {
      "inputs": [
        {
          "internalType": "address",
          "name": "operator",
          "type": "address"
        },
        {
          "internalType": "bool",
          "name": "approved",
          "type": "bool"
        }
      ],
      "name": "setApprovalForAll",
      "outputs": [],
      "stateMutability": "nonpayable",
      "type": "function"
    },
    {
      "inputs": [
        {
          "internalType": "bytes32",
          "name": "parentNode",
          "type": "bytes32"
        },
        {
          "internalType": "bytes32",
          "name": "labelhash",
          "type": "bytes32"
        },
        {
          "internalType": "uint32",
          "name": "fuses",
          "type": "uint32"
        },
        {
          "internalType": "uint64",
          "name": "expiry",
          "type": "uint64"
        }
      ],
      "name": "setChildFuses",
      "outputs": [],
      "stateMutability": "nonpayable",
      "type": "function"
    },
    {
      "inputs": [
        {
          "internalType": "address",
          "name": "controller",
          "type": "address"
        },
        {
          "internalType": "bool",
          "name": "active",
          "type": "bool"
        }
      ],
      "name": "setController",
      "outputs": [],
      "stateMutability": "nonpayable",
      "type": "function"
    },
    {
      "inputs": [
        {
          "internalType": "bytes32",
          "name": "node",
          "type": "bytes32"
        },
        {
          "internalType": "uint16",
          "name": "ownerControlledFuses",
          "type": "uint16"
        }
      ],
      "name": "setFuses",
      "outputs": [
        {
          "internalType": "uint32",
          "name": "",
          "type": "uint32"
        }
      ],
      "stateMutability": "nonpayable",
      "type": "function"
    },
    {
      "inputs": [
        {
          "internalType": "contract IMetadataService",
          "name": "_metadataService",
          "type": "address"
        }
      ],
      "name": "setMetadataService",
      "outputs": [],
      "stateMutability": "nonpayable",
      "type": "function"
    },
    {
      "inputs": [
        {
          "internalType": "bytes32",
          "name": "node",
          "type": "bytes32"
        },
        {
          "internalType": "address",
          "name": "owner",
          "type": "address"
        },
        {
          "internalType": "address",
          "name": "resolver",
          "type": "address"
        },
        {
          "internalType": "uint64",
          "name": "ttl",
          "type": "uint64"
        }
      ],
      "name": "setRecord",
      "outputs": [],
      "stateMutability": "nonpayable",
      "type": "function"
    },
    {
      "inputs": [
        {
          "internalType": "bytes32",
          "name": "node",
          "type": "bytes32"
        },
        {
          "internalType": "address",
          "name": "resolver",
          "type": "address"
        }
      ],
      "name": "setResolver",
      "outputs": [],
      "stateMutability": "nonpayable",
      "type": "function"
    },
    {
      "inputs": [
        {
          "internalType": "bytes32",
          "name": "parentNode",
          "type": "bytes32"
        },
        {
          "internalType": "string",
          "name": "label",
          "type": "string"
        },
        {
          "internalType": "address",
          "name": "owner",
          "type": "address"
        },
        {
          "internalType": "uint32",
          "name": "fuses",
          "type": "uint32"
        },
        {
          "internalType": "uint64",
          "name": "expiry",
          "type": "uint64"
        }
      ],
      "name": "setSubnodeOwner",
      "outputs": [
        {
          "internalType": "bytes32",
          "name": "node",
          "type": "bytes32"
        }
      ],
      "stateMutability": "nonpayable",
      "type": "function"
    },
    {
      "inputs": [
        {
          "internalType": "bytes32",
          "name": "parentNode",
          "type": "bytes32"
        },
        {
          "internalType": "string",
          "name": "label",
          "type": "string"
        },
        {
          "internalType": "address",
          "name": "owner",
          "type": "address"
        },
        {
          "internalType": "address",
          "name": "resolver",
          "type": "address"
        },
        {
          "internalType": "uint64",
          "name": "ttl",
          "type": "uint64"
        },
        {
          "internalType": "uint32",
          "name": "fuses",
          "type": "uint32"
        },
        {
          "internalType": "uint64",
          "name": "expiry",
          "type": "uint64"
        }
      ],
      "name": "setSubnodeRecord",
      "outputs": [
        {
          "internalType": "bytes32",
          "name": "node",
          "type": "bytes32"
        }
      ],
      "stateMutability": "nonpayable",
      "type": "function"
    },
    {
      "inputs": [
        {
          "internalType": "bytes32",
          "name": "node",
          "type": "bytes32"
        },
        {
          "internalType": "uint64",
          "name": "ttl",
          "type": "uint64"
        }
      ],
      "name": "setTTL",
      "outputs": [],
      "stateMutability": "nonpayable",
      "type": "function"
    },
    {
      "inputs": [
        {
          "internalType": "contract INameWrapperUpgrade",
          "name": "_upgradeAddress",
          "type": "address"
        }
      ],
      "name": "setUpgradeContract",
      "outputs": [],
      "stateMutability": "nonpayable",
      "type": "function"
    },
    {
      "inputs": [
        {
          "internalType": "bytes4",
          "name": "interfaceId",
          "type": "bytes4"
        }
      ],
      "name": "supportsInterface",
      "outputs": [
        {
          "internalType": "bool",
          "name": "",
          "type": "bool"
        }
      ],
      "stateMutability": "view",
      "type": "function"
    },
    {
      "inputs": [
        {
          "internalType": "address",
          "name": "newOwner",
          "type": "address"
        }
      ],
      "name": "transferOwnership",
      "outputs": [],
      "stateMutability": "nonpayable",
      "type": "function"
    },
    {
      "inputs": [
        {
          "internalType": "bytes32",
          "name": "parentNode",
          "type": "bytes32"
        },
        {
          "internalType": "bytes32",
          "name": "labelhash",
          "type": "bytes32"
        },
        {
          "internalType": "address",
          "name": "controller",
          "type": "address"
        }
      ],
      "name": "unwrap",
      "outputs": [],
      "stateMutability": "nonpayable",
      "type": "function"
    },
    {
      "inputs": [
        {
          "internalType": "bytes32",
          "name": "labelhash",
          "type": "bytes32"
        },
        {
          "internalType": "address",
          "name": "registrant",
          "type": "address"
        },
        {
          "internalType": "address",
          "name": "controller",
          "type": "address"
        }
      ],
      "name": "unwrapETH2LD",
      "outputs": [],
      "stateMutability": "nonpayable",
      "type": "function"
    },
    {
      "inputs": [
        {
          "internalType": "bytes",
          "name": "name",
          "type": "bytes"
        },
        {
          "internalType": "bytes",
          "name": "extraData",
          "type": "bytes"
        }
      ],
      "name": "upgrade",
      "outputs": [],
      "stateMutability": "nonpayable",
      "type": "function"
    },
    {
      "inputs": [],
      "name": "upgradeContract",
      "outputs": [
        {
          "internalType": "contract INameWrapperUpgrade",
          "name": "",
          "type": "address"
        }
      ],
      "stateMutability": "view",
      "type": "function"
    },
    {
      "inputs": [
        {
          "internalType": "uint256",
          "name": "tokenId",
          "type": "uint256"
        }
      ],
      "name": "uri",
      "outputs": [
        {
          "internalType": "string",
          "name": "",
          "type": "string"
        }
      ],
      "stateMutability": "view",
      "type": "function"
    },
    {
      "inputs": [
        {
          "internalType": "bytes",
          "name": "name",
          "type": "bytes"
        },
        {
          "internalType": "address",
          "name": "wrappedOwner",
          "type": "address"
        },
        {
          "internalType": "address",
          "name": "resolver",
          "type": "address"
        }
      ],
      "name": "wrap",
      "outputs": [],
      "stateMutability": "nonpayable",
      "type": "function"
    },
    {
      "inputs": [
        {
          "internalType": "string",
          "name": "label",
          "type": "string"
        },
        {
          "internalType": "address",
          "name": "wrappedOwner",
          "type": "address"
        },
        {
          "internalType": "uint16",
          "name": "ownerControlledFuses",
          "type": "uint16"
        },
        {
          "internalType": "address",
          "name": "resolver",
          "type": "address"
        }
      ],
      "name": "wrapETH2LD",
      "outputs": [
        {
          "internalType": "uint64",
          "name": "expiry",
          "type": "uint64"
        }
      ],
      "stateMutability": "nonpayable",
      "type": "function"
    }
  ],
  "contractName": "NameWrapper",
  "sourceName": "lib/ens-contracts/contracts/wrapper/NameWrapper.sol",
  "bytecode": "0x60c060405234801561000f575f80fd5b506040516162e33803806162e383398101604081905261002e916102da565b823361003981610274565b6040516302571be360e01b81527f91d1777781884d03a6757a803996e38de2a42967fb37eeaca72729271025a9e260048201525f906001600160a01b038416906302571be390602401602060405180830381865afa15801561009d573d5f803e3d5ffd5b505050506040513d601f19601f820116820180604052508101906100c19190610324565b604051630f41a04d60e11b81526001600160a01b03848116600483015291925090821690631e83409a906024016020604051808303815f875af115801561010a573d5f803e3d5ffd5b505050506040513d601f19601f8201168201806040525081019061012e9190610346565b505050506001600160a01b0383811660805282811660a052600580546001600160a01b031916918316919091179055600163fffeffff60a01b03197fafa26c20e8b3d9a2853d642cfe1021dae26242ffedfac91c97aab212c1a4b93b8190557fa6eef7e35abe7026729641147f7915573c7e97b47efa546f5f6e3230263bcb495560408051808201909152600181525f6020808301829052908052600690527f54cdd369e4e8a8515e52ca72ec816c2101831ad1f18bf44102ed171459c9b4f8906101f990826103f5565b506040805180820190915260058152626cae8d60e31b6020808301919091527f93cdeb708b7545dc668eb9280176169d1c33cfd8ed6f04690a0bcc88a93fc4ae5f52600690527ffb9e8e321b8a5ec48f12a7b41f22c6e595d761285c9eb19d8dda7c99edf1b54f9061026b90826103f5565b505050506104b4565b5f80546001600160a01b038381166001600160a01b0319831681178455604051919092169283917f8be0079c531659141344cd1fd0a4f28419497f9722a3daafe3b4186f6b6457e09190a35050565b6001600160a01b03811681146102d7575f80fd5b50565b5f805f606084860312156102ec575f80fd5b83516102f7816102c3565b6020850151909350610308816102c3565b6040850151909250610319816102c3565b809150509250925092565b5f60208284031215610334575f80fd5b815161033f816102c3565b9392505050565b5f60208284031215610356575f80fd5b5051919050565b634e487b7160e01b5f52604160045260245ffd5b600181811c9082168061038557607f821691505b6020821081036103a357634e487b7160e01b5f52602260045260245ffd5b50919050565b601f8211156103f057805f5260205f20601f840160051c810160208510156103ce5750805b601f840160051c820191505b818110156103ed575f81556001016103da565b50505b505050565b81516001600160401b0381111561040e5761040e61035d565b6104228161041c8454610371565b846103a9565b602080601f831160018114610455575f841561043e5750858301515b5f19600386901b1c1916600185901b1785556104ac565b5f85815260208120601f198616915b8281101561048357888601518255948401946001909101908401610464565b50858210156104a057878501515f19600388901b60f8161c191681555b505060018460011b0185555b505050505050565b60805160a051615d276105bc5f395f81816104f401528181610be901528181610cc201528181610d4601528181611bf901528181611c8801528181611d3401528181611e5401528181611ec501528181611f40015281816121bc015281816122f201528181612419015281816125f1015281816126740152612e8501525f818161054101528181610b7501528181610ea101528181611051015281816110fe0152818161150301528181612371015281816124990152818161271f0152818161290e01528181612c0c015281816130a601528181613152015281816132190152818161328d015281816138d2015281816139e501528181613c40015261426c0152615d275ff3fe608060405234801561000f575f80fd5b506004361061030e575f3560e01c80636352211e1161019d578063c93ab3fd116100e8578063e985e9c511610093578063f242432a1161006e578063f242432a146107c1578063f2fde38b146107d4578063fd0cd0d9146107e7575f80fd5b8063e985e9c514610754578063eb8ae5301461078f578063ed70554d146107a2575f80fd5b8063d9a50c12116100c3578063d9a50c121461070c578063da8c229e1461071f578063e0dba60f14610741575f80fd5b8063c93ab3fd146106d3578063cf408823146106e6578063d8c9921a146106f9575f80fd5b8063a22cb46511610148578063b6bcad2611610123578063b6bcad261461069a578063c475abff146106ad578063c658e086146106c0575f80fd5b8063a22cb46514610661578063a401498214610674578063adf4960a14610687575f80fd5b80638b4dfa75116101785780638b4dfa751461062b5780638cf8b41e1461063e5780638da5cb5b14610651575f80fd5b80636352211e146105e45780636e5d6ad2146105f7578063715018a614610623575f80fd5b80631f4e15041161025d5780633f15457f116102085780634e1273f4116101e35780634e1273f41461059e57806353095467146105be5780635d3590d5146105d1575f80fd5b80633f15457f1461053c578063402906fc1461056357806341415eab1461058b575f80fd5b80632b20e397116102385780632b20e397146104ef5780632eb2c2d61461051657806333c69ea914610529575f80fd5b80631f4e1504146104b657806320c38e2b146104c957806324c1af44146104dc575f80fd5b80630e4cd725116102bd578063150b7a0211610298578063150b7a02146104645780631534e177146104905780631896f70a146104a3575f80fd5b80630e4cd7251461042b5780630e89341c1461043e57806314ab903814610451575f80fd5b806306fdde03116102ed57806306fdde03146103a2578063081812fc146103eb578063095ea7b314610416575f80fd5b8062fdd58e146103125780630178fe3f1461033857806301ffc9a71461037f575b5f80fd5b610325610320366004614c2c565b6107fa565b6040519081526020015b60405180910390f35b61034b610346366004614c56565b6108b6565b604080516001600160a01b03909416845263ffffffff909216602084015267ffffffffffffffff169082015260600161032f565b61039261038d366004614c82565b6108e5565b604051901515815260200161032f565b6103de6040518060400160405280600b81526020017f4e616d655772617070657200000000000000000000000000000000000000000081525081565b60405161032f9190614ccb565b6103fe6103f9366004614c56565b61093d565b6040516001600160a01b03909116815260200161032f565b610429610424366004614c2c565b61097f565b005b610392610439366004614cdd565b6109c4565b6103de61044c366004614c56565b610a5c565b61042961045f366004614d27565b610aca565b610477610472366004614d96565b610bdd565b6040516001600160e01b0319909116815260200161032f565b61042961049e366004614e04565b610de5565b6104296104b1366004614cdd565b610e0f565b6007546103fe906001600160a01b031681565b6103de6104d7366004614c56565b610ed0565b6103256104ea366004614ef2565b610f67565b6103fe7f000000000000000000000000000000000000000000000000000000000000000081565b610429610524366004615015565b611170565b6104296105373660046150bc565b61148d565b6103fe7f000000000000000000000000000000000000000000000000000000000000000081565b610576610571366004615110565b61167e565b60405163ffffffff909116815260200161032f565b610392610599366004614cdd565b61171d565b6105b16105ac366004615131565b611778565b60405161032f9190615228565b6005546103fe906001600160a01b031681565b6104296105df36600461523a565b6118ac565b6103fe6105f2366004614c56565b611943565b61060a610605366004615278565b61194d565b60405167ffffffffffffffff909116815260200161032f565b610429611a9e565b6104296106393660046152aa565b611ab1565b61060a61064c3660046152e9565b611c56565b5f546001600160a01b03166103fe565b61042961066f36600461536c565b61200f565b610325610682366004615398565b6120f8565b610392610695366004615414565b61228d565b6104296106a8366004614e04565b6122b1565b6103256106bb366004615435565b6124f3565b6103256106ce366004615455565b6127e0565b6104296106e13660046154c3565b6129e5565b6104296106f436600461552a565b612b4b565b61042961070736600461555f565b612cf9565b61039261071a366004615435565b612e09565b61039261072d366004614e04565b60046020525f908152604090205460ff1681565b61042961074f36600461536c565b612f13565b61039261076236600461558a565b6001600160a01b039182165f90815260026020908152604080832093909416825291909152205460ff1690565b61042961079d3660046155b6565b612f7a565b6103256107b0366004614c56565b60016020525f908152604090205481565b6104296107cf36600461561a565b61332e565b6104296107e2366004614e04565b61344a565b6103926107f5366004614c56565b6134d7565b5f6001600160a01b03831661087c5760405162461bcd60e51b815260206004820152602b60248201527f455243313135353a2062616c616e636520717565727920666f7220746865207a60448201527f65726f206164647265737300000000000000000000000000000000000000000060648201526084015b60405180910390fd5b5f61088683611943565b9050836001600160a01b0316816001600160a01b0316036108ab5760019150506108b0565b5f9150505b92915050565b5f8181526001602052604090205460a081901c60c082901c6108d98383836135a8565b90959094509092509050565b5f6001600160e01b031982167fd82c42d800000000000000000000000000000000000000000000000000000000148061092e57506001600160e01b03198216630a85bd0160e11b145b806108b057506108b0826135dc565b5f8061094883611943565b90506001600160a01b03811661096057505f92915050565b5f838152600360205260409020546001600160a01b03165b9392505050565b5f610989826108b6565b50915050603f1960408216016109b55760405163a2a7201360e01b815260048101839052602401610873565b6109bf838361365d565b505050565b5f8080806109d1866108b6565b925092509250846001600160a01b0316836001600160a01b03161480610a1b57506001600160a01b038084165f9081526002602090815260408083209389168352929052205460ff165b80610a3f57506001600160a01b038516610a348761093d565b6001600160a01b0316145b8015610a525750610a5082826137a5565b155b9695505050505050565b6005546040516303a24d0760e21b8152600481018390526060916001600160a01b031690630e89341c906024015f60405180830381865afa158015610aa3573d5f803e3d5ffd5b505050506040513d5f823e601f3d908101601f191682016040526108b0919081019061567e565b81610ad5813361171d565b610afb5760405163168ab55d60e31b815260048101829052336024820152604401610873565b8260105f610b08836108b6565b5091505063ffffffff8282161615610b365760405163a2a7201360e01b815260048101849052602401610873565b6040517f14ab90380000000000000000000000000000000000000000000000000000000081526004810187905267ffffffffffffffff861660248201527f00000000000000000000000000000000000000000000000000000000000000006001600160a01b0316906314ab9038906044015b5f604051808303815f87803b158015610bbf575f80fd5b505af1158015610bd1573d5f803e3d5ffd5b50505050505050505050565b5f336001600160a01b037f00000000000000000000000000000000000000000000000000000000000000001614610c40576040517f1931a53800000000000000000000000000000000000000000000000000000000815260040160405180910390fd5b5f808080610c50868801886156fe565b83516020850120939750919550935091508890808214610ca6576040517fc65c3ccc0000000000000000000000000000000000000000000000000000000081526004810182905260248101839052604401610873565b604051630a3b53db60e21b8152600481018390523060248201527f00000000000000000000000000000000000000000000000000000000000000006001600160a01b0316906328ed4f6c906044015f604051808303815f87803b158015610d0b575f80fd5b505af1158015610d1d573d5f803e3d5ffd5b5050604051636b727d4360e11b8152600481018d90525f92506276a70091506001600160a01b037f0000000000000000000000000000000000000000000000000000000000000000169063d6e4fa8690602401602060405180830381865afa158015610d8b573d5f803e3d5ffd5b505050506040513d601f19601f82011682018060405250810190610daf9190615762565b610db9919061578d565b9050610dcc87878761ffff1684886137d5565b50630a85bd0160e11b9c9b505050505050505050505050565b610ded613933565b600580546001600160a01b0319166001600160a01b0392909216919091179055565b81610e1a813361171d565b610e405760405163168ab55d60e31b815260048101829052336024820152604401610873565b8260085f610e4d836108b6565b5091505063ffffffff8282161615610e7b5760405163a2a7201360e01b815260048101849052602401610873565b604051630c4b7b8560e11b8152600481018790526001600160a01b0386811660248301527f00000000000000000000000000000000000000000000000000000000000000001690631896f70a90604401610ba8565b60066020525f908152604090208054610ee8906157b5565b80601f0160208091040260200160405190810160405280929190818152602001828054610f14906157b5565b8015610f5f5780601f10610f3657610100808354040283529160200191610f5f565b820191905f5260205f20905b815481529060010190602001808311610f4257829003601f168201915b505050505081565b5f87610f73813361171d565b610f995760405163168ab55d60e31b815260048101829052336024820152604401610873565b87516020890120610fd18a82604080516020808201949094528082019290925280518083038201815260609092019052805191012090565b9250610fdd8a8461398c565b610fe78386613ac6565b610ff28a848b613af9565b50610fff8a848787613bc0565b935061100a83613c03565b6110bb576040516305ef2c7f60e41b8152600481018b9052602481018290523060448201526001600160a01b03888116606483015267ffffffffffffffff881660848301527f00000000000000000000000000000000000000000000000000000000000000001690635ef2c7f09060a4015f604051808303815f87803b158015611092575f80fd5b505af11580156110a4573d5f803e3d5ffd5b505050506110b68a848b8b8989613cb9565b611163565b6040516305ef2c7f60e41b8152600481018b9052602481018290523060448201526001600160a01b03888116606483015267ffffffffffffffff881660848301527f00000000000000000000000000000000000000000000000000000000000000001690635ef2c7f09060a4015f604051808303815f87803b15801561113f575f80fd5b505af1158015611151573d5f803e3d5ffd5b505050506111638a848b8b8989613cef565b5050979650505050505050565b81518351146111e75760405162461bcd60e51b815260206004820152602860248201527f455243313135353a2069647320616e6420616d6f756e7473206c656e6774682060448201527f6d69736d617463680000000000000000000000000000000000000000000000006064820152608401610873565b6001600160a01b03841661124b5760405162461bcd60e51b815260206004820152602560248201527f455243313135353a207472616e7366657220746f20746865207a65726f206164604482015264647265737360d81b6064820152608401610873565b6001600160a01b03851633148061128457506001600160a01b0385165f90815260026020908152604080832033845290915290205460ff165b6112f65760405162461bcd60e51b815260206004820152603260248201527f455243313135353a207472616e736665722063616c6c6572206973206e6f742060448201527f6f776e6572206e6f7220617070726f76656400000000000000000000000000006064820152608401610873565b5f5b8351811015611420575f848281518110611314576113146157ed565b602002602001015190505f848381518110611331576113316157ed565b602002602001015190505f805f611347856108b6565b925092509250611358858383613da9565b83600114801561137957508a6001600160a01b0316836001600160a01b0316145b6113d85760405162461bcd60e51b815260206004820152602a60248201527f455243313135353a20696e73756666696369656e742062616c616e636520666f60448201526939103a3930b739b332b960b11b6064820152608401610873565b5f8581526001602052604090206001600160a01b038b1663ffffffff60a01b60a085901b16176001600160c01b031960c084901b1617905550505050508060010190506112f8565b50836001600160a01b0316856001600160a01b0316336001600160a01b03167f4a39dc06d4c0dbc64b70af90fd698a233a518aa5d07e595d983b8c0526c8f7fb8686604051611470929190615801565b60405180910390a4611486338686868686613e94565b5050505050565b604080516020808201879052818301869052825180830384018152606090920190925280519101206114bf8184613ac6565b5f80806114cb846108b6565b919450925090506001600160a01b038316158061157857506040516302571be360e01b81526004810185905230906001600160a01b037f000000000000000000000000000000000000000000000000000000000000000016906302571be390602401602060405180830381865afa158015611548573d5f803e3d5ffd5b505050506040513d601f19601f8201168201806040525081019061156c919061582e565b6001600160a01b031614155b1561159657604051635374b59960e01b815260040160405180910390fd5b5f806115a18a6108b6565b90935091508a90506115e2576115b7863361171d565b6115dd5760405163168ab55d60e31b815260048101879052336024820152604401610873565b611612565b6115ec8a3361171d565b6116125760405163168ab55d60e31b8152600481018b9052336024820152604401610873565b61161d868984614038565b611628878483614073565b96506201000084161580159061164c57508363ffffffff1688851763ffffffff1614155b1561166d5760405163a2a7201360e01b815260048101879052602401610873565b96831796610bd186868a868b6140bc565b5f8261168a813361171d565b6116b05760405163168ab55d60e31b815260048101829052336024820152604401610873565b8360025f6116bd836108b6565b5091505063ffffffff82821616156116eb5760405163a2a7201360e01b815260048101849052602401610873565b5f80806116f78a6108b6565b9250925092506117108a84848c61ffff161784856140bc565b5098975050505050505050565b5f80808061172a866108b6565b925092509250846001600160a01b0316836001600160a01b03161480610a3f57506001600160a01b038084165f9081526002602090815260408083209389168352929052205460ff16610a3f565b606081518351146117f15760405162461bcd60e51b815260206004820152602960248201527f455243313135353a206163636f756e747320616e6420696473206c656e67746860448201527f206d69736d6174636800000000000000000000000000000000000000000000006064820152608401610873565b5f835167ffffffffffffffff81111561180c5761180c614e1f565b604051908082528060200260200182016040528015611835578160200160208202803683370190505b5090505f5b84518110156118a45761187f858281518110611858576118586157ed565b6020026020010151858381518110611872576118726157ed565b60200260200101516107fa565b828281518110611891576118916157ed565b602090810291909101015260010161183a565b509392505050565b6118b4613933565b6040517fa9059cbb0000000000000000000000000000000000000000000000000000000081526001600160a01b0383811660048301526024820183905284169063a9059cbb906044016020604051808303815f875af1158015611919573d5f803e3d5ffd5b505050506040513d601f19601f8201168201806040525081019061193d9190615849565b50505050565b5f6108b082614166565b604080516020808201869052818301859052825180830384018152606090920190925280519101205f9061198081613c03565b61199d57604051635374b59960e01b815260040160405180910390fd5b5f6119a886336109c4565b9050801580156119bf57506119bd823361171d565b155b156119e65760405163168ab55d60e31b815260048101839052336024820152604401610873565b5f80806119f2856108b6565b92509250925083158015611a095750620400008216155b15611a2a5760405163a2a7201360e01b815260048101869052602401610873565b5f611a348a6108b6565b92505050611a43888383614073565b9750611a518685858b61417b565b60405167ffffffffffffffff8916815286907ff675815a0817338f93a7da433f6bd5f5542f1029b11b455191ac96c7f6a9b1329060200160405180910390a2509598975050505050505050565b611aa6613933565b611aaf5f6141c2565b565b604080517f93cdeb708b7545dc668eb9280176169d1c33cfd8ed6f04690a0bcc88a93fc4ae60208083019190915281830186905282518083038401815260609092019092528051910120611b05813361171d565b611b2b5760405163168ab55d60e31b815260048101829052336024820152604401610873565b306001600160a01b03841603611b5f57604051632ca49b0d60e11b81526001600160a01b0384166004820152602401610873565b604080517f93cdeb708b7545dc668eb9280176169d1c33cfd8ed6f04690a0bcc88a93fc4ae60208083019190915281830187905282518083038401815260609092019092528051910120611bb4905b83614211565b6040517f42842e0e0000000000000000000000000000000000000000000000000000000081523060048201526001600160a01b038481166024830152604482018690527f000000000000000000000000000000000000000000000000000000000000000016906342842e0e906064015f604051808303815f87803b158015611c3a575f80fd5b505af1158015611c4c573d5f803e3d5ffd5b5050505050505050565b5f808686604051611c68929190615864565b6040519081900381206331a9108f60e11b82526004820181905291505f907f00000000000000000000000000000000000000000000000000000000000000006001600160a01b031690636352211e90602401602060405180830381865afa158015611cd5573d5f803e3d5ffd5b505050506040513d601f19601f82011682018060405250810190611cf9919061582e565b90506001600160a01b0381163314801590611d9f575060405163e985e9c560e01b81526001600160a01b0382811660048301523360248301527f0000000000000000000000000000000000000000000000000000000000000000169063e985e9c590604401602060405180830381865afa158015611d79573d5f803e3d5ffd5b505050506040513d601f19601f82011682018060405250810190611d9d9190615849565b155b15611e0f57604080517f93cdeb708b7545dc668eb9280176169d1c33cfd8ed6f04690a0bcc88a93fc4ae6020808301919091528183018590528251808303840181526060830193849052805191012063168ab55d60e31b909252606481019190915233608482015260a401610873565b6040517f23b872dd0000000000000000000000000000000000000000000000000000000081526001600160a01b038281166004830152306024830152604482018490527f000000000000000000000000000000000000000000000000000000000000000016906323b872dd906064015f604051808303815f87803b158015611e95575f80fd5b505af1158015611ea7573d5f803e3d5ffd5b5050604051630a3b53db60e21b8152600481018590523060248201527f00000000000000000000000000000000000000000000000000000000000000006001600160a01b031692506328ed4f6c91506044015f604051808303815f87803b158015611f10575f80fd5b505af1158015611f22573d5f803e3d5ffd5b5050604051636b727d4360e11b8152600481018590526276a70092507f00000000000000000000000000000000000000000000000000000000000000006001600160a01b0316915063d6e4fa8690602401602060405180830381865afa158015611f8e573d5f803e3d5ffd5b505050506040513d601f19601f82011682018060405250810190611fb29190615762565b611fbc919061578d565b925061200488888080601f0160208091040260200160405190810160405280939291908181526020018383808284375f920191909152508a9250505061ffff881686886137d5565b505095945050505050565b6001600160a01b038216330361208d5760405162461bcd60e51b815260206004820152602960248201527f455243313135353a2073657474696e6720617070726f76616c2073746174757360448201527f20666f722073656c6600000000000000000000000000000000000000000000006064820152608401610873565b335f8181526002602090815260408083206001600160a01b03871680855290835292819020805460ff191686151590811790915590519081529192917f17307eab39ab6107e8899845ad3d59bd9653f200f220920489ca2b5937696c31910160405180910390a35050565b335f9081526004602052604081205460ff166121675760405162461bcd60e51b815260206004820152602860248201527f436f6e74726f6c6c61626c653a2043616c6c6572206973206e6f74206120636f604482015267373a3937b63632b960c11b6064820152608401610873565b5f8787604051612178929190615864565b6040519081900381207ffca247ac000000000000000000000000000000000000000000000000000000008252600482018190523060248301526044820187905291507f00000000000000000000000000000000000000000000000000000000000000006001600160a01b03169063fca247ac906064016020604051808303815f875af115801561220a573d5f803e3d5ffd5b505050506040513d601f19601f8201168201806040525081019061222e9190615762565b915061228288888080601f0160208091040260200160405190810160405280939291908181526020018383808284375f920191909152508a9250505061ffff861661227c6276a7008761578d565b886137d5565b509695505050505050565b5f80612298846108b6565b50841663ffffffff908116908516149250505092915050565b6122b9613933565b6007546001600160a01b0316156123cd5760075460405163a22cb46560e01b81526001600160a01b0391821660048201525f60248201527f00000000000000000000000000000000000000000000000000000000000000009091169063a22cb465906044015f604051808303815f87803b158015612335575f80fd5b505af1158015612347573d5f803e3d5ffd5b505060075460405163a22cb46560e01b81526001600160a01b0391821660048201525f60248201527f0000000000000000000000000000000000000000000000000000000000000000909116925063a22cb46591506044015f604051808303815f87803b1580156123b6575f80fd5b505af11580156123c8573d5f803e3d5ffd5b505050505b600780546001600160a01b0319166001600160a01b038316908117909155156124f05760075460405163a22cb46560e01b81526001600160a01b039182166004820152600160248201527f00000000000000000000000000000000000000000000000000000000000000009091169063a22cb465906044015f604051808303815f87803b15801561245c575f80fd5b505af115801561246e573d5f803e3d5ffd5b505060075460405163a22cb46560e01b81526001600160a01b039182166004820152600160248201527f0000000000000000000000000000000000000000000000000000000000000000909116925063a22cb46591506044015f604051808303815f87803b1580156124de575f80fd5b505af1158015611486573d5f803e3d5ffd5b50565b335f9081526004602052604081205460ff166125625760405162461bcd60e51b815260206004820152602860248201527f436f6e74726f6c6c61626c653a2043616c6c6572206973206e6f74206120636f604482015267373a3937b63632b960c11b6064820152608401610873565b604080517f93cdeb708b7545dc668eb9280176169d1c33cfd8ed6f04690a0bcc88a93fc4ae602080830191909152818301869052825180830384018152606090920190925280519101205f906040517fc475abff00000000000000000000000000000000000000000000000000000000815260048101869052602481018590529091505f906001600160a01b037f0000000000000000000000000000000000000000000000000000000000000000169063c475abff906044016020604051808303815f875af1158015612637573d5f803e3d5ffd5b505050506040513d601f19601f8201168201806040525081019061265b9190615762565b6040516331a9108f60e11b8152600481018790529091507f00000000000000000000000000000000000000000000000000000000000000006001600160a01b031690636352211e90602401602060405180830381865afa9250505080156126df575060408051601f3d908101601f191682019092526126dc9181019061582e565b60015b6126ec5791506108b09050565b6001600160a01b0381163014158061279457506040516302571be360e01b81526004810184905230906001600160a01b037f000000000000000000000000000000000000000000000000000000000000000016906302571be390602401602060405180830381865afa158015612764573d5f803e3d5ffd5b505050506040513d601f19601f82011682018060405250810190612788919061582e565b6001600160a01b031614155b156127a3575091506108b09050565b505f6127b26276a7008361578d565b5f8481526001602052604090205490915060a081901c6127d48583838661417b565b50919695505050505050565b5f866127ec813361171d565b6128125760405163168ab55d60e31b815260048101829052336024820152604401610873565b5f8787604051612823929190615864565b6040518091039020905061285e8982604080516020808201949094528082019290925280518083038201815260609092019052805191012090565b925061286a898461398c565b6128748386613ac6565b5f6128b58a858b8b8080601f0160208091040260200160405190810160405280939291908181526020018383808284375f92019190915250613af992505050565b90506128c38a858888613bc0565b94506128ce84613c03565b612993576040517f06ab5923000000000000000000000000000000000000000000000000000000008152600481018b9052602481018390523060448201527f00000000000000000000000000000000000000000000000000000000000000006001600160a01b0316906306ab5923906064016020604051808303815f875af115801561295c573d5f803e3d5ffd5b505050506040513d601f19601f820116820180604052508101906129809190615762565b5061298e84828989896142fe565b6129d8565b6129d88a858b8b8080601f0160208091040260200160405190810160405280939291908181526020018383808284375f920191909152508d92508c91508b9050613cef565b5050509695505050505050565b5f612a285f86868080601f0160208091040260200160405190810160405280939291908181526020018383808284375f9201919091525092939250506143409050565b6007549091506001600160a01b0316612a6d576040517f24c1d6d400000000000000000000000000000000000000000000000000000000815260040160405180910390fd5b612a77813361171d565b612a9d5760405163168ab55d60e31b815260048101829052336024820152604401610873565b5f8080612aa9846108b6565b919450925090505f612aba8561093d565b9050612ac5856143fc565b60075f9054906101000a90046001600160a01b03166001600160a01b0316639198c2768a8a878787878e8e6040518963ffffffff1660e01b8152600401612b1398979695949392919061589b565b5f604051808303815f87803b158015612b2a575f80fd5b505af1158015612b3c573d5f803e3d5ffd5b50505050505050505050505050565b83612b56813361171d565b612b7c5760405163168ab55d60e31b815260048101829052336024820152604401610873565b84601c5f612b89836108b6565b5091505063ffffffff8282161615612bb75760405163a2a7201360e01b815260048101849052602401610873565b6040517fcf408823000000000000000000000000000000000000000000000000000000008152600481018990523060248201526001600160a01b03878116604483015267ffffffffffffffff871660648301527f0000000000000000000000000000000000000000000000000000000000000000169063cf408823906084015f604051808303815f87803b158015612c4d575f80fd5b505af1158015612c5f573d5f803e3d5ffd5b5050506001600160a01b0388169050612cc4575f612c7c896108b6565b509150506201ffff1962020000821601612cb457604051632ca49b0d60e11b81526001600160a01b0389166004820152602401610873565b612cbe895f614211565b50611c4c565b5f612cce89611943565b9050612cee81898b5f1c600160405180602001604052805f8152506144bb565b505050505050505050565b60408051602080820186905281830185905282518083038401815260609092019092528051910120612d2b813361171d565b612d515760405163168ab55d60e31b815260048101829052336024820152604401610873565b7f6c32148f748aba23997146d7fe89e962e3cc30271290fb96f5f4337756c03b528401612d915760405163615a470360e01b815260040160405180910390fd5b6001600160a01b0382161580612daf57506001600160a01b03821630145b15612dd857604051632ca49b0d60e11b81526001600160a01b0383166004820152602401610873565b6040805160208082018790528183018690528251808303840181526060909201909252805191012061193d90611bae565b604080516020808201859052818301849052825180830384018152606090920190925280519101205f905f612e3d82613c03565b90507f93cdeb708b7545dc668eb9280176169d1c33cfd8ed6f04690a0bcc88a93fc4ae8514612e6f5791506108b09050565b6040516331a9108f60e11b8152600481018590527f00000000000000000000000000000000000000000000000000000000000000006001600160a01b031690636352211e90602401602060405180830381865afa925050508015612ef0575060408051601f3d908101601f19168201909252612eed9181019061582e565b60015b612efe575f925050506108b0565b6001600160a01b0316301492506108b0915050565b612f1b613933565b6001600160a01b0382165f81815260046020908152604091829020805460ff191685151590811790915591519182527f4c97694570a07277810af7e5669ffd5f6a2d6b74b6e9a274b8b870fd5114cf8791015b60405180910390a25050565b5f80612fbe5f87878080601f0160208091040260200160405190810160405280939291908181526020018383808284375f92019190915250929392505061460a9050565b915091505f6130058288888080601f0160208091040260200160405190810160405280939291908181526020018383808284375f9201919091525092939250506143409050565b604080516020808201849052818301879052825180830384018152606090920190925280519101209091505f905f81815260066020526040902090915061304d888a83615947565b507f6c32148f748aba23997146d7fe89e962e3cc30271290fb96f5f4337756c03b52820161308e5760405163615a470360e01b815260040160405180910390fd5b6040516302571be360e01b8152600481018290525f907f00000000000000000000000000000000000000000000000000000000000000006001600160a01b0316906302571be390602401602060405180830381865afa1580156130f3573d5f803e3d5ffd5b505050506040513d601f19601f82011682018060405250810190613117919061582e565b90506001600160a01b03811633148015906131bd575060405163e985e9c560e01b81526001600160a01b0382811660048301523360248301527f0000000000000000000000000000000000000000000000000000000000000000169063e985e9c590604401602060405180830381865afa158015613197573d5f803e3d5ffd5b505050506040513d601f19601f820116820180604052508101906131bb9190615849565b155b156131e45760405163168ab55d60e31b815260048101839052336024820152604401610873565b6001600160a01b0386161561327157604051630c4b7b8560e11b8152600481018390526001600160a01b0387811660248301527f00000000000000000000000000000000000000000000000000000000000000001690631896f70a906044015f604051808303815f87803b15801561325a575f80fd5b505af115801561326c573d5f803e3d5ffd5b505050505b604051635b0fc9c360e01b8152600481018390523060248201527f00000000000000000000000000000000000000000000000000000000000000006001600160a01b031690635b0fc9c3906044015f604051808303815f87803b1580156132d6575f80fd5b505af11580156132e8573d5f803e3d5ffd5b50505050612cee828a8a8080601f0160208091040260200160405190810160405280939291908181526020018383808284375f9201829052508d935091508190506142fe565b6001600160a01b0384166133925760405162461bcd60e51b815260206004820152602560248201527f455243313135353a207472616e7366657220746f20746865207a65726f206164604482015264647265737360d81b6064820152608401610873565b6001600160a01b0385163314806133cb57506001600160a01b0385165f90815260026020908152604080832033845290915290205460ff165b61343d5760405162461bcd60e51b815260206004820152602960248201527f455243313135353a2063616c6c6572206973206e6f74206f776e6572206e6f7260448201527f20617070726f76656400000000000000000000000000000000000000000000006064820152608401610873565b61148685858585856144bb565b613452613933565b6001600160a01b0381166134ce5760405162461bcd60e51b815260206004820152602660248201527f4f776e61626c653a206e6577206f776e657220697320746865207a65726f206160448201527f64647265737300000000000000000000000000000000000000000000000000006064820152608401610873565b6124f0816141c2565b5f81815260066020526040812080548291906134f2906157b5565b80601f016020809104026020016040519081016040528092919081815260200182805461351e906157b5565b80156135695780601f1061354057610100808354040283529160200191613569565b820191905f5260205f20905b81548152906001019060200180831161354c57829003601f168201915b5050505050905080515f0361358057505f92915050565b5f8061358c838261460a565b90925090505f61359c8483614340565b9050610a528184612e09565b5f80428367ffffffffffffffff1610156135d35761ffff19620100008516016135cf575f94505b5f93505b50929391925050565b5f6001600160e01b031982167fd9b67a2600000000000000000000000000000000000000000000000000000000148061362557506001600160e01b031982166303a24d0760e21b145b806108b057507f01ffc9a7000000000000000000000000000000000000000000000000000000006001600160e01b03198316146108b0565b5f61366782611943565b9050806001600160a01b0316836001600160a01b0316036136f05760405162461bcd60e51b815260206004820152602160248201527f4552433732313a20617070726f76616c20746f2063757272656e74206f776e6560448201527f72000000000000000000000000000000000000000000000000000000000000006064820152608401610873565b336001600160a01b038216148061372957506001600160a01b0381165f90815260026020908152604080832033845290915290205460ff165b61379b5760405162461bcd60e51b815260206004820152603d60248201527f4552433732313a20617070726f76652063616c6c6572206973206e6f7420746f60448201527f6b656e206f776e6572206f7220617070726f76656420666f7220616c6c0000006064820152608401610873565b6109bf83836146be565b5f620200008381161480156109785750426137c36276a70084615a01565b67ffffffffffffffff16109392505050565b845160208601205f61382e7f93cdeb708b7545dc668eb9280176169d1c33cfd8ed6f04690a0bcc88a93fc4ae83604080516020808201949094528082019290925280518083038201815260609092019052805191012090565b90505f613870886040518060400160405280600581526020017f036574680000000000000000000000000000000000000000000000000000000081525061472b565b5f83815260066020526040902090915061388a8282615a22565b5061389d828289620300008a17896142fe565b6001600160a01b03841615611c4c57604051630c4b7b8560e11b8152600481018390526001600160a01b0385811660248301527f00000000000000000000000000000000000000000000000000000000000000001690631896f70a906044015f604051808303815f87803b158015613913575f80fd5b505af1158015613925573d5f803e3d5ffd5b505050505050505050505050565b5f546001600160a01b03163314611aaf5760405162461bcd60e51b815260206004820181905260248201527f4f776e61626c653a2063616c6c6572206973206e6f7420746865206f776e65726044820152606401610873565b5f8080613998846108b6565b919450925090504267ffffffffffffffff821610808015613a5957506001600160a01b0384161580613a5957506040516302571be360e01b8152600481018690525f906001600160a01b037f000000000000000000000000000000000000000000000000000000000000000016906302571be390602401602060405180830381865afa158015613a2a573d5f803e3d5ffd5b505050506040513d601f19601f82011682018060405250810190613a4e919061582e565b6001600160a01b0316145b15613a97575f613a68876108b6565b509150506020811615613a915760405163a2a7201360e01b815260048101879052602401610873565b50613abe565b62010000831615613abe5760405163a2a7201360e01b815260048101869052602401610873565b505050505050565b63fffdffff81811763ffffffff1614613af55760405163a2a7201360e01b815260048101839052602401610873565b5050565b60605f613b9d8360065f8881526020019081526020015f208054613b1c906157b5565b80601f0160208091040260200160405190810160405280929190818152602001828054613b48906157b5565b8015613b935780601f10613b6a57610100808354040283529160200191613b93565b820191905f5260205f20905b815481529060010190602001808311613b7657829003601f168201915b505050505061472b565b5f858152600660205260409020909150613bb78282615a22565b50949350505050565b5f80613bcb856108b6565b925050505f80613bdc885f1c6108b6565b9250925050613bec878784614038565b613bf7858483614073565b98975050505050505050565b5f80613c0e83611943565b6001600160a01b0316141580156108b057506040516302571be360e01b81526004810183905230906001600160a01b037f000000000000000000000000000000000000000000000000000000000000000016906302571be390602401602060405180830381865afa158015613c85573d5f803e3d5ffd5b505050506040513d601f19601f82011682018060405250810190613ca9919061582e565b6001600160a01b03161492915050565b5f8681526006602052604081208054613cd7918791613b1c906157b5565b9050613ce686828686866142fe565b50505050505050565b5f8080613cfb886108b6565b9250925092505f613d228860065f8d81526020019081526020015f208054613b1c906157b5565b5f8a8152600660205260409020805491925090613d3e906157b5565b90505f03613d5f575f898152600660205260409020613d5d8282615a22565b505b613d6e898588861785896140bc565b6001600160a01b038716613d8b57613d86895f614211565b610bd1565b610bd184888b5f1c600160405180602001604052805f8152506144bb565b6201ffff1962020000831601613dc957613dc66276a70082615a01565b90505b428167ffffffffffffffff161015613e465762010000821615613e415760405162461bcd60e51b815260206004820152602a60248201527f455243313135353a20696e73756666696369656e742062616c616e636520666f60448201526939103a3930b739b332b960b11b6064820152608401610873565b613e6b565b6004821615613e6b5760405163a2a7201360e01b815260048101849052602401610873565b604082165f036109bf5750505f90815260036020526040902080546001600160a01b0319169055565b6001600160a01b0384163b15613abe5760405163bc197c8160e01b81526001600160a01b0385169063bc197c8190613ed89089908990889088908890600401615ade565b6020604051808303815f875af1925050508015613f12575060408051601f3d908101601f19168201909252613f0f91810190615b2f565b60015b613fc757613f1e615b4a565b806308c379a003613f575750613f32615b63565b80613f3d5750613f59565b8060405162461bcd60e51b81526004016108739190614ccb565b505b60405162461bcd60e51b815260206004820152603460248201527f455243313135353a207472616e7366657220746f206e6f6e204552433131353560448201527f526563656976657220696d706c656d656e7465720000000000000000000000006064820152608401610873565b6001600160e01b0319811663bc197c8160e01b14613ce65760405162461bcd60e51b815260206004820152602860248201527f455243313135353a204552433131353552656365697665722072656a656374656044820152676420746f6b656e7360c01b6064820152608401610873565b63ffff000082161580159060018316159082906140525750805b156114865760405163a2a7201360e01b815260048101869052602401610873565b5f8167ffffffffffffffff168467ffffffffffffffff161115614094578193505b8267ffffffffffffffff168467ffffffffffffffff1610156140b4578293505b509192915050565b6140c88585858461417b565b60405163ffffffff8416815285907f39873f00c80f4f94b7bd1594aebcf650f003545b74824d57ddf4939e3ff3a34b9060200160405180910390a28167ffffffffffffffff168167ffffffffffffffff1611156114865760405167ffffffffffffffff8216815285907ff675815a0817338f93a7da433f6bd5f5542f1029b11b455191ac96c7f6a9b132906020015b60405180910390a25050505050565b5f80614171836108b6565b5090949350505050565b61418584836147d4565b5f8481526001602052604090206001600160a01b03841663ffffffff60a01b60a085901b16176001600160c01b031960c084901b1617905561193d565b5f80546001600160a01b038381166001600160a01b0319831681178455604051919092169283917f8be0079c531659141344cd1fd0a4f28419497f9722a3daafe3b4186f6b6457e09190a35050565b61421c82600161228d565b1561423d5760405163a2a7201360e01b815260048101839052602401610873565b614246826143fc565b604051635b0fc9c360e01b8152600481018390526001600160a01b0382811660248301527f00000000000000000000000000000000000000000000000000000000000000001690635b0fc9c3906044015f604051808303815f87803b1580156142ad575f80fd5b505af11580156142bf573d5f803e3d5ffd5b50506040516001600160a01b03841681528492507fee2ba1195c65bcf218a83d874335c6bf9d9067b4c672f3c3bf16cf40de7586c49150602001612f6e565b61430a8584848461480d565b847f8ce7013e8abebc55c3890a68f5a27c67c3f7efa64e584de5fb22363c606fd340858585856040516141579493929190615bec565b5f805f61434d858561460a565b9092509050816143be57600185516143659190615c33565b84146143b35760405162461bcd60e51b815260206004820152601d60248201527f6e616d65686173683a204a756e6b20617420656e64206f66206e616d650000006044820152606401610873565b505f91506108b09050565b6143c88582614340565b6040805160208101929092528101839052606001604051602081830303815290604052805190602001209250505092915050565b5f8181526001602052604090205460a081901c60c082901c61441f8383836135a8565b5f86815260036020908152604080832080546001600160a01b03191690556001909152902063ffffffff60a01b60a083901b166001600160c01b031960c086901b16179055925061446d9050565b60408051858152600160208201525f916001600160a01b0386169133917fc3d58168c5ae7397731d063d5bbf3d657854427343f4c083240f7aacaa2d0f62910160405180910390a450505050565b5f805f6144c7866108b6565b9250925092506144d8868383613da9565b8460011480156144f95750876001600160a01b0316836001600160a01b0316145b6145585760405162461bcd60e51b815260206004820152602a60248201527f455243313135353a20696e73756666696369656e742062616c616e636520666f60448201526939103a3930b739b332b960b11b6064820152608401610873565b866001600160a01b0316836001600160a01b03160361457957505050611486565b5f8681526001602052604090206001600160a01b03881663ffffffff60a01b60a085901b16176001600160c01b031960c084901b1617905560408051878152602081018790526001600160a01b03808a1692908b169133917fc3d58168c5ae7397731d063d5bbf3d657854427343f4c083240f7aacaa2d0f62910160405180910390a4611c4c33898989898961487f565b5f808351831061465c5760405162461bcd60e51b815260206004820152601e60248201527f726561644c6162656c3a20496e646578206f7574206f6620626f756e647300006044820152606401610873565b5f84848151811061466f5761466f6157ed565b016020015160f81c9050801561469b576146948561468e866001615c46565b8361497a565b925061469f565b5f92505b6146a98185615c46565b6146b4906001615c46565b9150509250929050565b5f81815260036020526040902080546001600160a01b0319166001600160a01b03841690811790915581906146f282611943565b6001600160a01b03167f8c5be1e5ebec7d5bd14f71427d1e84f3dd0314c0f7b2291e5b200ac8c7c3b92560405160405180910390a45050565b6060600183511015614769576040517f280dacb600000000000000000000000000000000000000000000000000000000815260040160405180910390fd5b60ff835111156147a757826040517fe3ba295f0000000000000000000000000000000000000000000000000000000081526004016108739190614ccb565b825183836040516020016147bd93929190615c70565b604051602081830303815290604052905092915050565b61ffff8116158015906147ec57506201000181811614155b15613af55760405163a2a7201360e01b815260048101839052602401610873565b61481784836147d4565b5f848152600160205260409020546001600160a01b038116156148735761483d856143fc565b6040515f815285907fee2ba1195c65bcf218a83d874335c6bf9d9067b4c672f3c3bf16cf40de7586c49060200160405180910390a25b61148685858585614998565b6001600160a01b0384163b15613abe5760405163f23a6e6160e01b81526001600160a01b0385169063f23a6e61906148c39089908990889088908890600401615caf565b6020604051808303815f875af19250505080156148fd575060408051601f3d908101601f191682019092526148fa91810190615b2f565b60015b61490957613f1e615b4a565b6001600160e01b0319811663f23a6e6160e01b14613ce65760405162461bcd60e51b815260206004820152602860248201527f455243313135353a204552433131353552656365697665722072656a656374656044820152676420746f6b656e7360c01b6064820152608401610873565b5f61498e846149898486615c46565b614bd0565b5091016020012090565b835f80806149a5846108b6565b9194509250905063ffff0000821667ffffffffffffffff80871690831611156149cc578195505b428267ffffffffffffffff16106149e257958617955b6001600160a01b03841615614a395760405162461bcd60e51b815260206004820152601f60248201527f455243313135353a206d696e74206f66206578697374696e6720746f6b656e006044820152606401610873565b6001600160a01b038816614ab55760405162461bcd60e51b815260206004820152602160248201527f455243313135353a206d696e7420746f20746865207a65726f2061646472657360448201527f73000000000000000000000000000000000000000000000000000000000000006064820152608401610873565b306001600160a01b03891603614b335760405162461bcd60e51b815260206004820152603460248201527f455243313135353a206e65774f776e65722063616e6e6f74206265207468652060448201527f4e616d655772617070657220636f6e74726163740000000000000000000000006064820152608401610873565b5f8581526001602052604090206001600160a01b03891663ffffffff60a01b60a08a901b16176001600160c01b031960c089901b1617905560408051868152600160208201526001600160a01b038a16915f9133917fc3d58168c5ae7397731d063d5bbf3d657854427343f4c083240f7aacaa2d0f62910160405180910390a4612cee335f8a88600160405180602001604052805f81525061487f565b8151811115613af55781516040517f8a3c1cfb000000000000000000000000000000000000000000000000000000008152610873918391600401918252602082015260400190565b6001600160a01b03811681146124f0575f80fd5b5f8060408385031215614c3d575f80fd5b8235614c4881614c18565b946020939093013593505050565b5f60208284031215614c66575f80fd5b5035919050565b6001600160e01b0319811681146124f0575f80fd5b5f60208284031215614c92575f80fd5b813561097881614c6d565b5f81518084528060208401602086015e5f602082860101526020601f19601f83011685010191505092915050565b602081525f6109786020830184614c9d565b5f8060408385031215614cee575f80fd5b823591506020830135614d0081614c18565b809150509250929050565b803567ffffffffffffffff81168114614d22575f80fd5b919050565b5f8060408385031215614d38575f80fd5b82359150614d4860208401614d0b565b90509250929050565b5f8083601f840112614d61575f80fd5b50813567ffffffffffffffff811115614d78575f80fd5b602083019150836020828501011115614d8f575f80fd5b9250929050565b5f805f805f60808688031215614daa575f80fd5b8535614db581614c18565b94506020860135614dc581614c18565b935060408601359250606086013567ffffffffffffffff811115614de7575f80fd5b614df388828901614d51565b969995985093965092949392505050565b5f60208284031215614e14575f80fd5b813561097881614c18565b634e487b7160e01b5f52604160045260245ffd5b601f8201601f1916810167ffffffffffffffff81118282101715614e5957614e59614e1f565b6040525050565b5f67ffffffffffffffff821115614e7957614e79614e1f565b50601f01601f191660200190565b5f82601f830112614e96575f80fd5b8135614ea181614e60565b604051614eae8282614e33565b828152856020848701011115614ec2575f80fd5b826020860160208301375f92810160200192909252509392505050565b803563ffffffff81168114614d22575f80fd5b5f805f805f805f60e0888a031215614f08575f80fd5b87359650602088013567ffffffffffffffff811115614f25575f80fd5b614f318a828b01614e87565b9650506040880135614f4281614c18565b94506060880135614f5281614c18565b9350614f6060808901614d0b565b9250614f6e60a08901614edf565b9150614f7c60c08901614d0b565b905092959891949750929550565b5f67ffffffffffffffff821115614fa357614fa3614e1f565b5060051b60200190565b5f82601f830112614fbc575f80fd5b81356020614fc982614f8a565b604051614fd68282614e33565b80915083815260208101915060208460051b870101935086841115614ff9575f80fd5b602086015b848110156122825780358352918301918301614ffe565b5f805f805f60a08688031215615029575f80fd5b853561503481614c18565b9450602086013561504481614c18565b9350604086013567ffffffffffffffff80821115615060575f80fd5b61506c89838a01614fad565b94506060880135915080821115615081575f80fd5b61508d89838a01614fad565b935060808801359150808211156150a2575f80fd5b506150af88828901614e87565b9150509295509295909350565b5f805f80608085870312156150cf575f80fd5b84359350602085013592506150e660408601614edf565b91506150f460608601614d0b565b905092959194509250565b803561ffff81168114614d22575f80fd5b5f8060408385031215615121575f80fd5b82359150614d48602084016150ff565b5f8060408385031215615142575f80fd5b823567ffffffffffffffff80821115615159575f80fd5b818501915085601f83011261516c575f80fd5b8135602061517982614f8a565b6040516151868282614e33565b83815260059390931b85018201928281019150898411156151a5575f80fd5b948201945b838610156151cc5785356151bd81614c18565b825294820194908201906151aa565b965050860135925050808211156151e1575f80fd5b506146b485828601614fad565b5f815180845260208085019450602084015f5b8381101561521d57815187529582019590820190600101615201565b509495945050505050565b602081525f61097860208301846151ee565b5f805f6060848603121561524c575f80fd5b833561525781614c18565b9250602084013561526781614c18565b929592945050506040919091013590565b5f805f6060848603121561528a575f80fd5b83359250602084013591506152a160408501614d0b565b90509250925092565b5f805f606084860312156152bc575f80fd5b8335925060208401356152ce81614c18565b915060408401356152de81614c18565b809150509250925092565b5f805f805f608086880312156152fd575f80fd5b853567ffffffffffffffff811115615313575f80fd5b61531f88828901614d51565b909650945050602086013561533381614c18565b9250615341604087016150ff565b9150606086013561535181614c18565b809150509295509295909350565b80151581146124f0575f80fd5b5f806040838503121561537d575f80fd5b823561538881614c18565b91506020830135614d008161535f565b5f805f805f8060a087890312156153ad575f80fd5b863567ffffffffffffffff8111156153c3575f80fd5b6153cf89828a01614d51565b90975095505060208701356153e381614c18565b93506040870135925060608701356153fa81614c18565b9150615408608088016150ff565b90509295509295509295565b5f8060408385031215615425575f80fd5b82359150614d4860208401614edf565b5f8060408385031215615446575f80fd5b50508035926020909101359150565b5f805f805f8060a0878903121561546a575f80fd5b86359550602087013567ffffffffffffffff811115615487575f80fd5b61549389828a01614d51565b90965094505060408701356154a781614c18565b92506154b560608801614edf565b915061540860808801614d0b565b5f805f80604085870312156154d6575f80fd5b843567ffffffffffffffff808211156154ed575f80fd5b6154f988838901614d51565b90965094506020870135915080821115615511575f80fd5b5061551e87828801614d51565b95989497509550505050565b5f805f806080858703121561553d575f80fd5b84359350602085013561554f81614c18565b925060408501356150e681614c18565b5f805f60608486031215615571575f80fd5b833592506020840135915060408401356152de81614c18565b5f806040838503121561559b575f80fd5b82356155a681614c18565b91506020830135614d0081614c18565b5f805f80606085870312156155c9575f80fd5b843567ffffffffffffffff8111156155df575f80fd5b6155eb87828801614d51565b90955093505060208501356155ff81614c18565b9150604085013561560f81614c18565b939692955090935050565b5f805f805f60a0868803121561562e575f80fd5b853561563981614c18565b9450602086013561564981614c18565b93506040860135925060608601359150608086013567ffffffffffffffff811115615672575f80fd5b6150af88828901614e87565b5f6020828403121561568e575f80fd5b815167ffffffffffffffff8111156156a4575f80fd5b8201601f810184136156b4575f80fd5b80516156bf81614e60565b6040516156cc8282614e33565b8281528660208486010111156156e0575f80fd5b8260208501602083015e5f9281016020019290925250949350505050565b5f805f8060808587031215615711575f80fd5b843567ffffffffffffffff811115615727575f80fd5b61573387828801614e87565b945050602085013561574481614c18565b9250615752604086016150ff565b9150606085013561560f81614c18565b5f60208284031215615772575f80fd5b5051919050565b634e487b7160e01b5f52601160045260245ffd5b67ffffffffffffffff8181168382160190808211156157ae576157ae615779565b5092915050565b600181811c908216806157c957607f821691505b6020821081036157e757634e487b7160e01b5f52602260045260245ffd5b50919050565b634e487b7160e01b5f52603260045260245ffd5b604081525f61581360408301856151ee565b828103602084015261582581856151ee565b95945050505050565b5f6020828403121561583e575f80fd5b815161097881614c18565b5f60208284031215615859575f80fd5b81516109788161535f565b818382375f9101908152919050565b81835281816020850137505f828201602090810191909152601f909101601f19169091010190565b60c081525f6158ae60c083018a8c615873565b6001600160a01b03898116602085015263ffffffff8916604085015267ffffffffffffffff881660608501528616608084015282810360a08401526158f4818587615873565b9b9a5050505050505050505050565b601f8211156109bf57805f5260205f20601f840160051c810160208510156159285750805b601f840160051c820191505b81811015611486575f8155600101615934565b67ffffffffffffffff83111561595f5761595f614e1f565b6159738361596d83546157b5565b83615903565b5f601f8411600181146159a4575f851561598d5750838201355b5f19600387901b1c1916600186901b178355611486565b5f83815260208120601f198716915b828110156159d357868501358255602094850194600190920191016159b3565b50868210156159ef575f1960f88860031b161c19848701351681555b505060018560011b0183555050505050565b67ffffffffffffffff8281168282160390808211156157ae576157ae615779565b815167ffffffffffffffff811115615a3c57615a3c614e1f565b615a5081615a4a84546157b5565b84615903565b602080601f831160018114615a83575f8415615a6c5750858301515b5f19600386901b1c1916600185901b178555613abe565b5f85815260208120601f198616915b82811015615ab157888601518255948401946001909101908401615a92565b5085821015615ace57878501515f19600388901b60f8161c191681555b5050505050600190811b01905550565b5f6001600160a01b03808816835280871660208401525060a06040830152615b0960a08301866151ee565b8281036060840152615b1b81866151ee565b90508281036080840152613bf78185614c9d565b5f60208284031215615b3f575f80fd5b815161097881614c6d565b5f60033d1115615b605760045f803e505f5160e01c5b90565b5f60443d1015615b705790565b6040516003193d81016004833e81513d67ffffffffffffffff8160248401118184111715615ba057505050505090565b8285019150815181811115615bb85750505050505090565b843d8701016020828501011115615bd25750505050505090565b615be160208286010187614e33565b509095945050505050565b608081525f615bfe6080830187614c9d565b6001600160a01b039590951660208301525063ffffffff92909216604083015267ffffffffffffffff16606090910152919050565b818103818111156108b0576108b0615779565b808201808211156108b0576108b0615779565b5f81518060208401855e5f93019283525090919050565b7fff000000000000000000000000000000000000000000000000000000000000008460f81b1681525f615825615ca96001840186615c59565b84615c59565b5f6001600160a01b03808816835280871660208401525084604083015283606083015260a06080830152615ce660a0830184614c9d565b97965050505050505056fea26469706673582212203dd8f6a85072a11605217b98971976d8818e980006f0680e186a8f1621a0496164736f6c63430008190033",
  "linkReferences": {},
  "deployedLinkReferences": {},
  "immutableReferences": {
    "28266": [
      {
        "length": 32,
        "start": 1345
      },
      {
        "length": 32,
        "start": 2933
      },
      {
        "length": 32,
        "start": 3745
      },
      {
        "length": 32,
        "start": 4177
      },
      {
        "length": 32,
        "start": 4350
      },
      {
        "length": 32,
        "start": 5379
      },
      {
        "length": 32,
        "start": 9073
      },
      {
        "length": 32,
        "start": 9369
      },
      {
        "length": 32,
        "start": 10015
      },
      {
        "length": 32,
        "start": 10510
      },
      {
        "length": 32,
        "start": 11276
      },
      {
        "length": 32,
        "start": 12454
      },
      {
        "length": 32,
        "start": 12626
      },
      {
        "length": 32,
        "start": 12825
      },
      {
        "length": 32,
        "start": 12941
      },
      {
        "length": 32,
        "start": 14546
      },
      {
        "length": 32,
        "start": 14821
      },
      {
        "length": 32,
        "start": 15424
      },
      {
        "length": 32,
        "start": 17004
      }
    ],
    "28269": [
      {
        "length": 32,
        "start": 1268
      },
      {
        "length": 32,
        "start": 3049
      },
      {
        "length": 32,
        "start": 3266
      },
      {
        "length": 32,
        "start": 3398
      },
      {
        "length": 32,
        "start": 7161
      },
      {
        "length": 32,
        "start": 7304
      },
      {
        "length": 32,
        "start": 7476
      },
      {
        "length": 32,
        "start": 7764
      },
      {
        "length": 32,
        "start": 7877
      },
      {
        "length": 32,
        "start": 8000
      },
      {
        "length": 32,
        "start": 8636
      },
      {
        "length": 32,
        "start": 8946
      },
      {
        "length": 32,
        "start": 9241
      },
      {
        "length": 32,
        "start": 9713
      },
      {
        "length": 32,
        "start": 9844
      },
      {
        "length": 32,
        "start": 11909
      }
    ]
  },
  "inputSourceName": "project/lib/ens-contracts/contracts/wrapper/NameWrapper.sol",
  "devdoc": {
    "errors": {
      "OffsetOutOfBoundsError(uint256,uint256)": [
        {
          "details": "`offset` was beyond `length`.       Error selector: `0x8a3c1cfb`"
        }
      ]
    },
    "events": {
      "Approval(address,address,uint256)": {
        "details": "Emitted when `owner` enables `approved` to manage the `tokenId` token."
      },
      "ApprovalForAll(address,address,bool)": {
        "details": "Emitted when `account` grants or revokes permission to `operator` to transfer their tokens, according to `approved`."
      },
      "TransferBatch(address,address,address,uint256[],uint256[])": {
        "details": "Equivalent to multiple {TransferSingle} events, where `operator`, `from` and `to` are the same for all transfers."
      },
      "TransferSingle(address,address,address,uint256,uint256)": {
        "details": "Emitted when `value` tokens of token type `id` are transferred from `from` to `to` by `operator`."
      },
      "URI(string,uint256)": {
        "details": "Emitted when the URI for token type `id` changes to `value`, if it is a non-programmatic URI. If an {URI} event was emitted for `id`, the standard https://eips.ethereum.org/EIPS/eip-1155#metadata-extensions[guarantees] that `value` will equal the value returned by {IERC1155MetadataURI-uri}."
      }
    },
    "kind": "dev",
    "methods": {
      "allFusesBurned(bytes32,uint32)": {
        "params": {
          "fuseMask": "The fuses you want to check",
          "node": "Namehash of the name"
        },
        "returns": {
          "_0": "Boolean of whether or not all the selected fuses are burned"
        }
      },
      "approve(address,uint256)": {
        "params": {
          "to": "address to approve",
          "tokenId": "name to approve"
        }
      },
      "balanceOf(address,uint256)": {
        "details": "See {IERC1155-balanceOf}. Requirements: - `account` cannot be the zero address."
      },
      "balanceOfBatch(address[],uint256[])": {
        "details": "See {IERC1155-balanceOfBatch}. Requirements: - `accounts` and `ids` must have the same length."
      },
      "canExtendSubnames(bytes32,address)": {
        "params": {
          "addr": "which address to check permissions for",
          "node": "namehash of the name to check"
        },
        "returns": {
          "_0": "whether or not is owner/operator or approved"
        }
      },
      "canModifyName(bytes32,address)": {
        "params": {
          "addr": "which address to check permissions for",
          "node": "namehash of the name to check"
        },
        "returns": {
          "_0": "whether or not is owner or operator"
        }
      },
      "extendExpiry(bytes32,bytes32,uint64)": {
        "params": {
          "expiry": "When the name will expire in seconds since the Unix epoch",
          "labelhash": "Labelhash of the name, e.g. vitalik.xyz would be keccak256('vitalik')",
          "parentNode": "Parent namehash of the name e.g. vitalik.xyz would be namehash('xyz')"
        },
        "returns": {
          "_0": "New expiry"
        }
      },
      "getApproved(uint256)": {
        "params": {
          "id": "Namehash of the name"
        },
        "returns": {
          "operator": "Approved operator of a name"
        }
      },
      "getData(uint256)": {
        "params": {
          "id": "Namehash of the name"
        },
        "returns": {
          "expiry": "Expiry of the name",
          "fuses": "Fuses of the name",
          "owner": "Owner of the name"
        }
      },
      "isApprovedForAll(address,address)": {
        "details": "See {IERC1155-isApprovedForAll}."
      },
      "isWrapped(bytes32)": {
        "params": {
          "node": "Namehash of the name"
        },
        "returns": {
          "_0": "Boolean of whether or not the name is wrapped"
        }
      },
      "isWrapped(bytes32,bytes32)": {
        "params": {
          "labelhash": "Namehash of the name",
          "parentNode": "Namehash of the name"
        },
        "returns": {
          "_0": "Boolean of whether or not the name is wrapped"
        }
      },
      "owner()": {
        "details": "Returns the address of the current owner."
      },
      "ownerOf(uint256)": {
        "params": {
          "id": "Label as a string of the .eth domain to wrap"
        },
        "returns": {
          "owner": "The owner of the name"
        }
      },
      "recoverFunds(address,address,uint256)": {
        "details": "The contract is Ownable and only the owner can call the recover function.",
        "params": {
          "_amount": "The amount of tokens to recover.",
          "_to": "The address to send the tokens to.",
          "_token": "The address of the ERC20 token to recover"
        }
      },
      "registerAndWrapETH2LD(string,address,uint256,address,uint16)": {
        "details": "Registers a new .eth second-level domain and wraps it.      Only callable by authorised controllers.",
        "params": {
          "duration": "The duration, in seconds, to register the name for.",
          "label": "The label to register (Eg, 'foo' for 'foo.eth').",
          "ownerControlledFuses": "Initial owner-controlled fuses to set",
          "resolver": "The resolver address to set on the ENS registry (optional).",
          "wrappedOwner": "The owner of the wrapped name."
        },
        "returns": {
          "registrarExpiry": "The expiry date of the new name on the .eth registrar, in seconds since the Unix epoch."
        }
      },
      "renew(uint256,uint256)": {
        "details": "Only callable by authorised controllers.",
        "params": {
          "duration": "The number of seconds to renew the name for.",
          "tokenId": "The hash of the label to register (eg, `keccak256('foo')`, for 'foo.eth')."
        },
        "returns": {
          "expires": "The expiry date of the name on the .eth registrar, in seconds since the Unix epoch."
        }
      },
      "renounceOwnership()": {
        "details": "Leaves the contract without owner. It will not be possible to call `onlyOwner` functions. Can only be called by the current owner. NOTE: Renouncing ownership will leave the contract without an owner, thereby disabling any functionality that is only available to the owner."
      },
      "safeBatchTransferFrom(address,address,uint256[],uint256[],bytes)": {
        "details": "See {IERC1155-safeBatchTransferFrom}."
      },
      "safeTransferFrom(address,address,uint256,uint256,bytes)": {
        "details": "See {IERC1155-safeTransferFrom}."
      },
      "setApprovalForAll(address,bool)": {
        "details": "See {IERC1155-setApprovalForAll}."
      },
      "setChildFuses(bytes32,bytes32,uint32,uint64)": {
        "params": {
          "expiry": "When the name will expire in seconds since the Unix epoch",
          "fuses": "Fuses to burn",
          "labelhash": "Labelhash of the name, e.g. vitalik.xyz would be keccak256('vitalik')",
          "parentNode": "Parent namehash of the name e.g. vitalik.xyz would be namehash('xyz')"
        }
      },
      "setFuses(bytes32,uint16)": {
        "params": {
          "node": "Namehash of the name",
          "ownerControlledFuses": "Owner-controlled fuses to burn"
        },
        "returns": {
          "_0": "Old fuses"
        }
      },
      "setMetadataService(address)": {
        "params": {
          "_metadataService": "The new metadata service"
        }
      },
      "setRecord(bytes32,address,address,uint64)": {
        "params": {
          "node": "Namehash of the name to set a record for",
          "owner": "New owner in the registry",
          "resolver": "Resolver contract",
          "ttl": "Time to live in the registry"
        }
      },
      "setResolver(bytes32,address)": {
        "params": {
          "node": "namehash of the name",
          "resolver": "the resolver contract"
        }
      },
      "setSubnodeOwner(bytes32,string,address,uint32,uint64)": {
        "params": {
          "expiry": "When the name will expire in seconds since the Unix epoch",
          "fuses": "Initial fuses for the wrapped subdomain",
          "label": "Label of the subdomain as a string",
          "owner": "New owner in the wrapper",
          "parentNode": "Parent namehash of the subdomain"
        },
        "returns": {
          "node": "Namehash of the subdomain"
        }
      },
      "setSubnodeRecord(bytes32,string,address,address,uint64,uint32,uint64)": {
        "params": {
          "expiry": "When the name will expire in seconds since the Unix epoch",
          "fuses": "initial fuses for the wrapped subdomain",
          "label": "label of the subdomain as a string",
          "owner": "new owner in the wrapper",
          "parentNode": "parent namehash of the subdomain",
          "resolver": "resolver contract in the registry",
          "ttl": "ttl in the registry"
        },
        "returns": {
          "node": "Namehash of the subdomain"
        }
      },
      "setTTL(bytes32,uint64)": {
        "params": {
          "node": "Namehash of the name",
          "ttl": "TTL in the registry"
        }
      },
      "setUpgradeContract(address)": {
        "details": "The default value of upgradeContract is the 0 address. Use the 0 address at any time to make the contract not upgradable.",
        "params": {
          "_upgradeAddress": "address of an upgraded contract"
        }
      },
      "transferOwnership(address)": {
        "details": "Transfers ownership of the contract to a new account (`newOwner`). Can only be called by the current owner."
      },
      "unwrap(bytes32,bytes32,address)": {
        "details": "Can be called by the owner in the wrapper or an authorised caller in the wrapper",
        "params": {
          "controller": "Sets the owner in the registry to this address",
          "labelhash": "Labelhash of the name, e.g. vitalik.xyz would be keccak256('vitalik')",
          "parentNode": "Parent namehash of the name e.g. vitalik.xyz would be namehash('xyz')"
        }
      },
      "unwrapETH2LD(bytes32,address,address)": {
        "details": "Can be called by the owner in the wrapper or an authorised caller in the wrapper",
        "params": {
          "controller": "Sets the owner in the registry to this address",
          "labelhash": "Labelhash of the .eth domain",
          "registrant": "Sets the owner in the .eth registrar to this address"
        }
      },
      "upgrade(bytes,bytes)": {
        "details": "Can be called by the owner or an authorised caller",
        "params": {
          "extraData": "Extra data to pass to the upgrade contract",
          "name": "The name to upgrade, in DNS format"
        }
      },
      "uri(uint256)": {
        "params": {
          "tokenId": "The id of the token"
        },
        "returns": {
          "_0": "string uri of the metadata service"
        }
      },
      "wrap(bytes,address,address)": {
        "details": "Can be called by the owner in the registry or an authorised caller in the registry",
        "params": {
          "name": "The name to wrap, in DNS format",
          "resolver": "Resolver contract",
          "wrappedOwner": "Owner of the name in this contract"
        }
      },
      "wrapETH2LD(string,address,uint16,address)": {
        "details": "Can be called by the owner of the name on the .eth registrar or an authorised caller on the registrar",
        "params": {
          "label": "Label as a string of the .eth domain to wrap",
          "ownerControlledFuses": "Initial owner-controlled fuses to set",
          "resolver": "Resolver contract address",
          "wrappedOwner": "Owner of the name in this contract"
        }
      }
    },
    "version": 1
  },
  "evm": {
    "gasEstimates": {
      "creation": {
        "codeDepositCost": "4769400",
        "executionCost": "infinite",
        "totalCost": "infinite"
      },
      "external": {
        "_tokens(uint256)": "2535",
        "allFusesBurned(bytes32,uint32)": "2924",
        "approve(address,uint256)": "infinite",
        "balanceOf(address,uint256)": "infinite",
        "balanceOfBatch(address[],uint256[])": "infinite",
        "canExtendSubnames(bytes32,address)": "infinite",
        "canModifyName(bytes32,address)": "5375",
        "controllers(address)": "2611",
        "ens()": "infinite",
        "extendExpiry(bytes32,bytes32,uint64)": "infinite",
        "getApproved(uint256)": "2915",
        "getData(uint256)": "2792",
        "isApprovedForAll(address,address)": "infinite",
        "isWrapped(bytes32)": "infinite",
        "isWrapped(bytes32,bytes32)": "infinite",
        "metadataService()": "2425",
        "name()": "infinite",
        "names(bytes32)": "infinite",
        "onERC721Received(address,address,uint256,bytes)": "infinite",
        "owner()": "2441",
        "ownerOf(uint256)": "2808",
        "recoverFunds(address,address,uint256)": "infinite",
        "registerAndWrapETH2LD(string,address,uint256,address,uint16)": "infinite",
        "registrar()": "infinite",
        "renew(uint256,uint256)": "infinite",
        "renounceOwnership()": "infinite",
        "safeBatchTransferFrom(address,address,uint256[],uint256[],bytes)": "infinite",
        "safeTransferFrom(address,address,uint256,uint256,bytes)": "infinite",
        "setApprovalForAll(address,bool)": "infinite",
        "setChildFuses(bytes32,bytes32,uint32,uint64)": "infinite",
        "setController(address,bool)": "infinite",
        "setFuses(bytes32,uint16)": "infinite",
        "setMetadataService(address)": "26816",
        "setRecord(bytes32,address,address,uint64)": "infinite",
        "setResolver(bytes32,address)": "infinite",
        "setSubnodeOwner(bytes32,string,address,uint32,uint64)": "infinite",
        "setSubnodeRecord(bytes32,string,address,address,uint64,uint32,uint64)": "infinite",
        "setTTL(bytes32,uint64)": "infinite",
        "setUpgradeContract(address)": "infinite",
        "supportsInterface(bytes4)": "infinite",
        "transferOwnership(address)": "infinite",
        "unwrap(bytes32,bytes32,address)": "infinite",
        "unwrapETH2LD(bytes32,address,address)": "infinite",
        "upgrade(bytes,bytes)": "infinite",
        "upgradeContract()": "2405",
        "uri(uint256)": "infinite",
        "wrap(bytes,address,address)": "infinite",
        "wrapETH2LD(string,address,uint16,address)": "infinite"
      },
      "internal": {
        "_addLabel(string memory,bytes memory)": "infinite",
        "_beforeTransfer(uint256,uint32,uint64)": "infinite",
        "_canFusesBeBurned(bytes32,uint32)": "infinite",
        "_checkCanCallSetSubnodeOwner(bytes32,bytes32)": "infinite",
        "_checkFusesAreSettable(bytes32,uint32)": "infinite",
        "_checkParentFuses(bytes32,uint32,uint32)": "infinite",
        "_checkParentFusesAndExpiry(bytes32,bytes32,uint32,uint64)": "infinite",
        "_clearOwnerAndFuses(address,uint32,uint64)": "109",
        "_isETH2LDInGracePeriod(uint32,uint64)": "165",
        "_isWrapped(bytes32)": "infinite",
        "_makeNode(bytes32,bytes32)": "infinite",
        "_mint(bytes32,address,uint32,uint64)": "infinite",
        "_normaliseExpiry(uint64,uint64,uint64)": "118",
        "_saveLabel(bytes32,bytes32,string memory)": "infinite",
        "_setData(bytes32,address,uint32,uint64)": "infinite",
        "_setFuses(bytes32,address,uint32,uint64,uint64)": "infinite",
        "_storeNameAndWrap(bytes32,bytes32,string memory,address,uint32,uint64)": "infinite",
        "_unwrap(bytes32,address)": "infinite",
        "_updateName(bytes32,bytes32,string memory,address,uint32,uint64)": "infinite",
        "_wrap(bytes32,bytes memory,address,uint32,uint64)": "infinite",
        "_wrapETH2LD(string memory,address,uint32,uint64,address)": "infinite"
      }
    }
  },
  "storageLayout": {
    "storage": [
      {
        "astId": 41649,
        "contract": "project/lib/ens-contracts/contracts/wrapper/NameWrapper.sol:NameWrapper",
        "label": "_owner",
        "offset": 0,
        "slot": "0",
        "type": "t_address"
      },
      {
        "astId": 26800,
        "contract": "project/lib/ens-contracts/contracts/wrapper/NameWrapper.sol:NameWrapper",
        "label": "_tokens",
        "offset": 0,
        "slot": "1",
        "type": "t_mapping(t_uint256,t_uint256)"
      },
      {
        "astId": 26806,
        "contract": "project/lib/ens-contracts/contracts/wrapper/NameWrapper.sol:NameWrapper",
        "label": "_operatorApprovals",
        "offset": 0,
        "slot": "2",
        "type": "t_mapping(t_address,t_mapping(t_address,t_bool))"
      },
      {
        "astId": 26810,
        "contract": "project/lib/ens-contracts/contracts/wrapper/NameWrapper.sol:NameWrapper",
        "label": "_tokenApprovals",
        "offset": 0,
        "slot": "3",
        "type": "t_mapping(t_uint256,t_address)"
      },
      {
        "astId": 26731,
        "contract": "project/lib/ens-contracts/contracts/wrapper/NameWrapper.sol:NameWrapper",
        "label": "controllers",
        "offset": 0,
        "slot": "4",
        "type": "t_mapping(t_address,t_bool)"
      },
      {
        "astId": 28272,
        "contract": "project/lib/ens-contracts/contracts/wrapper/NameWrapper.sol:NameWrapper",
        "label": "metadataService",
        "offset": 0,
        "slot": "5",
        "type": "t_contract(IMetadataService)27774"
      },
      {
        "astId": 28276,
        "contract": "project/lib/ens-contracts/contracts/wrapper/NameWrapper.sol:NameWrapper",
        "label": "names",
        "offset": 0,
        "slot": "6",
        "type": "t_mapping(t_bytes32,t_bytes_storage)"
      },
      {
        "astId": 28294,
        "contract": "project/lib/ens-contracts/contracts/wrapper/NameWrapper.sol:NameWrapper",
        "label": "upgradeContract",
        "offset": 0,
        "slot": "7",
        "type": "t_contract(INameWrapperUpgrade)28166"
      }
    ],
    "types": {
      "t_address": {
        "encoding": "inplace",
        "label": "address",
        "numberOfBytes": "20"
      },
      "t_bool": {
        "encoding": "inplace",
        "label": "bool",
        "numberOfBytes": "1"
      },
      "t_bytes32": {
        "encoding": "inplace",
        "label": "bytes32",
        "numberOfBytes": "32"
      },
      "t_bytes_storage": {
        "encoding": "bytes",
        "label": "bytes",
        "numberOfBytes": "32"
      },
      "t_contract(IMetadataService)27774": {
        "encoding": "inplace",
        "label": "contract IMetadataService",
        "numberOfBytes": "20"
      },
      "t_contract(INameWrapperUpgrade)28166": {
        "encoding": "inplace",
        "label": "contract INameWrapperUpgrade",
        "numberOfBytes": "20"
      },
      "t_mapping(t_address,t_bool)": {
        "encoding": "mapping",
        "key": "t_address",
        "label": "mapping(address => bool)",
        "numberOfBytes": "32",
        "value": "t_bool"
      },
      "t_mapping(t_address,t_mapping(t_address,t_bool))": {
        "encoding": "mapping",
        "key": "t_address",
        "label": "mapping(address => mapping(address => bool))",
        "numberOfBytes": "32",
        "value": "t_mapping(t_address,t_bool)"
      },
      "t_mapping(t_bytes32,t_bytes_storage)": {
        "encoding": "mapping",
        "key": "t_bytes32",
        "label": "mapping(bytes32 => bytes)",
        "numberOfBytes": "32",
        "value": "t_bytes_storage"
      },
      "t_mapping(t_uint256,t_address)": {
        "encoding": "mapping",
        "key": "t_uint256",
        "label": "mapping(uint256 => address)",
        "numberOfBytes": "32",
        "value": "t_address"
      },
      "t_mapping(t_uint256,t_uint256)": {
        "encoding": "mapping",
        "key": "t_uint256",
        "label": "mapping(uint256 => uint256)",
        "numberOfBytes": "32",
        "value": "t_uint256"
      },
      "t_uint256": {
        "encoding": "inplace",
        "label": "uint256",
        "numberOfBytes": "32"
      }
    }
  },
  "userdoc": {
    "kind": "user",
    "methods": {
      "allFusesBurned(bytes32,uint32)": {
        "notice": "Checks all Fuses in the mask are burned for the node"
      },
      "approve(address,uint256)": {
        "notice": "Approves an address for a name"
      },
      "canExtendSubnames(bytes32,address)": {
        "notice": "Checks if owner/operator or approved by owner"
      },
      "canModifyName(bytes32,address)": {
        "notice": "Checks if owner or operator of the owner"
      },
      "extendExpiry(bytes32,bytes32,uint64)": {
        "notice": "Extends expiry for a name"
      },
      "getApproved(uint256)": {
        "notice": "Gets the owner of a name"
      },
      "getData(uint256)": {
        "notice": "Gets the data for a name"
      },
      "isWrapped(bytes32)": {
        "notice": "Checks if a name is wrapped"
      },
      "isWrapped(bytes32,bytes32)": {
        "notice": "Checks if a name is wrapped in a more gas efficient way"
      },
      "ownerOf(uint256)": {
        "notice": "Gets the owner of a name"
      },
      "recoverFunds(address,address,uint256)": {
        "notice": "Recover ERC20 tokens sent to the contract by mistake."
      },
      "renew(uint256,uint256)": {
        "notice": "Renews a .eth second-level domain."
      },
      "setChildFuses(bytes32,bytes32,uint32,uint64)": {
        "notice": "Sets fuses of a name that you own the parent of"
      },
      "setFuses(bytes32,uint16)": {
        "notice": "Sets fuses of a name"
      },
      "setMetadataService(address)": {
        "notice": "Set the metadata service. Only the owner can do this"
      },
      "setRecord(bytes32,address,address,uint64)": {
        "notice": "Sets records for the name in the ENS Registry"
      },
      "setResolver(bytes32,address)": {
        "notice": "Sets resolver contract in the registry"
      },
      "setSubnodeOwner(bytes32,string,address,uint32,uint64)": {
        "notice": "Sets the subdomain owner in the registry and then wraps the subdomain"
      },
      "setSubnodeRecord(bytes32,string,address,address,uint64,uint32,uint64)": {
        "notice": "Sets the subdomain owner in the registry with records and then wraps the subdomain"
      },
      "setTTL(bytes32,uint64)": {
        "notice": "Sets TTL in the registry"
      },
      "setUpgradeContract(address)": {
        "notice": "Set the address of the upgradeContract of the contract. only admin can do this"
      },
      "unwrap(bytes32,bytes32,address)": {
        "notice": "Unwraps a non .eth domain, of any kind. Could be a DNSSEC name vitalik.xyz or a subdomain"
      },
      "unwrapETH2LD(bytes32,address,address)": {
        "notice": "Unwraps a .eth domain. e.g. vitalik.eth"
      },
      "upgrade(bytes,bytes)": {
        "notice": "Upgrades a domain of any kind. Could be a .eth name vitalik.eth, a DNSSEC name vitalik.xyz, or a subdomain"
      },
      "uri(uint256)": {
        "notice": "Get the metadata uri"
      },
      "wrap(bytes,address,address)": {
        "notice": "Wraps a non .eth domain, of any kind. Could be a DNSSEC name vitalik.xyz or a subdomain"
      },
      "wrapETH2LD(string,address,uint16,address)": {
        "notice": "Wraps a .eth domain, creating a new token and sending the original ERC721 token to this contract"
      }
    },
    "version": 1
  },
  "argsData": "0x000000000000000000000000cf7ed3acca5a467e9e704c703e8d87f634fb0fc90000000000000000000000009d4454b023096f34b160d6b654540c56a1f8168800000000000000000000000036c02da8a0983159322a80ffe9f24b1acff8b570",
  "transaction": {
    "hash": "0x80a76eabbfbba2396f5b8645459b5367493eec1422cb9c160008c9b93155d9ab",
    "nonce": "0x34",
    "origin": "0xf39fd6e51aad88f6f4ce6ab8827279cfffb92266"
  }
}