{
  "address": "0xa85233c63b9ee964add6f2cffe00fd84eb32338f",
  "abi": [
    {
      "inputs": [
        {
          "internalType": "contract ENS",
          "name": "_ens",
          "type": "address"
        },
        {
          "internalType": "contract DNSSEC",
          "name": "_oracle",
          "type": "address"
        },
        {
          "internalType": "string",
          "name": "_gatewayURL",
          "type": "string"
        }
      ],
      "stateMutability": "nonpayable",
      "type": "constructor"
    },
    {
      "inputs": [
        {
          "internalType": "bytes",
          "name": "name",
          "type": "bytes"
        }
      ],
      "name": "CouldNotResolve",
      "type": "error"
    },
    {
      "inputs": [],
      "name": "InvalidOperation",
      "type": "error"
    },
    {
      "inputs": [
        {
          "internalType": "address",
          "name": "sender",
          "type": "address"
        },
        {
          "internalType": "string[]",
          "name": "urls",
          "type": "string[]"
        },
        {
          "internalType": "bytes",
          "name": "callData",
          "type": "bytes"
        },
        {
          "internalType": "bytes4",
          "name": "callbackFunction",
          "type": "bytes4"
        },
        {
          "internalType": "bytes",
          "name": "extraData",
          "type": "bytes"
        }
      ],
      "name": "OffchainLookup",
      "type": "error"
    },
    {
      "inputs": [
        {
          "internalType": "uint256",
          "name": "offset",
          "type": "uint256"
        },
        {
          "internalType": "uint256",
          "name": "length",
          "type": "uint256"
        }
      ],
      "name": "OffsetOutOfBoundsError",
      "type": "error"
    },
    {
      "inputs": [],
      "name": "ens",
      "outputs": [
        {
          "internalType": "contract ENS",
          "name": "",
          "type": "address"
        }
      ],
      "stateMutability": "view",
      "type": "function"
    },
    {
      "inputs": [],
      "name": "gatewayURL",
      "outputs": [
        {
          "internalType": "string",
          "name": "",
          "type": "string"
        }
      ],
      "stateMutability": "view",
      "type": "function"
    },
    {
      "inputs": [],
      "name": "oracle",
      "outputs": [
        {
          "internalType": "contract DNSSEC",
          "name": "",
          "type": "address"
        }
      ],
      "stateMutability": "view",
      "type": "function"
    },
    {
      "inputs": [
        {
          "internalType": "bytes",
          "name": "name",
          "type": "bytes"
        },
        {
          "internalType": "bytes",
          "name": "data",
          "type": "bytes"
        }
      ],
      "name": "resolve",
      "outputs": [
        {
          "internalType": "bytes",
          "name": "",
          "type": "bytes"
        }
      ],
      "stateMutability": "view",
      "type": "function"
    },
    {
      "inputs": [
        {
          "internalType": "bytes",
          "name": "response",
          "type": "bytes"
        },
        {
          "internalType": "bytes",
          "name": "extraData",
          "type": "bytes"
        }
      ],
      "name": "resolveCallback",
      "outputs": [
        {
          "internalType": "bytes",
          "name": "",
          "type": "bytes"
        }
      ],
      "stateMutability": "view",
      "type": "function"
    },
    {
      "inputs": [
        {
          "internalType": "bytes4",
          "name": "interfaceId",
          "type": "bytes4"
        }
      ],
      "name": "supportsInterface",
      "outputs": [
        {
          "internalType": "bool",
          "name": "",
          "type": "bool"
        }
      ],
      "stateMutability": "pure",
      "type": "function"
    }
  ],
  "contractName": "OffchainDNSResolver",
  "sourceName": "lib/ens-contracts/contracts/dnsregistrar/OffchainDNSResolver.sol",
  "bytecode": "0x60c060405234801561000f575f80fd5b5060405161217338038061217383398101604081905261002e91610080565b6001600160a01b03808416608052821660a0525f61004c82826101d4565b50505050610293565b6001600160a01b0381168114610069575f80fd5b50565b634e487b7160e01b5f52604160045260245ffd5b5f805f60608486031215610092575f80fd5b835161009d81610055565b60208501519093506100ae81610055565b60408501519092506001600160401b03808211156100ca575f80fd5b818601915086601f8301126100dd575f80fd5b8151818111156100ef576100ef61006c565b604051601f8201601f19908116603f011681019083821181831017156101175761011761006c565b8160405282815289602084870101111561012f575f80fd5b8260208601602083015e5f6020848301015280955050505050509250925092565b600181811c9082168061016457607f821691505b60208210810361018257634e487b7160e01b5f52602260045260245ffd5b50919050565b601f8211156101cf57805f5260205f20601f840160051c810160208510156101ad5750805b601f840160051c820191505b818110156101cc575f81556001016101b9565b50505b505050565b81516001600160401b038111156101ed576101ed61006c565b610201816101fb8454610150565b84610188565b602080601f831160018114610234575f841561021d5750858301515b5f19600386901b1c1916600185901b17855561028b565b5f85815260208120601f198616915b8281101561026257888601518255948401946001909101908401610243565b508582101561027f57878501515f19600388901b60f8161c191681555b505060018460011b0185555b505050505050565b60805160a051611eb26102c15f395f8181610105015261032501525f818160b1015261114a0152611eb25ff3fe608060405234801561000f575f80fd5b506004361061006f575f3560e01c80637dc0d1d01161004d5780637dc0d1d0146101005780639061b92314610127578063b4a858011461013a575f80fd5b806301ffc9a7146100735780633f15457f146100ac57806352539968146100eb575b5f80fd5b610097610081366004611513565b6001600160e01b031916639061b92360e01b1490565b60405190151581526020015b60405180910390f35b6100d37f000000000000000000000000000000000000000000000000000000000000000081565b6040516001600160a01b0390911681526020016100a3565b6100f361014d565b6040516100a3919061155c565b6100d37f000000000000000000000000000000000000000000000000000000000000000081565b6100f36101353660046115b3565b6101d8565b6100f36101483660046115b3565b610253565b5f80546101599061161a565b80601f01602080910402602001604051908101604052809291908181526020018280546101859061161a565b80156101d05780601f106101a7576101008083540402835291602001916101d0565b820191905f5260205f20905b8154815290600101906020018083116101b357829003601f168201915b505050505081565b606061024b85858080601f0160208091040260200160405190810160405280939291908181526020018383808284375f9201919091525050604080516020601f890181900481028201810190925287815292508791508690819084018382808284375f9201919091525061069992505050565b949350505050565b60605f808061026485870187611739565b919450925090506001600160e01b0319811615610313575f80838060200190518101906102919190611814565b91509150610307818686868e8e88306040516020016102b1929190611863565b60408051601f19818403018152908290526102d093929160240161188d565b60408051601f198184030181529190526020810180516001600160e01b03166001600160e01b031990931692909217909152610824565b9550505050505061024b565b5f610320888a018a6118ec565b90505f7f00000000000000000000000000000000000000000000000000000000000000006001600160a01b031663bdf95fef836040518263ffffffff1660e01b815260040161036f91906119eb565b5f60405180830381865afa158015610389573d5f803e3d5ffd5b505050506040513d5f823e601f3d908101601f191682016040526103b09190810190611a70565b5090505f6103be82826108ec565b90505b8051516020820151101561067d575f6103e1825f0151836020015161094d565b90506103ed8188610967565b15806104025750606082015161ffff16600114155b806104165750604082015161ffff16601014155b15610421575061066f565b5f80610439845f01518560a001518660c0015161098d565b90925090506001600160a01b0382161561066b576040516301ffc9a760e01b815263477cc53f60e11b60048201526001600160a01b038316906301ffc9a790602401602060405180830381865afa158015610496573d5f803e3d5ffd5b505050506040513d601f19601f820116820180604052508101906104ba9190611abc565b1561051957610509828a8a8c8c866040516024016104da93929190611adb565b60408051601f198184030181529190526020810180516001600160e01b031663477cc53f60e11b179052610824565b995050505050505050505061024b565b6040516301ffc9a760e01b8152639061b92360e01b60048201526001600160a01b038316906301ffc9a790602401602060405180830381865afa158015610562573d5f803e3d5ffd5b505050506040513d601f19601f820116820180604052508101906105869190611abc565b156105d357610509828a8a8c8c6040516024016105a4929190611b13565b60408051601f198184030181529190526020810180516001600160e01b0316639061b92360e01b179052610824565b5f80836001600160a01b03168a6040516105ed9190611b37565b5f60405180830381855afa9150503d805f8114610625576040519150601f19603f3d011682016040523d82523d5f602084013e61062a565b606091505b50915091508115610647579a5061024b9950505050505050505050565b8a6040516314d3b60360e11b8152600401610662919061155c565b60405180910390fd5b5050505b61067881610acd565b6103c1565b50846040516314d3b60360e11b8152600401610662919061155c565b6040805160018082528183019092525f91816020015b60608152602001906001900390816106af5790505090505f80546106d29061161a565b80601f01602080910402602001604051908101604052809291908181526020018280546106fe9061161a565b80156107495780601f1061072057610100808354040283529160200191610749565b820191905f5260205f20905b81548152906001019060200180831161072c57829003601f168201915b5050505050815f8151811061076057610760611b4d565b60200260200101819052503081846010604051602401610781929190611b61565b60408051601f19818403018152918152602080830180516001600160e01b03167f31b137b90000000000000000000000000000000000000000000000000000000017905290517fb4a8580100000000000000000000000000000000000000000000000000000000916107f991899189915f9101611b86565b60408051601f1981840301815290829052630556f18360e41b82526106629594939291600401611bc5565b60606001600160a01b0385163b61083f5761083f8484610699565b5f61084a8684610bb2565b90503d811561087e575f61085e5f83610bbe565b9050808060200190518101906108749190611c71565b935050505061024b565b600481106108da575f6108925f6004610bbe565b9050630556f18360e41b6108a582611ca3565b6001600160e01b031916036108d8575f6108c960046108c48186611cee565b610bbe565b90506108d6818a8a610c13565b505b505b6108e2610ca1565b5050949350505050565b6109346040518060e00160405280606081526020015f81526020015f61ffff1681526020015f61ffff1681526020015f63ffffffff1681526020015f81526020015f81525090565b82815260c0810182905261094781610acd565b92915050565b60605f61095a8484610ca9565b905061024b848483610d00565b5f81518351148015610986575081805190602001208380519060200120145b9392505050565b5f60605f61099c868686610d55565b90506005815110806109f057506040805180820190915260058082527f454e53312000000000000000000000000000000000000000000000000000000060208301526109ee9183915f91908290610d9e565b155b15610a0d57505060408051602081019091525f8082529150610ac5565b5f610a496005808451610a209190611cee565b8491907f2000000000000000000000000000000000000000000000000000000000000000610dc0565b90508151811115610a7e575f610a628360058551610e58565b60408051602081019091525f81529095509350610ac592505050565b5f610a8b83600584610e58565b905080610abd610a9c846001611d01565b6001858751610aab9190611cee565b610ab59190611cee565b869190610d00565b945094505050505b935093915050565b60c08101516020820181905281515111610ae45750565b5f610af6825f01518360200151610ca9565b8260200151610b059190611d01565b8251909150610b149082610f60565b61ffff166040830152610b28600282611d01565b8251909150610b379082610f60565b61ffff166060830152610b4b600282611d01565b8251909150610b5a9082610f81565b63ffffffff166080830152610b70600482611d01565b82519091505f90610b819083610f60565b61ffff169050610b92600283611d01565b60a084018190529150610ba58183611d01565b60c0909301929092525050565b5f61098683835a610f9d565b60608167ffffffffffffffff811115610bd957610bd9611652565b6040519080825280601f01601f191660200182016040528015610c03576020820181803683370190505b5090508183602083013e92915050565b5f805f805f87806020019051810190610c2c9190611d24565b94509450945094509450866001600160a01b0316856001600160a01b031614610c81576040517f398d4d3200000000000000000000000000000000000000000000000000000000815260040160405180910390fd5b30848463b4a8580160e01b8985876040516020016107f993929190611b86565b3d5f803e3d5ffd5b5f815b83518110610cbc57610cbc611e4d565b5f610cc78583611048565b60ff169050610cd7816001611d01565b610ce19083611d01565b9150805f03610cf05750610cf6565b50610cac565b61024b8382611cee565b60608167ffffffffffffffff811115610d1b57610d1b611652565b6040519080825280601f01601f191660200182016040528015610d45576020820181803683370190505b5090506109868484835f8661107a565b60605f610d628585611048565b60ff16905082610d728286611d01565b10610d7f57610d7f611e4d565b610d95610d8d856001611d01565b869083610d00565b95945050505050565b5f610daa8484846110b2565b610db58787856110b2565b149695505050505050565b5f80610dcc8486611d01565b90505b80851015610e4c57827effffffffffffffffffffffffffffffffffffffffffffffffffffffffffffff1916868681518110610e0c57610e0c611b4d565b01602001517fff000000000000000000000000000000000000000000000000000000000000001603610e41578491505061024b565b600190940193610dcf565b505f1995945050505050565b5f838381518110610e6b57610e6b611b4d565b6020910101517fff00000000000000000000000000000000000000000000000000000000000000167f3000000000000000000000000000000000000000000000000000000000000000148015610f23575083610ec8846001611d01565b81518110610ed857610ed8611b4d565b6020910101517fff00000000000000000000000000000000000000000000000000000000000000167f7800000000000000000000000000000000000000000000000000000000000000145b15610f55575f80610f40610f38866002611d01565b8790866110cb565b915091508015610f5257509050610986565b50505b61024b848484611101565b5f610f7583610f70846002611d01565b611257565b50016020015160f01c90565b5f610f9183610f70846004611d01565b50016020015160e01c90565b5f6001600160a01b0384163b611035576040517f08c379a000000000000000000000000000000000000000000000000000000000815260206004820152602e60248201527f4c6f774c6576656c43616c6c5574696c733a207374617469632063616c6c207460448201527f6f206e6f6e2d636f6e74726163740000000000000000000000000000000000006064820152608401610662565b5f808451602086018786fa949350505050565b5f61105883610f70846001611d01565b82828151811061106a5761106a611b4d565b016020015160f81c905092915050565b61108885610f708387611d01565b61109683610f708385611d01565b6110ab826020850101856020880101836112a3565b5050505050565b5f6110c184610f708486611d01565b5091016020012090565b5f80826110d9856028611d01565b146110e857505f905080610ac5565b5f6110f48686866112ec565b9097909650945050505050565b5f8061110e85858561135e565b6040517f0178b8bf000000000000000000000000000000000000000000000000000000008152600481018290529091505f906001600160a01b037f00000000000000000000000000000000000000000000000000000000000000001690630178b8bf90602401602060405180830381865afa15801561118f573d5f803e3d5ffd5b505050506040513d601f19601f820116820180604052508101906111b39190611e61565b90506001600160a01b0381166111cd575f92505050610986565b6040517f3b3b57de000000000000000000000000000000000000000000000000000000008152600481018390526001600160a01b03821690633b3b57de90602401602060405180830381865afa158015611229573d5f803e3d5ffd5b505050506040513d601f19601f8201168201806040525081019061124d9190611e61565b9695505050505050565b815181111561129f5781516040517f8a3c1cfb000000000000000000000000000000000000000000000000000000008152610662918391600401918252602082015260400190565b5050565b5b601f8111156112c4578151835260209283019290910190601f19016112a4565b80156112e757815183516001602084900360031b1b5f1901801990921691161783525b505050565b5f808383101561130057505f905080610ac5565b5f61130b8585611cee565b9050604081118061131c5750855184115b1561132d57505f9150819050610ac5565b85850160200161133e815f8461140f565b92506001820160011c6020035f518160031b1c9450505050935093915050565b5f8061139a848587516113719190611cee565b8791907f2e00000000000000000000000000000000000000000000000000000000000000610dc0565b90505f838210156113c1576113ba866113b4846001611d01565b8661135e565b90506113c5565b8391505b806113dc866113d48186611cee565b8991906110b2565b60408051602081019390935282015260600160405160208183030381529060405280519060200120925050509392505050565b5f61146d565b811a5f602f8211603a831016156114315750602f198101610947565b6047821060408311161561144a57506036198101610947565b6067821060608311161561146357506056198101610947565b5061010092915050565b506001838201828216156114a7576114865f8651611415565b80855360018601955060018501945060ff8111156114a5575f92508195505b505b808510156114f35784516114bc600182611415565b6114c65f83611415565b60041b17905060ff8111156114de575f9250506114f3565b808553506002850194506001840193506114a7565b509392505050565b6001600160e01b031981168114611510575f80fd5b50565b5f60208284031215611523575f80fd5b8135610986816114fb565b5f81518084528060208401602086015e5f602082860101526020601f19601f83011685010191505092915050565b602081525f610986602083018461152e565b5f8083601f84011261157e575f80fd5b50813567ffffffffffffffff811115611595575f80fd5b6020830191508360208285010111156115ac575f80fd5b9250929050565b5f805f80604085870312156115c6575f80fd5b843567ffffffffffffffff808211156115dd575f80fd5b6115e98883890161156e565b90965094506020870135915080821115611601575f80fd5b5061160e8782880161156e565b95989497509550505050565b600181811c9082168061162e57607f821691505b60208210810361164c57634e487b7160e01b5f52602260045260245ffd5b50919050565b634e487b7160e01b5f52604160045260245ffd5b6040805190810167ffffffffffffffff8111828210171561168957611689611652565b60405290565b604051601f8201601f1916810167ffffffffffffffff811182821017156116b8576116b8611652565b604052919050565b5f67ffffffffffffffff8211156116d9576116d9611652565b50601f01601f191660200190565b5f82601f8301126116f6575f80fd5b8135611709611704826116c0565b61168f565b81815284602083860101111561171d575f80fd5b816020850160208301375f918101602001919091529392505050565b5f805f6060848603121561174b575f80fd5b833567ffffffffffffffff80821115611762575f80fd5b61176e878388016116e7565b94506020860135915080821115611783575f80fd5b50611790868287016116e7565b92505060408401356117a1816114fb565b809150509250925092565b5f6117b9611704846116c0565b90508281528383830111156117cc575f80fd5b8282602083015e5f602084830101529392505050565b5f82601f8301126117f1575f80fd5b610986838351602085016117ac565b6001600160a01b0381168114611510575f80fd5b5f8060408385031215611825575f80fd5b825167ffffffffffffffff81111561183b575f80fd5b611847858286016117e2565b925050602083015161185881611800565b809150509250929050565b604081525f611875604083018561152e565b90506001600160a01b03831660208301529392505050565b60408152826040820152828460608301375f606084830101525f601f19601f8501168201606083820301602084015261124d606082018561152e565b5f67ffffffffffffffff8211156118e2576118e2611652565b5060051b60200190565b5f60208083850312156118fd575f80fd5b823567ffffffffffffffff80821115611914575f80fd5b818501915085601f830112611927575f80fd5b8135611935611704826118c9565b81815260059190911b83018401908481019088831115611953575f80fd5b8585015b838110156119de5780358581111561196d575f80fd5b86016040818c03601f1901811315611983575f80fd5b61198b611666565b898301358881111561199b575f80fd5b6119a98e8c838701016116e7565b8252509082013590878211156119bd575f80fd5b6119cb8d8b848601016116e7565b818b015285525050918601918601611957565b5098975050505050505050565b5f60208083018184528085518083526040925060408601915060408160051b8701018488015f5b83811015611a6257888303603f1901855281518051878552611a368886018261152e565b91890151858303868b0152919050611a4e818361152e565b968901969450505090860190600101611a12565b509098975050505050505050565b5f8060408385031215611a81575f80fd5b825167ffffffffffffffff811115611a97575f80fd5b611aa3858286016117e2565b925050602083015163ffffffff81168114611858575f80fd5b5f60208284031215611acc575f80fd5b81518015158114610986575f80fd5b606081525f611aed606083018661152e565b8281036020840152611aff818661152e565b9050828103604084015261124d818561152e565b604081525f611b25604083018561152e565b8281036020840152610d95818561152e565b5f82518060208501845e5f920191825250919050565b634e487b7160e01b5f52603260045260245ffd5b604081525f611b73604083018561152e565b905061ffff831660208301529392505050565b606081525f611b98606083018661152e565b8281036020840152611baa818661152e565b9150506001600160e01b031983166040830152949350505050565b5f60a082016001600160a01b0388168352602060a0602085015281885180845260c08601915060c08160051b870101935060208a015f5b82811015611c2a5760bf19888703018452611c1886835161152e565b95509284019290840190600101611bfc565b50505050508281036040840152611c41818761152e565b6001600160e01b03198616606085015290508281036080840152611c65818561152e565b98975050505050505050565b5f60208284031215611c81575f80fd5b815167ffffffffffffffff811115611c97575f80fd5b61024b848285016117e2565b5f815160208301516001600160e01b031980821693506004831015611cd25780818460040360031b1b83161693505b505050919050565b634e487b7160e01b5f52601160045260245ffd5b8181038181111561094757610947611cda565b8082018082111561094757610947611cda565b8051611d1f816114fb565b919050565b5f805f805f60a08688031215611d38575f80fd5b8551611d4381611800565b8095505060208087015167ffffffffffffffff80821115611d62575f80fd5b818901915089601f830112611d75575f80fd5b8151611d83611704826118c9565b81815260059190911b8301840190848101908c831115611da1575f80fd5b8585015b83811015611dea57805185811115611dbb575f80fd5b8601603f81018f13611dcb575f80fd5b611ddc8f89830151604084016117ac565b845250918601918601611da5565b5060408c01519099509450505080831115611e03575f80fd5b611e0f8a848b016117e2565b9550611e1d60608a01611d14565b94506080890151925080831115611e32575f80fd5b5050611e40888289016117e2565b9150509295509295909350565b634e487b7160e01b5f52600160045260245ffd5b5f60208284031215611e71575f80fd5b81516109868161180056fea26469706673582212201be14c742599b6894158e35c2f192ef71a06a036ba7f1cd466376ade94c124f064736f6c63430008190033",
  "linkReferences": {},
  "deployedLinkReferences": {},
  "immutableReferences": {
    "2543": [
      {
        "length": 32,
        "start": 177
      },
      {
        "length": 32,
        "start": 4426
      }
    ],
    "2546": [
      {
        "length": 32,
        "start": 261
      },
      {
        "length": 32,
        "start": 805
      }
    ]
  },
  "inputSourceName": "project/lib/ens-contracts/contracts/dnsregistrar/OffchainDNSResolver.sol",
  "devdoc": {
    "errors": {
      "OffchainLookup(address,string[],bytes,bytes4,bytes)": [
        {
          "details": "https://eips.ethereum.org/EIPS/eip-3668 Error selector: `0x556f1830`"
        }
      ],
      "OffsetOutOfBoundsError(uint256,uint256)": [
        {
          "details": "`offset` was beyond `length`.       Error selector: `0x8a3c1cfb`"
        }
      ]
    },
    "kind": "dev",
    "methods": {
      "supportsInterface(bytes4)": {
        "details": "Returns true if this contract implements the interface defined by `interfaceId`. See the corresponding https://eips.ethereum.org/EIPS/eip-165#how-interfaces-are-identified[EIP section] to learn more about how these ids are created. This function call must use less than 30 000 gas."
      }
    },
    "version": 1
  },
  "evm": {
    "gasEstimates": {
      "creation": {
        "codeDepositCost": "1571600",
        "executionCost": "infinite",
        "totalCost": "infinite"
      },
      "external": {
        "ens()": "infinite",
        "gatewayURL()": "infinite",
        "oracle()": "infinite",
        "resolve(bytes,bytes)": "infinite",
        "resolveCallback(bytes,bytes)": "infinite",
        "supportsInterface(bytes4)": "374"
      },
      "internal": {
        "callWithOffchainLookupPropagation(address,bytes memory,bytes memory,bytes memory)": "infinite",
        "handleOffchainLookupError(bytes memory,address,bytes memory)": "infinite",
        "parseAndResolve(bytes memory,uint256,uint256)": "infinite",
        "parseRR(bytes memory,uint256,uint256)": "infinite",
        "readTXT(bytes memory,uint256,uint256)": "infinite",
        "resolveName(bytes memory,uint256,uint256)": "infinite",
        "revertWithDefaultOffchainLookup(bytes memory,bytes memory)": "infinite",
        "textNamehash(bytes memory,uint256,uint256)": "infinite"
      }
    }
  },
  "storageLayout": {
    "storage": [
      {
        "astId": 2548,
        "contract": "project/lib/ens-contracts/contracts/dnsregistrar/OffchainDNSResolver.sol:OffchainDNSResolver",
        "label": "gatewayURL",
        "offset": 0,
        "slot": "0",
        "type": "t_string_storage"
      }
    ],
    "types": {
      "t_string_storage": {
        "encoding": "bytes",
        "label": "string",
        "numberOfBytes": "32"
      }
    }
  },
  "userdoc": {
    "kind": "user",
    "methods": {},
    "version": 1
  },
  "argsData": "0x000000000000000000000000cf7ed3acca5a467e9e704c703e8d87f634fb0fc90000000000000000000000009a9f2ccfde556a7e9ff0848998aa4a0cfd8863ae0000000000000000000000000000000000000000000000000000000000000060000000000000000000000000000000000000000000000000000000000000002268747470733a2f2f646e737365632d6f7261636c652e656e732e646f6d61696e732f000000000000000000000000000000000000000000000000000000000000",
  "transaction": {
    "hash": "0xc8eeac7e87e41d325358603e21e800607185786be3094704836b7154a6b22a9d",
    "nonce": "0x18",
    "origin": "0xf39fd6e51aad88f6f4ce6ab8827279cfffb92266"
  }
}