{
  "address": "0x1291be112d480055dafd8a610b7d1e203891c274",
  "abi": [
    {
      "inputs": [
        {
          "internalType": "bytes",
          "name": "addressBytes",
          "type": "bytes"
        }
      ],
      "name": "InvalidEVMAddress",
      "type": "error"
    },
    {
      "inputs": [
        {
          "internalType": "uint256",
          "name": "offset",
          "type": "uint256"
        },
        {
          "internalType": "uint256",
          "name": "length",
          "type": "uint256"
        }
      ],
      "name": "OffsetOutOfBoundsError",
      "type": "error"
    },
    {
      "anonymous": false,
      "inputs": [
        {
          "indexed": true,
          "internalType": "bytes32",
          "name": "node",
          "type": "bytes32"
        },
        {
          "indexed": true,
          "internalType": "uint256",
          "name": "contentType",
          "type": "uint256"
        }
      ],
      "name": "ABIChanged",
      "type": "event"
    },
    {
      "anonymous": false,
      "inputs": [
        {
          "indexed": true,
          "internalType": "bytes32",
          "name": "node",
          "type": "bytes32"
        },
        {
          "indexed": false,
          "internalType": "address",
          "name": "a",
          "type": "address"
        }
      ],
      "name": "AddrChanged",
      "type": "event"
    },
    {
      "anonymous": false,
      "inputs": [
        {
          "indexed": true,
          "internalType": "bytes32",
          "name": "node",
          "type": "bytes32"
        },
        {
          "indexed": false,
          "internalType": "uint256",
          "name": "coinType",
          "type": "uint256"
        },
        {
          "indexed": false,
          "internalType": "bytes",
          "name": "newAddress",
          "type": "bytes"
        }
      ],
      "name": "AddressChanged",
      "type": "event"
    },
    {
      "anonymous": false,
      "inputs": [
        {
          "indexed": true,
          "internalType": "bytes32",
          "name": "node",
          "type": "bytes32"
        },
        {
          "indexed": false,
          "internalType": "bytes",
          "name": "hash",
          "type": "bytes"
        }
      ],
      "name": "ContenthashChanged",
      "type": "event"
    },
    {
      "anonymous": false,
      "inputs": [
        {
          "indexed": true,
          "internalType": "bytes32",
          "name": "node",
          "type": "bytes32"
        },
        {
          "indexed": false,
          "internalType": "bytes",
          "name": "name",
          "type": "bytes"
        },
        {
          "indexed": false,
          "internalType": "uint16",
          "name": "resource",
          "type": "uint16"
        },
        {
          "indexed": false,
          "internalType": "bytes",
          "name": "record",
          "type": "bytes"
        }
      ],
      "name": "DNSRecordChanged",
      "type": "event"
    },
    {
      "anonymous": false,
      "inputs": [
        {
          "indexed": true,
          "internalType": "bytes32",
          "name": "node",
          "type": "bytes32"
        },
        {
          "indexed": false,
          "internalType": "bytes",
          "name": "name",
          "type": "bytes"
        },
        {
          "indexed": false,
          "internalType": "uint16",
          "name": "resource",
          "type": "uint16"
        }
      ],
      "name": "DNSRecordDeleted",
      "type": "event"
    },
    {
      "anonymous": false,
      "inputs": [
        {
          "indexed": true,
          "internalType": "bytes32",
          "name": "node",
          "type": "bytes32"
        },
        {
          "indexed": false,
          "internalType": "bytes",
          "name": "lastzonehash",
          "type": "bytes"
        },
        {
          "indexed": false,
          "internalType": "bytes",
          "name": "zonehash",
          "type": "bytes"
        }
      ],
      "name": "DNSZonehashChanged",
      "type": "event"
    },
    {
      "anonymous": false,
      "inputs": [
        {
          "indexed": true,
          "internalType": "bytes32",
          "name": "node",
          "type": "bytes32"
        },
        {
          "indexed": true,
          "internalType": "bytes4",
          "name": "interfaceID",
          "type": "bytes4"
        },
        {
          "indexed": false,
          "internalType": "address",
          "name": "implementer",
          "type": "address"
        }
      ],
      "name": "InterfaceChanged",
      "type": "event"
    },
    {
      "anonymous": false,
      "inputs": [
        {
          "indexed": true,
          "internalType": "bytes32",
          "name": "node",
          "type": "bytes32"
        },
        {
          "indexed": false,
          "internalType": "string",
          "name": "name",
          "type": "string"
        }
      ],
      "name": "NameChanged",
      "type": "event"
    },
    {
      "anonymous": false,
      "inputs": [
        {
          "indexed": true,
          "internalType": "address",
          "name": "previousOwner",
          "type": "address"
        },
        {
          "indexed": true,
          "internalType": "address",
          "name": "newOwner",
          "type": "address"
        }
      ],
      "name": "OwnershipTransferred",
      "type": "event"
    },
    {
      "anonymous": false,
      "inputs": [
        {
          "indexed": true,
          "internalType": "bytes32",
          "name": "node",
          "type": "bytes32"
        },
        {
          "indexed": false,
          "internalType": "bytes32",
          "name": "x",
          "type": "bytes32"
        },
        {
          "indexed": false,
          "internalType": "bytes32",
          "name": "y",
          "type": "bytes32"
        }
      ],
      "name": "PubkeyChanged",
      "type": "event"
    },
    {
      "anonymous": false,
      "inputs": [
        {
          "indexed": true,
          "internalType": "bytes32",
          "name": "node",
          "type": "bytes32"
        },
        {
          "indexed": true,
          "internalType": "string",
          "name": "indexedKey",
          "type": "string"
        },
        {
          "indexed": false,
          "internalType": "string",
          "name": "key",
          "type": "string"
        },
        {
          "indexed": false,
          "internalType": "string",
          "name": "value",
          "type": "string"
        }
      ],
      "name": "TextChanged",
      "type": "event"
    },
    {
      "anonymous": false,
      "inputs": [
        {
          "indexed": true,
          "internalType": "bytes32",
          "name": "node",
          "type": "bytes32"
        },
        {
          "indexed": false,
          "internalType": "uint64",
          "name": "newVersion",
          "type": "uint64"
        }
      ],
      "name": "VersionChanged",
      "type": "event"
    },
    {
      "inputs": [
        {
          "internalType": "bytes32",
          "name": "node",
          "type": "bytes32"
        },
        {
          "internalType": "uint256",
          "name": "contentTypes",
          "type": "uint256"
        }
      ],
      "name": "ABI",
      "outputs": [
        {
          "internalType": "uint256",
          "name": "",
          "type": "uint256"
        },
        {
          "internalType": "bytes",
          "name": "",
          "type": "bytes"
        }
      ],
      "stateMutability": "view",
      "type": "function"
    },
    {
      "inputs": [
        {
          "internalType": "bytes32",
          "name": "node",
          "type": "bytes32"
        }
      ],
      "name": "addr",
      "outputs": [
        {
          "internalType": "address payable",
          "name": "",
          "type": "address"
        }
      ],
      "stateMutability": "view",
      "type": "function"
    },
    {
      "inputs": [
        {
          "internalType": "bytes32",
          "name": "node",
          "type": "bytes32"
        },
        {
          "internalType": "uint256",
          "name": "coinType",
          "type": "uint256"
        }
      ],
      "name": "addr",
      "outputs": [
        {
          "internalType": "bytes",
          "name": "addressBytes",
          "type": "bytes"
        }
      ],
      "stateMutability": "view",
      "type": "function"
    },
    {
      "inputs": [
        {
          "internalType": "bytes32",
          "name": "node",
          "type": "bytes32"
        }
      ],
      "name": "clearRecords",
      "outputs": [],
      "stateMutability": "nonpayable",
      "type": "function"
    },
    {
      "inputs": [
        {
          "internalType": "bytes32",
          "name": "node",
          "type": "bytes32"
        }
      ],
      "name": "contenthash",
      "outputs": [
        {
          "internalType": "bytes",
          "name": "",
          "type": "bytes"
        }
      ],
      "stateMutability": "view",
      "type": "function"
    },
    {
      "inputs": [
        {
          "internalType": "bytes32",
          "name": "node",
          "type": "bytes32"
        },
        {
          "internalType": "bytes32",
          "name": "name",
          "type": "bytes32"
        },
        {
          "internalType": "uint16",
          "name": "resource",
          "type": "uint16"
        }
      ],
      "name": "dnsRecord",
      "outputs": [
        {
          "internalType": "bytes",
          "name": "",
          "type": "bytes"
        }
      ],
      "stateMutability": "view",
      "type": "function"
    },
    {
      "inputs": [
        {
          "internalType": "bytes32",
          "name": "node",
          "type": "bytes32"
        },
        {
          "internalType": "uint256",
          "name": "coinType",
          "type": "uint256"
        }
      ],
      "name": "hasAddr",
      "outputs": [
        {
          "internalType": "bool",
          "name": "",
          "type": "bool"
        }
      ],
      "stateMutability": "view",
      "type": "function"
    },
    {
      "inputs": [
        {
          "internalType": "bytes32",
          "name": "node",
          "type": "bytes32"
        },
        {
          "internalType": "bytes32",
          "name": "name",
          "type": "bytes32"
        }
      ],
      "name": "hasDNSRecords",
      "outputs": [
        {
          "internalType": "bool",
          "name": "",
          "type": "bool"
        }
      ],
      "stateMutability": "view",
      "type": "function"
    },
    {
      "inputs": [
        {
          "internalType": "bytes32",
          "name": "node",
          "type": "bytes32"
        },
        {
          "internalType": "bytes4",
          "name": "interfaceID",
          "type": "bytes4"
        }
      ],
      "name": "interfaceImplementer",
      "outputs": [
        {
          "internalType": "address",
          "name": "",
          "type": "address"
        }
      ],
      "stateMutability": "view",
      "type": "function"
    },
    {
      "inputs": [
        {
          "internalType": "bytes32",
          "name": "node",
          "type": "bytes32"
        }
      ],
      "name": "name",
      "outputs": [
        {
          "internalType": "string",
          "name": "",
          "type": "string"
        }
      ],
      "stateMutability": "view",
      "type": "function"
    },
    {
      "inputs": [],
      "name": "owner",
      "outputs": [
        {
          "internalType": "address",
          "name": "",
          "type": "address"
        }
      ],
      "stateMutability": "view",
      "type": "function"
    },
    {
      "inputs": [
        {
          "internalType": "bytes32",
          "name": "node",
          "type": "bytes32"
        }
      ],
      "name": "pubkey",
      "outputs": [
        {
          "internalType": "bytes32",
          "name": "x",
          "type": "bytes32"
        },
        {
          "internalType": "bytes32",
          "name": "y",
          "type": "bytes32"
        }
      ],
      "stateMutability": "view",
      "type": "function"
    },
    {
      "inputs": [
        {
          "internalType": "bytes32",
          "name": "",
          "type": "bytes32"
        }
      ],
      "name": "recordVersions",
      "outputs": [
        {
          "internalType": "uint64",
          "name": "",
          "type": "uint64"
        }
      ],
      "stateMutability": "view",
      "type": "function"
    },
    {
      "inputs": [],
      "name": "renounceOwnership",
      "outputs": [],
      "stateMutability": "nonpayable",
      "type": "function"
    },
    {
      "inputs": [
        {
          "internalType": "bytes",
          "name": "",
          "type": "bytes"
        },
        {
          "internalType": "bytes",
          "name": "data",
          "type": "bytes"
        }
      ],
      "name": "resolve",
      "outputs": [
        {
          "internalType": "bytes",
          "name": "",
          "type": "bytes"
        }
      ],
      "stateMutability": "view",
      "type": "function"
    },
    {
      "inputs": [
        {
          "internalType": "bytes32",
          "name": "node",
          "type": "bytes32"
        },
        {
          "internalType": "uint256",
          "name": "contentType",
          "type": "uint256"
        },
        {
          "internalType": "bytes",
          "name": "data",
          "type": "bytes"
        }
      ],
      "name": "setABI",
      "outputs": [],
      "stateMutability": "nonpayable",
      "type": "function"
    },
    {
      "inputs": [
        {
          "internalType": "bytes32",
          "name": "node",
          "type": "bytes32"
        },
        {
          "internalType": "uint256",
          "name": "coinType",
          "type": "uint256"
        },
        {
          "internalType": "bytes",
          "name": "addressBytes",
          "type": "bytes"
        }
      ],
      "name": "setAddr",
      "outputs": [],
      "stateMutability": "nonpayable",
      "type": "function"
    },
    {
      "inputs": [
        {
          "internalType": "bytes32",
          "name": "node",
          "type": "bytes32"
        },
        {
          "internalType": "address",
          "name": "_addr",
          "type": "address"
        }
      ],
      "name": "setAddr",
      "outputs": [],
      "stateMutability": "nonpayable",
      "type": "function"
    },
    {
      "inputs": [
        {
          "internalType": "bytes32",
          "name": "node",
          "type": "bytes32"
        },
        {
          "internalType": "bytes",
          "name": "hash",
          "type": "bytes"
        }
      ],
      "name": "setContenthash",
      "outputs": [],
      "stateMutability": "nonpayable",
      "type": "function"
    },
    {
      "inputs": [
        {
          "internalType": "bytes32",
          "name": "node",
          "type": "bytes32"
        },
        {
          "internalType": "bytes",
          "name": "data",
          "type": "bytes"
        }
      ],
      "name": "setDNSRecords",
      "outputs": [],
      "stateMutability": "nonpayable",
      "type": "function"
    },
    {
      "inputs": [
        {
          "internalType": "bytes32",
          "name": "node",
          "type": "bytes32"
        },
        {
          "internalType": "bytes4",
          "name": "interfaceID",
          "type": "bytes4"
        },
        {
          "internalType": "address",
          "name": "implementer",
          "type": "address"
        }
      ],
      "name": "setInterface",
      "outputs": [],
      "stateMutability": "nonpayable",
      "type": "function"
    },
    {
      "inputs": [
        {
          "internalType": "bytes32",
          "name": "node",
          "type": "bytes32"
        },
        {
          "internalType": "string",
          "name": "newName",
          "type": "string"
        }
      ],
      "name": "setName",
      "outputs": [],
      "stateMutability": "nonpayable",
      "type": "function"
    },
    {
      "inputs": [
        {
          "internalType": "bytes32",
          "name": "node",
          "type": "bytes32"
        },
        {
          "internalType": "bytes32",
          "name": "x",
          "type": "bytes32"
        },
        {
          "internalType": "bytes32",
          "name": "y",
          "type": "bytes32"
        }
      ],
      "name": "setPubkey",
      "outputs": [],
      "stateMutability": "nonpayable",
      "type": "function"
    },
    {
      "inputs": [
        {
          "internalType": "bytes32",
          "name": "node",
          "type": "bytes32"
        },
        {
          "internalType": "string",
          "name": "key",
          "type": "string"
        },
        {
          "internalType": "string",
          "name": "value",
          "type": "string"
        }
      ],
      "name": "setText",
      "outputs": [],
      "stateMutability": "nonpayable",
      "type": "function"
    },
    {
      "inputs": [
        {
          "internalType": "bytes32",
          "name": "node",
          "type": "bytes32"
        },
        {
          "internalType": "bytes",
          "name": "hash",
          "type": "bytes"
        }
      ],
      "name": "setZonehash",
      "outputs": [],
      "stateMutability": "nonpayable",
      "type": "function"
    },
    {
      "inputs": [
        {
          "internalType": "bytes4",
          "name": "interfaceID",
          "type": "bytes4"
        }
      ],
      "name": "supportsInterface",
      "outputs": [
        {
          "internalType": "bool",
          "name": "",
          "type": "bool"
        }
      ],
      "stateMutability": "view",
      "type": "function"
    },
    {
      "inputs": [
        {
          "internalType": "bytes32",
          "name": "node",
          "type": "bytes32"
        },
        {
          "internalType": "string",
          "name": "key",
          "type": "string"
        }
      ],
      "name": "text",
      "outputs": [
        {
          "internalType": "string",
          "name": "",
          "type": "string"
        }
      ],
      "stateMutability": "view",
      "type": "function"
    },
    {
      "inputs": [
        {
          "internalType": "address",
          "name": "newOwner",
          "type": "address"
        }
      ],
      "name": "transferOwnership",
      "outputs": [],
      "stateMutability": "nonpayable",
      "type": "function"
    },
    {
      "inputs": [
        {
          "internalType": "bytes32",
          "name": "node",
          "type": "bytes32"
        }
      ],
      "name": "zonehash",
      "outputs": [
        {
          "internalType": "bytes",
          "name": "",
          "type": "bytes"
        }
      ],
      "stateMutability": "view",
      "type": "function"
    }
  ],
  "contractName": "OwnedResolver",
  "sourceName": "lib/ens-contracts/contracts/resolvers/OwnedResolver.sol",
  "bytecode": "0x6080604052348015600e575f80fd5b50601633601a565b6069565b5f80546001600160a01b038381166001600160a01b0319831681178455604051919092169283917f8be0079c531659141344cd1fd0a4f28419497f9722a3daafe3b4186f6b6457e09190a35050565b612a38806100765f395ff3fe608060405234801561000f575f80fd5b50600436106101c6575f3560e01c8063691f3431116100fe578063bc1c58d11161009e578063d700ff331161006e578063d700ff3314610461578063e59d895d146104a3578063f1cb7e06146104b6578063f2fde38b146104c9575f80fd5b8063bc1c58d1146103cf578063c8690233146103e2578063ce3decdc1461043b578063d5fa2b001461044e575f80fd5b80638b95dd71116100d95780638b95dd71146103865780638da5cb5b146103995780639061b923146103a9578063a8fa5682146103bc575f80fd5b8063691f343114610358578063715018a61461036b5780637737221314610373575f80fd5b806332f111d7116101695780634cbf6ba4116101445780634cbf6ba4146102c557806359d1d43c146103125780635c98042b14610332578063623195b014610345575f80fd5b806332f111d71461028c5780633603d7581461029f5780633b3b57de146102b2575f80fd5b8063124a319c116101a4578063124a319c1461021a5780632203ab561461024557806329cd62ea14610266578063304e6ade14610279575f80fd5b806301ffc9a7146101ca5780630af179d7146101f257806310f13a8c14610207575b5f80fd5b6101dd6101d83660046121b1565b6104dc565b60405190151581526020015b60405180910390f35b610205610200366004612208565b6104ec565b005b610205610215366004612250565b6106f6565b61022d6102283660046122c4565b6107c8565b6040516001600160a01b0390911681526020016101e9565b6102586102533660046122ee565b610a6a565b6040516101e992919061233c565b610205610274366004612354565b610ba7565b610205610287366004612208565b610c4c565b6101dd61029a3660046122ee565b610ccd565b6102056102ad36600461237d565b610d1a565b61022d6102c036600461237d565b610dc1565b6101dd6102d33660046122ee565b5f8281526001602090815260408083205467ffffffffffffffff1683526007825280832094835293815283822092825291909152205461ffff16151590565b610325610320366004612208565b610ddf565b6040516101e99190612394565b61032561034036600461237d565b610ebf565b6102056103533660046123a6565b610f7d565b61032561036636600461237d565b61101d565b610205611058565b610205610381366004612208565b61106b565b610205610394366004612492565b6110ec565b5f546001600160a01b031661022d565b6103256103b73660046124de565b611230565b6103256103ca36600461253e565b6112a5565b6103256103dd36600461237d565b6112f4565b6104266103f036600461237d565b5f8181526001602081815260408084205467ffffffffffffffff168452600a825280842094845293905291902080549101549091565b604080519283526020830191909152016101e9565b610205610449366004612208565b61132f565b61020561045c366004612590565b611474565b61048a61046f36600461237d565b60016020525f908152604090205467ffffffffffffffff1681565b60405167ffffffffffffffff90911681526020016101e9565b6102056104b13660046125b1565b6114cc565b6103256104c43660046122ee565b611585565b6102056104d73660046125ea565b61170e565b5f6104e68261179e565b92915050565b5f5483906001600160a01b03163314610503575f80fd5b5f848152600160209081526040808320548151601f870184900484028101840190925285825283926060928392859267ffffffffffffffff9091169183916105699183918d908d90819084018382808284375f9201919091525092939250506117db9050565b90505b80515160208201511015610690578661ffff165f036105d0578060400151965061059581611836565b9450846040516020016105a89190612603565b6040516020818303038152906040528051906020012092506105c981611857565b9350610682565b5f6105da82611836565b9050816040015161ffff168861ffff161415806105fe57506105fc8682611873565b155b15610680576106598c878a8e8e8080601f0160208091040260200160405190810160405280939291908181526020018383808284375f92019190915250505060208801518d915061065090829061262d565b8b51158a611898565b81604001519750816020015196508095508580519060200120935061067d82611857565b94505b505b61068b81611afd565b61056c565b508351156106ea576106ea8a85888c8c8080601f0160208091040260200160405190810160405280939291908181526020018383808284375f920191909152508c92506106e191508290508f61262d565b89511588611898565b50505050505050505050565b5f5485906001600160a01b0316331461070d575f80fd5b5f8681526001602090815260408083205467ffffffffffffffff168352600b82528083208984529091529081902090518491849161074e9089908990612640565b908152602001604051809103902091826107699291906126cb565b50848460405161077a929190612640565b6040518091039020867f448bc014f1536726cf8d54ff3d6481ed3cbc683c2591ca204274009afa09b1a1878787876040516107b894939291906127ad565b60405180910390a3505050505050565b5f8281526001602090815260408083205467ffffffffffffffff1683526008825280832085845282528083206001600160e01b0319851684529091528120546001600160a01b0316801561081d5790506104e6565b5f61082785610dc1565b90506001600160a01b038116610841575f925050506104e6565b6040516301ffc9a760e01b60248201525f9081906001600160a01b0384169060440160408051601f198184030181529181526020820180517bffffffffffffffffffffffffffffffffffffffffffffffffffffffff166301ffc9a760e01b179052516108ad9190612603565b5f60405180830381855afa9150503d805f81146108e5576040519150601f19603f3d011682016040523d82523d5f602084013e6108ea565b606091505b50915091508115806108fd575060208151105b8061093f575080601f81518110610916576109166127de565b01602001517fff0000000000000000000000000000000000000000000000000000000000000016155b15610950575f9450505050506104e6565b6040516001600160e01b0319871660248201526001600160a01b0384169060440160408051601f198184030181529181526020820180517bffffffffffffffffffffffffffffffffffffffffffffffffffffffff166301ffc9a760e01b179052516109bb9190612603565b5f60405180830381855afa9150503d805f81146109f3576040519150601f19603f3d011682016040523d82523d5f602084013e6109f8565b606091505b509092509050811580610a0c575060208151105b80610a4e575080601f81518110610a2557610a256127de565b01602001517fff0000000000000000000000000000000000000000000000000000000000000016155b15610a5f575f9450505050506104e6565b509095945050505050565b5f8281526001602081815260408084205467ffffffffffffffff1684526002825280842086855290915282206060915b5f81118015610aa95750848111155b15610b895780851615801590610ad657505f8181526020839052604081208054610ad29061264f565b9050115b15610b815780825f8381526020019081526020015f20808054610af89061264f565b80601f0160208091040260200160405190810160405280929190818152602001828054610b249061264f565b8015610b6f5780601f10610b4657610100808354040283529160200191610b6f565b820191905f5260205f20905b815481529060010190602001808311610b5257829003601f168201915b50505050509050935093505050610ba0565b60011b610a9a565b505f60405180602001604052805f81525092509250505b9250929050565b5f5483906001600160a01b03163314610bbe575f80fd5b60408051808201825284815260208082018581525f88815260018084528582205467ffffffffffffffff168252600a84528582208a835290935284902092518355519101555184907f1d6f5e03d3f63eb58751986629a5439baee5079ff04f345becb66e23eb154e4690610c3e9086908690918252602082015260400190565b60405180910390a250505050565b5f5483906001600160a01b03163314610c63575f80fd5b5f8481526001602090815260408083205467ffffffffffffffff168352600482528083208784529091529020610c9a8385836126cb565b50837fe379c1624ed7e714cc0937528a32359d69d5281337765313dba4e081b72d75788484604051610c3e9291906127f2565b5f8281526001602090815260408083205467ffffffffffffffff16835260038252808320858452825280832084845290915281208054829190610d0f9061264f565b905011905092915050565b5f5481906001600160a01b03163314610d31575f80fd5b5f828152600160205260408120805467ffffffffffffffff1691610d5483612805565b82546101009290920a67ffffffffffffffff8181021990931691831602179091555f848152600160209081526040918290205491519190921681528492507fc6621ccb8f3f5a04bb6502154b2caf6adf5983fe76dfef1cfc9c42e3579db444910160405180910390a25050565b5f610dcd82603c611585565b610dd69061282b565b60601c92915050565b5f8381526001602090815260408083205467ffffffffffffffff168352600b825280832086845290915290819020905160609190610e209085908590612640565b90815260200160405180910390208054610e399061264f565b80601f0160208091040260200160405190810160405280929190818152602001828054610e659061264f565b8015610eb05780601f10610e8757610100808354040283529160200191610eb0565b820191905f5260205f20905b815481529060010190602001808311610e9357829003601f168201915b505050505090505b9392505050565b5f8181526001602090815260408083205467ffffffffffffffff168352600582528083208484529091529020805460609190610efa9061264f565b80601f0160208091040260200160405190810160405280929190818152602001828054610f269061264f565b8015610f715780601f10610f4857610100808354040283529160200191610f71565b820191905f5260205f20905b815481529060010190602001808311610f5457829003601f168201915b50505050509050919050565b5f5484906001600160a01b03163314610f94575f80fd5b83610fa060018261262d565b1615610faa575f80fd5b5f8581526001602090815260408083205467ffffffffffffffff1683526002825280832088845282528083208784529091529020610fe98385836126cb565b50604051849086907faa121bbeef5f32f5961a2a28966e769023910fc9479059ee3495d4c1a696efe3905f90a35050505050565b5f8181526001602090815260408083205467ffffffffffffffff168352600982528083208484529091529020805460609190610efa9061264f565b611060611be2565b6110695f611c3b565b565b5f5483906001600160a01b03163314611082575f80fd5b5f8481526001602090815260408083205467ffffffffffffffff1683526009825280832087845290915290206110b98385836126cb565b50837fb7d29e911041e8d9b843369e890bcb72c9388692ba48b65ac54e7214c4c348f78484604051610c3e9291906127f2565b5f5483906001600160a01b03163314611103575f80fd5b81511580159061111557508151601414155b8015611125575061112583611c97565b1561116757816040517f8d666f6000000000000000000000000000000000000000000000000000000000815260040161115e9190612394565b60405180910390fd5b837f65412581168e88a1e60c6459d7f44ae83ad0832e670826c05a4e2476b57af752848460405161119992919061233c565b60405180910390a2603c83036111eb57837f52d7d861f09ab3d26239d492e8968629f95e9e318cf0b73bfddc441522a15fd26111d48461282b565b60405160609190911c815260200160405180910390a25b5f8481526001602090815260408083205467ffffffffffffffff16835260038252808320878452825280832086845290915290206112298382612867565b5050505050565b60605f80306001600160a01b03168460405161124c9190612603565b5f60405180830381855afa9150503d805f8114611284576040519150601f19603f3d011682016040523d82523d5f602084013e611289565b606091505b5091509150811561129d5791506104e69050565b805160208201fd5b5f8381526001602090815260408083205467ffffffffffffffff168352600682528083208684528252808320858452825280832061ffff851684529091529020805460609190610e399061264f565b5f8181526001602090815260408083205467ffffffffffffffff168352600482528083208484529091529020805460609190610efa9061264f565b5f5483906001600160a01b03163314611346575f80fd5b5f8481526001602090815260408083205467ffffffffffffffff1680845260058352818420888552909252822080549192916113819061264f565b80601f01602080910402602001604051908101604052809291908181526020018280546113ad9061264f565b80156113f85780601f106113cf576101008083540402835291602001916113f8565b820191905f5260205f20905b8154815290600101906020018083116113db57829003601f168201915b5050505067ffffffffffffffff84165f9081526005602090815260408083208b8452909152902091925061142f90508587836126cb565b50857f8f15ed4b723ef428f250961da8315675b507046737e19319fc1a4d81bfe87f8582878760405161146493929190612927565b60405180910390a2505050505050565b5f5482906001600160a01b0316331461148b575f80fd5b6040516bffffffffffffffffffffffff19606084901b1660208201526114c7908490603c906034016040516020818303038152906040526110ec565b505050565b5f5483906001600160a01b031633146114e3575f80fd5b5f8481526001602090815260408083205467ffffffffffffffff1683526008825280832087845282528083206001600160e01b0319871680855290835292819020805473ffffffffffffffffffffffffffffffffffffffff19166001600160a01b038716908117909155905190815286917f7c69f06bea0bdef565b709e93a147836b0063ba2dd89f02d0b7e8d931e6a6daa910160405180910390a350505050565b5f8281526001602090815260408083205467ffffffffffffffff16835260038252808320858452825280832084845291829052909120805460609291906115cb9061264f565b80601f01602080910402602001604051908101604052809291908181526020018280546115f79061264f565b80156116425780601f1061161957610100808354040283529160200191611642565b820191905f5260205f20905b81548152906001019060200180831161162557829003601f168201915b5050505050915081515f14801561166657505f61165e84611cbc565b63ffffffff16115b156117075763800000005f90815260208290526040902080546116889061264f565b80601f01602080910402602001604051908101604052809291908181526020018280546116b49061264f565b80156116ff5780601f106116d6576101008083540402835291602001916116ff565b820191905f5260205f20905b8154815290600101906020018083116116e257829003601f168201915b505050505091505b5092915050565b611716611be2565b6001600160a01b0381166117925760405162461bcd60e51b815260206004820152602660248201527f4f776e61626c653a206e6577206f776e657220697320746865207a65726f206160448201527f6464726573730000000000000000000000000000000000000000000000000000606482015260840161115e565b61179b81611c3b565b50565b5f6001600160e01b031982167f59d1d43c0000000000000000000000000000000000000000000000000000000014806104e657506104e682611ce6565b6118236040518060e00160405280606081526020015f81526020015f61ffff1681526020015f61ffff1681526020015f63ffffffff1681526020015f81526020015f81525090565b82815260c081018290526104e681611afd565b602081015181516060916104e69161184e9082611d23565b84519190611d82565b60a081015160c08201516060916104e69161184e90829061262d565b5f81518351148015610eb8575081805190602001208380519060200120149392505050565b865160208801205f6118ab878787611d82565b905083156119d25767ffffffffffffffff83165f9081526006602090815260408083208d84528252808320858452825280832061ffff8c168452909152902080546118f59061264f565b1590506119535767ffffffffffffffff83165f9081526007602090815260408083208d845282528083208584529091528120805461ffff169161193783612956565b91906101000a81548161ffff021916908361ffff160217905550505b67ffffffffffffffff83165f9081526006602090815260408083208d84528252808320858452825280832061ffff8c16845290915281206119939161214f565b897f03528ed0c2a3ebc993b12ce3c16bb382f9c7d88ef7d8a1bf290eaf35955a12078a8a6040516119c5929190612972565b60405180910390a26106ea565b67ffffffffffffffff83165f9081526006602090815260408083208d84528252808320858452825280832061ffff8c16845290915290208054611a149061264f565b90505f03611a735767ffffffffffffffff83165f9081526007602090815260408083208d845282528083208584529091528120805461ffff1691611a5783612997565b91906101000a81548161ffff021916908361ffff160217905550505b67ffffffffffffffff83165f9081526006602090815260408083208d84528252808320858452825280832061ffff8c1684529091529020611ab48282612867565b50897f52a608b3303a48862d07a73d82fa221318c0027fbbcfb1b2329bface3f19ff2b8a8a84604051611ae9939291906129ad565b60405180910390a250505050505050505050565b60c08101516020820181905281515111611b145750565b5f611b26825f01518360200151611d23565b8260200151611b3591906129db565b8251909150611b449082611dd7565b61ffff166040830152611b586002826129db565b8251909150611b679082611dd7565b61ffff166060830152611b7b6002826129db565b8251909150611b8a9082611df8565b63ffffffff166080830152611ba06004826129db565b82519091505f90611bb19083611dd7565b61ffff169050611bc26002836129db565b60a084018190529150611bd581836129db565b60c0909301929092525050565b5f546001600160a01b031633146110695760405162461bcd60e51b815260206004820181905260248201527f4f776e61626c653a2063616c6c6572206973206e6f7420746865206f776e6572604482015260640161115e565b5f80546001600160a01b0383811673ffffffffffffffffffffffffffffffffffffffff19831681178455604051919092169283917f8be0079c531659141344cd1fd0a4f28419497f9722a3daafe3b4186f6b6457e09190a35050565b5f63800000008214806104e657505f611caf83611cbc565b63ffffffff161192915050565b5f603c8203611ccd57506001919050565b6380000000918218918210611ce2575f6104e6565b5090565b5f6001600160e01b031982167fc86902330000000000000000000000000000000000000000000000000000000014806104e657506104e682611e14565b5f815b83518110611d3657611d366129ee565b5f611d418583611e51565b60ff169050611d518160016129db565b611d5b90836129db565b9150805f03611d6a5750611d70565b50611d26565b611d7a838261262d565b949350505050565b60608167ffffffffffffffff811115611d9d57611d9d6123f5565b6040519080825280601f01601f191660200182016040528015611dc7576020820181803683370190505b509050610eb88484835f86611e83565b5f611dec83611de78460026129db565b611eb4565b50016020015160f01c90565b5f611e0883611de78460046129db565b50016020015160e01c90565b5f6001600160e01b031982167f691f34310000000000000000000000000000000000000000000000000000000014806104e657506104e682611f00565b5f611e6183611de78460016129db565b828281518110611e7357611e736127de565b016020015160f81c905092915050565b611e9185611de783876129db565b611e9f83611de783856129db565b61122982602085010185602088010183611f3d565b8151811115611efc5781516040517f8a3c1cfb00000000000000000000000000000000000000000000000000000000815261115e918391600401918252602082015260400190565b5050565b5f6001600160e01b031982167f124a319c0000000000000000000000000000000000000000000000000000000014806104e657506104e682611f86565b5b601f811115611f5e578151835260209283019290910190601f1901611f3e565b80156114c75790518251600160209390930360031b9290921b5f190180199091169116179052565b5f6001600160e01b031982167fa8fa5682000000000000000000000000000000000000000000000000000000001480611fe857506001600160e01b031982167f5c98042b00000000000000000000000000000000000000000000000000000000145b806104e657506104e6825f6001600160e01b031982167fbc1c58d10000000000000000000000000000000000000000000000000000000014806104e657506104e6825f7f3b3b57de000000000000000000000000000000000000000000000000000000006001600160e01b03198316148061208c57507ff1cb7e06000000000000000000000000000000000000000000000000000000006001600160e01b03198316145b806120c057507f32f111d7000000000000000000000000000000000000000000000000000000006001600160e01b03198316145b806104e657506104e6825f6001600160e01b031982167f2203ab560000000000000000000000000000000000000000000000000000000014806104e657506104e6825f6001600160e01b031982167fd700ff330000000000000000000000000000000000000000000000000000000014806104e657506301ffc9a760e01b6001600160e01b03198316146104e6565b50805461215b9061264f565b5f825580601f1061216a575050565b601f0160209004905f5260205f209081019061179b91905b80821115611ce2575f8155600101612182565b80356001600160e01b0319811681146121ac575f80fd5b919050565b5f602082840312156121c1575f80fd5b610eb882612195565b5f8083601f8401126121da575f80fd5b50813567ffffffffffffffff8111156121f1575f80fd5b602083019150836020828501011115610ba0575f80fd5b5f805f6040848603121561221a575f80fd5b83359250602084013567ffffffffffffffff811115612237575f80fd5b612243868287016121ca565b9497909650939450505050565b5f805f805f60608688031215612264575f80fd5b85359450602086013567ffffffffffffffff80821115612282575f80fd5b61228e89838a016121ca565b909650945060408801359150808211156122a6575f80fd5b506122b3888289016121ca565b969995985093965092949392505050565b5f80604083850312156122d5575f80fd5b823591506122e560208401612195565b90509250929050565b5f80604083850312156122ff575f80fd5b50508035926020909101359150565b5f81518084528060208401602086015e5f602082860101526020601f19601f83011685010191505092915050565b828152604060208201525f611d7a604083018461230e565b5f805f60608486031215612366575f80fd5b505081359360208301359350604090920135919050565b5f6020828403121561238d575f80fd5b5035919050565b602081525f610eb8602083018461230e565b5f805f80606085870312156123b9575f80fd5b8435935060208501359250604085013567ffffffffffffffff8111156123dd575f80fd5b6123e9878288016121ca565b95989497509550505050565b634e487b7160e01b5f52604160045260245ffd5b5f82601f830112612418575f80fd5b813567ffffffffffffffff80821115612433576124336123f5565b604051601f8301601f19908116603f0116810190828211818310171561245b5761245b6123f5565b81604052838152866020858801011115612473575f80fd5b836020870160208301375f602085830101528094505050505092915050565b5f805f606084860312156124a4575f80fd5b8335925060208401359150604084013567ffffffffffffffff8111156124c8575f80fd5b6124d486828701612409565b9150509250925092565b5f80604083850312156124ef575f80fd5b823567ffffffffffffffff80821115612506575f80fd5b61251286838701612409565b93506020850135915080821115612527575f80fd5b5061253485828601612409565b9150509250929050565b5f805f60608486031215612550575f80fd5b8335925060208401359150604084013561ffff8116811461256f575f80fd5b809150509250925092565b80356001600160a01b03811681146121ac575f80fd5b5f80604083850312156125a1575f80fd5b823591506122e56020840161257a565b5f805f606084860312156125c3575f80fd5b833592506125d360208501612195565b91506125e16040850161257a565b90509250925092565b5f602082840312156125fa575f80fd5b610eb88261257a565b5f82518060208501845e5f920191825250919050565b634e487b7160e01b5f52601160045260245ffd5b818103818111156104e6576104e6612619565b818382375f9101908152919050565b600181811c9082168061266357607f821691505b60208210810361268157634e487b7160e01b5f52602260045260245ffd5b50919050565b601f8211156114c757805f5260205f20601f840160051c810160208510156126ac5750805b601f840160051c820191505b81811015611229575f81556001016126b8565b67ffffffffffffffff8311156126e3576126e36123f5565b6126f7836126f1835461264f565b83612687565b5f601f841160018114612728575f85156127115750838201355b5f19600387901b1c1916600186901b178355611229565b5f83815260208120601f198716915b828110156127575786850135825560209485019460019092019101612737565b5086821015612773575f1960f88860031b161c19848701351681555b505060018560011b0183555050505050565b81835281816020850137505f828201602090810191909152601f909101601f19169091010190565b604081525f6127c0604083018688612785565b82810360208401526127d3818587612785565b979650505050505050565b634e487b7160e01b5f52603260045260245ffd5b602081525f611d7a602083018486612785565b5f67ffffffffffffffff80831681810361282157612821612619565b6001019392505050565b805160208201516bffffffffffffffffffffffff19808216929190601483101561285f5780818460140360031b1b83161693505b505050919050565b815167ffffffffffffffff811115612881576128816123f5565b6128958161288f845461264f565b84612687565b602080601f8311600181146128c8575f84156128b15750858301515b5f19600386901b1c1916600185901b17855561291f565b5f85815260208120601f198616915b828110156128f6578886015182559484019460019091019084016128d7565b508582101561291357878501515f19600388901b60f8161c191681555b505060018460011b0185555b505050505050565b604081525f612939604083018661230e565b828103602084015261294c818587612785565b9695505050505050565b5f61ffff82168061296957612969612619565b5f190192915050565b604081525f612984604083018561230e565b905061ffff831660208301529392505050565b5f61ffff80831681810361282157612821612619565b606081525f6129bf606083018661230e565b61ffff85166020840152828103604084015261294c818561230e565b808201808211156104e6576104e6612619565b634e487b7160e01b5f52600160045260245ffdfea2646970667358221220df5493fee688937b6c2ee6629d38f0d2dcca4df7958dd461f8ad5297bc5eefa664736f6c63430008190033",
  "linkReferences": {},
  "deployedLinkReferences": {},
  "immutableReferences": {},
  "inputSourceName": "project/lib/ens-contracts/contracts/resolvers/OwnedResolver.sol",
  "devdoc": {
    "errors": {
      "InvalidEVMAddress(bytes)": [
        {
          "details": "Error selector: `0x8d666f60`"
        }
      ],
      "OffsetOutOfBoundsError(uint256,uint256)": [
        {
          "details": "`offset` was beyond `length`.       Error selector: `0x8a3c1cfb`"
        }
      ]
    },
    "kind": "dev",
    "methods": {
      "ABI(bytes32,uint256)": {
        "params": {
          "contentTypes": "A bitwise OR of the ABI formats accepted by the caller.",
          "node": "The ENS node to query"
        },
        "returns": {
          "_0": "contentType The content type of the return value",
          "_1": "data The ABI data"
        }
      },
      "addr(bytes32)": {
        "params": {
          "node": "The node to query."
        },
        "returns": {
          "_0": "The associated address."
        }
      },
      "addr(bytes32,uint256)": {
        "params": {
          "coinType": "The coin type.",
          "node": "The node to query."
        },
        "returns": {
          "addressBytes": "The assocated address."
        }
      },
      "clearRecords(bytes32)": {
        "params": {
          "node": "The node to update."
        }
      },
      "contenthash(bytes32)": {
        "params": {
          "node": "The ENS node to query."
        },
        "returns": {
          "_0": "The associated contenthash."
        }
      },
      "dnsRecord(bytes32,bytes32,uint16)": {
        "params": {
          "name": "the keccak-256 hash of the fully-qualified name for which to fetch the record",
          "node": "the namehash of the node for which to fetch the record",
          "resource": "the ID of the resource as per https://en.wikipedia.org/wiki/List_of_DNS_record_types"
        },
        "returns": {
          "_0": "the DNS record in wire format if present, otherwise empty"
        }
      },
      "hasAddr(bytes32,uint256)": {
        "params": {
          "coinType": "The coin type.",
          "node": "The node to query."
        },
        "returns": {
          "_0": "True if the associated address is not empty."
        }
      },
      "hasDNSRecords(bytes32,bytes32)": {
        "params": {
          "name": "the namehash of the node for which to check the records",
          "node": "the namehash of the node for which to check the records"
        }
      },
      "interfaceImplementer(bytes32,bytes4)": {
        "params": {
          "interfaceID": "The EIP 165 interface ID to check for.",
          "node": "The ENS node to query."
        },
        "returns": {
          "_0": "The address that implements this interface, or 0 if the interface is unsupported."
        }
      },
      "name(bytes32)": {
        "params": {
          "node": "The ENS node to query."
        },
        "returns": {
          "_0": "The associated name."
        }
      },
      "owner()": {
        "details": "Returns the address of the current owner."
      },
      "pubkey(bytes32)": {
        "params": {
          "node": "The ENS node to query"
        },
        "returns": {
          "x": "The X coordinate of the curve point for the public key.",
          "y": "The Y coordinate of the curve point for the public key."
        }
      },
      "renounceOwnership()": {
        "details": "Leaves the contract without owner. It will not be possible to call `onlyOwner` functions. Can only be called by the current owner. NOTE: Renouncing ownership will leave the contract without an owner, thereby disabling any functionality that is only available to the owner."
      },
      "setABI(bytes32,uint256,bytes)": {
        "params": {
          "contentType": "The content type of the ABI",
          "data": "The ABI data.",
          "node": "The node to update."
        }
      },
      "setAddr(bytes32,address)": {
        "params": {
          "_addr": "The address to set.",
          "node": "The node to update."
        }
      },
      "setAddr(bytes32,uint256,bytes)": {
        "params": {
          "addressBytes": "The address to set.",
          "coinType": "The coin type.",
          "node": "The node to update."
        }
      },
      "setContenthash(bytes32,bytes)": {
        "params": {
          "hash": "The contenthash to set",
          "node": "The node to update."
        }
      },
      "setDNSRecords(bytes32,bytes)": {
        "params": {
          "data": "the DNS wire format records to set",
          "node": "the namehash of the node for which to set the records"
        }
      },
      "setInterface(bytes32,bytes4,address)": {
        "params": {
          "implementer": "The address of a contract that implements this interface for this node.",
          "interfaceID": "The EIP 165 interface ID.",
          "node": "The node to update."
        }
      },
      "setName(bytes32,string)": {
        "params": {
          "node": "The node to update."
        }
      },
      "setPubkey(bytes32,bytes32,bytes32)": {
        "params": {
          "node": "The ENS node to query",
          "x": "the X coordinate of the curve point for the public key.",
          "y": "the Y coordinate of the curve point for the public key."
        }
      },
      "setText(bytes32,string,string)": {
        "params": {
          "key": "The key to set.",
          "node": "The node to update.",
          "value": "The text data value to set."
        }
      },
      "setZonehash(bytes32,bytes)": {
        "params": {
          "hash": "The zonehash to set",
          "node": "The node to update."
        }
      },
      "text(bytes32,string)": {
        "params": {
          "key": "The text data key to query.",
          "node": "The ENS node to query."
        },
        "returns": {
          "_0": "The associated text data."
        }
      },
      "transferOwnership(address)": {
        "details": "Transfers ownership of the contract to a new account (`newOwner`). Can only be called by the current owner."
      },
      "zonehash(bytes32)": {
        "params": {
          "node": "The ENS node to query."
        },
        "returns": {
          "_0": "The associated contenthash."
        }
      }
    },
    "version": 1
  },
  "evm": {
    "gasEstimates": {
      "creation": {
        "codeDepositCost": "2161600",
        "executionCost": "28140",
        "totalCost": "2189740"
      },
      "external": {
        "ABI(bytes32,uint256)": "infinite",
        "addr(bytes32)": "infinite",
        "addr(bytes32,uint256)": "infinite",
        "clearRecords(bytes32)": "32598",
        "contenthash(bytes32)": "infinite",
        "dnsRecord(bytes32,bytes32,uint16)": "infinite",
        "hasAddr(bytes32,uint256)": "4965",
        "hasDNSRecords(bytes32,bytes32)": "4817",
        "interfaceImplementer(bytes32,bytes4)": "infinite",
        "name(bytes32)": "infinite",
        "owner()": "2396",
        "pubkey(bytes32)": "6882",
        "recordVersions(bytes32)": "2494",
        "renounceOwnership()": "infinite",
        "resolve(bytes,bytes)": "infinite",
        "setABI(bytes32,uint256,bytes)": "infinite",
        "setAddr(bytes32,address)": "infinite",
        "setAddr(bytes32,uint256,bytes)": "infinite",
        "setContenthash(bytes32,bytes)": "infinite",
        "setDNSRecords(bytes32,bytes)": "infinite",
        "setInterface(bytes32,bytes4,address)": "infinite",
        "setName(bytes32,string)": "infinite",
        "setPubkey(bytes32,bytes32,bytes32)": "50827",
        "setText(bytes32,string,string)": "infinite",
        "setZonehash(bytes32,bytes)": "infinite",
        "supportsInterface(bytes4)": "infinite",
        "text(bytes32,string)": "infinite",
        "transferOwnership(address)": "28427",
        "zonehash(bytes32)": "infinite"
      },
      "internal": {
        "isAuthorised(bytes32)": "infinite"
      }
    }
  },
  "storageLayout": {
    "storage": [
      {
        "astId": 41649,
        "contract": "project/lib/ens-contracts/contracts/resolvers/OwnedResolver.sol:OwnedResolver",
        "label": "_owner",
        "offset": 0,
        "slot": "0",
        "type": "t_address"
      },
      {
        "astId": 12623,
        "contract": "project/lib/ens-contracts/contracts/resolvers/OwnedResolver.sol:OwnedResolver",
        "label": "recordVersions",
        "offset": 0,
        "slot": "1",
        "type": "t_mapping(t_bytes32,t_uint64)"
      },
      {
        "astId": 12738,
        "contract": "project/lib/ens-contracts/contracts/resolvers/OwnedResolver.sol:OwnedResolver",
        "label": "versionable_abis",
        "offset": 0,
        "slot": "2",
        "type": "t_mapping(t_uint64,t_mapping(t_bytes32,t_mapping(t_uint256,t_bytes_storage)))"
      },
      {
        "astId": 12905,
        "contract": "project/lib/ens-contracts/contracts/resolvers/OwnedResolver.sol:OwnedResolver",
        "label": "versionable_addresses",
        "offset": 0,
        "slot": "3",
        "type": "t_mapping(t_uint64,t_mapping(t_bytes32,t_mapping(t_uint256,t_bytes_storage)))"
      },
      {
        "astId": 13147,
        "contract": "project/lib/ens-contracts/contracts/resolvers/OwnedResolver.sol:OwnedResolver",
        "label": "versionable_hashes",
        "offset": 0,
        "slot": "4",
        "type": "t_mapping(t_uint64,t_mapping(t_bytes32,t_bytes_storage))"
      },
      {
        "astId": 13237,
        "contract": "project/lib/ens-contracts/contracts/resolvers/OwnedResolver.sol:OwnedResolver",
        "label": "versionable_zonehashes",
        "offset": 0,
        "slot": "5",
        "type": "t_mapping(t_uint64,t_mapping(t_bytes32,t_bytes_storage))"
      },
      {
        "astId": 13247,
        "contract": "project/lib/ens-contracts/contracts/resolvers/OwnedResolver.sol:OwnedResolver",
        "label": "versionable_records",
        "offset": 0,
        "slot": "6",
        "type": "t_mapping(t_uint64,t_mapping(t_bytes32,t_mapping(t_bytes32,t_mapping(t_uint16,t_bytes_storage))))"
      },
      {
        "astId": 13255,
        "contract": "project/lib/ens-contracts/contracts/resolvers/OwnedResolver.sol:OwnedResolver",
        "label": "versionable_nameEntriesCount",
        "offset": 0,
        "slot": "7",
        "type": "t_mapping(t_uint64,t_mapping(t_bytes32,t_mapping(t_bytes32,t_uint16)))"
      },
      {
        "astId": 14804,
        "contract": "project/lib/ens-contracts/contracts/resolvers/OwnedResolver.sol:OwnedResolver",
        "label": "versionable_interfaces",
        "offset": 0,
        "slot": "8",
        "type": "t_mapping(t_uint64,t_mapping(t_bytes32,t_mapping(t_bytes4,t_address)))"
      },
      {
        "astId": 14996,
        "contract": "project/lib/ens-contracts/contracts/resolvers/OwnedResolver.sol:OwnedResolver",
        "label": "versionable_names",
        "offset": 0,
        "slot": "9",
        "type": "t_mapping(t_uint64,t_mapping(t_bytes32,t_string_storage))"
      },
      {
        "astId": 15083,
        "contract": "project/lib/ens-contracts/contracts/resolvers/OwnedResolver.sol:OwnedResolver",
        "label": "versionable_pubkeys",
        "offset": 0,
        "slot": "10",
        "type": "t_mapping(t_uint64,t_mapping(t_bytes32,t_struct(PublicKey)15076_storage))"
      },
      {
        "astId": 15186,
        "contract": "project/lib/ens-contracts/contracts/resolvers/OwnedResolver.sol:OwnedResolver",
        "label": "versionable_texts",
        "offset": 0,
        "slot": "11",
        "type": "t_mapping(t_uint64,t_mapping(t_bytes32,t_mapping(t_string_memory_ptr,t_string_storage)))"
      }
    ],
    "types": {
      "t_address": {
        "encoding": "inplace",
        "label": "address",
        "numberOfBytes": "20"
      },
      "t_bytes32": {
        "encoding": "inplace",
        "label": "bytes32",
        "numberOfBytes": "32"
      },
      "t_bytes4": {
        "encoding": "inplace",
        "label": "bytes4",
        "numberOfBytes": "4"
      },
      "t_bytes_storage": {
        "encoding": "bytes",
        "label": "bytes",
        "numberOfBytes": "32"
      },
      "t_mapping(t_bytes32,t_bytes_storage)": {
        "encoding": "mapping",
        "key": "t_bytes32",
        "label": "mapping(bytes32 => bytes)",
        "numberOfBytes": "32",
        "value": "t_bytes_storage"
      },
      "t_mapping(t_bytes32,t_mapping(t_bytes32,t_mapping(t_uint16,t_bytes_storage)))": {
        "encoding": "mapping",
        "key": "t_bytes32",
        "label": "mapping(bytes32 => mapping(bytes32 => mapping(uint16 => bytes)))",
        "numberOfBytes": "32",
        "value": "t_mapping(t_bytes32,t_mapping(t_uint16,t_bytes_storage))"
      },
      "t_mapping(t_bytes32,t_mapping(t_bytes32,t_uint16))": {
        "encoding": "mapping",
        "key": "t_bytes32",
        "label": "mapping(bytes32 => mapping(bytes32 => uint16))",
        "numberOfBytes": "32",
        "value": "t_mapping(t_bytes32,t_uint16)"
      },
      "t_mapping(t_bytes32,t_mapping(t_bytes4,t_address))": {
        "encoding": "mapping",
        "key": "t_bytes32",
        "label": "mapping(bytes32 => mapping(bytes4 => address))",
        "numberOfBytes": "32",
        "value": "t_mapping(t_bytes4,t_address)"
      },
      "t_mapping(t_bytes32,t_mapping(t_string_memory_ptr,t_string_storage))": {
        "encoding": "mapping",
        "key": "t_bytes32",
        "label": "mapping(bytes32 => mapping(string => string))",
        "numberOfBytes": "32",
        "value": "t_mapping(t_string_memory_ptr,t_string_storage)"
      },
      "t_mapping(t_bytes32,t_mapping(t_uint16,t_bytes_storage))": {
        "encoding": "mapping",
        "key": "t_bytes32",
        "label": "mapping(bytes32 => mapping(uint16 => bytes))",
        "numberOfBytes": "32",
        "value": "t_mapping(t_uint16,t_bytes_storage)"
      },
      "t_mapping(t_bytes32,t_mapping(t_uint256,t_bytes_storage))": {
        "encoding": "mapping",
        "key": "t_bytes32",
        "label": "mapping(bytes32 => mapping(uint256 => bytes))",
        "numberOfBytes": "32",
        "value": "t_mapping(t_uint256,t_bytes_storage)"
      },
      "t_mapping(t_bytes32,t_string_storage)": {
        "encoding": "mapping",
        "key": "t_bytes32",
        "label": "mapping(bytes32 => string)",
        "numberOfBytes": "32",
        "value": "t_string_storage"
      },
      "t_mapping(t_bytes32,t_struct(PublicKey)15076_storage)": {
        "encoding": "mapping",
        "key": "t_bytes32",
        "label": "mapping(bytes32 => struct PubkeyResolver.PublicKey)",
        "numberOfBytes": "32",
        "value": "t_struct(PublicKey)15076_storage"
      },
      "t_mapping(t_bytes32,t_uint16)": {
        "encoding": "mapping",
        "key": "t_bytes32",
        "label": "mapping(bytes32 => uint16)",
        "numberOfBytes": "32",
        "value": "t_uint16"
      },
      "t_mapping(t_bytes32,t_uint64)": {
        "encoding": "mapping",
        "key": "t_bytes32",
        "label": "mapping(bytes32 => uint64)",
        "numberOfBytes": "32",
        "value": "t_uint64"
      },
      "t_mapping(t_bytes4,t_address)": {
        "encoding": "mapping",
        "key": "t_bytes4",
        "label": "mapping(bytes4 => address)",
        "numberOfBytes": "32",
        "value": "t_address"
      },
      "t_mapping(t_string_memory_ptr,t_string_storage)": {
        "encoding": "mapping",
        "key": "t_string_memory_ptr",
        "label": "mapping(string => string)",
        "numberOfBytes": "32",
        "value": "t_string_storage"
      },
      "t_mapping(t_uint16,t_bytes_storage)": {
        "encoding": "mapping",
        "key": "t_uint16",
        "label": "mapping(uint16 => bytes)",
        "numberOfBytes": "32",
        "value": "t_bytes_storage"
      },
      "t_mapping(t_uint256,t_bytes_storage)": {
        "encoding": "mapping",
        "key": "t_uint256",
        "label": "mapping(uint256 => bytes)",
        "numberOfBytes": "32",
        "value": "t_bytes_storage"
      },
      "t_mapping(t_uint64,t_mapping(t_bytes32,t_bytes_storage))": {
        "encoding": "mapping",
        "key": "t_uint64",
        "label": "mapping(uint64 => mapping(bytes32 => bytes))",
        "numberOfBytes": "32",
        "value": "t_mapping(t_bytes32,t_bytes_storage)"
      },
      "t_mapping(t_uint64,t_mapping(t_bytes32,t_mapping(t_bytes32,t_mapping(t_uint16,t_bytes_storage))))": {
        "encoding": "mapping",
        "key": "t_uint64",
        "label": "mapping(uint64 => mapping(bytes32 => mapping(bytes32 => mapping(uint16 => bytes))))",
        "numberOfBytes": "32",
        "value": "t_mapping(t_bytes32,t_mapping(t_bytes32,t_mapping(t_uint16,t_bytes_storage)))"
      },
      "t_mapping(t_uint64,t_mapping(t_bytes32,t_mapping(t_bytes32,t_uint16)))": {
        "encoding": "mapping",
        "key": "t_uint64",
        "label": "mapping(uint64 => mapping(bytes32 => mapping(bytes32 => uint16)))",
        "numberOfBytes": "32",
        "value": "t_mapping(t_bytes32,t_mapping(t_bytes32,t_uint16))"
      },
      "t_mapping(t_uint64,t_mapping(t_bytes32,t_mapping(t_bytes4,t_address)))": {
        "encoding": "mapping",
        "key": "t_uint64",
        "label": "mapping(uint64 => mapping(bytes32 => mapping(bytes4 => address)))",
        "numberOfBytes": "32",
        "value": "t_mapping(t_bytes32,t_mapping(t_bytes4,t_address))"
      },
      "t_mapping(t_uint64,t_mapping(t_bytes32,t_mapping(t_string_memory_ptr,t_string_storage)))": {
        "encoding": "mapping",
        "key": "t_uint64",
        "label": "mapping(uint64 => mapping(bytes32 => mapping(string => string)))",
        "numberOfBytes": "32",
        "value": "t_mapping(t_bytes32,t_mapping(t_string_memory_ptr,t_string_storage))"
      },
      "t_mapping(t_uint64,t_mapping(t_bytes32,t_mapping(t_uint256,t_bytes_storage)))": {
        "encoding": "mapping",
        "key": "t_uint64",
        "label": "mapping(uint64 => mapping(bytes32 => mapping(uint256 => bytes)))",
        "numberOfBytes": "32",
        "value": "t_mapping(t_bytes32,t_mapping(t_uint256,t_bytes_storage))"
      },
      "t_mapping(t_uint64,t_mapping(t_bytes32,t_string_storage))": {
        "encoding": "mapping",
        "key": "t_uint64",
        "label": "mapping(uint64 => mapping(bytes32 => string))",
        "numberOfBytes": "32",
        "value": "t_mapping(t_bytes32,t_string_storage)"
      },
      "t_mapping(t_uint64,t_mapping(t_bytes32,t_struct(PublicKey)15076_storage))": {
        "encoding": "mapping",
        "key": "t_uint64",
        "label": "mapping(uint64 => mapping(bytes32 => struct PubkeyResolver.PublicKey))",
        "numberOfBytes": "32",
        "value": "t_mapping(t_bytes32,t_struct(PublicKey)15076_storage)"
      },
      "t_string_memory_ptr": {
        "encoding": "bytes",
        "label": "string",
        "numberOfBytes": "32"
      },
      "t_string_storage": {
        "encoding": "bytes",
        "label": "string",
        "numberOfBytes": "32"
      },
      "t_struct(PublicKey)15076_storage": {
        "encoding": "inplace",
        "label": "struct PubkeyResolver.PublicKey",
        "members": [
          {
            "astId": 15073,
            "contract": "project/lib/ens-contracts/contracts/resolvers/OwnedResolver.sol:OwnedResolver",
            "label": "x",
            "offset": 0,
            "slot": "0",
            "type": "t_bytes32"
          },
          {
            "astId": 15075,
            "contract": "project/lib/ens-contracts/contracts/resolvers/OwnedResolver.sol:OwnedResolver",
            "label": "y",
            "offset": 0,
            "slot": "1",
            "type": "t_bytes32"
          }
        ],
        "numberOfBytes": "64"
      },
      "t_uint16": {
        "encoding": "inplace",
        "label": "uint16",
        "numberOfBytes": "2"
      },
      "t_uint256": {
        "encoding": "inplace",
        "label": "uint256",
        "numberOfBytes": "32"
      },
      "t_uint64": {
        "encoding": "inplace",
        "label": "uint64",
        "numberOfBytes": "8"
      }
    }
  },
  "userdoc": {
    "errors": {
      "InvalidEVMAddress(bytes)": [
        {
          "notice": "The supplied address could not be converted to `address`."
        }
      ]
    },
    "kind": "user",
    "methods": {
      "ABI(bytes32,uint256)": {
        "notice": "Returns the ABI associated with an ENS node. Defined in EIP205."
      },
      "addr(bytes32)": {
        "notice": "Get `addr(60)` as `address` of the associated ENS node."
      },
      "addr(bytes32,uint256)": {
        "notice": "Get the address for coin type of the associated ENS node.         If coin type is EVM and empty, defaults to `addr(COIN_TYPE_DEFAULT)`."
      },
      "clearRecords(bytes32)": {
        "notice": "Increments the record version associated with an ENS node. May only be called by the owner of that node in the ENS registry."
      },
      "contenthash(bytes32)": {
        "notice": "Returns the contenthash associated with an ENS node."
      },
      "dnsRecord(bytes32,bytes32,uint16)": {
        "notice": "Obtain a DNS record."
      },
      "hasAddr(bytes32,uint256)": {
        "notice": "Determine if an addresss is stored for the coin type of the associated ENS node."
      },
      "hasDNSRecords(bytes32,bytes32)": {
        "notice": "Check if a given node has records."
      },
      "interfaceImplementer(bytes32,bytes4)": {
        "notice": "Returns the address of a contract that implements the specified interface for this name. If an implementer has not been set for this interfaceID and name, the resolver will query the contract at `addr()`. If `addr()` is set, a contract exists at that address, and that contract implements EIP165 and returns `true` for the specified interfaceID, its address will be returned."
      },
      "name(bytes32)": {
        "notice": "Returns the name associated with an ENS node, for reverse records. Defined in EIP181."
      },
      "pubkey(bytes32)": {
        "notice": "Returns the SECP256k1 public key associated with an ENS node. Defined in EIP 619."
      },
      "setABI(bytes32,uint256,bytes)": {
        "notice": "Sets the ABI associated with an ENS node. Nodes may have one ABI of each content type. To remove an ABI, set it to the empty string."
      },
      "setAddr(bytes32,address)": {
        "notice": "Set `addr(60)` of the associated ENS node.         `address(0)` is stored as `new bytes(20)`."
      },
      "setAddr(bytes32,uint256,bytes)": {
        "notice": "Set the address for coin type of the associated ENS node.         Reverts `InvalidEVMAddress` if coin type is EVM and not 0 or 20 bytes."
      },
      "setContenthash(bytes32,bytes)": {
        "notice": "Sets the contenthash associated with an ENS node. May only be called by the owner of that node in the ENS registry."
      },
      "setDNSRecords(bytes32,bytes)": {
        "notice": "Set one or more DNS records.  Records are supplied in wire-format. Records with the same node/name/resource must be supplied one after the other to ensure the data is updated correctly. For example, if the data was supplied:     a.example.com IN A 1.2.3.4     a.example.com IN A 5.6.7.8     www.example.com IN CNAME a.example.com. then this would store the two A records for a.example.com correctly as a single RRSET, however if the data was supplied:     a.example.com IN A 1.2.3.4     www.example.com IN CNAME a.example.com.     a.example.com IN A 5.6.7.8 then this would store the first A record, the CNAME, then the second A record which would overwrite the first."
      },
      "setInterface(bytes32,bytes4,address)": {
        "notice": "Sets an interface associated with a name. Setting the address to 0 restores the default behaviour of querying the contract at `addr()` for interface support."
      },
      "setName(bytes32,string)": {
        "notice": "Sets the name associated with an ENS node, for reverse records. May only be called by the owner of that node in the ENS registry."
      },
      "setPubkey(bytes32,bytes32,bytes32)": {
        "notice": "Sets the SECP256k1 public key associated with an ENS node."
      },
      "setText(bytes32,string,string)": {
        "notice": "Sets the text data associated with an ENS node and key. May only be called by the owner of that node in the ENS registry."
      },
      "setZonehash(bytes32,bytes)": {
        "notice": "setZonehash sets the hash for the zone. May only be called by the owner of that node in the ENS registry."
      },
      "text(bytes32,string)": {
        "notice": "Returns the text data associated with an ENS node and key."
      },
      "zonehash(bytes32)": {
        "notice": "zonehash obtains the hash for the zone."
      }
    },
    "notice": "A simple resolver anyone can use; only allows the owner of a node to set its address.",
    "version": 1
  },
  "argsData": "0x",
  "transaction": {
    "hash": "0xd96cfa08ee5861a9ffb0cd6e74bf70f40bb46302d1dbe8ebb93a2886d3101616",
    "nonce": "0x32",
    "origin": "0xf39fd6e51aad88f6f4ce6ab8827279cfffb92266"
  }
}