{
  "address": "0x9a676e781a523b5d0c0e43731313a708cb607508",
  "abi": [
    {
      "inputs": [
        {
          "internalType": "uint256",
          "name": "offset",
          "type": "uint256"
        },
        {
          "internalType": "uint256",
          "name": "length",
          "type": "uint256"
        }
      ],
      "name": "OffsetOutOfBoundsError",
      "type": "error"
    },
    {
      "inputs": [
        {
          "internalType": "bytes",
          "name": "key",
          "type": "bytes"
        },
        {
          "internalType": "bytes",
          "name": "data",
          "type": "bytes"
        },
        {
          "internalType": "bytes",
          "name": "signature",
          "type": "bytes"
        }
      ],
      "name": "verify",
      "outputs": [
        {
          "internalType": "bool",
          "name": "",
          "type": "bool"
        }
      ],
      "stateMutability": "view",
      "type": "function"
    }
  ],
  "contractName": "P256SHA256Algorithm",
  "sourceName": "lib/ens-contracts/contracts/dnssec-oracle/algorithms/P256SHA256Algorithm.sol",
  "bytecode": "0x6080604052348015600e575f80fd5b50610f3f8061001c5f395ff3fe608060405234801561000f575f80fd5b5060043610610029575f3560e01c8063de8f50a11461002d575b5f80fd5b61004061003b366004610de3565b610054565b604051901515815260200160405180910390f35b5f6101296002868660405161006a929190610e76565b602060405180830381855afa158015610085573d5f803e3d5ffd5b5050506040513d601f19601f820116820180604052508101906100a89190610e85565b6100e685858080601f0160208091040260200160405190810160405280939291908181526020018383808284375f9201919091525061013492505050565b6101248a8a8080601f0160208091040260200160405190810160405280939291908181526020018383808284375f920191909152506101c292505050565b610241565b979650505050505050565b61013c610d69565b81516040146101925760405162461bcd60e51b815260206004820152601d60248201527f496e76616c69642070323536207369676e6174757265206c656e67746800000060448201526064015b60405180910390fd5b60408051808201909152806101a7845f610434565b81526020908101906101ba908590610434565b905292915050565b6101ca610d69565b815160441461021b5760405162461bcd60e51b815260206004820152601760248201527f496e76616c69642070323536206b6579206c656e6774680000000000000000006044820152606401610189565b6040805180820190915280610231846004610434565b81526020016101ba846024610434565b81515f901580610272575082517fffffffff00000000ffffffffffffffffbce6faada7179e84f3b9cac2fc63255111155b8061027f57506020830151155b1561028b57505f61042d565b8151602083015161029c9190610452565b6102a757505f61042d565b5f808080806102dd88600160200201517fffffffff00000000ffffffffffffffffbce6faada7179e84f3b9cac2fc63255161054a565b905061034d7f6b17d1f2e12c4247f8bce6e563a440f277037d812deb33a0f4a13945d898c2967f4fe342e2fe1a7f9b8ee7eb4a7c0f9e162bce33576b315ececbb6406837bf51f57fffffffff00000000ffffffffffffffffbce6faada7179e84f3b9cac2fc632551848d096105e0565b885160208a01518b5193985091955061038d929091907fffffffff00000000ffffffffffffffffbce6faada7179e84f3b9cac2fc632551908590096105e0565b90945091505f61039f868587866106ab565b60408101519091505f036103bb575f965050505050505061042d565b5f6103db8260026020020151600160601b63ffffffff60c01b031961054a565b9050600160601b63ffffffff60c01b0319808283098351098a519091506104227fffffffff00000000ffffffffffffffffbce6faada7179e84f3b9cac2fc63255183610eb0565b149750505050505050505b9392505050565b5f61044983610444846020610ee3565b6106d0565b50016020015190565b5f82158061046d5750600160601b63ffffffff60c01b031983145b80610476575081155b8061048e5750600160601b63ffffffff60c01b031982145b1561049a57505f610544565b5f600160601b63ffffffff60c01b031983840990505f600160601b63ffffffff60c01b031985600160601b63ffffffff60c01b0319878809099050600160601b63ffffffff60c01b0319807fffffffff00000001000000000000000000000000fffffffffffffffffffffffc870982089050600160601b63ffffffff60c01b03197f5ac635d8aa3a93e7b3ebbd55769886bc651d06b0cc53b0f63bce3c3e27d2604b820890501490505b92915050565b5f82158061055757508183145b80610560575081155b1561056c57505f610544565b818311156105875781838161058357610583610e9c565b0692505b5f60018385835b81156105bd578183816105a3576105a3610e9c565b94959404858102909403939192838302900391905061058e565b5f8512156105d45750505090830191506105449050565b50929695505050505050565b5f80825f036105f5575f805b915091506106a3565b826001036106075750839050826106a3565b82600203610619576105ec858561071c565b5083905082818160018061062e600288610eb0565b5f0361063b575f94508495505b600187901c96505b861561068f5761065484848461074a565b91955093509150610666600288610eb0565b6001036106835761067b8484848989866109a3565b919750955090505b600187901c9650610643565b61069a868683610aa3565b95509550505050505b935093915050565b6106b3610d87565b5f806106c187878787610af1565b90925090506101298282610b24565b81518111156107185781516040517f8a3c1cfb000000000000000000000000000000000000000000000000000000008152610189918391600401918252602082015260400190565b5050565b5f805f61072b8585600161074a565b9196509450905061073d858583610aa3565b92509250505b9250929050565b5f805f805f805f61075b8a8a610b7c565b15610773575f6001819650965096505050505061099a565b600160601b63ffffffff60c01b0319888a099250600160601b63ffffffff60c01b0319600284099250600160601b63ffffffff60c01b03198a84099150600160601b63ffffffff60c01b03198983099150600160601b63ffffffff60c01b0319600283099150600160601b63ffffffff60c01b03198a8b099950600160601b63ffffffff60c01b031960038b099350600160601b63ffffffff60c01b03198889099750600160601b63ffffffff60c01b03197fffffffff00000001000000000000000000000000fffffffffffffffffffffffc89099750600160601b63ffffffff60c01b03198885089350600160601b63ffffffff60c01b03198485099050600160601b63ffffffff60c01b0319826002099950600160601b63ffffffff60c01b03196108ae8b600160601b63ffffffff60c01b0319610ef6565b82089050600160601b63ffffffff60c01b03196108d982600160601b63ffffffff60c01b0319610ef6565b83089950600160601b63ffffffff60c01b03198a85099950600160601b63ffffffff60c01b0319838a099850600160601b63ffffffff60c01b0319898a099850600160601b63ffffffff60c01b0319896002099850600160601b63ffffffff60c01b03196109558a600160601b63ffffffff60c01b0319610ef6565b8b089550600160601b63ffffffff60c01b03198184099650600160601b63ffffffff60c01b03198384099450600160601b63ffffffff60c01b03198386099450505050505b93509350939050565b5f805f805f805f6109b48d8d610b7c565b156109cb5789898996509650965050505050610a97565b6109d58a8a610b7c565b156109ec578c8c8c96509650965050505050610a97565b600160601b63ffffffff60c01b0319888d099350600160601b63ffffffff60c01b03198b8a099250600160601b63ffffffff60c01b0319888e099150600160601b63ffffffff60c01b03198b8b099050808203610a6d57828403610a6457610a558d8d8d61074a565b96509650965050505050610a97565b5f600181610a55565b610a8b600160601b63ffffffff60c01b0319898d0983838688610b9e565b91985096509450505050505b96509650969350505050565b5f805f610abe84600160601b63ffffffff60c01b031961054a565b9050600160601b63ffffffff60c01b03198187099250600160601b63ffffffff60c01b0319818609915050935093915050565b5f805f610b0487876001888860016109a3565b91985096509050610b16878783610aa3565b925092505094509492505050565b610b2c610d87565b600160601b63ffffffff60c01b031960015f0860408201819052600160601b63ffffffff60c01b031990840981526040810151600160601b63ffffffff60c01b0319908309602082015292915050565b5f82158015610b89575081155b15610b9657506001610544565b505f92915050565b5f80808080808080600160601b63ffffffff60c01b0319610bcd8b600160601b63ffffffff60c01b0319610ef6565b8a089050600160601b63ffffffff60c01b0319610bf88c600160601b63ffffffff60c01b0319610ef6565b8d089450600160601b63ffffffff60c01b03198586099350600160601b63ffffffff60c01b03198182099150600160601b63ffffffff60c01b03198d83099150600160601b63ffffffff60c01b03198c8c089a50600160601b63ffffffff60c01b0319848c099a50600160601b63ffffffff60c01b0319610c878c600160601b63ffffffff60c01b0319610ef6565b83089150600160601b63ffffffff60c01b03198286099750600160601b63ffffffff60c01b03198585099250600160601b63ffffffff60c01b0319848d099b50600160601b63ffffffff60c01b0319610cee83600160601b63ffffffff60c01b0319610ef6565b8d089b50600160601b63ffffffff60c01b03198c82099050600160601b63ffffffff60c01b0319838a099850600160601b63ffffffff60c01b0319610d418a600160601b63ffffffff60c01b0319610ef6565b82089650600160601b63ffffffff60c01b03198d840995505050505050955095509592505050565b60405180604001604052806002906020820280368337509192915050565b60405180606001604052806003906020820280368337509192915050565b5f8083601f840112610db5575f80fd5b50813567ffffffffffffffff811115610dcc575f80fd5b602083019150836020828501011115610743575f80fd5b5f805f805f8060608789031215610df8575f80fd5b863567ffffffffffffffff80821115610e0f575f80fd5b610e1b8a838b01610da5565b90985096506020890135915080821115610e33575f80fd5b610e3f8a838b01610da5565b90965094506040890135915080821115610e57575f80fd5b50610e6489828a01610da5565b979a9699509497509295939492505050565b818382375f9101908152919050565b5f60208284031215610e95575f80fd5b5051919050565b634e487b7160e01b5f52601260045260245ffd5b5f82610eca57634e487b7160e01b5f52601260045260245ffd5b500690565b634e487b7160e01b5f52601160045260245ffd5b8082018082111561054457610544610ecf565b8181038181111561054457610544610ecf56fea264697066735822122074ba30a86bdd10269afc17318bebbe9eaeda925a8b40b37bafb5ef1afcac447164736f6c63430008190033",
  "linkReferences": {},
  "deployedLinkReferences": {},
  "immutableReferences": {},
  "inputSourceName": "project/lib/ens-contracts/contracts/dnssec-oracle/algorithms/P256SHA256Algorithm.sol",
  "devdoc": {
    "errors": {
      "OffsetOutOfBoundsError(uint256,uint256)": [
        {
          "details": "`offset` was beyond `length`.       Error selector: `0x8a3c1cfb`"
        }
      ]
    },
    "kind": "dev",
    "methods": {
      "verify(bytes,bytes,bytes)": {
        "details": "Verifies a signature.",
        "params": {
          "data": "The signed data to verify.",
          "key": "The public key to verify with.",
          "signature": "The signature to verify."
        },
        "returns": {
          "_0": "True iff the signature is valid."
        }
      }
    },
    "version": 1
  },
  "evm": {
    "gasEstimates": {
      "creation": {
        "codeDepositCost": "780600",
        "executionCost": "810",
        "totalCost": "781410"
      },
      "external": {
        "verify(bytes,bytes,bytes)": "infinite"
      },
      "internal": {
        "parseKey(bytes memory)": "infinite",
        "parseSignature(bytes memory)": "infinite"
      }
    }
  },
  "storageLayout": {
    "storage": [],
    "types": null
  },
  "userdoc": {
    "kind": "user",
    "methods": {},
    "version": 1
  },
  "argsData": "0x",
  "transaction": {
    "hash": "0xec8384006e9ea2ba0dd98efbd18ed5d3a1c8542732f45ed4164e6d331e4ff7a0",
    "nonce": "0xe",
    "origin": "0xf39fd6e51aad88f6f4ce6ab8827279cfffb92266"
  }
}