{
  "address": "0xc351628eb244ec633d5f21fbd6621e1a683b1181",
  "abi": [
    {
      "inputs": [
        {
          "internalType": "contract IPermissionedRegistry",
          "name": "ethRegistry",
          "type": "address"
        },
        {
          "internalType": "contract IHCAFactoryBasic",
          "name": "hcaFactory",
          "type": "address"
        },
        {
          "internalType": "address",
          "name": "ownerAddress",
          "type": "address"
        },
        {
          "internalType": "uint256",
          "name": "ownerRoles",
          "type": "uint256"
        }
      ],
      "stateMutability": "nonpayable",
      "type": "constructor"
    },
    {
      "inputs": [
        {
          "internalType": "uint256",
          "name": "resource",
          "type": "uint256"
        },
        {
          "internalType": "uint256",
          "name": "roleBitmap",
          "type": "uint256"
        },
        {
          "internalType": "address",
          "name": "account",
          "type": "address"
        }
      ],
      "name": "EACCannotGrantRoles",
      "type": "error"
    },
    {
      "inputs": [
        {
          "internalType": "uint256",
          "name": "resource",
          "type": "uint256"
        },
        {
          "internalType": "uint256",
          "name": "roleBitmap",
          "type": "uint256"
        },
        {
          "internalType": "address",
          "name": "account",
          "type": "address"
        }
      ],
      "name": "EACCannotRevokeRoles",
      "type": "error"
    },
    {
      "inputs": [],
      "name": "EACInvalidAccount",
      "type": "error"
    },
    {
      "inputs": [
        {
          "internalType": "uint256",
          "name": "roleBitmap",
          "type": "uint256"
        }
      ],
      "name": "EACInvalidRoleBitmap",
      "type": "error"
    },
    {
      "inputs": [
        {
          "internalType": "uint256",
          "name": "resource",
          "type": "uint256"
        },
        {
          "internalType": "uint256",
          "name": "role",
          "type": "uint256"
        }
      ],
      "name": "EACMaxAssignees",
      "type": "error"
    },
    {
      "inputs": [
        {
          "internalType": "uint256",
          "name": "resource",
          "type": "uint256"
        },
        {
          "internalType": "uint256",
          "name": "role",
          "type": "uint256"
        }
      ],
      "name": "EACMinAssignees",
      "type": "error"
    },
    {
      "inputs": [],
      "name": "EACRootResourceNotAllowed",
      "type": "error"
    },
    {
      "inputs": [
        {
          "internalType": "uint256",
          "name": "resource",
          "type": "uint256"
        },
        {
          "internalType": "uint256",
          "name": "roleBitmap",
          "type": "uint256"
        },
        {
          "internalType": "address",
          "name": "account",
          "type": "address"
        }
      ],
      "name": "EACUnauthorizedAccountRoles",
      "type": "error"
    },
    {
      "inputs": [
        {
          "internalType": "string",
          "name": "label",
          "type": "string"
        }
      ],
      "name": "NameExpired",
      "type": "error"
    },
    {
      "inputs": [
        {
          "internalType": "string",
          "name": "label",
          "type": "string"
        },
        {
          "internalType": "address",
          "name": "actualOwner",
          "type": "address"
        }
      ],
      "name": "NameNotOwned",
      "type": "error"
    },
    {
      "anonymous": false,
      "inputs": [
        {
          "indexed": true,
          "internalType": "uint256",
          "name": "resource",
          "type": "uint256"
        },
        {
          "indexed": true,
          "internalType": "address",
          "name": "account",
          "type": "address"
        },
        {
          "indexed": false,
          "internalType": "uint256",
          "name": "oldRoleBitmap",
          "type": "uint256"
        },
        {
          "indexed": false,
          "internalType": "uint256",
          "name": "newRoleBitmap",
          "type": "uint256"
        }
      ],
      "name": "EACRolesChanged",
      "type": "event"
    },
    {
      "anonymous": false,
      "inputs": [
        {
          "indexed": true,
          "internalType": "string",
          "name": "label",
          "type": "string"
        },
        {
          "indexed": true,
          "internalType": "address",
          "name": "owner",
          "type": "address"
        },
        {
          "indexed": false,
          "internalType": "address",
          "name": "subregistry",
          "type": "address"
        },
        {
          "indexed": false,
          "internalType": "address",
          "name": "resolver",
          "type": "address"
        }
      ],
      "name": "NameClaimed",
      "type": "event"
    },
    {
      "inputs": [],
      "name": "ETH_REGISTRY",
      "outputs": [
        {
          "internalType": "contract IPermissionedRegistry",
          "name": "",
          "type": "address"
        }
      ],
      "stateMutability": "view",
      "type": "function"
    },
    {
      "inputs": [],
      "name": "HCA_FACTORY",
      "outputs": [
        {
          "internalType": "contract IHCAFactoryBasic",
          "name": "",
          "type": "address"
        }
      ],
      "stateMutability": "view",
      "type": "function"
    },
    {
      "inputs": [],
      "name": "ROLE_MIGRATION_CONTROLLER",
      "outputs": [
        {
          "internalType": "uint256",
          "name": "",
          "type": "uint256"
        }
      ],
      "stateMutability": "view",
      "type": "function"
    },
    {
      "inputs": [],
      "name": "ROOT_RESOURCE",
      "outputs": [
        {
          "internalType": "uint256",
          "name": "",
          "type": "uint256"
        }
      ],
      "stateMutability": "view",
      "type": "function"
    },
    {
      "inputs": [
        {
          "internalType": "string",
          "name": "label",
          "type": "string"
        },
        {
          "internalType": "address",
          "name": "owner",
          "type": "address"
        },
        {
          "internalType": "contract IRegistry",
          "name": "subregistry",
          "type": "address"
        },
        {
          "internalType": "address",
          "name": "resolver",
          "type": "address"
        }
      ],
      "name": "claim",
      "outputs": [],
      "stateMutability": "nonpayable",
      "type": "function"
    },
    {
      "inputs": [
        {
          "internalType": "uint256",
          "name": "resource",
          "type": "uint256"
        },
        {
          "internalType": "uint256",
          "name": "roleBitmap",
          "type": "uint256"
        }
      ],
      "name": "getAssigneeCount",
      "outputs": [
        {
          "internalType": "uint256",
          "name": "counts",
          "type": "uint256"
        },
        {
          "internalType": "uint256",
          "name": "mask",
          "type": "uint256"
        }
      ],
      "stateMutability": "view",
      "type": "function"
    },
    {
      "inputs": [
        {
          "internalType": "uint256",
          "name": "resource",
          "type": "uint256"
        },
        {
          "internalType": "uint256",
          "name": "roleBitmap",
          "type": "uint256"
        },
        {
          "internalType": "address",
          "name": "account",
          "type": "address"
        }
      ],
      "name": "grantRoles",
      "outputs": [
        {
          "internalType": "bool",
          "name": "",
          "type": "bool"
        }
      ],
      "stateMutability": "nonpayable",
      "type": "function"
    },
    {
      "inputs": [
        {
          "internalType": "uint256",
          "name": "roleBitmap",
          "type": "uint256"
        },
        {
          "internalType": "address",
          "name": "account",
          "type": "address"
        }
      ],
      "name": "grantRootRoles",
      "outputs": [
        {
          "internalType": "bool",
          "name": "",
          "type": "bool"
        }
      ],
      "stateMutability": "nonpayable",
      "type": "function"
    },
    {
      "inputs": [
        {
          "internalType": "uint256",
          "name": "resource",
          "type": "uint256"
        },
        {
          "internalType": "uint256",
          "name": "roleBitmap",
          "type": "uint256"
        }
      ],
      "name": "hasAssignees",
      "outputs": [
        {
          "internalType": "bool",
          "name": "",
          "type": "bool"
        }
      ],
      "stateMutability": "view",
      "type": "function"
    },
    {
      "inputs": [
        {
          "internalType": "uint256",
          "name": "resource",
          "type": "uint256"
        },
        {
          "internalType": "uint256",
          "name": "rolesBitmap",
          "type": "uint256"
        },
        {
          "internalType": "address",
          "name": "account",
          "type": "address"
        }
      ],
      "name": "hasRoles",
      "outputs": [
        {
          "internalType": "bool",
          "name": "",
          "type": "bool"
        }
      ],
      "stateMutability": "view",
      "type": "function"
    },
    {
      "inputs": [
        {
          "internalType": "uint256",
          "name": "rolesBitmap",
          "type": "uint256"
        },
        {
          "internalType": "address",
          "name": "account",
          "type": "address"
        }
      ],
      "name": "hasRootRoles",
      "outputs": [
        {
          "internalType": "bool",
          "name": "",
          "type": "bool"
        }
      ],
      "stateMutability": "view",
      "type": "function"
    },
    {
      "inputs": [
        {
          "internalType": "address",
          "name": "",
          "type": "address"
        },
        {
          "internalType": "address",
          "name": "",
          "type": "address"
        },
        {
          "internalType": "uint256[]",
          "name": "",
          "type": "uint256[]"
        },
        {
          "internalType": "uint256[]",
          "name": "",
          "type": "uint256[]"
        },
        {
          "internalType": "bytes",
          "name": "",
          "type": "bytes"
        }
      ],
      "name": "onERC1155BatchReceived",
      "outputs": [
        {
          "internalType": "bytes4",
          "name": "",
          "type": "bytes4"
        }
      ],
      "stateMutability": "pure",
      "type": "function"
    },
    {
      "inputs": [
        {
          "internalType": "address",
          "name": "",
          "type": "address"
        },
        {
          "internalType": "address",
          "name": "",
          "type": "address"
        },
        {
          "internalType": "uint256",
          "name": "",
          "type": "uint256"
        },
        {
          "internalType": "uint256",
          "name": "",
          "type": "uint256"
        },
        {
          "internalType": "bytes",
          "name": "",
          "type": "bytes"
        }
      ],
      "name": "onERC1155Received",
      "outputs": [
        {
          "internalType": "bytes4",
          "name": "",
          "type": "bytes4"
        }
      ],
      "stateMutability": "pure",
      "type": "function"
    },
    {
      "inputs": [
        {
          "internalType": "uint256",
          "name": "resource",
          "type": "uint256"
        },
        {
          "internalType": "uint256",
          "name": "roleBitmap",
          "type": "uint256"
        },
        {
          "internalType": "address",
          "name": "account",
          "type": "address"
        }
      ],
      "name": "revokeRoles",
      "outputs": [
        {
          "internalType": "bool",
          "name": "",
          "type": "bool"
        }
      ],
      "stateMutability": "nonpayable",
      "type": "function"
    },
    {
      "inputs": [
        {
          "internalType": "uint256",
          "name": "roleBitmap",
          "type": "uint256"
        },
        {
          "internalType": "address",
          "name": "account",
          "type": "address"
        }
      ],
      "name": "revokeRootRoles",
      "outputs": [
        {
          "internalType": "bool",
          "name": "",
          "type": "bool"
        }
      ],
      "stateMutability": "nonpayable",
      "type": "function"
    },
    {
      "inputs": [
        {
          "internalType": "uint256",
          "name": "resource",
          "type": "uint256"
        }
      ],
      "name": "roleCount",
      "outputs": [
        {
          "internalType": "uint256",
          "name": "",
          "type": "uint256"
        }
      ],
      "stateMutability": "view",
      "type": "function"
    },
    {
      "inputs": [
        {
          "internalType": "uint256",
          "name": "resource",
          "type": "uint256"
        },
        {
          "internalType": "address",
          "name": "account",
          "type": "address"
        }
      ],
      "name": "roles",
      "outputs": [
        {
          "internalType": "uint256",
          "name": "",
          "type": "uint256"
        }
      ],
      "stateMutability": "view",
      "type": "function"
    },
    {
      "inputs": [
        {
          "internalType": "bytes4",
          "name": "interfaceId",
          "type": "bytes4"
        }
      ],
      "name": "supportsInterface",
      "outputs": [
        {
          "internalType": "bool",
          "name": "",
          "type": "bool"
        }
      ],
      "stateMutability": "view",
      "type": "function"
    }
  ],
  "contractName": "PreMigrationController",
  "sourceName": "src/migration/PreMigrationController.sol",
  "bytecode": "0x60c060405234801561000f575f80fd5b50604051611a49380380611a4983398101604081905261002e916102ee565b6001600160a01b03808416608052841660a05261004d5f828482610057565b505050505061037e565b5f61006184610144565b6001600160a01b0383166100885760405163761fe2c960e11b815260040160405180910390fd5b5f858152602081815260408083206001600160a01b0387168452909152902054848117808214610136575f878152602081815260408083206001600160a01b03891684529091529020819055811986166100e488826001610190565b60408051848152602081018490526001600160a01b038816918a917f0d35bf721a39b614de00ca5038e1deb0cb0c69a278645e83405a7226cf80ba3c910160405180910390a36001935050505061013c565b5f925050505b949350505050565b7feeeeeeeeeeeeeeeeeeeeeeeeeeeeeeeeeeeeeeeeeeeeeeeeeeeeeeeeeeeeeeee81161561018d57604051630153d96960e51b8152600481018290526024015b60405180910390fd5b50565b5f61019a836102c0565b90508115610230575f848152600160205260409020546101e09082161980195f80516020611a2983398151915291909101165f80516020611a0983398151915216151590565b1561020857604051631f22ca6960e31b81526004810185905260248101849052604401610184565b5f8481526001602052604081208054859290610225908490610352565b909155506102ba9050565b5f8481526001602052604090205461026f901982161980195f80516020611a2983398151915291909101165f80516020611a0983398151915216151590565b1561029757604051631f80c19b60e01b81526004810185905260248101849052604401610184565b5f84815260016020526040812080548592906102b490849061036b565b90915550505b50505050565b5f6102ca82610144565b50600181901b17600281901b1790565b6001600160a01b038116811461018d575f80fd5b5f805f8060808587031215610301575f80fd5b845161030c816102da565b602086015190945061031d816102da565b604086015190935061032e816102da565b6060959095015193969295505050565b634e487b7160e01b5f52601160045260245ffd5b808201808211156103655761036561033e565b92915050565b818103818111156103655761036561033e565b60805160a0516116396103d05f395f8181610236015281816104be015281816105e8015281816106f101528181610797015261084801525f81816101cf01528181610e600152610ec101526116395ff3fe608060405234801561000f575f80fd5b506004361061012f575f3560e01c80635adf4724116100ad578063ce156e821161007d578063dfa70d8b11610063578063dfa70d8b146103b0578063f23a6e61146103c3578063fe2ae269146103fc575f80fd5b8063ce156e821461033c578063d3bf89b11461034f575f80fd5b80635adf472414610258578063781ef8db1461028b5780637c300586146102d5578063bc197c81146102e8575f80fd5b80631c3fc3eb11610102578063319c22bb116100e8578063319c22bb146101ca5780633634f911146102095780634750070814610231575f80fd5b80631c3fc3eb146101965780632f27fa24146101ab575f80fd5b806301ffc9a714610133578063072d5d771461015b578063116350fe1461016e57806311b8e00a14610183575b5f80fd5b610146610141366004611143565b610404565b60405190151581526020015b60405180910390f35b610146610169366004611185565b61047b565b61018161017c3660046111f8565b6104a6565b005b610146610191366004611270565b61090e565b61019d5f81565b604051908152602001610152565b61019d6101b9366004611290565b5f9081526001602052604090205490565b6101f17f000000000000000000000000000000000000000000000000000000000000000081565b6040516001600160a01b039091168152602001610152565b61021c610217366004611270565b610925565b60408051928352602083019190915201610152565b6101f17f000000000000000000000000000000000000000000000000000000000000000081565b61019d610266366004611185565b5f918252602082815260408084206001600160a01b0393909316845291905290205490565b610146610299366004611185565b6001600160a01b03165f9081527fad3228b676f7d3cd4284a5443f17f1962b36e491b30a40b2405849e597ba5fb5602052604090205481161490565b6101466102e33660046112a7565b610948565b6103236102f636600461131e565b7fbc197c810000000000000000000000000000000000000000000000000000000098975050505050505050565b6040516001600160e01b03199091168152602001610152565b61014661034a366004611185565b61098d565b61014661035d3660046112a7565b5f928352602083815260408085206001600160a01b03939093168552918152818420547fad3228b676f7d3cd4284a5443f17f1962b36e491b30a40b2405849e597ba5fb590915292205490911781161490565b6101466103be3660046112a7565b6109af565b6103236103d13660046113d5565b7ff23a6e61000000000000000000000000000000000000000000000000000000009695505050505050565b61019d600181565b5f6001600160e01b031982167f4e2312e000000000000000000000000000000000000000000000000000000000148061046657506001600160e01b031982167f116350fe00000000000000000000000000000000000000000000000000000000145b806104755750610475826109ea565b92915050565b5f8083610490828261048b610a50565b610a5e565b61049d5f86866001610b4c565b95945050505050565b60016104ba5f826104b5610a50565b610c52565b5f807f00000000000000000000000000000000000000000000000000000000000000006001600160a01b0316630a79637489896040518363ffffffff1660e01b815260040161050a929190611474565b60c060405180830381865afa158015610525573d5f803e3d5ffd5b505050506040513d601f19601f8201168201806040525081019061054991906114bc565b8051919350915067ffffffffffffffff161580610573575042815f015167ffffffffffffffff1611155b156105b75787876040517f407c156a0000000000000000000000000000000000000000000000000000000081526004016105ae929190611474565b60405180910390fd5b6040517f6352211e000000000000000000000000000000000000000000000000000000008152600481018390525f907f00000000000000000000000000000000000000000000000000000000000000006001600160a01b031690636352211e90602401602060405180830381865afa158015610635573d5f803e3d5ffd5b505050506040513d601f19601f820116820180604052508101906106599190611573565b90506001600160a01b03811630146106a3578888826040517f34767f820000000000000000000000000000000000000000000000000000000081526004016105ae9392919061158e565b6001600160a01b03861615610749576040517f341ec559000000000000000000000000000000000000000000000000000000008152600481018490526001600160a01b0387811660248301527f0000000000000000000000000000000000000000000000000000000000000000169063341ec559906044015f604051808303815f87803b158015610732575f80fd5b505af1158015610744573d5f803e3d5ffd5b505050505b6001600160a01b038516156107ef576040517fbc7b6d62000000000000000000000000000000000000000000000000000000008152600481018490526001600160a01b0386811660248301527f0000000000000000000000000000000000000000000000000000000000000000169063bc7b6d62906044015f604051808303815f87803b1580156107d8575f80fd5b505af11580156107ea573d5f803e3d5ffd5b505050505b6040517ff242432a0000000000000000000000000000000000000000000000000000000081523060048201526001600160a01b038881166024830152604482018590526001606483015260a060848301525f60a48301527f0000000000000000000000000000000000000000000000000000000000000000169063f242432a9060c4015f604051808303815f87803b158015610889575f80fd5b505af115801561089b573d5f803e3d5ffd5b50505050866001600160a01b031689896040516108b99291906115ba565b604080519182900382206001600160a01b03808b16845289166020840152917f0f9efdc3b4d65cb8b0cdcd40643b6e83077d10fd1b1b8a57d2aa9fee8df92ff5910160405180910390a3505050505050505050565b5f8061091a8484610925565b501515949350505050565b5f8061093083610cf3565b5f948552600160205260409094205484169492505050565b5f8383610958828261048b610a50565b8561097657604051631850848b60e31b815260040160405180910390fd5b6109838686866001610b4c565b9695505050505050565b5f80836109a2828261099d610a50565b610d0d565b61049d5f86866001610df5565b5f83836109bf828261099d610a50565b856109dd57604051631850848b60e31b815260040160405180910390fd5b6109838686866001610df5565b5f6001600160e01b031982167f8f452d6200000000000000000000000000000000000000000000000000000000148061047557507f01ffc9a7000000000000000000000000000000000000000000000000000000006001600160e01b0319831614610475565b5f610a59610e5d565b905090565b5f610af084836001600160a01b03165f8181527fad3228b676f7d3cd4284a5443f17f1962b36e491b30a40b2405849e597ba5fb5602090815260408083205494835282825280832093835292905220547f1111111111111111111111111111111100000000000000000000000000000000911790811660809190911c6f11111111111111111111111111111111161790565b90508019831615610b46576040517fd1a3b35500000000000000000000000000000000000000000000000000000000815260048101859052602481018490526001600160a01b03831660448201526064016105ae565b50505050565b5f610b5684610f4e565b6001600160a01b038316610b96576040517fec3fc59200000000000000000000000000000000000000000000000000000000815260040160405180910390fd5b5f858152602081815260408083206001600160a01b0387168452909152902054848117808214610c44575f878152602081815260408083206001600160a01b0389168452909152902081905581198616610bf288826001610fae565b60408051848152602081018490526001600160a01b038816918a917f0d35bf721a39b614de00ca5038e1deb0cb0c69a278645e83405a7226cf80ba3c910160405180910390a360019350505050610c4a565b5f925050505b949350505050565b5f838152602081815260408083206001600160a01b03851684528252808320547fad3228b676f7d3cd4284a5443f17f1962b36e491b30a40b2405849e597ba5fb5909252909120541782168214610cee576040517f4b27a13300000000000000000000000000000000000000000000000000000000815260048101849052602481018390526001600160a01b03821660448201526064016105ae565b505050565b5f610cfd82610f4e565b50600181901b17600281901b1790565b5f610d9f84836001600160a01b03165f8181527fad3228b676f7d3cd4284a5443f17f1962b36e491b30a40b2405849e597ba5fb5602090815260408083205494835282825280832093835292905220547f1111111111111111111111111111111100000000000000000000000000000000911790811660809190911c6f11111111111111111111111111111111161790565b90508019831615610b46576040517fa604e31800000000000000000000000000000000000000000000000000000000815260048101859052602481018490526001600160a01b03831660448201526064016105ae565b5f610dff84610f4e565b5f858152602081815260408083206001600160a01b038716845290915290205484198116808214610c44575f878152602081815260408083206001600160a01b0389168452909152812082905586831690610bf29089908390610fae565b5f7f00000000000000000000000000000000000000000000000000000000000000006001600160a01b0316610e9157503390565b6040517f442b172c0000000000000000000000000000000000000000000000000000000081523360048201525f907f00000000000000000000000000000000000000000000000000000000000000006001600160a01b03169063442b172c90602401602060405180830381865afa158015610f0e573d5f803e3d5ffd5b505050506040513d601f19601f82011682018060405250810190610f329190611573565b90506001600160a01b038116610f49573391505090565b919050565b7feeeeeeeeeeeeeeeeeeeeeeeeeeeeeeeeeeeeeeeeeeeeeeeeeeeeeeeeeeeeeeee811615610fab576040517f2a7b2d20000000000000000000000000000000000000000000000000000000008152600481018290526024016105ae565b50565b5f610fb883610cf3565b90508115611081575f848152600160205260409020547f888888888888888888888888888888888888888888888888888888888888888890821680197feeeeeeeeeeeeeeeeeeeeeeeeeeeeeeeeeeeeeeeeeeeeeeeeeeeeeeeeeeeeeeef01161615611059576040517ff916534800000000000000000000000000000000000000000000000000000000815260048101859052602481018490526044016105ae565b5f84815260016020526040812080548592906110769084906115dd565b90915550610b469050565b5f848152600160205260409020547f88888888888888888888888888888888888888888888888888888888888888889019821680197feeeeeeeeeeeeeeeeeeeeeeeeeeeeeeeeeeeeeeeeeeeeeeeeeeeeeeeeeeeeeeef0116161561111b576040517f1f80c19b00000000000000000000000000000000000000000000000000000000815260048101859052602481018490526044016105ae565b5f84815260016020526040812080548592906111389084906115f0565b909155505050505050565b5f60208284031215611153575f80fd5b81356001600160e01b03198116811461116a575f80fd5b9392505050565b6001600160a01b0381168114610fab575f80fd5b5f8060408385031215611196575f80fd5b8235915060208301356111a881611171565b809150509250929050565b5f8083601f8401126111c3575f80fd5b50813567ffffffffffffffff8111156111da575f80fd5b6020830191508360208285010111156111f1575f80fd5b9250929050565b5f805f805f6080868803121561120c575f80fd5b853567ffffffffffffffff811115611222575f80fd5b61122e888289016111b3565b909650945050602086013561124281611171565b9250604086013561125281611171565b9150606086013561126281611171565b809150509295509295909350565b5f8060408385031215611281575f80fd5b50508035926020909101359150565b5f602082840312156112a0575f80fd5b5035919050565b5f805f606084860312156112b9575f80fd5b833592506020840135915060408401356112d281611171565b809150509250925092565b5f8083601f8401126112ed575f80fd5b50813567ffffffffffffffff811115611304575f80fd5b6020830191508360208260051b85010111156111f1575f80fd5b5f805f805f805f8060a0898b031215611335575f80fd5b883561134081611171565b9750602089013561135081611171565b9650604089013567ffffffffffffffff8082111561136c575f80fd5b6113788c838d016112dd565b909850965060608b0135915080821115611390575f80fd5b61139c8c838d016112dd565b909650945060808b01359150808211156113b4575f80fd5b506113c18b828c016111b3565b999c989b5096995094979396929594505050565b5f805f805f8060a087890312156113ea575f80fd5b86356113f581611171565b9550602087013561140581611171565b94506040870135935060608701359250608087013567ffffffffffffffff81111561142e575f80fd5b61143a89828a016111b3565b979a9699509497509295939492505050565b81835281816020850137505f828201602090810191909152601f909101601f19169091010190565b602081525f610c4a60208301848661144c565b805167ffffffffffffffff81168114610f49575f80fd5b805163ffffffff81168114610f49575f80fd5b8051610f4981611171565b5f8082840360c08112156114ce575f80fd5b8351925060a0601f19820112156114e3575f80fd5b5060405160a0810181811067ffffffffffffffff8211171561151357634e487b7160e01b5f52604160045260245ffd5b60405261152260208501611487565b81526115306040850161149e565b6020820152611541606085016114b1565b60408201526115526080850161149e565b606082015261156360a085016114b1565b6080820152809150509250929050565b5f60208284031215611583575f80fd5b815161116a81611171565b604081525f6115a160408301858761144c565b90506001600160a01b0383166020830152949350505050565b818382375f9101908152919050565b634e487b7160e01b5f52601160045260245ffd5b80820180821115610475576104756115c9565b81810381811115610475576104756115c956fea264697066735822122093db1495bbe70e498d74513c15c57931168ac245cfa375d187f9f93e6b63356364736f6c634300081900338888888888888888888888888888888888888888888888888888888888888888eeeeeeeeeeeeeeeeeeeeeeeeeeeeeeeeeeeeeeeeeeeeeeeeeeeeeeeeeeeeeeef",
  "linkReferences": {},
  "deployedLinkReferences": {},
  "immutableReferences": {
    "17782": [
      {
        "length": 32,
        "start": 463
      },
      {
        "length": 32,
        "start": 3680
      },
      {
        "length": 32,
        "start": 3777
      }
    ],
    "18315": [
      {
        "length": 32,
        "start": 566
      },
      {
        "length": 32,
        "start": 1214
      },
      {
        "length": 32,
        "start": 1512
      },
      {
        "length": 32,
        "start": 1777
      },
      {
        "length": 32,
        "start": 1943
      },
      {
        "length": 32,
        "start": 2120
      }
    ]
  },
  "inputSourceName": "project/src/migration/PreMigrationController.sol",
  "devdoc": {
    "kind": "dev",
    "methods": {
      "claim(string,address,address,address)": {
        "details": "Sets subregistry/resolver and transfers ownership to the new owner.      Pre-migrated names have ROLES.ALL, so all roles transfer with the token.",
        "params": {
          "label": "The label of the name being claimed",
          "owner": "The new owner of the name",
          "resolver": "The resolver to set for the name",
          "subregistry": "The subregistry to set for the name"
        }
      },
      "getAssigneeCount(uint256,uint256)": {
        "details": "Get the no. of assignees for the roles in the given role bitmap.",
        "params": {
          "resource": "The resource to check.",
          "roleBitmap": "The roles bitmap to check."
        },
        "returns": {
          "counts": "The no. of assignees for each of the roles in the given role bitmap, expressed as a packed array of 4-bit ints.",
          "mask": "The mask for the given role bitmap."
        }
      },
      "grantRoles(uint256,uint256,address)": {
        "details": "Grants all roles in the given role bitmap to `account`. The caller must have all the necessary admin roles for the roles being granted. Cannot be used with ROOT_RESOURCE directly, use grantRootRoles instead.",
        "params": {
          "account": "The account to grant roles to.",
          "resource": "The resource to grant roles within.",
          "roleBitmap": "The roles bitmap to grant."
        },
        "returns": {
          "_0": "`true` if the roles were granted, `false` otherwise."
        }
      },
      "grantRootRoles(uint256,address)": {
        "details": "Grants all roles in the given role bitmap to `account` in the ROOT_RESOURCE. The caller must have all the necessary admin roles for the roles being granted.",
        "params": {
          "account": "The account to grant roles to.",
          "roleBitmap": "The roles bitmap to grant."
        },
        "returns": {
          "_0": "`true` if the roles were granted, `false` otherwise."
        }
      },
      "hasAssignees(uint256,uint256)": {
        "details": "Get if any of the roles in the given role bitmap has assignees.",
        "params": {
          "resource": "The resource to check.",
          "roleBitmap": "The roles bitmap to check."
        },
        "returns": {
          "_0": "`true` if any of the roles in the given role bitmap has assignees, `false` otherwise."
        }
      },
      "hasRoles(uint256,uint256,address)": {
        "details": "Returns `true` if `account` has been granted all the given roles in `resource`.",
        "params": {
          "account": "The account to check.",
          "resource": "The resource to check.",
          "rolesBitmap": "The roles bitmap to check."
        },
        "returns": {
          "_0": "`true` if `account` has been granted all the given roles in either `resource` or the `ROOT_RESOURCE`, `false` otherwise."
        }
      },
      "hasRootRoles(uint256,address)": {
        "details": "Returns `true` if `account` has been granted all the given roles in the `ROOT_RESOURCE`.",
        "params": {
          "account": "The account to check.",
          "rolesBitmap": "The roles bitmap to check."
        },
        "returns": {
          "_0": "`true` if `account` has been granted all the given roles in the `ROOT_RESOURCE`, `false` otherwise."
        }
      },
      "revokeRoles(uint256,uint256,address)": {
        "details": "Revokes all roles in the given role bitmap from `account`. The caller must have all the necessary admin roles for the roles being revoked. Cannot be used with ROOT_RESOURCE directly, use revokeRootRoles instead.",
        "params": {
          "account": "The account to revoke roles from.",
          "resource": "The resource to revoke roles within.",
          "roleBitmap": "The roles bitmap to revoke."
        },
        "returns": {
          "_0": "`true` if the roles were revoked, `false` otherwise."
        }
      },
      "revokeRootRoles(uint256,address)": {
        "details": "Revokes all roles in the given role bitmap from `account` in the ROOT_RESOURCE. The caller must have all the necessary admin roles for the roles being revoked.",
        "params": {
          "account": "The account to revoke roles from.",
          "roleBitmap": "The roles bitmap to revoke."
        },
        "returns": {
          "_0": "`true` if the roles were revoked, `false` otherwise."
        }
      }
    },
    "title": "PreMigrationController",
    "version": 1
  },
  "evm": {
    "gasEstimates": {
      "creation": {
        "codeDepositCost": "1137800",
        "executionCost": "infinite",
        "totalCost": "infinite"
      },
      "external": {
        "ETH_REGISTRY()": "infinite",
        "HCA_FACTORY()": "infinite",
        "ROLE_MIGRATION_CONTROLLER()": "282",
        "ROOT_RESOURCE()": "239",
        "claim(string,address,address,address)": "infinite",
        "getAssigneeCount(uint256,uint256)": "2703",
        "grantRoles(uint256,uint256,address)": "infinite",
        "grantRootRoles(uint256,address)": "infinite",
        "hasAssignees(uint256,uint256)": "2754",
        "hasRoles(uint256,uint256,address)": "4893",
        "hasRootRoles(uint256,address)": "2608",
        "onERC1155BatchReceived(address,address,uint256[],uint256[],bytes)": "infinite",
        "onERC1155Received(address,address,uint256,uint256,bytes)": "infinite",
        "revokeRoles(uint256,uint256,address)": "infinite",
        "revokeRootRoles(uint256,address)": "infinite",
        "roleCount(uint256)": "2503",
        "roles(uint256,address)": "2657",
        "supportsInterface(bytes4)": "infinite"
      }
    }
  },
  "storageLayout": {
    "storage": [
      {
        "astId": 16647,
        "contract": "project/src/migration/PreMigrationController.sol:PreMigrationController",
        "label": "_roles",
        "offset": 0,
        "slot": "0",
        "type": "t_mapping(t_uint256,t_mapping(t_address,t_uint256))"
      },
      {
        "astId": 16652,
        "contract": "project/src/migration/PreMigrationController.sol:PreMigrationController",
        "label": "_roleCount",
        "offset": 0,
        "slot": "1",
        "type": "t_mapping(t_uint256,t_uint256)"
      }
    ],
    "types": {
      "t_address": {
        "encoding": "inplace",
        "label": "address",
        "numberOfBytes": "20"
      },
      "t_mapping(t_address,t_uint256)": {
        "encoding": "mapping",
        "key": "t_address",
        "label": "mapping(address => uint256)",
        "numberOfBytes": "32",
        "value": "t_uint256"
      },
      "t_mapping(t_uint256,t_mapping(t_address,t_uint256))": {
        "encoding": "mapping",
        "key": "t_uint256",
        "label": "mapping(uint256 => mapping(address => uint256))",
        "numberOfBytes": "32",
        "value": "t_mapping(t_address,t_uint256)"
      },
      "t_mapping(t_uint256,t_uint256)": {
        "encoding": "mapping",
        "key": "t_uint256",
        "label": "mapping(uint256 => uint256)",
        "numberOfBytes": "32",
        "value": "t_uint256"
      },
      "t_uint256": {
        "encoding": "inplace",
        "label": "uint256",
        "numberOfBytes": "32"
      }
    }
  },
  "userdoc": {
    "kind": "user",
    "methods": {
      "HCA_FACTORY()": {
        "notice": "The HCA factory contract"
      },
      "ROLE_MIGRATION_CONTROLLER()": {
        "notice": "Role for migration controllers to call claim()"
      },
      "ROOT_RESOURCE()": {
        "notice": "The `ROOT_RESOURCE`."
      },
      "claim(string,address,address,address)": {
        "notice": "Claim a pre-migrated name (called by migration controllers)"
      },
      "roleCount(uint256)": {
        "notice": "Returns the role count bitmap for a resource."
      },
      "roles(uint256,address)": {
        "notice": "Returns the roles bitmap for an account in a resource."
      }
    },
    "notice": "Controller that owns pre-migrated names. Migration controllers call claim() to complete migration on behalf of users.",
    "version": 1
  },
  "argsData": "0x00000000000000000000000084ea74d481ee0a5332c457a4d796187f6ba67feb0000000000000000000000002279b7a0a67db372996a5fab50d91eaa73d2ebe6000000000000000000000000f39fd6e51aad88f6f4ce6ab8827279cfffb922661111111111111111111111111111111111111111111111111111111111111111",
  "transaction": {
    "hash": "0x6d421f13327592bdc502e8743726f8b0bbf97e05018b2026d40620f0fc34922c",
    "nonce": "0x3a",
    "origin": "0xf39fd6e51aad88f6f4ce6ab8827279cfffb92266"
  }
}