{
  "address": "0x4ee6ecad1c2dae9f525404de8555724e3c35d07b",
  "abi": [
    {
      "inputs": [
        {
          "internalType": "contract ENS",
          "name": "_ens",
          "type": "address"
        },
        {
          "internalType": "contract INameWrapper",
          "name": "wrapperAddress",
          "type": "address"
        },
        {
          "internalType": "address",
          "name": "_trustedETHController",
          "type": "address"
        },
        {
          "internalType": "address",
          "name": "_trustedReverseRegistrar",
          "type": "address"
        }
      ],
      "stateMutability": "nonpayable",
      "type": "constructor"
    },
    {
      "inputs": [
        {
          "internalType": "bytes",
          "name": "addressBytes",
          "type": "bytes"
        }
      ],
      "name": "InvalidEVMAddress",
      "type": "error"
    },
    {
      "inputs": [
        {
          "internalType": "uint256",
          "name": "offset",
          "type": "uint256"
        },
        {
          "internalType": "uint256",
          "name": "length",
          "type": "uint256"
        }
      ],
      "name": "OffsetOutOfBoundsError",
      "type": "error"
    },
    {
      "anonymous": false,
      "inputs": [
        {
          "indexed": true,
          "internalType": "bytes32",
          "name": "node",
          "type": "bytes32"
        },
        {
          "indexed": true,
          "internalType": "uint256",
          "name": "contentType",
          "type": "uint256"
        }
      ],
      "name": "ABIChanged",
      "type": "event"
    },
    {
      "anonymous": false,
      "inputs": [
        {
          "indexed": true,
          "internalType": "bytes32",
          "name": "node",
          "type": "bytes32"
        },
        {
          "indexed": false,
          "internalType": "address",
          "name": "a",
          "type": "address"
        }
      ],
      "name": "AddrChanged",
      "type": "event"
    },
    {
      "anonymous": false,
      "inputs": [
        {
          "indexed": true,
          "internalType": "bytes32",
          "name": "node",
          "type": "bytes32"
        },
        {
          "indexed": false,
          "internalType": "uint256",
          "name": "coinType",
          "type": "uint256"
        },
        {
          "indexed": false,
          "internalType": "bytes",
          "name": "newAddress",
          "type": "bytes"
        }
      ],
      "name": "AddressChanged",
      "type": "event"
    },
    {
      "anonymous": false,
      "inputs": [
        {
          "indexed": true,
          "internalType": "address",
          "name": "owner",
          "type": "address"
        },
        {
          "indexed": true,
          "internalType": "address",
          "name": "operator",
          "type": "address"
        },
        {
          "indexed": false,
          "internalType": "bool",
          "name": "approved",
          "type": "bool"
        }
      ],
      "name": "ApprovalForAll",
      "type": "event"
    },
    {
      "anonymous": false,
      "inputs": [
        {
          "indexed": false,
          "internalType": "address",
          "name": "owner",
          "type": "address"
        },
        {
          "indexed": true,
          "internalType": "bytes32",
          "name": "node",
          "type": "bytes32"
        },
        {
          "indexed": true,
          "internalType": "address",
          "name": "delegate",
          "type": "address"
        },
        {
          "indexed": true,
          "internalType": "bool",
          "name": "approved",
          "type": "bool"
        }
      ],
      "name": "Approved",
      "type": "event"
    },
    {
      "anonymous": false,
      "inputs": [
        {
          "indexed": true,
          "internalType": "bytes32",
          "name": "node",
          "type": "bytes32"
        },
        {
          "indexed": false,
          "internalType": "bytes",
          "name": "hash",
          "type": "bytes"
        }
      ],
      "name": "ContenthashChanged",
      "type": "event"
    },
    {
      "anonymous": false,
      "inputs": [
        {
          "indexed": true,
          "internalType": "bytes32",
          "name": "node",
          "type": "bytes32"
        },
        {
          "indexed": false,
          "internalType": "bytes",
          "name": "name",
          "type": "bytes"
        },
        {
          "indexed": false,
          "internalType": "uint16",
          "name": "resource",
          "type": "uint16"
        },
        {
          "indexed": false,
          "internalType": "bytes",
          "name": "record",
          "type": "bytes"
        }
      ],
      "name": "DNSRecordChanged",
      "type": "event"
    },
    {
      "anonymous": false,
      "inputs": [
        {
          "indexed": true,
          "internalType": "bytes32",
          "name": "node",
          "type": "bytes32"
        },
        {
          "indexed": false,
          "internalType": "bytes",
          "name": "name",
          "type": "bytes"
        },
        {
          "indexed": false,
          "internalType": "uint16",
          "name": "resource",
          "type": "uint16"
        }
      ],
      "name": "DNSRecordDeleted",
      "type": "event"
    },
    {
      "anonymous": false,
      "inputs": [
        {
          "indexed": true,
          "internalType": "bytes32",
          "name": "node",
          "type": "bytes32"
        },
        {
          "indexed": false,
          "internalType": "bytes",
          "name": "lastzonehash",
          "type": "bytes"
        },
        {
          "indexed": false,
          "internalType": "bytes",
          "name": "zonehash",
          "type": "bytes"
        }
      ],
      "name": "DNSZonehashChanged",
      "type": "event"
    },
    {
      "anonymous": false,
      "inputs": [
        {
          "indexed": true,
          "internalType": "bytes32",
          "name": "node",
          "type": "bytes32"
        },
        {
          "indexed": true,
          "internalType": "bytes4",
          "name": "interfaceID",
          "type": "bytes4"
        },
        {
          "indexed": false,
          "internalType": "address",
          "name": "implementer",
          "type": "address"
        }
      ],
      "name": "InterfaceChanged",
      "type": "event"
    },
    {
      "anonymous": false,
      "inputs": [
        {
          "indexed": true,
          "internalType": "bytes32",
          "name": "node",
          "type": "bytes32"
        },
        {
          "indexed": false,
          "internalType": "string",
          "name": "name",
          "type": "string"
        }
      ],
      "name": "NameChanged",
      "type": "event"
    },
    {
      "anonymous": false,
      "inputs": [
        {
          "indexed": true,
          "internalType": "bytes32",
          "name": "node",
          "type": "bytes32"
        },
        {
          "indexed": false,
          "internalType": "bytes32",
          "name": "x",
          "type": "bytes32"
        },
        {
          "indexed": false,
          "internalType": "bytes32",
          "name": "y",
          "type": "bytes32"
        }
      ],
      "name": "PubkeyChanged",
      "type": "event"
    },
    {
      "anonymous": false,
      "inputs": [
        {
          "indexed": true,
          "internalType": "bytes32",
          "name": "node",
          "type": "bytes32"
        },
        {
          "indexed": true,
          "internalType": "string",
          "name": "indexedKey",
          "type": "string"
        },
        {
          "indexed": false,
          "internalType": "string",
          "name": "key",
          "type": "string"
        },
        {
          "indexed": false,
          "internalType": "string",
          "name": "value",
          "type": "string"
        }
      ],
      "name": "TextChanged",
      "type": "event"
    },
    {
      "anonymous": false,
      "inputs": [
        {
          "indexed": true,
          "internalType": "bytes32",
          "name": "node",
          "type": "bytes32"
        },
        {
          "indexed": false,
          "internalType": "uint64",
          "name": "newVersion",
          "type": "uint64"
        }
      ],
      "name": "VersionChanged",
      "type": "event"
    },
    {
      "inputs": [
        {
          "internalType": "bytes32",
          "name": "node",
          "type": "bytes32"
        },
        {
          "internalType": "uint256",
          "name": "contentTypes",
          "type": "uint256"
        }
      ],
      "name": "ABI",
      "outputs": [
        {
          "internalType": "uint256",
          "name": "",
          "type": "uint256"
        },
        {
          "internalType": "bytes",
          "name": "",
          "type": "bytes"
        }
      ],
      "stateMutability": "view",
      "type": "function"
    },
    {
      "inputs": [
        {
          "internalType": "bytes32",
          "name": "node",
          "type": "bytes32"
        }
      ],
      "name": "addr",
      "outputs": [
        {
          "internalType": "address payable",
          "name": "",
          "type": "address"
        }
      ],
      "stateMutability": "view",
      "type": "function"
    },
    {
      "inputs": [
        {
          "internalType": "bytes32",
          "name": "node",
          "type": "bytes32"
        },
        {
          "internalType": "uint256",
          "name": "coinType",
          "type": "uint256"
        }
      ],
      "name": "addr",
      "outputs": [
        {
          "internalType": "bytes",
          "name": "addressBytes",
          "type": "bytes"
        }
      ],
      "stateMutability": "view",
      "type": "function"
    },
    {
      "inputs": [
        {
          "internalType": "bytes32",
          "name": "node",
          "type": "bytes32"
        },
        {
          "internalType": "address",
          "name": "delegate",
          "type": "address"
        },
        {
          "internalType": "bool",
          "name": "approved",
          "type": "bool"
        }
      ],
      "name": "approve",
      "outputs": [],
      "stateMutability": "nonpayable",
      "type": "function"
    },
    {
      "inputs": [
        {
          "internalType": "bytes32",
          "name": "node",
          "type": "bytes32"
        }
      ],
      "name": "clearRecords",
      "outputs": [],
      "stateMutability": "nonpayable",
      "type": "function"
    },
    {
      "inputs": [
        {
          "internalType": "bytes32",
          "name": "node",
          "type": "bytes32"
        }
      ],
      "name": "contenthash",
      "outputs": [
        {
          "internalType": "bytes",
          "name": "",
          "type": "bytes"
        }
      ],
      "stateMutability": "view",
      "type": "function"
    },
    {
      "inputs": [
        {
          "internalType": "bytes32",
          "name": "node",
          "type": "bytes32"
        },
        {
          "internalType": "bytes32",
          "name": "name",
          "type": "bytes32"
        },
        {
          "internalType": "uint16",
          "name": "resource",
          "type": "uint16"
        }
      ],
      "name": "dnsRecord",
      "outputs": [
        {
          "internalType": "bytes",
          "name": "",
          "type": "bytes"
        }
      ],
      "stateMutability": "view",
      "type": "function"
    },
    {
      "inputs": [
        {
          "internalType": "bytes32",
          "name": "node",
          "type": "bytes32"
        },
        {
          "internalType": "uint256",
          "name": "coinType",
          "type": "uint256"
        }
      ],
      "name": "hasAddr",
      "outputs": [
        {
          "internalType": "bool",
          "name": "",
          "type": "bool"
        }
      ],
      "stateMutability": "view",
      "type": "function"
    },
    {
      "inputs": [
        {
          "internalType": "bytes32",
          "name": "node",
          "type": "bytes32"
        },
        {
          "internalType": "bytes32",
          "name": "name",
          "type": "bytes32"
        }
      ],
      "name": "hasDNSRecords",
      "outputs": [
        {
          "internalType": "bool",
          "name": "",
          "type": "bool"
        }
      ],
      "stateMutability": "view",
      "type": "function"
    },
    {
      "inputs": [
        {
          "internalType": "bytes32",
          "name": "node",
          "type": "bytes32"
        },
        {
          "internalType": "bytes4",
          "name": "interfaceID",
          "type": "bytes4"
        }
      ],
      "name": "interfaceImplementer",
      "outputs": [
        {
          "internalType": "address",
          "name": "",
          "type": "address"
        }
      ],
      "stateMutability": "view",
      "type": "function"
    },
    {
      "inputs": [
        {
          "internalType": "address",
          "name": "owner",
          "type": "address"
        },
        {
          "internalType": "bytes32",
          "name": "node",
          "type": "bytes32"
        },
        {
          "internalType": "address",
          "name": "delegate",
          "type": "address"
        }
      ],
      "name": "isApprovedFor",
      "outputs": [
        {
          "internalType": "bool",
          "name": "",
          "type": "bool"
        }
      ],
      "stateMutability": "view",
      "type": "function"
    },
    {
      "inputs": [
        {
          "internalType": "address",
          "name": "account",
          "type": "address"
        },
        {
          "internalType": "address",
          "name": "operator",
          "type": "address"
        }
      ],
      "name": "isApprovedForAll",
      "outputs": [
        {
          "internalType": "bool",
          "name": "",
          "type": "bool"
        }
      ],
      "stateMutability": "view",
      "type": "function"
    },
    {
      "inputs": [
        {
          "internalType": "bytes[]",
          "name": "data",
          "type": "bytes[]"
        }
      ],
      "name": "multicall",
      "outputs": [
        {
          "internalType": "bytes[]",
          "name": "results",
          "type": "bytes[]"
        }
      ],
      "stateMutability": "nonpayable",
      "type": "function"
    },
    {
      "inputs": [
        {
          "internalType": "bytes32",
          "name": "nodehash",
          "type": "bytes32"
        },
        {
          "internalType": "bytes[]",
          "name": "data",
          "type": "bytes[]"
        }
      ],
      "name": "multicallWithNodeCheck",
      "outputs": [
        {
          "internalType": "bytes[]",
          "name": "results",
          "type": "bytes[]"
        }
      ],
      "stateMutability": "nonpayable",
      "type": "function"
    },
    {
      "inputs": [
        {
          "internalType": "bytes32",
          "name": "node",
          "type": "bytes32"
        }
      ],
      "name": "name",
      "outputs": [
        {
          "internalType": "string",
          "name": "",
          "type": "string"
        }
      ],
      "stateMutability": "view",
      "type": "function"
    },
    {
      "inputs": [
        {
          "internalType": "bytes32",
          "name": "node",
          "type": "bytes32"
        }
      ],
      "name": "pubkey",
      "outputs": [
        {
          "internalType": "bytes32",
          "name": "x",
          "type": "bytes32"
        },
        {
          "internalType": "bytes32",
          "name": "y",
          "type": "bytes32"
        }
      ],
      "stateMutability": "view",
      "type": "function"
    },
    {
      "inputs": [
        {
          "internalType": "bytes32",
          "name": "",
          "type": "bytes32"
        }
      ],
      "name": "recordVersions",
      "outputs": [
        {
          "internalType": "uint64",
          "name": "",
          "type": "uint64"
        }
      ],
      "stateMutability": "view",
      "type": "function"
    },
    {
      "inputs": [
        {
          "internalType": "bytes32",
          "name": "node",
          "type": "bytes32"
        },
        {
          "internalType": "uint256",
          "name": "contentType",
          "type": "uint256"
        },
        {
          "internalType": "bytes",
          "name": "data",
          "type": "bytes"
        }
      ],
      "name": "setABI",
      "outputs": [],
      "stateMutability": "nonpayable",
      "type": "function"
    },
    {
      "inputs": [
        {
          "internalType": "bytes32",
          "name": "node",
          "type": "bytes32"
        },
        {
          "internalType": "uint256",
          "name": "coinType",
          "type": "uint256"
        },
        {
          "internalType": "bytes",
          "name": "addressBytes",
          "type": "bytes"
        }
      ],
      "name": "setAddr",
      "outputs": [],
      "stateMutability": "nonpayable",
      "type": "function"
    },
    {
      "inputs": [
        {
          "internalType": "bytes32",
          "name": "node",
          "type": "bytes32"
        },
        {
          "internalType": "address",
          "name": "_addr",
          "type": "address"
        }
      ],
      "name": "setAddr",
      "outputs": [],
      "stateMutability": "nonpayable",
      "type": "function"
    },
    {
      "inputs": [
        {
          "internalType": "address",
          "name": "operator",
          "type": "address"
        },
        {
          "internalType": "bool",
          "name": "approved",
          "type": "bool"
        }
      ],
      "name": "setApprovalForAll",
      "outputs": [],
      "stateMutability": "nonpayable",
      "type": "function"
    },
    {
      "inputs": [
        {
          "internalType": "bytes32",
          "name": "node",
          "type": "bytes32"
        },
        {
          "internalType": "bytes",
          "name": "hash",
          "type": "bytes"
        }
      ],
      "name": "setContenthash",
      "outputs": [],
      "stateMutability": "nonpayable",
      "type": "function"
    },
    {
      "inputs": [
        {
          "internalType": "bytes32",
          "name": "node",
          "type": "bytes32"
        },
        {
          "internalType": "bytes",
          "name": "data",
          "type": "bytes"
        }
      ],
      "name": "setDNSRecords",
      "outputs": [],
      "stateMutability": "nonpayable",
      "type": "function"
    },
    {
      "inputs": [
        {
          "internalType": "bytes32",
          "name": "node",
          "type": "bytes32"
        },
        {
          "internalType": "bytes4",
          "name": "interfaceID",
          "type": "bytes4"
        },
        {
          "internalType": "address",
          "name": "implementer",
          "type": "address"
        }
      ],
      "name": "setInterface",
      "outputs": [],
      "stateMutability": "nonpayable",
      "type": "function"
    },
    {
      "inputs": [
        {
          "internalType": "bytes32",
          "name": "node",
          "type": "bytes32"
        },
        {
          "internalType": "string",
          "name": "newName",
          "type": "string"
        }
      ],
      "name": "setName",
      "outputs": [],
      "stateMutability": "nonpayable",
      "type": "function"
    },
    {
      "inputs": [
        {
          "internalType": "bytes32",
          "name": "node",
          "type": "bytes32"
        },
        {
          "internalType": "bytes32",
          "name": "x",
          "type": "bytes32"
        },
        {
          "internalType": "bytes32",
          "name": "y",
          "type": "bytes32"
        }
      ],
      "name": "setPubkey",
      "outputs": [],
      "stateMutability": "nonpayable",
      "type": "function"
    },
    {
      "inputs": [
        {
          "internalType": "bytes32",
          "name": "node",
          "type": "bytes32"
        },
        {
          "internalType": "string",
          "name": "key",
          "type": "string"
        },
        {
          "internalType": "string",
          "name": "value",
          "type": "string"
        }
      ],
      "name": "setText",
      "outputs": [],
      "stateMutability": "nonpayable",
      "type": "function"
    },
    {
      "inputs": [
        {
          "internalType": "bytes32",
          "name": "node",
          "type": "bytes32"
        },
        {
          "internalType": "bytes",
          "name": "hash",
          "type": "bytes"
        }
      ],
      "name": "setZonehash",
      "outputs": [],
      "stateMutability": "nonpayable",
      "type": "function"
    },
    {
      "inputs": [
        {
          "internalType": "bytes4",
          "name": "interfaceID",
          "type": "bytes4"
        }
      ],
      "name": "supportsInterface",
      "outputs": [
        {
          "internalType": "bool",
          "name": "",
          "type": "bool"
        }
      ],
      "stateMutability": "view",
      "type": "function"
    },
    {
      "inputs": [
        {
          "internalType": "bytes32",
          "name": "node",
          "type": "bytes32"
        },
        {
          "internalType": "string",
          "name": "key",
          "type": "string"
        }
      ],
      "name": "text",
      "outputs": [
        {
          "internalType": "string",
          "name": "",
          "type": "string"
        }
      ],
      "stateMutability": "view",
      "type": "function"
    },
    {
      "inputs": [
        {
          "internalType": "bytes32",
          "name": "node",
          "type": "bytes32"
        }
      ],
      "name": "zonehash",
      "outputs": [
        {
          "internalType": "bytes",
          "name": "",
          "type": "bytes"
        }
      ],
      "stateMutability": "view",
      "type": "function"
    }
  ],
  "contractName": "PublicResolver",
  "sourceName": "lib/ens-contracts/contracts/resolvers/PublicResolver.sol",
  "bytecode": "0x610100604052348015610010575f80fd5b5060405161332f38038061332f83398101604081905261002f91610165565b6040516302571be360e01b81527f91d1777781884d03a6757a803996e38de2a42967fb37eeaca72729271025a9e26004820152849033905f906001600160a01b038416906302571be390602401602060405180830381865afa158015610097573d5f803e3d5ffd5b505050506040513d601f19601f820116820180604052508101906100bb91906101c1565b604051630f41a04d60e11b81526001600160a01b03848116600483015291925090821690631e83409a906024016020604051808303815f875af1158015610104573d5f803e3d5ffd5b505050506040513d601f19601f8201168201806040525081019061012891906101e3565b5050506001600160a01b039485166080525091831660a052821660c0521660e0526101fa565b6001600160a01b0381168114610162575f80fd5b50565b5f805f8060808587031215610178575f80fd5b84516101838161014e565b60208601519094506101948161014e565b60408601519093506101a58161014e565b60608601519092506101b68161014e565b939692955090935050565b5f602082840312156101d1575f80fd5b81516101dc8161014e565b9392505050565b5f602082840312156101f3575f80fd5b5051919050565b60805160a05160c05160e0516130fb6102345f395f61192e01525f6118fc01525f8181611a030152611a6901525f61198e01526130fb5ff3fe608060405234801561000f575f80fd5b50600436106101dc575f3560e01c80637737221311610109578063c86902331161009e578063e32954eb1161006e578063e32954eb14610514578063e59d895d14610527578063e985e9c51461053a578063f1cb7e0614610575575f80fd5b8063c869023314610454578063ce3decdc146104ac578063d5fa2b00146104bf578063d700ff33146104d2575f80fd5b8063a8fa5682116100d9578063a8fa5682146103cb578063a9784b3e146103de578063ac9650d814610421578063bc1c58d114610441575f80fd5b8063773722131461037f5780638b95dd7114610392578063a22cb465146103a5578063a4b91a01146103b8575f80fd5b806332f111d71161017f57806359d1d43c1161014f57806359d1d43c146103265780635c98042b14610346578063623195b014610359578063691f34311461036c575f80fd5b806332f111d7146102a25780633603d758146102b55780633b3b57de146102c85780634cbf6ba4146102db575f80fd5b8063124a319c116101ba578063124a319c146102305780632203ab561461025b57806329cd62ea1461027c578063304e6ade1461028f575f80fd5b806301ffc9a7146101e05780630af179d71461020857806310f13a8c1461021d575b5f80fd5b6101f36101ee36600461266e565b610588565b60405190151581526020015b60405180910390f35b61021b6102163660046126c5565b610598565b005b61021b61022b36600461270d565b61079b565b61024361023e366004612781565b610866565b6040516001600160a01b0390911681526020016101ff565b61026e6102693660046127ab565b610b06565b6040516101ff9291906127f9565b61021b61028a366004612811565b610c42565b61021b61029d3660046126c5565b610cdb565b6101f36102b03660046127ab565b610d55565b61021b6102c336600461283a565b610da0565b6102436102d636600461283a565b610e40565b6101f36102e93660046127ab565b5f828152602081815260408083205467ffffffffffffffff1683526006825280832094835293815283822092825291909152205461ffff16151590565b6103396103343660046126c5565b610e5e565b6040516101ff9190612851565b61033961035436600461283a565b610f3c565b61021b610367366004612863565b610ff8565b61033961037a36600461283a565b611091565b61021b61038d3660046126c5565b6110ca565b61021b6103a03660046128c6565b611144565b61021b6103b33660046129a6565b611281565b61021b6103c63660046129d0565b61136a565b6103396103d9366004612a0b565b611436565b6101f36103ec366004612a47565b6001600160a01b039283165f908152600c60209081526040808320948352938152838220929094168152925290205460ff1690565b61043461042f366004612abc565b611483565b6040516101ff9190612afb565b61033961044f36600461283a565b611490565b61049761046236600461283a565b5f818152602081815260408083205467ffffffffffffffff168352600982528083209383529290522080546001909101549091565b604080519283526020830191909152016101ff565b61021b6104ba3660046126c5565b6114c9565b61021b6104cd366004612b5d565b611607565b6104fb6104e036600461283a565b5f6020819052908152604090205467ffffffffffffffff1681565b60405167ffffffffffffffff90911681526020016101ff565b610434610522366004612b8b565b61165a565b61021b610535366004612bc6565b61166f565b6101f3610548366004612bf8565b6001600160a01b039182165f908152600b6020908152604080832093909416825291909152205460ff1690565b6103396105833660046127ab565b61172c565b5f610592826118b3565b92915050565b826105a2816118f0565b6105aa575f80fd5b5f84815260208181526040808320548151601f870184900484028101840190925285825283926060928392859267ffffffffffffffff90911691839161060e9183918d908d90819084018382808284375f920191909152509293925050611b4f9050565b90505b80515160208201511015610735578661ffff165f03610675578060400151965061063a81611baa565b94508460405160200161064d9190612c24565b60405160208183030381529060405280519060200120925061066e81611bcb565b9350610727565b5f61067f82611baa565b9050816040015161ffff168861ffff161415806106a357506106a18682611be7565b155b15610725576106fe8c878a8e8e8080601f0160208091040260200160405190810160405280939291908181526020018383808284375f92019190915250505060208801518d91506106f5908290612c4e565b8b51158a611c0b565b81604001519750816020015196508095508580519060200120935061072282611bcb565b94505b505b61073081611e70565b610611565b5083511561078f5761078f8a85888c8c8080601f0160208091040260200160405190810160405280939291908181526020018383808284375f920191909152508c925061078691508290508f612c4e565b89511588611c0b565b50505050505050505050565b846107a5816118f0565b6107ad575f80fd5b5f868152602081815260408083205467ffffffffffffffff168352600a8252808320898452909152908190209051849184916107ec9089908990612c61565b90815260200160405180910390209182610807929190612cec565b508484604051610818929190612c61565b6040518091039020867f448bc014f1536726cf8d54ff3d6481ed3cbc683c2591ca204274009afa09b1a1878787876040516108569493929190612dce565b60405180910390a3505050505050565b5f828152602081815260408083205467ffffffffffffffff1683526007825280832085845282528083206001600160e01b0319851684529091528120546001600160a01b031680156108b9579050610592565b5f6108c385610e40565b90506001600160a01b0381166108dd575f92505050610592565b6040516301ffc9a760e01b60248201525f9081906001600160a01b0384169060440160408051601f198184030181529181526020820180517bffffffffffffffffffffffffffffffffffffffffffffffffffffffff166301ffc9a760e01b179052516109499190612c24565b5f60405180830381855afa9150503d805f8114610981576040519150601f19603f3d011682016040523d82523d5f602084013e610986565b606091505b5091509150811580610999575060208151105b806109db575080601f815181106109b2576109b2612dff565b01602001517fff0000000000000000000000000000000000000000000000000000000000000016155b156109ec575f945050505050610592565b6040516001600160e01b0319871660248201526001600160a01b0384169060440160408051601f198184030181529181526020820180517bffffffffffffffffffffffffffffffffffffffffffffffffffffffff166301ffc9a760e01b17905251610a579190612c24565b5f60405180830381855afa9150503d805f8114610a8f576040519150601f19603f3d011682016040523d82523d5f602084013e610a94565b606091505b509092509050811580610aa8575060208151105b80610aea575080601f81518110610ac157610ac1612dff565b01602001517fff0000000000000000000000000000000000000000000000000000000000000016155b15610afb575f945050505050610592565b509095945050505050565b5f828152602081815260408083205467ffffffffffffffff168352600180835281842086855290925282206060915b5f81118015610b445750848111155b15610c245780851615801590610b7157505f8181526020839052604081208054610b6d90612c70565b9050115b15610c1c5780825f8381526020019081526020015f20808054610b9390612c70565b80601f0160208091040260200160405190810160405280929190818152602001828054610bbf90612c70565b8015610c0a5780601f10610be157610100808354040283529160200191610c0a565b820191905f5260205f20905b815481529060010190602001808311610bed57829003601f168201915b50505050509050935093505050610c3b565b60011b610b35565b505f60405180602001604052805f81525092509250505b9250929050565b82610c4c816118f0565b610c54575f80fd5b60408051808201825284815260208082018581525f8881528083528481205467ffffffffffffffff1681526009835284812089825283528490209251835551600190920191909155815185815290810184905285917f1d6f5e03d3f63eb58751986629a5439baee5079ff04f345becb66e23eb154e4691015b60405180910390a250505050565b82610ce5816118f0565b610ced575f80fd5b5f848152602081815260408083205467ffffffffffffffff168352600382528083208784529091529020610d22838583612cec565b50837fe379c1624ed7e714cc0937528a32359d69d5281337765313dba4e081b72d75788484604051610ccd929190612e13565b5f828152602081815260408083205467ffffffffffffffff16835260028252808320858452825280832084845290915281208054829190610d9590612c70565b905011905092915050565b80610daa816118f0565b610db2575f80fd5b5f828152602081905260408120805467ffffffffffffffff1691610dd583612e26565b82546101009290920a67ffffffffffffffff8181021990931691831602179091555f84815260208181526040918290205491519190921681528492507fc6621ccb8f3f5a04bb6502154b2caf6adf5983fe76dfef1cfc9c42e3579db444910160405180910390a25050565b5f610e4c82603c61172c565b610e5590612e4c565b60601c92915050565b5f838152602081815260408083205467ffffffffffffffff168352600a825280832086845290915290819020905160609190610e9d9085908590612c61565b90815260200160405180910390208054610eb690612c70565b80601f0160208091040260200160405190810160405280929190818152602001828054610ee290612c70565b8015610f2d5780601f10610f0457610100808354040283529160200191610f2d565b820191905f5260205f20905b815481529060010190602001808311610f1057829003601f168201915b505050505090505b9392505050565b5f818152602081815260408083205467ffffffffffffffff168352600482528083208484529091529020805460609190610f7590612c70565b80601f0160208091040260200160405190810160405280929190818152602001828054610fa190612c70565b8015610fec5780601f10610fc357610100808354040283529160200191610fec565b820191905f5260205f20905b815481529060010190602001808311610fcf57829003601f168201915b50505050509050919050565b83611002816118f0565b61100a575f80fd5b83611016600182612c4e565b1615611020575f80fd5b5f858152602081815260408083205467ffffffffffffffff168352600182528083208884528252808320878452909152902061105d838583612cec565b50604051849086907faa121bbeef5f32f5961a2a28966e769023910fc9479059ee3495d4c1a696efe3905f90a35050505050565b5f818152602081815260408083205467ffffffffffffffff168352600882528083208484529091529020805460609190610f7590612c70565b826110d4816118f0565b6110dc575f80fd5b5f848152602081815260408083205467ffffffffffffffff168352600882528083208784529091529020611111838583612cec565b50837fb7d29e911041e8d9b843369e890bcb72c9388692ba48b65ac54e7214c4c348f78484604051610ccd929190612e13565b8261114e816118f0565b611156575f80fd5b81511580159061116857508151601414155b8015611178575061117883611f55565b156111ba57816040517f8d666f600000000000000000000000000000000000000000000000000000000081526004016111b19190612851565b60405180910390fd5b837f65412581168e88a1e60c6459d7f44ae83ad0832e670826c05a4e2476b57af75284846040516111ec9291906127f9565b60405180910390a2603c830361123e57837f52d7d861f09ab3d26239d492e8968629f95e9e318cf0b73bfddc441522a15fd261122784612e4c565b60405160609190911c815260200160405180910390a25b5f848152602081815260408083205467ffffffffffffffff168352600282528083208784528252808320868452909152902061127a8382612e88565b5050505050565b6001600160a01b03821633036112ff5760405162461bcd60e51b815260206004820152602960248201527f455243313135353a2073657474696e6720617070726f76616c2073746174757360448201527f20666f722073656c66000000000000000000000000000000000000000000000060648201526084016111b1565b335f818152600b602090815260408083206001600160a01b03871680855290835292819020805460ff191686151590811790915590519081529192917f17307eab39ab6107e8899845ad3d59bd9653f200f220920489ca2b5937696c31910160405180910390a35050565b6001600160a01b03821633036113c25760405162461bcd60e51b815260206004820181905260248201527f53657474696e672064656c65676174652073746174757320666f722073656c6660448201526064016111b1565b335f818152600c6020908152604080832087845282528083206001600160a01b03871680855290835292819020805460ff191686151590811790915590519384529286917ff0ddb3b04746704017f9aa8bd728fcc2c1d11675041205350018915f5e4750a0910160405180910390a4505050565b5f838152602081815260408083205467ffffffffffffffff168352600582528083208684528252808320858452825280832061ffff851684529091529020805460609190610eb690612c70565b6060610f355f8484611f7a565b5f818152602081815260408083205467ffffffffffffffff168352600382528083208484529091529020805460609190610f7590612c70565b826114d3816118f0565b6114db575f80fd5b5f848152602081815260408083205467ffffffffffffffff16808452600483528184208885529092528220805491929161151490612c70565b80601f016020809104026020016040519081016040528092919081815260200182805461154090612c70565b801561158b5780601f106115625761010080835404028352916020019161158b565b820191905f5260205f20905b81548152906001019060200180831161156e57829003601f168201915b5050505067ffffffffffffffff84165f9081526004602090815260408083208b845290915290209192506115c29050858783612cec565b50857f8f15ed4b723ef428f250961da8315675b507046737e19319fc1a4d81bfe87f858287876040516115f793929190612f48565b60405180910390a2505050505050565b81611611816118f0565b611619575f80fd5b6040516bffffffffffffffffffffffff19606084901b166020820152611655908490603c90603401604051602081830303815290604052611144565b505050565b6060611667848484611f7a565b949350505050565b82611679816118f0565b611681575f80fd5b5f848152602081815260408083205467ffffffffffffffff1683526007825280832087845282528083206001600160e01b031987168085529083529281902080547fffffffffffffffffffffffff0000000000000000000000000000000000000000166001600160a01b038716908117909155905190815286917f7c69f06bea0bdef565b709e93a147836b0063ba2dd89f02d0b7e8d931e6a6daa910160405180910390a350505050565b5f828152602081815260408083205467ffffffffffffffff168352600282528083208584528252808320848452918290529091208054606092919061177090612c70565b80601f016020809104026020016040519081016040528092919081815260200182805461179c90612c70565b80156117e75780601f106117be576101008083540402835291602001916117e7565b820191905f5260205f20905b8154815290600101906020018083116117ca57829003601f168201915b5050505050915081515f14801561180b57505f61180384612141565b63ffffffff16115b156118ac5763800000005f908152602082905260409020805461182d90612c70565b80601f016020809104026020016040519081016040528092919081815260200182805461185990612c70565b80156118a45780601f1061187b576101008083540402835291602001916118a4565b820191905f5260205f20905b81548152906001019060200180831161188757829003601f168201915b505050505091505b5092915050565b5f6001600160e01b031982167f59d1d43c00000000000000000000000000000000000000000000000000000000148061059257506105928261216b565b5f336001600160a01b037f00000000000000000000000000000000000000000000000000000000000000001614806119505750336001600160a01b037f000000000000000000000000000000000000000000000000000000000000000016145b1561195d57506001919050565b6040517f02571be3000000000000000000000000000000000000000000000000000000008152600481018390525f907f00000000000000000000000000000000000000000000000000000000000000006001600160a01b0316906302571be390602401602060405180830381865afa1580156119db573d5f803e3d5ffd5b505050506040513d601f19601f820116820180604052508101906119ff9190612f77565b90507f00000000000000000000000000000000000000000000000000000000000000006001600160a01b0316816001600160a01b031603611add576040517f6352211e000000000000000000000000000000000000000000000000000000008152600481018490527f00000000000000000000000000000000000000000000000000000000000000006001600160a01b031690636352211e90602401602060405180830381865afa158015611ab6573d5f803e3d5ffd5b505050506040513d601f19601f82011682018060405250810190611ada9190612f77565b90505b6001600160a01b038116331480611b1657506001600160a01b0381165f908152600b6020908152604080832033845290915290205460ff165b80610f3557506001600160a01b0381165f908152600c60209081526040808320868452825280832033845290915290205460ff16610f35565b611b976040518060e00160405280606081526020015f81526020015f61ffff1681526020015f61ffff1681526020015f63ffffffff1681526020015f81526020015f81525090565b82815260c0810182905261059281611e70565b6020810151815160609161059291611bc290826121a8565b845191906121ff565b60a081015160c082015160609161059291611bc2908290612c4e565b5f81518351148015610f355750508051602091820120825192909101919091201490565b865160208801205f611c1e8787876121ff565b90508315611d455767ffffffffffffffff83165f9081526005602090815260408083208d84528252808320858452825280832061ffff8c16845290915290208054611c6890612c70565b159050611cc65767ffffffffffffffff83165f9081526006602090815260408083208d845282528083208584529091528120805461ffff1691611caa83612f92565b91906101000a81548161ffff021916908361ffff160217905550505b67ffffffffffffffff83165f9081526005602090815260408083208d84528252808320858452825280832061ffff8c1684529091528120611d0691612604565b897f03528ed0c2a3ebc993b12ce3c16bb382f9c7d88ef7d8a1bf290eaf35955a12078a8a604051611d38929190612fae565b60405180910390a261078f565b67ffffffffffffffff83165f9081526005602090815260408083208d84528252808320858452825280832061ffff8c16845290915290208054611d8790612c70565b90505f03611de65767ffffffffffffffff83165f9081526006602090815260408083208d845282528083208584529091528120805461ffff1691611dca83612fd3565b91906101000a81548161ffff021916908361ffff160217905550505b67ffffffffffffffff83165f9081526005602090815260408083208d84528252808320858452825280832061ffff8c1684529091529020611e278282612e88565b50897f52a608b3303a48862d07a73d82fa221318c0027fbbcfb1b2329bface3f19ff2b8a8a84604051611e5c93929190612fe9565b60405180910390a250505050505050505050565b60c08101516020820181905281515111611e875750565b5f611e99825f015183602001516121a8565b8260200151611ea89190613017565b8251909150611eb79082612254565b61ffff166040830152611ecb600282613017565b8251909150611eda9082612254565b61ffff166060830152611eee600282613017565b8251909150611efd9082612275565b63ffffffff166080830152611f13600482613017565b82519091505f90611f249083612254565b61ffff169050611f35600283613017565b60a084018190529150611f488183613017565b60c0909301929092525050565b5f638000000082148061059257505f611f6d83612141565b63ffffffff161192915050565b60608167ffffffffffffffff811115611f9557611f956128b2565b604051908082528060200260200182016040528015611fc857816020015b6060815260200190600190039081611fb35790505b5090505f5b82811015612139578415612091575f848483818110611fee57611fee612dff565b9050602002810190612000919061302a565b61200f9160249160049161306d565b61201891613094565b905085811461208f5760405162461bcd60e51b815260206004820152603460248201527f6d756c746963616c6c3a20416c6c207265636f726473206d757374206861766560448201527f2061206d61746368696e67206e616d656861736800000000000000000000000060648201526084016111b1565b505b5f80308686858181106120a6576120a6612dff565b90506020028101906120b8919061302a565b6040516120c6929190612c61565b5f60405180830381855af49150503d805f81146120fe576040519150601f19603f3d011682016040523d82523d5f602084013e612103565b606091505b509150915081612111575f80fd5b8084848151811061212457612124612dff565b60209081029190910101525050600101611fcd565b509392505050565b5f603c820361215257506001919050565b6380000000918218918210612167575f610592565b5090565b5f6001600160e01b031982167fc8690233000000000000000000000000000000000000000000000000000000001480610592575061059282612291565b5f815b835181106121bb576121bb6130b1565b5f6121c685836122ce565b60ff1690506121d6816001613017565b6121e09083613017565b9150805f036121ef57506121f5565b506121ab565b6116678382612c4e565b60608167ffffffffffffffff81111561221a5761221a6128b2565b6040519080825280601f01601f191660200182016040528015612244576020820181803683370190505b509050610f358484835f86612300565b5f61226983612264846002613017565b612331565b50016020015160f01c90565b5f61228583612264846004613017565b50016020015160e01c90565b5f6001600160e01b031982167f691f343100000000000000000000000000000000000000000000000000000000148061059257506105928261237d565b5f6122de83612264846001613017565b8282815181106122f0576122f0612dff565b016020015160f81c905092915050565b61230e856122648387613017565b61231c836122648385613017565b61127a826020850101856020880101836123ba565b81518111156123795781516040517f8a3c1cfb0000000000000000000000000000000000000000000000000000000081526111b1918391600401918252602082015260400190565b5050565b5f6001600160e01b031982167f124a319c000000000000000000000000000000000000000000000000000000001480610592575061059282612403565b5b601f8111156123db578151835260209283019290910190601f19016123bb565b80156116555790518251600160209390930360031b9290921b5f190180199091169116179052565b5f6001600160e01b031982167fa8fa568200000000000000000000000000000000000000000000000000000000148061246557506001600160e01b031982167f5c98042b00000000000000000000000000000000000000000000000000000000145b806105925750610592825f6001600160e01b031982167fbc1c58d10000000000000000000000000000000000000000000000000000000014806105925750610592825f7f3b3b57de000000000000000000000000000000000000000000000000000000006001600160e01b03198316148061250957507ff1cb7e06000000000000000000000000000000000000000000000000000000006001600160e01b03198316145b8061253d57507f32f111d7000000000000000000000000000000000000000000000000000000006001600160e01b03198316145b806105925750610592825f6001600160e01b031982167f2203ab560000000000000000000000000000000000000000000000000000000014806105925750610592825f6001600160e01b031982167fd700ff330000000000000000000000000000000000000000000000000000000014806105925750610592825f6001600160e01b031982167f4fbf043300000000000000000000000000000000000000000000000000000000148061059257506301ffc9a760e01b6001600160e01b0319831614610592565b50805461261090612c70565b5f825580601f1061261f575050565b601f0160209004905f5260205f209081019061263b919061263e565b50565b5b80821115612167575f815560010161263f565b80356001600160e01b031981168114612669575f80fd5b919050565b5f6020828403121561267e575f80fd5b610f3582612652565b5f8083601f840112612697575f80fd5b50813567ffffffffffffffff8111156126ae575f80fd5b602083019150836020828501011115610c3b575f80fd5b5f805f604084860312156126d7575f80fd5b83359250602084013567ffffffffffffffff8111156126f4575f80fd5b61270086828701612687565b9497909650939450505050565b5f805f805f60608688031215612721575f80fd5b85359450602086013567ffffffffffffffff8082111561273f575f80fd5b61274b89838a01612687565b90965094506040880135915080821115612763575f80fd5b5061277088828901612687565b969995985093965092949392505050565b5f8060408385031215612792575f80fd5b823591506127a260208401612652565b90509250929050565b5f80604083850312156127bc575f80fd5b50508035926020909101359150565b5f81518084528060208401602086015e5f602082860101526020601f19601f83011685010191505092915050565b828152604060208201525f61166760408301846127cb565b5f805f60608486031215612823575f80fd5b505081359360208301359350604090920135919050565b5f6020828403121561284a575f80fd5b5035919050565b602081525f610f3560208301846127cb565b5f805f8060608587031215612876575f80fd5b8435935060208501359250604085013567ffffffffffffffff81111561289a575f80fd5b6128a687828801612687565b95989497509550505050565b634e487b7160e01b5f52604160045260245ffd5b5f805f606084860312156128d8575f80fd5b8335925060208401359150604084013567ffffffffffffffff808211156128fd575f80fd5b818601915086601f830112612910575f80fd5b813581811115612922576129226128b2565b604051601f8201601f19908116603f0116810190838211818310171561294a5761294a6128b2565b81604052828152896020848701011115612962575f80fd5b826020860160208301375f6020848301015280955050505050509250925092565b6001600160a01b038116811461263b575f80fd5b80358015158114612669575f80fd5b5f80604083850312156129b7575f80fd5b82356129c281612983565b91506127a260208401612997565b5f805f606084860312156129e2575f80fd5b8335925060208401356129f481612983565b9150612a0260408501612997565b90509250925092565b5f805f60608486031215612a1d575f80fd5b8335925060208401359150604084013561ffff81168114612a3c575f80fd5b809150509250925092565b5f805f60608486031215612a59575f80fd5b8335612a6481612983565b9250602084013591506040840135612a3c81612983565b5f8083601f840112612a8b575f80fd5b50813567ffffffffffffffff811115612aa2575f80fd5b6020830191508360208260051b8501011115610c3b575f80fd5b5f8060208385031215612acd575f80fd5b823567ffffffffffffffff811115612ae3575f80fd5b612aef85828601612a7b565b90969095509350505050565b5f60208083016020845280855180835260408601915060408160051b8701019250602087015f5b82811015612b5057603f19888603018452612b3e8583516127cb565b94509285019290850190600101612b22565b5092979650505050505050565b5f8060408385031215612b6e575f80fd5b823591506020830135612b8081612983565b809150509250929050565b5f805f60408486031215612b9d575f80fd5b83359250602084013567ffffffffffffffff811115612bba575f80fd5b61270086828701612a7b565b5f805f60608486031215612bd8575f80fd5b83359250612be860208501612652565b91506040840135612a3c81612983565b5f8060408385031215612c09575f80fd5b8235612c1481612983565b91506020830135612b8081612983565b5f82518060208501845e5f920191825250919050565b634e487b7160e01b5f52601160045260245ffd5b8181038181111561059257610592612c3a565b818382375f9101908152919050565b600181811c90821680612c8457607f821691505b602082108103612ca257634e487b7160e01b5f52602260045260245ffd5b50919050565b601f82111561165557805f5260205f20601f840160051c81016020851015612ccd5750805b601f840160051c820191505b8181101561127a575f8155600101612cd9565b67ffffffffffffffff831115612d0457612d046128b2565b612d1883612d128354612c70565b83612ca8565b5f601f841160018114612d49575f8515612d325750838201355b5f19600387901b1c1916600186901b17835561127a565b5f83815260208120601f198716915b82811015612d785786850135825560209485019460019092019101612d58565b5086821015612d94575f1960f88860031b161c19848701351681555b505060018560011b0183555050505050565b81835281816020850137505f828201602090810191909152601f909101601f19169091010190565b604081525f612de1604083018688612da6565b8281036020840152612df4818587612da6565b979650505050505050565b634e487b7160e01b5f52603260045260245ffd5b602081525f611667602083018486612da6565b5f67ffffffffffffffff808316818103612e4257612e42612c3a565b6001019392505050565b805160208201516bffffffffffffffffffffffff198082169291906014831015612e805780818460140360031b1b83161693505b505050919050565b815167ffffffffffffffff811115612ea257612ea26128b2565b612eb681612eb08454612c70565b84612ca8565b602080601f831160018114612ee9575f8415612ed25750858301515b5f19600386901b1c1916600185901b178555612f40565b5f85815260208120601f198616915b82811015612f1757888601518255948401946001909101908401612ef8565b5085821015612f3457878501515f19600388901b60f8161c191681555b505060018460011b0185555b505050505050565b604081525f612f5a60408301866127cb565b8281036020840152612f6d818587612da6565b9695505050505050565b5f60208284031215612f87575f80fd5b8151610f3581612983565b5f61ffff821680612fa557612fa5612c3a565b5f190192915050565b604081525f612fc060408301856127cb565b905061ffff831660208301529392505050565b5f61ffff808316818103612e4257612e42612c3a565b606081525f612ffb60608301866127cb565b61ffff851660208401528281036040840152612f6d81856127cb565b8082018082111561059257610592612c3a565b5f808335601e1984360301811261303f575f80fd5b83018035915067ffffffffffffffff821115613059575f80fd5b602001915036819003821315610c3b575f80fd5b5f808585111561307b575f80fd5b83861115613087575f80fd5b5050820193919092039150565b80356020831015610592575f19602084900360031b1b1692915050565b634e487b7160e01b5f52600160045260245ffdfea26469706673582212209df51aab2e626ffcaf4795d253b89786e3c5e97a5720edd2291c08bea899fa7264736f6c63430008190033",
  "linkReferences": {},
  "deployedLinkReferences": {},
  "immutableReferences": {
    "12138": [
      {
        "length": 32,
        "start": 6542
      }
    ],
    "12141": [
      {
        "length": 32,
        "start": 6659
      },
      {
        "length": 32,
        "start": 6761
      }
    ],
    "12143": [
      {
        "length": 32,
        "start": 6396
      }
    ],
    "12145": [
      {
        "length": 32,
        "start": 6446
      }
    ]
  },
  "inputSourceName": "project/lib/ens-contracts/contracts/resolvers/PublicResolver.sol",
  "devdoc": {
    "errors": {
      "InvalidEVMAddress(bytes)": [
        {
          "details": "Error selector: `0x8d666f60`"
        }
      ],
      "OffsetOutOfBoundsError(uint256,uint256)": [
        {
          "details": "`offset` was beyond `length`.       Error selector: `0x8a3c1cfb`"
        }
      ]
    },
    "kind": "dev",
    "methods": {
      "ABI(bytes32,uint256)": {
        "params": {
          "contentTypes": "A bitwise OR of the ABI formats accepted by the caller.",
          "node": "The ENS node to query"
        },
        "returns": {
          "_0": "contentType The content type of the return value",
          "_1": "data The ABI data"
        }
      },
      "addr(bytes32)": {
        "params": {
          "node": "The node to query."
        },
        "returns": {
          "_0": "The associated address."
        }
      },
      "addr(bytes32,uint256)": {
        "params": {
          "coinType": "The coin type.",
          "node": "The node to query."
        },
        "returns": {
          "addressBytes": "The assocated address."
        }
      },
      "approve(bytes32,address,bool)": {
        "details": "Approve a delegate to be able to updated records on a node."
      },
      "clearRecords(bytes32)": {
        "params": {
          "node": "The node to update."
        }
      },
      "contenthash(bytes32)": {
        "params": {
          "node": "The ENS node to query."
        },
        "returns": {
          "_0": "The associated contenthash."
        }
      },
      "dnsRecord(bytes32,bytes32,uint16)": {
        "params": {
          "name": "the keccak-256 hash of the fully-qualified name for which to fetch the record",
          "node": "the namehash of the node for which to fetch the record",
          "resource": "the ID of the resource as per https://en.wikipedia.org/wiki/List_of_DNS_record_types"
        },
        "returns": {
          "_0": "the DNS record in wire format if present, otherwise empty"
        }
      },
      "hasAddr(bytes32,uint256)": {
        "params": {
          "coinType": "The coin type.",
          "node": "The node to query."
        },
        "returns": {
          "_0": "True if the associated address is not empty."
        }
      },
      "hasDNSRecords(bytes32,bytes32)": {
        "params": {
          "name": "the namehash of the node for which to check the records",
          "node": "the namehash of the node for which to check the records"
        }
      },
      "interfaceImplementer(bytes32,bytes4)": {
        "params": {
          "interfaceID": "The EIP 165 interface ID to check for.",
          "node": "The ENS node to query."
        },
        "returns": {
          "_0": "The address that implements this interface, or 0 if the interface is unsupported."
        }
      },
      "isApprovedFor(address,bytes32,address)": {
        "details": "Check to see if the delegate has been approved by the owner for the node."
      },
      "isApprovedForAll(address,address)": {
        "details": "See {IERC1155-isApprovedForAll}."
      },
      "name(bytes32)": {
        "params": {
          "node": "The ENS node to query."
        },
        "returns": {
          "_0": "The associated name."
        }
      },
      "pubkey(bytes32)": {
        "params": {
          "node": "The ENS node to query"
        },
        "returns": {
          "x": "The X coordinate of the curve point for the public key.",
          "y": "The Y coordinate of the curve point for the public key."
        }
      },
      "setABI(bytes32,uint256,bytes)": {
        "params": {
          "contentType": "The content type of the ABI",
          "data": "The ABI data.",
          "node": "The node to update."
        }
      },
      "setAddr(bytes32,address)": {
        "params": {
          "_addr": "The address to set.",
          "node": "The node to update."
        }
      },
      "setAddr(bytes32,uint256,bytes)": {
        "params": {
          "addressBytes": "The address to set.",
          "coinType": "The coin type.",
          "node": "The node to update."
        }
      },
      "setApprovalForAll(address,bool)": {
        "details": "See {IERC1155-setApprovalForAll}."
      },
      "setContenthash(bytes32,bytes)": {
        "params": {
          "hash": "The contenthash to set",
          "node": "The node to update."
        }
      },
      "setDNSRecords(bytes32,bytes)": {
        "params": {
          "data": "the DNS wire format records to set",
          "node": "the namehash of the node for which to set the records"
        }
      },
      "setInterface(bytes32,bytes4,address)": {
        "params": {
          "implementer": "The address of a contract that implements this interface for this node.",
          "interfaceID": "The EIP 165 interface ID.",
          "node": "The node to update."
        }
      },
      "setName(bytes32,string)": {
        "params": {
          "node": "The node to update."
        }
      },
      "setPubkey(bytes32,bytes32,bytes32)": {
        "params": {
          "node": "The ENS node to query",
          "x": "the X coordinate of the curve point for the public key.",
          "y": "the Y coordinate of the curve point for the public key."
        }
      },
      "setText(bytes32,string,string)": {
        "params": {
          "key": "The key to set.",
          "node": "The node to update.",
          "value": "The text data value to set."
        }
      },
      "setZonehash(bytes32,bytes)": {
        "params": {
          "hash": "The zonehash to set",
          "node": "The node to update."
        }
      },
      "text(bytes32,string)": {
        "params": {
          "key": "The text data key to query.",
          "node": "The ENS node to query."
        },
        "returns": {
          "_0": "The associated text data."
        }
      },
      "zonehash(bytes32)": {
        "params": {
          "node": "The ENS node to query."
        },
        "returns": {
          "_0": "The associated contenthash."
        }
      }
    },
    "version": 1
  },
  "evm": {
    "gasEstimates": {
      "creation": {
        "codeDepositCost": "2507800",
        "executionCost": "infinite",
        "totalCost": "infinite"
      },
      "external": {
        "ABI(bytes32,uint256)": "infinite",
        "addr(bytes32)": "infinite",
        "addr(bytes32,uint256)": "infinite",
        "approve(bytes32,address,bool)": "27217",
        "clearRecords(bytes32)": "infinite",
        "contenthash(bytes32)": "infinite",
        "dnsRecord(bytes32,bytes32,uint16)": "infinite",
        "hasAddr(bytes32,uint256)": "4962",
        "hasDNSRecords(bytes32,bytes32)": "4881",
        "interfaceImplementer(bytes32,bytes4)": "infinite",
        "isApprovedFor(address,bytes32,address)": "infinite",
        "isApprovedForAll(address,address)": "infinite",
        "multicall(bytes[])": "infinite",
        "multicallWithNodeCheck(bytes32,bytes[])": "infinite",
        "name(bytes32)": "infinite",
        "pubkey(bytes32)": "6857",
        "recordVersions(bytes32)": "2564",
        "setABI(bytes32,uint256,bytes)": "infinite",
        "setAddr(bytes32,address)": "infinite",
        "setAddr(bytes32,uint256,bytes)": "infinite",
        "setApprovalForAll(address,bool)": "26736",
        "setContenthash(bytes32,bytes)": "infinite",
        "setDNSRecords(bytes32,bytes)": "infinite",
        "setInterface(bytes32,bytes4,address)": "infinite",
        "setName(bytes32,string)": "infinite",
        "setPubkey(bytes32,bytes32,bytes32)": "infinite",
        "setText(bytes32,string,string)": "infinite",
        "setZonehash(bytes32,bytes)": "infinite",
        "supportsInterface(bytes4)": "infinite",
        "text(bytes32,string)": "infinite",
        "zonehash(bytes32)": "infinite"
      },
      "internal": {
        "isAuthorised(bytes32)": "infinite"
      }
    }
  },
  "storageLayout": {
    "storage": [
      {
        "astId": 12623,
        "contract": "project/lib/ens-contracts/contracts/resolvers/PublicResolver.sol:PublicResolver",
        "label": "recordVersions",
        "offset": 0,
        "slot": "0",
        "type": "t_mapping(t_bytes32,t_uint64)"
      },
      {
        "astId": 12738,
        "contract": "project/lib/ens-contracts/contracts/resolvers/PublicResolver.sol:PublicResolver",
        "label": "versionable_abis",
        "offset": 0,
        "slot": "1",
        "type": "t_mapping(t_uint64,t_mapping(t_bytes32,t_mapping(t_uint256,t_bytes_storage)))"
      },
      {
        "astId": 12905,
        "contract": "project/lib/ens-contracts/contracts/resolvers/PublicResolver.sol:PublicResolver",
        "label": "versionable_addresses",
        "offset": 0,
        "slot": "2",
        "type": "t_mapping(t_uint64,t_mapping(t_bytes32,t_mapping(t_uint256,t_bytes_storage)))"
      },
      {
        "astId": 13147,
        "contract": "project/lib/ens-contracts/contracts/resolvers/PublicResolver.sol:PublicResolver",
        "label": "versionable_hashes",
        "offset": 0,
        "slot": "3",
        "type": "t_mapping(t_uint64,t_mapping(t_bytes32,t_bytes_storage))"
      },
      {
        "astId": 13237,
        "contract": "project/lib/ens-contracts/contracts/resolvers/PublicResolver.sol:PublicResolver",
        "label": "versionable_zonehashes",
        "offset": 0,
        "slot": "4",
        "type": "t_mapping(t_uint64,t_mapping(t_bytes32,t_bytes_storage))"
      },
      {
        "astId": 13247,
        "contract": "project/lib/ens-contracts/contracts/resolvers/PublicResolver.sol:PublicResolver",
        "label": "versionable_records",
        "offset": 0,
        "slot": "5",
        "type": "t_mapping(t_uint64,t_mapping(t_bytes32,t_mapping(t_bytes32,t_mapping(t_uint16,t_bytes_storage))))"
      },
      {
        "astId": 13255,
        "contract": "project/lib/ens-contracts/contracts/resolvers/PublicResolver.sol:PublicResolver",
        "label": "versionable_nameEntriesCount",
        "offset": 0,
        "slot": "6",
        "type": "t_mapping(t_uint64,t_mapping(t_bytes32,t_mapping(t_bytes32,t_uint16)))"
      },
      {
        "astId": 14804,
        "contract": "project/lib/ens-contracts/contracts/resolvers/PublicResolver.sol:PublicResolver",
        "label": "versionable_interfaces",
        "offset": 0,
        "slot": "7",
        "type": "t_mapping(t_uint64,t_mapping(t_bytes32,t_mapping(t_bytes4,t_address)))"
      },
      {
        "astId": 14996,
        "contract": "project/lib/ens-contracts/contracts/resolvers/PublicResolver.sol:PublicResolver",
        "label": "versionable_names",
        "offset": 0,
        "slot": "8",
        "type": "t_mapping(t_uint64,t_mapping(t_bytes32,t_string_storage))"
      },
      {
        "astId": 15083,
        "contract": "project/lib/ens-contracts/contracts/resolvers/PublicResolver.sol:PublicResolver",
        "label": "versionable_pubkeys",
        "offset": 0,
        "slot": "9",
        "type": "t_mapping(t_uint64,t_mapping(t_bytes32,t_struct(PublicKey)15076_storage))"
      },
      {
        "astId": 15186,
        "contract": "project/lib/ens-contracts/contracts/resolvers/PublicResolver.sol:PublicResolver",
        "label": "versionable_texts",
        "offset": 0,
        "slot": "10",
        "type": "t_mapping(t_uint64,t_mapping(t_bytes32,t_mapping(t_string_memory_ptr,t_string_storage)))"
      },
      {
        "astId": 12152,
        "contract": "project/lib/ens-contracts/contracts/resolvers/PublicResolver.sol:PublicResolver",
        "label": "_operatorApprovals",
        "offset": 0,
        "slot": "11",
        "type": "t_mapping(t_address,t_mapping(t_address,t_bool))"
      },
      {
        "astId": 12161,
        "contract": "project/lib/ens-contracts/contracts/resolvers/PublicResolver.sol:PublicResolver",
        "label": "_tokenApprovals",
        "offset": 0,
        "slot": "12",
        "type": "t_mapping(t_address,t_mapping(t_bytes32,t_mapping(t_address,t_bool)))"
      }
    ],
    "types": {
      "t_address": {
        "encoding": "inplace",
        "label": "address",
        "numberOfBytes": "20"
      },
      "t_bool": {
        "encoding": "inplace",
        "label": "bool",
        "numberOfBytes": "1"
      },
      "t_bytes32": {
        "encoding": "inplace",
        "label": "bytes32",
        "numberOfBytes": "32"
      },
      "t_bytes4": {
        "encoding": "inplace",
        "label": "bytes4",
        "numberOfBytes": "4"
      },
      "t_bytes_storage": {
        "encoding": "bytes",
        "label": "bytes",
        "numberOfBytes": "32"
      },
      "t_mapping(t_address,t_bool)": {
        "encoding": "mapping",
        "key": "t_address",
        "label": "mapping(address => bool)",
        "numberOfBytes": "32",
        "value": "t_bool"
      },
      "t_mapping(t_address,t_mapping(t_address,t_bool))": {
        "encoding": "mapping",
        "key": "t_address",
        "label": "mapping(address => mapping(address => bool))",
        "numberOfBytes": "32",
        "value": "t_mapping(t_address,t_bool)"
      },
      "t_mapping(t_address,t_mapping(t_bytes32,t_mapping(t_address,t_bool)))": {
        "encoding": "mapping",
        "key": "t_address",
        "label": "mapping(address => mapping(bytes32 => mapping(address => bool)))",
        "numberOfBytes": "32",
        "value": "t_mapping(t_bytes32,t_mapping(t_address,t_bool))"
      },
      "t_mapping(t_bytes32,t_bytes_storage)": {
        "encoding": "mapping",
        "key": "t_bytes32",
        "label": "mapping(bytes32 => bytes)",
        "numberOfBytes": "32",
        "value": "t_bytes_storage"
      },
      "t_mapping(t_bytes32,t_mapping(t_address,t_bool))": {
        "encoding": "mapping",
        "key": "t_bytes32",
        "label": "mapping(bytes32 => mapping(address => bool))",
        "numberOfBytes": "32",
        "value": "t_mapping(t_address,t_bool)"
      },
      "t_mapping(t_bytes32,t_mapping(t_bytes32,t_mapping(t_uint16,t_bytes_storage)))": {
        "encoding": "mapping",
        "key": "t_bytes32",
        "label": "mapping(bytes32 => mapping(bytes32 => mapping(uint16 => bytes)))",
        "numberOfBytes": "32",
        "value": "t_mapping(t_bytes32,t_mapping(t_uint16,t_bytes_storage))"
      },
      "t_mapping(t_bytes32,t_mapping(t_bytes32,t_uint16))": {
        "encoding": "mapping",
        "key": "t_bytes32",
        "label": "mapping(bytes32 => mapping(bytes32 => uint16))",
        "numberOfBytes": "32",
        "value": "t_mapping(t_bytes32,t_uint16)"
      },
      "t_mapping(t_bytes32,t_mapping(t_bytes4,t_address))": {
        "encoding": "mapping",
        "key": "t_bytes32",
        "label": "mapping(bytes32 => mapping(bytes4 => address))",
        "numberOfBytes": "32",
        "value": "t_mapping(t_bytes4,t_address)"
      },
      "t_mapping(t_bytes32,t_mapping(t_string_memory_ptr,t_string_storage))": {
        "encoding": "mapping",
        "key": "t_bytes32",
        "label": "mapping(bytes32 => mapping(string => string))",
        "numberOfBytes": "32",
        "value": "t_mapping(t_string_memory_ptr,t_string_storage)"
      },
      "t_mapping(t_bytes32,t_mapping(t_uint16,t_bytes_storage))": {
        "encoding": "mapping",
        "key": "t_bytes32",
        "label": "mapping(bytes32 => mapping(uint16 => bytes))",
        "numberOfBytes": "32",
        "value": "t_mapping(t_uint16,t_bytes_storage)"
      },
      "t_mapping(t_bytes32,t_mapping(t_uint256,t_bytes_storage))": {
        "encoding": "mapping",
        "key": "t_bytes32",
        "label": "mapping(bytes32 => mapping(uint256 => bytes))",
        "numberOfBytes": "32",
        "value": "t_mapping(t_uint256,t_bytes_storage)"
      },
      "t_mapping(t_bytes32,t_string_storage)": {
        "encoding": "mapping",
        "key": "t_bytes32",
        "label": "mapping(bytes32 => string)",
        "numberOfBytes": "32",
        "value": "t_string_storage"
      },
      "t_mapping(t_bytes32,t_struct(PublicKey)15076_storage)": {
        "encoding": "mapping",
        "key": "t_bytes32",
        "label": "mapping(bytes32 => struct PubkeyResolver.PublicKey)",
        "numberOfBytes": "32",
        "value": "t_struct(PublicKey)15076_storage"
      },
      "t_mapping(t_bytes32,t_uint16)": {
        "encoding": "mapping",
        "key": "t_bytes32",
        "label": "mapping(bytes32 => uint16)",
        "numberOfBytes": "32",
        "value": "t_uint16"
      },
      "t_mapping(t_bytes32,t_uint64)": {
        "encoding": "mapping",
        "key": "t_bytes32",
        "label": "mapping(bytes32 => uint64)",
        "numberOfBytes": "32",
        "value": "t_uint64"
      },
      "t_mapping(t_bytes4,t_address)": {
        "encoding": "mapping",
        "key": "t_bytes4",
        "label": "mapping(bytes4 => address)",
        "numberOfBytes": "32",
        "value": "t_address"
      },
      "t_mapping(t_string_memory_ptr,t_string_storage)": {
        "encoding": "mapping",
        "key": "t_string_memory_ptr",
        "label": "mapping(string => string)",
        "numberOfBytes": "32",
        "value": "t_string_storage"
      },
      "t_mapping(t_uint16,t_bytes_storage)": {
        "encoding": "mapping",
        "key": "t_uint16",
        "label": "mapping(uint16 => bytes)",
        "numberOfBytes": "32",
        "value": "t_bytes_storage"
      },
      "t_mapping(t_uint256,t_bytes_storage)": {
        "encoding": "mapping",
        "key": "t_uint256",
        "label": "mapping(uint256 => bytes)",
        "numberOfBytes": "32",
        "value": "t_bytes_storage"
      },
      "t_mapping(t_uint64,t_mapping(t_bytes32,t_bytes_storage))": {
        "encoding": "mapping",
        "key": "t_uint64",
        "label": "mapping(uint64 => mapping(bytes32 => bytes))",
        "numberOfBytes": "32",
        "value": "t_mapping(t_bytes32,t_bytes_storage)"
      },
      "t_mapping(t_uint64,t_mapping(t_bytes32,t_mapping(t_bytes32,t_mapping(t_uint16,t_bytes_storage))))": {
        "encoding": "mapping",
        "key": "t_uint64",
        "label": "mapping(uint64 => mapping(bytes32 => mapping(bytes32 => mapping(uint16 => bytes))))",
        "numberOfBytes": "32",
        "value": "t_mapping(t_bytes32,t_mapping(t_bytes32,t_mapping(t_uint16,t_bytes_storage)))"
      },
      "t_mapping(t_uint64,t_mapping(t_bytes32,t_mapping(t_bytes32,t_uint16)))": {
        "encoding": "mapping",
        "key": "t_uint64",
        "label": "mapping(uint64 => mapping(bytes32 => mapping(bytes32 => uint16)))",
        "numberOfBytes": "32",
        "value": "t_mapping(t_bytes32,t_mapping(t_bytes32,t_uint16))"
      },
      "t_mapping(t_uint64,t_mapping(t_bytes32,t_mapping(t_bytes4,t_address)))": {
        "encoding": "mapping",
        "key": "t_uint64",
        "label": "mapping(uint64 => mapping(bytes32 => mapping(bytes4 => address)))",
        "numberOfBytes": "32",
        "value": "t_mapping(t_bytes32,t_mapping(t_bytes4,t_address))"
      },
      "t_mapping(t_uint64,t_mapping(t_bytes32,t_mapping(t_string_memory_ptr,t_string_storage)))": {
        "encoding": "mapping",
        "key": "t_uint64",
        "label": "mapping(uint64 => mapping(bytes32 => mapping(string => string)))",
        "numberOfBytes": "32",
        "value": "t_mapping(t_bytes32,t_mapping(t_string_memory_ptr,t_string_storage))"
      },
      "t_mapping(t_uint64,t_mapping(t_bytes32,t_mapping(t_uint256,t_bytes_storage)))": {
        "encoding": "mapping",
        "key": "t_uint64",
        "label": "mapping(uint64 => mapping(bytes32 => mapping(uint256 => bytes)))",
        "numberOfBytes": "32",
        "value": "t_mapping(t_bytes32,t_mapping(t_uint256,t_bytes_storage))"
      },
      "t_mapping(t_uint64,t_mapping(t_bytes32,t_string_storage))": {
        "encoding": "mapping",
        "key": "t_uint64",
        "label": "mapping(uint64 => mapping(bytes32 => string))",
        "numberOfBytes": "32",
        "value": "t_mapping(t_bytes32,t_string_storage)"
      },
      "t_mapping(t_uint64,t_mapping(t_bytes32,t_struct(PublicKey)15076_storage))": {
        "encoding": "mapping",
        "key": "t_uint64",
        "label": "mapping(uint64 => mapping(bytes32 => struct PubkeyResolver.PublicKey))",
        "numberOfBytes": "32",
        "value": "t_mapping(t_bytes32,t_struct(PublicKey)15076_storage)"
      },
      "t_string_memory_ptr": {
        "encoding": "bytes",
        "label": "string",
        "numberOfBytes": "32"
      },
      "t_string_storage": {
        "encoding": "bytes",
        "label": "string",
        "numberOfBytes": "32"
      },
      "t_struct(PublicKey)15076_storage": {
        "encoding": "inplace",
        "label": "struct PubkeyResolver.PublicKey",
        "members": [
          {
            "astId": 15073,
            "contract": "project/lib/ens-contracts/contracts/resolvers/PublicResolver.sol:PublicResolver",
            "label": "x",
            "offset": 0,
            "slot": "0",
            "type": "t_bytes32"
          },
          {
            "astId": 15075,
            "contract": "project/lib/ens-contracts/contracts/resolvers/PublicResolver.sol:PublicResolver",
            "label": "y",
            "offset": 0,
            "slot": "1",
            "type": "t_bytes32"
          }
        ],
        "numberOfBytes": "64"
      },
      "t_uint16": {
        "encoding": "inplace",
        "label": "uint16",
        "numberOfBytes": "2"
      },
      "t_uint256": {
        "encoding": "inplace",
        "label": "uint256",
        "numberOfBytes": "32"
      },
      "t_uint64": {
        "encoding": "inplace",
        "label": "uint64",
        "numberOfBytes": "8"
      }
    }
  },
  "userdoc": {
    "errors": {
      "InvalidEVMAddress(bytes)": [
        {
          "notice": "The supplied address could not be converted to `address`."
        }
      ]
    },
    "kind": "user",
    "methods": {
      "ABI(bytes32,uint256)": {
        "notice": "Returns the ABI associated with an ENS node. Defined in EIP205."
      },
      "addr(bytes32)": {
        "notice": "Get `addr(60)` as `address` of the associated ENS node."
      },
      "addr(bytes32,uint256)": {
        "notice": "Get the address for coin type of the associated ENS node.         If coin type is EVM and empty, defaults to `addr(COIN_TYPE_DEFAULT)`."
      },
      "clearRecords(bytes32)": {
        "notice": "Increments the record version associated with an ENS node. May only be called by the owner of that node in the ENS registry."
      },
      "contenthash(bytes32)": {
        "notice": "Returns the contenthash associated with an ENS node."
      },
      "dnsRecord(bytes32,bytes32,uint16)": {
        "notice": "Obtain a DNS record."
      },
      "hasAddr(bytes32,uint256)": {
        "notice": "Determine if an addresss is stored for the coin type of the associated ENS node."
      },
      "hasDNSRecords(bytes32,bytes32)": {
        "notice": "Check if a given node has records."
      },
      "interfaceImplementer(bytes32,bytes4)": {
        "notice": "Returns the address of a contract that implements the specified interface for this name. If an implementer has not been set for this interfaceID and name, the resolver will query the contract at `addr()`. If `addr()` is set, a contract exists at that address, and that contract implements EIP165 and returns `true` for the specified interfaceID, its address will be returned."
      },
      "name(bytes32)": {
        "notice": "Returns the name associated with an ENS node, for reverse records. Defined in EIP181."
      },
      "pubkey(bytes32)": {
        "notice": "Returns the SECP256k1 public key associated with an ENS node. Defined in EIP 619."
      },
      "setABI(bytes32,uint256,bytes)": {
        "notice": "Sets the ABI associated with an ENS node. Nodes may have one ABI of each content type. To remove an ABI, set it to the empty string."
      },
      "setAddr(bytes32,address)": {
        "notice": "Set `addr(60)` of the associated ENS node.         `address(0)` is stored as `new bytes(20)`."
      },
      "setAddr(bytes32,uint256,bytes)": {
        "notice": "Set the address for coin type of the associated ENS node.         Reverts `InvalidEVMAddress` if coin type is EVM and not 0 or 20 bytes."
      },
      "setContenthash(bytes32,bytes)": {
        "notice": "Sets the contenthash associated with an ENS node. May only be called by the owner of that node in the ENS registry."
      },
      "setDNSRecords(bytes32,bytes)": {
        "notice": "Set one or more DNS records.  Records are supplied in wire-format. Records with the same node/name/resource must be supplied one after the other to ensure the data is updated correctly. For example, if the data was supplied:     a.example.com IN A 1.2.3.4     a.example.com IN A 5.6.7.8     www.example.com IN CNAME a.example.com. then this would store the two A records for a.example.com correctly as a single RRSET, however if the data was supplied:     a.example.com IN A 1.2.3.4     www.example.com IN CNAME a.example.com.     a.example.com IN A 5.6.7.8 then this would store the first A record, the CNAME, then the second A record which would overwrite the first."
      },
      "setInterface(bytes32,bytes4,address)": {
        "notice": "Sets an interface associated with a name. Setting the address to 0 restores the default behaviour of querying the contract at `addr()` for interface support."
      },
      "setName(bytes32,string)": {
        "notice": "Sets the name associated with an ENS node, for reverse records. May only be called by the owner of that node in the ENS registry."
      },
      "setPubkey(bytes32,bytes32,bytes32)": {
        "notice": "Sets the SECP256k1 public key associated with an ENS node."
      },
      "setText(bytes32,string,string)": {
        "notice": "Sets the text data associated with an ENS node and key. May only be called by the owner of that node in the ENS registry."
      },
      "setZonehash(bytes32,bytes)": {
        "notice": "setZonehash sets the hash for the zone. May only be called by the owner of that node in the ENS registry."
      },
      "text(bytes32,string)": {
        "notice": "Returns the text data associated with an ENS node and key."
      },
      "zonehash(bytes32)": {
        "notice": "zonehash obtains the hash for the zone."
      }
    },
    "notice": "A simple resolver anyone can use; only allows the owner of a node to set its address.",
    "version": 1
  },
  "argsData": "0x000000000000000000000000cf7ed3acca5a467e9e704c703e8d87f634fb0fc9000000000000000000000000b7278a61aa25c888815afc32ad3cc52ff24fe57500000000000000000000000051a1ceb83b83f1985a81c295d1ff28afef186e02000000000000000000000000809d550fca64d94bd9f66e60752a544199cfac3d",
  "transaction": {
    "hash": "0x428a98aa9a13f46091a115ba0d885e242d945234a37b22b1bab1bb84ba87938c",
    "nonce": "0x51",
    "origin": "0xf39fd6e51aad88f6f4ce6ab8827279cfffb92266"
  }
}