{
  "address": "0xa513e6e4b8f2a923d98304ec87f64353c4d5c853",
  "abi": [
    {
      "inputs": [
        {
          "internalType": "contract IRegistry",
          "name": "registry",
          "type": "address"
        },
        {
          "internalType": "uint256",
          "name": "anyId",
          "type": "uint256"
        }
      ],
      "name": "getEntry",
      "outputs": [
        {
          "components": [
            {
              "internalType": "uint64",
              "name": "expiry",
              "type": "uint64"
            },
            {
              "internalType": "uint32",
              "name": "tokenVersionId",
              "type": "uint32"
            },
            {
              "internalType": "contract IRegistry",
              "name": "subregistry",
              "type": "address"
            },
            {
              "internalType": "uint32",
              "name": "eacVersionId",
              "type": "uint32"
            },
            {
              "internalType": "address",
              "name": "resolver",
              "type": "address"
            }
          ],
          "internalType": "struct IRegistryDatastore.Entry",
          "name": "",
          "type": "tuple"
        }
      ],
      "stateMutability": "view",
      "type": "function"
    },
    {
      "inputs": [
        {
          "internalType": "uint256",
          "name": "anyId",
          "type": "uint256"
        },
        {
          "components": [
            {
              "internalType": "uint64",
              "name": "expiry",
              "type": "uint64"
            },
            {
              "internalType": "uint32",
              "name": "tokenVersionId",
              "type": "uint32"
            },
            {
              "internalType": "contract IRegistry",
              "name": "subregistry",
              "type": "address"
            },
            {
              "internalType": "uint32",
              "name": "eacVersionId",
              "type": "uint32"
            },
            {
              "internalType": "address",
              "name": "resolver",
              "type": "address"
            }
          ],
          "internalType": "struct IRegistryDatastore.Entry",
          "name": "entry",
          "type": "tuple"
        }
      ],
      "name": "setEntry",
      "outputs": [],
      "stateMutability": "nonpayable",
      "type": "function"
    }
  ],
  "contractName": "RegistryDatastore",
  "sourceName": "src/registry/RegistryDatastore.sol",
  "bytecode": "0x6080604052348015600e575f80fd5b506103ab8061001c5f395ff3fe608060405234801561000f575f80fd5b5060043610610034575f3560e01c8063b8a740e014610038578063c0f8a7311461018b575b5f80fd5b61010e6100463660046101f5565b6040805160a080820183525f80835260208084018290528385018290526060808501839052608094850183905273ffffffffffffffffffffffffffffffffffffffff978816835282825285832063ffffffff888116909818845282529185902085519384018652805467ffffffffffffffff811685526801000000000000000081048816928501929092526c01000000000000000000000000909104871694830194909452600190930154938416928101929092526401000000009092049092169082015290565b60405161018291905f60a08201905067ffffffffffffffff8351168252602083015163ffffffff80821660208501526040850151915073ffffffffffffffffffffffffffffffffffffffff808316604086015281606087015116606086015280608087015116608086015250505092915050565b60405180910390f35b61019e61019936600461021f565b6101a0565b005b335f9081526020818152604080832063ffffffff861686188452909152902081906101cb828261027a565b50505050565b73ffffffffffffffffffffffffffffffffffffffff811681146101f2575f80fd5b50565b5f8060408385031215610206575f80fd5b8235610211816101d1565b946020939093013593505050565b5f8082840360c0811215610231575f80fd5b8335925060a0601f1982011215610246575f80fd5b506020830190509250929050565b5f813563ffffffff81168114610268575f80fd5b92915050565b5f8135610268816101d1565b813567ffffffffffffffff8116808214610292575f80fd5b825467ffffffffffffffff1981168217845591506bffffffff00000000000000006102bf60208601610254565b60401b166bffffffffffffffffffffffff19818382861617178555604086013593506102ea846101d1565b606093841b169117178255600182019063ffffffff9061030b908501610254565b1663ffffffff198254161781556103706103276080850161026e565b82547fffffffffffffffff0000000000000000000000000000000000000000ffffffff1660209190911b77ffffffffffffffffffffffffffffffffffffffff0000000016178255565b50505056fea26469706673582212208059bfcc8b115af5b481babda8ada264eb1816fa5258693bd2b4641ebc48c93964736f6c63430008190033",
  "linkReferences": {},
  "deployedLinkReferences": {},
  "immutableReferences": {},
  "inputSourceName": "project/src/registry/RegistryDatastore.sol",
  "devdoc": {
    "kind": "dev",
    "methods": {},
    "version": 1
  },
  "evm": {
    "gasEstimates": {
      "creation": {
        "codeDepositCost": "187800",
        "executionCost": "230",
        "totalCost": "188030"
      },
      "external": {
        "getEntry(address,uint256)": "5222",
        "setEntry(uint256,(uint64,uint32,address,uint32,address))": "infinite"
      }
    }
  },
  "storageLayout": {
    "storage": [
      {
        "astId": 37017,
        "contract": "project/src/registry/RegistryDatastore.sol:RegistryDatastore",
        "label": "_entries",
        "offset": 0,
        "slot": "0",
        "type": "t_mapping(t_contract(IRegistry)37428,t_mapping(t_uint256,t_struct(Entry)37445_storage))"
      }
    ],
    "types": {
      "t_address": {
        "encoding": "inplace",
        "label": "address",
        "numberOfBytes": "20"
      },
      "t_contract(IRegistry)37428": {
        "encoding": "inplace",
        "label": "contract IRegistry",
        "numberOfBytes": "20"
      },
      "t_mapping(t_contract(IRegistry)37428,t_mapping(t_uint256,t_struct(Entry)37445_storage))": {
        "encoding": "mapping",
        "key": "t_contract(IRegistry)37428",
        "label": "mapping(contract IRegistry => mapping(uint256 => struct IRegistryDatastore.Entry))",
        "numberOfBytes": "32",
        "value": "t_mapping(t_uint256,t_struct(Entry)37445_storage)"
      },
      "t_mapping(t_uint256,t_struct(Entry)37445_storage)": {
        "encoding": "mapping",
        "key": "t_uint256",
        "label": "mapping(uint256 => struct IRegistryDatastore.Entry)",
        "numberOfBytes": "32",
        "value": "t_struct(Entry)37445_storage"
      },
      "t_struct(Entry)37445_storage": {
        "encoding": "inplace",
        "label": "struct IRegistryDatastore.Entry",
        "members": [
          {
            "astId": 37435,
            "contract": "project/src/registry/RegistryDatastore.sol:RegistryDatastore",
            "label": "expiry",
            "offset": 0,
            "slot": "0",
            "type": "t_uint64"
          },
          {
            "astId": 37437,
            "contract": "project/src/registry/RegistryDatastore.sol:RegistryDatastore",
            "label": "tokenVersionId",
            "offset": 8,
            "slot": "0",
            "type": "t_uint32"
          },
          {
            "astId": 37440,
            "contract": "project/src/registry/RegistryDatastore.sol:RegistryDatastore",
            "label": "subregistry",
            "offset": 12,
            "slot": "0",
            "type": "t_contract(IRegistry)37428"
          },
          {
            "astId": 37442,
            "contract": "project/src/registry/RegistryDatastore.sol:RegistryDatastore",
            "label": "eacVersionId",
            "offset": 0,
            "slot": "1",
            "type": "t_uint32"
          },
          {
            "astId": 37444,
            "contract": "project/src/registry/RegistryDatastore.sol:RegistryDatastore",
            "label": "resolver",
            "offset": 4,
            "slot": "1",
            "type": "t_address"
          }
        ],
        "numberOfBytes": "64"
      },
      "t_uint256": {
        "encoding": "inplace",
        "label": "uint256",
        "numberOfBytes": "32"
      },
      "t_uint32": {
        "encoding": "inplace",
        "label": "uint32",
        "numberOfBytes": "4"
      },
      "t_uint64": {
        "encoding": "inplace",
        "label": "uint64",
        "numberOfBytes": "8"
      }
    }
  },
  "userdoc": {
    "kind": "user",
    "methods": {},
    "version": 1
  },
  "argsData": "0x",
  "transaction": {
    "hash": "0x6c900f8faa916d05a85943c55a8ef31d4d63aafe1a5677cc303fc088583fa8fe",
    "nonce": "0x7",
    "origin": "0xf39fd6e51aad88f6f4ce6ab8827279cfffb92266"
  }
}