{
  "address": "0x4826533b4897376654bb4d4ad88b7fafd0c98528",
  "abi": [
    {
      "inputs": [
        {
          "internalType": "contract IRegistryDatastore",
          "name": "datastore",
          "type": "address"
        },
        {
          "internalType": "contract IHCAFactoryBasic",
          "name": "hcaFactory",
          "type": "address"
        },
        {
          "internalType": "contract IRegistryMetadata",
          "name": "metadata",
          "type": "address"
        },
        {
          "internalType": "address",
          "name": "ownerAddress",
          "type": "address"
        },
        {
          "internalType": "uint256",
          "name": "ownerRoles",
          "type": "uint256"
        }
      ],
      "stateMutability": "nonpayable",
      "type": "constructor"
    },
    {
      "inputs": [
        {
          "internalType": "uint256",
          "name": "tokenId",
          "type": "uint256"
        },
        {
          "internalType": "address",
          "name": "owner",
          "type": "address"
        },
        {
          "internalType": "address",
          "name": "caller",
          "type": "address"
        }
      ],
      "name": "AccessDenied",
      "type": "error"
    },
    {
      "inputs": [
        {
          "internalType": "uint64",
          "name": "oldExpiration",
          "type": "uint64"
        },
        {
          "internalType": "uint64",
          "name": "newExpiration",
          "type": "uint64"
        }
      ],
      "name": "CannotReduceExpiration",
      "type": "error"
    },
    {
      "inputs": [
        {
          "internalType": "uint64",
          "name": "expiry",
          "type": "uint64"
        }
      ],
      "name": "CannotSetPastExpiration",
      "type": "error"
    },
    {
      "inputs": [
        {
          "internalType": "uint256",
          "name": "resource",
          "type": "uint256"
        },
        {
          "internalType": "uint256",
          "name": "roleBitmap",
          "type": "uint256"
        },
        {
          "internalType": "address",
          "name": "account",
          "type": "address"
        }
      ],
      "name": "EACCannotGrantRoles",
      "type": "error"
    },
    {
      "inputs": [
        {
          "internalType": "uint256",
          "name": "resource",
          "type": "uint256"
        },
        {
          "internalType": "uint256",
          "name": "roleBitmap",
          "type": "uint256"
        },
        {
          "internalType": "address",
          "name": "account",
          "type": "address"
        }
      ],
      "name": "EACCannotRevokeRoles",
      "type": "error"
    },
    {
      "inputs": [],
      "name": "EACInvalidAccount",
      "type": "error"
    },
    {
      "inputs": [
        {
          "internalType": "uint256",
          "name": "roleBitmap",
          "type": "uint256"
        }
      ],
      "name": "EACInvalidRoleBitmap",
      "type": "error"
    },
    {
      "inputs": [
        {
          "internalType": "uint256",
          "name": "resource",
          "type": "uint256"
        },
        {
          "internalType": "uint256",
          "name": "role",
          "type": "uint256"
        }
      ],
      "name": "EACMaxAssignees",
      "type": "error"
    },
    {
      "inputs": [
        {
          "internalType": "uint256",
          "name": "resource",
          "type": "uint256"
        },
        {
          "internalType": "uint256",
          "name": "role",
          "type": "uint256"
        }
      ],
      "name": "EACMinAssignees",
      "type": "error"
    },
    {
      "inputs": [],
      "name": "EACRootResourceNotAllowed",
      "type": "error"
    },
    {
      "inputs": [
        {
          "internalType": "uint256",
          "name": "resource",
          "type": "uint256"
        },
        {
          "internalType": "uint256",
          "name": "roleBitmap",
          "type": "uint256"
        },
        {
          "internalType": "address",
          "name": "account",
          "type": "address"
        }
      ],
      "name": "EACUnauthorizedAccountRoles",
      "type": "error"
    },
    {
      "inputs": [
        {
          "internalType": "address",
          "name": "sender",
          "type": "address"
        },
        {
          "internalType": "uint256",
          "name": "balance",
          "type": "uint256"
        },
        {
          "internalType": "uint256",
          "name": "needed",
          "type": "uint256"
        },
        {
          "internalType": "uint256",
          "name": "tokenId",
          "type": "uint256"
        }
      ],
      "name": "ERC1155InsufficientBalance",
      "type": "error"
    },
    {
      "inputs": [
        {
          "internalType": "address",
          "name": "approver",
          "type": "address"
        }
      ],
      "name": "ERC1155InvalidApprover",
      "type": "error"
    },
    {
      "inputs": [
        {
          "internalType": "uint256",
          "name": "idsLength",
          "type": "uint256"
        },
        {
          "internalType": "uint256",
          "name": "valuesLength",
          "type": "uint256"
        }
      ],
      "name": "ERC1155InvalidArrayLength",
      "type": "error"
    },
    {
      "inputs": [
        {
          "internalType": "address",
          "name": "operator",
          "type": "address"
        }
      ],
      "name": "ERC1155InvalidOperator",
      "type": "error"
    },
    {
      "inputs": [
        {
          "internalType": "address",
          "name": "receiver",
          "type": "address"
        }
      ],
      "name": "ERC1155InvalidReceiver",
      "type": "error"
    },
    {
      "inputs": [
        {
          "internalType": "address",
          "name": "sender",
          "type": "address"
        }
      ],
      "name": "ERC1155InvalidSender",
      "type": "error"
    },
    {
      "inputs": [
        {
          "internalType": "address",
          "name": "operator",
          "type": "address"
        },
        {
          "internalType": "address",
          "name": "owner",
          "type": "address"
        }
      ],
      "name": "ERC1155MissingApprovalForAll",
      "type": "error"
    },
    {
      "inputs": [
        {
          "internalType": "string",
          "name": "label",
          "type": "string"
        }
      ],
      "name": "NameAlreadyRegistered",
      "type": "error"
    },
    {
      "inputs": [
        {
          "internalType": "uint256",
          "name": "tokenId",
          "type": "uint256"
        }
      ],
      "name": "NameExpired",
      "type": "error"
    },
    {
      "inputs": [
        {
          "internalType": "uint256",
          "name": "tokenId",
          "type": "uint256"
        },
        {
          "internalType": "address",
          "name": "from",
          "type": "address"
        }
      ],
      "name": "TransferDisallowed",
      "type": "error"
    },
    {
      "anonymous": false,
      "inputs": [
        {
          "indexed": true,
          "internalType": "address",
          "name": "owner",
          "type": "address"
        },
        {
          "indexed": true,
          "internalType": "address",
          "name": "approved",
          "type": "address"
        },
        {
          "indexed": true,
          "internalType": "uint256",
          "name": "tokenId",
          "type": "uint256"
        }
      ],
      "name": "Approval",
      "type": "event"
    },
    {
      "anonymous": false,
      "inputs": [
        {
          "indexed": true,
          "internalType": "address",
          "name": "account",
          "type": "address"
        },
        {
          "indexed": true,
          "internalType": "address",
          "name": "operator",
          "type": "address"
        },
        {
          "indexed": false,
          "internalType": "bool",
          "name": "approved",
          "type": "bool"
        }
      ],
      "name": "ApprovalForAll",
      "type": "event"
    },
    {
      "anonymous": false,
      "inputs": [
        {
          "indexed": true,
          "internalType": "uint256",
          "name": "resource",
          "type": "uint256"
        },
        {
          "indexed": true,
          "internalType": "address",
          "name": "account",
          "type": "address"
        },
        {
          "indexed": false,
          "internalType": "uint256",
          "name": "oldRoleBitmap",
          "type": "uint256"
        },
        {
          "indexed": false,
          "internalType": "uint256",
          "name": "newRoleBitmap",
          "type": "uint256"
        }
      ],
      "name": "EACRolesChanged",
      "type": "event"
    },
    {
      "anonymous": false,
      "inputs": [
        {
          "indexed": true,
          "internalType": "uint256",
          "name": "tokenId",
          "type": "uint256"
        },
        {
          "indexed": false,
          "internalType": "uint64",
          "name": "newExpiry",
          "type": "uint64"
        },
        {
          "indexed": false,
          "internalType": "address",
          "name": "changedBy",
          "type": "address"
        }
      ],
      "name": "ExpiryUpdated",
      "type": "event"
    },
    {
      "anonymous": false,
      "inputs": [
        {
          "indexed": true,
          "internalType": "uint256",
          "name": "tokenId",
          "type": "uint256"
        },
        {
          "indexed": false,
          "internalType": "string",
          "name": "label",
          "type": "string"
        },
        {
          "indexed": false,
          "internalType": "uint64",
          "name": "expiry",
          "type": "uint64"
        },
        {
          "indexed": false,
          "internalType": "address",
          "name": "registeredBy",
          "type": "address"
        }
      ],
      "name": "NameRegistered",
      "type": "event"
    },
    {
      "anonymous": false,
      "inputs": [
        {
          "indexed": true,
          "internalType": "uint256",
          "name": "tokenId",
          "type": "uint256"
        },
        {
          "indexed": false,
          "internalType": "address",
          "name": "resolver",
          "type": "address"
        }
      ],
      "name": "ResolverUpdated",
      "type": "event"
    },
    {
      "anonymous": false,
      "inputs": [
        {
          "indexed": true,
          "internalType": "uint256",
          "name": "tokenId",
          "type": "uint256"
        },
        {
          "indexed": false,
          "internalType": "contract IRegistry",
          "name": "subregistry",
          "type": "address"
        }
      ],
      "name": "SubregistryUpdated",
      "type": "event"
    },
    {
      "anonymous": false,
      "inputs": [
        {
          "indexed": true,
          "internalType": "uint256",
          "name": "oldTokenId",
          "type": "uint256"
        },
        {
          "indexed": true,
          "internalType": "uint256",
          "name": "newTokenId",
          "type": "uint256"
        },
        {
          "indexed": false,
          "internalType": "uint256",
          "name": "resource",
          "type": "uint256"
        }
      ],
      "name": "TokenRegenerated",
      "type": "event"
    },
    {
      "anonymous": false,
      "inputs": [
        {
          "indexed": true,
          "internalType": "address",
          "name": "operator",
          "type": "address"
        },
        {
          "indexed": true,
          "internalType": "address",
          "name": "from",
          "type": "address"
        },
        {
          "indexed": true,
          "internalType": "address",
          "name": "to",
          "type": "address"
        },
        {
          "indexed": false,
          "internalType": "uint256[]",
          "name": "ids",
          "type": "uint256[]"
        },
        {
          "indexed": false,
          "internalType": "uint256[]",
          "name": "values",
          "type": "uint256[]"
        }
      ],
      "name": "TransferBatch",
      "type": "event"
    },
    {
      "anonymous": false,
      "inputs": [
        {
          "indexed": true,
          "internalType": "address",
          "name": "operator",
          "type": "address"
        },
        {
          "indexed": true,
          "internalType": "address",
          "name": "from",
          "type": "address"
        },
        {
          "indexed": true,
          "internalType": "address",
          "name": "to",
          "type": "address"
        },
        {
          "indexed": false,
          "internalType": "uint256",
          "name": "id",
          "type": "uint256"
        },
        {
          "indexed": false,
          "internalType": "uint256",
          "name": "value",
          "type": "uint256"
        }
      ],
      "name": "TransferSingle",
      "type": "event"
    },
    {
      "anonymous": false,
      "inputs": [
        {
          "indexed": false,
          "internalType": "string",
          "name": "value",
          "type": "string"
        },
        {
          "indexed": true,
          "internalType": "uint256",
          "name": "id",
          "type": "uint256"
        }
      ],
      "name": "URI",
      "type": "event"
    },
    {
      "inputs": [],
      "name": "DATASTORE",
      "outputs": [
        {
          "internalType": "contract IRegistryDatastore",
          "name": "",
          "type": "address"
        }
      ],
      "stateMutability": "view",
      "type": "function"
    },
    {
      "inputs": [],
      "name": "HCA_FACTORY",
      "outputs": [
        {
          "internalType": "contract IHCAFactoryBasic",
          "name": "",
          "type": "address"
        }
      ],
      "stateMutability": "view",
      "type": "function"
    },
    {
      "inputs": [],
      "name": "METADATA_PROVIDER",
      "outputs": [
        {
          "internalType": "contract IRegistryMetadata",
          "name": "",
          "type": "address"
        }
      ],
      "stateMutability": "view",
      "type": "function"
    },
    {
      "inputs": [],
      "name": "ROOT_RESOURCE",
      "outputs": [
        {
          "internalType": "uint256",
          "name": "",
          "type": "uint256"
        }
      ],
      "stateMutability": "view",
      "type": "function"
    },
    {
      "inputs": [
        {
          "internalType": "address",
          "name": "account",
          "type": "address"
        },
        {
          "internalType": "uint256",
          "name": "id",
          "type": "uint256"
        }
      ],
      "name": "balanceOf",
      "outputs": [
        {
          "internalType": "uint256",
          "name": "",
          "type": "uint256"
        }
      ],
      "stateMutability": "view",
      "type": "function"
    },
    {
      "inputs": [
        {
          "internalType": "address[]",
          "name": "accounts",
          "type": "address[]"
        },
        {
          "internalType": "uint256[]",
          "name": "ids",
          "type": "uint256[]"
        }
      ],
      "name": "balanceOfBatch",
      "outputs": [
        {
          "internalType": "uint256[]",
          "name": "",
          "type": "uint256[]"
        }
      ],
      "stateMutability": "view",
      "type": "function"
    },
    {
      "inputs": [
        {
          "internalType": "uint256",
          "name": "anyId",
          "type": "uint256"
        },
        {
          "internalType": "uint256",
          "name": "roleBitmap",
          "type": "uint256"
        }
      ],
      "name": "getAssigneeCount",
      "outputs": [
        {
          "internalType": "uint256",
          "name": "counts",
          "type": "uint256"
        },
        {
          "internalType": "uint256",
          "name": "mask",
          "type": "uint256"
        }
      ],
      "stateMutability": "view",
      "type": "function"
    },
    {
      "inputs": [
        {
          "internalType": "uint256",
          "name": "anyId",
          "type": "uint256"
        }
      ],
      "name": "getEntry",
      "outputs": [
        {
          "components": [
            {
              "internalType": "uint64",
              "name": "expiry",
              "type": "uint64"
            },
            {
              "internalType": "uint32",
              "name": "tokenVersionId",
              "type": "uint32"
            },
            {
              "internalType": "contract IRegistry",
              "name": "subregistry",
              "type": "address"
            },
            {
              "internalType": "uint32",
              "name": "eacVersionId",
              "type": "uint32"
            },
            {
              "internalType": "address",
              "name": "resolver",
              "type": "address"
            }
          ],
          "internalType": "struct IRegistryDatastore.Entry",
          "name": "",
          "type": "tuple"
        }
      ],
      "stateMutability": "view",
      "type": "function"
    },
    {
      "inputs": [
        {
          "internalType": "uint256",
          "name": "anyId",
          "type": "uint256"
        }
      ],
      "name": "getExpiry",
      "outputs": [
        {
          "internalType": "uint64",
          "name": "",
          "type": "uint64"
        }
      ],
      "stateMutability": "view",
      "type": "function"
    },
    {
      "inputs": [
        {
          "internalType": "string",
          "name": "label",
          "type": "string"
        }
      ],
      "name": "getNameData",
      "outputs": [
        {
          "internalType": "uint256",
          "name": "tokenId",
          "type": "uint256"
        },
        {
          "components": [
            {
              "internalType": "uint64",
              "name": "expiry",
              "type": "uint64"
            },
            {
              "internalType": "uint32",
              "name": "tokenVersionId",
              "type": "uint32"
            },
            {
              "internalType": "contract IRegistry",
              "name": "subregistry",
              "type": "address"
            },
            {
              "internalType": "uint32",
              "name": "eacVersionId",
              "type": "uint32"
            },
            {
              "internalType": "address",
              "name": "resolver",
              "type": "address"
            }
          ],
          "internalType": "struct IRegistryDatastore.Entry",
          "name": "entry",
          "type": "tuple"
        }
      ],
      "stateMutability": "view",
      "type": "function"
    },
    {
      "inputs": [
        {
          "internalType": "string",
          "name": "label",
          "type": "string"
        }
      ],
      "name": "getResolver",
      "outputs": [
        {
          "internalType": "address",
          "name": "",
          "type": "address"
        }
      ],
      "stateMutability": "view",
      "type": "function"
    },
    {
      "inputs": [
        {
          "internalType": "uint256",
          "name": "anyId",
          "type": "uint256"
        }
      ],
      "name": "getResource",
      "outputs": [
        {
          "internalType": "uint256",
          "name": "",
          "type": "uint256"
        }
      ],
      "stateMutability": "view",
      "type": "function"
    },
    {
      "inputs": [
        {
          "internalType": "string",
          "name": "label",
          "type": "string"
        }
      ],
      "name": "getSubregistry",
      "outputs": [
        {
          "internalType": "contract IRegistry",
          "name": "",
          "type": "address"
        }
      ],
      "stateMutability": "view",
      "type": "function"
    },
    {
      "inputs": [
        {
          "internalType": "uint256",
          "name": "anyId",
          "type": "uint256"
        }
      ],
      "name": "getTokenId",
      "outputs": [
        {
          "internalType": "uint256",
          "name": "",
          "type": "uint256"
        }
      ],
      "stateMutability": "view",
      "type": "function"
    },
    {
      "inputs": [
        {
          "internalType": "uint256",
          "name": "anyId",
          "type": "uint256"
        },
        {
          "internalType": "uint256",
          "name": "roleBitmap",
          "type": "uint256"
        },
        {
          "internalType": "address",
          "name": "account",
          "type": "address"
        }
      ],
      "name": "grantRoles",
      "outputs": [
        {
          "internalType": "bool",
          "name": "",
          "type": "bool"
        }
      ],
      "stateMutability": "nonpayable",
      "type": "function"
    },
    {
      "inputs": [
        {
          "internalType": "uint256",
          "name": "roleBitmap",
          "type": "uint256"
        },
        {
          "internalType": "address",
          "name": "account",
          "type": "address"
        }
      ],
      "name": "grantRootRoles",
      "outputs": [
        {
          "internalType": "bool",
          "name": "",
          "type": "bool"
        }
      ],
      "stateMutability": "nonpayable",
      "type": "function"
    },
    {
      "inputs": [
        {
          "internalType": "uint256",
          "name": "anyId",
          "type": "uint256"
        },
        {
          "internalType": "uint256",
          "name": "roleBitmap",
          "type": "uint256"
        }
      ],
      "name": "hasAssignees",
      "outputs": [
        {
          "internalType": "bool",
          "name": "",
          "type": "bool"
        }
      ],
      "stateMutability": "view",
      "type": "function"
    },
    {
      "inputs": [
        {
          "internalType": "uint256",
          "name": "anyId",
          "type": "uint256"
        },
        {
          "internalType": "uint256",
          "name": "rolesBitmap",
          "type": "uint256"
        },
        {
          "internalType": "address",
          "name": "account",
          "type": "address"
        }
      ],
      "name": "hasRoles",
      "outputs": [
        {
          "internalType": "bool",
          "name": "",
          "type": "bool"
        }
      ],
      "stateMutability": "view",
      "type": "function"
    },
    {
      "inputs": [
        {
          "internalType": "uint256",
          "name": "rolesBitmap",
          "type": "uint256"
        },
        {
          "internalType": "address",
          "name": "account",
          "type": "address"
        }
      ],
      "name": "hasRootRoles",
      "outputs": [
        {
          "internalType": "bool",
          "name": "",
          "type": "bool"
        }
      ],
      "stateMutability": "view",
      "type": "function"
    },
    {
      "inputs": [
        {
          "internalType": "address",
          "name": "account",
          "type": "address"
        },
        {
          "internalType": "address",
          "name": "operator",
          "type": "address"
        }
      ],
      "name": "isApprovedForAll",
      "outputs": [
        {
          "internalType": "bool",
          "name": "",
          "type": "bool"
        }
      ],
      "stateMutability": "view",
      "type": "function"
    },
    {
      "inputs": [
        {
          "internalType": "uint256",
          "name": "tokenId",
          "type": "uint256"
        }
      ],
      "name": "latestOwnerOf",
      "outputs": [
        {
          "internalType": "address",
          "name": "",
          "type": "address"
        }
      ],
      "stateMutability": "view",
      "type": "function"
    },
    {
      "inputs": [
        {
          "internalType": "uint256",
          "name": "tokenId",
          "type": "uint256"
        }
      ],
      "name": "ownerOf",
      "outputs": [
        {
          "internalType": "address",
          "name": "",
          "type": "address"
        }
      ],
      "stateMutability": "view",
      "type": "function"
    },
    {
      "inputs": [
        {
          "internalType": "string",
          "name": "label",
          "type": "string"
        },
        {
          "internalType": "address",
          "name": "owner",
          "type": "address"
        },
        {
          "internalType": "contract IRegistry",
          "name": "registry",
          "type": "address"
        },
        {
          "internalType": "address",
          "name": "resolver",
          "type": "address"
        },
        {
          "internalType": "uint256",
          "name": "roleBitmap",
          "type": "uint256"
        },
        {
          "internalType": "uint64",
          "name": "expires",
          "type": "uint64"
        }
      ],
      "name": "register",
      "outputs": [
        {
          "internalType": "uint256",
          "name": "tokenId",
          "type": "uint256"
        }
      ],
      "stateMutability": "nonpayable",
      "type": "function"
    },
    {
      "inputs": [
        {
          "internalType": "uint256",
          "name": "anyId",
          "type": "uint256"
        },
        {
          "internalType": "uint64",
          "name": "newExpiry",
          "type": "uint64"
        }
      ],
      "name": "renew",
      "outputs": [],
      "stateMutability": "nonpayable",
      "type": "function"
    },
    {
      "inputs": [
        {
          "internalType": "uint256",
          "name": "anyId",
          "type": "uint256"
        },
        {
          "internalType": "uint256",
          "name": "roleBitmap",
          "type": "uint256"
        },
        {
          "internalType": "address",
          "name": "account",
          "type": "address"
        }
      ],
      "name": "revokeRoles",
      "outputs": [
        {
          "internalType": "bool",
          "name": "",
          "type": "bool"
        }
      ],
      "stateMutability": "nonpayable",
      "type": "function"
    },
    {
      "inputs": [
        {
          "internalType": "uint256",
          "name": "roleBitmap",
          "type": "uint256"
        },
        {
          "internalType": "address",
          "name": "account",
          "type": "address"
        }
      ],
      "name": "revokeRootRoles",
      "outputs": [
        {
          "internalType": "bool",
          "name": "",
          "type": "bool"
        }
      ],
      "stateMutability": "nonpayable",
      "type": "function"
    },
    {
      "inputs": [
        {
          "internalType": "uint256",
          "name": "anyId",
          "type": "uint256"
        }
      ],
      "name": "roleCount",
      "outputs": [
        {
          "internalType": "uint256",
          "name": "",
          "type": "uint256"
        }
      ],
      "stateMutability": "view",
      "type": "function"
    },
    {
      "inputs": [
        {
          "internalType": "uint256",
          "name": "anyId",
          "type": "uint256"
        },
        {
          "internalType": "address",
          "name": "account",
          "type": "address"
        }
      ],
      "name": "roles",
      "outputs": [
        {
          "internalType": "uint256",
          "name": "",
          "type": "uint256"
        }
      ],
      "stateMutability": "view",
      "type": "function"
    },
    {
      "inputs": [
        {
          "internalType": "address",
          "name": "from",
          "type": "address"
        },
        {
          "internalType": "address",
          "name": "to",
          "type": "address"
        },
        {
          "internalType": "uint256[]",
          "name": "ids",
          "type": "uint256[]"
        },
        {
          "internalType": "uint256[]",
          "name": "values",
          "type": "uint256[]"
        },
        {
          "internalType": "bytes",
          "name": "data",
          "type": "bytes"
        }
      ],
      "name": "safeBatchTransferFrom",
      "outputs": [],
      "stateMutability": "nonpayable",
      "type": "function"
    },
    {
      "inputs": [
        {
          "internalType": "address",
          "name": "from",
          "type": "address"
        },
        {
          "internalType": "address",
          "name": "to",
          "type": "address"
        },
        {
          "internalType": "uint256",
          "name": "id",
          "type": "uint256"
        },
        {
          "internalType": "uint256",
          "name": "value",
          "type": "uint256"
        },
        {
          "internalType": "bytes",
          "name": "data",
          "type": "bytes"
        }
      ],
      "name": "safeTransferFrom",
      "outputs": [],
      "stateMutability": "nonpayable",
      "type": "function"
    },
    {
      "inputs": [
        {
          "internalType": "address",
          "name": "operator",
          "type": "address"
        },
        {
          "internalType": "bool",
          "name": "approved",
          "type": "bool"
        }
      ],
      "name": "setApprovalForAll",
      "outputs": [],
      "stateMutability": "nonpayable",
      "type": "function"
    },
    {
      "inputs": [
        {
          "internalType": "uint256",
          "name": "anyId",
          "type": "uint256"
        },
        {
          "internalType": "address",
          "name": "resolver",
          "type": "address"
        }
      ],
      "name": "setResolver",
      "outputs": [],
      "stateMutability": "nonpayable",
      "type": "function"
    },
    {
      "inputs": [
        {
          "internalType": "uint256",
          "name": "anyId",
          "type": "uint256"
        },
        {
          "internalType": "contract IRegistry",
          "name": "registry",
          "type": "address"
        }
      ],
      "name": "setSubregistry",
      "outputs": [],
      "stateMutability": "nonpayable",
      "type": "function"
    },
    {
      "inputs": [
        {
          "internalType": "bytes4",
          "name": "interfaceId",
          "type": "bytes4"
        }
      ],
      "name": "supportsInterface",
      "outputs": [
        {
          "internalType": "bool",
          "name": "",
          "type": "bool"
        }
      ],
      "stateMutability": "view",
      "type": "function"
    },
    {
      "inputs": [
        {
          "internalType": "uint256",
          "name": "tokenId",
          "type": "uint256"
        }
      ],
      "name": "uri",
      "outputs": [
        {
          "internalType": "string",
          "name": "",
          "type": "string"
        }
      ],
      "stateMutability": "view",
      "type": "function"
    }
  ],
  "contractName": "PermissionedRegistry",
  "sourceName": "src/registry/PermissionedRegistry.sol",
  "bytecode": "0x60e060405234801561000f575f80fd5b5060405161431838038061431883398101604081905261002e91610dc7565b6001600160a01b0380851660805280861660a052831660c0526100535f82848261005e565b5050505050506110f6565b5f61006884610162565b6001600160a01b03831661008f5760405163761fe2c960e11b815260040160405180910390fd5b5f8581526002602090815260408083206001600160a01b0387168452909152902054848117808214610154575f8781526002602090815260408083206001600160a01b03891684529091529020819055811986166100ef888260016101ae565b841561010257610102888785858b6102de565b60408051848152602081018490526001600160a01b038816918a917f0d35bf721a39b614de00ca5038e1deb0cb0c69a278645e83405a7226cf80ba3c910160405180910390a36001935050505061015a565b5f925050505b949350505050565b7feeeeeeeeeeeeeeeeeeeeeeeeeeeeeeeeeeeeeeeeeeeeeeeeeeeeeeeeeeeeeeee8116156101ab57604051630153d96960e51b8152600481018290526024015b60405180910390fd5b50565b5f6101b8836102ee565b9050811561024e575f848152600360205260409020546101fe9082161980195f805160206142f883398151915291909101165f805160206142d883398151915216151590565b1561022657604051631f22ca6960e31b815260048101859052602481018490526044016101a2565b5f8481526003602052604081208054859290610243908490610e42565b909155506102d89050565b5f8481526003602052604090205461028d901982161980195f805160206142f883398151915291909101165f805160206142d883398151915216151590565b156102b557604051631f80c19b60e01b815260048101859052602481018490526044016101a2565b5f84815260036020526040812080548592906102d2908490610e55565b90915550505b50505050565b6102e785610308565b5050505050565b5f6102f882610162565b50600181901b17600281901b1790565b5f6103128261048c565b80519091506001600160401b0316421015610488575f6103328383610528565b5f818152602081905260409020549091506001600160a01b031680156102d85761035e8183600161054c565b82602001805161036d90610e68565b63ffffffff90811690915260a0516040805163c0f8a73160e01b81526004810186905286516001600160401b03166024820152602087015184166044820152908601516001600160a01b039081166064830152606087015190931660848201526080860151831660a482015291169063c0f8a7319060c4015f604051808303815f87803b1580156103fc575f80fd5b505af115801561040e573d5f803e3d5ffd5b505050505f610423838561052860201b60201c565b90506104468282600160405180602001604052805f8152506105b260201b60201c565b80837f88d074c8fc078bb1c0b9cfa9e3ca1f65a96141df8b0da854fe3083df813cbcca6104738288610615565b60405190815260200160405180910390a35050505b5050565b6040805160a080820183525f808352602083018190528284018190526060830181905260808301525191516305c53a0760e51b81523060048201526024810184905290916001600160a01b03169063b8a740e09060440160a060405180830381865afa1580156104fe573d5f803e3d5ffd5b505050506040513d601f19601f820116820180604052508101906105229190610e9d565b92915050565b60208101515f9063ffffffff166105448463ffffffff81161890565b179392505050565b6001600160a01b03831661057457604051626a0d4560e21b81525f60048201526024016101a2565b604080516001808252602082018590528183019081526060820184905260a082019092525f608082018181529192916102e791879185908590610658565b6001600160a01b0384166105db57604051632bfa23e760e11b81525f60048201526024016101a2565b6040805160018082526020820186905281830190815260608201859052608082019092529061060d5f87848487610658565b505050505050565b80515f906001600160401b0316421015610633578160600151610643565b6060820151610643906001610f3f565b63ffffffff166105448463ffffffff81161890565b610664858585856106b4565b6001600160a01b038416156102e7575f61067c6107c4565b905083516001036106a6576020848101519084015161069f8389898585896107d2565b505061060d565b61060d8187878787876108fc565b5f6001600160a01b038416158015906106d557506001600160a01b03851615155b9050801561076c575f5b835181101561076a576107168482815181106106fd576106fd610f63565b6020026020010151600160901b886109e360201b60201c565b6107625783818151811061072c5761072c610f63565b6020026020010151866040516372c7b6ad60e11b81526004016101a29291909182526001600160a01b0316602082015260400190565b6001016106df565b505b61077885858585610a42565b80156102e7575f5b835181101561060d576107bc6107b48583815181106107a1576107a1610f63565b6020026020010151610c4b60201b60201c565b87875f610c5e565b600101610780565b5f6107cd610c9f565b905090565b6001600160a01b0384163b1561060d5760405163f23a6e6160e01b81526001600160a01b0385169063f23a6e61906108169089908990889088908890600401610fa5565b6020604051808303815f875af1925050508015610850575060408051601f3d908101601f1916820190925261084d91810190610fe9565b60015b6108b7573d80801561087d576040519150601f19603f3d011682016040523d82523d5f602084013e610882565b606091505b5080515f036108af57604051632bfa23e760e11b81526001600160a01b03861660048201526024016101a2565b805181602001fd5b6001600160e01b0319811663f23a6e6160e01b146108f357604051632bfa23e760e11b81526001600160a01b03861660048201526024016101a2565b50505050505050565b6001600160a01b0384163b1561060d5760405163bc197c8160e01b81526001600160a01b0385169063bc197c81906109409089908990889088908890600401611051565b6020604051808303815f875af192505050801561097a575060408051601f3d908101601f1916820190925261097791810190610fe9565b60015b6109a7573d80801561087d576040519150601f19603f3d011682016040523d82523d5f602084013e610882565b6001600160e01b0319811663bc197c8160e01b146108f357604051632bfa23e760e11b81526001600160a01b03861660048201526024016101a2565b5f61015a6109f085610c4b565b5f9081526002602090815260408083206001600160a01b03871684528252808320547fac33ff75c19e70fe83507db0d683fd3465c996598dc972688b7ace676c89077b90925290912054178416841490565b8051825114610a715781518151604051635b05999160e01b8152600481019290925260248201526044016101a2565b5f610a7a6107c4565b90505f5b8351811015610b6d576020818102858101820151908501909101518015610b63575f828152602081905260409020546001600160a01b039081169089168114610af9576040516303dee4c560e01b81526001600160a01b038a1660048201525f602482015260448101839052606481018490526084016101a2565b6001821115610b3b576040516303dee4c560e01b81526001600160a01b038a1660048201526001602482015260448101839052606481018490526084016101a2565b505f82815260208190526040902080546001600160a01b0319166001600160a01b0389161790555b5050600101610a7e565b508251600103610bed5760208301515f906020840151909150856001600160a01b0316876001600160a01b0316846001600160a01b03167fc3d58168c5ae7397731d063d5bbf3d657854427343f4c083240f7aacaa2d0f628585604051610bde929190918252602082015260400190565b60405180910390a450506102e7565b836001600160a01b0316856001600160a01b0316826001600160a01b03167f4a39dc06d4c0dbc64b70af90fd698a233a518aa5d07e595d983b8c0526c8f7fb8686604051610c3c9291906110ae565b60405180910390a45050505050565b5f61052282610c598161048c565b610615565b5f8481526002602090815260408083206001600160a01b038716845290915290205480156102e757610c9285828685610d3c565b5061060d8582858561005e565b6080515f906001600160a01b0316610cb657503390565b60805160405163110ac5cb60e21b81523360048201525f916001600160a01b03169063442b172c90602401602060405180830381865afa158015610cfc573d5f803e3d5ffd5b505050506040513d601f19601f82011682018060405250810190610d2091906110db565b90506001600160a01b038116610d37573391505090565b919050565b5f610d4684610162565b5f8581526002602090815260408083206001600160a01b038716845290915290205484198116808214610154575f8781526002602090815260408083206001600160a01b03891684529091528120829055868316906100ef90899083906101ae565b6001600160a01b03811681146101ab575f80fd5b8051610d3781610da8565b5f805f805f60a08688031215610ddb575f80fd5b8551610de681610da8565b6020870151909550610df781610da8565b6040870151909450610e0881610da8565b6060870151909350610e1981610da8565b80925050608086015190509295509295909350565b634e487b7160e01b5f52601160045260245ffd5b8082018082111561052257610522610e2e565b8181038181111561052257610522610e2e565b5f63ffffffff808316818103610e8057610e80610e2e565b6001019392505050565b805163ffffffff81168114610d37575f80fd5b5f60a08284031215610ead575f80fd5b60405160a081016001600160401b038082118383101715610edc57634e487b7160e01b5f52604160045260245ffd5b81604052845191508082168214610ef1575f80fd5b508152610f0060208401610e8a565b6020820152610f1160408401610dbc565b6040820152610f2260608401610e8a565b6060820152610f3360808401610dbc565b60808201529392505050565b63ffffffff818116838216019080821115610f5c57610f5c610e2e565b5092915050565b634e487b7160e01b5f52603260045260245ffd5b5f81518084528060208401602086015e5f602082860101526020601f19601f83011685010191505092915050565b6001600160a01b03868116825285166020820152604081018490526060810183905260a0608082018190525f90610fde90830184610f77565b979650505050505050565b5f60208284031215610ff9575f80fd5b81516001600160e01b031981168114611010575f80fd5b9392505050565b5f815180845260208085019450602084015f5b838110156110465781518752958201959082019060010161102a565b509495945050505050565b6001600160a01b0386811682528516602082015260a0604082018190525f9061107c90830186611017565b828103606084015261108e8186611017565b905082810360808401526110a28185610f77565b98975050505050505050565b604081525f6110c06040830185611017565b82810360208401526110d28185611017565b95945050505050565b5f602082840312156110eb575f80fd5b815161101081610da8565b60805160a05160c0516131726111665f395f81816104420152818161125901526112c701525f81816103fb0152818161083d01528181610adb01528181610d1001528181610dac015281816116b5015261209b01525f818161036e01528181611b570152611bb801526131725ff3fe608060405234801561000f575f80fd5b5060043610610234575f3560e01c80634e1273f41161013d578063bae78d7b116100b8578063d3bf89b111610088578063e4ae7d771161006e578063e4ae7d771461059f578063e985e9c5146105b2578063f242432a146105ed575f80fd5b8063d3bf89b114610579578063dfa70d8b1461058c575f80fd5b8063bae78d7b14610520578063bc7b6d6214610540578063bd242bcb14610553578063ce156e8214610566575f80fd5b80636352211e1161010d5780637c300586116100f35780637c300586146104e757806385f3e643146104fa578063a22cb4651461050d575f80fd5b80636352211e1461048a578063781ef8db1461049d575f80fd5b80634e1273f41461041d578063531b9d6d1461043d5780635569f33d146104645780635adf472414610477575f80fd5b80631c3fc3eb116101cd578063319c22bb1161019d57806335af62161161018357806335af6216146103bb5780633634f911146103ce5780633f7cefce146103f6575f80fd5b8063319c22bb14610369578063341ec559146103a8575f80fd5b80631c3fc3eb146103275780631e8fca2d1461032e5780632eb2c2d6146103415780632f27fa2414610356575f80fd5b80630e89341c116102085780630e89341c146102b557806311b8e00a146102d557806313c72608146102e857806314ff5ea314610314575f80fd5b8062fdd58e1461023857806301ffc9a71461025e578063072d5d77146102815780630a79637414610294575b5f80fd5b61024b610246366004612716565b610600565b6040519081526020015b60405180910390f35b61027161026c366004612755565b610637565b6040519015158152602001610255565b61027161028f366004612770565b610674565b6102a76102a2366004612845565b61069f565b60405161025592919061288a565b6102c86102c33660046128ef565b6106f1565b6040516102559190612934565b6102716102e3366004612946565b6106fc565b6102fb6102f63660046128ef565b610716565b60405167ffffffffffffffff9091168152602001610255565b61024b6103223660046128ef565b610727565b61024b5f81565b61024b61033c3660046128ef565b61073a565b61035461034f366004612a0e565b61074d565b005b61024b6103643660046128ef565b6107ea565b6103907f000000000000000000000000000000000000000000000000000000000000000081565b6040516001600160a01b039091168152602001610255565b6103546103b6366004612770565b610808565b6103906103c9366004612af3565b6108e6565b6103e16103dc366004612946565b610953565b60408051928352602083019190915201610255565b6103907f000000000000000000000000000000000000000000000000000000000000000081565b61043061042b366004612b32565b610973565b6040516102559190612c28565b6103907f000000000000000000000000000000000000000000000000000000000000000081565b610354610472366004612c4f565b610a3e565b61024b610485366004612770565b610b92565b6103906104983660046128ef565b610bc4565b6102716104ab366004612770565b6001600160a01b03165f9081527fac33ff75c19e70fe83507db0d683fd3465c996598dc972688b7ace676c89077b602052604090205481161490565b6102716104f5366004612c72565b610c1c565b61024b610508366004612ca8565b610c30565b61035461051b366004612d3b565b610c97565b61053361052e3660046128ef565b610cad565b6040516102559190612d6b565b61035461054e366004612770565b610d79565b6103906105613660046128ef565b610e4b565b610271610574366004612770565b610e67565b610271610587366004612c72565b610e89565b61027161059a366004612c72565b610ee8565b6103906105ad366004612af3565b610efc565b6102716105c0366004612dca565b6001600160a01b039182165f90815260016020908152604080832093909416825291909152205460ff1690565b6103546105fb366004612df6565b610f5f565b5f826001600160a01b031661061483610bc4565b6001600160a01b031614610628575f61062b565b60015b60ff1690505b92915050565b5f6001600160e01b031982167f07ca514a000000000000000000000000000000000000000000000000000000001480610631575061063182610fef565b5f8083610689828261068461102c565b61103a565b6106965f86866001611101565b95945050505050565b6040805160a0810182525f8082526020820181905291810182905260608101829052608081018290525f6106d28461121c565b90506106dd81610cad565b91506106e98183611232565b925050915091565b606061063182611255565b5f61070f6107098461073a565b8361133a565b9392505050565b5f61072082610cad565b5192915050565b5f6106318261073584610cad565b611232565b5f6106318261074884610cad565b611351565b5f61075661102c565b9050806001600160a01b0316866001600160a01b03161415801561079f57506001600160a01b038087165f9081526001602090815260408083209385168352929052205460ff16155b156107d55760405163711bec9160e11b81526001600160a01b038083166004830152871660248201526044015b60405180910390fd5b6107e28686868686611395565b505050505050565b5f6106316107f78361073a565b5f9081526003602052604090205490565b5f80610816846101006113fa565b6001600160a01b038086166040808401919091525163c0f8a73160e01b81529294509092507f0000000000000000000000000000000000000000000000000000000000000000169063c0f8a73190610874908590859060040161288a565b5f604051808303815f87803b15801561088b575f80fd5b505af115801561089d573d5f803e3d5ffd5b50506040516001600160a01b03861681528492507fca01ade22fed8a886bda52d1fb12deaff178499347b6c13b1a892a60985a51e291506020015b60405180910390a250505050565b5f8061092961052e85858080601f0160208091040260200160405190810160405280939291908181526020018383808284375f9201919091525061121c92505050565b805190915067ffffffffffffffff1642101561094957806040015161094b565b5f5b949350505050565b5f806109676109618561073a565b84611498565b915091505b9250929050565b606081518351146109a45781518351604051635b05999160e01b8152600481019290925260248201526044016107cc565b5f835167ffffffffffffffff8111156109bf576109bf61279e565b6040519080825280602002602001820160405280156109e8578160200160208202803683370190505b5090505f5b8451811015610a3657602080820286010151610a1190602080840287010151610600565b828281518110610a2357610a23612e5a565b60209081029190910101526001016109ed565b509392505050565b5f80610a4b8460106113fa565b91509150805f015167ffffffffffffffff168367ffffffffffffffff161015610ab75780516040517f9967595a00000000000000000000000000000000000000000000000000000000815267ffffffffffffffff918216600482015290841660248201526044016107cc565b67ffffffffffffffff8316815260405163c0f8a73160e01b81526001600160a01b037f0000000000000000000000000000000000000000000000000000000000000000169063c0f8a73190610b12908590859060040161288a565b5f604051808303815f87803b158015610b29575f80fd5b505af1158015610b3b573d5f803e3d5ffd5b50505050817f3260962d42d8f7ae0af25cbfdb2983c214a859cfa2ac6df8ea29b534c267d42984610b6a61102c565b6040805167ffffffffffffffff90931683526001600160a01b039091166020830152016108d8565b5f61070f610b9f8461073a565b5f9081526002602090815260408083206001600160a01b038716845290915290205490565b5f80610bcf83610cad565b9050610bdb8382611232565b83141580610bf45750805167ffffffffffffffff164210155b610c14575f838152602081905260409020546001600160a01b031661070f565b5f9392505050565b5f61094b610c298561073a565b84846114bb565b5f6001610c455f82610c4061102c565b611500565b610c8a89898080601f0160208091040260200160405190810160405280939291908181526020018383808284375f920191909152508b92508a9150899050888861155f565b9998505050505050505050565b610ca9610ca261102c565b8383611817565b5050565b6040805160a0810182525f8082526020820181905281830181905260608201819052608082015290517fb8a740e0000000000000000000000000000000000000000000000000000000008152306004820152602481018390526001600160a01b037f0000000000000000000000000000000000000000000000000000000000000000169063b8a740e09060440160a060405180830381865afa158015610d55573d5f803e3d5ffd5b505050506040513d601f19601f820116820180604052508101906106319190612e81565b5f80610d87846110006113fa565b6001600160a01b03808616608083015260405163c0f8a73160e01b81529294509092507f0000000000000000000000000000000000000000000000000000000000000000169063c0f8a73190610de3908590859060040161288a565b5f604051808303815f87803b158015610dfa575f80fd5b505af1158015610e0c573d5f803e3d5ffd5b50506040516001600160a01b03861681528492507f3c055b8ebff34805cc0c0216cfd96bfe2613c75002ce000f6268324952541d0691506020016108d8565b5f818152602081905260408120546001600160a01b0316610631565b5f8083610e7c8282610e7761102c565b6118c5565b6106965f868660016119ae565b5f61094b610e968561073a565b5f9081526002602090815260408083206001600160a01b03871684528252808320547fac33ff75c19e70fe83507db0d683fd3465c996598dc972688b7ace676c89077b90925290912054178416841490565b5f61094b610ef58561073a565b8484611a1a565b5f80610f3f61052e85858080601f0160208091040260200160405190810160405280939291908181526020018383808284375f9201919091525061121c92505050565b805190915067ffffffffffffffff1642101561094957806080015161094b565b5f610f6861102c565b9050806001600160a01b0316866001600160a01b031614158015610fb157506001600160a01b038087165f9081526001602090815260408083209385168352929052205460ff16155b15610fe25760405163711bec9160e11b81526001600160a01b038083166004830152871660248201526044016107cc565b6107e28686868686611a55565b5f6001600160e01b031982167f8f452d62000000000000000000000000000000000000000000000000000000001480610631575061063182611ae1565b5f611035611b54565b905090565b5f6110a584836001600160a01b03165f8181527fac33ff75c19e70fe83507db0d683fd3465c996598dc972688b7ace676c89077b60209081526040808320549483526002825280832093835292905220546f11111111111111111111111111111111911760801c1690565b905080198316156110fb576040517fd1a3b35500000000000000000000000000000000000000000000000000000000815260048101859052602481018490526001600160a01b03831660448201526064016107cc565b50505050565b5f61110b84611c45565b6001600160a01b03831661114b576040517fec3fc59200000000000000000000000000000000000000000000000000000000815260040160405180910390fd5b5f8581526002602090815260408083206001600160a01b0387168452909152902054848117808214611210575f8781526002602090815260408083206001600160a01b03891684529091529020819055811986166111ab88826001611ca5565b84156111be576111be888785858b611e3a565b60408051848152602081018490526001600160a01b038816918a917f0d35bf721a39b614de00ca5038e1deb0cb0c69a278645e83405a7226cf80ba3c910160405180910390a36001935050505061094b565b505f9695505050505050565b805160208201205f9063ffffffff811618610631565b5f816020015163ffffffff1661124d8463ffffffff81161890565b179392505050565b60607f00000000000000000000000000000000000000000000000000000000000000006001600160a01b031661129857505060408051602081019091525f815290565b6040517f1675f455000000000000000000000000000000000000000000000000000000008152600481018390527f00000000000000000000000000000000000000000000000000000000000000006001600160a01b031690631675f455906024015f60405180830381865afa158015611313573d5f803e3d5ffd5b505050506040513d5f823e601f3d908101601f191682016040526106319190810190612f13565b5f806113468484610953565b501515949350505050565b80515f9067ffffffffffffffff16421015611370578160600151611380565b6060820151611380906001612f9c565b63ffffffff1661124d8463ffffffff81161890565b6001600160a01b0384166113be57604051632bfa23e760e11b81525f60048201526024016107cc565b6001600160a01b0385166113e657604051626a0d4560e21b81525f60048201526024016107cc565b6113f38585858585611e43565b5050505050565b6040805160a0810182525f80825260208201819052918101829052606081018290526080810182905261142c84610cad565b90506114388482611232565b815190925067ffffffffffffffff164210611482576040517f0c23d840000000000000000000000000000000000000000000000000000000008152600481018390526024016107cc565b61096c61148f8583611351565b84610c4061102c565b5f806114a383611e9f565b5f948552600360205260409094205484169492505050565b5f83836114cb828261068461102c565b856114e957604051631850848b60e31b815260040160405180910390fd5b6114f68686866001611101565b9695505050505050565b61150b838383610e89565b61155a576040517f4b27a13300000000000000000000000000000000000000000000000000000000815260048101849052602481018390526001600160a01b03821660448201526064016107cc565b505050565b5f6115698761121c565b90505f61157582610cad565b805190915067ffffffffffffffff164210156115bf57876040517f6dbb87d00000000000000000000000000000000000000000000000000000000081526004016107cc9190612934565b67ffffffffffffffff8316421061160e576040517f6a0147dc00000000000000000000000000000000000000000000000000000000815267ffffffffffffffff841660048201526024016107cc565b6116188282611232565b5f818152602081905260409020549092506001600160a01b0316801561167f5761164481846001611eb9565b81606001805161165390612fc0565b63ffffffff16905260208201805161166a90612fc0565b63ffffffff16905261167c8383611232565b92505b67ffffffffffffffff841682526001600160a01b0380881660408085019190915287821660808501525163c0f8a73160e01b81527f00000000000000000000000000000000000000000000000000000000000000009091169063c0f8a731906116ee908690869060040161288a565b5f604051808303815f87803b158015611705575f80fd5b505af1158015611717573d5f803e3d5ffd5b50505050827fd9d0e8edd77eacdd7bd3f1d10259814b1aa244f74019f036046bbcc622fdcf598a8661174761102c565b60405161175693929190612fe2565b60405180910390a26117798884600160405180602001604052805f815250611f1f565b61178e6117868484611351565b868a5f611101565b506040516001600160a01b038816815283907fca01ade22fed8a886bda52d1fb12deaff178499347b6c13b1a892a60985a51e29060200160405180910390a26040516001600160a01b038716815283907f3c055b8ebff34805cc0c0216cfd96bfe2613c75002ce000f6268324952541d069060200160405180910390a250509695505050505050565b6001600160a01b038216611859576040517fced3e1000000000000000000000000000000000000000000000000000000000081525f60048201526024016107cc565b6001600160a01b038381165f81815260016020908152604080832094871680845294825291829020805460ff191686151590811790915591519182527f17307eab39ab6107e8899845ad3d59bd9653f200f220920489ca2b5937696c31910160405180910390a3505050565b5f61195884836001600160a01b03165f8181527fac33ff75c19e70fe83507db0d683fd3465c996598dc972688b7ace676c89077b60209081526040808320549483526002825280832093835292905220547f1111111111111111111111111111111100000000000000000000000000000000911790811660809190911c6f11111111111111111111111111111111161790565b905080198316156110fb576040517fa604e31800000000000000000000000000000000000000000000000000000000815260048101859052602481018490526001600160a01b03831660448201526064016107cc565b5f6119b884611c45565b5f8581526002602090815260408083206001600160a01b038716845290915290205484198116808214611210575f8781526002602090815260408083206001600160a01b03891684529091528120829055868316906111ab9089908390611ca5565b5f8383611a2a8282610e7761102c565b85611a4857604051631850848b60e31b815260040160405180910390fd5b6114f686868660016119ae565b6001600160a01b038416611a7e57604051632bfa23e760e11b81525f60048201526024016107cc565b6001600160a01b038516611aa657604051626a0d4560e21b81525f60048201526024016107cc565b60408051600180825260208201869052818301908152606082018590526080820190925290611ad88787848487611e43565b50505050505050565b5f6001600160e01b03198216636cdb3d1360e11b1480611b1157506001600160e01b031982166303a24d0760e21b145b80611b4557506001600160e01b031982167fd1011f6100000000000000000000000000000000000000000000000000000000145b80610631575061063182611f7a565b5f7f00000000000000000000000000000000000000000000000000000000000000006001600160a01b0316611b8857503390565b6040517f442b172c0000000000000000000000000000000000000000000000000000000081523360048201525f907f00000000000000000000000000000000000000000000000000000000000000006001600160a01b03169063442b172c90602401602060405180830381865afa158015611c05573d5f803e3d5ffd5b505050506040513d601f19601f82011682018060405250810190611c29919061301d565b90506001600160a01b038116611c40573391505090565b919050565b7feeeeeeeeeeeeeeeeeeeeeeeeeeeeeeeeeeeeeeeeeeeeeeeeeeeeeeeeeeeeeeee811615611ca2576040517f2a7b2d20000000000000000000000000000000000000000000000000000000008152600481018290526024016107cc565b50565b5f611caf83611e9f565b90508115611d78575f848152600360205260409020547f888888888888888888888888888888888888888888888888888888888888888890821680197feeeeeeeeeeeeeeeeeeeeeeeeeeeeeeeeeeeeeeeeeeeeeeeeeeeeeeeeeeeeeeef01161615611d50576040517ff916534800000000000000000000000000000000000000000000000000000000815260048101859052602481018490526044016107cc565b5f8481526003602052604081208054859290611d6d908490613038565b909155506110fb9050565b5f848152600360205260409020547f88888888888888888888888888888888888888888888888888888888888888889019821680197feeeeeeeeeeeeeeeeeeeeeeeeeeeeeeeeeeeeeeeeeeeeeeeeeeeeeeeeeeeeeeef01161615611e12576040517f1f80c19b00000000000000000000000000000000000000000000000000000000815260048101859052602481018490526044016107cc565b5f8481526003602052604081208054859290611e2f90849061304b565b909155505050505050565b6113f385612016565b611e4f8585858561216c565b6001600160a01b038416156113f3575f611e6761102c565b90508351600103611e915760208481015190840151611e8a838989858589612298565b50506107e2565b6107e28187878787876123b9565b5f611ea982611c45565b50600181901b17600281901b1790565b6001600160a01b038316611ee157604051626a0d4560e21b81525f60048201526024016107cc565b604080516001808252602082018590528183019081526060820184905260a082019092525f608082018181529192916113f391879185908590611e43565b6001600160a01b038416611f4857604051632bfa23e760e11b81525f60048201526024016107cc565b604080516001808252602082018690528183019081526060820185905260808201909252906107e25f87848487611e43565b5f6001600160e01b03198216636cdb3d1360e11b1480611fc357506001600160e01b031982167f6352211e00000000000000000000000000000000000000000000000000000000145b80611fde57506001600160e01b031982166303a24d0760e21b145b8061063157507f01ffc9a7000000000000000000000000000000000000000000000000000000006001600160e01b0319831614610631565b5f61202082610cad565b805190915067ffffffffffffffff16421015610ca9575f6120418383611232565b5f818152602081905260409020549091506001600160a01b031680156110fb5761206d81836001611eb9565b82602001805161207c90612fc0565b63ffffffff16905260405163c0f8a73160e01b81526001600160a01b037f0000000000000000000000000000000000000000000000000000000000000000169063c0f8a731906120d2908590879060040161288a565b5f604051808303815f87803b1580156120e9575f80fd5b505af11580156120fb573d5f803e3d5ffd5b505050505f61210a8385611232565b90506121278282600160405180602001604052805f815250611f1f565b80837f88d074c8fc078bb1c0b9cfa9e3ca1f65a96141df8b0da854fe3083df813cbcca6121548688611351565b60405190815260200160405180910390a35050505050565b5f6001600160a01b0384161580159061218d57506001600160a01b03851615155b90508015612246575f5b8351811015612244576121d78482815181106121b5576121b5612e5a565b6020026020010151720100000000000000000000000000000000000088610e89565b61223c578381815181106121ed576121ed612e5a565b6020026020010151866040517fe58f6d5a0000000000000000000000000000000000000000000000000000000081526004016107cc9291909182526001600160a01b0316602082015260400190565b600101612197565b505b612252858585856124a0565b80156113f3575f5b83518110156107e25761229061228885838151811061227b5761227b612e5a565b602002602001015161073a565b87875f6126c1565b60010161225a565b6001600160a01b0384163b156107e25760405163f23a6e6160e01b81526001600160a01b0385169063f23a6e61906122dc908990899088908890889060040161305e565b6020604051808303815f875af1925050508015612316575060408051601f3d908101601f19168201909252612313918101906130a0565b60015b61237d573d808015612343576040519150601f19603f3d011682016040523d82523d5f602084013e612348565b606091505b5080515f0361237557604051632bfa23e760e11b81526001600160a01b03861660048201526024016107cc565b805181602001fd5b6001600160e01b0319811663f23a6e6160e01b14611ad857604051632bfa23e760e11b81526001600160a01b03861660048201526024016107cc565b6001600160a01b0384163b156107e25760405163bc197c8160e01b81526001600160a01b0385169063bc197c81906123fd90899089908890889088906004016130bb565b6020604051808303815f875af1925050508015612437575060408051601f3d908101601f19168201909252612434918101906130a0565b60015b612464573d808015612343576040519150601f19603f3d011682016040523d82523d5f602084013e612348565b6001600160e01b0319811663bc197c8160e01b14611ad857604051632bfa23e760e11b81526001600160a01b03861660048201526024016107cc565b80518251146124cf5781518151604051635b05999160e01b8152600481019290925260248201526044016107cc565b5f6124d861102c565b90505f5b83518110156125e35760208181028581018201519085019091015180156125d9575f828152602081905260409020546001600160a01b039081169089168114612557576040516303dee4c560e01b81526001600160a01b038a1660048201525f602482015260448101839052606481018490526084016107cc565b6001821115612599576040516303dee4c560e01b81526001600160a01b038a1660048201526001602482015260448101839052606481018490526084016107cc565b505f82815260208190526040902080547fffffffffffffffffffffffff0000000000000000000000000000000000000000166001600160a01b0389161790555b50506001016124dc565b5082516001036126635760208301515f906020840151909150856001600160a01b0316876001600160a01b0316846001600160a01b03167fc3d58168c5ae7397731d063d5bbf3d657854427343f4c083240f7aacaa2d0f628585604051612654929190918252602082015260400190565b60405180910390a450506113f3565b836001600160a01b0316856001600160a01b0316826001600160a01b03167f4a39dc06d4c0dbc64b70af90fd698a233a518aa5d07e595d983b8c0526c8f7fb86866040516126b2929190613118565b60405180910390a45050505050565b5f8481526002602090815260408083206001600160a01b038716845290915290205480156113f3576126f5858286856119ae565b506107e285828585611101565b6001600160a01b0381168114611ca2575f80fd5b5f8060408385031215612727575f80fd5b823561273281612702565b946020939093013593505050565b6001600160e01b031981168114611ca2575f80fd5b5f60208284031215612765575f80fd5b813561070f81612740565b5f8060408385031215612781575f80fd5b82359150602083013561279381612702565b809150509250929050565b634e487b7160e01b5f52604160045260245ffd5b604051601f8201601f1916810167ffffffffffffffff811182821017156127db576127db61279e565b604052919050565b5f67ffffffffffffffff8211156127fc576127fc61279e565b50601f01601f191660200190565b5f61281c612817846127e3565b6127b2565b905082815283838301111561282f575f80fd5b828260208301375f602084830101529392505050565b5f60208284031215612855575f80fd5b813567ffffffffffffffff81111561286b575f80fd5b8201601f8101841361287b575f80fd5b61094b8482356020840161280a565b82815260c0810161070f602083018467ffffffffffffffff8151168252602081015163ffffffff8082166020850152604083015191506001600160a01b0380831660408601528160608501511660608601528060808501511660808601525050505050565b5f602082840312156128ff575f80fd5b5035919050565b5f81518084528060208401602086015e5f602082860101526020601f19601f83011685010191505092915050565b602081525f61070f6020830184612906565b5f8060408385031215612957575f80fd5b50508035926020909101359150565b5f67ffffffffffffffff82111561297f5761297f61279e565b5060051b60200190565b5f82601f830112612998575f80fd5b813560206129a861281783612966565b8083825260208201915060208460051b8701019350868411156129c9575f80fd5b602086015b848110156129e557803583529183019183016129ce565b509695505050505050565b5f82601f8301126129ff575f80fd5b61070f8383356020850161280a565b5f805f805f60a08688031215612a22575f80fd5b8535612a2d81612702565b94506020860135612a3d81612702565b9350604086013567ffffffffffffffff80821115612a59575f80fd5b612a6589838a01612989565b94506060880135915080821115612a7a575f80fd5b612a8689838a01612989565b93506080880135915080821115612a9b575f80fd5b50612aa8888289016129f0565b9150509295509295909350565b5f8083601f840112612ac5575f80fd5b50813567ffffffffffffffff811115612adc575f80fd5b60208301915083602082850101111561096c575f80fd5b5f8060208385031215612b04575f80fd5b823567ffffffffffffffff811115612b1a575f80fd5b612b2685828601612ab5565b90969095509350505050565b5f8060408385031215612b43575f80fd5b823567ffffffffffffffff80821115612b5a575f80fd5b818501915085601f830112612b6d575f80fd5b81356020612b7d61281783612966565b82815260059290921b84018101918181019089841115612b9b575f80fd5b948201945b83861015612bc2578535612bb381612702565b82529482019490820190612ba0565b96505086013592505080821115612bd7575f80fd5b50612be485828601612989565b9150509250929050565b5f815180845260208085019450602084015f5b83811015612c1d57815187529582019590820190600101612c01565b509495945050505050565b602081525f61070f6020830184612bee565b67ffffffffffffffff81168114611ca2575f80fd5b5f8060408385031215612c60575f80fd5b82359150602083013561279381612c3a565b5f805f60608486031215612c84575f80fd5b83359250602084013591506040840135612c9d81612702565b809150509250925092565b5f805f805f805f60c0888a031215612cbe575f80fd5b873567ffffffffffffffff811115612cd4575f80fd5b612ce08a828b01612ab5565b9098509650506020880135612cf481612702565b94506040880135612d0481612702565b93506060880135612d1481612702565b92506080880135915060a0880135612d2b81612c3a565b8091505092959891949750929550565b5f8060408385031215612d4c575f80fd5b8235612d5781612702565b915060208301358015158114612793575f80fd5b60a08101610631828467ffffffffffffffff8151168252602081015163ffffffff8082166020850152604083015191506001600160a01b0380831660408601528160608501511660608601528060808501511660808601525050505050565b5f8060408385031215612ddb575f80fd5b8235612de681612702565b9150602083013561279381612702565b5f805f805f60a08688031215612e0a575f80fd5b8535612e1581612702565b94506020860135612e2581612702565b93506040860135925060608601359150608086013567ffffffffffffffff811115612e4e575f80fd5b612aa8888289016129f0565b634e487b7160e01b5f52603260045260245ffd5b805163ffffffff81168114611c40575f80fd5b5f60a08284031215612e91575f80fd5b60405160a0810181811067ffffffffffffffff82111715612eb457612eb461279e565b6040528251612ec281612c3a565b8152612ed060208401612e6e565b60208201526040830151612ee381612702565b6040820152612ef460608401612e6e565b60608201526080830151612f0781612702565b60808201529392505050565b5f60208284031215612f23575f80fd5b815167ffffffffffffffff811115612f39575f80fd5b8201601f81018413612f49575f80fd5b8051612f57612817826127e3565b818152856020838501011115612f6b575f80fd5b8160208401602083015e5f91810160200191909152949350505050565b634e487b7160e01b5f52601160045260245ffd5b63ffffffff818116838216019080821115612fb957612fb9612f88565b5092915050565b5f63ffffffff808316818103612fd857612fd8612f88565b6001019392505050565b606081525f612ff46060830186612906565b905067ffffffffffffffff841660208301526001600160a01b0383166040830152949350505050565b5f6020828403121561302d575f80fd5b815161070f81612702565b8082018082111561063157610631612f88565b8181038181111561063157610631612f88565b5f6001600160a01b03808816835280871660208401525084604083015283606083015260a0608083015261309560a0830184612906565b979650505050505050565b5f602082840312156130b0575f80fd5b815161070f81612740565b5f6001600160a01b03808816835280871660208401525060a060408301526130e660a0830186612bee565b82810360608401526130f88186612bee565b9050828103608084015261310c8185612906565b98975050505050505050565b604081525f61312a6040830185612bee565b82810360208401526106968185612bee56fea2646970667358221220236f4f73b21deb20afb89195e855caa63ec6ebe3ecc8139616275383df6186b364736f6c634300081900338888888888888888888888888888888888888888888888888888888888888888eeeeeeeeeeeeeeeeeeeeeeeeeeeeeeeeeeeeeeeeeeeeeeeeeeeeeeeeeeeeeeef",
  "linkReferences": {},
  "deployedLinkReferences": {},
  "immutableReferences": {
    "25930": [
      {
        "length": 32,
        "start": 878
      },
      {
        "length": 32,
        "start": 6999
      },
      {
        "length": 32,
        "start": 7096
      }
    ],
    "27223": [
      {
        "length": 32,
        "start": 1019
      },
      {
        "length": 32,
        "start": 2109
      },
      {
        "length": 32,
        "start": 2779
      },
      {
        "length": 32,
        "start": 3344
      },
      {
        "length": 32,
        "start": 3500
      },
      {
        "length": 32,
        "start": 5813
      },
      {
        "length": 32,
        "start": 8347
      }
    ],
    "27354": [
      {
        "length": 32,
        "start": 1090
      },
      {
        "length": 32,
        "start": 4697
      },
      {
        "length": 32,
        "start": 4807
      }
    ]
  },
  "inputSourceName": "project/src/registry/PermissionedRegistry.sol",
  "devdoc": {
    "errors": {
      "CannotReduceExpiration(uint64,uint64)": [
        {
          "details": "Error emitted when a name cannot be reduced in expiration."
        }
      ],
      "CannotSetPastExpiration(uint64)": [
        {
          "details": "Error emitted when a name cannot be set to a past expiration."
        }
      ],
      "ERC1155InsufficientBalance(address,uint256,uint256,uint256)": [
        {
          "details": "Indicates an error related to the current `balance` of a `sender`. Used in transfers.",
          "params": {
            "balance": "Current balance for the interacting account.",
            "needed": "Minimum amount required to perform a transfer.",
            "sender": "Address whose tokens are being transferred.",
            "tokenId": "Identifier number of a token."
          }
        }
      ],
      "ERC1155InvalidApprover(address)": [
        {
          "details": "Indicates a failure with the `approver` of a token to be approved. Used in approvals.",
          "params": {
            "approver": "Address initiating an approval operation."
          }
        }
      ],
      "ERC1155InvalidArrayLength(uint256,uint256)": [
        {
          "details": "Indicates an array length mismatch between ids and values in a safeBatchTransferFrom operation. Used in batch transfers.",
          "params": {
            "idsLength": "Length of the array of token identifiers",
            "valuesLength": "Length of the array of token amounts"
          }
        }
      ],
      "ERC1155InvalidOperator(address)": [
        {
          "details": "Indicates a failure with the `operator` to be approved. Used in approvals.",
          "params": {
            "operator": "Address that may be allowed to operate on tokens without being their owner."
          }
        }
      ],
      "ERC1155InvalidReceiver(address)": [
        {
          "details": "Indicates a failure with the token `receiver`. Used in transfers.",
          "params": {
            "receiver": "Address to which tokens are being transferred."
          }
        }
      ],
      "ERC1155InvalidSender(address)": [
        {
          "details": "Indicates a failure with the token `sender`. Used in transfers.",
          "params": {
            "sender": "Address whose tokens are being transferred."
          }
        }
      ],
      "ERC1155MissingApprovalForAll(address,address)": [
        {
          "details": "Indicates a failure with the `operator`s approval. Used in transfers.",
          "params": {
            "operator": "Address that may be allowed to operate on tokens without being their owner.",
            "owner": "Address of the current owner of a token."
          }
        }
      ],
      "NameAlreadyRegistered(string)": [
        {
          "details": "Error emitted when a name is already registered."
        }
      ],
      "NameExpired(uint256)": [
        {
          "details": "Error emitted when a name has expired."
        }
      ],
      "TransferDisallowed(uint256,address)": [
        {
          "details": "Error emitted when a transfer is not allowed due to missing transfer admin role."
        }
      ]
    },
    "events": {
      "ApprovalForAll(address,address,bool)": {
        "details": "Emitted when `account` grants or revokes permission to `operator` to transfer their tokens, according to `approved`."
      },
      "ExpiryUpdated(uint256,uint64,address)": {
        "details": "Error selector: `0x`"
      },
      "NameRegistered(uint256,string,uint64,address)": {
        "details": "SHOULD be emitted when a new label is registered"
      },
      "TransferBatch(address,address,address,uint256[],uint256[])": {
        "details": "Equivalent to multiple {TransferSingle} events, where `operator`, `from` and `to` are the same for all transfers."
      },
      "TransferSingle(address,address,address,uint256,uint256)": {
        "details": "Emitted when `value` amount of tokens of type `id` are transferred from `from` to `to` by `operator`."
      },
      "URI(string,uint256)": {
        "details": "Emitted when the URI for token type `id` changes to `value`, if it is a non-programmatic URI. If an {URI} event was emitted for `id`, the standard https://eips.ethereum.org/EIPS/eip-1155#metadata-extensions[guarantees] that `value` will equal the value returned by {IERC1155MetadataURI-uri}."
      }
    },
    "kind": "dev",
    "methods": {
      "balanceOf(address,uint256)": {
        "details": "See {IERC1155-balanceOf}."
      },
      "balanceOfBatch(address[],uint256[])": {
        "details": "See {IERC1155-balanceOfBatch}. Requirements: - `accounts` and `ids` must have the same length."
      },
      "getEntry(uint256)": {
        "params": {
          "anyId": "The labelhash, token ID, or resource."
        },
        "returns": {
          "_0": "The datastore entry."
        }
      },
      "getExpiry(uint256)": {
        "params": {
          "anyId": "The labelhash, token ID, or resource."
        },
        "returns": {
          "_0": "The expiry for name."
        }
      },
      "getNameData(string)": {
        "details": "Fetches the name data for a label.",
        "params": {
          "label": "The label to fetch the name data for."
        },
        "returns": {
          "entry": "The entry data for the name.",
          "tokenId": "The token ID of the name."
        }
      },
      "getResolver(string)": {
        "details": "Fetches the resolver responsible for the specified label.",
        "params": {
          "label": "The label to fetch a resolver for."
        },
        "returns": {
          "_0": "resolver The address of a resolver responsible for this name, or `address(0)` if none exists."
        }
      },
      "getResource(uint256)": {
        "params": {
          "anyId": "The labelhash, token ID, or resource."
        },
        "returns": {
          "_0": "The resource."
        }
      },
      "getSubregistry(string)": {
        "details": "Fetches the registry for a subdomain.",
        "params": {
          "label": "The label to resolve."
        },
        "returns": {
          "_0": "The address of the registry for this subdomain, or `address(0)` if none exists."
        }
      },
      "getTokenId(uint256)": {
        "params": {
          "anyId": "The labelhash, token ID, or resource."
        },
        "returns": {
          "_0": "The token ID."
        }
      },
      "grantRoles(uint256,uint256,address)": {
        "details": "Grants all roles in the given role bitmap to `account`."
      },
      "grantRootRoles(uint256,address)": {
        "details": "Grants all roles in the given role bitmap to `account` in the ROOT_RESOURCE. The caller must have all the necessary admin roles for the roles being granted.",
        "params": {
          "account": "The account to grant roles to.",
          "roleBitmap": "The roles bitmap to grant."
        },
        "returns": {
          "_0": "`true` if the roles were granted, `false` otherwise."
        }
      },
      "hasRootRoles(uint256,address)": {
        "details": "Returns `true` if `account` has been granted all the given roles in the `ROOT_RESOURCE`.",
        "params": {
          "account": "The account to check.",
          "rolesBitmap": "The roles bitmap to check."
        },
        "returns": {
          "_0": "`true` if `account` has been granted all the given roles in the `ROOT_RESOURCE`, `false` otherwise."
        }
      },
      "isApprovedForAll(address,address)": {
        "details": "See {IERC1155-isApprovedForAll}."
      },
      "latestOwnerOf(uint256)": {
        "params": {
          "tokenId": "The token ID to query."
        },
        "returns": {
          "_0": "The latest owner address."
        }
      },
      "register(string,address,address,address,uint256,uint64)": {
        "details": "Registers a new name.",
        "params": {
          "expires": "The expiration date of the name.",
          "label": "The label to register.",
          "owner": "The address of the owner of the name.",
          "registry": "The registry to set as the name.",
          "resolver": "The resolver to set for the name.",
          "roleBitmap": "The role bitmap to set for the name."
        }
      },
      "renew(uint256,uint64)": {
        "params": {
          "anyId": "The labelhash, token ID, or resource.",
          "newExpiry": "The new expiration."
        }
      },
      "revokeRoles(uint256,uint256,address)": {
        "details": "Revokes all roles in the given role bitmap from `account`."
      },
      "revokeRootRoles(uint256,address)": {
        "details": "Revokes all roles in the given role bitmap from `account` in the ROOT_RESOURCE. The caller must have all the necessary admin roles for the roles being revoked.",
        "params": {
          "account": "The account to revoke roles from.",
          "roleBitmap": "The roles bitmap to revoke."
        },
        "returns": {
          "_0": "`true` if the roles were revoked, `false` otherwise."
        }
      },
      "safeBatchTransferFrom(address,address,uint256[],uint256[],bytes)": {
        "details": "See {IERC1155-safeBatchTransferFrom}."
      },
      "safeTransferFrom(address,address,uint256,uint256,bytes)": {
        "details": "See {IERC1155-safeTransferFrom}."
      },
      "setApprovalForAll(address,bool)": {
        "details": "See {IERC1155-setApprovalForAll}."
      },
      "setResolver(uint256,address)": {
        "params": {
          "anyId": "The labelhash, token ID, or resource.",
          "resolver": "The new resolver."
        }
      },
      "setSubregistry(uint256,address)": {
        "params": {
          "anyId": "The labelhash, token ID, or resource.",
          "registry": "The new registry."
        }
      }
    },
    "version": 1
  },
  "evm": {
    "gasEstimates": {
      "creation": {
        "codeDepositCost": "2531600",
        "executionCost": "infinite",
        "totalCost": "infinite"
      },
      "external": {
        "DATASTORE()": "infinite",
        "HCA_FACTORY()": "infinite",
        "METADATA_PROVIDER()": "infinite",
        "ROOT_RESOURCE()": "228",
        "balanceOf(address,uint256)": "infinite",
        "balanceOfBatch(address[],uint256[])": "infinite",
        "getAssigneeCount(uint256,uint256)": "infinite",
        "getEntry(uint256)": "infinite",
        "getExpiry(uint256)": "infinite",
        "getNameData(string)": "infinite",
        "getResolver(string)": "infinite",
        "getResource(uint256)": "infinite",
        "getSubregistry(string)": "infinite",
        "getTokenId(uint256)": "infinite",
        "grantRoles(uint256,uint256,address)": "infinite",
        "grantRootRoles(uint256,address)": "infinite",
        "hasAssignees(uint256,uint256)": "infinite",
        "hasRoles(uint256,uint256,address)": "infinite",
        "hasRootRoles(uint256,address)": "2664",
        "isApprovedForAll(address,address)": "infinite",
        "latestOwnerOf(uint256)": "2597",
        "ownerOf(uint256)": "infinite",
        "register(string,address,address,address,uint256,uint64)": "infinite",
        "renew(uint256,uint64)": "infinite",
        "revokeRoles(uint256,uint256,address)": "infinite",
        "revokeRootRoles(uint256,address)": "infinite",
        "roleCount(uint256)": "infinite",
        "roles(uint256,address)": "infinite",
        "safeBatchTransferFrom(address,address,uint256[],uint256[],bytes)": "infinite",
        "safeTransferFrom(address,address,uint256,uint256,bytes)": "infinite",
        "setApprovalForAll(address,bool)": "infinite",
        "setResolver(uint256,address)": "infinite",
        "setSubregistry(uint256,address)": "infinite",
        "supportsInterface(bytes4)": "infinite",
        "uri(uint256)": "infinite"
      },
      "internal": {
        "_checkExpiryAndTokenRoles(uint256,uint256)": "infinite",
        "_constructResource(uint256,struct IRegistryDatastore.Entry memory)": "infinite",
        "_constructTokenId(uint256,struct IRegistryDatastore.Entry memory)": "infinite",
        "_getSettableRoles(uint256,address)": "infinite",
        "_isExpired(uint64)": "infinite",
        "_onRolesGranted(uint256,address,uint256,uint256,uint256)": "infinite",
        "_onRolesRevoked(uint256,address,uint256,uint256,uint256)": "infinite",
        "_regenerateToken(uint256)": "infinite",
        "_register(string memory,address,contract IRegistry,address,uint256,uint64)": "infinite",
        "_update(address,address,uint256[] memory,uint256[] memory)": "infinite"
      }
    }
  },
  "storageLayout": {
    "storage": [
      {
        "astId": 25021,
        "contract": "project/src/registry/PermissionedRegistry.sol:PermissionedRegistry",
        "label": "_owners",
        "offset": 0,
        "slot": "0",
        "type": "t_mapping(t_uint256,t_address)"
      },
      {
        "astId": 25027,
        "contract": "project/src/registry/PermissionedRegistry.sol:PermissionedRegistry",
        "label": "_operatorApprovals",
        "offset": 0,
        "slot": "1",
        "type": "t_mapping(t_address,t_mapping(t_address,t_bool))"
      },
      {
        "astId": 23890,
        "contract": "project/src/registry/PermissionedRegistry.sol:PermissionedRegistry",
        "label": "_roles",
        "offset": 0,
        "slot": "2",
        "type": "t_mapping(t_uint256,t_mapping(t_address,t_uint256))"
      },
      {
        "astId": 23895,
        "contract": "project/src/registry/PermissionedRegistry.sol:PermissionedRegistry",
        "label": "_roleCount",
        "offset": 0,
        "slot": "3",
        "type": "t_mapping(t_uint256,t_uint256)"
      }
    ],
    "types": {
      "t_address": {
        "encoding": "inplace",
        "label": "address",
        "numberOfBytes": "20"
      },
      "t_bool": {
        "encoding": "inplace",
        "label": "bool",
        "numberOfBytes": "1"
      },
      "t_mapping(t_address,t_bool)": {
        "encoding": "mapping",
        "key": "t_address",
        "label": "mapping(address => bool)",
        "numberOfBytes": "32",
        "value": "t_bool"
      },
      "t_mapping(t_address,t_mapping(t_address,t_bool))": {
        "encoding": "mapping",
        "key": "t_address",
        "label": "mapping(address => mapping(address => bool))",
        "numberOfBytes": "32",
        "value": "t_mapping(t_address,t_bool)"
      },
      "t_mapping(t_address,t_uint256)": {
        "encoding": "mapping",
        "key": "t_address",
        "label": "mapping(address => uint256)",
        "numberOfBytes": "32",
        "value": "t_uint256"
      },
      "t_mapping(t_uint256,t_address)": {
        "encoding": "mapping",
        "key": "t_uint256",
        "label": "mapping(uint256 => address)",
        "numberOfBytes": "32",
        "value": "t_address"
      },
      "t_mapping(t_uint256,t_mapping(t_address,t_uint256))": {
        "encoding": "mapping",
        "key": "t_uint256",
        "label": "mapping(uint256 => mapping(address => uint256))",
        "numberOfBytes": "32",
        "value": "t_mapping(t_address,t_uint256)"
      },
      "t_mapping(t_uint256,t_uint256)": {
        "encoding": "mapping",
        "key": "t_uint256",
        "label": "mapping(uint256 => uint256)",
        "numberOfBytes": "32",
        "value": "t_uint256"
      },
      "t_uint256": {
        "encoding": "inplace",
        "label": "uint256",
        "numberOfBytes": "32"
      }
    }
  },
  "userdoc": {
    "events": {
      "ExpiryUpdated(uint256,uint64,address)": {
        "notice": "Expiry was changed."
      },
      "ResolverUpdated(uint256,address)": {
        "notice": "Resolver was changed."
      },
      "SubregistryUpdated(uint256,address)": {
        "notice": "Subregistry was changed."
      },
      "TokenRegenerated(uint256,uint256,uint256)": {
        "notice": "Token was regenerated with a new token ID.         This occurs when roles are granted or revoked to maintain ERC1155 compliance."
      }
    },
    "kind": "user",
    "methods": {
      "HCA_FACTORY()": {
        "notice": "The HCA factory contract"
      },
      "METADATA_PROVIDER()": {
        "notice": "The metadata provider contract"
      },
      "ROOT_RESOURCE()": {
        "notice": "The `ROOT_RESOURCE`."
      },
      "getEntry(uint256)": {
        "notice": "Get datastore `Entry` from `anyId`."
      },
      "getExpiry(uint256)": {
        "notice": "Get expiry of name."
      },
      "getResource(uint256)": {
        "notice": "Get `resource` from `anyId`."
      },
      "getTokenId(uint256)": {
        "notice": "Get `tokenId` from `anyId`."
      },
      "latestOwnerOf(uint256)": {
        "notice": "Get the latest owner of a token.         If the token was burned, returns null."
      },
      "renew(uint256,uint64)": {
        "notice": "Renew a subdomain."
      },
      "setResolver(uint256,address)": {
        "notice": "Change resolver of name."
      },
      "setSubregistry(uint256,address)": {
        "notice": "Change registry of name."
      }
    },
    "version": 1
  },
  "argsData": "0x000000000000000000000000a513e6e4b8f2a923d98304ec87f64353c4d5c8530000000000000000000000002279b7a0a67db372996a5fab50d91eaa73d2ebe60000000000000000000000008a791620dd6260079bf849dc5567adc3f2fdc318000000000000000000000000f39fd6e51aad88f6f4ce6ab8827279cfffb922661111111111111111111111111111111111111111111111111111111111111111",
  "transaction": {
    "hash": "0x067d97dfc161e47ff5be791e4ebbe01a946ab7e751962da135e677ae9d8f75c2",
    "nonce": "0x29",
    "origin": "0xf39fd6e51aad88f6f4ce6ab8827279cfffb92266"
  }
}