{
  "address": "0x809d550fca64d94bd9f66e60752a544199cfac3d",
  "abi": [
    {
      "inputs": [
        {
          "internalType": "contract ENS",
          "name": "ensAddr",
          "type": "address"
        }
      ],
      "stateMutability": "nonpayable",
      "type": "constructor"
    },
    {
      "anonymous": false,
      "inputs": [
        {
          "indexed": true,
          "internalType": "address",
          "name": "controller",
          "type": "address"
        },
        {
          "indexed": false,
          "internalType": "bool",
          "name": "enabled",
          "type": "bool"
        }
      ],
      "name": "ControllerChanged",
      "type": "event"
    },
    {
      "anonymous": false,
      "inputs": [
        {
          "indexed": true,
          "internalType": "contract NameResolver",
          "name": "resolver",
          "type": "address"
        }
      ],
      "name": "DefaultResolverChanged",
      "type": "event"
    },
    {
      "anonymous": false,
      "inputs": [
        {
          "indexed": true,
          "internalType": "address",
          "name": "previousOwner",
          "type": "address"
        },
        {
          "indexed": true,
          "internalType": "address",
          "name": "newOwner",
          "type": "address"
        }
      ],
      "name": "OwnershipTransferred",
      "type": "event"
    },
    {
      "anonymous": false,
      "inputs": [
        {
          "indexed": true,
          "internalType": "address",
          "name": "addr",
          "type": "address"
        },
        {
          "indexed": true,
          "internalType": "bytes32",
          "name": "node",
          "type": "bytes32"
        }
      ],
      "name": "ReverseClaimed",
      "type": "event"
    },
    {
      "inputs": [
        {
          "internalType": "address",
          "name": "owner",
          "type": "address"
        }
      ],
      "name": "claim",
      "outputs": [
        {
          "internalType": "bytes32",
          "name": "",
          "type": "bytes32"
        }
      ],
      "stateMutability": "nonpayable",
      "type": "function"
    },
    {
      "inputs": [
        {
          "internalType": "address",
          "name": "addr",
          "type": "address"
        },
        {
          "internalType": "address",
          "name": "owner",
          "type": "address"
        },
        {
          "internalType": "address",
          "name": "resolver",
          "type": "address"
        }
      ],
      "name": "claimForAddr",
      "outputs": [
        {
          "internalType": "bytes32",
          "name": "",
          "type": "bytes32"
        }
      ],
      "stateMutability": "nonpayable",
      "type": "function"
    },
    {
      "inputs": [
        {
          "internalType": "address",
          "name": "owner",
          "type": "address"
        },
        {
          "internalType": "address",
          "name": "resolver",
          "type": "address"
        }
      ],
      "name": "claimWithResolver",
      "outputs": [
        {
          "internalType": "bytes32",
          "name": "",
          "type": "bytes32"
        }
      ],
      "stateMutability": "nonpayable",
      "type": "function"
    },
    {
      "inputs": [
        {
          "internalType": "address",
          "name": "",
          "type": "address"
        }
      ],
      "name": "controllers",
      "outputs": [
        {
          "internalType": "bool",
          "name": "",
          "type": "bool"
        }
      ],
      "stateMutability": "view",
      "type": "function"
    },
    {
      "inputs": [],
      "name": "defaultResolver",
      "outputs": [
        {
          "internalType": "contract NameResolver",
          "name": "",
          "type": "address"
        }
      ],
      "stateMutability": "view",
      "type": "function"
    },
    {
      "inputs": [],
      "name": "ens",
      "outputs": [
        {
          "internalType": "contract ENS",
          "name": "",
          "type": "address"
        }
      ],
      "stateMutability": "view",
      "type": "function"
    },
    {
      "inputs": [
        {
          "internalType": "address",
          "name": "addr",
          "type": "address"
        }
      ],
      "name": "node",
      "outputs": [
        {
          "internalType": "bytes32",
          "name": "",
          "type": "bytes32"
        }
      ],
      "stateMutability": "pure",
      "type": "function"
    },
    {
      "inputs": [],
      "name": "owner",
      "outputs": [
        {
          "internalType": "address",
          "name": "",
          "type": "address"
        }
      ],
      "stateMutability": "view",
      "type": "function"
    },
    {
      "inputs": [],
      "name": "renounceOwnership",
      "outputs": [],
      "stateMutability": "nonpayable",
      "type": "function"
    },
    {
      "inputs": [
        {
          "internalType": "address",
          "name": "controller",
          "type": "address"
        },
        {
          "internalType": "bool",
          "name": "enabled",
          "type": "bool"
        }
      ],
      "name": "setController",
      "outputs": [],
      "stateMutability": "nonpayable",
      "type": "function"
    },
    {
      "inputs": [
        {
          "internalType": "address",
          "name": "resolver",
          "type": "address"
        }
      ],
      "name": "setDefaultResolver",
      "outputs": [],
      "stateMutability": "nonpayable",
      "type": "function"
    },
    {
      "inputs": [
        {
          "internalType": "string",
          "name": "name",
          "type": "string"
        }
      ],
      "name": "setName",
      "outputs": [
        {
          "internalType": "bytes32",
          "name": "",
          "type": "bytes32"
        }
      ],
      "stateMutability": "nonpayable",
      "type": "function"
    },
    {
      "inputs": [
        {
          "internalType": "address",
          "name": "addr",
          "type": "address"
        },
        {
          "internalType": "address",
          "name": "owner",
          "type": "address"
        },
        {
          "internalType": "address",
          "name": "resolver",
          "type": "address"
        },
        {
          "internalType": "string",
          "name": "name",
          "type": "string"
        }
      ],
      "name": "setNameForAddr",
      "outputs": [
        {
          "internalType": "bytes32",
          "name": "",
          "type": "bytes32"
        }
      ],
      "stateMutability": "nonpayable",
      "type": "function"
    },
    {
      "inputs": [
        {
          "internalType": "address",
          "name": "newOwner",
          "type": "address"
        }
      ],
      "name": "transferOwnership",
      "outputs": [],
      "stateMutability": "nonpayable",
      "type": "function"
    }
  ],
  "contractName": "ReverseRegistrar",
  "sourceName": "lib/ens-contracts/contracts/reverseRegistrar/ReverseRegistrar.sol",
  "bytecode": "0x60a060405234801561000f575f80fd5b50604051610ee1380380610ee183398101604081905261002e916101ab565b61003733610145565b6001600160a01b03811660808190526040516302571be360e01b81527f91d1777781884d03a6757a803996e38de2a42967fb37eeaca72729271025a9e260048201525f91906302571be390602401602060405180830381865afa1580156100a0573d5f803e3d5ffd5b505050506040513d601f19601f820116820180604052508101906100c491906101ab565b90506001600160a01b0381161561013e57604051630f41a04d60e11b81523360048201526001600160a01b03821690631e83409a906024016020604051808303815f875af1158015610118573d5f803e3d5ffd5b505050506040513d601f19601f8201168201806040525081019061013c91906101cd565b505b50506101e4565b5f80546001600160a01b038381166001600160a01b0319831681178455604051919092169283917f8be0079c531659141344cd1fd0a4f28419497f9722a3daafe3b4186f6b6457e09190a35050565b6001600160a01b03811681146101a8575f80fd5b50565b5f602082840312156101bb575f80fd5b81516101c681610194565b9392505050565b5f602082840312156101dd575f80fd5b5051919050565b608051610cd761020a5f395f8181610127015281816102e401526104f60152610cd75ff3fe608060405234801561000f575f80fd5b50600436106100e5575f3560e01c80638da5cb5b11610088578063c66485b211610063578063c66485b2146101da578063da8c229e146101ed578063e0dba60f1461021f578063f2fde38b14610232575f80fd5b80638da5cb5b146101a4578063bffbe61c146101b4578063c47f0027146101c7575f80fd5b806365669631116100c35780636566963114610161578063715018a6146101745780637a806d6b1461017e578063828eab0e14610191575f80fd5b80630f5a5466146100e95780631e83409a1461010f5780633f15457f14610122575b5f80fd5b6100fc6100f73660046109fb565b610245565b6040519081526020015b60405180910390f35b6100fc61011d366004610a32565b610258565b6101497f000000000000000000000000000000000000000000000000000000000000000081565b6040516001600160a01b039091168152602001610106565b6100fc61016f366004610a4d565b610279565b61017c610558565b005b6100fc61018c366004610b4b565b61056b565b600254610149906001600160a01b031681565b5f546001600160a01b0316610149565b6100fc6101c2366004610a32565b6105f9565b6100fc6101d5366004610bbc565b610653565b61017c6101e8366004610a32565b61066f565b61020f6101fb366004610a32565b60016020525f908152604090205460ff1681565b6040519015158152602001610106565b61017c61022d366004610c03565b610749565b61017c610240366004610a32565b6107af565b5f610251338484610279565b9392505050565b6002545f9061027390339084906001600160a01b0316610279565b92915050565b5f836001600160a01b0381163314806102a05750335f9081526001602052604090205460ff165b8061034d57506040517fe985e9c50000000000000000000000000000000000000000000000000000000081526001600160a01b0382811660048301523360248301527f0000000000000000000000000000000000000000000000000000000000000000169063e985e9c590604401602060405180830381865afa158015610329573d5f803e3d5ffd5b505050506040513d601f19601f8201168201806040525081019061034d9190610c2f565b8061035c575061035c8161083f565b6103f95760405162461bcd60e51b815260206004820152605b60248201527f526576657273655265676973747261723a2043616c6c6572206973206e6f742060448201527f6120636f6e74726f6c6c6572206f7220617574686f726973656420627920616460648201527f6472657373206f7220746865206164647265737320697473656c660000000000608482015260a4015b60405180910390fd5b5f610403866108b6565b604080517f91d1777781884d03a6757a803996e38de2a42967fb37eeaca72729271025a9e2602080830191909152818301849052825180830384018152606090920192839052815191012091925081906001600160a01b038916907f6ada868dd3058cf77a48a74489fd7963688e5464b2b0fa957ace976243270e92905f90a36040517f5ef2c7f00000000000000000000000000000000000000000000000000000000081527f91d1777781884d03a6757a803996e38de2a42967fb37eeaca72729271025a9e26004820152602481018390526001600160a01b03878116604483015286811660648301525f60848301527f00000000000000000000000000000000000000000000000000000000000000001690635ef2c7f09060a4015f604051808303815f87803b158015610537575f80fd5b505af1158015610549573d5f803e3d5ffd5b50929998505050505050505050565b610560610932565b6105695f61098b565b565b5f80610578868686610279565b6040517f773722130000000000000000000000000000000000000000000000000000000081529091506001600160a01b038516906377372213906105c29084908790600401610c4a565b5f604051808303815f87803b1580156105d9575f80fd5b505af11580156105eb573d5f803e3d5ffd5b509298975050505050505050565b5f7f91d1777781884d03a6757a803996e38de2a42967fb37eeaca72729271025a9e2610624836108b6565b604080516020810193909352820152606001604051602081830303815290604052805190602001209050919050565b6002545f9061027390339081906001600160a01b03168561056b565b610677610932565b6001600160a01b0381166106f35760405162461bcd60e51b815260206004820152603060248201527f526576657273655265676973747261723a205265736f6c76657220616464726560448201527f7373206d757374206e6f7420626520300000000000000000000000000000000060648201526084016103f0565b6002805473ffffffffffffffffffffffffffffffffffffffff19166001600160a01b0383169081179091556040517feae17a84d9eb83d8c8eb317f9e7d64857bc363fa51674d996c023f4340c577cf905f90a250565b610751610932565b6001600160a01b0382165f81815260016020908152604091829020805460ff191685151590811790915591519182527f4c97694570a07277810af7e5669ffd5f6a2d6b74b6e9a274b8b870fd5114cf87910160405180910390a25050565b6107b7610932565b6001600160a01b0381166108335760405162461bcd60e51b815260206004820152602660248201527f4f776e61626c653a206e6577206f776e657220697320746865207a65726f206160448201527f646472657373000000000000000000000000000000000000000000000000000060648201526084016103f0565b61083c8161098b565b50565b5f816001600160a01b0316638da5cb5b6040518163ffffffff1660e01b8152600401602060405180830381865afa92505050801561089a575060408051601f3d908101601f1916820190925261089791810190610c86565b60015b6108a557505f919050565b6001600160a01b0316331492915050565b5f60285b8015610927575f19017f3031323334353637383961626364656600000000000000000000000000000000600f84161a81536010909204915f19017f3031323334353637383961626364656600000000000000000000000000000000600f84161a81536010830492506108ba565b505060285f20919050565b5f546001600160a01b031633146105695760405162461bcd60e51b815260206004820181905260248201527f4f776e61626c653a2063616c6c6572206973206e6f7420746865206f776e657260448201526064016103f0565b5f80546001600160a01b0383811673ffffffffffffffffffffffffffffffffffffffff19831681178455604051919092169283917f8be0079c531659141344cd1fd0a4f28419497f9722a3daafe3b4186f6b6457e09190a35050565b6001600160a01b038116811461083c575f80fd5b5f8060408385031215610a0c575f80fd5b8235610a17816109e7565b91506020830135610a27816109e7565b809150509250929050565b5f60208284031215610a42575f80fd5b8135610251816109e7565b5f805f60608486031215610a5f575f80fd5b8335610a6a816109e7565b92506020840135610a7a816109e7565b91506040840135610a8a816109e7565b809150509250925092565b7f4e487b71000000000000000000000000000000000000000000000000000000005f52604160045260245ffd5b5f82601f830112610ad1575f80fd5b813567ffffffffffffffff80821115610aec57610aec610a95565b604051601f8301601f19908116603f01168101908282118183101715610b1457610b14610a95565b81604052838152866020858801011115610b2c575f80fd5b836020870160208301375f602085830101528094505050505092915050565b5f805f8060808587031215610b5e575f80fd5b8435610b69816109e7565b93506020850135610b79816109e7565b92506040850135610b89816109e7565b9150606085013567ffffffffffffffff811115610ba4575f80fd5b610bb087828801610ac2565b91505092959194509250565b5f60208284031215610bcc575f80fd5b813567ffffffffffffffff811115610be2575f80fd5b610bee84828501610ac2565b949350505050565b801515811461083c575f80fd5b5f8060408385031215610c14575f80fd5b8235610c1f816109e7565b91506020830135610a2781610bf6565b5f60208284031215610c3f575f80fd5b815161025181610bf6565b828152604060208201525f82518060408401528060208501606085015e5f606082850101526060601f19601f8301168401019150509392505050565b5f60208284031215610c96575f80fd5b8151610251816109e756fea26469706673582212207dd0feea6ee0614793c9655e37ada23da2b94cd1f45dc31a92b375474dbc736964736f6c63430008190033",
  "linkReferences": {},
  "deployedLinkReferences": {},
  "immutableReferences": {
    "16061": [
      {
        "length": 32,
        "start": 295
      },
      {
        "length": 32,
        "start": 740
      },
      {
        "length": 32,
        "start": 1270
      }
    ]
  },
  "inputSourceName": "project/lib/ens-contracts/contracts/reverseRegistrar/ReverseRegistrar.sol",
  "devdoc": {
    "kind": "dev",
    "methods": {
      "claim(address)": {
        "details": "Transfers ownership of the reverse ENS record associated with the      calling account.",
        "params": {
          "owner": "The address to set as the owner of the reverse record in ENS."
        },
        "returns": {
          "_0": "The ENS node hash of the reverse record."
        }
      },
      "claimForAddr(address,address,address)": {
        "details": "Transfers ownership of the reverse ENS record associated with the      calling account.",
        "params": {
          "addr": "The reverse record to set",
          "owner": "The address to set as the owner of the reverse record in ENS.",
          "resolver": "The resolver of the reverse node"
        },
        "returns": {
          "_0": "The ENS node hash of the reverse record."
        }
      },
      "claimWithResolver(address,address)": {
        "details": "Transfers ownership of the reverse ENS record associated with the      calling account.",
        "params": {
          "owner": "The address to set as the owner of the reverse record in ENS.",
          "resolver": "The address of the resolver to set; 0 to leave unchanged."
        },
        "returns": {
          "_0": "The ENS node hash of the reverse record."
        }
      },
      "constructor": {
        "details": "Constructor",
        "params": {
          "ensAddr": "The address of the ENS registry."
        }
      },
      "node(address)": {
        "details": "Returns the node hash for a given account's reverse records.",
        "params": {
          "addr": "The address to hash"
        },
        "returns": {
          "_0": "The ENS node hash."
        }
      },
      "owner()": {
        "details": "Returns the address of the current owner."
      },
      "renounceOwnership()": {
        "details": "Leaves the contract without owner. It will not be possible to call `onlyOwner` functions. Can only be called by the current owner. NOTE: Renouncing ownership will leave the contract without an owner, thereby disabling any functionality that is only available to the owner."
      },
      "setName(string)": {
        "details": "Sets the `name()` record for the reverse ENS record associated with the calling account. First updates the resolver to the default reverse resolver if necessary.",
        "params": {
          "name": "The name to set for this address."
        },
        "returns": {
          "_0": "The ENS node hash of the reverse record."
        }
      },
      "setNameForAddr(address,address,address,string)": {
        "details": "Sets the `name()` record for the reverse ENS record associated with the account provided. Updates the resolver to a designated resolver Only callable by controllers and authorised users",
        "params": {
          "addr": "The reverse record to set",
          "name": "The name to set for this address.",
          "owner": "The owner of the reverse node",
          "resolver": "The resolver of the reverse node"
        },
        "returns": {
          "_0": "The ENS node hash of the reverse record."
        }
      },
      "transferOwnership(address)": {
        "details": "Transfers ownership of the contract to a new account (`newOwner`). Can only be called by the current owner."
      }
    },
    "version": 1
  },
  "evm": {
    "gasEstimates": {
      "creation": {
        "codeDepositCost": "657400",
        "executionCost": "infinite",
        "totalCost": "infinite"
      },
      "external": {
        "claim(address)": "infinite",
        "claimForAddr(address,address,address)": "infinite",
        "claimWithResolver(address,address)": "infinite",
        "controllers(address)": "2566",
        "defaultResolver()": "2425",
        "ens()": "infinite",
        "node(address)": "infinite",
        "owner()": "2352",
        "renounceOwnership()": "infinite",
        "setController(address,bool)": "infinite",
        "setDefaultResolver(address)": "27909",
        "setName(string)": "infinite",
        "setNameForAddr(address,address,address,string)": "infinite",
        "transferOwnership(address)": "infinite"
      },
      "internal": {
        "ownsContract(address)": "infinite",
        "sha3HexAddress(address)": "infinite"
      }
    }
  },
  "storageLayout": {
    "storage": [
      {
        "astId": 41649,
        "contract": "project/lib/ens-contracts/contracts/reverseRegistrar/ReverseRegistrar.sol:ReverseRegistrar",
        "label": "_owner",
        "offset": 0,
        "slot": "0",
        "type": "t_address"
      },
      {
        "astId": 17667,
        "contract": "project/lib/ens-contracts/contracts/reverseRegistrar/ReverseRegistrar.sol:ReverseRegistrar",
        "label": "controllers",
        "offset": 0,
        "slot": "1",
        "type": "t_mapping(t_address,t_bool)"
      },
      {
        "astId": 16064,
        "contract": "project/lib/ens-contracts/contracts/reverseRegistrar/ReverseRegistrar.sol:ReverseRegistrar",
        "label": "defaultResolver",
        "offset": 0,
        "slot": "2",
        "type": "t_contract(NameResolver)16046"
      }
    ],
    "types": {
      "t_address": {
        "encoding": "inplace",
        "label": "address",
        "numberOfBytes": "20"
      },
      "t_bool": {
        "encoding": "inplace",
        "label": "bool",
        "numberOfBytes": "1"
      },
      "t_contract(NameResolver)16046": {
        "encoding": "inplace",
        "label": "contract NameResolver",
        "numberOfBytes": "20"
      },
      "t_mapping(t_address,t_bool)": {
        "encoding": "mapping",
        "key": "t_address",
        "label": "mapping(address => bool)",
        "numberOfBytes": "32",
        "value": "t_bool"
      }
    }
  },
  "userdoc": {
    "kind": "user",
    "methods": {},
    "version": 1
  },
  "argsData": "0x000000000000000000000000cf7ed3acca5a467e9e704c703e8d87f634fb0fc9",
  "transaction": {
    "hash": "0xa3cc7bc19f85eed1902c4e364f24411544ffd8fed673c511fe8b32a089159107",
    "nonce": "0x30",
    "origin": "0xf39fd6e51aad88f6f4ce6ab8827279cfffb92266"
  }
}