{
  "address": "0xa82ff9afd8f496c3d6ac40e2a0f282e47488cfc9",
  "abi": [
    {
      "inputs": [
        {
          "internalType": "contract ENS",
          "name": "_ens",
          "type": "address"
        }
      ],
      "stateMutability": "nonpayable",
      "type": "constructor"
    },
    {
      "anonymous": false,
      "inputs": [
        {
          "indexed": true,
          "internalType": "address",
          "name": "controller",
          "type": "address"
        },
        {
          "indexed": false,
          "internalType": "bool",
          "name": "enabled",
          "type": "bool"
        }
      ],
      "name": "ControllerChanged",
      "type": "event"
    },
    {
      "anonymous": false,
      "inputs": [
        {
          "indexed": true,
          "internalType": "address",
          "name": "previousOwner",
          "type": "address"
        },
        {
          "indexed": true,
          "internalType": "address",
          "name": "newOwner",
          "type": "address"
        }
      ],
      "name": "OwnershipTransferred",
      "type": "event"
    },
    {
      "anonymous": false,
      "inputs": [
        {
          "indexed": true,
          "internalType": "bytes32",
          "name": "label",
          "type": "bytes32"
        }
      ],
      "name": "TLDLocked",
      "type": "event"
    },
    {
      "inputs": [
        {
          "internalType": "address",
          "name": "",
          "type": "address"
        }
      ],
      "name": "controllers",
      "outputs": [
        {
          "internalType": "bool",
          "name": "",
          "type": "bool"
        }
      ],
      "stateMutability": "view",
      "type": "function"
    },
    {
      "inputs": [],
      "name": "ens",
      "outputs": [
        {
          "internalType": "contract ENS",
          "name": "",
          "type": "address"
        }
      ],
      "stateMutability": "view",
      "type": "function"
    },
    {
      "inputs": [
        {
          "internalType": "bytes32",
          "name": "label",
          "type": "bytes32"
        }
      ],
      "name": "lock",
      "outputs": [],
      "stateMutability": "nonpayable",
      "type": "function"
    },
    {
      "inputs": [
        {
          "internalType": "bytes32",
          "name": "",
          "type": "bytes32"
        }
      ],
      "name": "locked",
      "outputs": [
        {
          "internalType": "bool",
          "name": "",
          "type": "bool"
        }
      ],
      "stateMutability": "view",
      "type": "function"
    },
    {
      "inputs": [],
      "name": "owner",
      "outputs": [
        {
          "internalType": "address",
          "name": "",
          "type": "address"
        }
      ],
      "stateMutability": "view",
      "type": "function"
    },
    {
      "inputs": [],
      "name": "renounceOwnership",
      "outputs": [],
      "stateMutability": "nonpayable",
      "type": "function"
    },
    {
      "inputs": [
        {
          "internalType": "address",
          "name": "controller",
          "type": "address"
        },
        {
          "internalType": "bool",
          "name": "enabled",
          "type": "bool"
        }
      ],
      "name": "setController",
      "outputs": [],
      "stateMutability": "nonpayable",
      "type": "function"
    },
    {
      "inputs": [
        {
          "internalType": "address",
          "name": "resolver",
          "type": "address"
        }
      ],
      "name": "setResolver",
      "outputs": [],
      "stateMutability": "nonpayable",
      "type": "function"
    },
    {
      "inputs": [
        {
          "internalType": "bytes32",
          "name": "label",
          "type": "bytes32"
        },
        {
          "internalType": "address",
          "name": "owner",
          "type": "address"
        }
      ],
      "name": "setSubnodeOwner",
      "outputs": [],
      "stateMutability": "nonpayable",
      "type": "function"
    },
    {
      "inputs": [
        {
          "internalType": "bytes4",
          "name": "interfaceID",
          "type": "bytes4"
        }
      ],
      "name": "supportsInterface",
      "outputs": [
        {
          "internalType": "bool",
          "name": "",
          "type": "bool"
        }
      ],
      "stateMutability": "pure",
      "type": "function"
    },
    {
      "inputs": [
        {
          "internalType": "address",
          "name": "newOwner",
          "type": "address"
        }
      ],
      "name": "transferOwnership",
      "outputs": [],
      "stateMutability": "nonpayable",
      "type": "function"
    }
  ],
  "contractName": "Root",
  "sourceName": "lib/ens-contracts/contracts/root/Root.sol",
  "bytecode": "0x6080604052348015600e575f80fd5b5060405161080c38038061080c833981016040819052602b9160a5565b6032336056565b600280546001600160a01b0319166001600160a01b039290921691909117905560d0565b5f80546001600160a01b038381166001600160a01b0319831681178455604051919092169283917f8be0079c531659141344cd1fd0a4f28419497f9722a3daafe3b4186f6b6457e09190a35050565b5f6020828403121560b4575f80fd5b81516001600160a01b038116811460c9575f80fd5b9392505050565b61072f806100dd5f395ff3fe608060405234801561000f575f80fd5b50600436106100c4575f3560e01c80638cb8ecec1161007d578063da8c229e11610058578063da8c229e146101d2578063e0dba60f146101f4578063f2fde38b14610207575f80fd5b80638cb8ecec1461018d5780638da5cb5b146101a0578063cbe9e764146101b0575f80fd5b80633f15457f116100ad5780633f15457f146101475780634e543b2614610172578063715018a614610185575f80fd5b806301670ba9146100c857806301ffc9a7146100dd575b5f80fd5b6100db6100d63660046105ee565b61021a565b005b6101326100eb366004610605565b7fffffffff00000000000000000000000000000000000000000000000000000000167f01ffc9a7000000000000000000000000000000000000000000000000000000001490565b60405190151581526020015b60405180910390f35b60025461015a906001600160a01b031681565b6040516001600160a01b03909116815260200161013e565b6100db610180366004610666565b610266565b6100db6102ea565b6100db61019b36600461067f565b6102fd565b5f546001600160a01b031661015a565b6101326101be3660046105ee565b60036020525f908152604090205460ff1681565b6101326101e0366004610666565b60016020525f908152604090205460ff1681565b6100db6102023660046106a9565b610438565b6100db610215366004610666565b61049e565b61022261052e565b60405181907f1764176cfa565853ba1ded547a830a9f9bff95231ef6fd228b3ddd6175777569905f90a25f908152600360205260409020805460ff19166001179055565b61026e61052e565b6002546040517f1896f70a0000000000000000000000000000000000000000000000000000000081525f60048201526001600160a01b03838116602483015290911690631896f70a906044015f604051808303815f87803b1580156102d1575f80fd5b505af11580156102e3573d5f803e3d5ffd5b5050505050565b6102f261052e565b6102fb5f610587565b565b335f9081526001602052604090205460ff166103865760405162461bcd60e51b815260206004820152602860248201527f436f6e74726f6c6c61626c653a2043616c6c6572206973206e6f74206120636f60448201527f6e74726f6c6c657200000000000000000000000000000000000000000000000060648201526084015b60405180910390fd5b5f8281526003602052604090205460ff16156103a0575f80fd5b6002546040517f06ab59230000000000000000000000000000000000000000000000000000000081525f6004820152602481018490526001600160a01b038381166044830152909116906306ab5923906064016020604051808303815f875af115801561040f573d5f803e3d5ffd5b505050506040513d601f19601f8201168201806040525081019061043391906106e2565b505050565b61044061052e565b6001600160a01b0382165f81815260016020908152604091829020805460ff191685151590811790915591519182527f4c97694570a07277810af7e5669ffd5f6a2d6b74b6e9a274b8b870fd5114cf87910160405180910390a25050565b6104a661052e565b6001600160a01b0381166105225760405162461bcd60e51b815260206004820152602660248201527f4f776e61626c653a206e6577206f776e657220697320746865207a65726f206160448201527f6464726573730000000000000000000000000000000000000000000000000000606482015260840161037d565b61052b81610587565b50565b5f546001600160a01b031633146102fb5760405162461bcd60e51b815260206004820181905260248201527f4f776e61626c653a2063616c6c6572206973206e6f7420746865206f776e6572604482015260640161037d565b5f80546001600160a01b038381167fffffffffffffffffffffffff0000000000000000000000000000000000000000831681178455604051919092169283917f8be0079c531659141344cd1fd0a4f28419497f9722a3daafe3b4186f6b6457e09190a35050565b5f602082840312156105fe575f80fd5b5035919050565b5f60208284031215610615575f80fd5b81357fffffffff0000000000000000000000000000000000000000000000000000000081168114610644575f80fd5b9392505050565b80356001600160a01b0381168114610661575f80fd5b919050565b5f60208284031215610676575f80fd5b6106448261064b565b5f8060408385031215610690575f80fd5b823591506106a06020840161064b565b90509250929050565b5f80604083850312156106ba575f80fd5b6106c38361064b565b9150602083013580151581146106d7575f80fd5b809150509250929050565b5f602082840312156106f2575f80fd5b505191905056fea26469706673582212201c43183a234cfd2107a50d84386d034f74ad16ea2f89ff8cb850f64ba1f1f37464736f6c63430008190033",
  "linkReferences": {},
  "deployedLinkReferences": {},
  "immutableReferences": {},
  "inputSourceName": "project/lib/ens-contracts/contracts/root/Root.sol",
  "devdoc": {
    "kind": "dev",
    "methods": {
      "owner()": {
        "details": "Returns the address of the current owner."
      },
      "renounceOwnership()": {
        "details": "Leaves the contract without owner. It will not be possible to call `onlyOwner` functions. Can only be called by the current owner. NOTE: Renouncing ownership will leave the contract without an owner, thereby disabling any functionality that is only available to the owner."
      },
      "transferOwnership(address)": {
        "details": "Transfers ownership of the contract to a new account (`newOwner`). Can only be called by the current owner."
      }
    },
    "version": 1
  },
  "evm": {
    "gasEstimates": {
      "creation": {
        "codeDepositCost": "367800",
        "executionCost": "infinite",
        "totalCost": "infinite"
      },
      "external": {
        "controllers(address)": "2539",
        "ens()": "2359",
        "lock(bytes32)": "27843",
        "locked(bytes32)": "2503",
        "owner()": "2374",
        "renounceOwnership()": "infinite",
        "setController(address,bool)": "28337",
        "setResolver(address)": "infinite",
        "setSubnodeOwner(bytes32,address)": "infinite",
        "supportsInterface(bytes4)": "354",
        "transferOwnership(address)": "28380"
      }
    }
  },
  "storageLayout": {
    "storage": [
      {
        "astId": 41649,
        "contract": "project/lib/ens-contracts/contracts/root/Root.sol:Root",
        "label": "_owner",
        "offset": 0,
        "slot": "0",
        "type": "t_address"
      },
      {
        "astId": 17667,
        "contract": "project/lib/ens-contracts/contracts/root/Root.sol:Root",
        "label": "controllers",
        "offset": 0,
        "slot": "1",
        "type": "t_mapping(t_address,t_bool)"
      },
      {
        "astId": 17797,
        "contract": "project/lib/ens-contracts/contracts/root/Root.sol:Root",
        "label": "ens",
        "offset": 0,
        "slot": "2",
        "type": "t_contract(ENS)11138"
      },
      {
        "astId": 17801,
        "contract": "project/lib/ens-contracts/contracts/root/Root.sol:Root",
        "label": "locked",
        "offset": 0,
        "slot": "3",
        "type": "t_mapping(t_bytes32,t_bool)"
      }
    ],
    "types": {
      "t_address": {
        "encoding": "inplace",
        "label": "address",
        "numberOfBytes": "20"
      },
      "t_bool": {
        "encoding": "inplace",
        "label": "bool",
        "numberOfBytes": "1"
      },
      "t_bytes32": {
        "encoding": "inplace",
        "label": "bytes32",
        "numberOfBytes": "32"
      },
      "t_contract(ENS)11138": {
        "encoding": "inplace",
        "label": "contract ENS",
        "numberOfBytes": "20"
      },
      "t_mapping(t_address,t_bool)": {
        "encoding": "mapping",
        "key": "t_address",
        "label": "mapping(address => bool)",
        "numberOfBytes": "32",
        "value": "t_bool"
      },
      "t_mapping(t_bytes32,t_bool)": {
        "encoding": "mapping",
        "key": "t_bytes32",
        "label": "mapping(bytes32 => bool)",
        "numberOfBytes": "32",
        "value": "t_bool"
      }
    }
  },
  "userdoc": {
    "kind": "user",
    "methods": {},
    "version": 1
  },
  "argsData": "0x000000000000000000000000cf7ed3acca5a467e9e704c703e8d87f634fb0fc9",
  "transaction": {
    "hash": "0xa46bdc1137529685b4c9e3b4193e423a7e2365aa21635cc15c61fce1e9d40564",
    "nonce": "0x22",
    "origin": "0xf39fd6e51aad88f6f4ce6ab8827279cfffb92266"
  }
}