{
  "address": "0x0dcd1bf9a1b36ce34237eeafef220932846bcd82",
  "abi": [
    {
      "inputs": [
        {
          "internalType": "uint256",
          "name": "offset",
          "type": "uint256"
        },
        {
          "internalType": "uint256",
          "name": "length",
          "type": "uint256"
        }
      ],
      "name": "OffsetOutOfBoundsError",
      "type": "error"
    },
    {
      "inputs": [
        {
          "internalType": "bytes",
          "name": "key",
          "type": "bytes"
        },
        {
          "internalType": "bytes",
          "name": "data",
          "type": "bytes"
        },
        {
          "internalType": "bytes",
          "name": "sig",
          "type": "bytes"
        }
      ],
      "name": "verify",
      "outputs": [
        {
          "internalType": "bool",
          "name": "",
          "type": "bool"
        }
      ],
      "stateMutability": "view",
      "type": "function"
    }
  ],
  "contractName": "RSASHA256Algorithm",
  "sourceName": "lib/ens-contracts/contracts/dnssec-oracle/algorithms/RSASHA256Algorithm.sol",
  "bytecode": "0x6080604052348015600e575f80fd5b5061073f8061001c5f395ff3fe608060405234801561000f575f80fd5b5060043610610029575f3560e01c8063de8f50a11461002d575b5f80fd5b61004061003b36600461057a565b610054565b604051901515815260200160405180910390f35b5f6060805f61009c60048b8b8080601f0160208091040260200160405190810160405280939291908181526020018383808284375f9201919091525092939250506102e79050565b60ff1690508015610166576100f060058261ffff168c8c8080601f0160208091040260200160405190810160405280939291908181526020018383808284375f9201919091525092949392505061031f9050565b925061015f610100826005610621565b61ffff908116906005906101169085168d610643565b6101209190610643565b8c8c8080601f0160208091040260200160405190810160405280939291908181526020018383808284375f9201919091525092949392505061031f9050565b915061021d565b6101a960058b8b8080601f0160208091040260200160405190810160405280939291908181526020018383808284375f92019190915250929392505061037b9050565b90506101f460078261ffff168c8c8080601f0160208091040260200160405190810160405280939291908181526020018383808284375f9201919091525092949392505061031f9050565b925061021a610204826007610621565b61ffff908116906007906101169085168d610643565b91505b5f606061026084868a8a8080601f0160208091040260200160405190810160405280939291908181526020018383808284375f9201919091525061039792505050565b90925090508180156102d757506102856020825161027e9190610643565b82906103b1565b60028b8b604051610297929190610656565b602060405180830381855afa1580156102b2573d5f803e3d5ffd5b5050506040513d601f19601f820116820180604052508101906102d59190610665565b145b9c9b505050505050505050505050565b5f6102fc836102f784600161067c565b6103ca565b82828151811061030e5761030e61068f565b016020015160f81c90505b92915050565b60608167ffffffffffffffff81111561033a5761033a6106a3565b6040519080825280601f01601f191660200182016040528015610364576020820181803683370190505b5090506103748484835f8661041f565b9392505050565b5f61038b836102f784600261067c565b50016020015160f01c90565b5f60606103a5838587610457565b91509150935093915050565b5f6103c1836102f784602061067c565b50016020015190565b815181111561041b5781516040517f8a3c1cfb000000000000000000000000000000000000000000000000000000008152610412918391600401918252602082015260400190565b60405180910390fd5b5050565b61042d856102f7838761067c565b61043b836102f7838561067c565b610450826020850101856020880101836104ec565b5050505050565b5f60605f855185518551888888604051602001610479969594939291906106ce565b6040516020818303038152906040529050835167ffffffffffffffff8111156104a4576104a46106a3565b6040519080825280601f01601f1916602001820160405280156104ce576020820181803683370190505b50915083516020830182516020840160055afa925050935093915050565b5b601f81111561050d578151835260209283019290910190601f19016104ed565b801561053057815183516001602084900360031b1b5f1901801990921691161783525b505050565b5f8083601f840112610545575f80fd5b50813567ffffffffffffffff81111561055c575f80fd5b602083019150836020828501011115610573575f80fd5b9250929050565b5f805f805f806060878903121561058f575f80fd5b863567ffffffffffffffff808211156105a6575f80fd5b6105b28a838b01610535565b909850965060208901359150808211156105ca575f80fd5b6105d68a838b01610535565b909650945060408901359150808211156105ee575f80fd5b506105fb89828a01610535565b979a9699509497509295939492505050565b634e487b7160e01b5f52601160045260245ffd5b61ffff81811683821601908082111561063c5761063c61060d565b5092915050565b818103818111156103195761031961060d565b818382375f9101908152919050565b5f60208284031215610675575f80fd5b5051919050565b808201808211156103195761031961060d565b634e487b7160e01b5f52603260045260245ffd5b634e487b7160e01b5f52604160045260245ffd5b5f81518060208401855e5f93019283525090919050565b8681528560208201528460408201525f6106fd6106f76106f160608501886106b7565b866106b7565b846106b7565b9897505050505050505056fea26469706673582212208b790e2065e90d5eb7b4e5ad69639210f372bae335bcafc50711f173d945dfa264736f6c63430008190033",
  "linkReferences": {},
  "deployedLinkReferences": {},
  "immutableReferences": {},
  "inputSourceName": "project/lib/ens-contracts/contracts/dnssec-oracle/algorithms/RSASHA256Algorithm.sol",
  "devdoc": {
    "details": "Implements the DNSSEC RSASHA256 algorithm.",
    "errors": {
      "OffsetOutOfBoundsError(uint256,uint256)": [
        {
          "details": "`offset` was beyond `length`.       Error selector: `0x8a3c1cfb`"
        }
      ]
    },
    "kind": "dev",
    "methods": {},
    "version": 1
  },
  "evm": {
    "gasEstimates": {
      "creation": {
        "codeDepositCost": "371000",
        "executionCost": "403",
        "totalCost": "371403"
      },
      "external": {
        "verify(bytes,bytes,bytes)": "infinite"
      }
    }
  },
  "storageLayout": {
    "storage": [],
    "types": null
  },
  "userdoc": {
    "kind": "user",
    "methods": {},
    "version": 1
  },
  "argsData": "0x",
  "transaction": {
    "hash": "0x7f50bccfbbe6733628d35df30ce27d01e080a41549f9ae42d797a82ee5df7899",
    "nonce": "0xd",
    "origin": "0xf39fd6e51aad88f6f4ce6ab8827279cfffb92266"
  }
}