{
  "address": "0x0b306bf915c4d645ff596e518faf3f9669b97016",
  "abi": [
    {
      "inputs": [
        {
          "internalType": "uint256",
          "name": "offset",
          "type": "uint256"
        },
        {
          "internalType": "uint256",
          "name": "length",
          "type": "uint256"
        }
      ],
      "name": "OffsetOutOfBoundsError",
      "type": "error"
    },
    {
      "inputs": [
        {
          "internalType": "bytes",
          "name": "data",
          "type": "bytes"
        },
        {
          "internalType": "bytes",
          "name": "hash",
          "type": "bytes"
        }
      ],
      "name": "verify",
      "outputs": [
        {
          "internalType": "bool",
          "name": "",
          "type": "bool"
        }
      ],
      "stateMutability": "pure",
      "type": "function"
    }
  ],
  "contractName": "SHA1Digest",
  "sourceName": "lib/ens-contracts/contracts/dnssec-oracle/digests/SHA1Digest.sol",
  "bytecode": "0x6080604052348015600e575f80fd5b5061076a8061001c5f395ff3fe608060405234801561000f575f80fd5b5060043610610029575f3560e01c8063f7e83aee1461002d575b5f80fd5b61004061003b36600461068f565b610054565b604051901515815260200160405180910390f35b5f601482146100c4576040517f08c379a000000000000000000000000000000000000000000000000000000000815260206004820152601860248201527f496e76616c696420736861312068617368206c656e677468000000000000000060448201526064015b60405180910390fd5b5f6101075f85858080601f0160208091040260200160405190810160405280939291908181526020018383808284375f9201919091525092939250506101749050565b6bffffffffffffffffffffffff191690505f61015787878080601f0160208091040260200160405190810160405280939291908181526020018383808284375f9201919091525061019592505050565b6bffffffffffffffffffffffff1916919091149695505050505050565b5f610189836101848460146106f6565b6105fe565b50016014015160601b90565b5f6040518251602084019350604067ffffffffffffffc0600183011601600982820310600181036101c7576040820191505b50776745230100efcdab890098badcfe001032547600c3d2e1f0610218565b5f8383101561021157508082015192829003926020841015610211575f1960208590036101000a0119165b9392505050565b5f5b8281101561057e5761022d8482896101e6565b855261023d8460208301896101e6565b6020860152604081850310600181036102595760808286038701535b506040830381146001810361027657602086018051600887021790525b5060405b60808110156102fe57858101603f19810151603719820151601f19830151600b198401516002911891909218189081027ffffffffefffffffefffffffefffffffefffffffefffffffefffffffefffffffe1663800000009091047c010000000100000001000000010000000100000001000000010000000116179052600c0161027a565b5060805b61014081101561038757858101607f19810151606f19820151603f198301516017198401516004911891909218189081027ffffffffcfffffffcfffffffcfffffffcfffffffcfffffffcfffffffcfffffffc1663400000009091047c030000000300000003000000030000000300000003000000030000000316179052601801610302565b50815f805f5b6050811015610554576014810480156103bd57600181146103e6576002811461040d57600381146104395761045c565b650100000000008504600160501b86048118600160781b870416189350635a827999925061045c565b650100000000008504600160781b8604600160501b870418189350636ed9eba1925061045c565b600160501b8504600160781b8604818117650100000000008804169116179350638f1bbcdc925061045c565b650100000000008504600160781b8604600160501b87041818935063ca62c1d692505b50601f770800000000000000000000000000000000000000000000008504168063ffffffe073080000000000000000000000000000000000000087041617905080840190508063ffffffff86160190508083019050807c0100000000000000000000000000000000000000000000000000000000600484028c01510401905074010000000000000000000000000000000000000000810265010000000000860417945050600160501b633fffffff6a040000000000000000000086041663c00000006604000000000000870416170277ffffffff00ffffffff000000000000ffffffff00ffffffff851617935060018101905061038d565b5050509190910177ffffffff00ffffffff00ffffffff00ffffffff00ffffffff169060400161021a565b506c0100000000000000000000000063ffffffff821667ffffffff000000006101008404166bffffffff0000000000000000620100008504166fffffffff000000000000000000000000630100000086041673ffffffff000000000000000000000000000000006401000000008704161717171702945050505050919050565b81518111156106465781516040517f8a3c1cfb0000000000000000000000000000000000000000000000000000000081526100bb918391600401918252602082015260400190565b5050565b5f8083601f84011261065a575f80fd5b50813567ffffffffffffffff811115610671575f80fd5b602083019150836020828501011115610688575f80fd5b9250929050565b5f805f80604085870312156106a2575f80fd5b843567ffffffffffffffff808211156106b9575f80fd5b6106c58883890161064a565b909650945060208701359150808211156106dd575f80fd5b506106ea8782880161064a565b95989497509550505050565b8082018082111561072e577f4e487b71000000000000000000000000000000000000000000000000000000005f52601160045260245ffd5b9291505056fea26469706673582212204ab3433df77b07c4598cd1b77be58b0f6bf70000edeff5e2cbd5ca5b53ac3d1a64736f6c63430008190033",
  "linkReferences": {},
  "deployedLinkReferences": {},
  "immutableReferences": {},
  "inputSourceName": "project/lib/ens-contracts/contracts/dnssec-oracle/digests/SHA1Digest.sol",
  "devdoc": {
    "details": "Implements the DNSSEC SHA1 digest.",
    "errors": {
      "OffsetOutOfBoundsError(uint256,uint256)": [
        {
          "details": "`offset` was beyond `length`.       Error selector: `0x8a3c1cfb`"
        }
      ]
    },
    "kind": "dev",
    "methods": {
      "verify(bytes,bytes)": {
        "details": "Verifies a cryptographic hash.",
        "params": {
          "data": "The data to hash.",
          "hash": "The hash to compare to."
        },
        "returns": {
          "_0": "True iff the hashed data matches the provided hash value."
        }
      }
    },
    "version": 1
  },
  "evm": {
    "gasEstimates": {
      "creation": {
        "codeDepositCost": "379600",
        "executionCost": "416",
        "totalCost": "380016"
      },
      "external": {
        "verify(bytes,bytes)": "infinite"
      }
    }
  },
  "storageLayout": {
    "storage": [],
    "types": null
  },
  "userdoc": {
    "kind": "user",
    "methods": {},
    "version": 1
  },
  "argsData": "0x",
  "transaction": {
    "hash": "0xe5731601c419243594e7fbc5c68a965f2e432dce35b464d130ae2f76a7bd4ecc",
    "nonce": "0xf",
    "origin": "0xf39fd6e51aad88f6f4ce6ab8827279cfffb92266"
  }
}