{
  "address": "0x959922be3caee4b8cd9a407cc3ac1c251c2007b1",
  "abi": [
    {
      "inputs": [
        {
          "internalType": "uint256",
          "name": "offset",
          "type": "uint256"
        },
        {
          "internalType": "uint256",
          "name": "length",
          "type": "uint256"
        }
      ],
      "name": "OffsetOutOfBoundsError",
      "type": "error"
    },
    {
      "inputs": [
        {
          "internalType": "bytes",
          "name": "data",
          "type": "bytes"
        },
        {
          "internalType": "bytes",
          "name": "hash",
          "type": "bytes"
        }
      ],
      "name": "verify",
      "outputs": [
        {
          "internalType": "bool",
          "name": "",
          "type": "bool"
        }
      ],
      "stateMutability": "pure",
      "type": "function"
    }
  ],
  "contractName": "SHA256Digest",
  "sourceName": "lib/ens-contracts/contracts/dnssec-oracle/digests/SHA256Digest.sol",
  "bytecode": "0x6080604052348015600e575f80fd5b506103108061001c5f395ff3fe608060405234801561000f575f80fd5b5060043610610029575f3560e01c8063f7e83aee1461002d575b5f80fd5b61004061003b36600461020f565b610054565b604051901515815260200160405180910390f35b5f602082146100c4576040517f08c379a000000000000000000000000000000000000000000000000000000000815260206004820152601a60248201527f496e76616c6964207368613235362068617368206c656e67746800000000000060448201526064015b60405180910390fd5b6101065f84848080601f0160208091040260200160405190810160405280939291908181526020018383808284375f9201919091525092939250506101609050565b60028686604051610118929190610276565b602060405180830381855afa158015610133573d5f803e3d5ffd5b5050506040513d601f19601f820116820180604052508101906101569190610285565b1495945050505050565b5f6101758361017084602061029c565b61017e565b50016020015190565b81518111156101c65781516040517f8a3c1cfb0000000000000000000000000000000000000000000000000000000081526100bb918391600401918252602082015260400190565b5050565b5f8083601f8401126101da575f80fd5b50813567ffffffffffffffff8111156101f1575f80fd5b602083019150836020828501011115610208575f80fd5b9250929050565b5f805f8060408587031215610222575f80fd5b843567ffffffffffffffff80821115610239575f80fd5b610245888389016101ca565b9096509450602087013591508082111561025d575f80fd5b5061026a878288016101ca565b95989497509550505050565b818382375f9101908152919050565b5f60208284031215610295575f80fd5b5051919050565b808201808211156102d4577f4e487b71000000000000000000000000000000000000000000000000000000005f52601160045260245ffd5b9291505056fea2646970667358221220393d39b8241c5a60b2673437cce593ee795737d561475b282d089ddc44c2f1b664736f6c63430008190033",
  "linkReferences": {},
  "deployedLinkReferences": {},
  "immutableReferences": {},
  "inputSourceName": "project/lib/ens-contracts/contracts/dnssec-oracle/digests/SHA256Digest.sol",
  "devdoc": {
    "details": "Implements the DNSSEC SHA256 digest.",
    "errors": {
      "OffsetOutOfBoundsError(uint256,uint256)": [
        {
          "details": "`offset` was beyond `length`.       Error selector: `0x8a3c1cfb`"
        }
      ]
    },
    "kind": "dev",
    "methods": {
      "verify(bytes,bytes)": {
        "details": "Verifies a cryptographic hash.",
        "params": {
          "data": "The data to hash.",
          "hash": "The hash to compare to."
        },
        "returns": {
          "_0": "True iff the hashed data matches the provided hash value."
        }
      }
    },
    "version": 1
  },
  "evm": {
    "gasEstimates": {
      "creation": {
        "codeDepositCost": "156800",
        "executionCost": "200",
        "totalCost": "157000"
      },
      "external": {
        "verify(bytes,bytes)": "infinite"
      }
    }
  },
  "storageLayout": {
    "storage": [],
    "types": null
  },
  "userdoc": {
    "kind": "user",
    "methods": {},
    "version": 1
  },
  "argsData": "0x",
  "transaction": {
    "hash": "0xf1c434b4f269cb682bc6dddbe770902c8295b2727b73da7b2e2889781ef27e70",
    "nonce": "0x10",
    "origin": "0xf39fd6e51aad88f6f4ce6ab8827279cfffb92266"
  }
}