{
  "address": "0x4a679253410272dd5232b3ff7cf5dbb88f295319",
  "abi": [
    {
      "anonymous": false,
      "inputs": [
        {
          "indexed": true,
          "internalType": "address",
          "name": "previousOwner",
          "type": "address"
        },
        {
          "indexed": true,
          "internalType": "address",
          "name": "newOwner",
          "type": "address"
        }
      ],
      "name": "OwnershipTransferred",
      "type": "event"
    },
    {
      "anonymous": false,
      "inputs": [
        {
          "indexed": false,
          "internalType": "bytes",
          "name": "suffix",
          "type": "bytes"
        }
      ],
      "name": "SuffixAdded",
      "type": "event"
    },
    {
      "inputs": [
        {
          "internalType": "bytes[]",
          "name": "names",
          "type": "bytes[]"
        }
      ],
      "name": "addPublicSuffixes",
      "outputs": [],
      "stateMutability": "nonpayable",
      "type": "function"
    },
    {
      "inputs": [
        {
          "internalType": "address",
          "name": "addr",
          "type": "address"
        }
      ],
      "name": "isOwner",
      "outputs": [
        {
          "internalType": "bool",
          "name": "",
          "type": "bool"
        }
      ],
      "stateMutability": "view",
      "type": "function"
    },
    {
      "inputs": [
        {
          "internalType": "bytes",
          "name": "name",
          "type": "bytes"
        }
      ],
      "name": "isPublicSuffix",
      "outputs": [
        {
          "internalType": "bool",
          "name": "",
          "type": "bool"
        }
      ],
      "stateMutability": "view",
      "type": "function"
    },
    {
      "inputs": [],
      "name": "owner",
      "outputs": [
        {
          "internalType": "address",
          "name": "",
          "type": "address"
        }
      ],
      "stateMutability": "view",
      "type": "function"
    },
    {
      "inputs": [
        {
          "internalType": "address",
          "name": "newOwner",
          "type": "address"
        }
      ],
      "name": "transferOwnership",
      "outputs": [],
      "stateMutability": "nonpayable",
      "type": "function"
    }
  ],
  "contractName": "SimplePublicSuffixList",
  "sourceName": "lib/ens-contracts/contracts/dnsregistrar/SimplePublicSuffixList.sol",
  "bytecode": "0x6080604052348015600e575f80fd5b505f80546001600160a01b031916331790556105118061002d5f395ff3fe608060405234801561000f575f80fd5b5060043610610064575f3560e01c80636329cdfc1161004d5780636329cdfc146100b15780638da5cb5b146100c6578063f2fde38b146100f0575f80fd5b80632f54bf6e146100685780634f89059e1461009e575b5f80fd5b610089610076366004610281565b5f546001600160a01b0390811691161490565b60405190151581526020015b60405180910390f35b6100896100ac3660046102ae565b610103565b6100c46100bf36600461035f565b610131565b005b5f546100d8906001600160a01b031681565b6040516001600160a01b039091168152602001610095565b6100c46100fe366004610281565b6101fb565b5f6001838360405161011692919061046d565b9081526040519081900360200190205460ff16905092915050565b5f546001600160a01b03163314610146575f80fd5b5f5b81518110156101f7576001808383815181106101665761016661047c565b602002602001015160405161017b9190610490565b90815260200160405180910390205f6101000a81548160ff0219169083151502179055507f7cad7c0907646b87ae240d676052692501082856f06ba8e2589e239a77453b098282815181106101d2576101d261047c565b60200260200101516040516101e791906104a6565b60405180910390a1600101610148565b5050565b5f546001600160a01b03163314610210575f80fd5b5f80546040516001600160a01b03808516939216917f8be0079c531659141344cd1fd0a4f28419497f9722a3daafe3b4186f6b6457e091a35f80547fffffffffffffffffffffffff0000000000000000000000000000000000000000166001600160a01b0392909216919091179055565b5f60208284031215610291575f80fd5b81356001600160a01b03811681146102a7575f80fd5b9392505050565b5f80602083850312156102bf575f80fd5b823567ffffffffffffffff808211156102d6575f80fd5b818501915085601f8301126102e9575f80fd5b8135818111156102f7575f80fd5b866020828501011115610308575f80fd5b60209290920196919550909350505050565b634e487b7160e01b5f52604160045260245ffd5b604051601f8201601f1916810167ffffffffffffffff811182821017156103575761035761031a565b604052919050565b5f6020808385031215610370575f80fd5b823567ffffffffffffffff80821115610387575f80fd5b8185019150601f86601f84011261039c575f80fd5b8235828111156103ae576103ae61031a565b8060051b6103bd86820161032e565b918252848101860191868101908a8411156103d6575f80fd5b87870192505b8383101561045f578235868111156103f2575f80fd5b8701603f81018c13610402575f80fd5b888101356040888211156104185761041861031a565b610429828901601f19168c0161032e565b8281528e8284860101111561043c575f80fd5b828285018d8301375f9281018c01929092525083525091870191908701906103dc565b9a9950505050505050505050565b818382375f9101908152919050565b634e487b7160e01b5f52603260045260245ffd5b5f82518060208501845e5f920191825250919050565b602081525f82518060208401528060208501604085015e5f604082850101526040601f19601f8301168401019150509291505056fea2646970667358221220ecf5b8e909501728d48d40ce41c57e2ccab6de0c0561eae45784eb83f7bb2eba64736f6c63430008190033",
  "linkReferences": {},
  "deployedLinkReferences": {},
  "immutableReferences": {},
  "inputSourceName": "project/lib/ens-contracts/contracts/dnsregistrar/SimplePublicSuffixList.sol",
  "devdoc": {
    "kind": "dev",
    "methods": {},
    "version": 1
  },
  "evm": {
    "gasEstimates": {
      "creation": {
        "codeDepositCost": "259400",
        "executionCost": "24532",
        "totalCost": "283932"
      },
      "external": {
        "addPublicSuffixes(bytes[])": "infinite",
        "isOwner(address)": "2444",
        "isPublicSuffix(bytes)": "infinite",
        "owner()": "2357",
        "transferOwnership(address)": "30354"
      }
    }
  },
  "storageLayout": {
    "storage": [
      {
        "astId": 17711,
        "contract": "project/lib/ens-contracts/contracts/dnsregistrar/SimplePublicSuffixList.sol:SimplePublicSuffixList",
        "label": "owner",
        "offset": 0,
        "slot": "0",
        "type": "t_address"
      },
      {
        "astId": 3388,
        "contract": "project/lib/ens-contracts/contracts/dnsregistrar/SimplePublicSuffixList.sol:SimplePublicSuffixList",
        "label": "suffixes",
        "offset": 0,
        "slot": "1",
        "type": "t_mapping(t_bytes_memory_ptr,t_bool)"
      }
    ],
    "types": {
      "t_address": {
        "encoding": "inplace",
        "label": "address",
        "numberOfBytes": "20"
      },
      "t_bool": {
        "encoding": "inplace",
        "label": "bool",
        "numberOfBytes": "1"
      },
      "t_bytes_memory_ptr": {
        "encoding": "bytes",
        "label": "bytes",
        "numberOfBytes": "32"
      },
      "t_mapping(t_bytes_memory_ptr,t_bool)": {
        "encoding": "mapping",
        "key": "t_bytes_memory_ptr",
        "label": "mapping(bytes => bool)",
        "numberOfBytes": "32",
        "value": "t_bool"
      }
    }
  },
  "userdoc": {
    "kind": "user",
    "methods": {},
    "version": 1
  },
  "argsData": "0x",
  "transaction": {
    "hash": "0xf22e7f0fea1fbeed659d0d6b3d79a461dc7134019cbef704356e0152eba5e3bd",
    "nonce": "0x19",
    "origin": "0xf39fd6e51aad88f6f4ce6ab8827279cfffb92266"
  }
}