{
  "address": "0x8a791620dd6260079bf849dc5567adc3f2fdc318",
  "abi": [
    {
      "inputs": [
        {
          "internalType": "contract IHCAFactoryBasic",
          "name": "hcaFactory",
          "type": "address"
        }
      ],
      "stateMutability": "nonpayable",
      "type": "constructor"
    },
    {
      "inputs": [
        {
          "internalType": "uint256",
          "name": "resource",
          "type": "uint256"
        },
        {
          "internalType": "uint256",
          "name": "roleBitmap",
          "type": "uint256"
        },
        {
          "internalType": "address",
          "name": "account",
          "type": "address"
        }
      ],
      "name": "EACCannotGrantRoles",
      "type": "error"
    },
    {
      "inputs": [
        {
          "internalType": "uint256",
          "name": "resource",
          "type": "uint256"
        },
        {
          "internalType": "uint256",
          "name": "roleBitmap",
          "type": "uint256"
        },
        {
          "internalType": "address",
          "name": "account",
          "type": "address"
        }
      ],
      "name": "EACCannotRevokeRoles",
      "type": "error"
    },
    {
      "inputs": [],
      "name": "EACInvalidAccount",
      "type": "error"
    },
    {
      "inputs": [
        {
          "internalType": "uint256",
          "name": "roleBitmap",
          "type": "uint256"
        }
      ],
      "name": "EACInvalidRoleBitmap",
      "type": "error"
    },
    {
      "inputs": [
        {
          "internalType": "uint256",
          "name": "resource",
          "type": "uint256"
        },
        {
          "internalType": "uint256",
          "name": "role",
          "type": "uint256"
        }
      ],
      "name": "EACMaxAssignees",
      "type": "error"
    },
    {
      "inputs": [
        {
          "internalType": "uint256",
          "name": "resource",
          "type": "uint256"
        },
        {
          "internalType": "uint256",
          "name": "role",
          "type": "uint256"
        }
      ],
      "name": "EACMinAssignees",
      "type": "error"
    },
    {
      "inputs": [],
      "name": "EACRootResourceNotAllowed",
      "type": "error"
    },
    {
      "inputs": [
        {
          "internalType": "uint256",
          "name": "resource",
          "type": "uint256"
        },
        {
          "internalType": "uint256",
          "name": "roleBitmap",
          "type": "uint256"
        },
        {
          "internalType": "address",
          "name": "account",
          "type": "address"
        }
      ],
      "name": "EACUnauthorizedAccountRoles",
      "type": "error"
    },
    {
      "anonymous": false,
      "inputs": [
        {
          "indexed": true,
          "internalType": "uint256",
          "name": "resource",
          "type": "uint256"
        },
        {
          "indexed": true,
          "internalType": "address",
          "name": "account",
          "type": "address"
        },
        {
          "indexed": false,
          "internalType": "uint256",
          "name": "oldRoleBitmap",
          "type": "uint256"
        },
        {
          "indexed": false,
          "internalType": "uint256",
          "name": "newRoleBitmap",
          "type": "uint256"
        }
      ],
      "name": "EACRolesChanged",
      "type": "event"
    },
    {
      "inputs": [],
      "name": "HCA_FACTORY",
      "outputs": [
        {
          "internalType": "contract IHCAFactoryBasic",
          "name": "",
          "type": "address"
        }
      ],
      "stateMutability": "view",
      "type": "function"
    },
    {
      "inputs": [],
      "name": "ROOT_RESOURCE",
      "outputs": [
        {
          "internalType": "uint256",
          "name": "",
          "type": "uint256"
        }
      ],
      "stateMutability": "view",
      "type": "function"
    },
    {
      "inputs": [
        {
          "internalType": "uint256",
          "name": "resource",
          "type": "uint256"
        },
        {
          "internalType": "uint256",
          "name": "roleBitmap",
          "type": "uint256"
        }
      ],
      "name": "getAssigneeCount",
      "outputs": [
        {
          "internalType": "uint256",
          "name": "counts",
          "type": "uint256"
        },
        {
          "internalType": "uint256",
          "name": "mask",
          "type": "uint256"
        }
      ],
      "stateMutability": "view",
      "type": "function"
    },
    {
      "inputs": [
        {
          "internalType": "uint256",
          "name": "resource",
          "type": "uint256"
        },
        {
          "internalType": "uint256",
          "name": "roleBitmap",
          "type": "uint256"
        },
        {
          "internalType": "address",
          "name": "account",
          "type": "address"
        }
      ],
      "name": "grantRoles",
      "outputs": [
        {
          "internalType": "bool",
          "name": "",
          "type": "bool"
        }
      ],
      "stateMutability": "nonpayable",
      "type": "function"
    },
    {
      "inputs": [
        {
          "internalType": "uint256",
          "name": "roleBitmap",
          "type": "uint256"
        },
        {
          "internalType": "address",
          "name": "account",
          "type": "address"
        }
      ],
      "name": "grantRootRoles",
      "outputs": [
        {
          "internalType": "bool",
          "name": "",
          "type": "bool"
        }
      ],
      "stateMutability": "nonpayable",
      "type": "function"
    },
    {
      "inputs": [
        {
          "internalType": "uint256",
          "name": "resource",
          "type": "uint256"
        },
        {
          "internalType": "uint256",
          "name": "roleBitmap",
          "type": "uint256"
        }
      ],
      "name": "hasAssignees",
      "outputs": [
        {
          "internalType": "bool",
          "name": "",
          "type": "bool"
        }
      ],
      "stateMutability": "view",
      "type": "function"
    },
    {
      "inputs": [
        {
          "internalType": "uint256",
          "name": "resource",
          "type": "uint256"
        },
        {
          "internalType": "uint256",
          "name": "rolesBitmap",
          "type": "uint256"
        },
        {
          "internalType": "address",
          "name": "account",
          "type": "address"
        }
      ],
      "name": "hasRoles",
      "outputs": [
        {
          "internalType": "bool",
          "name": "",
          "type": "bool"
        }
      ],
      "stateMutability": "view",
      "type": "function"
    },
    {
      "inputs": [
        {
          "internalType": "uint256",
          "name": "rolesBitmap",
          "type": "uint256"
        },
        {
          "internalType": "address",
          "name": "account",
          "type": "address"
        }
      ],
      "name": "hasRootRoles",
      "outputs": [
        {
          "internalType": "bool",
          "name": "",
          "type": "bool"
        }
      ],
      "stateMutability": "view",
      "type": "function"
    },
    {
      "inputs": [
        {
          "internalType": "uint256",
          "name": "resource",
          "type": "uint256"
        },
        {
          "internalType": "uint256",
          "name": "roleBitmap",
          "type": "uint256"
        },
        {
          "internalType": "address",
          "name": "account",
          "type": "address"
        }
      ],
      "name": "revokeRoles",
      "outputs": [
        {
          "internalType": "bool",
          "name": "",
          "type": "bool"
        }
      ],
      "stateMutability": "nonpayable",
      "type": "function"
    },
    {
      "inputs": [
        {
          "internalType": "uint256",
          "name": "roleBitmap",
          "type": "uint256"
        },
        {
          "internalType": "address",
          "name": "account",
          "type": "address"
        }
      ],
      "name": "revokeRootRoles",
      "outputs": [
        {
          "internalType": "bool",
          "name": "",
          "type": "bool"
        }
      ],
      "stateMutability": "nonpayable",
      "type": "function"
    },
    {
      "inputs": [
        {
          "internalType": "uint256",
          "name": "resource",
          "type": "uint256"
        }
      ],
      "name": "roleCount",
      "outputs": [
        {
          "internalType": "uint256",
          "name": "",
          "type": "uint256"
        }
      ],
      "stateMutability": "view",
      "type": "function"
    },
    {
      "inputs": [
        {
          "internalType": "uint256",
          "name": "resource",
          "type": "uint256"
        },
        {
          "internalType": "address",
          "name": "account",
          "type": "address"
        }
      ],
      "name": "roles",
      "outputs": [
        {
          "internalType": "uint256",
          "name": "",
          "type": "uint256"
        }
      ],
      "stateMutability": "view",
      "type": "function"
    },
    {
      "inputs": [
        {
          "internalType": "uint256",
          "name": "tokenId",
          "type": "uint256"
        },
        {
          "internalType": "string",
          "name": "uri",
          "type": "string"
        }
      ],
      "name": "setTokenUri",
      "outputs": [],
      "stateMutability": "nonpayable",
      "type": "function"
    },
    {
      "inputs": [
        {
          "internalType": "bytes4",
          "name": "interfaceId",
          "type": "bytes4"
        }
      ],
      "name": "supportsInterface",
      "outputs": [
        {
          "internalType": "bool",
          "name": "",
          "type": "bool"
        }
      ],
      "stateMutability": "view",
      "type": "function"
    },
    {
      "inputs": [
        {
          "internalType": "uint256",
          "name": "tokenId",
          "type": "uint256"
        }
      ],
      "name": "tokenUri",
      "outputs": [
        {
          "internalType": "string",
          "name": "",
          "type": "string"
        }
      ],
      "stateMutability": "view",
      "type": "function"
    }
  ],
  "contractName": "SimpleRegistryMetadata",
  "sourceName": "src/registry/SimpleRegistryMetadata.sol",
  "bytecode": "0x60a060405234801561000f575f80fd5b5060405161148838038061148883398101604081905261002e916103b8565b6001600160a01b03811660805261006f5f7f1111111111111111111111111111111111111111111111111111111111111111610068610076565b6001610084565b505061041a565b5f61007f610171565b905090565b5f61008e8461020e565b6001600160a01b0383166100b55760405163761fe2c960e11b815260040160405180910390fd5b5f858152602081815260408083206001600160a01b0387168452909152902054848117808214610163575f878152602081815260408083206001600160a01b03891684529091529020819055811986166101118882600161025a565b60408051848152602081018490526001600160a01b038816918a917f0d35bf721a39b614de00ca5038e1deb0cb0c69a278645e83405a7226cf80ba3c910160405180910390a360019350505050610169565b5f925050505b949350505050565b6080515f906001600160a01b031661018857503390565b60805160405163110ac5cb60e21b81523360048201525f916001600160a01b03169063442b172c90602401602060405180830381865afa1580156101ce573d5f803e3d5ffd5b505050506040513d601f19601f820116820180604052508101906101f291906103b8565b90506001600160a01b038116610209573391505090565b919050565b7feeeeeeeeeeeeeeeeeeeeeeeeeeeeeeeeeeeeeeeeeeeeeeeeeeeeeeeeeeeeeeee81161561025757604051630153d96960e51b8152600481018290526024015b60405180910390fd5b50565b5f6102648361038a565b905081156102fa575f848152600160205260409020546102aa9082161980195f8051602061146883398151915291909101165f8051602061144883398151915216151590565b156102d257604051631f22ca6960e31b8152600481018590526024810184905260440161024e565b5f84815260016020526040812080548592906102ef9084906103ee565b909155506103849050565b5f84815260016020526040902054610339901982161980195f8051602061146883398151915291909101165f8051602061144883398151915216151590565b1561036157604051631f80c19b60e01b8152600481018590526024810184905260440161024e565b5f848152600160205260408120805485929061037e908490610407565b90915550505b50505050565b5f6103948261020e565b50600181901b17600281901b1790565b6001600160a01b0381168114610257575f80fd5b5f602082840312156103c8575f80fd5b81516103d3816103a4565b9392505050565b634e487b7160e01b5f52601160045260245ffd5b80820180821115610401576104016103da565b92915050565b81810381811115610401576104016103da565b6080516110086104405f395f818161019b015281816109c20152610a2301526110085ff3fe608060405234801561000f575f80fd5b50600436106100f0575f3560e01c80633634f911116100935780637c300586116100635780637c3005861461028f578063ce156e82146102a2578063d3bf89b1146102b5578063dfa70d8b14610316575f80fd5b80633634f911146101d557806357f7789e146101fd5780635adf472414610212578063781ef8db14610245575f80fd5b80631675f455116100ce5780631675f455146101425780631c3fc3eb146101625780632f27fa2414610177578063319c22bb14610196575f80fd5b806301ffc9a7146100f4578063072d5d771461011c57806311b8e00a1461012f575b5f80fd5b610107610102366004610cac565b610329565b60405190151581526020015b60405180910390f35b61010761012a366004610cee565b61036c565b61010761013d366004610d1c565b610397565b610155610150366004610d3c565b6103ae565b6040516101139190610d53565b6101695f81565b604051908152602001610113565b610169610185366004610d3c565b5f9081526001602052604090205490565b6101bd7f000000000000000000000000000000000000000000000000000000000000000081565b6040516001600160a01b039091168152602001610113565b6101e86101e3366004610d1c565b61044d565b60408051928352602083019190915201610113565b61021061020b366004610d88565b610470565b005b610169610220366004610cee565b5f918252602082815260408084206001600160a01b0393909316845291905290205490565b610107610253366004610cee565b6001600160a01b03165f9081527fad3228b676f7d3cd4284a5443f17f1962b36e491b30a40b2405849e597ba5fb5602052604090205481161490565b61010761029d366004610dfd565b6104a5565b6101076102b0366004610cee565b6104ea565b6101076102c3366004610dfd565b5f928352602083815260408085206001600160a01b03939093168552918152818420547fad3228b676f7d3cd4284a5443f17f1962b36e491b30a40b2405849e597ba5fb590915292205490911781161490565b610107610324366004610dfd565b61050c565b5f6001600160e01b031982167f1675f455000000000000000000000000000000000000000000000000000000001480610366575061036682610547565b92915050565b5f8083610381828261037c6105ad565b6105bb565b61038e5f868660016106ae565b95945050505050565b5f806103a3848461044d565b501515949350505050565b5f8181526002602052604090208054606091906103ca90610e33565b80601f01602080910402602001604051908101604052809291908181526020018280546103f690610e33565b80156104415780601f1061041857610100808354040283529160200191610441565b820191905f5260205f20905b81548152906001019060200180831161042457829003601f168201915b50505050509050919050565b5f80610458836107b4565b5f948552600160205260409094205484169492505050565b5f600161048582826104806105ad565b6107ce565b5f85815260026020526040902061049d848683610ec3565b505050505050565b5f83836104b5828261037c6105ad565b856104d357604051631850848b60e31b815260040160405180910390fd5b6104e086868660016106ae565b9695505050505050565b5f80836104ff82826104fa6105ad565b61086f565b61038e5f86866001610957565b5f838361051c82826104fa6105ad565b8561053a57604051631850848b60e31b815260040160405180910390fd5b6104e08686866001610957565b5f6001600160e01b031982167f8f452d6200000000000000000000000000000000000000000000000000000000148061036657507f01ffc9a7000000000000000000000000000000000000000000000000000000006001600160e01b0319831614610366565b5f6105b66109bf565b905090565b5f61064d84836001600160a01b03165f8181527fad3228b676f7d3cd4284a5443f17f1962b36e491b30a40b2405849e597ba5fb5602090815260408083205494835282825280832093835292905220547f1111111111111111111111111111111100000000000000000000000000000000911790811660809190911c6f11111111111111111111111111111111161790565b905080198316156106a8576040517fd1a3b35500000000000000000000000000000000000000000000000000000000815260048101859052602481018490526001600160a01b03831660448201526064015b60405180910390fd5b50505050565b5f6106b884610ab0565b6001600160a01b0383166106f8576040517fec3fc59200000000000000000000000000000000000000000000000000000000815260040160405180910390fd5b5f858152602081815260408083206001600160a01b03871684529091529020548481178082146107a6575f878152602081815260408083206001600160a01b038916845290915290208190558119861661075488826001610b10565b60408051848152602081018490526001600160a01b038816918a917f0d35bf721a39b614de00ca5038e1deb0cb0c69a278645e83405a7226cf80ba3c910160405180910390a3600193505050506107ac565b5f925050505b949350505050565b5f6107be82610ab0565b50600181901b17600281901b1790565b5f838152602081815260408083206001600160a01b03851684528252808320547fad3228b676f7d3cd4284a5443f17f1962b36e491b30a40b2405849e597ba5fb590925290912054178216821461086a576040517f4b27a13300000000000000000000000000000000000000000000000000000000815260048101849052602481018390526001600160a01b038216604482015260640161069f565b505050565b5f61090184836001600160a01b03165f8181527fad3228b676f7d3cd4284a5443f17f1962b36e491b30a40b2405849e597ba5fb5602090815260408083205494835282825280832093835292905220547f1111111111111111111111111111111100000000000000000000000000000000911790811660809190911c6f11111111111111111111111111111111161790565b905080198316156106a8576040517fa604e31800000000000000000000000000000000000000000000000000000000815260048101859052602481018490526001600160a01b038316604482015260640161069f565b5f61096184610ab0565b5f858152602081815260408083206001600160a01b0387168452909152902054841981168082146107a6575f878152602081815260408083206001600160a01b03891684529091528120829055868316906107549089908390610b10565b5f7f00000000000000000000000000000000000000000000000000000000000000006001600160a01b03166109f357503390565b6040517f442b172c0000000000000000000000000000000000000000000000000000000081523360048201525f907f00000000000000000000000000000000000000000000000000000000000000006001600160a01b03169063442b172c90602401602060405180830381865afa158015610a70573d5f803e3d5ffd5b505050506040513d601f19601f82011682018060405250810190610a949190610f7d565b90506001600160a01b038116610aab573391505090565b919050565b7feeeeeeeeeeeeeeeeeeeeeeeeeeeeeeeeeeeeeeeeeeeeeeeeeeeeeeeeeeeeeeee811615610b0d576040517f2a7b2d200000000000000000000000000000000000000000000000000000000081526004810182905260240161069f565b50565b5f610b1a836107b4565b90508115610be3575f848152600160205260409020547f888888888888888888888888888888888888888888888888888888888888888890821680197feeeeeeeeeeeeeeeeeeeeeeeeeeeeeeeeeeeeeeeeeeeeeeeeeeeeeeeeeeeeeeef01161615610bbb576040517ff9165348000000000000000000000000000000000000000000000000000000008152600481018590526024810184905260440161069f565b5f8481526001602052604081208054859290610bd8908490610fac565b909155506106a89050565b5f848152600160205260409020547f88888888888888888888888888888888888888888888888888888888888888889019821680197feeeeeeeeeeeeeeeeeeeeeeeeeeeeeeeeeeeeeeeeeeeeeeeeeeeeeeeeeeeeeeef01161615610c7d576040517f1f80c19b000000000000000000000000000000000000000000000000000000008152600481018590526024810184905260440161069f565b5f8481526001602052604081208054859290610c9a908490610fbf565b909155505050505050565b5050505050565b5f60208284031215610cbc575f80fd5b81356001600160e01b031981168114610cd3575f80fd5b9392505050565b6001600160a01b0381168114610b0d575f80fd5b5f8060408385031215610cff575f80fd5b823591506020830135610d1181610cda565b809150509250929050565b5f8060408385031215610d2d575f80fd5b50508035926020909101359150565b5f60208284031215610d4c575f80fd5b5035919050565b602081525f82518060208401528060208501604085015e5f604082850101526040601f19601f83011684010191505092915050565b5f805f60408486031215610d9a575f80fd5b83359250602084013567ffffffffffffffff80821115610db8575f80fd5b818601915086601f830112610dcb575f80fd5b813581811115610dd9575f80fd5b876020828501011115610dea575f80fd5b6020830194508093505050509250925092565b5f805f60608486031215610e0f575f80fd5b83359250602084013591506040840135610e2881610cda565b809150509250925092565b600181811c90821680610e4757607f821691505b602082108103610e6557634e487b7160e01b5f52602260045260245ffd5b50919050565b634e487b7160e01b5f52604160045260245ffd5b601f82111561086a57805f5260205f20601f840160051c81016020851015610ea45750805b601f840160051c820191505b81811015610ca5575f8155600101610eb0565b67ffffffffffffffff831115610edb57610edb610e6b565b610eef83610ee98354610e33565b83610e7f565b5f601f841160018114610f20575f8515610f095750838201355b5f19600387901b1c1916600186901b178355610ca5565b5f83815260208120601f198716915b82811015610f4f5786850135825560209485019460019092019101610f2f565b5086821015610f6b575f1960f88860031b161c19848701351681555b505060018560011b0183555050505050565b5f60208284031215610f8d575f80fd5b8151610cd381610cda565b634e487b7160e01b5f52601160045260245ffd5b8082018082111561036657610366610f98565b8181038181111561036657610366610f9856fea2646970667358221220eef08c3b4ec37dcb7ca25faf2e652bbec6ed78919fa90df6ffa8ddeb7751f70064736f6c634300081900338888888888888888888888888888888888888888888888888888888888888888eeeeeeeeeeeeeeeeeeeeeeeeeeeeeeeeeeeeeeeeeeeeeeeeeeeeeeeeeeeeeeef",
  "linkReferences": {},
  "deployedLinkReferences": {},
  "immutableReferences": {
    "33443": [
      {
        "length": 32,
        "start": 411
      },
      {
        "length": 32,
        "start": 2498
      },
      {
        "length": 32,
        "start": 2595
      }
    ]
  },
  "inputSourceName": "project/src/registry/SimpleRegistryMetadata.sol",
  "devdoc": {
    "kind": "dev",
    "methods": {
      "getAssigneeCount(uint256,uint256)": {
        "details": "Get the no. of assignees for the roles in the given role bitmap.",
        "params": {
          "resource": "The resource to check.",
          "roleBitmap": "The roles bitmap to check."
        },
        "returns": {
          "counts": "The no. of assignees for each of the roles in the given role bitmap, expressed as a packed array of 4-bit ints.",
          "mask": "The mask for the given role bitmap."
        }
      },
      "grantRoles(uint256,uint256,address)": {
        "details": "Grants all roles in the given role bitmap to `account`. The caller must have all the necessary admin roles for the roles being granted. Cannot be used with ROOT_RESOURCE directly, use grantRootRoles instead.",
        "params": {
          "account": "The account to grant roles to.",
          "resource": "The resource to grant roles within.",
          "roleBitmap": "The roles bitmap to grant."
        },
        "returns": {
          "_0": "`true` if the roles were granted, `false` otherwise."
        }
      },
      "grantRootRoles(uint256,address)": {
        "details": "Grants all roles in the given role bitmap to `account` in the ROOT_RESOURCE. The caller must have all the necessary admin roles for the roles being granted.",
        "params": {
          "account": "The account to grant roles to.",
          "roleBitmap": "The roles bitmap to grant."
        },
        "returns": {
          "_0": "`true` if the roles were granted, `false` otherwise."
        }
      },
      "hasAssignees(uint256,uint256)": {
        "details": "Get if any of the roles in the given role bitmap has assignees.",
        "params": {
          "resource": "The resource to check.",
          "roleBitmap": "The roles bitmap to check."
        },
        "returns": {
          "_0": "`true` if any of the roles in the given role bitmap has assignees, `false` otherwise."
        }
      },
      "hasRoles(uint256,uint256,address)": {
        "details": "Returns `true` if `account` has been granted all the given roles in `resource`.",
        "params": {
          "account": "The account to check.",
          "resource": "The resource to check.",
          "rolesBitmap": "The roles bitmap to check."
        },
        "returns": {
          "_0": "`true` if `account` has been granted all the given roles in either `resource` or the `ROOT_RESOURCE`, `false` otherwise."
        }
      },
      "hasRootRoles(uint256,address)": {
        "details": "Returns `true` if `account` has been granted all the given roles in the `ROOT_RESOURCE`.",
        "params": {
          "account": "The account to check.",
          "rolesBitmap": "The roles bitmap to check."
        },
        "returns": {
          "_0": "`true` if `account` has been granted all the given roles in the `ROOT_RESOURCE`, `false` otherwise."
        }
      },
      "revokeRoles(uint256,uint256,address)": {
        "details": "Revokes all roles in the given role bitmap from `account`. The caller must have all the necessary admin roles for the roles being revoked. Cannot be used with ROOT_RESOURCE directly, use revokeRootRoles instead.",
        "params": {
          "account": "The account to revoke roles from.",
          "resource": "The resource to revoke roles within.",
          "roleBitmap": "The roles bitmap to revoke."
        },
        "returns": {
          "_0": "`true` if the roles were revoked, `false` otherwise."
        }
      },
      "revokeRootRoles(uint256,address)": {
        "details": "Revokes all roles in the given role bitmap from `account` in the ROOT_RESOURCE. The caller must have all the necessary admin roles for the roles being revoked.",
        "params": {
          "account": "The account to revoke roles from.",
          "roleBitmap": "The roles bitmap to revoke."
        },
        "returns": {
          "_0": "`true` if the roles were revoked, `false` otherwise."
        }
      },
      "supportsInterface(bytes4)": {
        "details": "Returns true if this contract implements the interface defined by `interfaceId`. See the corresponding https://eips.ethereum.org/EIPS/eip-165#how-interfaces-are-identified[ERC section] to learn more about how these ids are created. This function call must use less than 30 000 gas."
      },
      "tokenUri(uint256)": {
        "details": "Fetches the token URI for a token ID.",
        "params": {
          "tokenId": "The ID of the token to fetch a URI for."
        },
        "returns": {
          "_0": "The token URI for the token."
        }
      }
    },
    "version": 1
  },
  "evm": {
    "gasEstimates": {
      "creation": {
        "codeDepositCost": "820800",
        "executionCost": "infinite",
        "totalCost": "infinite"
      },
      "external": {
        "HCA_FACTORY()": "infinite",
        "ROOT_RESOURCE()": "238",
        "getAssigneeCount(uint256,uint256)": "2659",
        "grantRoles(uint256,uint256,address)": "infinite",
        "grantRootRoles(uint256,address)": "infinite",
        "hasAssignees(uint256,uint256)": "2732",
        "hasRoles(uint256,uint256,address)": "4892",
        "hasRootRoles(uint256,address)": "2652",
        "revokeRoles(uint256,uint256,address)": "infinite",
        "revokeRootRoles(uint256,address)": "infinite",
        "roleCount(uint256)": "2502",
        "roles(uint256,address)": "2701",
        "setTokenUri(uint256,string)": "infinite",
        "supportsInterface(bytes4)": "infinite",
        "tokenUri(uint256)": "infinite"
      }
    }
  },
  "storageLayout": {
    "storage": [
      {
        "astId": 29122,
        "contract": "project/src/registry/SimpleRegistryMetadata.sol:SimpleRegistryMetadata",
        "label": "_roles",
        "offset": 0,
        "slot": "0",
        "type": "t_mapping(t_uint256,t_mapping(t_address,t_uint256))"
      },
      {
        "astId": 29127,
        "contract": "project/src/registry/SimpleRegistryMetadata.sol:SimpleRegistryMetadata",
        "label": "_roleCount",
        "offset": 0,
        "slot": "1",
        "type": "t_mapping(t_uint256,t_uint256)"
      },
      {
        "astId": 37094,
        "contract": "project/src/registry/SimpleRegistryMetadata.sol:SimpleRegistryMetadata",
        "label": "_tokenUris",
        "offset": 0,
        "slot": "2",
        "type": "t_mapping(t_uint256,t_string_storage)"
      }
    ],
    "types": {
      "t_address": {
        "encoding": "inplace",
        "label": "address",
        "numberOfBytes": "20"
      },
      "t_mapping(t_address,t_uint256)": {
        "encoding": "mapping",
        "key": "t_address",
        "label": "mapping(address => uint256)",
        "numberOfBytes": "32",
        "value": "t_uint256"
      },
      "t_mapping(t_uint256,t_mapping(t_address,t_uint256))": {
        "encoding": "mapping",
        "key": "t_uint256",
        "label": "mapping(uint256 => mapping(address => uint256))",
        "numberOfBytes": "32",
        "value": "t_mapping(t_address,t_uint256)"
      },
      "t_mapping(t_uint256,t_string_storage)": {
        "encoding": "mapping",
        "key": "t_uint256",
        "label": "mapping(uint256 => string)",
        "numberOfBytes": "32",
        "value": "t_string_storage"
      },
      "t_mapping(t_uint256,t_uint256)": {
        "encoding": "mapping",
        "key": "t_uint256",
        "label": "mapping(uint256 => uint256)",
        "numberOfBytes": "32",
        "value": "t_uint256"
      },
      "t_string_storage": {
        "encoding": "bytes",
        "label": "string",
        "numberOfBytes": "32"
      },
      "t_uint256": {
        "encoding": "inplace",
        "label": "uint256",
        "numberOfBytes": "32"
      }
    }
  },
  "userdoc": {
    "kind": "user",
    "methods": {
      "HCA_FACTORY()": {
        "notice": "The HCA factory contract"
      },
      "ROOT_RESOURCE()": {
        "notice": "The `ROOT_RESOURCE`."
      },
      "roleCount(uint256)": {
        "notice": "Returns the role count bitmap for a resource."
      },
      "roles(uint256,address)": {
        "notice": "Returns the roles bitmap for an account in a resource."
      }
    },
    "version": 1
  },
  "argsData": "0x0000000000000000000000002279b7a0a67db372996a5fab50d91eaa73d2ebe6",
  "transaction": {
    "hash": "0xf38a2ccc1bc8c58762054ecdeb66a407b2d769be94be99477683afd5b34ee708",
    "nonce": "0x9",
    "origin": "0xf39fd6e51aad88f6f4ce6ab8827279cfffb92266"
  }
}