{
  "address": "0x36c02da8a0983159322a80ffe9f24b1acff8b570",
  "abi": [
    {
      "inputs": [
        {
          "internalType": "string",
          "name": "_metaDataUri",
          "type": "string"
        }
      ],
      "stateMutability": "nonpayable",
      "type": "constructor"
    },
    {
      "inputs": [
        {
          "internalType": "uint256",
          "name": "",
          "type": "uint256"
        }
      ],
      "name": "uri",
      "outputs": [
        {
          "internalType": "string",
          "name": "",
          "type": "string"
        }
      ],
      "stateMutability": "view",
      "type": "function"
    }
  ],
  "contractName": "StaticMetadataService",
  "sourceName": "lib/ens-contracts/contracts/wrapper/StaticMetadataService.sol",
  "bytecode": "0x608060405234801561000f575f80fd5b5060405161040838038061040883398101604081905261002e91610054565b5f6100398282610182565b5050610241565b634e487b7160e01b5f52604160045260245ffd5b5f60208284031215610064575f80fd5b81516001600160401b038082111561007a575f80fd5b818401915084601f83011261008d575f80fd5b81518181111561009f5761009f610040565b604051601f8201601f19908116603f011681019083821181831017156100c7576100c7610040565b816040528281528760208487010111156100df575f80fd5b8260208601602083015e5f928101602001929092525095945050505050565b600181811c9082168061011257607f821691505b60208210810361013057634e487b7160e01b5f52602260045260245ffd5b50919050565b601f82111561017d57805f5260205f20601f840160051c8101602085101561015b5750805b601f840160051c820191505b8181101561017a575f8155600101610167565b50505b505050565b81516001600160401b0381111561019b5761019b610040565b6101af816101a984546100fe565b84610136565b602080601f8311600181146101e2575f84156101cb5750858301515b5f19600386901b1c1916600185901b178555610239565b5f85815260208120601f198616915b82811015610210578886015182559484019460019091019084016101f1565b508582101561022d57878501515f19600388901b60f8161c191681555b505060018460011b0185555b505050505050565b6101ba8061024e5f395ff3fe608060405234801561000f575f80fd5b5060043610610029575f3560e01c80630e89341c1461002d575b5f80fd5b61004061003b3660046100e7565b610056565b60405161004d91906100fe565b60405180910390f35b60605f805461006490610133565b80601f016020809104026020016040519081016040528092919081815260200182805461009090610133565b80156100db5780601f106100b2576101008083540402835291602001916100db565b820191905f5260205f20905b8154815290600101906020018083116100be57829003601f168201915b50505050509050919050565b5f602082840312156100f7575f80fd5b5035919050565b602081525f82518060208401528060208501604085015e5f604082850101526040601f19601f83011684010191505092915050565b600181811c9082168061014757607f821691505b60208210810361017e577f4e487b71000000000000000000000000000000000000000000000000000000005f52602260045260245ffd5b5091905056fea264697066735822122026fb13a914e38194981ba885f45d6dcf5c66ea1ba379c33ec8a1d819e8cf903364736f6c63430008190033",
  "linkReferences": {},
  "deployedLinkReferences": {},
  "immutableReferences": {},
  "inputSourceName": "project/lib/ens-contracts/contracts/wrapper/StaticMetadataService.sol",
  "devdoc": {
    "kind": "dev",
    "methods": {},
    "version": 1
  },
  "evm": {
    "gasEstimates": {
      "creation": {
        "codeDepositCost": "88400",
        "executionCost": "infinite",
        "totalCost": "infinite"
      },
      "external": {
        "uri(uint256)": "infinite"
      }
    }
  },
  "storageLayout": {
    "storage": [
      {
        "astId": 31116,
        "contract": "project/lib/ens-contracts/contracts/wrapper/StaticMetadataService.sol:StaticMetadataService",
        "label": "_uri",
        "offset": 0,
        "slot": "0",
        "type": "t_string_storage"
      }
    ],
    "types": {
      "t_string_storage": {
        "encoding": "bytes",
        "label": "string",
        "numberOfBytes": "32"
      }
    }
  },
  "userdoc": {
    "kind": "user",
    "methods": {},
    "version": 1
  },
  "argsData": "0x0000000000000000000000000000000000000000000000000000000000000020000000000000000000000000000000000000000000000000000000000000002c656e732d6d657461646174612d736572766963652e61707073706f742e636f6d2f6e616d652f30787b69647d0000000000000000000000000000000000000000",
  "transaction": {
    "hash": "0x96d1a9ee1db56fa928329fadec7aa0fbf579d44405f2d868aebebd6239915d43",
    "nonce": "0x2f",
    "origin": "0xf39fd6e51aad88f6f4ce6ab8827279cfffb92266"
  }
}