{
  "address": "0xb0d4afd8879ed9f52b28595d31b441d079b2ca07",
  "abi": [
    {
      "inputs": [
        {
          "internalType": "contract IRegistry",
          "name": "root",
          "type": "address"
        },
        {
          "internalType": "contract IGatewayProvider",
          "name": "batchGatewayProvider",
          "type": "address"
        }
      ],
      "stateMutability": "nonpayable",
      "type": "constructor"
    },
    {
      "inputs": [
        {
          "internalType": "bytes",
          "name": "dns",
          "type": "bytes"
        }
      ],
      "name": "DNSDecodingFailed",
      "type": "error"
    },
    {
      "inputs": [
        {
          "internalType": "string",
          "name": "ens",
          "type": "string"
        }
      ],
      "name": "DNSEncodingFailed",
      "type": "error"
    },
    {
      "inputs": [],
      "name": "EmptyAddress",
      "type": "error"
    },
    {
      "inputs": [
        {
          "internalType": "uint16",
          "name": "status",
          "type": "uint16"
        },
        {
          "internalType": "string",
          "name": "message",
          "type": "string"
        }
      ],
      "name": "HttpError",
      "type": "error"
    },
    {
      "inputs": [],
      "name": "InvalidBatchGatewayResponse",
      "type": "error"
    },
    {
      "inputs": [
        {
          "internalType": "address",
          "name": "sender",
          "type": "address"
        },
        {
          "internalType": "string[]",
          "name": "urls",
          "type": "string[]"
        },
        {
          "internalType": "bytes",
          "name": "callData",
          "type": "bytes"
        },
        {
          "internalType": "bytes4",
          "name": "callbackFunction",
          "type": "bytes4"
        },
        {
          "internalType": "bytes",
          "name": "extraData",
          "type": "bytes"
        }
      ],
      "name": "OffchainLookup",
      "type": "error"
    },
    {
      "inputs": [
        {
          "internalType": "uint256",
          "name": "offset",
          "type": "uint256"
        },
        {
          "internalType": "uint256",
          "name": "length",
          "type": "uint256"
        }
      ],
      "name": "OffsetOutOfBoundsError",
      "type": "error"
    },
    {
      "inputs": [
        {
          "internalType": "bytes",
          "name": "errorData",
          "type": "bytes"
        }
      ],
      "name": "ResolverError",
      "type": "error"
    },
    {
      "inputs": [
        {
          "internalType": "bytes",
          "name": "name",
          "type": "bytes"
        },
        {
          "internalType": "address",
          "name": "resolver",
          "type": "address"
        }
      ],
      "name": "ResolverNotContract",
      "type": "error"
    },
    {
      "inputs": [
        {
          "internalType": "bytes",
          "name": "name",
          "type": "bytes"
        }
      ],
      "name": "ResolverNotFound",
      "type": "error"
    },
    {
      "inputs": [
        {
          "internalType": "string",
          "name": "primary",
          "type": "string"
        },
        {
          "internalType": "bytes",
          "name": "primaryAddress",
          "type": "bytes"
        }
      ],
      "name": "ReverseAddressMismatch",
      "type": "error"
    },
    {
      "inputs": [
        {
          "internalType": "bytes4",
          "name": "selector",
          "type": "bytes4"
        }
      ],
      "name": "UnsupportedResolverProfile",
      "type": "error"
    },
    {
      "inputs": [],
      "name": "ROOT_REGISTRY",
      "outputs": [
        {
          "internalType": "contract IRegistry",
          "name": "",
          "type": "address"
        }
      ],
      "stateMutability": "view",
      "type": "function"
    },
    {
      "inputs": [],
      "name": "batchGatewayProvider",
      "outputs": [
        {
          "internalType": "contract IGatewayProvider",
          "name": "",
          "type": "address"
        }
      ],
      "stateMutability": "view",
      "type": "function"
    },
    {
      "inputs": [
        {
          "components": [
            {
              "components": [
                {
                  "internalType": "address",
                  "name": "target",
                  "type": "address"
                },
                {
                  "internalType": "bytes",
                  "name": "call",
                  "type": "bytes"
                },
                {
                  "internalType": "bytes",
                  "name": "data",
                  "type": "bytes"
                },
                {
                  "internalType": "uint256",
                  "name": "flags",
                  "type": "uint256"
                }
              ],
              "internalType": "struct CCIPBatcher.Lookup[]",
              "name": "lookups",
              "type": "tuple[]"
            },
            {
              "internalType": "string[]",
              "name": "gateways",
              "type": "string[]"
            }
          ],
          "internalType": "struct CCIPBatcher.Batch",
          "name": "batch",
          "type": "tuple"
        }
      ],
      "name": "ccipBatch",
      "outputs": [
        {
          "components": [
            {
              "components": [
                {
                  "internalType": "address",
                  "name": "target",
                  "type": "address"
                },
                {
                  "internalType": "bytes",
                  "name": "call",
                  "type": "bytes"
                },
                {
                  "internalType": "bytes",
                  "name": "data",
                  "type": "bytes"
                },
                {
                  "internalType": "uint256",
                  "name": "flags",
                  "type": "uint256"
                }
              ],
              "internalType": "struct CCIPBatcher.Lookup[]",
              "name": "lookups",
              "type": "tuple[]"
            },
            {
              "internalType": "string[]",
              "name": "gateways",
              "type": "string[]"
            }
          ],
          "internalType": "struct CCIPBatcher.Batch",
          "name": "",
          "type": "tuple"
        }
      ],
      "stateMutability": "view",
      "type": "function"
    },
    {
      "inputs": [
        {
          "internalType": "bytes",
          "name": "response",
          "type": "bytes"
        },
        {
          "internalType": "bytes",
          "name": "extraData",
          "type": "bytes"
        }
      ],
      "name": "ccipBatchCallback",
      "outputs": [
        {
          "components": [
            {
              "components": [
                {
                  "internalType": "address",
                  "name": "target",
                  "type": "address"
                },
                {
                  "internalType": "bytes",
                  "name": "call",
                  "type": "bytes"
                },
                {
                  "internalType": "bytes",
                  "name": "data",
                  "type": "bytes"
                },
                {
                  "internalType": "uint256",
                  "name": "flags",
                  "type": "uint256"
                }
              ],
              "internalType": "struct CCIPBatcher.Lookup[]",
              "name": "lookups",
              "type": "tuple[]"
            },
            {
              "internalType": "string[]",
              "name": "gateways",
              "type": "string[]"
            }
          ],
          "internalType": "struct CCIPBatcher.Batch",
          "name": "batch",
          "type": "tuple"
        }
      ],
      "stateMutability": "view",
      "type": "function"
    },
    {
      "inputs": [
        {
          "internalType": "bytes",
          "name": "response",
          "type": "bytes"
        },
        {
          "internalType": "bytes",
          "name": "extraData",
          "type": "bytes"
        }
      ],
      "name": "ccipReadCallback",
      "outputs": [],
      "stateMutability": "view",
      "type": "function"
    },
    {
      "inputs": [
        {
          "internalType": "bytes",
          "name": "name",
          "type": "bytes"
        }
      ],
      "name": "findRegistries",
      "outputs": [
        {
          "internalType": "contract IRegistry[]",
          "name": "",
          "type": "address[]"
        }
      ],
      "stateMutability": "view",
      "type": "function"
    },
    {
      "inputs": [
        {
          "internalType": "bytes",
          "name": "name",
          "type": "bytes"
        }
      ],
      "name": "findResolver",
      "outputs": [
        {
          "internalType": "address",
          "name": "resolver",
          "type": "address"
        },
        {
          "internalType": "bytes32",
          "name": "node",
          "type": "bytes32"
        },
        {
          "internalType": "uint256",
          "name": "offset",
          "type": "uint256"
        }
      ],
      "stateMutability": "view",
      "type": "function"
    },
    {
      "inputs": [
        {
          "internalType": "bytes",
          "name": "name",
          "type": "bytes"
        }
      ],
      "name": "requireResolver",
      "outputs": [
        {
          "components": [
            {
              "internalType": "bytes",
              "name": "name",
              "type": "bytes"
            },
            {
              "internalType": "uint256",
              "name": "offset",
              "type": "uint256"
            },
            {
              "internalType": "bytes32",
              "name": "node",
              "type": "bytes32"
            },
            {
              "internalType": "address",
              "name": "resolver",
              "type": "address"
            },
            {
              "internalType": "bool",
              "name": "extended",
              "type": "bool"
            }
          ],
          "internalType": "struct AbstractUniversalResolver.ResolverInfo",
          "name": "info",
          "type": "tuple"
        }
      ],
      "stateMutability": "view",
      "type": "function"
    },
    {
      "inputs": [
        {
          "internalType": "bytes",
          "name": "name",
          "type": "bytes"
        },
        {
          "internalType": "bytes",
          "name": "data",
          "type": "bytes"
        }
      ],
      "name": "resolve",
      "outputs": [
        {
          "internalType": "bytes",
          "name": "",
          "type": "bytes"
        },
        {
          "internalType": "address",
          "name": "",
          "type": "address"
        }
      ],
      "stateMutability": "view",
      "type": "function"
    },
    {
      "inputs": [
        {
          "internalType": "bytes",
          "name": "response",
          "type": "bytes"
        },
        {
          "internalType": "bytes",
          "name": "extraData",
          "type": "bytes"
        }
      ],
      "name": "resolveBatchCallback",
      "outputs": [],
      "stateMutability": "view",
      "type": "function"
    },
    {
      "inputs": [
        {
          "internalType": "bytes",
          "name": "response",
          "type": "bytes"
        },
        {
          "internalType": "bytes",
          "name": "extraData",
          "type": "bytes"
        }
      ],
      "name": "resolveCallback",
      "outputs": [
        {
          "internalType": "bytes",
          "name": "",
          "type": "bytes"
        },
        {
          "internalType": "address",
          "name": "",
          "type": "address"
        }
      ],
      "stateMutability": "pure",
      "type": "function"
    },
    {
      "inputs": [
        {
          "internalType": "bytes",
          "name": "response",
          "type": "bytes"
        },
        {
          "internalType": "bytes",
          "name": "extraData",
          "type": "bytes"
        }
      ],
      "name": "resolveDirectCallback",
      "outputs": [],
      "stateMutability": "view",
      "type": "function"
    },
    {
      "inputs": [
        {
          "internalType": "bytes",
          "name": "response",
          "type": "bytes"
        },
        {
          "internalType": "bytes",
          "name": "",
          "type": "bytes"
        }
      ],
      "name": "resolveDirectCallbackError",
      "outputs": [],
      "stateMutability": "pure",
      "type": "function"
    },
    {
      "inputs": [
        {
          "internalType": "bytes",
          "name": "name",
          "type": "bytes"
        },
        {
          "internalType": "bytes",
          "name": "data",
          "type": "bytes"
        },
        {
          "internalType": "string[]",
          "name": "gateways",
          "type": "string[]"
        }
      ],
      "name": "resolveWithGateways",
      "outputs": [
        {
          "internalType": "bytes",
          "name": "result",
          "type": "bytes"
        },
        {
          "internalType": "address",
          "name": "resolver",
          "type": "address"
        }
      ],
      "stateMutability": "view",
      "type": "function"
    },
    {
      "inputs": [
        {
          "internalType": "address",
          "name": "resolver",
          "type": "address"
        },
        {
          "internalType": "bytes",
          "name": "name",
          "type": "bytes"
        },
        {
          "internalType": "bytes",
          "name": "data",
          "type": "bytes"
        },
        {
          "internalType": "string[]",
          "name": "gateways",
          "type": "string[]"
        }
      ],
      "name": "resolveWithResolver",
      "outputs": [
        {
          "internalType": "bytes",
          "name": "",
          "type": "bytes"
        }
      ],
      "stateMutability": "view",
      "type": "function"
    },
    {
      "inputs": [
        {
          "internalType": "bytes",
          "name": "lookupAddress",
          "type": "bytes"
        },
        {
          "internalType": "uint256",
          "name": "coinType",
          "type": "uint256"
        }
      ],
      "name": "reverse",
      "outputs": [
        {
          "internalType": "string",
          "name": "",
          "type": "string"
        },
        {
          "internalType": "address",
          "name": "",
          "type": "address"
        },
        {
          "internalType": "address",
          "name": "",
          "type": "address"
        }
      ],
      "stateMutability": "view",
      "type": "function"
    },
    {
      "inputs": [
        {
          "internalType": "bytes",
          "name": "response",
          "type": "bytes"
        },
        {
          "internalType": "bytes",
          "name": "extraData",
          "type": "bytes"
        }
      ],
      "name": "reverseAddressCallback",
      "outputs": [
        {
          "internalType": "string",
          "name": "primary",
          "type": "string"
        },
        {
          "internalType": "address",
          "name": "resolver",
          "type": "address"
        },
        {
          "internalType": "address",
          "name": "reverseResolver",
          "type": "address"
        }
      ],
      "stateMutability": "pure",
      "type": "function"
    },
    {
      "inputs": [
        {
          "internalType": "bytes",
          "name": "response",
          "type": "bytes"
        },
        {
          "internalType": "bytes",
          "name": "extraData",
          "type": "bytes"
        }
      ],
      "name": "reverseNameCallback",
      "outputs": [
        {
          "internalType": "string",
          "name": "primary",
          "type": "string"
        },
        {
          "internalType": "address",
          "name": "",
          "type": "address"
        },
        {
          "internalType": "address",
          "name": "",
          "type": "address"
        }
      ],
      "stateMutability": "view",
      "type": "function"
    },
    {
      "inputs": [
        {
          "internalType": "bytes",
          "name": "lookupAddress",
          "type": "bytes"
        },
        {
          "internalType": "uint256",
          "name": "coinType",
          "type": "uint256"
        },
        {
          "internalType": "string[]",
          "name": "gateways",
          "type": "string[]"
        }
      ],
      "name": "reverseWithGateways",
      "outputs": [
        {
          "internalType": "string",
          "name": "primary",
          "type": "string"
        },
        {
          "internalType": "address",
          "name": "resolver",
          "type": "address"
        },
        {
          "internalType": "address",
          "name": "reverseResolver",
          "type": "address"
        }
      ],
      "stateMutability": "view",
      "type": "function"
    },
    {
      "inputs": [
        {
          "internalType": "bytes4",
          "name": "interfaceId",
          "type": "bytes4"
        }
      ],
      "name": "supportsInterface",
      "outputs": [
        {
          "internalType": "bool",
          "name": "",
          "type": "bool"
        }
      ],
      "stateMutability": "view",
      "type": "function"
    }
  ],
  "contractName": "UniversalResolverV2",
  "sourceName": "src/universalResolver/UniversalResolverV2.sol",
  "bytecode": "0x60e060405234801561000f575f80fd5b50604051613ef9380380613ef983398101604081905261002e91610062565b61c3506080526001600160a01b0390811660a0521660c05261009a565b6001600160a01b038116811461005f575f80fd5b50565b5f8060408385031215610073575f80fd5b825161007e8161004b565b602084015190925061008f8161004b565b809150509250929050565b60805160a05160c051613e196100e05f395f818161035b01528181610e52015261134401525f8181610194015281816109a70152610a4201525f611ace0152613e195ff3fe608060405234801561000f575f80fd5b5060043610610163575f3560e01c80639f28e99d116100c7578063b7d6ca641161007d578063c92cc49a11610063578063c92cc49a14610356578063ef46c0b81461037d578063f272e2af14610390575f80fd5b8063b7d6ca6414610323578063c285238a14610336575f80fd5b8063a1cbcbaf116100ad578063a1cbcbaf146102c5578063b4a85801146102fd578063b536af7614610310575f80fd5b80639f28e99d14610292578063a1472844146102b2575f80fd5b806355391bb81161011c5780635d78a217116101025780635d78a2171461024b5780639061b9231461025e57806394fbfa871461027f575f80fd5b806355391bb814610216578063575de75014610229575f80fd5b80633c6cbda81161014c5780633c6cbda8146101ce578063491fc4f9146101e35780634a3e3994146101f6575f80fd5b806301ffc9a71461016757806302cf25781461018f575b5f80fd5b61017a6101753660046129f6565b6103b0565b60405190151581526020015b60405180910390f35b6101b67f000000000000000000000000000000000000000000000000000000000000000081565b6040516001600160a01b039091168152602001610186565b6101e16101dc366004612a4f565b6103ff565b005b6101e16101f1366004612a4f565b610443565b610209610204366004612c95565b610683565b6040516101869190612d61565b6101e1610224366004612d73565b6107b7565b61023c610237366004612a4f565b61083a565b60405161018693929190612dd7565b61023c610259366004612e09565b61099b565b61027161026c366004612a4f565b610a36565b604051610186929190612e51565b61023c61028d366004612a4f565b610acf565b6102a56102a0366004612e7b565b610bd7565b604051610186919061303b565b6102716102c0366004613104565b610d98565b6102d86102d3366004613191565b610e4a565b604080516001600160a01b039094168452602084019290925290820152606001610186565b61027161030b366004612a4f565b610e86565b6102a561031e366004612a4f565b610edc565b61023c6103313660046131c3565b611136565b610349610344366004613191565b61125c565b6040516101869190613231565b6101b67f000000000000000000000000000000000000000000000000000000000000000081565b6101e161038b36600461328b565b6112b8565b6103a361039e3660046132eb565b61133d565b604051610186919061332a565b5f7f6cd2d09b000000000000000000000000000000000000000000000000000000006001600160e01b0319831614806103f957506301ffc9a760e01b6001600160e01b03198316145b92915050565b61043d84848080601f0160208091040260200160405190810160405280939291908181526020018383808284375f920191909152506113a592505050565b50505050565b5f61045084860186612e7b565b5190505f80808061046386880188613383565b935093509350935060608315610573575f865167ffffffffffffffff81111561048e5761048e612aca565b6040519080825280602002602001820160405280156104c157816020015b60608152602001906001900390816104ac5790505b5090505f5b875181101561054a575f8882815181106104e2576104e26133e8565b602002602001015190505f8160400151905088801561050657506060820151600e16155b15610522578080602001905181019061051f9190613450565b90505b80848481518110610535576105356133e8565b602090810291909101015250506001016104c6565b508060405160200161055c9190613482565b604051602081830303815290604052915050610628565b5f865f81518110610586576105866133e8565b602002602001015190508060400151915060048160600151165f146105ad57815160208301fd5b6060810151600216156105c8576105c3826113a5565b610609565b81515f036106095780602001516105de906134e4565b604051637b1c461b60e01b81526001600160e01b031990911660048201526024015b60405180910390fd5b851561062657818060200190518101906106239190613450565b91505b505b61067730848385604051602401610640929190613517565b60408051601f198184030181529190526020810180516001600160e01b03166001600160e01b031990931692909217909152611404565b50505050505050505050565b6040805160a08101825260608082525f60208301819052928201839052818101839052608082019290925286868080601f0160208091040260200160405190810160405280939291908181526020018383808284375f92019190915250505090825250604080516020601f89018190048102820181019092528781526107229189908990819084018382808284375f9201829052509250611429915050565b60408201526001600160a01b038816606082015261073f8161145a565b6107ac8186868080601f0160208091040260200160405190810160405280939291908181526020018383808284375f9201919091525050604080516001600160a01b038f16602082015289935063b4a8580160e01b9250015b604051602081830303815290604052611522565b509695505050505050565b5f8080806107c785870187613544565b935093509350935086515f036107fc57604051637b1c461b60e01b81526001600160e01b031984166004820152602401610600565b831561081957868060200190518101906108169190613450565b96505b61083130838984604051602401610640929190613517565b50505050505050565b60605f808061084b858701876135fa565b905061085987890189613191565b935083515f03610882576060015160408051602081019091525f80825290945092509050610991565b5f61088f6103448661188e565b905061098e81603c84602001511461090d57826040015184602001516040516024016108c5929190918252602082015260400190565b60408051601f198184030181529190526020810180516001600160e01b03167ff1cb7e0600000000000000000000000000000000000000000000000000000000179052610968565b826040015160405160240161092491815260200190565b60408051601f198184030181529190526020810180516001600160e01b03167f3b3b57de000000000000000000000000000000000000000000000000000000001790525b84604001516394fbfa8760e01b868a876060015160405160200161079893929190613683565b50505b9450945094915050565b60605f80610a278686867f00000000000000000000000000000000000000000000000000000000000000006001600160a01b031663093a86d36040518163ffffffff1660e01b81526004015f60405180830381865afa158015610a00573d5f803e3d5ffd5b505050506040513d5f823e601f3d908101601f19168201604052610331919081019061374f565b92509250925093509350939050565b60605f610ac2868686867f00000000000000000000000000000000000000000000000000000000000000006001600160a01b031663093a86d36040518163ffffffff1660e01b81526004015f60405180830381865afa158015610a9b573d5f803e3d5ffd5b505050506040513d5f823e601f3d908101601f191682016040526102c0919081019061374f565b9150915094509492505050565b60605f80610b056040518060800160405280606081526020015f8152602001606081526020015f6001600160a01b031681525090565b610b1185870187613781565b60208301519196509450909150606090603b1901610b6f575f610b36898b018b6137f4565b6040516bffffffffffffffffffffffff19606083901b166020820152909150603401604051602081830303815290604052915050610b7e565b610b7b888a018a613191565b90505b8151610b8a9082611a64565b610bc45784816040517fef9c03ce000000000000000000000000000000000000000000000000000000008152600401610600929190613517565b8160600151925050509450945094915050565b60408051808201909152606080825260208201525f5b825151811015610d8a575f835f01518281518110610c0d57610c0d6133e8565b6020026020010151905060408160600151165f14610c2b5750610d82565b60608101516030165f03610cd5575f610c46825f0151611a88565b610c51576010610c54565b60205b9050825b855151811015610cd257825f01516001600160a01b0316865f01518281518110610c8457610c846133e8565b60200260200101515f01516001600160a01b031603610cca5781865f01518281518110610cb357610cb36133e8565b602002602001015160600181815117915081815250505b600101610c58565b50505b5f60208260600151165f1490505f80610cf78315855f01518660200151611aba565b9150915081158015610d215750630556f18360e41b610d15826134e4565b6001600160e01b031916145b15610d36576060840180516001179052610d76565b6060840180516040179052828015610d4d57508051155b610d625781610d625760608401805160021790525b80515f03610d765760608401805160081790525b60409093019290925250505b600101610bed565b50610d9482611b4d565b5090565b60605f80610dda88888080601f0160208091040260200160405190810160405280939291908181526020018383808284375f9201919091525061125c92505050565b9050610e3f8187878080601f0160208091040260200160405190810160405280939291908181526020018383808284375f920191909152505050506060840151604080516001600160a01b039092166020830152889163b4a8580160e01b9101610798565b509550959350505050565b5f805f610e787f0000000000000000000000000000000000000000000000000000000000000000855f611d38565b919790965090945092505050565b60605f8585610e97858701876137f4565b82828080601f0160208091040260200160405190810160405280939291908181526020018383808284375f92019190915250929c939b50929950505050505050505050565b60408051808201909152606080825260208201525f80610efe8688018861380f565b915091508051825114610f245760405163252e18f560e11b815260040160405180910390fd5b610f3084860186612e7b565b92505f805b845151811015611100575f855f01518281518110610f5557610f556133e8565b6020026020010151905060408160600151165f036110f75783518310156110eb575f848481518110610f8957610f896133e8565b60200260200101519050858481518110610fa557610fa56133e8565b602002602001015115610fc25760608201805160441790526110e5565b5f610fd08360400151611ea4565b90505f815f01516001600160a01b03168260600151848460800151604051602401610ffc929190613517565b60408051601f198184030181529181526020820180516001600160e01b03166001600160e01b031990941693909317909252905161103a91906138d8565b5f60405180830381855afa9150503d805f8114611072576040519150601f19603f3d011682016040523d82523d5f602084013e611077565b606091505b509350905080806110a15750630556f18360e41b611094846134e4565b6001600160e01b03191614155b156110e25760608401805160401790528015806110bd57508251155b156110ce5760608401805160021790525b82515f036110e25760608401805160081790525b50505b60408201525b6110f4836138f7565b92505b50600101610f35565b50815181146111225760405163252e18f560e11b815260040160405180910390fd5b61112b84611b4d565b505050949350505050565b60605f805f6111866103446111818a8a8080601f0160208091040260200160405190810160405280939291908181526020018383808284375f920191909152508c9250611ee8915050565b61188e565b90506112518182604001516040516024016111a391815260200190565b60405160208183030381529060405263691f343160e01b6020820180516001600160e01b0383818316178352505050508763575de75060e01b60405180608001604052808e8e8080601f0160208091040260200160405190810160405280939291908181526020018383808284375f9201919091525050509082525060208082018e905260408083018e905260608a8101516001600160a01b0316930192909252905161079892910161390f565b509450945094915050565b6040805160a08101825260608082525f602083018190529282018390528101829052608081019190915261128f82610e4a565b602084015260408301526001600160a01b031660608201528181526112b38161145a565b919050565b5f818060200190518101906112cd9190613937565b9050611338815f015182602001518584604001516040516024016112f2929190613517565b60408051601f198184030181529190526020810180516001600160e01b03166001600160e01b0319909316929092179091526060840151608085015160a086015161202d565b505050565b606061139e7f000000000000000000000000000000000000000000000000000000000000000084848080601f0160208091040260200160405190810160405280939291908181526020018383808284375f92018290525092506121f0915050565b9392505050565b637b1c461b60e01b6113b6826134e4565b6001600160e01b031916036113cd57805160208201fd5b806040517f95c0c7520000000000000000000000000000000000000000000000000000000081526004016106009190612d61565b50565b61142582825f60e01b5f60e01b60405180602001604052805f81525061202d565b5050565b5f611434838361229f565b9250905080156103f95761139e61144b8484611429565b825f9182526020526040902090565b60608101516001600160a01b0316611488578051604051630ee413fd60e31b81526106009190600401612d61565b61149d8160600151639061b92360e01b6122cc565b156114ac576001608082015250565b6020810151156114d2578051604051630ee413fd60e31b81526106009190600401612d61565b80606001516001600160a01b03163b5f0361140157805160608201516040517f1e9535f2000000000000000000000000000000000000000000000000000000008152610600929190600401612e51565b5f7fac9650d80000000000000000000000000000000000000000000000000000000061154d866134e4565b6001600160e01b03191614905061156f866060015163582de3e760e01b6122cc565b801561161657508015806116165750856080015180156116165750606086015160405163582de3e760e01b81527f96b62db80000000000000000000000000000000000000000000000000000000060048201526001600160a01b039091169063582de3e790602401602060405180830381865afa1580156115f2573d5f803e3d5ffd5b505050506040513d601f19601f820116820180604052508101906116169190613a06565b156116ec576116ec866060015187608001516116325786611671565b875160405161164691908990602401613517565b60408051601f198184030181529190526020810180516001600160e01b0316639061b92360e01b1790525b60808901517f55391bb800000000000000000000000000000000000000000000000000000000907f3c6cbda800000000000000000000000000000000000000000000000000000000906116c38b6134e4565b89896040516020016116d89493929190613a21565b60405160208183030381529060405261202d565b606081156117265761170c8660048089516117079190613a5f565b612352565b80602001905181019061171f9190613a72565b9050611771565b60408051600180825281830190925290816020015b606081526020019060019003908161173b57905050905085815f81518110611765576117656133e8565b60200260200101819052505b866080015115611808575f5b815181101561180657875f015182828151811061179c5761179c6133e8565b60200260200101516040516024016117b5929190613517565b60408051601f198184030181529190526020810180516001600160e01b0316639061b92360e01b17905282518390839081106117f3576117f36133e8565b602090810291909101015260010161177d565b505b61083130306001600160a01b0316639f28e99d61182a8b60600151868b6123a7565b60405160240161183a919061303b565b604051602081830303815290604052915060e01b6020820180516001600160e01b03838183161783525050505063491fc4f960e01b5f60e01b8b60800151878a8a6040516020016116d89493929190613b1c565b80516060905f8190036118b657505060408051808201909152600181525f6020820152919050565b8060020167ffffffffffffffff8111156118d2576118d2612aca565b6040519080825280601f01601f1916602001820160405280156118fc576020820181803683370190505b5091506119106021830160208501836124bc565b5f805f5b838110156119e55785818151811061192e5761192e6133e8565b01602001517fff0000000000000000000000000000000000000000000000000000000000000016601760f91b036119dd578281039150815f1480611972575060ff82115b156119925785604051639a4c3e3b60e01b81526004016106009190612d61565b8160f81b8584815181106119a8576119a86133e8565b60200101907effffffffffffffffffffffffffffffffffffffffffffffffffffffffffffff191690815f1a9053508060010192505b600101611914565b5050808203828214806119f8575060ff81115b15611a185784604051639a4c3e3b60e01b81526004016106009190612d61565b8060f81b848381518110611a2e57611a2e6133e8565b60200101907effffffffffffffffffffffffffffffffffffffffffffffffffffffffffffff191690815f1a905350505050919050565b5f8151835114801561139e5750508051602091820120825192909101919091201490565b5f306001600160a01b03831603611aa157506001919050565b6113885a5f805f808786fa50815a909103109392505050565b5f6060836001600160a01b031685611af2577f0000000000000000000000000000000000000000000000000000000000000000611af4565b5a5b84604051611b0291906138d8565b5f604051808303818686fa925050503d805f8114611b3b576040519150601f19603f3d011682016040523d82523d5f602084013e611b40565b606091505b5090969095509350505050565b8051515f9067ffffffffffffffff811115611b6a57611b6a612aca565b604051908082528060200260200182016040528015611bc757816020015b611bb460405180606001604052805f6001600160a01b0316815260200160608152602001606081525090565b815260200190600190039081611b885790505b5090505f805b835151811015611c78575f845f01518281518110611bed57611bed6133e8565b6020026020010151905060408160600151165f03611c6f575f611c138260400151611ea4565b90506040518060600160405280825f01516001600160a01b03168152602001826020015181526020018260400151815250858580611c50906138f7565b965081518110611c6257611c626133e8565b6020026020010181905250505b50600101611bcd565b5080156113385780825230836020015183604051602401611c999190613b4e565b60408051601f19818403018152918152602080830180516001600160e01b03167fa780bab60000000000000000000000000000000000000000000000000000000017905290517fb536af760000000000000000000000000000000000000000000000000000000091611d0d9189910161303b565b60408051601f1981840301815290829052630556f18360e41b82526106009594939291600401613be8565b5f805f805f80611d48888861229f565b909250905081611d6657508794505f9350839250859150611e9b9050565b611d71898983611d38565b929850909650945092506001600160a01b03861615611e8c575f611d958989612505565b5090505f876001600160a01b031663e4ae7d77836040518263ffffffff1660e01b8152600401611dc59190612d61565b602060405180830381865afa158015611de0573d5f803e3d5ffd5b505050506040513d601f19601f82011682018060405250810190611e049190613c4b565b90506001600160a01b03811615611e1c578096508894505b604051631ad7b10b60e11b81526001600160a01b038916906335af621690611e48908590600401612d61565b602060405180830381865afa158015611e63573d5f803e3d5ffd5b505050506040513d601f19601f82011682018060405250810190611e879190613c4b565b975050505b505f9283526020526040909120905b93509350935093565b6040805160a0810182525f8082526060602083018190529282018390528282015260808101919091526103f9611ee38360048086516117079190613a5f565b612582565b606082515f03611f24576040517f7138356f00000000000000000000000000000000000000000000000000000000815260040160405180910390fd5b611f2d836125ed565b601760f91b603c8414611f905763800000008414611f5557611f50846001612656565b611fc7565b6040518060400160405280600781526020017f64656661756c7400000000000000000000000000000000000000000000000000815250611fc7565b6040518060400160405280600481526020017f61646472000000000000000000000000000000000000000000000000000000008152505b601760f91b6040518060400160405280600781526020017f7265766572736500000000000000000000000000000000000000000000000000815250604051602001612016959493929190613c66565b604051602081830303815290604052905092915050565b5f8061204261203b88611a88565b8888611aba565b915091508115801561206c5750630556f18360e41b612060826134e4565b6001600160e01b031916145b1561211a575f61207b82611ea4565b9050876001600160a01b0316815f01516001600160a01b03160361211857308160200151826040015163ef46c0b860e01b6040518060c001604052808d6001600160a01b0316815260200186606001516001600160e01b0319168152602001866080015181526020018b6001600160e01b03191681526020018a6001600160e01b031916815260200189815250604051602001611d0d9190613cb8565b505b5f826121265784612128565b855b90506001600160e01b03198116156121da57306001600160a01b0316818386604051602401612158929190613517565b60408051601f198184030181529181526020820180516001600160e01b03166001600160e01b031990941693909317909252905161219691906138d8565b5f60405180830381855afa9150503d805f81146121ce576040519150601f19603f3d011682016040523d82523d5f602084013e6121d3565b606091505b5090935091505b82156121e857815160208301f35b815160208301fd5b60606121fc8383612728565b612207906001613d34565b67ffffffffffffffff81111561221f5761221f612aca565b604051908082528060200260200182016040528015612248578160200160208202803683370190505b50905083816001835161225b9190613a5f565b8151811061226b5761226b6133e8565b60200260200101906001600160a01b031690816001600160a01b0316815250506122978383835f612759565b509392505050565b5f805f6122ac8585612875565b9250905060ff8116156122c457806021858701012092505b509250929050565b604080516001600160e01b03198316602480830191909152825180830390910181526044909101909152602080820180516001600160e01b03166301ffc9a760e01b17815282515f9392849283928392918391908a617530fa92503d91505f51905082801561233c575060208210155b801561234757505f81115b979650505050505050565b60608167ffffffffffffffff81111561236d5761236d612aca565b6040519080825280601f01601f191660200182016040528015612397576020820181803683370190505b50905061139e8484835f866128f9565b60408051808201909152606080825260208201525f835167ffffffffffffffff8111156123d6576123d6612aca565b60405190808252806020026020018201604052801561243957816020015b61242660405180608001604052805f6001600160a01b0316815260200160608152602001606081526020015f81525090565b8152602001906001900390816123f45790505b5090505f5b845181101561249f575f82828151811061245a5761245a6133e8565b60209081029190910101516001600160a01b03881681528651909150869083908110612488576124886133e8565b60209081029190910181015191015260010161243e565b506040805180820190915290815260208101929092525092915050565b5b601f8111156124dd578151835260209283019290910190601f19016124bd565b80156113385790518251600160209390930360031b9290921b5f190180199091169116179052565b60605f806125138585612875565b925090505f60ff821667ffffffffffffffff81111561253457612534612aca565b6040519080825280601f01601f19166020018201604052801561255e576020820181803683370190505b5090506125776020820160218888010160ff85166124bc565b959194509092505050565b6040805160a0810182525f808252606060208301819052928201839052828201526080810191909152818060200190518101906125bf9190613d47565b60808601526001600160e01b0319166060850152604084015260208301526001600160a01b03168152919050565b805160609060011b8067ffffffffffffffff81111561260e5761260e612aca565b6040519080825280601f01601f191660200182016040528015612638576020820181803683370190505b509150602083810190830161264e828285612936565b505050919050565b6060825f60805b6008811061268e576001811b8310156126815761267a8183613d34565b9150612686565b91821c915b60011c61265d565b5083801561269c5750601082105b156126af576126ac600482613d34565b90505b5f6126bf600283901c6040613a5f565b90508067ffffffffffffffff8111156126da576126da612aca565b6040519080825280601f01601f191660200182016040528015612704576020820181803683370190505b5093505f86831b5f5260208501905061271e5f8284612936565b5050505092915050565b5f805b6127358484612875565b9350905060ff8116156127525761274b826138f7565b915061272b565b5092915050565b5f805f6127668787612505565b9150915081515f036127a25784600186516127819190613a5f565b81518110612791576127916133e8565b60200260200101519250505061286d565b6127b88782876127b3886001613d34565b612759565b92506001600160a01b0383161561286a57604051631ad7b10b60e11b81526001600160a01b038416906335af6216906127f5908590600401612d61565b602060405180830381865afa158015612810573d5f803e3d5ffd5b505050506040513d601f19601f820116820180604052508101906128349190613c4b565b925082858581518110612849576128496133e8565b60200260200101906001600160a01b031690816001600160a01b0316815250505b50505b949350505050565b5f808351831061289a578360405163ba4adc2360e01b81526004016106009190612d61565b8383815181106128ac576128ac6133e8565b016020015160f81c915050818101600101816128cc5783518114156128d2565b83518110155b156128f2578360405163ba4adc2360e01b81526004016106009190612d61565b9250929050565b61290c856129078387613d34565b612999565b61291a836129078385613d34565b61292f826020850101856020880101836124bc565b5050505050565b8181015b8083101561043d5783516101005b828510801561295657505f81115b1561298c5760031901600f82821c16600a8110612976578060570161297b565b806030015b905080865350600190940193612948565b505060208401935061293a565b81518111156114255781516040517f8a3c1cfb000000000000000000000000000000000000000000000000000000008152610600918391600401918252602082015260400190565b6001600160e01b031981168114611401575f80fd5b5f60208284031215612a06575f80fd5b813561139e816129e1565b5f8083601f840112612a21575f80fd5b50813567ffffffffffffffff811115612a38575f80fd5b6020830191508360208285010111156128f2575f80fd5b5f805f8060408587031215612a62575f80fd5b843567ffffffffffffffff80821115612a79575f80fd5b612a8588838901612a11565b90965094506020870135915080821115612a9d575f80fd5b50612aaa87828801612a11565b95989497509550505050565b6001600160a01b0381168114611401575f80fd5b634e487b7160e01b5f52604160045260245ffd5b6040805190810167ffffffffffffffff81118282101715612b0157612b01612aca565b60405290565b6040516080810167ffffffffffffffff81118282101715612b0157612b01612aca565b60405160c0810167ffffffffffffffff81118282101715612b0157612b01612aca565b604051601f8201601f1916810167ffffffffffffffff81118282101715612b7657612b76612aca565b604052919050565b5f67ffffffffffffffff821115612b9757612b97612aca565b5060051b60200190565b5f67ffffffffffffffff821115612bba57612bba612aca565b50601f01601f191660200190565b5f82601f830112612bd7575f80fd5b8135612bea612be582612ba1565b612b4d565b818152846020838601011115612bfe575f80fd5b816020850160208301375f918101602001919091529392505050565b5f82601f830112612c29575f80fd5b81356020612c39612be583612b7e565b82815260059290921b84018101918181019086841115612c57575f80fd5b8286015b848110156107ac57803567ffffffffffffffff811115612c79575f80fd5b612c878986838b0101612bc8565b845250918301918301612c5b565b5f805f805f8060808789031215612caa575f80fd5b8635612cb581612ab6565b9550602087013567ffffffffffffffff80821115612cd1575f80fd5b612cdd8a838b01612a11565b90975095506040890135915080821115612cf5575f80fd5b612d018a838b01612a11565b90955093506060890135915080821115612d19575f80fd5b50612d2689828a01612c1a565b9150509295509295509295565b5f81518084528060208401602086015e5f602082860101526020601f19601f83011685010191505092915050565b602081525f61139e6020830184612d33565b5f805f60408486031215612d85575f80fd5b833567ffffffffffffffff80821115612d9c575f80fd5b612da887838801612bc8565b94506020860135915080821115612dbd575f80fd5b50612dca86828701612a11565b9497909650939450505050565b606081525f612de96060830186612d33565b6001600160a01b0394851660208401529290931660409091015292915050565b5f805f60408486031215612e1b575f80fd5b833567ffffffffffffffff811115612e31575f80fd5b612e3d86828701612a11565b909790965060209590950135949350505050565b604081525f612e636040830185612d33565b90506001600160a01b03831660208301529392505050565b5f6020808385031215612e8c575f80fd5b823567ffffffffffffffff80821115612ea3575f80fd5b9084019060408287031215612eb6575f80fd5b612ebe612ade565b823582811115612ecc575f80fd5b8301601f81018813612edc575f80fd5b8035612eea612be582612b7e565b81815260059190911b8201860190868101908a831115612f08575f80fd5b8784015b83811015612fb057803587811115612f22575f80fd5b85016080818e03601f19011215612f37575f80fd5b612f3f612b07565b8a820135612f4c81612ab6565b8152604082013589811115612f5f575f80fd5b612f6d8f8d83860101612bc8565b8c83015250606082013589811115612f83575f80fd5b612f918f8d83860101612bc8565b6040830152506080919091013560608201528352918801918801612f0c565b5084525050508284013582811115612fc6575f80fd5b612fd288828601612c1a565b948201949094529695505050505050565b5f8282518085526020808601955060208260051b840101602086015f5b8481101561302e57601f1986840301895261301c838351612d33565b98840198925090830190600101613000565b5090979650505050505050565b5f602080835260608084018551604080858801528282518085526080945060808901915060808160051b8a010187850194505f5b828110156130d957607f198b830301845285516001600160a01b03815116835289810151888b8501526130a489850182612d33565b905086820151848203888601526130bb8282612d33565b928b0151948b0194909452509589019593890193915060010161306f565b50968a0151898803601f190160408b0152966130f58189612fe3565b9b9a5050505050505050505050565b5f805f805f60608688031215613118575f80fd5b853567ffffffffffffffff8082111561312f575f80fd5b61313b89838a01612a11565b90975095506020880135915080821115613153575f80fd5b61315f89838a01612a11565b90955093506040880135915080821115613177575f80fd5b5061318488828901612c1a565b9150509295509295909350565b5f602082840312156131a1575f80fd5b813567ffffffffffffffff8111156131b7575f80fd5b61286d84828501612bc8565b5f805f80606085870312156131d6575f80fd5b843567ffffffffffffffff808211156131ed575f80fd5b6131f988838901612a11565b9096509450602087013593506040870135915080821115613218575f80fd5b5061322587828801612c1a565b91505092959194509250565b602081525f825160a0602084015261324c60c0840182612d33565b905060208401516040840152604084015160608401526001600160a01b0360608501511660808401526080840151151560a08401528091505092915050565b5f806040838503121561329c575f80fd5b823567ffffffffffffffff808211156132b3575f80fd5b6132bf86838701612bc8565b935060208501359150808211156132d4575f80fd5b506132e185828601612bc8565b9150509250929050565b5f80602083850312156132fc575f80fd5b823567ffffffffffffffff811115613312575f80fd5b61331e85828601612a11565b90969095509350505050565b602080825282518282018190525f9190848201906040850190845b8181101561336a5783516001600160a01b031683529284019291840191600101613345565b50909695505050505050565b8015158114611401575f80fd5b5f805f8060808587031215613396575f80fd5b84356133a181613376565b935060208501356133b181613376565b925060408501356133c1816129e1565b9150606085013567ffffffffffffffff8111156133dc575f80fd5b61322587828801612bc8565b634e487b7160e01b5f52603260045260245ffd5b5f613409612be584612ba1565b905082815283838301111561341c575f80fd5b8282602083015e5f602084830101529392505050565b5f82601f830112613441575f80fd5b61139e838351602085016133fc565b5f60208284031215613460575f80fd5b815167ffffffffffffffff811115613476575f80fd5b61286d84828501613432565b5f60208083016020845280855180835260408601915060408160051b8701019250602087015f5b828110156134d757603f198886030184526134c5858351612d33565b945092850192908501906001016134a9565b5092979650505050505050565b5f815160208301516001600160e01b03198082169350600483101561264e5760049290920360031b82901b161692915050565b604081525f6135296040830185612d33565b828103602084015261353b8185612d33565b95945050505050565b5f805f8060808587031215613557575f80fd5b843561356281613376565b935060208501356133b1816129e1565b5f60808284031215613582575f80fd5b61358a612b07565b9050813567ffffffffffffffff808211156135a3575f80fd5b6135af85838601612bc8565b83526020840135602084015260408401359150808211156135ce575f80fd5b506135db84828501612c1a565b60408301525060608201356135ef81612ab6565b606082015292915050565b5f6020828403121561360a575f80fd5b813567ffffffffffffffff811115613620575f80fd5b61286d84828501613572565b5f8151608084526136406080850182612d33565b905060208301516020850152604083015184820360408601526136638282612fe3565b9150506001600160a01b0360608401511660608501528091505092915050565b606081525f613695606083018661362c565b82810360208401526136a78186612d33565b9150506001600160a01b0383166040830152949350505050565b5f82601f8301126136d0575f80fd5b815160206136e0612be583612b7e565b82815260059290921b840181019181810190868411156136fe575f80fd5b8286015b848110156107ac57805167ffffffffffffffff811115613720575f80fd5b8701603f81018913613730575f80fd5b6137418986830151604084016133fc565b845250918301918301613702565b5f6020828403121561375f575f80fd5b815167ffffffffffffffff811115613775575f80fd5b61286d848285016136c1565b5f805f60608486031215613793575f80fd5b833567ffffffffffffffff808211156137aa575f80fd5b6137b687838801613572565b945060208601359150808211156137cb575f80fd5b506137d886828701612bc8565b92505060408401356137e981612ab6565b809150509250925092565b5f60208284031215613804575f80fd5b813561139e81612ab6565b5f8060408385031215613820575f80fd5b823567ffffffffffffffff80821115613837575f80fd5b818501915085601f83011261384a575f80fd5b8135602061385a612be583612b7e565b82815260059290921b84018101918181019089841115613878575f80fd5b948201945b8386101561389f57853561389081613376565b8252948201949082019061387d565b965050860135925050808211156138b4575f80fd5b506132e185828601612c1a565b5f81518060208401855e5f93019283525090919050565b5f61139e82846138c1565b634e487b7160e01b5f52601160045260245ffd5b5f60018201613908576139086138e3565b5060010190565b602081525f61139e602083018461362c565b80516112b381612ab6565b80516112b3816129e1565b5f60208284031215613947575f80fd5b815167ffffffffffffffff8082111561395e575f80fd5b9083019060c08286031215613971575f80fd5b613979612b2a565b61398283613921565b81526139906020840161392c565b60208201526040830151828111156139a6575f80fd5b6139b287828601613432565b6040830152506139c46060840161392c565b60608201526139d56080840161392c565b608082015260a0830151828111156139eb575f80fd5b6139f787828601613432565b60a08301525095945050505050565b5f60208284031215613a16575f80fd5b815161139e81613376565b84151581525f6001600160e01b0319808616602084015280851660408401525060806060830152613a556080830184612d33565b9695505050505050565b818103818111156103f9576103f96138e3565b5f6020808385031215613a83575f80fd5b825167ffffffffffffffff80821115613a9a575f80fd5b818501915085601f830112613aad575f80fd5b8151613abb612be582612b7e565b81815260059190911b83018401908481019088831115613ad9575f80fd5b8585015b83811015613b0f57805185811115613af3575f80fd5b613b018b89838a0101613432565b845250918601918601613add565b5098975050505050505050565b841515815283151560208201526001600160e01b031983166040820152608060608201525f613a556080830184612d33565b5f60208083018184528085518083526040925060408601915060408160051b8701018488015f5b83811015613bda57603f19898403018552815160606001600160a01b03825116855288820151818a870152613bac82870182612fe3565b91505087820151915084810388860152613bc68183612d33565b968901969450505090860190600101613b75565b509098975050505050505050565b6001600160a01b038616815260a060208201525f613c0960a0830187612fe3565b8281036040840152613c1b8187612d33565b90506001600160e01b0319851660608401528281036080840152613c3f8185612d33565b98975050505050505050565b5f60208284031215613c5b575f80fd5b815161139e81612ab6565b5f613c7182886138c1565b7fff000000000000000000000000000000000000000000000000000000000000008088168252613ca460018301886138c1565b90861681529050613c3f60018201856138c1565b602081526001600160a01b0382511660208201525f60208301516001600160e01b031980821660408501526040850151915060c06060850152613cfe60e0850183612d33565b91508060608601511660808501528060808601511660a08501525060a0840151601f198483030160c085015261353b8282612d33565b808201808211156103f9576103f96138e3565b5f805f805f60a08688031215613d5b575f80fd5b8551613d6681612ab6565b602087015190955067ffffffffffffffff80821115613d83575f80fd5b613d8f89838a016136c1565b95506040880151915080821115613da4575f80fd5b613db089838a01613432565b945060608801519150613dc2826129e1565b608088015191935080821115613dd6575f80fd5b506131848882890161343256fea2646970667358221220595072c31c9a27a603aee3a9955dc4fb1f721ccd2208faaefe84cfdbb2bf9bc664736f6c63430008190033",
  "linkReferences": {},
  "deployedLinkReferences": {},
  "immutableReferences": {
    "1090": [
      {
        "length": 32,
        "start": 6862
      }
    ],
    "2996": [
      {
        "length": 32,
        "start": 404
      },
      {
        "length": 32,
        "start": 2471
      },
      {
        "length": 32,
        "start": 2626
      }
    ],
    "18078": [
      {
        "length": 32,
        "start": 859
      },
      {
        "length": 32,
        "start": 3666
      },
      {
        "length": 32,
        "start": 4932
      }
    ]
  },
  "inputSourceName": "project/src/universalResolver/UniversalResolverV2.sol",
  "devdoc": {
    "errors": {
      "DNSDecodingFailed(bytes)": [
        {
          "details": "The DNS-encoded name is malformed.      Error selector: `0xba4adc23`"
        }
      ],
      "DNSEncodingFailed(string)": [
        {
          "details": "A label of the ENS name has an invalid size.      Error selector: `0x9a4c3e3b`"
        }
      ],
      "EmptyAddress()": [
        {
          "details": "The supplied address was `0x`.      Error selector: `0x7138356f`"
        }
      ],
      "HttpError(uint16,string)": [
        {
          "details": "Error selector: `0x01800152`"
        }
      ],
      "InvalidBatchGatewayResponse()": [
        {
          "details": "Error selector: `0x4a5c31ea`"
        }
      ],
      "OffchainLookup(address,string[],bytes,bytes4,bytes)": [
        {
          "details": "https://eips.ethereum.org/EIPS/eip-3668 Error selector: `0x556f1830`"
        }
      ],
      "OffsetOutOfBoundsError(uint256,uint256)": [
        {
          "details": "`offset` was beyond `length`.       Error selector: `0x8a3c1cfb`"
        }
      ],
      "ResolverError(bytes)": [
        {
          "details": "Error selector: `0x95c0c752`"
        }
      ],
      "ResolverNotContract(bytes,address)": [
        {
          "details": "Error selector: `0x1e9535f2`"
        }
      ],
      "ResolverNotFound(bytes)": [
        {
          "details": "Error selector: `0x77209fe8`"
        }
      ],
      "ReverseAddressMismatch(string,bytes)": [
        {
          "details": "Error selector: `0xef9c03ce`"
        }
      ],
      "UnsupportedResolverProfile(bytes4)": [
        {
          "details": "Error selector: `0x7b1c461b`"
        }
      ]
    },
    "kind": "dev",
    "methods": {
      "ccipBatch(((address,bytes,bytes,uint256)[],string[]))": {
        "details": "Use `ccipRead()` to call this function with a batch.      The callback response will be `abi.encode(batch)`."
      },
      "ccipBatchCallback(bytes,bytes)": {
        "details": "CCIP-Read callback for `ccipBatch()`.      Updates `batch` using the batch gateway response. Reverts again if not \"done\".",
        "params": {
          "extraData": "The contextual data passed from `ccipBatch()`.",
          "response": "The response from the batch gateway."
        },
        "returns": {
          "batch": "The batch where every lookup is \"done\"."
        }
      },
      "ccipReadCallback(bytes,bytes)": {
        "details": "CCIP-Read callback for `ccipRead()`.The return type of this function is polymorphic depending on the caller.",
        "params": {
          "extraData": "The contextual data passed from `ccipRead()`.",
          "response": "The response from offchain."
        }
      },
      "findRegistries(bytes)": {
        "params": {
          "name": "The DNS-encoded name."
        },
        "returns": {
          "_0": "Array of registries in label-order."
        }
      },
      "findResolver(bytes)": {
        "details": "Find the resolver address for `name`.      Does not perform any validity checks on the resolver.",
        "params": {
          "name": "The name to search."
        },
        "returns": {
          "node": "The namehash of `name`.",
          "offset": "The offset into `name` corresponding to `resolver`.",
          "resolver": "The resolver or `address(0)` if not found."
        }
      },
      "requireResolver(bytes)": {
        "details": "Returns a valid resolver for `name` or reverts.",
        "params": {
          "name": "The name to search."
        },
        "returns": {
          "info": "The resolver information."
        }
      },
      "resolveBatchCallback(bytes,bytes)": {
        "details": "CCIP-Read callback for `_callResolver()` from calling the batch gateway successfully."
      },
      "resolveCallback(bytes,bytes)": {
        "details": "CCIP-Read callback for `resolveWithGateways()`.",
        "params": {
          "extraData": "The contextual data passed from `resolveWith*()`.",
          "response": "The response from the resolver."
        }
      },
      "resolveDirectCallback(bytes,bytes)": {
        "details": "CCIP-Read callback for `_callResolver()` from calling the resolver successfully."
      },
      "resolveDirectCallbackError(bytes,bytes)": {
        "details": "CCIP-Read callback for `_callResolver()` from calling the resolver unsuccessfully."
      },
      "resolveWithGateways(bytes,bytes,string[])": {
        "details": "This function executes over multiple steps.",
        "params": {
          "data": "The resolution data, as specified in ENSIP-10.",
          "gateways": "The list of batch gateway URLs to use.",
          "name": "The name to resolve, in normalised and DNS-encoded form."
        },
        "returns": {
          "resolver": "The address of the resolver that supplied `result`.",
          "result": "The encoded response for the requested call."
        }
      },
      "reverseAddressCallback(bytes,bytes)": {
        "details": "CCIP-Read callback for `reverseNameCallback()`.      Reverts `ReverseAddressMismatch`.",
        "params": {
          "extraData": "The contextual data passed from `reverseNameCallback()`.",
          "response": "The abi-encoded `addr()` response from the forward resolver."
        }
      },
      "reverseNameCallback(bytes,bytes)": {
        "details": "CCIP-Read callback for `reverseWithGateways()`.",
        "params": {
          "extraData": "The contextual data passed from `reverseWithGateways()`.",
          "response": "The abi-encoded `name()` response from the reverse resolver."
        }
      },
      "reverseWithGateways(bytes,uint256,string[])": {
        "details": "This function executes over multiple steps.",
        "params": {
          "coinType": "The coin type.",
          "gateways": "The list of batch gateway URLs to use.",
          "lookupAddress": "The input address."
        },
        "returns": {
          "primary": "The resolved primary name.",
          "resolver": "The resolver address for primary name.",
          "reverseResolver": "The resolver address for the reverse name."
        }
      },
      "supportsInterface(bytes4)": {
        "details": "See {IERC165-supportsInterface}."
      }
    },
    "version": 1
  },
  "evm": {
    "gasEstimates": {
      "creation": {
        "codeDepositCost": "3179400",
        "executionCost": "infinite",
        "totalCost": "infinite"
      },
      "external": {
        "ROOT_REGISTRY()": "infinite",
        "batchGatewayProvider()": "infinite",
        "ccipBatch(((address,bytes,bytes,uint256)[],string[]))": "infinite",
        "ccipBatchCallback(bytes,bytes)": "infinite",
        "ccipReadCallback(bytes,bytes)": "infinite",
        "findRegistries(bytes)": "infinite",
        "findResolver(bytes)": "infinite",
        "requireResolver(bytes)": "infinite",
        "resolve(bytes,bytes)": "infinite",
        "resolveBatchCallback(bytes,bytes)": "infinite",
        "resolveCallback(bytes,bytes)": "infinite",
        "resolveDirectCallback(bytes,bytes)": "infinite",
        "resolveDirectCallbackError(bytes,bytes)": "infinite",
        "resolveWithGateways(bytes,bytes,string[])": "infinite",
        "resolveWithResolver(address,bytes,bytes,string[])": "infinite",
        "reverse(bytes,uint256)": "infinite",
        "reverseAddressCallback(bytes,bytes)": "infinite",
        "reverseNameCallback(bytes,bytes)": "infinite",
        "reverseWithGateways(bytes,uint256,string[])": "infinite",
        "supportsInterface(bytes4)": "493"
      }
    }
  },
  "storageLayout": {
    "storage": [],
    "types": null
  },
  "userdoc": {
    "errors": {
      "HttpError(uint16,string)": [
        {
          "notice": "An HTTP error occurred on a resolving gateway."
        }
      ],
      "InvalidBatchGatewayResponse()": [
        {
          "notice": "The batch gateway supplied an incorrect number of responses."
        }
      ],
      "ResolverError(bytes)": [
        {
          "notice": "The resolver returned an error."
        }
      ],
      "ResolverNotContract(bytes,address)": [
        {
          "notice": "The resolver is not a contract."
        }
      ],
      "ResolverNotFound(bytes)": [
        {
          "notice": "A resolver could not be found for the supplied name."
        }
      ],
      "ReverseAddressMismatch(string,bytes)": [
        {
          "notice": "The resolved address from reverse resolution does not match the supplied address."
        }
      ],
      "UnsupportedResolverProfile(bytes4)": [
        {
          "notice": "The resolver did not respond."
        }
      ]
    },
    "kind": "user",
    "methods": {
      "findRegistries(bytes)": {
        "notice": "Find all registries in the ancestry of `name`. * `findRegistries(\"\") = [<root>]` * `findRegistries(\"eth\") = [<eth>, <root>]` * `findRegistries(\"nick.eth\") = [<nick>, <eth>, <root>]` * `findRegistries(\"sub.nick.eth\") = [null, <nick>, <eth>, <root>]`"
      },
      "resolve(bytes,bytes)": {
        "notice": "Same as `resolveWithGateways()` but uses default batch gateways."
      },
      "resolveWithGateways(bytes,bytes,string[])": {
        "notice": "Performs ENS resolution process for the supplied name and resolution data.         Caller should enable EIP-3668."
      },
      "resolveWithResolver(address,bytes,bytes,string[])": {
        "notice": "Same as `resolveWithGateways()` but uses the supplied resolver."
      },
      "reverse(bytes,uint256)": {
        "notice": "Same as `reverseWithGateways()` but uses default batch gateways."
      },
      "reverseWithGateways(bytes,uint256,string[])": {
        "notice": "Performs ENS reverse resolution for the supplied address and coin type.         Caller should enable EIP-3668."
      }
    },
    "version": 1
  },
  "argsData": "0x000000000000000000000000610178da211fef7d417bc0e6fed39f05609ad788000000000000000000000000dc64a140aa3e981100a9beca4e685f962f0cf6c9",
  "transaction": {
    "hash": "0x7b2c9f8956d9dd890c2ee50350465d5bc0aac58180972274cdc1a66eab032534",
    "nonce": "0x3e",
    "origin": "0xf39fd6e51aad88f6f4ce6ab8827279cfffb92266"
  }
}