{
  "address": "0xbec49fa140acaa83533fb00a2bb19bddd0290f25",
  "abi": [
    {
      "inputs": [
        {
          "internalType": "address",
          "name": "owner",
          "type": "address"
        },
        {
          "internalType": "contract ENS",
          "name": "ens",
          "type": "address"
        },
        {
          "internalType": "contract IGatewayProvider",
          "name": "batchGatewayProvider",
          "type": "address"
        }
      ],
      "stateMutability": "nonpayable",
      "type": "constructor"
    },
    {
      "inputs": [
        {
          "internalType": "bytes",
          "name": "dns",
          "type": "bytes"
        }
      ],
      "name": "DNSDecodingFailed",
      "type": "error"
    },
    {
      "inputs": [
        {
          "internalType": "string",
          "name": "ens",
          "type": "string"
        }
      ],
      "name": "DNSEncodingFailed",
      "type": "error"
    },
    {
      "inputs": [],
      "name": "EmptyAddress",
      "type": "error"
    },
    {
      "inputs": [
        {
          "internalType": "uint16",
          "name": "status",
          "type": "uint16"
        },
        {
          "internalType": "string",
          "name": "message",
          "type": "string"
        }
      ],
      "name": "HttpError",
      "type": "error"
    },
    {
      "inputs": [],
      "name": "InvalidBatchGatewayResponse",
      "type": "error"
    },
    {
      "inputs": [
        {
          "internalType": "address",
          "name": "sender",
          "type": "address"
        },
        {
          "internalType": "string[]",
          "name": "urls",
          "type": "string[]"
        },
        {
          "internalType": "bytes",
          "name": "callData",
          "type": "bytes"
        },
        {
          "internalType": "bytes4",
          "name": "callbackFunction",
          "type": "bytes4"
        },
        {
          "internalType": "bytes",
          "name": "extraData",
          "type": "bytes"
        }
      ],
      "name": "OffchainLookup",
      "type": "error"
    },
    {
      "inputs": [
        {
          "internalType": "uint256",
          "name": "offset",
          "type": "uint256"
        },
        {
          "internalType": "uint256",
          "name": "length",
          "type": "uint256"
        }
      ],
      "name": "OffsetOutOfBoundsError",
      "type": "error"
    },
    {
      "inputs": [
        {
          "internalType": "bytes",
          "name": "errorData",
          "type": "bytes"
        }
      ],
      "name": "ResolverError",
      "type": "error"
    },
    {
      "inputs": [
        {
          "internalType": "bytes",
          "name": "name",
          "type": "bytes"
        },
        {
          "internalType": "address",
          "name": "resolver",
          "type": "address"
        }
      ],
      "name": "ResolverNotContract",
      "type": "error"
    },
    {
      "inputs": [
        {
          "internalType": "bytes",
          "name": "name",
          "type": "bytes"
        }
      ],
      "name": "ResolverNotFound",
      "type": "error"
    },
    {
      "inputs": [
        {
          "internalType": "string",
          "name": "primary",
          "type": "string"
        },
        {
          "internalType": "bytes",
          "name": "primaryAddress",
          "type": "bytes"
        }
      ],
      "name": "ReverseAddressMismatch",
      "type": "error"
    },
    {
      "inputs": [
        {
          "internalType": "bytes4",
          "name": "selector",
          "type": "bytes4"
        }
      ],
      "name": "UnsupportedResolverProfile",
      "type": "error"
    },
    {
      "inputs": [],
      "name": "batchGatewayProvider",
      "outputs": [
        {
          "internalType": "contract IGatewayProvider",
          "name": "",
          "type": "address"
        }
      ],
      "stateMutability": "view",
      "type": "function"
    },
    {
      "inputs": [
        {
          "components": [
            {
              "components": [
                {
                  "internalType": "address",
                  "name": "target",
                  "type": "address"
                },
                {
                  "internalType": "bytes",
                  "name": "call",
                  "type": "bytes"
                },
                {
                  "internalType": "bytes",
                  "name": "data",
                  "type": "bytes"
                },
                {
                  "internalType": "uint256",
                  "name": "flags",
                  "type": "uint256"
                }
              ],
              "internalType": "struct CCIPBatcher.Lookup[]",
              "name": "lookups",
              "type": "tuple[]"
            },
            {
              "internalType": "string[]",
              "name": "gateways",
              "type": "string[]"
            }
          ],
          "internalType": "struct CCIPBatcher.Batch",
          "name": "batch",
          "type": "tuple"
        }
      ],
      "name": "ccipBatch",
      "outputs": [
        {
          "components": [
            {
              "components": [
                {
                  "internalType": "address",
                  "name": "target",
                  "type": "address"
                },
                {
                  "internalType": "bytes",
                  "name": "call",
                  "type": "bytes"
                },
                {
                  "internalType": "bytes",
                  "name": "data",
                  "type": "bytes"
                },
                {
                  "internalType": "uint256",
                  "name": "flags",
                  "type": "uint256"
                }
              ],
              "internalType": "struct CCIPBatcher.Lookup[]",
              "name": "lookups",
              "type": "tuple[]"
            },
            {
              "internalType": "string[]",
              "name": "gateways",
              "type": "string[]"
            }
          ],
          "internalType": "struct CCIPBatcher.Batch",
          "name": "",
          "type": "tuple"
        }
      ],
      "stateMutability": "view",
      "type": "function"
    },
    {
      "inputs": [
        {
          "internalType": "bytes",
          "name": "response",
          "type": "bytes"
        },
        {
          "internalType": "bytes",
          "name": "extraData",
          "type": "bytes"
        }
      ],
      "name": "ccipBatchCallback",
      "outputs": [
        {
          "components": [
            {
              "components": [
                {
                  "internalType": "address",
                  "name": "target",
                  "type": "address"
                },
                {
                  "internalType": "bytes",
                  "name": "call",
                  "type": "bytes"
                },
                {
                  "internalType": "bytes",
                  "name": "data",
                  "type": "bytes"
                },
                {
                  "internalType": "uint256",
                  "name": "flags",
                  "type": "uint256"
                }
              ],
              "internalType": "struct CCIPBatcher.Lookup[]",
              "name": "lookups",
              "type": "tuple[]"
            },
            {
              "internalType": "string[]",
              "name": "gateways",
              "type": "string[]"
            }
          ],
          "internalType": "struct CCIPBatcher.Batch",
          "name": "batch",
          "type": "tuple"
        }
      ],
      "stateMutability": "view",
      "type": "function"
    },
    {
      "inputs": [
        {
          "internalType": "bytes",
          "name": "response",
          "type": "bytes"
        },
        {
          "internalType": "bytes",
          "name": "extraData",
          "type": "bytes"
        }
      ],
      "name": "ccipReadCallback",
      "outputs": [],
      "stateMutability": "view",
      "type": "function"
    },
    {
      "inputs": [
        {
          "internalType": "bytes",
          "name": "name",
          "type": "bytes"
        }
      ],
      "name": "findResolver",
      "outputs": [
        {
          "internalType": "address",
          "name": "",
          "type": "address"
        },
        {
          "internalType": "bytes32",
          "name": "",
          "type": "bytes32"
        },
        {
          "internalType": "uint256",
          "name": "",
          "type": "uint256"
        }
      ],
      "stateMutability": "view",
      "type": "function"
    },
    {
      "inputs": [],
      "name": "registry",
      "outputs": [
        {
          "internalType": "contract ENS",
          "name": "",
          "type": "address"
        }
      ],
      "stateMutability": "view",
      "type": "function"
    },
    {
      "inputs": [
        {
          "internalType": "bytes",
          "name": "name",
          "type": "bytes"
        }
      ],
      "name": "requireResolver",
      "outputs": [
        {
          "components": [
            {
              "internalType": "bytes",
              "name": "name",
              "type": "bytes"
            },
            {
              "internalType": "uint256",
              "name": "offset",
              "type": "uint256"
            },
            {
              "internalType": "bytes32",
              "name": "node",
              "type": "bytes32"
            },
            {
              "internalType": "address",
              "name": "resolver",
              "type": "address"
            },
            {
              "internalType": "bool",
              "name": "extended",
              "type": "bool"
            }
          ],
          "internalType": "struct AbstractUniversalResolver.ResolverInfo",
          "name": "info",
          "type": "tuple"
        }
      ],
      "stateMutability": "view",
      "type": "function"
    },
    {
      "inputs": [
        {
          "internalType": "bytes",
          "name": "name",
          "type": "bytes"
        },
        {
          "internalType": "bytes",
          "name": "data",
          "type": "bytes"
        }
      ],
      "name": "resolve",
      "outputs": [
        {
          "internalType": "bytes",
          "name": "",
          "type": "bytes"
        },
        {
          "internalType": "address",
          "name": "",
          "type": "address"
        }
      ],
      "stateMutability": "view",
      "type": "function"
    },
    {
      "inputs": [
        {
          "internalType": "bytes",
          "name": "response",
          "type": "bytes"
        },
        {
          "internalType": "bytes",
          "name": "extraData",
          "type": "bytes"
        }
      ],
      "name": "resolveBatchCallback",
      "outputs": [],
      "stateMutability": "view",
      "type": "function"
    },
    {
      "inputs": [
        {
          "internalType": "bytes",
          "name": "response",
          "type": "bytes"
        },
        {
          "internalType": "bytes",
          "name": "extraData",
          "type": "bytes"
        }
      ],
      "name": "resolveCallback",
      "outputs": [
        {
          "internalType": "bytes",
          "name": "",
          "type": "bytes"
        },
        {
          "internalType": "address",
          "name": "",
          "type": "address"
        }
      ],
      "stateMutability": "pure",
      "type": "function"
    },
    {
      "inputs": [
        {
          "internalType": "bytes",
          "name": "response",
          "type": "bytes"
        },
        {
          "internalType": "bytes",
          "name": "extraData",
          "type": "bytes"
        }
      ],
      "name": "resolveDirectCallback",
      "outputs": [],
      "stateMutability": "view",
      "type": "function"
    },
    {
      "inputs": [
        {
          "internalType": "bytes",
          "name": "response",
          "type": "bytes"
        },
        {
          "internalType": "bytes",
          "name": "",
          "type": "bytes"
        }
      ],
      "name": "resolveDirectCallbackError",
      "outputs": [],
      "stateMutability": "pure",
      "type": "function"
    },
    {
      "inputs": [
        {
          "internalType": "bytes",
          "name": "name",
          "type": "bytes"
        },
        {
          "internalType": "bytes",
          "name": "data",
          "type": "bytes"
        },
        {
          "internalType": "string[]",
          "name": "gateways",
          "type": "string[]"
        }
      ],
      "name": "resolveWithGateways",
      "outputs": [
        {
          "internalType": "bytes",
          "name": "result",
          "type": "bytes"
        },
        {
          "internalType": "address",
          "name": "resolver",
          "type": "address"
        }
      ],
      "stateMutability": "view",
      "type": "function"
    },
    {
      "inputs": [
        {
          "internalType": "address",
          "name": "resolver",
          "type": "address"
        },
        {
          "internalType": "bytes",
          "name": "name",
          "type": "bytes"
        },
        {
          "internalType": "bytes",
          "name": "data",
          "type": "bytes"
        },
        {
          "internalType": "string[]",
          "name": "gateways",
          "type": "string[]"
        }
      ],
      "name": "resolveWithResolver",
      "outputs": [
        {
          "internalType": "bytes",
          "name": "",
          "type": "bytes"
        }
      ],
      "stateMutability": "view",
      "type": "function"
    },
    {
      "inputs": [
        {
          "internalType": "bytes",
          "name": "lookupAddress",
          "type": "bytes"
        },
        {
          "internalType": "uint256",
          "name": "coinType",
          "type": "uint256"
        }
      ],
      "name": "reverse",
      "outputs": [
        {
          "internalType": "string",
          "name": "",
          "type": "string"
        },
        {
          "internalType": "address",
          "name": "",
          "type": "address"
        },
        {
          "internalType": "address",
          "name": "",
          "type": "address"
        }
      ],
      "stateMutability": "view",
      "type": "function"
    },
    {
      "inputs": [
        {
          "internalType": "bytes",
          "name": "response",
          "type": "bytes"
        },
        {
          "internalType": "bytes",
          "name": "extraData",
          "type": "bytes"
        }
      ],
      "name": "reverseAddressCallback",
      "outputs": [
        {
          "internalType": "string",
          "name": "primary",
          "type": "string"
        },
        {
          "internalType": "address",
          "name": "resolver",
          "type": "address"
        },
        {
          "internalType": "address",
          "name": "reverseResolver",
          "type": "address"
        }
      ],
      "stateMutability": "pure",
      "type": "function"
    },
    {
      "inputs": [
        {
          "internalType": "bytes",
          "name": "response",
          "type": "bytes"
        },
        {
          "internalType": "bytes",
          "name": "extraData",
          "type": "bytes"
        }
      ],
      "name": "reverseNameCallback",
      "outputs": [
        {
          "internalType": "string",
          "name": "primary",
          "type": "string"
        },
        {
          "internalType": "address",
          "name": "",
          "type": "address"
        },
        {
          "internalType": "address",
          "name": "",
          "type": "address"
        }
      ],
      "stateMutability": "view",
      "type": "function"
    },
    {
      "inputs": [
        {
          "internalType": "bytes",
          "name": "lookupAddress",
          "type": "bytes"
        },
        {
          "internalType": "uint256",
          "name": "coinType",
          "type": "uint256"
        },
        {
          "internalType": "string[]",
          "name": "gateways",
          "type": "string[]"
        }
      ],
      "name": "reverseWithGateways",
      "outputs": [
        {
          "internalType": "string",
          "name": "primary",
          "type": "string"
        },
        {
          "internalType": "address",
          "name": "resolver",
          "type": "address"
        },
        {
          "internalType": "address",
          "name": "reverseResolver",
          "type": "address"
        }
      ],
      "stateMutability": "view",
      "type": "function"
    },
    {
      "inputs": [
        {
          "internalType": "bytes4",
          "name": "interfaceId",
          "type": "bytes4"
        }
      ],
      "name": "supportsInterface",
      "outputs": [
        {
          "internalType": "bool",
          "name": "",
          "type": "bool"
        }
      ],
      "stateMutability": "view",
      "type": "function"
    }
  ],
  "contractName": "UniversalResolver",
  "sourceName": "lib/ens-contracts/contracts/universalResolver/UniversalResolver.sol",
  "bytecode": "0x60e060405234801561000f575f80fd5b50604051613c37380380613c3783398101604081905261002e91610164565b61c3506080526001600160a01b0381811660a0526040516302571be360e01b81527f91d1777781884d03a6757a803996e38de2a42967fb37eeaca72729271025a9e26004820152839185915f918416906302571be390602401602060405180830381865afa1580156100a2573d5f803e3d5ffd5b505050506040513d601f19601f820116820180604052508101906100c691906101ae565b604051630f41a04d60e11b81526001600160a01b03848116600483015291925090821690631e83409a906024016020604051808303815f875af115801561010f573d5f803e3d5ffd5b505050506040513d601f19601f8201168201806040525081019061013391906101d0565b5050506001600160a01b0390921660c052506101e7915050565b6001600160a01b0381168114610161575f80fd5b50565b5f805f60608486031215610176575f80fd5b83516101818161014d565b60208501519093506101928161014d565b60408501519092506101a38161014d565b809150509250925092565b5f602082840312156101be575f80fd5b81516101c98161014d565b9392505050565b5f602082840312156101e0575f80fd5b5051919050565b60805160a05160c051613a116102265f395f81816102490152610e1901525f818161017a0152818161096d0152610a0901525f611a330152613a115ff3fe608060405234801561000f575f80fd5b5060043610610149575f3560e01c80639061b923116100c7578063b4a858011161007d578063b7d6ca6411610063578063b7d6ca6414610330578063c285238a14610343578063ef46c0b814610363575f80fd5b8063b4a858011461030a578063b536af761461031d575f80fd5b80639f28e99d116100ad5780639f28e99d1461029f578063a1472844146102bf578063a1cbcbaf146102d2575f80fd5b80639061b9231461026b57806394fbfa871461028c575f80fd5b80634a3e39941161011c578063575de75011610102578063575de7501461020f5780635d78a217146102315780637b10399914610244575f80fd5b80634a3e3994146101dc57806355391bb8146101fc575f80fd5b806301ffc9a71461014d57806302cf2578146101755780633c6cbda8146101b4578063491fc4f9146101c9575b5f80fd5b61016061015b366004612671565b610376565b60405190151581526020015b60405180910390f35b61019c7f000000000000000000000000000000000000000000000000000000000000000081565b6040516001600160a01b03909116815260200161016c565b6101c76101c23660046126ca565b6103c5565b005b6101c76101d73660046126ca565b610409565b6101ef6101ea366004612910565b610649565b60405161016c91906129dc565b6101c761020a3660046129ee565b61077d565b61022261021d3660046126ca565b610800565b60405161016c93929190612a52565b61022261023f366004612a84565b610961565b61019c7f000000000000000000000000000000000000000000000000000000000000000081565b61027e6102793660046126ca565b6109fd565b60405161016c929190612acc565b61022261029a3660046126ca565b610a96565b6102b26102ad366004612af6565b610b9e565b60405161016c9190612cb6565b61027e6102cd366004612d7f565b610d5f565b6102e56102e0366004612e0c565b610e11565b604080516001600160a01b03909416845260208401929092529082015260600161016c565b61027e6103183660046126ca565b610e4c565b6102b261032b3660046126ca565b610ea2565b61022261033e366004612e46565b6110fc565b610356610351366004612e0c565b611222565b60405161016c9190612eb4565b6101c7610371366004612f0e565b61127e565b5f7f6cd2d09b000000000000000000000000000000000000000000000000000000006001600160e01b0319831614806103bf57506301ffc9a760e01b6001600160e01b03198316145b92915050565b61040384848080601f0160208091040260200160405190810160405280939291908181526020018383808284375f9201919091525061130392505050565b50505050565b5f61041684860186612af6565b5190505f80808061042986880188612f7b565b935093509350935060608315610539575f865167ffffffffffffffff81111561045457610454612745565b60405190808252806020026020018201604052801561048757816020015b60608152602001906001900390816104725790505b5090505f5b8751811015610510575f8882815181106104a8576104a8612fe0565b602002602001015190505f816040015190508880156104cc57506060820151600e16155b156104e857808060200190518101906104e59190613048565b90505b808484815181106104fb576104fb612fe0565b6020908102919091010152505060010161048c565b5080604051602001610522919061307a565b6040516020818303038152906040529150506105ee565b5f865f8151811061054c5761054c612fe0565b602002602001015190508060400151915060048160600151165f1461057357815160208301fd5b60608101516002161561058e5761058982611303565b6105cf565b81515f036105cf5780602001516105a4906130dc565b604051637b1c461b60e01b81526001600160e01b031990911660048201526024015b60405180910390fd5b85156105ec57818060200190518101906105e99190613048565b91505b505b61063d3084838560405160240161060692919061310f565b60408051601f198184030181529190526020810180516001600160e01b03166001600160e01b031990931692909217909152611362565b50505050505050505050565b6040805160a08101825260608082525f60208301819052928201839052818101839052608082019290925286868080601f0160208091040260200160405190810160405280939291908181526020018383808284375f92019190915250505090825250604080516020601f89018190048102820181019092528781526106e89189908990819084018382808284375f9201829052509250611387915050565b60408201526001600160a01b0388166060820152610705816113bf565b6107728186868080601f0160208091040260200160405190810160405280939291908181526020018383808284375f9201919091525050604080516001600160a01b038f16602082015289935063b4a8580160e01b9250015b604051602081830303815290604052611487565b509695505050505050565b5f80808061078d8587018761313c565b935093509350935086515f036107c257604051637b1c461b60e01b81526001600160e01b0319841660048201526024016105c6565b83156107df57868060200190518101906107dc9190613048565b96505b6107f73083898460405160240161060692919061310f565b50505050505050565b60605f8080610811858701876131f2565b905061081f87890189612e0c565b935083515f03610848576060015160408051602081019091525f80825290945092509050610957565b5f610855610351866117f3565b905061095481603c8460200151146108d3578260400151846020015160405160240161088b929190918252602082015260400190565b60408051601f198184030181529190526020810180516001600160e01b03167ff1cb7e060000000000000000000000000000000000000000000000000000000017905261092e565b82604001516040516024016108ea91815260200190565b60408051601f198184030181529190526020810180516001600160e01b03167f3b3b57de000000000000000000000000000000000000000000000000000000001790525b84604001516394fbfa8760e01b868a876060015160405160200161075e9392919061327b565b50505b9450945094915050565b60605f806109ed8686867f00000000000000000000000000000000000000000000000000000000000000006001600160a01b031663093a86d36040518163ffffffff1660e01b81526004015f60405180830381865afa1580156109c6573d5f803e3d5ffd5b505050506040513d5f823e601f3d908101601f1916820160405261033e9190810190613347565b9250925092505b93509350939050565b60605f610a89868686867f00000000000000000000000000000000000000000000000000000000000000006001600160a01b031663093a86d36040518163ffffffff1660e01b81526004015f60405180830381865afa158015610a62573d5f803e3d5ffd5b505050506040513d5f823e601f3d908101601f191682016040526102cd9190810190613347565b9150915094509492505050565b60605f80610acc6040518060800160405280606081526020015f8152602001606081526020015f6001600160a01b031681525090565b610ad885870187613379565b60208301519196509450909150606090603b1901610b36575f610afd898b018b6133ec565b6040516bffffffffffffffffffffffff19606083901b166020820152909150603401604051602081830303815290604052915050610b45565b610b42888a018a612e0c565b90505b8151610b5190826119c9565b610b8b5784816040517fef9c03ce0000000000000000000000000000000000000000000000000000000081526004016105c692919061310f565b8160600151925050509450945094915050565b60408051808201909152606080825260208201525f5b825151811015610d51575f835f01518281518110610bd457610bd4612fe0565b6020026020010151905060408160600151165f14610bf25750610d49565b60608101516030165f03610c9c575f610c0d825f01516119ed565b610c18576010610c1b565b60205b9050825b855151811015610c9957825f01516001600160a01b0316865f01518281518110610c4b57610c4b612fe0565b60200260200101515f01516001600160a01b031603610c915781865f01518281518110610c7a57610c7a612fe0565b602002602001015160600181815117915081815250505b600101610c1f565b50505b5f60208260600151165f1490505f80610cbe8315855f01518660200151611a1f565b9150915081158015610ce85750630556f18360e41b610cdc826130dc565b6001600160e01b031916145b15610cfd576060840180516001179052610d3d565b6060840180516040179052828015610d1457508051155b610d295781610d295760608401805160021790525b80515f03610d3d5760608401805160081790525b60409093019290925250505b600101610bb4565b50610d5b82611ab2565b5090565b60605f80610da188888080601f0160208091040260200160405190810160405280939291908181526020018383808284375f9201919091525061122292505050565b9050610e068187878080601f0160208091040260200160405190810160405280939291908181526020018383808284375f920191909152505050506060840151604080516001600160a01b039092166020830152889163b4a8580160e01b910161075e565b509550959350505050565b5f805f610e3f7f0000000000000000000000000000000000000000000000000000000000000000855f611c9d565b9250925092509193909250565b60605f8585610e5d858701876133ec565b82828080601f0160208091040260200160405190810160405280939291908181526020018383808284375f92019190915250929c939b50929950505050505050505050565b60408051808201909152606080825260208201525f80610ec486880188613407565b915091508051825114610eea5760405163252e18f560e11b815260040160405180910390fd5b610ef684860186612af6565b92505f805b8451518110156110c6575f855f01518281518110610f1b57610f1b612fe0565b6020026020010151905060408160600151165f036110bd5783518310156110b1575f848481518110610f4f57610f4f612fe0565b60200260200101519050858481518110610f6b57610f6b612fe0565b602002602001015115610f885760608201805160441790526110ab565b5f610f968360400151611d98565b90505f815f01516001600160a01b03168260600151848460800151604051602401610fc292919061310f565b60408051601f198184030181529181526020820180516001600160e01b03166001600160e01b031990941693909317909252905161100091906134d0565b5f60405180830381855afa9150503d805f8114611038576040519150601f19603f3d011682016040523d82523d5f602084013e61103d565b606091505b509350905080806110675750630556f18360e41b61105a846130dc565b6001600160e01b03191614155b156110a857606084018051604017905280158061108357508251155b156110945760608401805160021790525b82515f036110a85760608401805160081790525b50505b60408201525b6110ba836134ef565b92505b50600101610efb565b50815181146110e85760405163252e18f560e11b815260040160405180910390fd5b6110f184611ab2565b505050949350505050565b60605f805f61114c6103516111478a8a8080601f0160208091040260200160405190810160405280939291908181526020018383808284375f920191909152508c9250611ddc915050565b6117f3565b905061121781826040015160405160240161116991815260200190565b60405160208183030381529060405263691f343160e01b6020820180516001600160e01b0383818316178352505050508763575de75060e01b60405180608001604052808e8e8080601f0160208091040260200160405190810160405280939291908181526020018383808284375f9201919091525050509082525060208082018e905260408083018e905260608a8101516001600160a01b0316930192909252905161075e929101613507565b509450945094915050565b6040805160a08101825260608082525f602083018190529282018390528101829052608081019190915261125582610e11565b602084015260408301526001600160a01b03166060820152818152611279816113bf565b919050565b5f81806020019051810190611293919061352f565b90506112fe815f015182602001518584604001516040516024016112b892919061310f565b60408051601f198184030181529190526020810180516001600160e01b03166001600160e01b0319909316929092179091526060840151608085015160a0860151611f21565b505050565b637b1c461b60e01b611314826130dc565b6001600160e01b0319160361132b57805160208201fd5b806040517f95c0c7520000000000000000000000000000000000000000000000000000000081526004016105c691906129dc565b50565b61138382825f60e01b5f60e01b60405180602001604052805f815250611f21565b5050565b5f61139283836120e4565b9250905080156103bf576113b86113a98484611387565b825f9182526020526040902090565b9392505050565b60608101516001600160a01b03166113ed578051604051630ee413fd60e31b81526105c691906004016129dc565b6114028160600151639061b92360e01b612111565b15611411576001608082015250565b602081015115611437578051604051630ee413fd60e31b81526105c691906004016129dc565b80606001516001600160a01b03163b5f0361135f57805160608201516040517f1e9535f20000000000000000000000000000000000000000000000000000000081526105c6929190600401612acc565b5f7fac9650d8000000000000000000000000000000000000000000000000000000006114b2866130dc565b6001600160e01b0319161490506114d4866060015163582de3e760e01b612111565b801561157b575080158061157b57508560800151801561157b5750606086015160405163582de3e760e01b81527f96b62db80000000000000000000000000000000000000000000000000000000060048201526001600160a01b039091169063582de3e790602401602060405180830381865afa158015611557573d5f803e3d5ffd5b505050506040513d601f19601f8201168201806040525081019061157b91906135fe565b15611651576116518660600151876080015161159757866115d6565b87516040516115ab9190899060240161310f565b60408051601f198184030181529190526020810180516001600160e01b0316639061b92360e01b1790525b60808901517f55391bb800000000000000000000000000000000000000000000000000000000907f3c6cbda800000000000000000000000000000000000000000000000000000000906116288b6130dc565b898960405160200161163d9493929190613619565b604051602081830303815290604052611f21565b6060811561168b5761167186600480895161166c9190613657565b612197565b806020019051810190611684919061366a565b90506116d6565b60408051600180825281830190925290816020015b60608152602001906001900390816116a057905050905085815f815181106116ca576116ca612fe0565b60200260200101819052505b86608001511561176d575f5b815181101561176b57875f015182828151811061170157611701612fe0565b602002602001015160405160240161171a92919061310f565b60408051601f198184030181529190526020810180516001600160e01b0316639061b92360e01b179052825183908390811061175857611758612fe0565b60209081029190910101526001016116e2565b505b6107f730306001600160a01b0316639f28e99d61178f8b60600151868b6121ec565b60405160240161179f9190612cb6565b604051602081830303815290604052915060e01b6020820180516001600160e01b03838183161783525050505063491fc4f960e01b5f60e01b8b60800151878a8a60405160200161163d9493929190613714565b80516060905f81900361181b57505060408051808201909152600181525f6020820152919050565b8060020167ffffffffffffffff81111561183757611837612745565b6040519080825280601f01601f191660200182016040528015611861576020820181803683370190505b509150611875602183016020850183612301565b5f805f5b8381101561194a5785818151811061189357611893612fe0565b01602001517fff0000000000000000000000000000000000000000000000000000000000000016601760f91b03611942578281039150815f14806118d7575060ff82115b156118f75785604051639a4c3e3b60e01b81526004016105c691906129dc565b8160f81b85848151811061190d5761190d612fe0565b60200101907effffffffffffffffffffffffffffffffffffffffffffffffffffffffffffff191690815f1a9053508060010192505b600101611879565b50508082038282148061195d575060ff81115b1561197d5784604051639a4c3e3b60e01b81526004016105c691906129dc565b8060f81b84838151811061199357611993612fe0565b60200101907effffffffffffffffffffffffffffffffffffffffffffffffffffffffffffff191690815f1a905350505050919050565b5f815183511480156113b85750508051602091820120825192909101919091201490565b5f306001600160a01b03831603611a0657506001919050565b6113885a5f805f808786fa50815a909103109392505050565b5f6060836001600160a01b031685611a57577f0000000000000000000000000000000000000000000000000000000000000000611a59565b5a5b84604051611a6791906134d0565b5f604051808303818686fa925050503d805f8114611aa0576040519150601f19603f3d011682016040523d82523d5f602084013e611aa5565b606091505b5090969095509350505050565b8051515f9067ffffffffffffffff811115611acf57611acf612745565b604051908082528060200260200182016040528015611b2c57816020015b611b1960405180606001604052805f6001600160a01b0316815260200160608152602001606081525090565b815260200190600190039081611aed5790505b5090505f805b835151811015611bdd575f845f01518281518110611b5257611b52612fe0565b6020026020010151905060408160600151165f03611bd4575f611b788260400151611d98565b90506040518060600160405280825f01516001600160a01b03168152602001826020015181526020018260400151815250858580611bb5906134ef565b965081518110611bc757611bc7612fe0565b6020026020010181905250505b50600101611b32565b5080156112fe5780825230836020015183604051602401611bfe9190613746565b60408051601f19818403018152918152602080830180516001600160e01b03167fa780bab60000000000000000000000000000000000000000000000000000000017905290517fb536af760000000000000000000000000000000000000000000000000000000091611c7291899101612cb6565b60408051601f1981840301815290829052630556f18360e41b82526105c695949392916004016137e0565b5f805f805f611cac87876120e4565b90925090508115611d8d575f805f611cc58b8b86611c9d565b925092509250611cde82865f9182526020526040902090565b6040517f0178b8bf000000000000000000000000000000000000000000000000000000008152600481018290529097506001600160a01b038c1690630178b8bf90602401602060405180830381865afa158015611d3d573d5f803e3d5ffd5b505050506040513d601f19601f82011682018060405250810190611d619190613843565b97506001600160a01b038816611d7957828782611d7d565b87878a5b97509750975050505050506109f4565b505093509350939050565b6040805160a0810182525f8082526060602083018190529282018390528282015260808101919091526103bf611dd783600480865161166c9190613657565b61234a565b606082515f03611e18576040517f7138356f00000000000000000000000000000000000000000000000000000000815260040160405180910390fd5b611e21836123b5565b601760f91b603c8414611e845763800000008414611e4957611e4484600161241e565b611ebb565b6040518060400160405280600781526020017f64656661756c7400000000000000000000000000000000000000000000000000815250611ebb565b6040518060400160405280600481526020017f61646472000000000000000000000000000000000000000000000000000000008152505b601760f91b6040518060400160405280600781526020017f7265766572736500000000000000000000000000000000000000000000000000815250604051602001611f0a95949392919061385e565b604051602081830303815290604052905092915050565b5f80611f36611f2f886119ed565b8888611a1f565b9150915081158015611f605750630556f18360e41b611f54826130dc565b6001600160e01b031916145b1561200e575f611f6f82611d98565b9050876001600160a01b0316815f01516001600160a01b03160361200c57308160200151826040015163ef46c0b860e01b6040518060c001604052808d6001600160a01b0316815260200186606001516001600160e01b0319168152602001866080015181526020018b6001600160e01b03191681526020018a6001600160e01b031916815260200189815250604051602001611c7291906138b0565b505b5f8261201a578461201c565b855b90506001600160e01b03198116156120ce57306001600160a01b031681838660405160240161204c92919061310f565b60408051601f198184030181529181526020820180516001600160e01b03166001600160e01b031990941693909317909252905161208a91906134d0565b5f60405180830381855afa9150503d805f81146120c2576040519150601f19603f3d011682016040523d82523d5f602084013e6120c7565b606091505b5090935091505b82156120dc57815160208301f35b815160208301fd5b5f805f6120f185856124f0565b9250905060ff81161561210957806021858701012092505b509250929050565b604080516001600160e01b03198316602480830191909152825180830390910181526044909101909152602080820180516001600160e01b03166301ffc9a760e01b17815282515f9392849283928392918391908a617530fa92503d91505f519050828015612181575060208210155b801561218c57505f81115b979650505050505050565b60608167ffffffffffffffff8111156121b2576121b2612745565b6040519080825280601f01601f1916602001820160405280156121dc576020820181803683370190505b5090506113b88484835f86612574565b60408051808201909152606080825260208201525f835167ffffffffffffffff81111561221b5761221b612745565b60405190808252806020026020018201604052801561227e57816020015b61226b60405180608001604052805f6001600160a01b0316815260200160608152602001606081526020015f81525090565b8152602001906001900390816122395790505b5090505f5b84518110156122e4575f82828151811061229f5761229f612fe0565b60209081029190910101516001600160a01b038816815286519091508690839081106122cd576122cd612fe0565b602090810291909101810151910152600101612283565b506040805180820190915290815260208101929092525092915050565b5b601f811115612322578151835260209283019290910190601f1901612302565b80156112fe5790518251600160209390930360031b9290921b5f190180199091169116179052565b6040805160a0810182525f80825260606020830181905292820183905282820152608081019190915281806020019051810190612387919061392c565b60808601526001600160e01b0319166060850152604084015260208301526001600160a01b03168152919050565b805160609060011b8067ffffffffffffffff8111156123d6576123d6612745565b6040519080825280601f01601f191660200182016040528015612400576020820181803683370190505b50915060208381019083016124168282856125b1565b505050919050565b6060825f60805b60088110612456576001811b8310156124495761244281836139c8565b915061244e565b91821c915b60011c612425565b508380156124645750601082105b15612477576124746004826139c8565b90505b5f612487600283901c6040613657565b90508067ffffffffffffffff8111156124a2576124a2612745565b6040519080825280601f01601f1916602001820160405280156124cc576020820181803683370190505b5093505f86831b5f526020850190506124e65f82846125b1565b5050505092915050565b5f8083518310612515578360405163ba4adc2360e01b81526004016105c691906129dc565b83838151811061252757612527612fe0565b016020015160f81c9150508181016001018161254757835181141561254d565b83518110155b1561256d578360405163ba4adc2360e01b81526004016105c691906129dc565b9250929050565b6125878561258283876139c8565b612614565b6125958361258283856139c8565b6125aa82602085010185602088010183612301565b5050505050565b8181015b808310156104035783516101005b82851080156125d157505f81115b156126075760031901600f82821c16600a81106125f157806057016125f6565b806030015b9050808653506001909401936125c3565b50506020840193506125b5565b81518111156113835781516040517f8a3c1cfb0000000000000000000000000000000000000000000000000000000081526105c6918391600401918252602082015260400190565b6001600160e01b03198116811461135f575f80fd5b5f60208284031215612681575f80fd5b81356113b88161265c565b5f8083601f84011261269c575f80fd5b50813567ffffffffffffffff8111156126b3575f80fd5b60208301915083602082850101111561256d575f80fd5b5f805f80604085870312156126dd575f80fd5b843567ffffffffffffffff808211156126f4575f80fd5b6127008883890161268c565b90965094506020870135915080821115612718575f80fd5b506127258782880161268c565b95989497509550505050565b6001600160a01b038116811461135f575f80fd5b634e487b7160e01b5f52604160045260245ffd5b6040805190810167ffffffffffffffff8111828210171561277c5761277c612745565b60405290565b6040516080810167ffffffffffffffff8111828210171561277c5761277c612745565b60405160c0810167ffffffffffffffff8111828210171561277c5761277c612745565b604051601f8201601f1916810167ffffffffffffffff811182821017156127f1576127f1612745565b604052919050565b5f67ffffffffffffffff82111561281257612812612745565b5060051b60200190565b5f67ffffffffffffffff82111561283557612835612745565b50601f01601f191660200190565b5f82601f830112612852575f80fd5b81356128656128608261281c565b6127c8565b818152846020838601011115612879575f80fd5b816020850160208301375f918101602001919091529392505050565b5f82601f8301126128a4575f80fd5b813560206128b4612860836127f9565b82815260059290921b840181019181810190868411156128d2575f80fd5b8286015b8481101561077257803567ffffffffffffffff8111156128f4575f80fd5b6129028986838b0101612843565b8452509183019183016128d6565b5f805f805f8060808789031215612925575f80fd5b863561293081612731565b9550602087013567ffffffffffffffff8082111561294c575f80fd5b6129588a838b0161268c565b90975095506040890135915080821115612970575f80fd5b61297c8a838b0161268c565b90955093506060890135915080821115612994575f80fd5b506129a189828a01612895565b9150509295509295509295565b5f81518084528060208401602086015e5f602082860101526020601f19601f83011685010191505092915050565b602081525f6113b860208301846129ae565b5f805f60408486031215612a00575f80fd5b833567ffffffffffffffff80821115612a17575f80fd5b612a2387838801612843565b94506020860135915080821115612a38575f80fd5b50612a458682870161268c565b9497909650939450505050565b606081525f612a6460608301866129ae565b6001600160a01b0394851660208401529290931660409091015292915050565b5f805f60408486031215612a96575f80fd5b833567ffffffffffffffff811115612aac575f80fd5b612ab88682870161268c565b909790965060209590950135949350505050565b604081525f612ade60408301856129ae565b90506001600160a01b03831660208301529392505050565b5f6020808385031215612b07575f80fd5b823567ffffffffffffffff80821115612b1e575f80fd5b9084019060408287031215612b31575f80fd5b612b39612759565b823582811115612b47575f80fd5b8301601f81018813612b57575f80fd5b8035612b65612860826127f9565b81815260059190911b8201860190868101908a831115612b83575f80fd5b8784015b83811015612c2b57803587811115612b9d575f80fd5b85016080818e03601f19011215612bb2575f80fd5b612bba612782565b8a820135612bc781612731565b8152604082013589811115612bda575f80fd5b612be88f8d83860101612843565b8c83015250606082013589811115612bfe575f80fd5b612c0c8f8d83860101612843565b6040830152506080919091013560608201528352918801918801612b87565b5084525050508284013582811115612c41575f80fd5b612c4d88828601612895565b948201949094529695505050505050565b5f8282518085526020808601955060208260051b840101602086015f5b84811015612ca957601f19868403018952612c978383516129ae565b98840198925090830190600101612c7b565b5090979650505050505050565b5f602080835260608084018551604080858801528282518085526080945060808901915060808160051b8a010187850194505f5b82811015612d5457607f198b830301845285516001600160a01b03815116835289810151888b850152612d1f898501826129ae565b90508682015184820388860152612d3682826129ae565b928b0151948b01949094525095890195938901939150600101612cea565b50968a0151898803601f190160408b015296612d708189612c5e565b9b9a5050505050505050505050565b5f805f805f60608688031215612d93575f80fd5b853567ffffffffffffffff80821115612daa575f80fd5b612db689838a0161268c565b90975095506020880135915080821115612dce575f80fd5b612dda89838a0161268c565b90955093506040880135915080821115612df2575f80fd5b50612dff88828901612895565b9150509295509295909350565b5f60208284031215612e1c575f80fd5b813567ffffffffffffffff811115612e32575f80fd5b612e3e84828501612843565b949350505050565b5f805f8060608587031215612e59575f80fd5b843567ffffffffffffffff80821115612e70575f80fd5b612e7c8883890161268c565b9096509450602087013593506040870135915080821115612e9b575f80fd5b50612ea887828801612895565b91505092959194509250565b602081525f825160a06020840152612ecf60c08401826129ae565b905060208401516040840152604084015160608401526001600160a01b0360608501511660808401526080840151151560a08401528091505092915050565b5f8060408385031215612f1f575f80fd5b823567ffffffffffffffff80821115612f36575f80fd5b612f4286838701612843565b93506020850135915080821115612f57575f80fd5b50612f6485828601612843565b9150509250929050565b801515811461135f575f80fd5b5f805f8060808587031215612f8e575f80fd5b8435612f9981612f6e565b93506020850135612fa981612f6e565b92506040850135612fb98161265c565b9150606085013567ffffffffffffffff811115612fd4575f80fd5b612ea887828801612843565b634e487b7160e01b5f52603260045260245ffd5b5f6130016128608461281c565b9050828152838383011115613014575f80fd5b8282602083015e5f602084830101529392505050565b5f82601f830112613039575f80fd5b6113b883835160208501612ff4565b5f60208284031215613058575f80fd5b815167ffffffffffffffff81111561306e575f80fd5b612e3e8482850161302a565b5f60208083016020845280855180835260408601915060408160051b8701019250602087015f5b828110156130cf57603f198886030184526130bd8583516129ae565b945092850192908501906001016130a1565b5092979650505050505050565b5f815160208301516001600160e01b0319808216935060048310156124165760049290920360031b82901b161692915050565b604081525f61312160408301856129ae565b828103602084015261313381856129ae565b95945050505050565b5f805f806080858703121561314f575f80fd5b843561315a81612f6e565b93506020850135612fa98161265c565b5f6080828403121561317a575f80fd5b613182612782565b9050813567ffffffffffffffff8082111561319b575f80fd5b6131a785838601612843565b83526020840135602084015260408401359150808211156131c6575f80fd5b506131d384828501612895565b60408301525060608201356131e781612731565b606082015292915050565b5f60208284031215613202575f80fd5b813567ffffffffffffffff811115613218575f80fd5b612e3e8482850161316a565b5f81516080845261323860808501826129ae565b9050602083015160208501526040830151848203604086015261325b8282612c5e565b9150506001600160a01b0360608401511660608501528091505092915050565b606081525f61328d6060830186613224565b828103602084015261329f81866129ae565b9150506001600160a01b0383166040830152949350505050565b5f82601f8301126132c8575f80fd5b815160206132d8612860836127f9565b82815260059290921b840181019181810190868411156132f6575f80fd5b8286015b8481101561077257805167ffffffffffffffff811115613318575f80fd5b8701603f81018913613328575f80fd5b613339898683015160408401612ff4565b8452509183019183016132fa565b5f60208284031215613357575f80fd5b815167ffffffffffffffff81111561336d575f80fd5b612e3e848285016132b9565b5f805f6060848603121561338b575f80fd5b833567ffffffffffffffff808211156133a2575f80fd5b6133ae8783880161316a565b945060208601359150808211156133c3575f80fd5b506133d086828701612843565b92505060408401356133e181612731565b809150509250925092565b5f602082840312156133fc575f80fd5b81356113b881612731565b5f8060408385031215613418575f80fd5b823567ffffffffffffffff8082111561342f575f80fd5b818501915085601f830112613442575f80fd5b81356020613452612860836127f9565b82815260059290921b84018101918181019089841115613470575f80fd5b948201945b8386101561349757853561348881612f6e565b82529482019490820190613475565b965050860135925050808211156134ac575f80fd5b50612f6485828601612895565b5f81518060208401855e5f93019283525090919050565b5f6113b882846134b9565b634e487b7160e01b5f52601160045260245ffd5b5f60018201613500576135006134db565b5060010190565b602081525f6113b86020830184613224565b805161127981612731565b80516112798161265c565b5f6020828403121561353f575f80fd5b815167ffffffffffffffff80821115613556575f80fd5b9083019060c08286031215613569575f80fd5b6135716127a5565b61357a83613519565b815261358860208401613524565b602082015260408301518281111561359e575f80fd5b6135aa8782860161302a565b6040830152506135bc60608401613524565b60608201526135cd60808401613524565b608082015260a0830151828111156135e3575f80fd5b6135ef8782860161302a565b60a08301525095945050505050565b5f6020828403121561360e575f80fd5b81516113b881612f6e565b84151581525f6001600160e01b031980861660208401528085166040840152506080606083015261364d60808301846129ae565b9695505050505050565b818103818111156103bf576103bf6134db565b5f602080838503121561367b575f80fd5b825167ffffffffffffffff80821115613692575f80fd5b818501915085601f8301126136a5575f80fd5b81516136b3612860826127f9565b81815260059190911b830184019084810190888311156136d1575f80fd5b8585015b83811015613707578051858111156136eb575f80fd5b6136f98b89838a010161302a565b8452509186019186016136d5565b5098975050505050505050565b841515815283151560208201526001600160e01b031983166040820152608060608201525f61364d60808301846129ae565b5f60208083018184528085518083526040925060408601915060408160051b8701018488015f5b838110156137d257603f19898403018552815160606001600160a01b03825116855288820151818a8701526137a482870182612c5e565b915050878201519150848103888601526137be81836129ae565b96890196945050509086019060010161376d565b509098975050505050505050565b6001600160a01b038616815260a060208201525f61380160a0830187612c5e565b828103604084015261381381876129ae565b90506001600160e01b031985166060840152828103608084015261383781856129ae565b98975050505050505050565b5f60208284031215613853575f80fd5b81516113b881612731565b5f61386982886134b9565b7fff00000000000000000000000000000000000000000000000000000000000000808816825261389c60018301886134b9565b9086168152905061383760018201856134b9565b602081526001600160a01b0382511660208201525f60208301516001600160e01b031980821660408501526040850151915060c060608501526138f660e08501836129ae565b91508060608601511660808501528060808601511660a08501525060a0840151601f198483030160c085015261313382826129ae565b5f805f805f60a08688031215613940575f80fd5b855161394b81612731565b602087015190955067ffffffffffffffff80821115613968575f80fd5b61397489838a016132b9565b95506040880151915080821115613989575f80fd5b61399589838a0161302a565b9450606088015191506139a78261265c565b6080880151919350808211156139bb575f80fd5b50612dff8882890161302a565b808201808211156103bf576103bf6134db56fea26469706673582212209adf95aaca90e972164cfae836dbaf4ce672997b714d25c62211447199837fda64736f6c63430008190033",
  "linkReferences": {},
  "deployedLinkReferences": {},
  "immutableReferences": {
    "1090": [
      {
        "length": 32,
        "start": 6707
      }
    ],
    "18324": [
      {
        "length": 32,
        "start": 378
      },
      {
        "length": 32,
        "start": 2413
      },
      {
        "length": 32,
        "start": 2569
      }
    ],
    "20033": [
      {
        "length": 32,
        "start": 585
      },
      {
        "length": 32,
        "start": 3609
      }
    ]
  },
  "inputSourceName": "project/lib/ens-contracts/contracts/universalResolver/UniversalResolver.sol",
  "devdoc": {
    "errors": {
      "DNSDecodingFailed(bytes)": [
        {
          "details": "The DNS-encoded name is malformed.      Error selector: `0xba4adc23`"
        }
      ],
      "DNSEncodingFailed(string)": [
        {
          "details": "A label of the ENS name has an invalid size.      Error selector: `0x9a4c3e3b`"
        }
      ],
      "EmptyAddress()": [
        {
          "details": "The supplied address was `0x`.      Error selector: `0x7138356f`"
        }
      ],
      "HttpError(uint16,string)": [
        {
          "details": "Error selector: `0x01800152`"
        }
      ],
      "InvalidBatchGatewayResponse()": [
        {
          "details": "Error selector: `0x4a5c31ea`"
        }
      ],
      "OffchainLookup(address,string[],bytes,bytes4,bytes)": [
        {
          "details": "https://eips.ethereum.org/EIPS/eip-3668 Error selector: `0x556f1830`"
        }
      ],
      "OffsetOutOfBoundsError(uint256,uint256)": [
        {
          "details": "`offset` was beyond `length`.       Error selector: `0x8a3c1cfb`"
        }
      ],
      "ResolverError(bytes)": [
        {
          "details": "Error selector: `0x95c0c752`"
        }
      ],
      "ResolverNotContract(bytes,address)": [
        {
          "details": "Error selector: `0x1e9535f2`"
        }
      ],
      "ResolverNotFound(bytes)": [
        {
          "details": "Error selector: `0x77209fe8`"
        }
      ],
      "ReverseAddressMismatch(string,bytes)": [
        {
          "details": "Error selector: `0xef9c03ce`"
        }
      ],
      "UnsupportedResolverProfile(bytes4)": [
        {
          "details": "Error selector: `0x7b1c461b`"
        }
      ]
    },
    "kind": "dev",
    "methods": {
      "ccipBatch(((address,bytes,bytes,uint256)[],string[]))": {
        "details": "Use `ccipRead()` to call this function with a batch.      The callback response will be `abi.encode(batch)`."
      },
      "ccipBatchCallback(bytes,bytes)": {
        "details": "CCIP-Read callback for `ccipBatch()`.      Updates `batch` using the batch gateway response. Reverts again if not \"done\".",
        "params": {
          "extraData": "The contextual data passed from `ccipBatch()`.",
          "response": "The response from the batch gateway."
        },
        "returns": {
          "batch": "The batch where every lookup is \"done\"."
        }
      },
      "ccipReadCallback(bytes,bytes)": {
        "details": "CCIP-Read callback for `ccipRead()`.The return type of this function is polymorphic depending on the caller.",
        "params": {
          "extraData": "The contextual data passed from `ccipRead()`.",
          "response": "The response from offchain."
        }
      },
      "findResolver(bytes)": {
        "details": "Find the resolver address for `name`.      Does not perform any validity checks on the resolver.",
        "params": {
          "name": "The name to search."
        },
        "returns": {
          "_0": "The resolver or `address(0)` if not found.",
          "_1": "The namehash of `name`.",
          "_2": "The offset into `name` corresponding to `resolver`."
        }
      },
      "requireResolver(bytes)": {
        "details": "Returns a valid resolver for `name` or reverts.",
        "params": {
          "name": "The name to search."
        },
        "returns": {
          "info": "The resolver information."
        }
      },
      "resolveBatchCallback(bytes,bytes)": {
        "details": "CCIP-Read callback for `_callResolver()` from calling the batch gateway successfully."
      },
      "resolveCallback(bytes,bytes)": {
        "details": "CCIP-Read callback for `resolveWithGateways()`.",
        "params": {
          "extraData": "The contextual data passed from `resolveWith*()`.",
          "response": "The response from the resolver."
        }
      },
      "resolveDirectCallback(bytes,bytes)": {
        "details": "CCIP-Read callback for `_callResolver()` from calling the resolver successfully."
      },
      "resolveDirectCallbackError(bytes,bytes)": {
        "details": "CCIP-Read callback for `_callResolver()` from calling the resolver unsuccessfully."
      },
      "resolveWithGateways(bytes,bytes,string[])": {
        "details": "This function executes over multiple steps.",
        "params": {
          "data": "The resolution data, as specified in ENSIP-10.",
          "gateways": "The list of batch gateway URLs to use.",
          "name": "The name to resolve, in normalised and DNS-encoded form."
        },
        "returns": {
          "resolver": "The address of the resolver that supplied `result`.",
          "result": "The encoded response for the requested call."
        }
      },
      "reverseAddressCallback(bytes,bytes)": {
        "details": "CCIP-Read callback for `reverseNameCallback()`.      Reverts `ReverseAddressMismatch`.",
        "params": {
          "extraData": "The contextual data passed from `reverseNameCallback()`.",
          "response": "The abi-encoded `addr()` response from the forward resolver."
        }
      },
      "reverseNameCallback(bytes,bytes)": {
        "details": "CCIP-Read callback for `reverseWithGateways()`.",
        "params": {
          "extraData": "The contextual data passed from `reverseWithGateways()`.",
          "response": "The abi-encoded `name()` response from the reverse resolver."
        }
      },
      "reverseWithGateways(bytes,uint256,string[])": {
        "details": "This function executes over multiple steps.",
        "params": {
          "coinType": "The coin type.",
          "gateways": "The list of batch gateway URLs to use.",
          "lookupAddress": "The input address."
        },
        "returns": {
          "primary": "The resolved primary name.",
          "resolver": "The resolver address for primary name.",
          "reverseResolver": "The resolver address for the reverse name."
        }
      },
      "supportsInterface(bytes4)": {
        "details": "See {IERC165-supportsInterface}."
      }
    },
    "version": 1
  },
  "evm": {
    "gasEstimates": {
      "creation": {
        "codeDepositCost": "2973000",
        "executionCost": "infinite",
        "totalCost": "infinite"
      },
      "external": {
        "batchGatewayProvider()": "infinite",
        "ccipBatch(((address,bytes,bytes,uint256)[],string[]))": "infinite",
        "ccipBatchCallback(bytes,bytes)": "infinite",
        "ccipReadCallback(bytes,bytes)": "infinite",
        "findResolver(bytes)": "infinite",
        "registry()": "infinite",
        "requireResolver(bytes)": "infinite",
        "resolve(bytes,bytes)": "infinite",
        "resolveBatchCallback(bytes,bytes)": "infinite",
        "resolveCallback(bytes,bytes)": "infinite",
        "resolveDirectCallback(bytes,bytes)": "infinite",
        "resolveDirectCallbackError(bytes,bytes)": "infinite",
        "resolveWithGateways(bytes,bytes,string[])": "infinite",
        "resolveWithResolver(address,bytes,bytes,string[])": "infinite",
        "reverse(bytes,uint256)": "infinite",
        "reverseAddressCallback(bytes,bytes)": "infinite",
        "reverseNameCallback(bytes,bytes)": "infinite",
        "reverseWithGateways(bytes,uint256,string[])": "infinite",
        "supportsInterface(bytes4)": "470"
      }
    }
  },
  "storageLayout": {
    "storage": [],
    "types": null
  },
  "userdoc": {
    "errors": {
      "HttpError(uint16,string)": [
        {
          "notice": "An HTTP error occurred on a resolving gateway."
        }
      ],
      "InvalidBatchGatewayResponse()": [
        {
          "notice": "The batch gateway supplied an incorrect number of responses."
        }
      ],
      "ResolverError(bytes)": [
        {
          "notice": "The resolver returned an error."
        }
      ],
      "ResolverNotContract(bytes,address)": [
        {
          "notice": "The resolver is not a contract."
        }
      ],
      "ResolverNotFound(bytes)": [
        {
          "notice": "A resolver could not be found for the supplied name."
        }
      ],
      "ReverseAddressMismatch(string,bytes)": [
        {
          "notice": "The resolved address from reverse resolution does not match the supplied address."
        }
      ],
      "UnsupportedResolverProfile(bytes4)": [
        {
          "notice": "The resolver did not respond."
        }
      ]
    },
    "kind": "user",
    "methods": {
      "resolve(bytes,bytes)": {
        "notice": "Same as `resolveWithGateways()` but uses default batch gateways."
      },
      "resolveWithGateways(bytes,bytes,string[])": {
        "notice": "Performs ENS resolution process for the supplied name and resolution data.         Caller should enable EIP-3668."
      },
      "resolveWithResolver(address,bytes,bytes,string[])": {
        "notice": "Same as `resolveWithGateways()` but uses the supplied resolver."
      },
      "reverse(bytes,uint256)": {
        "notice": "Same as `reverseWithGateways()` but uses default batch gateways."
      },
      "reverseWithGateways(bytes,uint256,string[])": {
        "notice": "Performs ENS reverse resolution for the supplied address and coin type.         Caller should enable EIP-3668."
      }
    },
    "version": 1
  },
  "argsData": "0x00000000000000000000000070997970c51812dc3a010c7d01b50e0d17dc79c8000000000000000000000000cf7ed3acca5a467e9e704c703e8d87f634fb0fc9000000000000000000000000dc64a140aa3e981100a9beca4e685f962f0cf6c9",
  "transaction": {
    "hash": "0x011ab11d502968c8ca588b96f902e8ff5cf0a585c3c3784356fb2f8c89186033",
    "nonce": "0x52",
    "origin": "0xf39fd6e51aad88f6f4ce6ab8827279cfffb92266"
  }
}