{
  "address": "0x162a433068f51e18b7d13932f27e66a3f99e6890",
  "abi": [
    {
      "inputs": [
        {
          "internalType": "address",
          "name": "admin_",
          "type": "address"
        },
        {
          "internalType": "address",
          "name": "implementation_",
          "type": "address"
        }
      ],
      "stateMutability": "nonpayable",
      "type": "constructor"
    },
    {
      "inputs": [],
      "name": "CallerNotAdmin",
      "type": "error"
    },
    {
      "inputs": [],
      "name": "InvalidImplementation",
      "type": "error"
    },
    {
      "inputs": [
        {
          "internalType": "address",
          "name": "sender",
          "type": "address"
        },
        {
          "internalType": "string[]",
          "name": "urls",
          "type": "string[]"
        },
        {
          "internalType": "bytes",
          "name": "callData",
          "type": "bytes"
        },
        {
          "internalType": "bytes4",
          "name": "callbackFunction",
          "type": "bytes4"
        },
        {
          "internalType": "bytes",
          "name": "extraData",
          "type": "bytes"
        }
      ],
      "name": "OffchainLookup",
      "type": "error"
    },
    {
      "inputs": [
        {
          "internalType": "uint256",
          "name": "offset",
          "type": "uint256"
        },
        {
          "internalType": "uint256",
          "name": "length",
          "type": "uint256"
        }
      ],
      "name": "OffsetOutOfBoundsError",
      "type": "error"
    },
    {
      "inputs": [],
      "name": "SameImplementation",
      "type": "error"
    },
    {
      "anonymous": false,
      "inputs": [
        {
          "indexed": true,
          "internalType": "address",
          "name": "previousAdmin",
          "type": "address"
        },
        {
          "indexed": true,
          "internalType": "address",
          "name": "newAdmin",
          "type": "address"
        }
      ],
      "name": "AdminChanged",
      "type": "event"
    },
    {
      "anonymous": false,
      "inputs": [
        {
          "indexed": true,
          "internalType": "address",
          "name": "admin",
          "type": "address"
        }
      ],
      "name": "AdminRemoved",
      "type": "event"
    },
    {
      "anonymous": false,
      "inputs": [
        {
          "indexed": true,
          "internalType": "address",
          "name": "implementation",
          "type": "address"
        }
      ],
      "name": "Upgraded",
      "type": "event"
    },
    {
      "stateMutability": "nonpayable",
      "type": "fallback"
    },
    {
      "inputs": [],
      "name": "admin",
      "outputs": [
        {
          "internalType": "address",
          "name": "",
          "type": "address"
        }
      ],
      "stateMutability": "view",
      "type": "function"
    },
    {
      "inputs": [],
      "name": "implementation",
      "outputs": [
        {
          "internalType": "address",
          "name": "",
          "type": "address"
        }
      ],
      "stateMutability": "view",
      "type": "function"
    },
    {
      "inputs": [],
      "name": "renounceAdmin",
      "outputs": [],
      "stateMutability": "nonpayable",
      "type": "function"
    },
    {
      "inputs": [
        {
          "internalType": "address",
          "name": "newImplementation",
          "type": "address"
        }
      ],
      "name": "upgradeTo",
      "outputs": [],
      "stateMutability": "nonpayable",
      "type": "function"
    }
  ],
  "contractName": "UpgradableUniversalResolverProxy",
  "sourceName": "src/universalResolver/UpgradableUniversalResolverProxy.sol",
  "bytecode": "0x608060405234801561000f575f80fd5b50604051610c26380380610c2683398101604081905261002e9161019b565b6100378161006e565b5f80516020610c0683398151915280546001600160a01b0319166001600160a01b038316179055610067826100e6565b50506101cc565b6001600160a01b038116158061008c57506001600160a01b0381163b155b156100aa5760405163340aafcd60e11b815260040160405180910390fd5b6001600160a01b0381166100bc61014d565b6001600160a01b0316036100e357604051634c3b76bf60e01b815260040160405180910390fd5b50565b5f6100ef61016c565b9050815f80516020610be683398151915280546001600160a01b0319166001600160a01b03928316179055604051838216918316907f7e644d79422f17c01e4894b5f4f588d331ebfa28653d42ae832dc59e38c9798f905f90a35050565b5f5f80516020610c068339815191525b546001600160a01b0316919050565b5f5f80516020610be683398151915261015d565b80516001600160a01b0381168114610196575f80fd5b919050565b5f80604083850312156101ac575f80fd5b6101b583610180565b91506101c360208401610180565b90509250929050565b610a0d806101d95f395ff3fe608060405234801561000f575f80fd5b506004361061004a575f3560e01c80633659cfe6146101765780635c60da1b146101895780638bad0c0a146101ad578063f851a440146101b5575b5f806100546101bd565b6001600160a01b03165f3660405161006d929190610639565b5f60405180830381855afa9150503d805f81146100a5576040519150601f19603f3d011682016040523d82523d5f602084013e6100aa565b606091505b5091509150811580156100d55750630556f18360e41b6100c982610648565b6001600160e01b031916145b1561015e575f6100fb6100f68360048086516100f19190610693565b6101ef565b61024b565b90506101056101bd565b6001600160a01b0316815f01516001600160a01b03160361015c57308160200151826040015183606001518460800151604051630556f18360e41b81526004016101539594939291906106da565b60405180910390fd5b505b811561016c57805160208201f35b805160208201fd5b005b61017461018436600461079a565b6102b6565b610191610375565b6040516001600160a01b03909116815260200160405180910390f35b610174610383565b610191610406565b5f7f360894a13ba1a3210667c828492db98dca3e2076cc3735a920a3ca505d382bbc5b546001600160a01b0316919050565b60608167ffffffffffffffff81111561020a5761020a6107b5565b6040519080825280601f01601f191660200182016040528015610234576020820181803683370190505b5090506102448484835f8661040f565b9392505050565b6040805160a0810182525f808252606060208301819052928201839052828201526080810191909152818060200190518101906102889190610889565b60808601526001600160e01b0319166060850152604084015260208301526001600160a01b03168152919050565b6102be61044c565b6001600160a01b0316336001600160a01b0316146102ef5760405163036c8cf960e11b815260040160405180910390fd5b6102f881610473565b7f360894a13ba1a3210667c828492db98dca3e2076cc3735a920a3ca505d382bbc805473ffffffffffffffffffffffffffffffffffffffff19166001600160a01b0383161790556040516001600160a01b038216907fbc7cd75a20ee27fd9adebab32041f755214dbc6bffa90cc0225b39da2e5c2d3b905f90a250565b5f61037e6101bd565b905090565b61038b61044c565b6001600160a01b0316336001600160a01b0316146103bc5760405163036c8cf960e11b815260040160405180910390fd5b5f6103c561044c565b90506103d05f61051d565b6040516001600160a01b038216907fa3b62bc36326052d97ea62d63c3d60308ed4c3ea8ac079dd8499f1e9c4f80c0f905f90a250565b5f61037e61044c565b6104228561041d83876109c4565b6105a4565b6104308361041d83856109c4565b610445826020850101856020880101836105f0565b5050505050565b5f7fb53127684a568b3173ae13b9f8a6016e243e63b6e8ee1178d6a717850b5d61036101e0565b6001600160a01b038116158061049157506001600160a01b0381163b155b156104c8576040517f68155f9a00000000000000000000000000000000000000000000000000000000815260040160405180910390fd5b806001600160a01b03166104da6101bd565b6001600160a01b03160361051a576040517f4c3b76bf00000000000000000000000000000000000000000000000000000000815260040160405180910390fd5b50565b5f61052661044c565b9050817fb53127684a568b3173ae13b9f8a6016e243e63b6e8ee1178d6a717850b5d6103805473ffffffffffffffffffffffffffffffffffffffff19166001600160a01b03928316179055604051838216918316907f7e644d79422f17c01e4894b5f4f588d331ebfa28653d42ae832dc59e38c9798f905f90a35050565b81518111156105ec5781516040517f8a3c1cfb000000000000000000000000000000000000000000000000000000008152610153918391600401918252602082015260400190565b5050565b5b601f811115610611578151835260209283019290910190601f19016105f1565b801561063457815183516001602084900360031b1b5f1901801990921691161783525b505050565b818382375f9101908152919050565b5f815160208301516001600160e01b0319808216935060048310156106775780818460040360031b1b83161693505b505050919050565b634e487b7160e01b5f52601160045260245ffd5b818103818111156106a6576106a661067f565b92915050565b5f81518084528060208401602086015e5f602082860101526020601f19601f83011685010191505092915050565b5f60a082016001600160a01b0388168352602060a0602085015281885180845260c08601915060c08160051b870101935060208a015f5b8281101561073f5760bf1988870301845261072d8683516106ac565b95509284019290840190600101610711565b5050505050828103604084015261075681876106ac565b6001600160e01b0319861660608501529050828103608084015261077a81856106ac565b98975050505050505050565b6001600160a01b038116811461051a575f80fd5b5f602082840312156107aa575f80fd5b813561024481610786565b634e487b7160e01b5f52604160045260245ffd5b604051601f8201601f1916810167ffffffffffffffff811182821017156107f2576107f26107b5565b604052919050565b5f67ffffffffffffffff831115610813576108136107b5565b610826601f8401601f19166020016107c9565b9050828152838383011115610839575f80fd5b8282602083015e5f602084830101529392505050565b5f82601f83011261085e575f80fd5b610244838351602085016107fa565b80516001600160e01b031981168114610884575f80fd5b919050565b5f805f805f60a0868803121561089d575f80fd5b85516108a881610786565b8095505060208087015167ffffffffffffffff808211156108c7575f80fd5b818901915089601f8301126108da575f80fd5b8151818111156108ec576108ec6107b5565b8060051b6108fb8582016107c9565b918252838101850191858101908d841115610914575f80fd5b86860192505b8383101561096157825185811115610930575f80fd5b8601603f81018f13610940575f80fd5b6109518f89830151604084016107fa565b835250918601919086019061091a565b60408d0151909a5095505050508083111561097a575f80fd5b6109868a848b0161084f565b955061099460608a0161086d565b945060808901519250808311156109a9575f80fd5b50506109b78882890161084f565b9150509295509295909350565b808201808211156106a6576106a661067f56fea2646970667358221220535782586edbc60f51e3351bf747ef34a3621cea6746c9051a0aa275427134f164736f6c63430008190033b53127684a568b3173ae13b9f8a6016e243e63b6e8ee1178d6a717850b5d6103360894a13ba1a3210667c828492db98dca3e2076cc3735a920a3ca505d382bbc",
  "linkReferences": {},
  "deployedLinkReferences": {},
  "immutableReferences": {},
  "inputSourceName": "project/src/universalResolver/UpgradableUniversalResolverProxy.sol",
  "devdoc": {
    "details": "A specialized proxy for UniversalResolver that forwards method calls and properly handles CCIP-Read reverts. Admin can upgrade the implementation.",
    "errors": {
      "OffchainLookup(address,string[],bytes,bytes4,bytes)": [
        {
          "details": "https://eips.ethereum.org/EIPS/eip-3668 Error selector: `0x556f1830`"
        }
      ],
      "OffsetOutOfBoundsError(uint256,uint256)": [
        {
          "details": "`offset` was beyond `length`.       Error selector: `0x8a3c1cfb`"
        }
      ]
    },
    "kind": "dev",
    "methods": {
      "admin()": {
        "details": "Returns the current admin address."
      },
      "constructor": {
        "details": "Initializes the proxy with an implementation and admin."
      },
      "implementation()": {
        "details": "Returns the current implementation address."
      },
      "renounceAdmin()": {
        "details": "Allows admin to revoke their admin rights by setting admin to address(0)."
      },
      "upgradeTo(address)": {
        "details": "Upgrades to a new implementation.",
        "params": {
          "newImplementation": "Address of the new implementation"
        }
      }
    },
    "title": "UpgradableUniversalResolverProxy",
    "version": 1
  },
  "evm": {
    "gasEstimates": {
      "creation": {
        "codeDepositCost": "514600",
        "executionCost": "infinite",
        "totalCost": "infinite"
      },
      "external": {
        "": "infinite",
        "admin()": "2430",
        "implementation()": "2375",
        "renounceAdmin()": "infinite",
        "upgradeTo(address)": "infinite"
      },
      "internal": {
        "_getAdmin()": "2152",
        "_getImplementation()": "2141",
        "_setAdmin(address)": "27982",
        "_setImplementation(address)": "infinite",
        "_validateImplementation(address)": "infinite"
      }
    }
  },
  "storageLayout": {
    "storage": [],
    "types": null
  },
  "userdoc": {
    "kind": "user",
    "methods": {},
    "version": 1
  },
  "argsData": "0x00000000000000000000000070997970c51812dc3a010c7d01b50e0d17dc79c8000000000000000000000000b0d4afd8879ed9f52b28595d31b441d079b2ca07",
  "transaction": {
    "hash": "0x56e94afe7cc956cbea878660c3869654647162a2396f219464ed144e81798e21",
    "nonce": "0x3f",
    "origin": "0xf39fd6e51aad88f6f4ce6ab8827279cfffb92266"
  }
}