{
  "address": "0x1429859428c0abc9c2c47c8ee9fbaf82cfa0f20f",
  "abi": [
    {
      "inputs": [
        {
          "internalType": "contract IRegistryDatastore",
          "name": "datastore_",
          "type": "address"
        },
        {
          "internalType": "contract IHCAFactoryBasic",
          "name": "hcaFactory_",
          "type": "address"
        },
        {
          "internalType": "contract IRegistryMetadata",
          "name": "metadataProvider_",
          "type": "address"
        }
      ],
      "stateMutability": "nonpayable",
      "type": "constructor"
    },
    {
      "inputs": [
        {
          "internalType": "uint256",
          "name": "tokenId",
          "type": "uint256"
        },
        {
          "internalType": "address",
          "name": "owner",
          "type": "address"
        },
        {
          "internalType": "address",
          "name": "caller",
          "type": "address"
        }
      ],
      "name": "AccessDenied",
      "type": "error"
    },
    {
      "inputs": [
        {
          "internalType": "address",
          "name": "target",
          "type": "address"
        }
      ],
      "name": "AddressEmptyCode",
      "type": "error"
    },
    {
      "inputs": [
        {
          "internalType": "uint64",
          "name": "oldExpiration",
          "type": "uint64"
        },
        {
          "internalType": "uint64",
          "name": "newExpiration",
          "type": "uint64"
        }
      ],
      "name": "CannotReduceExpiration",
      "type": "error"
    },
    {
      "inputs": [
        {
          "internalType": "uint64",
          "name": "expiry",
          "type": "uint64"
        }
      ],
      "name": "CannotSetPastExpiration",
      "type": "error"
    },
    {
      "inputs": [
        {
          "internalType": "uint256",
          "name": "resource",
          "type": "uint256"
        },
        {
          "internalType": "uint256",
          "name": "roleBitmap",
          "type": "uint256"
        },
        {
          "internalType": "address",
          "name": "account",
          "type": "address"
        }
      ],
      "name": "EACCannotGrantRoles",
      "type": "error"
    },
    {
      "inputs": [
        {
          "internalType": "uint256",
          "name": "resource",
          "type": "uint256"
        },
        {
          "internalType": "uint256",
          "name": "roleBitmap",
          "type": "uint256"
        },
        {
          "internalType": "address",
          "name": "account",
          "type": "address"
        }
      ],
      "name": "EACCannotRevokeRoles",
      "type": "error"
    },
    {
      "inputs": [],
      "name": "EACInvalidAccount",
      "type": "error"
    },
    {
      "inputs": [
        {
          "internalType": "uint256",
          "name": "roleBitmap",
          "type": "uint256"
        }
      ],
      "name": "EACInvalidRoleBitmap",
      "type": "error"
    },
    {
      "inputs": [
        {
          "internalType": "uint256",
          "name": "resource",
          "type": "uint256"
        },
        {
          "internalType": "uint256",
          "name": "role",
          "type": "uint256"
        }
      ],
      "name": "EACMaxAssignees",
      "type": "error"
    },
    {
      "inputs": [
        {
          "internalType": "uint256",
          "name": "resource",
          "type": "uint256"
        },
        {
          "internalType": "uint256",
          "name": "role",
          "type": "uint256"
        }
      ],
      "name": "EACMinAssignees",
      "type": "error"
    },
    {
      "inputs": [],
      "name": "EACRootResourceNotAllowed",
      "type": "error"
    },
    {
      "inputs": [
        {
          "internalType": "uint256",
          "name": "resource",
          "type": "uint256"
        },
        {
          "internalType": "uint256",
          "name": "roleBitmap",
          "type": "uint256"
        },
        {
          "internalType": "address",
          "name": "account",
          "type": "address"
        }
      ],
      "name": "EACUnauthorizedAccountRoles",
      "type": "error"
    },
    {
      "inputs": [
        {
          "internalType": "address",
          "name": "sender",
          "type": "address"
        },
        {
          "internalType": "uint256",
          "name": "balance",
          "type": "uint256"
        },
        {
          "internalType": "uint256",
          "name": "needed",
          "type": "uint256"
        },
        {
          "internalType": "uint256",
          "name": "tokenId",
          "type": "uint256"
        }
      ],
      "name": "ERC1155InsufficientBalance",
      "type": "error"
    },
    {
      "inputs": [
        {
          "internalType": "address",
          "name": "approver",
          "type": "address"
        }
      ],
      "name": "ERC1155InvalidApprover",
      "type": "error"
    },
    {
      "inputs": [
        {
          "internalType": "uint256",
          "name": "idsLength",
          "type": "uint256"
        },
        {
          "internalType": "uint256",
          "name": "valuesLength",
          "type": "uint256"
        }
      ],
      "name": "ERC1155InvalidArrayLength",
      "type": "error"
    },
    {
      "inputs": [
        {
          "internalType": "address",
          "name": "operator",
          "type": "address"
        }
      ],
      "name": "ERC1155InvalidOperator",
      "type": "error"
    },
    {
      "inputs": [
        {
          "internalType": "address",
          "name": "receiver",
          "type": "address"
        }
      ],
      "name": "ERC1155InvalidReceiver",
      "type": "error"
    },
    {
      "inputs": [
        {
          "internalType": "address",
          "name": "sender",
          "type": "address"
        }
      ],
      "name": "ERC1155InvalidSender",
      "type": "error"
    },
    {
      "inputs": [
        {
          "internalType": "address",
          "name": "operator",
          "type": "address"
        },
        {
          "internalType": "address",
          "name": "owner",
          "type": "address"
        }
      ],
      "name": "ERC1155MissingApprovalForAll",
      "type": "error"
    },
    {
      "inputs": [
        {
          "internalType": "address",
          "name": "implementation",
          "type": "address"
        }
      ],
      "name": "ERC1967InvalidImplementation",
      "type": "error"
    },
    {
      "inputs": [],
      "name": "ERC1967NonPayable",
      "type": "error"
    },
    {
      "inputs": [],
      "name": "FailedCall",
      "type": "error"
    },
    {
      "inputs": [],
      "name": "InvalidInitialization",
      "type": "error"
    },
    {
      "inputs": [],
      "name": "InvalidOwner",
      "type": "error"
    },
    {
      "inputs": [
        {
          "internalType": "string",
          "name": "label",
          "type": "string"
        }
      ],
      "name": "NameAlreadyRegistered",
      "type": "error"
    },
    {
      "inputs": [
        {
          "internalType": "uint256",
          "name": "tokenId",
          "type": "uint256"
        }
      ],
      "name": "NameExpired",
      "type": "error"
    },
    {
      "inputs": [],
      "name": "NotInitializing",
      "type": "error"
    },
    {
      "inputs": [
        {
          "internalType": "uint256",
          "name": "tokenId",
          "type": "uint256"
        },
        {
          "internalType": "address",
          "name": "from",
          "type": "address"
        }
      ],
      "name": "TransferDisallowed",
      "type": "error"
    },
    {
      "inputs": [],
      "name": "UUPSUnauthorizedCallContext",
      "type": "error"
    },
    {
      "inputs": [
        {
          "internalType": "bytes32",
          "name": "slot",
          "type": "bytes32"
        }
      ],
      "name": "UUPSUnsupportedProxiableUUID",
      "type": "error"
    },
    {
      "anonymous": false,
      "inputs": [
        {
          "indexed": true,
          "internalType": "address",
          "name": "owner",
          "type": "address"
        },
        {
          "indexed": true,
          "internalType": "address",
          "name": "approved",
          "type": "address"
        },
        {
          "indexed": true,
          "internalType": "uint256",
          "name": "tokenId",
          "type": "uint256"
        }
      ],
      "name": "Approval",
      "type": "event"
    },
    {
      "anonymous": false,
      "inputs": [
        {
          "indexed": true,
          "internalType": "address",
          "name": "account",
          "type": "address"
        },
        {
          "indexed": true,
          "internalType": "address",
          "name": "operator",
          "type": "address"
        },
        {
          "indexed": false,
          "internalType": "bool",
          "name": "approved",
          "type": "bool"
        }
      ],
      "name": "ApprovalForAll",
      "type": "event"
    },
    {
      "anonymous": false,
      "inputs": [
        {
          "indexed": true,
          "internalType": "uint256",
          "name": "resource",
          "type": "uint256"
        },
        {
          "indexed": true,
          "internalType": "address",
          "name": "account",
          "type": "address"
        },
        {
          "indexed": false,
          "internalType": "uint256",
          "name": "oldRoleBitmap",
          "type": "uint256"
        },
        {
          "indexed": false,
          "internalType": "uint256",
          "name": "newRoleBitmap",
          "type": "uint256"
        }
      ],
      "name": "EACRolesChanged",
      "type": "event"
    },
    {
      "anonymous": false,
      "inputs": [
        {
          "indexed": true,
          "internalType": "uint256",
          "name": "tokenId",
          "type": "uint256"
        },
        {
          "indexed": false,
          "internalType": "uint64",
          "name": "newExpiry",
          "type": "uint64"
        },
        {
          "indexed": false,
          "internalType": "address",
          "name": "changedBy",
          "type": "address"
        }
      ],
      "name": "ExpiryUpdated",
      "type": "event"
    },
    {
      "anonymous": false,
      "inputs": [
        {
          "indexed": false,
          "internalType": "uint64",
          "name": "version",
          "type": "uint64"
        }
      ],
      "name": "Initialized",
      "type": "event"
    },
    {
      "anonymous": false,
      "inputs": [
        {
          "indexed": true,
          "internalType": "uint256",
          "name": "tokenId",
          "type": "uint256"
        },
        {
          "indexed": false,
          "internalType": "string",
          "name": "label",
          "type": "string"
        },
        {
          "indexed": false,
          "internalType": "uint64",
          "name": "expiry",
          "type": "uint64"
        },
        {
          "indexed": false,
          "internalType": "address",
          "name": "registeredBy",
          "type": "address"
        }
      ],
      "name": "NameRegistered",
      "type": "event"
    },
    {
      "anonymous": false,
      "inputs": [
        {
          "indexed": true,
          "internalType": "uint256",
          "name": "tokenId",
          "type": "uint256"
        },
        {
          "indexed": false,
          "internalType": "address",
          "name": "resolver",
          "type": "address"
        }
      ],
      "name": "ResolverUpdated",
      "type": "event"
    },
    {
      "anonymous": false,
      "inputs": [
        {
          "indexed": true,
          "internalType": "uint256",
          "name": "tokenId",
          "type": "uint256"
        },
        {
          "indexed": false,
          "internalType": "contract IRegistry",
          "name": "subregistry",
          "type": "address"
        }
      ],
      "name": "SubregistryUpdated",
      "type": "event"
    },
    {
      "anonymous": false,
      "inputs": [
        {
          "indexed": true,
          "internalType": "uint256",
          "name": "oldTokenId",
          "type": "uint256"
        },
        {
          "indexed": true,
          "internalType": "uint256",
          "name": "newTokenId",
          "type": "uint256"
        },
        {
          "indexed": false,
          "internalType": "uint256",
          "name": "resource",
          "type": "uint256"
        }
      ],
      "name": "TokenRegenerated",
      "type": "event"
    },
    {
      "anonymous": false,
      "inputs": [
        {
          "indexed": true,
          "internalType": "address",
          "name": "operator",
          "type": "address"
        },
        {
          "indexed": true,
          "internalType": "address",
          "name": "from",
          "type": "address"
        },
        {
          "indexed": true,
          "internalType": "address",
          "name": "to",
          "type": "address"
        },
        {
          "indexed": false,
          "internalType": "uint256[]",
          "name": "ids",
          "type": "uint256[]"
        },
        {
          "indexed": false,
          "internalType": "uint256[]",
          "name": "values",
          "type": "uint256[]"
        }
      ],
      "name": "TransferBatch",
      "type": "event"
    },
    {
      "anonymous": false,
      "inputs": [
        {
          "indexed": true,
          "internalType": "address",
          "name": "operator",
          "type": "address"
        },
        {
          "indexed": true,
          "internalType": "address",
          "name": "from",
          "type": "address"
        },
        {
          "indexed": true,
          "internalType": "address",
          "name": "to",
          "type": "address"
        },
        {
          "indexed": false,
          "internalType": "uint256",
          "name": "id",
          "type": "uint256"
        },
        {
          "indexed": false,
          "internalType": "uint256",
          "name": "value",
          "type": "uint256"
        }
      ],
      "name": "TransferSingle",
      "type": "event"
    },
    {
      "anonymous": false,
      "inputs": [
        {
          "indexed": false,
          "internalType": "string",
          "name": "value",
          "type": "string"
        },
        {
          "indexed": true,
          "internalType": "uint256",
          "name": "id",
          "type": "uint256"
        }
      ],
      "name": "URI",
      "type": "event"
    },
    {
      "anonymous": false,
      "inputs": [
        {
          "indexed": true,
          "internalType": "address",
          "name": "implementation",
          "type": "address"
        }
      ],
      "name": "Upgraded",
      "type": "event"
    },
    {
      "inputs": [],
      "name": "DATASTORE",
      "outputs": [
        {
          "internalType": "contract IRegistryDatastore",
          "name": "",
          "type": "address"
        }
      ],
      "stateMutability": "view",
      "type": "function"
    },
    {
      "inputs": [],
      "name": "HCA_FACTORY",
      "outputs": [
        {
          "internalType": "contract IHCAFactoryBasic",
          "name": "",
          "type": "address"
        }
      ],
      "stateMutability": "view",
      "type": "function"
    },
    {
      "inputs": [],
      "name": "METADATA_PROVIDER",
      "outputs": [
        {
          "internalType": "contract IRegistryMetadata",
          "name": "",
          "type": "address"
        }
      ],
      "stateMutability": "view",
      "type": "function"
    },
    {
      "inputs": [],
      "name": "ROOT_RESOURCE",
      "outputs": [
        {
          "internalType": "uint256",
          "name": "",
          "type": "uint256"
        }
      ],
      "stateMutability": "view",
      "type": "function"
    },
    {
      "inputs": [],
      "name": "UPGRADE_INTERFACE_VERSION",
      "outputs": [
        {
          "internalType": "string",
          "name": "",
          "type": "string"
        }
      ],
      "stateMutability": "view",
      "type": "function"
    },
    {
      "inputs": [
        {
          "internalType": "address",
          "name": "account",
          "type": "address"
        },
        {
          "internalType": "uint256",
          "name": "id",
          "type": "uint256"
        }
      ],
      "name": "balanceOf",
      "outputs": [
        {
          "internalType": "uint256",
          "name": "",
          "type": "uint256"
        }
      ],
      "stateMutability": "view",
      "type": "function"
    },
    {
      "inputs": [
        {
          "internalType": "address[]",
          "name": "accounts",
          "type": "address[]"
        },
        {
          "internalType": "uint256[]",
          "name": "ids",
          "type": "uint256[]"
        }
      ],
      "name": "balanceOfBatch",
      "outputs": [
        {
          "internalType": "uint256[]",
          "name": "",
          "type": "uint256[]"
        }
      ],
      "stateMutability": "view",
      "type": "function"
    },
    {
      "inputs": [
        {
          "internalType": "uint256",
          "name": "anyId",
          "type": "uint256"
        },
        {
          "internalType": "uint256",
          "name": "roleBitmap",
          "type": "uint256"
        }
      ],
      "name": "getAssigneeCount",
      "outputs": [
        {
          "internalType": "uint256",
          "name": "counts",
          "type": "uint256"
        },
        {
          "internalType": "uint256",
          "name": "mask",
          "type": "uint256"
        }
      ],
      "stateMutability": "view",
      "type": "function"
    },
    {
      "inputs": [
        {
          "internalType": "uint256",
          "name": "anyId",
          "type": "uint256"
        }
      ],
      "name": "getEntry",
      "outputs": [
        {
          "components": [
            {
              "internalType": "uint64",
              "name": "expiry",
              "type": "uint64"
            },
            {
              "internalType": "uint32",
              "name": "tokenVersionId",
              "type": "uint32"
            },
            {
              "internalType": "contract IRegistry",
              "name": "subregistry",
              "type": "address"
            },
            {
              "internalType": "uint32",
              "name": "eacVersionId",
              "type": "uint32"
            },
            {
              "internalType": "address",
              "name": "resolver",
              "type": "address"
            }
          ],
          "internalType": "struct IRegistryDatastore.Entry",
          "name": "",
          "type": "tuple"
        }
      ],
      "stateMutability": "view",
      "type": "function"
    },
    {
      "inputs": [
        {
          "internalType": "uint256",
          "name": "anyId",
          "type": "uint256"
        }
      ],
      "name": "getExpiry",
      "outputs": [
        {
          "internalType": "uint64",
          "name": "",
          "type": "uint64"
        }
      ],
      "stateMutability": "view",
      "type": "function"
    },
    {
      "inputs": [
        {
          "internalType": "string",
          "name": "label",
          "type": "string"
        }
      ],
      "name": "getNameData",
      "outputs": [
        {
          "internalType": "uint256",
          "name": "tokenId",
          "type": "uint256"
        },
        {
          "components": [
            {
              "internalType": "uint64",
              "name": "expiry",
              "type": "uint64"
            },
            {
              "internalType": "uint32",
              "name": "tokenVersionId",
              "type": "uint32"
            },
            {
              "internalType": "contract IRegistry",
              "name": "subregistry",
              "type": "address"
            },
            {
              "internalType": "uint32",
              "name": "eacVersionId",
              "type": "uint32"
            },
            {
              "internalType": "address",
              "name": "resolver",
              "type": "address"
            }
          ],
          "internalType": "struct IRegistryDatastore.Entry",
          "name": "entry",
          "type": "tuple"
        }
      ],
      "stateMutability": "view",
      "type": "function"
    },
    {
      "inputs": [
        {
          "internalType": "string",
          "name": "label",
          "type": "string"
        }
      ],
      "name": "getResolver",
      "outputs": [
        {
          "internalType": "address",
          "name": "",
          "type": "address"
        }
      ],
      "stateMutability": "view",
      "type": "function"
    },
    {
      "inputs": [
        {
          "internalType": "uint256",
          "name": "anyId",
          "type": "uint256"
        }
      ],
      "name": "getResource",
      "outputs": [
        {
          "internalType": "uint256",
          "name": "",
          "type": "uint256"
        }
      ],
      "stateMutability": "view",
      "type": "function"
    },
    {
      "inputs": [
        {
          "internalType": "string",
          "name": "label",
          "type": "string"
        }
      ],
      "name": "getSubregistry",
      "outputs": [
        {
          "internalType": "contract IRegistry",
          "name": "",
          "type": "address"
        }
      ],
      "stateMutability": "view",
      "type": "function"
    },
    {
      "inputs": [
        {
          "internalType": "uint256",
          "name": "anyId",
          "type": "uint256"
        }
      ],
      "name": "getTokenId",
      "outputs": [
        {
          "internalType": "uint256",
          "name": "",
          "type": "uint256"
        }
      ],
      "stateMutability": "view",
      "type": "function"
    },
    {
      "inputs": [
        {
          "internalType": "uint256",
          "name": "anyId",
          "type": "uint256"
        },
        {
          "internalType": "uint256",
          "name": "roleBitmap",
          "type": "uint256"
        },
        {
          "internalType": "address",
          "name": "account",
          "type": "address"
        }
      ],
      "name": "grantRoles",
      "outputs": [
        {
          "internalType": "bool",
          "name": "",
          "type": "bool"
        }
      ],
      "stateMutability": "nonpayable",
      "type": "function"
    },
    {
      "inputs": [
        {
          "internalType": "uint256",
          "name": "roleBitmap",
          "type": "uint256"
        },
        {
          "internalType": "address",
          "name": "account",
          "type": "address"
        }
      ],
      "name": "grantRootRoles",
      "outputs": [
        {
          "internalType": "bool",
          "name": "",
          "type": "bool"
        }
      ],
      "stateMutability": "nonpayable",
      "type": "function"
    },
    {
      "inputs": [
        {
          "internalType": "uint256",
          "name": "anyId",
          "type": "uint256"
        },
        {
          "internalType": "uint256",
          "name": "roleBitmap",
          "type": "uint256"
        }
      ],
      "name": "hasAssignees",
      "outputs": [
        {
          "internalType": "bool",
          "name": "",
          "type": "bool"
        }
      ],
      "stateMutability": "view",
      "type": "function"
    },
    {
      "inputs": [
        {
          "internalType": "uint256",
          "name": "anyId",
          "type": "uint256"
        },
        {
          "internalType": "uint256",
          "name": "rolesBitmap",
          "type": "uint256"
        },
        {
          "internalType": "address",
          "name": "account",
          "type": "address"
        }
      ],
      "name": "hasRoles",
      "outputs": [
        {
          "internalType": "bool",
          "name": "",
          "type": "bool"
        }
      ],
      "stateMutability": "view",
      "type": "function"
    },
    {
      "inputs": [
        {
          "internalType": "uint256",
          "name": "rolesBitmap",
          "type": "uint256"
        },
        {
          "internalType": "address",
          "name": "account",
          "type": "address"
        }
      ],
      "name": "hasRootRoles",
      "outputs": [
        {
          "internalType": "bool",
          "name": "",
          "type": "bool"
        }
      ],
      "stateMutability": "view",
      "type": "function"
    },
    {
      "inputs": [
        {
          "internalType": "address",
          "name": "admin",
          "type": "address"
        },
        {
          "internalType": "uint256",
          "name": "roleBitmap",
          "type": "uint256"
        }
      ],
      "name": "initialize",
      "outputs": [],
      "stateMutability": "nonpayable",
      "type": "function"
    },
    {
      "inputs": [
        {
          "internalType": "address",
          "name": "account",
          "type": "address"
        },
        {
          "internalType": "address",
          "name": "operator",
          "type": "address"
        }
      ],
      "name": "isApprovedForAll",
      "outputs": [
        {
          "internalType": "bool",
          "name": "",
          "type": "bool"
        }
      ],
      "stateMutability": "view",
      "type": "function"
    },
    {
      "inputs": [
        {
          "internalType": "uint256",
          "name": "tokenId",
          "type": "uint256"
        }
      ],
      "name": "latestOwnerOf",
      "outputs": [
        {
          "internalType": "address",
          "name": "",
          "type": "address"
        }
      ],
      "stateMutability": "view",
      "type": "function"
    },
    {
      "inputs": [
        {
          "internalType": "uint256",
          "name": "tokenId",
          "type": "uint256"
        }
      ],
      "name": "ownerOf",
      "outputs": [
        {
          "internalType": "address",
          "name": "",
          "type": "address"
        }
      ],
      "stateMutability": "view",
      "type": "function"
    },
    {
      "inputs": [],
      "name": "proxiableUUID",
      "outputs": [
        {
          "internalType": "bytes32",
          "name": "",
          "type": "bytes32"
        }
      ],
      "stateMutability": "view",
      "type": "function"
    },
    {
      "inputs": [
        {
          "internalType": "string",
          "name": "label",
          "type": "string"
        },
        {
          "internalType": "address",
          "name": "owner",
          "type": "address"
        },
        {
          "internalType": "contract IRegistry",
          "name": "registry",
          "type": "address"
        },
        {
          "internalType": "address",
          "name": "resolver",
          "type": "address"
        },
        {
          "internalType": "uint256",
          "name": "roleBitmap",
          "type": "uint256"
        },
        {
          "internalType": "uint64",
          "name": "expires",
          "type": "uint64"
        }
      ],
      "name": "register",
      "outputs": [
        {
          "internalType": "uint256",
          "name": "tokenId",
          "type": "uint256"
        }
      ],
      "stateMutability": "nonpayable",
      "type": "function"
    },
    {
      "inputs": [
        {
          "internalType": "uint256",
          "name": "anyId",
          "type": "uint256"
        },
        {
          "internalType": "uint64",
          "name": "newExpiry",
          "type": "uint64"
        }
      ],
      "name": "renew",
      "outputs": [],
      "stateMutability": "nonpayable",
      "type": "function"
    },
    {
      "inputs": [
        {
          "internalType": "uint256",
          "name": "anyId",
          "type": "uint256"
        },
        {
          "internalType": "uint256",
          "name": "roleBitmap",
          "type": "uint256"
        },
        {
          "internalType": "address",
          "name": "account",
          "type": "address"
        }
      ],
      "name": "revokeRoles",
      "outputs": [
        {
          "internalType": "bool",
          "name": "",
          "type": "bool"
        }
      ],
      "stateMutability": "nonpayable",
      "type": "function"
    },
    {
      "inputs": [
        {
          "internalType": "uint256",
          "name": "roleBitmap",
          "type": "uint256"
        },
        {
          "internalType": "address",
          "name": "account",
          "type": "address"
        }
      ],
      "name": "revokeRootRoles",
      "outputs": [
        {
          "internalType": "bool",
          "name": "",
          "type": "bool"
        }
      ],
      "stateMutability": "nonpayable",
      "type": "function"
    },
    {
      "inputs": [
        {
          "internalType": "uint256",
          "name": "anyId",
          "type": "uint256"
        }
      ],
      "name": "roleCount",
      "outputs": [
        {
          "internalType": "uint256",
          "name": "",
          "type": "uint256"
        }
      ],
      "stateMutability": "view",
      "type": "function"
    },
    {
      "inputs": [
        {
          "internalType": "uint256",
          "name": "anyId",
          "type": "uint256"
        },
        {
          "internalType": "address",
          "name": "account",
          "type": "address"
        }
      ],
      "name": "roles",
      "outputs": [
        {
          "internalType": "uint256",
          "name": "",
          "type": "uint256"
        }
      ],
      "stateMutability": "view",
      "type": "function"
    },
    {
      "inputs": [
        {
          "internalType": "address",
          "name": "from",
          "type": "address"
        },
        {
          "internalType": "address",
          "name": "to",
          "type": "address"
        },
        {
          "internalType": "uint256[]",
          "name": "ids",
          "type": "uint256[]"
        },
        {
          "internalType": "uint256[]",
          "name": "values",
          "type": "uint256[]"
        },
        {
          "internalType": "bytes",
          "name": "data",
          "type": "bytes"
        }
      ],
      "name": "safeBatchTransferFrom",
      "outputs": [],
      "stateMutability": "nonpayable",
      "type": "function"
    },
    {
      "inputs": [
        {
          "internalType": "address",
          "name": "from",
          "type": "address"
        },
        {
          "internalType": "address",
          "name": "to",
          "type": "address"
        },
        {
          "internalType": "uint256",
          "name": "id",
          "type": "uint256"
        },
        {
          "internalType": "uint256",
          "name": "value",
          "type": "uint256"
        },
        {
          "internalType": "bytes",
          "name": "data",
          "type": "bytes"
        }
      ],
      "name": "safeTransferFrom",
      "outputs": [],
      "stateMutability": "nonpayable",
      "type": "function"
    },
    {
      "inputs": [
        {
          "internalType": "address",
          "name": "operator",
          "type": "address"
        },
        {
          "internalType": "bool",
          "name": "approved",
          "type": "bool"
        }
      ],
      "name": "setApprovalForAll",
      "outputs": [],
      "stateMutability": "nonpayable",
      "type": "function"
    },
    {
      "inputs": [
        {
          "internalType": "uint256",
          "name": "anyId",
          "type": "uint256"
        },
        {
          "internalType": "address",
          "name": "resolver",
          "type": "address"
        }
      ],
      "name": "setResolver",
      "outputs": [],
      "stateMutability": "nonpayable",
      "type": "function"
    },
    {
      "inputs": [
        {
          "internalType": "uint256",
          "name": "anyId",
          "type": "uint256"
        },
        {
          "internalType": "contract IRegistry",
          "name": "registry",
          "type": "address"
        }
      ],
      "name": "setSubregistry",
      "outputs": [],
      "stateMutability": "nonpayable",
      "type": "function"
    },
    {
      "inputs": [
        {
          "internalType": "bytes4",
          "name": "interfaceId",
          "type": "bytes4"
        }
      ],
      "name": "supportsInterface",
      "outputs": [
        {
          "internalType": "bool",
          "name": "",
          "type": "bool"
        }
      ],
      "stateMutability": "view",
      "type": "function"
    },
    {
      "inputs": [
        {
          "internalType": "address",
          "name": "newImplementation",
          "type": "address"
        },
        {
          "internalType": "bytes",
          "name": "data",
          "type": "bytes"
        }
      ],
      "name": "upgradeToAndCall",
      "outputs": [],
      "stateMutability": "payable",
      "type": "function"
    },
    {
      "inputs": [
        {
          "internalType": "uint256",
          "name": "tokenId",
          "type": "uint256"
        }
      ],
      "name": "uri",
      "outputs": [
        {
          "internalType": "string",
          "name": "",
          "type": "string"
        }
      ],
      "stateMutability": "view",
      "type": "function"
    }
  ],
  "contractName": "UserRegistry",
  "sourceName": "src/registry/UserRegistry.sol",
  "bytecode": "0x6101006040523060e052348015610014575f80fd5b50604051614d20380380614d2083398101604081905261003391610e9c565b82828261003e610080565b6001600160a01b0380841660805280851660a052821660c0525f6100648180848161008e565b50505050505061007861019260201b60201c565b5050506111b9565b5f61008961022f565b905090565b5f610098846102cc565b6001600160a01b0383166100bf5760405163761fe2c960e11b815260040160405180910390fd5b5f8581526002602090815260408083206001600160a01b0387168452909152902054848117808214610184575f8781526002602090815260408083206001600160a01b038916845290915290208190558119861661011f88826001610315565b841561013257610132888785858b610445565b60408051848152602081018490526001600160a01b038816918a917f0d35bf721a39b614de00ca5038e1deb0cb0c69a278645e83405a7226cf80ba3c910160405180910390a36001935050505061018a565b5f925050505b949350505050565b5f61019b610455565b805490915068010000000000000000900460ff16156101cd5760405163f92ee8a960e01b815260040160405180910390fd5b80546001600160401b039081161461022c5780546001600160401b0319166001600160401b0390811782556040519081527fc7f505b2f371ae2175ee4913f4499e1f2633a7b5936321eed1cdaeb6115181d29060200160405180910390a15b50565b6080515f906001600160a01b031661024657503390565b60805160405163110ac5cb60e21b81523360048201525f916001600160a01b03169063442b172c90602401602060405180830381865afa15801561028c573d5f803e3d5ffd5b505050506040513d601f19601f820116820180604052508101906102b09190610ef1565b90506001600160a01b0381166102c7573391505090565b919050565b7feeeeeeeeeeeeeeeeeeeeeeeeeeeeeeeeeeeeeeeeeeeeeeeeeeeeeeeeeeeeeeee81161561022c57604051630153d96960e51b8152600481018290526024015b60405180910390fd5b5f61031f8361047f565b905081156103b5575f848152600360205260409020546103659082161980195f80516020614d0083398151915291909101165f80516020614ce083398151915216151590565b1561038d57604051631f22ca6960e31b8152600481018590526024810184905260440161030c565b5f84815260036020526040812080548592906103aa908490610f27565b9091555061043f9050565b5f848152600360205260409020546103f4901982161980195f80516020614d0083398151915291909101165f80516020614ce083398151915216151590565b1561041c57604051631f80c19b60e01b8152600481018590526024810184905260440161030c565b5f8481526003602052604081208054859290610439908490610f3a565b90915550505b50505050565b61044e85610499565b5050505050565b5f807ff0c57e16840df040f15088dc2f81fe391c3923bec73e23a9662efc9c229c6a005b92915050565b5f610489826102cc565b50600181901b17600281901b1790565b5f6104a38261061d565b80519091506001600160401b0316421015610619575f6104c383836106b3565b5f818152602081905260409020549091506001600160a01b0316801561043f576104ef818360016106d7565b8260200180516104fe90610f4d565b63ffffffff90811690915260a0516040805163c0f8a73160e01b81526004810186905286516001600160401b03166024820152602087015184166044820152908601516001600160a01b039081166064830152606087015190931660848201526080860151831660a482015291169063c0f8a7319060c4015f604051808303815f87803b15801561058d575f80fd5b505af115801561059f573d5f803e3d5ffd5b505050505f6105b483856106b360201b60201c565b90506105d78282600160405180602001604052805f81525061073d60201b60201c565b80837f88d074c8fc078bb1c0b9cfa9e3ca1f65a96141df8b0da854fe3083df813cbcca61060482886107a0565b60405190815260200160405180910390a35050505b5050565b6040805160a080820183525f808352602083018190528284018190526060830181905260808301525191516305c53a0760e51b81523060048201526024810184905290916001600160a01b03169063b8a740e09060440160a060405180830381865afa15801561068f573d5f803e3d5ffd5b505050506040513d601f19601f820116820180604052508101906104799190610f82565b60208101515f9063ffffffff166106cf8463ffffffff81161890565b179392505050565b6001600160a01b0383166106ff57604051626a0d4560e21b81525f600482015260240161030c565b604080516001808252602082018590528183019081526060820184905260a082019092525f6080820181815291929161044e918791859085906107e3565b6001600160a01b03841661076657604051632bfa23e760e11b81525f600482015260240161030c565b604080516001808252602082018690528183019081526060820185905260808201909252906107985f878484876107e3565b505050505050565b80515f906001600160401b03164210156107be5781606001516107ce565b60608201516107ce906001611024565b63ffffffff166106cf8463ffffffff81161890565b6107ef8585858561083f565b6001600160a01b0384161561044e575f610807610080565b90508351600103610831576020848101519084015161082a83898985858961094f565b5050610798565b610798818787878787610a79565b5f6001600160a01b0384161580159061086057506001600160a01b03851615155b905080156108f7575f5b83518110156108f5576108a184828151811061088857610888611048565b6020026020010151600160901b88610b6060201b60201c565b6108ed578381815181106108b7576108b7611048565b6020026020010151866040516372c7b6ad60e11b815260040161030c9291909182526001600160a01b0316602082015260400190565b60010161086a565b505b61090385858585610bbf565b801561044e575f5b83518110156107985761094761093f85838151811061092c5761092c611048565b6020026020010151610dc860201b60201c565b87875f610ddb565b60010161090b565b6001600160a01b0384163b156107985760405163f23a6e6160e01b81526001600160a01b0385169063f23a6e6190610993908990899088908890889060040161108a565b6020604051808303815f875af19250505080156109cd575060408051601f3d908101601f191682019092526109ca918101906110ce565b60015b610a34573d8080156109fa576040519150601f19603f3d011682016040523d82523d5f602084013e6109ff565b606091505b5080515f03610a2c57604051632bfa23e760e11b81526001600160a01b038616600482015260240161030c565b805181602001fd5b6001600160e01b0319811663f23a6e6160e01b14610a7057604051632bfa23e760e11b81526001600160a01b038616600482015260240161030c565b50505050505050565b6001600160a01b0384163b156107985760405163bc197c8160e01b81526001600160a01b0385169063bc197c8190610abd908990899088908890889060040161112f565b6020604051808303815f875af1925050508015610af7575060408051601f3d908101601f19168201909252610af4918101906110ce565b60015b610b24573d8080156109fa576040519150601f19603f3d011682016040523d82523d5f602084013e6109ff565b6001600160e01b0319811663bc197c8160e01b14610a7057604051632bfa23e760e11b81526001600160a01b038616600482015260240161030c565b5f61018a610b6d85610dc8565b5f9081526002602090815260408083206001600160a01b03871684528252808320547fac33ff75c19e70fe83507db0d683fd3465c996598dc972688b7ace676c89077b90925290912054178416841490565b8051825114610bee5781518151604051635b05999160e01b81526004810192909252602482015260440161030c565b5f610bf7610080565b90505f5b8351811015610cea576020818102858101820151908501909101518015610ce0575f828152602081905260409020546001600160a01b039081169089168114610c76576040516303dee4c560e01b81526001600160a01b038a1660048201525f6024820152604481018390526064810184905260840161030c565b6001821115610cb8576040516303dee4c560e01b81526001600160a01b038a16600482015260016024820152604481018390526064810184905260840161030c565b505f82815260208190526040902080546001600160a01b0319166001600160a01b0389161790555b5050600101610bfb565b508251600103610d6a5760208301515f906020840151909150856001600160a01b0316876001600160a01b0316846001600160a01b03167fc3d58168c5ae7397731d063d5bbf3d657854427343f4c083240f7aacaa2d0f628585604051610d5b929190918252602082015260400190565b60405180910390a4505061044e565b836001600160a01b0316856001600160a01b0316826001600160a01b03167f4a39dc06d4c0dbc64b70af90fd698a233a518aa5d07e595d983b8c0526c8f7fb8686604051610db992919061118c565b60405180910390a45050505050565b5f61047982610dd68161061d565b6107a0565b5f8481526002602090815260408083206001600160a01b0387168452909152902054801561044e57610e0f85828685610e1c565b506107988582858561008e565b5f610e26846102cc565b5f8581526002602090815260408083206001600160a01b038716845290915290205484198116808214610184575f8781526002602090815260408083206001600160a01b038916845290915281208290558683169061011f9089908390610315565b6001600160a01b038116811461022c575f80fd5b5f805f60608486031215610eae575f80fd5b8351610eb981610e88565b6020850151909350610eca81610e88565b6040850151909250610edb81610e88565b809150509250925092565b80516102c781610e88565b5f60208284031215610f01575f80fd5b8151610f0c81610e88565b9392505050565b634e487b7160e01b5f52601160045260245ffd5b8082018082111561047957610479610f13565b8181038181111561047957610479610f13565b5f63ffffffff808316818103610f6557610f65610f13565b6001019392505050565b805163ffffffff811681146102c7575f80fd5b5f60a08284031215610f92575f80fd5b60405160a081016001600160401b038082118383101715610fc157634e487b7160e01b5f52604160045260245ffd5b81604052845191508082168214610fd6575f80fd5b508152610fe560208401610f6f565b6020820152610ff660408401610ee6565b604082015261100760608401610f6f565b606082015261101860808401610ee6565b60808201529392505050565b63ffffffff81811683821601908082111561104157611041610f13565b5092915050565b634e487b7160e01b5f52603260045260245ffd5b5f81518084528060208401602086015e5f602082860101526020601f19601f83011685010191505092915050565b6001600160a01b03868116825285166020820152604081018490526060810183905260a0608082018190525f906110c39083018461105c565b979650505050505050565b5f602082840312156110de575f80fd5b81516001600160e01b031981168114610f0c575f80fd5b5f815180845260208085019450602084015f5b8381101561112457815187529582019590820190600101611108565b509495945050505050565b6001600160a01b0386811682528516602082015260a0604082018190525f9061115a908301866110f5565b828103606084015261116c81866110f5565b90508281036080840152611180818561105c565b98975050505050505050565b604081525f61119e60408301856110f5565b82810360208401526111b081856110f5565b95945050505050565b60805160a05160c05160e051613aa06112405f395f818161190d015281816119360152611ac401525f81816105a9015281816116a0015261170e01525f818161052301528181610acb01528181610db601528181610fec0152818161108801528181611cf701526126f201525f81816104660152818161218201526121e30152613aa05ff3fe608060405260043610610290575f3560e01c806352d1902d11610165578063bae78d7b116100c6578063d3bf89b11161007c578063e4ae7d7711610062578063e4ae7d7714610809578063e985e9c514610828578063f242432a1461086f575f80fd5b8063d3bf89b1146107cb578063dfa70d8b146107ea575f80fd5b8063bd242bcb116100ac578063bd242bcb1461076e578063cd6dc6871461078d578063ce156e82146107ac575f80fd5b8063bae78d7b14610723578063bc7b6d621461074f575f80fd5b8063781ef8db1161011b57806385f3e6431161010157806385f3e6431461069d578063a22cb465146106bc578063ad3cb1cc146106db575f80fd5b8063781ef8db146106285780637c3005861461067e575f80fd5b80635569f33d1161014b5780635569f33d146105cb5780635adf4724146105ea5780636352211e14610609575f80fd5b806352d1902d14610584578063531b9d6d14610598575f80fd5b80631e8fca2d1161020f57806335af6216116101c55780633f7cefce116101ab5780633f7cefce146105125780634e1273f4146105455780634f1ef28614610571575f80fd5b806335af6216146104bf5780633634f911146104de575f80fd5b80632f27fa24116101f55780632f27fa2414610436578063319c22bb14610455578063341ec559146104a0575f80fd5b80631e8fca2d146103f65780632eb2c2d614610415575f80fd5b80630e89341c1161026457806313c726081161024a57806313c726081461038c57806314ff5ea3146103c45780631c3fc3eb146103e3575f80fd5b80630e89341c1461034157806311b8e00a1461036d575f80fd5b8062fdd58e1461029457806301ffc9a7146102c6578063072d5d77146102f55780630a79637414610314575b5f80fd5b34801561029f575f80fd5b506102b36102ae366004612fd4565b61088e565b6040519081526020015b60405180910390f35b3480156102d1575f80fd5b506102e56102e0366004613013565b6108c5565b60405190151581526020016102bd565b348015610300575f80fd5b506102e561030f36600461302e565b610902565b34801561031f575f80fd5b5061033361032e366004613103565b61092d565b6040516102bd929190613148565b34801561034c575f80fd5b5061036061035b3660046131ad565b61097f565b6040516102bd91906131f2565b348015610378575f80fd5b506102e5610387366004613204565b61098a565b348015610397575f80fd5b506103ab6103a63660046131ad565b6109a4565b60405167ffffffffffffffff90911681526020016102bd565b3480156103cf575f80fd5b506102b36103de3660046131ad565b6109b5565b3480156103ee575f80fd5b506102b35f81565b348015610401575f80fd5b506102b36104103660046131ad565b6109c8565b348015610420575f80fd5b5061043461042f3660046132cc565b6109db565b005b348015610441575f80fd5b506102b36104503660046131ad565b610a78565b348015610460575f80fd5b506104887f000000000000000000000000000000000000000000000000000000000000000081565b6040516001600160a01b0390911681526020016102bd565b3480156104ab575f80fd5b506104346104ba36600461302e565b610a96565b3480156104ca575f80fd5b506104886104d93660046133b1565b610b74565b3480156104e9575f80fd5b506104fd6104f8366004613204565b610be1565b604080519283526020830191909152016102bd565b34801561051d575f80fd5b506104887f000000000000000000000000000000000000000000000000000000000000000081565b348015610550575f80fd5b5061056461055f3660046133f0565b610c01565b6040516102bd91906134e6565b61043461057f3660046134f8565b610ccc565b34801561058f575f80fd5b506102b3610ceb565b3480156105a3575f80fd5b506104887f000000000000000000000000000000000000000000000000000000000000000081565b3480156105d6575f80fd5b506104346105e5366004613550565b610d19565b3480156105f5575f80fd5b506102b361060436600461302e565b610e6d565b348015610614575f80fd5b506104886106233660046131ad565b610e9f565b348015610633575f80fd5b506102e561064236600461302e565b6001600160a01b03165f9081527fac33ff75c19e70fe83507db0d683fd3465c996598dc972688b7ace676c89077b602052604090205481161490565b348015610689575f80fd5b506102e5610698366004613573565b610efc565b3480156106a8575f80fd5b506102b36106b73660046135a9565b610f10565b3480156106c7575f80fd5b506104346106d636600461363c565b610f77565b3480156106e6575f80fd5b506103606040518060400160405280600581526020017f352e302e3000000000000000000000000000000000000000000000000000000081525081565b34801561072e575f80fd5b5061074261073d3660046131ad565b610f89565b6040516102bd919061366c565b34801561075a575f80fd5b5061043461076936600461302e565b611055565b348015610779575f80fd5b506104886107883660046131ad565b611127565b348015610798575f80fd5b506104346107a7366004612fd4565b611143565b3480156107b7575f80fd5b506102e56107c636600461302e565b6112ae565b3480156107d6575f80fd5b506102e56107e5366004613573565b6112d0565b3480156107f5575f80fd5b506102e5610804366004613573565b61132f565b348015610814575f80fd5b506104886108233660046133b1565b611343565b348015610833575f80fd5b506102e56108423660046136cb565b6001600160a01b039182165f90815260016020908152604080832093909416825291909152205460ff1690565b34801561087a575f80fd5b506104346108893660046136f7565b6113a6565b5f826001600160a01b03166108a283610e9f565b6001600160a01b0316146108b6575f6108b9565b60015b60ff1690505b92915050565b5f6001600160e01b031982167fb0f3d3670000000000000000000000000000000000000000000000000000000014806108bf57506108bf82611436565b5f80836109178282610912611473565b611481565b6109245f86866001611548565b95945050505050565b6040805160a0810182525f8082526020820181905291810182905260608101829052608081018290525f61096084611663565b905061096b81610f89565b91506109778183611679565b925050915091565b60606108bf8261169c565b5f61099d610997846109c8565b83611781565b9392505050565b5f6109ae82610f89565b5192915050565b5f6108bf826109c384610f89565b611679565b5f6108bf826109d684610f89565b611798565b5f6109e4611473565b9050806001600160a01b0316866001600160a01b031614158015610a2d57506001600160a01b038087165f9081526001602090815260408083209385168352929052205460ff16155b15610a635760405163711bec9160e11b81526001600160a01b038083166004830152871660248201526044015b60405180910390fd5b610a7086868686866117dc565b505050505050565b5f6108bf610a85836109c8565b5f9081526003602052604090205490565b5f80610aa484610100611841565b6001600160a01b038086166040808401919091525163c0f8a73160e01b81529294509092507f0000000000000000000000000000000000000000000000000000000000000000169063c0f8a73190610b029085908590600401613148565b5f604051808303815f87803b158015610b19575f80fd5b505af1158015610b2b573d5f803e3d5ffd5b50506040516001600160a01b03861681528492507fca01ade22fed8a886bda52d1fb12deaff178499347b6c13b1a892a60985a51e291506020015b60405180910390a250505050565b5f80610bb761073d85858080601f0160208091040260200160405190810160405280939291908181526020018383808284375f9201919091525061166392505050565b805190915067ffffffffffffffff16421015610bd7578060400151610bd9565b5f5b949350505050565b5f80610bf5610bef856109c8565b846118df565b915091505b9250929050565b60608151835114610c325781518351604051635b05999160e01b815260048101929092526024820152604401610a5a565b5f835167ffffffffffffffff811115610c4d57610c4d61305c565b604051908082528060200260200182016040528015610c76578160200160208202803683370190505b5090505f5b8451811015610cc457602080820286010151610c9f9060208084028701015161088e565b828281518110610cb157610cb161375b565b6020908102919091010152600101610c7b565b509392505050565b610cd4611902565b610cdd826119bb565b610ce782826119cc565b5050565b5f610cf4611ab9565b507f360894a13ba1a3210667c828492db98dca3e2076cc3735a920a3ca505d382bbc90565b5f80610d26846010611841565b91509150805f015167ffffffffffffffff168367ffffffffffffffff161015610d925780516040517f9967595a00000000000000000000000000000000000000000000000000000000815267ffffffffffffffff91821660048201529084166024820152604401610a5a565b67ffffffffffffffff8316815260405163c0f8a73160e01b81526001600160a01b037f0000000000000000000000000000000000000000000000000000000000000000169063c0f8a73190610ded9085908590600401613148565b5f604051808303815f87803b158015610e04575f80fd5b505af1158015610e16573d5f803e3d5ffd5b50505050817f3260962d42d8f7ae0af25cbfdb2983c214a859cfa2ac6df8ea29b534c267d42984610e45611473565b6040805167ffffffffffffffff90931683526001600160a01b03909116602083015201610b66565b5f61099d610e7a846109c8565b5f9081526002602090815260408083206001600160a01b038716845290915290205490565b5f80610eaa83610f89565b9050610eb68382611679565b83141580610ecf5750805167ffffffffffffffff164210155b610ef4575f838152602081905260409020546001600160a01b031661099d565b61099d565b5f9392505050565b5f610bd9610f09856109c8565b8484611b02565b5f6001610f255f82610f20611473565b611b47565b610f6a89898080601f0160208091040260200160405190810160405280939291908181526020018383808284375f920191909152508b92508a91508990508888611ba1565b9998505050505050505050565b610ce7610f82611473565b8383611e59565b6040805160a0810182525f8082526020820181905281830181905260608201819052608082015290517fb8a740e0000000000000000000000000000000000000000000000000000000008152306004820152602481018390526001600160a01b037f0000000000000000000000000000000000000000000000000000000000000000169063b8a740e09060440160a060405180830381865afa158015611031573d5f803e3d5ffd5b505050506040513d601f19601f820116820180604052508101906108bf9190613782565b5f8061106384611000611841565b6001600160a01b03808616608083015260405163c0f8a73160e01b81529294509092507f0000000000000000000000000000000000000000000000000000000000000000169063c0f8a731906110bf9085908590600401613148565b5f604051808303815f87803b1580156110d6575f80fd5b505af11580156110e8573d5f803e3d5ffd5b50506040516001600160a01b03861681528492507f3c055b8ebff34805cc0c0216cfd96bfe2613c75002ce000f6268324952541d069150602001610b66565b5f818152602081905260408120546001600160a01b03166108bf565b5f61114c611f07565b805490915060ff68010000000000000000820416159067ffffffffffffffff165f811580156111785750825b90505f8267ffffffffffffffff1660011480156111945750303b155b9050811580156111a2575080155b156111d9576040517ff92ee8a900000000000000000000000000000000000000000000000000000000815260040160405180910390fd5b845467ffffffffffffffff19166001178555831561120d57845468ff00000000000000001916680100000000000000001785555b6001600160a01b03871661124d576040517f49e27cff00000000000000000000000000000000000000000000000000000000815260040160405180910390fd5b6112595f87895f611548565b5083156112a557845468ff000000000000000019168555604051600181527fc7f505b2f371ae2175ee4913f4499e1f2633a7b5936321eed1cdaeb6115181d29060200160405180910390a15b50505050505050565b5f80836112c382826112be611473565b611f2f565b6109245f86866001612018565b5f610bd96112dd856109c8565b5f9081526002602090815260408083206001600160a01b03871684528252808320547fac33ff75c19e70fe83507db0d683fd3465c996598dc972688b7ace676c89077b90925290912054178416841490565b5f610bd961133c856109c8565b8484612084565b5f8061138661073d85858080601f0160208091040260200160405190810160405280939291908181526020018383808284375f9201919091525061166392505050565b805190915067ffffffffffffffff16421015610bd7578060800151610bd9565b5f6113af611473565b9050806001600160a01b0316866001600160a01b0316141580156113f857506001600160a01b038087165f9081526001602090815260408083209385168352929052205460ff16155b156114295760405163711bec9160e11b81526001600160a01b03808316600483015287166024820152604401610a5a565b610a7086868686866120bf565b5f6001600160e01b031982167f07ca514a0000000000000000000000000000000000000000000000000000000014806108bf57506108bf82612142565b5f61147c61217f565b905090565b5f6114ec84836001600160a01b03165f8181527fac33ff75c19e70fe83507db0d683fd3465c996598dc972688b7ace676c89077b60209081526040808320549483526002825280832093835292905220546f11111111111111111111111111111111911760801c1690565b90508019831615611542576040517fd1a3b35500000000000000000000000000000000000000000000000000000000815260048101859052602481018490526001600160a01b0383166044820152606401610a5a565b50505050565b5f61155284612270565b6001600160a01b038316611592576040517fec3fc59200000000000000000000000000000000000000000000000000000000815260040160405180910390fd5b5f8581526002602090815260408083206001600160a01b0387168452909152902054848117808214611657575f8781526002602090815260408083206001600160a01b03891684529091529020819055811986166115f2888260016122d0565b841561160557611605888785858b612465565b60408051848152602081018490526001600160a01b038816918a917f0d35bf721a39b614de00ca5038e1deb0cb0c69a278645e83405a7226cf80ba3c910160405180910390a360019350505050610bd9565b505f9695505050505050565b805160208201205f9063ffffffff8116186108bf565b5f816020015163ffffffff166116948463ffffffff81161890565b179392505050565b60607f00000000000000000000000000000000000000000000000000000000000000006001600160a01b03166116df57505060408051602081019091525f815290565b6040517f1675f455000000000000000000000000000000000000000000000000000000008152600481018390527f00000000000000000000000000000000000000000000000000000000000000006001600160a01b031690631675f455906024015f60405180830381865afa15801561175a573d5f803e3d5ffd5b505050506040513d5f823e601f3d908101601f191682016040526108bf9190810190613814565b5f8061178d8484610be1565b501515949350505050565b80515f9067ffffffffffffffff164210156117b75781606001516117c7565b60608201516117c790600161389d565b63ffffffff166116948463ffffffff81161890565b6001600160a01b03841661180557604051632bfa23e760e11b81525f6004820152602401610a5a565b6001600160a01b03851661182d57604051626a0d4560e21b81525f6004820152602401610a5a565b61183a858585858561246e565b5050505050565b6040805160a0810182525f80825260208201819052918101829052606081018290526080810182905261187384610f89565b905061187f8482611679565b815190925067ffffffffffffffff1642106118c9576040517f0c23d84000000000000000000000000000000000000000000000000000000000815260048101839052602401610a5a565b610bfa6118d68583611798565b84610f20611473565b5f806118ea836124ca565b5f948552600360205260409094205484169492505050565b306001600160a01b037f000000000000000000000000000000000000000000000000000000000000000016148061199b57507f00000000000000000000000000000000000000000000000000000000000000006001600160a01b031661198f7f360894a13ba1a3210667c828492db98dca3e2076cc3735a920a3ca505d382bbc546001600160a01b031690565b6001600160a01b031614155b156119b95760405163703e46dd60e11b815260040160405180910390fd5b565b62100000610ce75f82610f20611473565b816001600160a01b03166352d1902d6040518163ffffffff1660e01b8152600401602060405180830381865afa925050508015611a26575060408051601f3d908101601f19168201909252611a23918101906138c1565b60015b611a4e57604051634c9c8ce360e01b81526001600160a01b0383166004820152602401610a5a565b7f360894a13ba1a3210667c828492db98dca3e2076cc3735a920a3ca505d382bbc8114611aaa576040517faa1d49a400000000000000000000000000000000000000000000000000000000815260048101829052602401610a5a565b611ab483836124e4565b505050565b306001600160a01b037f000000000000000000000000000000000000000000000000000000000000000016146119b95760405163703e46dd60e11b815260040160405180910390fd5b5f8383611b128282610912611473565b85611b3057604051631850848b60e31b815260040160405180910390fd5b611b3d8686866001611548565b9695505050505050565b611b528383836112d0565b611ab4576040517f4b27a13300000000000000000000000000000000000000000000000000000000815260048101849052602481018390526001600160a01b0382166044820152606401610a5a565b5f611bab87611663565b90505f611bb782610f89565b805190915067ffffffffffffffff16421015611c0157876040517f6dbb87d0000000000000000000000000000000000000000000000000000000008152600401610a5a91906131f2565b67ffffffffffffffff83164210611c50576040517f6a0147dc00000000000000000000000000000000000000000000000000000000815267ffffffffffffffff84166004820152602401610a5a565b611c5a8282611679565b5f818152602081905260409020549092506001600160a01b03168015611cc157611c8681846001612539565b816060018051611c95906138d8565b63ffffffff169052602082018051611cac906138d8565b63ffffffff169052611cbe8383611679565b92505b67ffffffffffffffff841682526001600160a01b0380881660408085019190915287821660808501525163c0f8a73160e01b81527f00000000000000000000000000000000000000000000000000000000000000009091169063c0f8a73190611d309086908690600401613148565b5f604051808303815f87803b158015611d47575f80fd5b505af1158015611d59573d5f803e3d5ffd5b50505050827fd9d0e8edd77eacdd7bd3f1d10259814b1aa244f74019f036046bbcc622fdcf598a86611d89611473565b604051611d98939291906138fa565b60405180910390a2611dbb8884600160405180602001604052805f81525061259f565b611dd0611dc88484611798565b868a5f611548565b506040516001600160a01b038816815283907fca01ade22fed8a886bda52d1fb12deaff178499347b6c13b1a892a60985a51e29060200160405180910390a26040516001600160a01b038716815283907f3c055b8ebff34805cc0c0216cfd96bfe2613c75002ce000f6268324952541d069060200160405180910390a250509695505050505050565b6001600160a01b038216611e9b576040517fced3e1000000000000000000000000000000000000000000000000000000000081525f6004820152602401610a5a565b6001600160a01b038381165f81815260016020908152604080832094871680845294825291829020805460ff191686151590811790915591519182527f17307eab39ab6107e8899845ad3d59bd9653f200f220920489ca2b5937696c31910160405180910390a3505050565b5f807ff0c57e16840df040f15088dc2f81fe391c3923bec73e23a9662efc9c229c6a006108bf565b5f611fc284836001600160a01b03165f8181527fac33ff75c19e70fe83507db0d683fd3465c996598dc972688b7ace676c89077b60209081526040808320549483526002825280832093835292905220547f1111111111111111111111111111111100000000000000000000000000000000911790811660809190911c6f11111111111111111111111111111111161790565b90508019831615611542576040517fa604e31800000000000000000000000000000000000000000000000000000000815260048101859052602481018490526001600160a01b0383166044820152606401610a5a565b5f61202284612270565b5f8581526002602090815260408083206001600160a01b038716845290915290205484198116808214611657575f8781526002602090815260408083206001600160a01b03891684529091528120829055868316906115f290899083906122d0565b5f838361209482826112be611473565b856120b257604051631850848b60e31b815260040160405180910390fd5b611b3d8686866001612018565b6001600160a01b0384166120e857604051632bfa23e760e11b81525f6004820152602401610a5a565b6001600160a01b03851661211057604051626a0d4560e21b81525f6004820152602401610a5a565b604080516001808252602082018690528183019081526060820185905260808201909252906112a5878784848761246e565b5f6001600160e01b031982167f8f452d620000000000000000000000000000000000000000000000000000000014806108bf57506108bf826125fa565b5f7f00000000000000000000000000000000000000000000000000000000000000006001600160a01b03166121b357503390565b6040517f442b172c0000000000000000000000000000000000000000000000000000000081523360048201525f907f00000000000000000000000000000000000000000000000000000000000000006001600160a01b03169063442b172c90602401602060405180830381865afa158015612230573d5f803e3d5ffd5b505050506040513d601f19601f820116820180604052508101906122549190613935565b90506001600160a01b03811661226b573391505090565b919050565b7feeeeeeeeeeeeeeeeeeeeeeeeeeeeeeeeeeeeeeeeeeeeeeeeeeeeeeeeeeeeeeee8116156122cd576040517f2a7b2d2000000000000000000000000000000000000000000000000000000000815260048101829052602401610a5a565b50565b5f6122da836124ca565b905081156123a3575f848152600360205260409020547f888888888888888888888888888888888888888888888888888888888888888890821680197feeeeeeeeeeeeeeeeeeeeeeeeeeeeeeeeeeeeeeeeeeeeeeeeeeeeeeeeeeeeeeef0116161561237b576040517ff91653480000000000000000000000000000000000000000000000000000000081526004810185905260248101849052604401610a5a565b5f8481526003602052604081208054859290612398908490613950565b909155506115429050565b5f848152600360205260409020547f88888888888888888888888888888888888888888888888888888888888888889019821680197feeeeeeeeeeeeeeeeeeeeeeeeeeeeeeeeeeeeeeeeeeeeeeeeeeeeeeeeeeeeeeef0116161561243d576040517f1f80c19b0000000000000000000000000000000000000000000000000000000081526004810185905260248101849052604401610a5a565b5f848152600360205260408120805485929061245a908490613963565b909155505050505050565b61183a8561266d565b61247a858585856127c3565b6001600160a01b0384161561183a575f612492611473565b905083516001036124bc57602084810151908401516124b58389898585896128ef565b5050610a70565b610a70818787878787612a10565b5f6124d482612270565b50600181901b17600281901b1790565b6124ed82612af7565b6040516001600160a01b038316907fbc7cd75a20ee27fd9adebab32041f755214dbc6bffa90cc0225b39da2e5c2d3b905f90a280511561253157611ab48282612b7a565b610ce7612be3565b6001600160a01b03831661256157604051626a0d4560e21b81525f6004820152602401610a5a565b604080516001808252602082018590528183019081526060820184905260a082019092525f6080820181815291929161183a9187918590859061246e565b6001600160a01b0384166125c857604051632bfa23e760e11b81525f6004820152602401610a5a565b60408051600180825260208201869052818301908152606082018590526080820190925290610a705f8784848761246e565b5f6001600160e01b03198216636cdb3d1360e11b148061262a57506001600160e01b031982166303a24d0760e21b145b8061265e57506001600160e01b031982167fd1011f6100000000000000000000000000000000000000000000000000000000145b806108bf57506108bf82612c1b565b5f61267782610f89565b805190915067ffffffffffffffff16421015610ce7575f6126988383611679565b5f818152602081905260409020549091506001600160a01b03168015611542576126c481836001612539565b8260200180516126d3906138d8565b63ffffffff16905260405163c0f8a73160e01b81526001600160a01b037f0000000000000000000000000000000000000000000000000000000000000000169063c0f8a731906127299085908790600401613148565b5f604051808303815f87803b158015612740575f80fd5b505af1158015612752573d5f803e3d5ffd5b505050505f6127618385611679565b905061277e8282600160405180602001604052805f81525061259f565b80837f88d074c8fc078bb1c0b9cfa9e3ca1f65a96141df8b0da854fe3083df813cbcca6127ab8688611798565b60405190815260200160405180910390a35050505050565b5f6001600160a01b038416158015906127e457506001600160a01b03851615155b9050801561289d575f5b835181101561289b5761282e84828151811061280c5761280c61375b565b60200260200101517201000000000000000000000000000000000000886112d0565b612893578381815181106128445761284461375b565b6020026020010151866040517fe58f6d5a000000000000000000000000000000000000000000000000000000008152600401610a5a9291909182526001600160a01b0316602082015260400190565b6001016127ee565b505b6128a985858585612cb7565b801561183a575f5b8351811015610a70576128e76128df8583815181106128d2576128d261375b565b60200260200101516109c8565b87875f612ecd565b6001016128b1565b6001600160a01b0384163b15610a705760405163f23a6e6160e01b81526001600160a01b0385169063f23a6e61906129339089908990889088908890600401613976565b6020604051808303815f875af192505050801561296d575060408051601f3d908101601f1916820190925261296a918101906139b8565b60015b6129d4573d80801561299a576040519150601f19603f3d011682016040523d82523d5f602084013e61299f565b606091505b5080515f036129cc57604051632bfa23e760e11b81526001600160a01b0386166004820152602401610a5a565b805181602001fd5b6001600160e01b0319811663f23a6e6160e01b146112a557604051632bfa23e760e11b81526001600160a01b0386166004820152602401610a5a565b6001600160a01b0384163b15610a705760405163bc197c8160e01b81526001600160a01b0385169063bc197c8190612a5490899089908890889088906004016139d3565b6020604051808303815f875af1925050508015612a8e575060408051601f3d908101601f19168201909252612a8b918101906139b8565b60015b612abb573d80801561299a576040519150601f19603f3d011682016040523d82523d5f602084013e61299f565b6001600160e01b0319811663bc197c8160e01b146112a557604051632bfa23e760e11b81526001600160a01b0386166004820152602401610a5a565b806001600160a01b03163b5f03612b2c57604051634c9c8ce360e01b81526001600160a01b0382166004820152602401610a5a565b7f360894a13ba1a3210667c828492db98dca3e2076cc3735a920a3ca505d382bbc805473ffffffffffffffffffffffffffffffffffffffff19166001600160a01b0392909216919091179055565b60605f80846001600160a01b031684604051612b969190613a30565b5f60405180830381855af49150503d805f8114612bce576040519150601f19603f3d011682016040523d82523d5f602084013e612bd3565b606091505b5091509150610924858383612f0e565b34156119b9576040517fb398979f00000000000000000000000000000000000000000000000000000000815260040160405180910390fd5b5f6001600160e01b03198216636cdb3d1360e11b1480612c6457506001600160e01b031982167f6352211e00000000000000000000000000000000000000000000000000000000145b80612c7f57506001600160e01b031982166303a24d0760e21b145b806108bf57507f01ffc9a7000000000000000000000000000000000000000000000000000000006001600160e01b03198316146108bf565b8051825114612ce65781518151604051635b05999160e01b815260048101929092526024820152604401610a5a565b5f612cef611473565b90505f5b8351811015612def576020818102858101820151908501909101518015612de5575f828152602081905260409020546001600160a01b039081169089168114612d6e576040516303dee4c560e01b81526001600160a01b038a1660048201525f60248201526044810183905260648101849052608401610a5a565b6001821115612db0576040516303dee4c560e01b81526001600160a01b038a166004820152600160248201526044810183905260648101849052608401610a5a565b505f828152602081905260409020805473ffffffffffffffffffffffffffffffffffffffff19166001600160a01b0389161790555b5050600101612cf3565b508251600103612e6f5760208301515f906020840151909150856001600160a01b0316876001600160a01b0316846001600160a01b03167fc3d58168c5ae7397731d063d5bbf3d657854427343f4c083240f7aacaa2d0f628585604051612e60929190918252602082015260400190565b60405180910390a4505061183a565b836001600160a01b0316856001600160a01b0316826001600160a01b03167f4a39dc06d4c0dbc64b70af90fd698a233a518aa5d07e595d983b8c0526c8f7fb8686604051612ebe929190613a46565b60405180910390a45050505050565b5f8481526002602090815260408083206001600160a01b0387168452909152902054801561183a57612f0185828685612018565b50610a7085828585611548565b606082612f1e57610eef82612f7e565b8151158015612f3557506001600160a01b0384163b155b15612f77576040517f9996b3150000000000000000000000000000000000000000000000000000000081526001600160a01b0385166004820152602401610a5a565b508061099d565b805115612f8e5780518082602001fd5b6040517fd6bda27500000000000000000000000000000000000000000000000000000000815260040160405180910390fd5b6001600160a01b03811681146122cd575f80fd5b5f8060408385031215612fe5575f80fd5b8235612ff081612fc0565b946020939093013593505050565b6001600160e01b0319811681146122cd575f80fd5b5f60208284031215613023575f80fd5b813561099d81612ffe565b5f806040838503121561303f575f80fd5b82359150602083013561305181612fc0565b809150509250929050565b634e487b7160e01b5f52604160045260245ffd5b604051601f8201601f1916810167ffffffffffffffff811182821017156130995761309961305c565b604052919050565b5f67ffffffffffffffff8211156130ba576130ba61305c565b50601f01601f191660200190565b5f6130da6130d5846130a1565b613070565b90508281528383830111156130ed575f80fd5b828260208301375f602084830101529392505050565b5f60208284031215613113575f80fd5b813567ffffffffffffffff811115613129575f80fd5b8201601f81018413613139575f80fd5b610bd9848235602084016130c8565b82815260c0810161099d602083018467ffffffffffffffff8151168252602081015163ffffffff8082166020850152604083015191506001600160a01b0380831660408601528160608501511660608601528060808501511660808601525050505050565b5f602082840312156131bd575f80fd5b5035919050565b5f81518084528060208401602086015e5f602082860101526020601f19601f83011685010191505092915050565b602081525f61099d60208301846131c4565b5f8060408385031215613215575f80fd5b50508035926020909101359150565b5f67ffffffffffffffff82111561323d5761323d61305c565b5060051b60200190565b5f82601f830112613256575f80fd5b813560206132666130d583613224565b8083825260208201915060208460051b870101935086841115613287575f80fd5b602086015b848110156132a3578035835291830191830161328c565b509695505050505050565b5f82601f8301126132bd575f80fd5b61099d838335602085016130c8565b5f805f805f60a086880312156132e0575f80fd5b85356132eb81612fc0565b945060208601356132fb81612fc0565b9350604086013567ffffffffffffffff80821115613317575f80fd5b61332389838a01613247565b94506060880135915080821115613338575f80fd5b61334489838a01613247565b93506080880135915080821115613359575f80fd5b50613366888289016132ae565b9150509295509295909350565b5f8083601f840112613383575f80fd5b50813567ffffffffffffffff81111561339a575f80fd5b602083019150836020828501011115610bfa575f80fd5b5f80602083850312156133c2575f80fd5b823567ffffffffffffffff8111156133d8575f80fd5b6133e485828601613373565b90969095509350505050565b5f8060408385031215613401575f80fd5b823567ffffffffffffffff80821115613418575f80fd5b818501915085601f83011261342b575f80fd5b8135602061343b6130d583613224565b82815260059290921b84018101918181019089841115613459575f80fd5b948201945b8386101561348057853561347181612fc0565b8252948201949082019061345e565b96505086013592505080821115613495575f80fd5b506134a285828601613247565b9150509250929050565b5f815180845260208085019450602084015f5b838110156134db578151875295820195908201906001016134bf565b509495945050505050565b602081525f61099d60208301846134ac565b5f8060408385031215613509575f80fd5b823561351481612fc0565b9150602083013567ffffffffffffffff81111561352f575f80fd5b6134a2858286016132ae565b67ffffffffffffffff811681146122cd575f80fd5b5f8060408385031215613561575f80fd5b8235915060208301356130518161353b565b5f805f60608486031215613585575f80fd5b8335925060208401359150604084013561359e81612fc0565b809150509250925092565b5f805f805f805f60c0888a0312156135bf575f80fd5b873567ffffffffffffffff8111156135d5575f80fd5b6135e18a828b01613373565b90985096505060208801356135f581612fc0565b9450604088013561360581612fc0565b9350606088013561361581612fc0565b92506080880135915060a088013561362c8161353b565b8091505092959891949750929550565b5f806040838503121561364d575f80fd5b823561365881612fc0565b915060208301358015158114613051575f80fd5b60a081016108bf828467ffffffffffffffff8151168252602081015163ffffffff8082166020850152604083015191506001600160a01b0380831660408601528160608501511660608601528060808501511660808601525050505050565b5f80604083850312156136dc575f80fd5b82356136e781612fc0565b9150602083013561305181612fc0565b5f805f805f60a0868803121561370b575f80fd5b853561371681612fc0565b9450602086013561372681612fc0565b93506040860135925060608601359150608086013567ffffffffffffffff81111561374f575f80fd5b613366888289016132ae565b634e487b7160e01b5f52603260045260245ffd5b805163ffffffff8116811461226b575f80fd5b5f60a08284031215613792575f80fd5b60405160a0810181811067ffffffffffffffff821117156137b5576137b561305c565b60405282516137c38161353b565b81526137d16020840161376f565b602082015260408301516137e481612fc0565b60408201526137f56060840161376f565b6060820152608083015161380881612fc0565b60808201529392505050565b5f60208284031215613824575f80fd5b815167ffffffffffffffff81111561383a575f80fd5b8201601f8101841361384a575f80fd5b80516138586130d5826130a1565b81815285602083850101111561386c575f80fd5b8160208401602083015e5f91810160200191909152949350505050565b634e487b7160e01b5f52601160045260245ffd5b63ffffffff8181168382160190808211156138ba576138ba613889565b5092915050565b5f602082840312156138d1575f80fd5b5051919050565b5f63ffffffff8083168181036138f0576138f0613889565b6001019392505050565b606081525f61390c60608301866131c4565b905067ffffffffffffffff841660208301526001600160a01b0383166040830152949350505050565b5f60208284031215613945575f80fd5b815161099d81612fc0565b808201808211156108bf576108bf613889565b818103818111156108bf576108bf613889565b5f6001600160a01b03808816835280871660208401525084604083015283606083015260a060808301526139ad60a08301846131c4565b979650505050505050565b5f602082840312156139c8575f80fd5b815161099d81612ffe565b5f6001600160a01b03808816835280871660208401525060a060408301526139fe60a08301866134ac565b8281036060840152613a1081866134ac565b90508281036080840152613a2481856131c4565b98975050505050505050565b5f82518060208501845e5f920191825250919050565b604081525f613a5860408301856134ac565b828103602084015261092481856134ac56fea2646970667358221220117d6a8b956c60ced72f9bf1a35aa09bb79a88a221bd80fa823e1eed61ec8ec964736f6c634300081900338888888888888888888888888888888888888888888888888888888888888888eeeeeeeeeeeeeeeeeeeeeeeeeeeeeeeeeeeeeeeeeeeeeeeeeeeeeeeeeeeeeeef",
  "linkReferences": {},
  "deployedLinkReferences": {},
  "immutableReferences": {
    "13192": [
      {
        "length": 32,
        "start": 6413
      },
      {
        "length": 32,
        "start": 6454
      },
      {
        "length": 32,
        "start": 6852
      }
    ],
    "26166": [
      {
        "length": 32,
        "start": 1126
      },
      {
        "length": 32,
        "start": 8578
      },
      {
        "length": 32,
        "start": 8675
      }
    ],
    "27031": [
      {
        "length": 32,
        "start": 1315
      },
      {
        "length": 32,
        "start": 2763
      },
      {
        "length": 32,
        "start": 3510
      },
      {
        "length": 32,
        "start": 4076
      },
      {
        "length": 32,
        "start": 4232
      },
      {
        "length": 32,
        "start": 7415
      },
      {
        "length": 32,
        "start": 9970
      }
    ],
    "27162": [
      {
        "length": 32,
        "start": 1449
      },
      {
        "length": 32,
        "start": 5792
      },
      {
        "length": 32,
        "start": 5902
      }
    ]
  },
  "inputSourceName": "project/src/registry/UserRegistry.sol",
  "devdoc": {
    "details": "A user registry that inherits from PermissionedRegistry and is upgradeable using the UUPS pattern. This contract is designed to be deployed via the VerifiableFactory.",
    "errors": {
      "AddressEmptyCode(address)": [
        {
          "details": "There's no code at `target` (it is not a contract)."
        }
      ],
      "CannotReduceExpiration(uint64,uint64)": [
        {
          "details": "Error emitted when a name cannot be reduced in expiration."
        }
      ],
      "CannotSetPastExpiration(uint64)": [
        {
          "details": "Error emitted when a name cannot be set to a past expiration."
        }
      ],
      "ERC1155InsufficientBalance(address,uint256,uint256,uint256)": [
        {
          "details": "Indicates an error related to the current `balance` of a `sender`. Used in transfers.",
          "params": {
            "balance": "Current balance for the interacting account.",
            "needed": "Minimum amount required to perform a transfer.",
            "sender": "Address whose tokens are being transferred.",
            "tokenId": "Identifier number of a token."
          }
        }
      ],
      "ERC1155InvalidApprover(address)": [
        {
          "details": "Indicates a failure with the `approver` of a token to be approved. Used in approvals.",
          "params": {
            "approver": "Address initiating an approval operation."
          }
        }
      ],
      "ERC1155InvalidArrayLength(uint256,uint256)": [
        {
          "details": "Indicates an array length mismatch between ids and values in a safeBatchTransferFrom operation. Used in batch transfers.",
          "params": {
            "idsLength": "Length of the array of token identifiers",
            "valuesLength": "Length of the array of token amounts"
          }
        }
      ],
      "ERC1155InvalidOperator(address)": [
        {
          "details": "Indicates a failure with the `operator` to be approved. Used in approvals.",
          "params": {
            "operator": "Address that may be allowed to operate on tokens without being their owner."
          }
        }
      ],
      "ERC1155InvalidReceiver(address)": [
        {
          "details": "Indicates a failure with the token `receiver`. Used in transfers.",
          "params": {
            "receiver": "Address to which tokens are being transferred."
          }
        }
      ],
      "ERC1155InvalidSender(address)": [
        {
          "details": "Indicates a failure with the token `sender`. Used in transfers.",
          "params": {
            "sender": "Address whose tokens are being transferred."
          }
        }
      ],
      "ERC1155MissingApprovalForAll(address,address)": [
        {
          "details": "Indicates a failure with the `operator`s approval. Used in transfers.",
          "params": {
            "operator": "Address that may be allowed to operate on tokens without being their owner.",
            "owner": "Address of the current owner of a token."
          }
        }
      ],
      "ERC1967InvalidImplementation(address)": [
        {
          "details": "The `implementation` of the proxy is invalid."
        }
      ],
      "ERC1967NonPayable()": [
        {
          "details": "An upgrade function sees `msg.value > 0` that may be lost."
        }
      ],
      "FailedCall()": [
        {
          "details": "A call to an address target failed. The target may have reverted."
        }
      ],
      "InvalidInitialization()": [
        {
          "details": "The contract is already initialized."
        }
      ],
      "InvalidOwner()": [
        {
          "details": "Thrown when an operation requires a valid owner but receives the zero address"
        }
      ],
      "NameAlreadyRegistered(string)": [
        {
          "details": "Error emitted when a name is already registered."
        }
      ],
      "NameExpired(uint256)": [
        {
          "details": "Error emitted when a name has expired."
        }
      ],
      "NotInitializing()": [
        {
          "details": "The contract is not initializing."
        }
      ],
      "TransferDisallowed(uint256,address)": [
        {
          "details": "Error emitted when a transfer is not allowed due to missing transfer admin role."
        }
      ],
      "UUPSUnauthorizedCallContext()": [
        {
          "details": "The call is from an unauthorized context."
        }
      ],
      "UUPSUnsupportedProxiableUUID(bytes32)": [
        {
          "details": "The storage `slot` is unsupported as a UUID."
        }
      ]
    },
    "events": {
      "ApprovalForAll(address,address,bool)": {
        "details": "Emitted when `account` grants or revokes permission to `operator` to transfer their tokens, according to `approved`."
      },
      "ExpiryUpdated(uint256,uint64,address)": {
        "details": "Error selector: `0x`"
      },
      "Initialized(uint64)": {
        "details": "Triggered when the contract has been initialized or reinitialized."
      },
      "NameRegistered(uint256,string,uint64,address)": {
        "details": "SHOULD be emitted when a new label is registered"
      },
      "TransferBatch(address,address,address,uint256[],uint256[])": {
        "details": "Equivalent to multiple {TransferSingle} events, where `operator`, `from` and `to` are the same for all transfers."
      },
      "TransferSingle(address,address,address,uint256,uint256)": {
        "details": "Emitted when `value` amount of tokens of type `id` are transferred from `from` to `to` by `operator`."
      },
      "URI(string,uint256)": {
        "details": "Emitted when the URI for token type `id` changes to `value`, if it is a non-programmatic URI. If an {URI} event was emitted for `id`, the standard https://eips.ethereum.org/EIPS/eip-1155#metadata-extensions[guarantees] that `value` will equal the value returned by {IERC1155MetadataURI-uri}."
      },
      "Upgraded(address)": {
        "details": "Emitted when the implementation is upgraded."
      }
    },
    "kind": "dev",
    "methods": {
      "balanceOf(address,uint256)": {
        "details": "See {IERC1155-balanceOf}."
      },
      "balanceOfBatch(address[],uint256[])": {
        "details": "See {IERC1155-balanceOfBatch}. Requirements: - `accounts` and `ids` must have the same length."
      },
      "getEntry(uint256)": {
        "params": {
          "anyId": "The labelhash, token ID, or resource."
        },
        "returns": {
          "_0": "The datastore entry."
        }
      },
      "getExpiry(uint256)": {
        "params": {
          "anyId": "The labelhash, token ID, or resource."
        },
        "returns": {
          "_0": "The expiry for name."
        }
      },
      "getNameData(string)": {
        "details": "Fetches the name data for a label.",
        "params": {
          "label": "The label to fetch the name data for."
        },
        "returns": {
          "entry": "The entry data for the name.",
          "tokenId": "The token ID of the name."
        }
      },
      "getResolver(string)": {
        "details": "Fetches the resolver responsible for the specified label.",
        "params": {
          "label": "The label to fetch a resolver for."
        },
        "returns": {
          "_0": "resolver The address of a resolver responsible for this name, or `address(0)` if none exists."
        }
      },
      "getResource(uint256)": {
        "params": {
          "anyId": "The labelhash, token ID, or resource."
        },
        "returns": {
          "_0": "The resource."
        }
      },
      "getSubregistry(string)": {
        "details": "Fetches the registry for a subdomain.",
        "params": {
          "label": "The label to resolve."
        },
        "returns": {
          "_0": "The address of the registry for this subdomain, or `address(0)` if none exists."
        }
      },
      "getTokenId(uint256)": {
        "params": {
          "anyId": "The labelhash, token ID, or resource."
        },
        "returns": {
          "_0": "The token ID."
        }
      },
      "grantRoles(uint256,uint256,address)": {
        "details": "Grants all roles in the given role bitmap to `account`."
      },
      "grantRootRoles(uint256,address)": {
        "details": "Grants all roles in the given role bitmap to `account` in the ROOT_RESOURCE. The caller must have all the necessary admin roles for the roles being granted.",
        "params": {
          "account": "The account to grant roles to.",
          "roleBitmap": "The roles bitmap to grant."
        },
        "returns": {
          "_0": "`true` if the roles were granted, `false` otherwise."
        }
      },
      "hasRootRoles(uint256,address)": {
        "details": "Returns `true` if `account` has been granted all the given roles in the `ROOT_RESOURCE`.",
        "params": {
          "account": "The account to check.",
          "rolesBitmap": "The roles bitmap to check."
        },
        "returns": {
          "_0": "`true` if `account` has been granted all the given roles in the `ROOT_RESOURCE`, `false` otherwise."
        }
      },
      "initialize(address,uint256)": {
        "details": "Initializes the UserRegistry contract.",
        "params": {
          "admin": "The address that will be set as the admin with upgrade privileges.",
          "roleBitmap": "The roles to grant to `admin`."
        }
      },
      "isApprovedForAll(address,address)": {
        "details": "See {IERC1155-isApprovedForAll}."
      },
      "latestOwnerOf(uint256)": {
        "params": {
          "tokenId": "The token ID to query."
        },
        "returns": {
          "_0": "The latest owner address."
        }
      },
      "proxiableUUID()": {
        "details": "Implementation of the ERC-1822 {proxiableUUID} function. This returns the storage slot used by the implementation. It is used to validate the implementation's compatibility when performing an upgrade. IMPORTANT: A proxy pointing at a proxiable contract should not be considered proxiable itself, because this risks bricking a proxy that upgrades to it, by delegating to itself until out of gas. Thus it is critical that this function revert if invoked through a proxy. This is guaranteed by the `notDelegated` modifier."
      },
      "register(string,address,address,address,uint256,uint64)": {
        "details": "Registers a new name.",
        "params": {
          "expires": "The expiration date of the name.",
          "label": "The label to register.",
          "owner": "The address of the owner of the name.",
          "registry": "The registry to set as the name.",
          "resolver": "The resolver to set for the name.",
          "roleBitmap": "The role bitmap to set for the name."
        }
      },
      "renew(uint256,uint64)": {
        "params": {
          "anyId": "The labelhash, token ID, or resource.",
          "newExpiry": "The new expiration."
        }
      },
      "revokeRoles(uint256,uint256,address)": {
        "details": "Revokes all roles in the given role bitmap from `account`."
      },
      "revokeRootRoles(uint256,address)": {
        "details": "Revokes all roles in the given role bitmap from `account` in the ROOT_RESOURCE. The caller must have all the necessary admin roles for the roles being revoked.",
        "params": {
          "account": "The account to revoke roles from.",
          "roleBitmap": "The roles bitmap to revoke."
        },
        "returns": {
          "_0": "`true` if the roles were revoked, `false` otherwise."
        }
      },
      "safeBatchTransferFrom(address,address,uint256[],uint256[],bytes)": {
        "details": "See {IERC1155-safeBatchTransferFrom}."
      },
      "safeTransferFrom(address,address,uint256,uint256,bytes)": {
        "details": "See {IERC1155-safeTransferFrom}."
      },
      "setApprovalForAll(address,bool)": {
        "details": "See {IERC1155-setApprovalForAll}."
      },
      "setResolver(uint256,address)": {
        "params": {
          "anyId": "The labelhash, token ID, or resource.",
          "resolver": "The new resolver."
        }
      },
      "setSubregistry(uint256,address)": {
        "params": {
          "anyId": "The labelhash, token ID, or resource.",
          "registry": "The new registry."
        }
      },
      "supportsInterface(bytes4)": {
        "details": "See {IERC165-supportsInterface}."
      },
      "upgradeToAndCall(address,bytes)": {
        "custom:oz-upgrades-unsafe-allow-reachable": "delegatecall",
        "details": "Upgrade the implementation of the proxy to `newImplementation`, and subsequently execute the function call encoded in `data`. Calls {_authorizeUpgrade}. Emits an {Upgraded} event."
      }
    },
    "title": "UserRegistry",
    "version": 1
  },
  "evm": {
    "gasEstimates": {
      "creation": {
        "codeDepositCost": "3001600",
        "executionCost": "infinite",
        "totalCost": "infinite"
      },
      "external": {
        "DATASTORE()": "infinite",
        "HCA_FACTORY()": "infinite",
        "METADATA_PROVIDER()": "infinite",
        "ROOT_RESOURCE()": "294",
        "UPGRADE_INTERFACE_VERSION()": "infinite",
        "balanceOf(address,uint256)": "infinite",
        "balanceOfBatch(address[],uint256[])": "infinite",
        "getAssigneeCount(uint256,uint256)": "infinite",
        "getEntry(uint256)": "infinite",
        "getExpiry(uint256)": "infinite",
        "getNameData(string)": "infinite",
        "getResolver(string)": "infinite",
        "getResource(uint256)": "infinite",
        "getSubregistry(string)": "infinite",
        "getTokenId(uint256)": "infinite",
        "grantRoles(uint256,uint256,address)": "infinite",
        "grantRootRoles(uint256,address)": "infinite",
        "hasAssignees(uint256,uint256)": "infinite",
        "hasRoles(uint256,uint256,address)": "infinite",
        "hasRootRoles(uint256,address)": "2642",
        "initialize(address,uint256)": "infinite",
        "isApprovedForAll(address,address)": "infinite",
        "latestOwnerOf(uint256)": "2575",
        "ownerOf(uint256)": "infinite",
        "proxiableUUID()": "infinite",
        "register(string,address,address,address,uint256,uint64)": "infinite",
        "renew(uint256,uint64)": "infinite",
        "revokeRoles(uint256,uint256,address)": "infinite",
        "revokeRootRoles(uint256,address)": "infinite",
        "roleCount(uint256)": "infinite",
        "roles(uint256,address)": "infinite",
        "safeBatchTransferFrom(address,address,uint256[],uint256[],bytes)": "infinite",
        "safeTransferFrom(address,address,uint256,uint256,bytes)": "infinite",
        "setApprovalForAll(address,bool)": "infinite",
        "setResolver(uint256,address)": "infinite",
        "setSubregistry(uint256,address)": "infinite",
        "supportsInterface(bytes4)": "infinite",
        "upgradeToAndCall(address,bytes)": "infinite",
        "uri(uint256)": "infinite"
      },
      "internal": {
        "_authorizeUpgrade(address)": "infinite"
      }
    }
  },
  "storageLayout": {
    "storage": [
      {
        "astId": 25257,
        "contract": "project/src/registry/UserRegistry.sol:UserRegistry",
        "label": "_owners",
        "offset": 0,
        "slot": "0",
        "type": "t_mapping(t_uint256,t_address)"
      },
      {
        "astId": 25263,
        "contract": "project/src/registry/UserRegistry.sol:UserRegistry",
        "label": "_operatorApprovals",
        "offset": 0,
        "slot": "1",
        "type": "t_mapping(t_address,t_mapping(t_address,t_bool))"
      },
      {
        "astId": 23872,
        "contract": "project/src/registry/UserRegistry.sol:UserRegistry",
        "label": "_roles",
        "offset": 0,
        "slot": "2",
        "type": "t_mapping(t_uint256,t_mapping(t_address,t_uint256))"
      },
      {
        "astId": 23877,
        "contract": "project/src/registry/UserRegistry.sol:UserRegistry",
        "label": "_roleCount",
        "offset": 0,
        "slot": "3",
        "type": "t_mapping(t_uint256,t_uint256)"
      }
    ],
    "types": {
      "t_address": {
        "encoding": "inplace",
        "label": "address",
        "numberOfBytes": "20"
      },
      "t_bool": {
        "encoding": "inplace",
        "label": "bool",
        "numberOfBytes": "1"
      },
      "t_mapping(t_address,t_bool)": {
        "encoding": "mapping",
        "key": "t_address",
        "label": "mapping(address => bool)",
        "numberOfBytes": "32",
        "value": "t_bool"
      },
      "t_mapping(t_address,t_mapping(t_address,t_bool))": {
        "encoding": "mapping",
        "key": "t_address",
        "label": "mapping(address => mapping(address => bool))",
        "numberOfBytes": "32",
        "value": "t_mapping(t_address,t_bool)"
      },
      "t_mapping(t_address,t_uint256)": {
        "encoding": "mapping",
        "key": "t_address",
        "label": "mapping(address => uint256)",
        "numberOfBytes": "32",
        "value": "t_uint256"
      },
      "t_mapping(t_uint256,t_address)": {
        "encoding": "mapping",
        "key": "t_uint256",
        "label": "mapping(uint256 => address)",
        "numberOfBytes": "32",
        "value": "t_address"
      },
      "t_mapping(t_uint256,t_mapping(t_address,t_uint256))": {
        "encoding": "mapping",
        "key": "t_uint256",
        "label": "mapping(uint256 => mapping(address => uint256))",
        "numberOfBytes": "32",
        "value": "t_mapping(t_address,t_uint256)"
      },
      "t_mapping(t_uint256,t_uint256)": {
        "encoding": "mapping",
        "key": "t_uint256",
        "label": "mapping(uint256 => uint256)",
        "numberOfBytes": "32",
        "value": "t_uint256"
      },
      "t_uint256": {
        "encoding": "inplace",
        "label": "uint256",
        "numberOfBytes": "32"
      }
    }
  },
  "userdoc": {
    "events": {
      "ExpiryUpdated(uint256,uint64,address)": {
        "notice": "Expiry was changed."
      },
      "ResolverUpdated(uint256,address)": {
        "notice": "Resolver was changed."
      },
      "SubregistryUpdated(uint256,address)": {
        "notice": "Subregistry was changed."
      },
      "TokenRegenerated(uint256,uint256,uint256)": {
        "notice": "Token was regenerated with a new token ID.         This occurs when roles are granted or revoked to maintain ERC1155 compliance."
      }
    },
    "kind": "user",
    "methods": {
      "HCA_FACTORY()": {
        "notice": "The HCA factory contract"
      },
      "METADATA_PROVIDER()": {
        "notice": "The metadata provider contract"
      },
      "ROOT_RESOURCE()": {
        "notice": "The `ROOT_RESOURCE`."
      },
      "getEntry(uint256)": {
        "notice": "Get datastore `Entry` from `anyId`."
      },
      "getExpiry(uint256)": {
        "notice": "Get expiry of name."
      },
      "getResource(uint256)": {
        "notice": "Get `resource` from `anyId`."
      },
      "getTokenId(uint256)": {
        "notice": "Get `tokenId` from `anyId`."
      },
      "latestOwnerOf(uint256)": {
        "notice": "Get the latest owner of a token.         If the token was burned, returns null."
      },
      "renew(uint256,uint64)": {
        "notice": "Renew a subdomain."
      },
      "setResolver(uint256,address)": {
        "notice": "Change resolver of name."
      },
      "setSubregistry(uint256,address)": {
        "notice": "Change registry of name."
      }
    },
    "version": 1
  },
  "argsData": "0x000000000000000000000000a513e6e4b8f2a923d98304ec87f64353c4d5c8530000000000000000000000002279b7a0a67db372996a5fab50d91eaa73d2ebe60000000000000000000000008a791620dd6260079bf849dc5567adc3f2fdc318",
  "transaction": {
    "hash": "0x78fe010d41a7847a340511ef41698d22688dc685a3eb372841d100b16e852073",
    "nonce": "0x3d",
    "origin": "0xf39fd6e51aad88f6f4ce6ab8827279cfffb92266"
  }
}