{
  "address": "0x82e01223d51eb87e16a03e24687edf0f294da6f1",
  "abi": [
    {
      "anonymous": false,
      "inputs": [
        {
          "indexed": true,
          "internalType": "address",
          "name": "sender",
          "type": "address"
        },
        {
          "indexed": true,
          "internalType": "address",
          "name": "proxyAddress",
          "type": "address"
        },
        {
          "indexed": false,
          "internalType": "uint256",
          "name": "salt",
          "type": "uint256"
        },
        {
          "indexed": false,
          "internalType": "address",
          "name": "implementation",
          "type": "address"
        }
      ],
      "name": "ProxyDeployed",
      "type": "event"
    },
    {
      "inputs": [
        {
          "internalType": "address",
          "name": "implementation",
          "type": "address"
        },
        {
          "internalType": "uint256",
          "name": "salt",
          "type": "uint256"
        },
        {
          "internalType": "bytes",
          "name": "data",
          "type": "bytes"
        }
      ],
      "name": "deployProxy",
      "outputs": [
        {
          "internalType": "address",
          "name": "",
          "type": "address"
        }
      ],
      "stateMutability": "nonpayable",
      "type": "function"
    },
    {
      "inputs": [
        {
          "internalType": "address",
          "name": "proxy",
          "type": "address"
        }
      ],
      "name": "verifyContract",
      "outputs": [
        {
          "internalType": "bool",
          "name": "",
          "type": "bool"
        }
      ],
      "stateMutability": "view",
      "type": "function"
    }
  ],
  "contractName": "VerifiableFactory",
  "sourceName": "lib/verifiable-factory/src/VerifiableFactory.sol",
  "bytecode": "0x6080604052348015600e575f80fd5b50610ca38061001c5f395ff3fe608060405234801561000f575f80fd5b5060043610610034575f3560e01c80633d200b45146100385780635d84121a14610060575b5f80fd5b61004b61004636600461039e565b61008b565b60405190151581526020015b60405180910390f35b61007361006e3660046103e4565b610110565b6040516001600160a01b039091168152602001610057565b5f813b61009957505f919050565b816001600160a01b03166397916f166040518163ffffffff1660e01b8152600401602060405180830381865afa9250505080156100f3575060408051601f3d908101601f191682019092526100f0918101906104a8565b60015b156101095761010283826102b4565b9392505050565b505f919050565b604080513360208201529081018390525f9081906060016040516020818303038152906040528051906020012090505f81308360405161014f90610376565b6001600160a01b03909216825260208201526040018190604051809103905ff5905080158015610181573d5f803e3d5ffd5b509050803b6101f0576040517f08c379a000000000000000000000000000000000000000000000000000000000815260206004820152601760248201527f50726f7879206465706c6f796d656e74206661696c6564000000000000000000604482015260640160405180910390fd5b6040517fd1f578940000000000000000000000000000000000000000000000000000000081526001600160a01b0382169063d1f578949061023790899088906004016104bf565b5f604051808303815f87803b15801561024e575f80fd5b505af1158015610260573d5f803e3d5ffd5b5050604080518881526001600160a01b038a81166020830152851693503392507f0a2c575ff341b41da136c9ccae74ec230a927a024d18f0dccf46d123f28f5f54910160405180910390a395945050505050565b5f80604051806020016102c690610376565b601f1982820381018352601f909101166040818152306020830152810185905260600160408051601f1981840301815290829052610307929160200161051b565b60405160208183030381529060405290505f61032b84838051906020012030610344565b6001600160a01b03908116908616149250505092915050565b5f604051836040820152846020820152828152600b8101905060ff8153605590206001600160a01b0316949350505050565b6107368061053883390190565b80356001600160a01b0381168114610399575f80fd5b919050565b5f602082840312156103ae575f80fd5b61010282610383565b7f4e487b71000000000000000000000000000000000000000000000000000000005f52604160045260245ffd5b5f805f606084860312156103f6575f80fd5b6103ff84610383565b925060208401359150604084013567ffffffffffffffff80821115610422575f80fd5b818601915086601f830112610435575f80fd5b813581811115610447576104476103b7565b604051601f8201601f19908116603f0116810190838211818310171561046f5761046f6103b7565b81604052828152896020848701011115610487575f80fd5b826020860160208301375f6020848301015280955050505050509250925092565b5f602082840312156104b8575f80fd5b5051919050565b6001600160a01b0383168152604060208201525f82518060408401528060208501606085015e5f606082850101526060601f19601f8301168401019150509392505050565b5f81518060208401855e5f93019283525090919050565b5f61052f6105298386610504565b84610504565b94935050505056fe60a060405234801561000f575f80fd5b5060405161073638038061073683398101604081905261002e916100b1565b6001600160a01b0382166080526100448161004b565b50506100e8565b806100966100936040518060400160405280601d81526020017f6574682e656e732e70726f78792e76657269666961626c652e73616c7400000081525061009a60201b60201c565b90565b5550565b80516020918201205f19015f9081522060ff191690565b5f80604083850312156100c2575f80fd5b82516001600160a01b03811681146100d8575f80fd5b6020939093015192949293505050565b6080516106376100ff5f395f605901526106375ff3fe608060405260043610610037575f3560e01c806385369dd71461004857806397916f1614610098578063d1f57894146101285761003e565b3661003e57005b61004661013b565b005b348015610053575f80fd5b5061007b7f000000000000000000000000000000000000000000000000000000000000000081565b6040516001600160a01b0390911681526020015b60405180910390f35b3480156100a3575f80fd5b50604080518082018252601d81527f6574682e656e732e70726f78792e76657269666961626c652e73616c740000006020918201527f3e9cfdd8d40f30595926337eb0c64018d8d721ad32ce99531ce713b60a9968505f527fb5b0a4d9ccf39d6e791e14c03248a14f4288ec2ddf7c269443c96ac5f0b171005491519182520161008f565b610046610136366004610522565b61014d565b61014b61014661023b565b610272565b565b6001600160a01b0382166101ce5760405162461bcd60e51b815260206004820152602d60248201527f4e657720696d706c656d656e746174696f6e2063616e6e6f742062652074686560448201527f207a65726f20616464726573730000000000000000000000000000000000000060648201526084015b60405180910390fd5b5f6101d761023b565b6001600160a01b03161461022d5760405162461bcd60e51b815260206004820152601360248201527f416c726561647920696e697469616c697a65640000000000000000000000000060448201526064016101c5565b6102378282610290565b5050565b5f61026d7f360894a13ba1a3210667c828492db98dca3e2076cc3735a920a3ca505d382bbc546001600160a01b031690565b905090565b365f80375f80365f845af43d5f803e80801561028c573d5ff35b3d5ffd5b610299826102ea565b6040516001600160a01b038316907fbc7cd75a20ee27fd9adebab32041f755214dbc6bffa90cc0225b39da2e5c2d3b905f90a28051156102e2576102dd8282610391565b505050565b610237610403565b806001600160a01b03163b5f03610338576040517f4c9c8ce30000000000000000000000000000000000000000000000000000000081526001600160a01b03821660048201526024016101c5565b7f360894a13ba1a3210667c828492db98dca3e2076cc3735a920a3ca505d382bbc80547fffffffffffffffffffffffff0000000000000000000000000000000000000000166001600160a01b0392909216919091179055565b60605f80846001600160a01b0316846040516103ad91906105eb565b5f60405180830381855af49150503d805f81146103e5576040519150601f19603f3d011682016040523d82523d5f602084013e6103ea565b606091505b50915091506103fa85838361043b565b95945050505050565b341561014b576040517fb398979f00000000000000000000000000000000000000000000000000000000815260040160405180910390fd5b6060826104505761044b826104b3565b6104ac565b815115801561046757506001600160a01b0384163b155b156104a9576040517f9996b3150000000000000000000000000000000000000000000000000000000081526001600160a01b03851660048201526024016101c5565b50805b9392505050565b8051156104c35780518082602001fd5b6040517fd6bda27500000000000000000000000000000000000000000000000000000000815260040160405180910390fd5b7f4e487b71000000000000000000000000000000000000000000000000000000005f52604160045260245ffd5b5f8060408385031215610533575f80fd5b82356001600160a01b0381168114610549575f80fd5b9150602083013567ffffffffffffffff80821115610565575f80fd5b818501915085601f830112610578575f80fd5b81358181111561058a5761058a6104f5565b604051601f8201601f19908116603f011681019083821181831017156105b2576105b26104f5565b816040528281528860208487010111156105ca575f80fd5b826020860160208301375f6020848301015280955050505050509250929050565b5f82518060208501845e5f92019182525091905056fea2646970667358221220010483f82caed094ce08f74002a961380e394c48587cffee732494c2cdb2aa7264736f6c63430008190033a2646970667358221220a0ced8c5d89104bae9e411f6671a063ba812cd3c14ed2d55b0db20937c28d66764736f6c63430008190033",
  "linkReferences": {},
  "deployedLinkReferences": {},
  "immutableReferences": {},
  "inputSourceName": "project/lib/verifiable-factory/src/VerifiableFactory.sol",
  "devdoc": {
    "kind": "dev",
    "methods": {
      "deployProxy(address,uint256,bytes)": {
        "details": "Deploys a new `UUPSProxy` contract at a deterministic address. This function deploys a proxy contract using the CREATE2 opcode, ensuring a predictable address based on the sender's address and a provided salt. The deployed proxy is controlled by the factory and is initialized to use a specific implementation. - A unique address for the proxy is generated using the caller's address and the salt. - After deployment, the proxy's `initialize` function is called to configure it with the given salt,   the factory address, and the provided implementation address. - The proxy is fully managed by the factory, which controls upgrades and other administrative methods. - The event `ProxyDeployed` is emitted, logging details of the deployment including the sender, proxy address, salt, and implementation.",
        "params": {
          "implementation": "The address of the contract implementation the proxy will delegate calls to.",
          "salt": "A value provided by the caller to ensure uniqueness of the proxy address."
        },
        "returns": {
          "_0": "proxy The address of the deployed `UUPSProxy`."
        }
      },
      "verifyContract(address)": {
        "details": "Initiates verification of a proxy contract. This function attempts to validate a proxy contract by retrieving its salt and reconstructing the address to ensure it was correctly deployed by the current factory.",
        "params": {
          "proxy": "The address of the proxy contract being verified."
        },
        "returns": {
          "_0": "A boolean indicating whether the verification succeeded."
        }
      }
    },
    "version": 1
  },
  "evm": {
    "gasEstimates": {
      "creation": {
        "codeDepositCost": "647000",
        "executionCost": "681",
        "totalCost": "647681"
      },
      "external": {
        "deployProxy(address,uint256,bytes)": "infinite",
        "verifyContract(address)": "infinite"
      },
      "internal": {
        "_verifyContract(address,bytes32)": "infinite",
        "isContract(address)": "infinite"
      }
    }
  },
  "storageLayout": {
    "storage": [],
    "types": null
  },
  "userdoc": {
    "kind": "user",
    "methods": {},
    "version": 1
  },
  "argsData": "0x",
  "transaction": {
    "hash": "0xf43bc5ef019623c54d8c32f82eb3ea998667a1cda69080f6b31e38b3c1f04d1a",
    "nonce": "0x36",
    "origin": "0xf39fd6e51aad88f6f4ce6ab8827279cfffb92266"
  }
}